{
  "abi": [
    {
      "type": "constructor",
      "inputs": [
        {
          "name": "auctionHouse_",
          "type": "address",
          "internalType": "address"
        }
      ],
      "stateMutability": "nonpayable"
    },
    {
      "type": "function",
      "name": "auctionHouse",
      "inputs": [],
      "outputs": [
        {
          "name": "",
          "type": "address",
          "internalType": "address"
        }
      ],
      "stateMutability": "view"
    },
    {
      "type": "function",
      "name": "getAuctionsByBaseToken",
      "inputs": [
        {
          "name": "baseToken_",
          "type": "address",
          "internalType": "contract ERC20"
        },
        {
          "name": "startId_",
          "type": "uint96",
          "internalType": "uint96"
        },
        {
          "name": "count_",
          "type": "uint96",
          "internalType": "uint96"
        }
      ],
      "outputs": [
        {
          "name": "",
          "type": "uint96[]",
          "internalType": "uint96[]"
        }
      ],
      "stateMutability": "view"
    },
    {
      "type": "function",
      "name": "getAuctionsByQuoteToken",
      "inputs": [
        {
          "name": "quoteToken_",
          "type": "address",
          "internalType": "contract ERC20"
        },
        {
          "name": "startId_",
          "type": "uint96",
          "internalType": "uint96"
        },
        {
          "name": "count_",
          "type": "uint96",
          "internalType": "uint96"
        }
      ],
      "outputs": [
        {
          "name": "",
          "type": "uint96[]",
          "internalType": "uint96[]"
        }
      ],
      "stateMutability": "view"
    },
    {
      "type": "function",
      "name": "getAuctionsBySeller",
      "inputs": [
        {
          "name": "seller_",
          "type": "address",
          "internalType": "address"
        },
        {
          "name": "startId_",
          "type": "uint96",
          "internalType": "uint96"
        },
        {
          "name": "count_",
          "type": "uint96",
          "internalType": "uint96"
        }
      ],
      "outputs": [
        {
          "name": "",
          "type": "uint96[]",
          "internalType": "uint96[]"
        }
      ],
      "stateMutability": "view"
    },
    {
      "type": "function",
      "name": "getAuctionsByType",
      "inputs": [
        {
          "name": "auctionReference_",
          "type": "bytes7",
          "internalType": "Veecode"
        },
        {
          "name": "startId_",
          "type": "uint96",
          "internalType": "uint96"
        },
        {
          "name": "count_",
          "type": "uint96",
          "internalType": "uint96"
        }
      ],
      "outputs": [
        {
          "name": "",
          "type": "uint96[]",
          "internalType": "uint96[]"
        }
      ],
      "stateMutability": "view"
    },
    {
      "type": "function",
      "name": "getLiveAuctions",
      "inputs": [
        {
          "name": "startId_",
          "type": "uint96",
          "internalType": "uint96"
        },
        {
          "name": "count_",
          "type": "uint96",
          "internalType": "uint96"
        }
      ],
      "outputs": [
        {
          "name": "",
          "type": "uint96[]",
          "internalType": "uint96[]"
        }
      ],
      "stateMutability": "view"
    },
    {
      "type": "function",
      "name": "getMaxLotId",
      "inputs": [],
      "outputs": [
        {
          "name": "",
          "type": "uint96",
          "internalType": "uint96"
        }
      ],
      "stateMutability": "view"
    },
    {
      "type": "function",
      "name": "getRouting",
      "inputs": [
        {
          "name": "lotId_",
          "type": "uint96",
          "internalType": "uint96"
        }
      ],
      "outputs": [
        {
          "name": "",
          "type": "tuple",
          "internalType": "struct AuctionHouse.Routing",
          "components": [
            {
              "name": "seller",
              "type": "address",
              "internalType": "address"
            },
            {
              "name": "baseToken",
              "type": "address",
              "internalType": "contract ERC20"
            },
            {
              "name": "quoteToken",
              "type": "address",
              "internalType": "contract ERC20"
            },
            {
              "name": "auctionReference",
              "type": "bytes7",
              "internalType": "Veecode"
            },
            {
              "name": "funding",
              "type": "uint256",
              "internalType": "uint256"
            },
            {
              "name": "callbacks",
              "type": "address",
              "internalType": "contract ICallback"
            },
            {
              "name": "derivativeReference",
              "type": "bytes7",
              "internalType": "Veecode"
            },
            {
              "name": "wrapDerivative",
              "type": "bool",
              "internalType": "bool"
            },
            {
              "name": "derivativeParams",
              "type": "bytes",
              "internalType": "bytes"
            }
          ]
        }
      ],
      "stateMutability": "view"
    },
    {
      "type": "function",
      "name": "hasEnded",
      "inputs": [
        {
          "name": "lotId_",
          "type": "uint96",
          "internalType": "uint96"
        }
      ],
      "outputs": [
        {
          "name": "",
          "type": "bool",
          "internalType": "bool"
        }
      ],
      "stateMutability": "view"
    },
    {
      "type": "function",
      "name": "isLive",
      "inputs": [
        {
          "name": "lotId_",
          "type": "uint96",
          "internalType": "uint96"
        }
      ],
      "outputs": [
        {
          "name": "",
          "type": "bool",
          "internalType": "bool"
        }
      ],
      "stateMutability": "view"
    },
    {
      "type": "function",
      "name": "maxAmountAccepted",
      "inputs": [
        {
          "name": "lotId_",
          "type": "uint96",
          "internalType": "uint96"
        }
      ],
      "outputs": [
        {
          "name": "",
          "type": "uint256",
          "internalType": "uint256"
        }
      ],
      "stateMutability": "view"
    },
    {
      "type": "function",
      "name": "maxPayout",
      "inputs": [
        {
          "name": "lotId_",
          "type": "uint96",
          "internalType": "uint96"
        }
      ],
      "outputs": [
        {
          "name": "",
          "type": "uint256",
          "internalType": "uint256"
        }
      ],
      "stateMutability": "view"
    },
    {
      "type": "function",
      "name": "payoutFor",
      "inputs": [
        {
          "name": "lotId_",
          "type": "uint96",
          "internalType": "uint96"
        },
        {
          "name": "amount_",
          "type": "uint256",
          "internalType": "uint256"
        }
      ],
      "outputs": [
        {
          "name": "",
          "type": "uint256",
          "internalType": "uint256"
        }
      ],
      "stateMutability": "view"
    },
    {
      "type": "function",
      "name": "priceFor",
      "inputs": [
        {
          "name": "lotId_",
          "type": "uint96",
          "internalType": "uint96"
        },
        {
          "name": "payout_",
          "type": "uint256",
          "internalType": "uint256"
        }
      ],
      "outputs": [
        {
          "name": "",
          "type": "uint256",
          "internalType": "uint256"
        }
      ],
      "stateMutability": "view"
    },
    {
      "type": "function",
      "name": "remainingCapacity",
      "inputs": [
        {
          "name": "lotId_",
          "type": "uint96",
          "internalType": "uint96"
        }
      ],
      "outputs": [
        {
          "name": "",
          "type": "uint256",
          "internalType": "uint256"
        }
      ],
      "stateMutability": "view"
    },
    {
      "type": "error",
      "name": "InvalidParams",
      "inputs": []
    },
    {
      "type": "error",
      "name": "InvalidVeecode",
      "inputs": [
        {
          "name": "veecode_",
          "type": "bytes7",
          "internalType": "Veecode"
        }
      ]
    }
  ],
  "bytecode": {
    "object": "0x608060405234801561001057600080fd5b50604051611cc3380380611cc383398101604081905261002f91610054565b600080546001600160a01b0319166001600160a01b0392909216919091179055610084565b60006020828403121561006657600080fd5b81516001600160a01b038116811461007d57600080fd5b9392505050565b611c30806100936000396000f3fe608060405234801561001057600080fd5b50600436106100f55760003560e01c8063b66f496311610097578063df3f557311610066578063df3f557314610208578063ed9152c81461021b578063f39866b014610246578063f614ad8b1461026657600080fd5b8063b66f4963146101af578063bd8dd0fd146101c2578063d3ad2fed146101d5578063d831a755146101e857600080fd5b80634dc1a12f116100d35780634dc1a12f146101635780636fe4c40214610176578063732efc0314610189578063ace54da51461019c57600080fd5b806303855921146100fa5780631a85c634146101225780633251dcc814610143575b600080fd5b61010d610108366004611563565b610279565b60405190151581526020015b60405180910390f35b610135610130366004611563565b61036b565b604051908152602001610119565b610156610151366004611595565b610486565b60405161011991906115e0565b61013561017136600461162d565b6105e8565b610156610184366004611595565b610707565b61010d610197366004611563565b610864565b6101356101aa366004611563565b610912565b6101566101bd366004611659565b6109fd565b6101356101d036600461162d565b610b36565b6101356101e3366004611563565b610d94565b6101f0610e42565b6040516001600160601b039091168152602001610119565b610156610216366004611595565b610ec0565b60005461022e906001600160a01b031681565b6040516001600160a01b039091168152602001610119565b610259610254366004611563565b61101d565b60405161011991906116e2565b6101566102743660046117cc565b611160565b6000805460405163a50076f760e01b81526001600160601b038416600482015282916001600160a01b03169063a50076f790602401602060405180830381865afa1580156102cb573d6000803e3d6000fd5b505050506040513d601f19601f820116820180604052508101906102ef91906117ec565b604051630385592160e01b81526001600160601b03851660048201529091506001600160a01b038216906303855921906024015b602060405180830381865afa158015610340573d6000803e3d6000fd5b505050506040513d601f19601f82011682018060405250810190610364919061181e565b9392505050565b6000805460405163a50076f760e01b81526001600160601b038416600482015282916001600160a01b03169063a50076f790602401602060405180830381865afa1580156103bd573d6000803e3d6000fd5b505050506040513d601f19601f820116820180604052508101906103e191906117ec565b905060006103ee8461101d565b6040516306a1718d60e21b81526001600160601b03861660048201529091506000906001600160a01b03841690631a85c63490602401602060405180830381865afa158015610441573d6000803e3d6000fd5b505050506040513d601f19601f820116820180604052508101906104659190611839565b905061047d61047783606001516112c6565b826112da565b95945050505050565b6060600061049484846113cc565b90506000845b6104ad836001600160601b038816611868565b816001600160601b031610156104ff57866001600160a01b03166104d08261101d565b516001600160a01b0316036104ed57816104e98161187b565b9250505b806104f781611894565b91505061049a565b5060008167ffffffffffffffff81111561051b5761051b6118ba565b604051908082528060200260200182016040528015610544578160200160208202803683370190505b50600092509050855b610560846001600160601b038916611868565b816001600160601b031610156105dd57876001600160a01b03166105838261101d565b516001600160a01b0316036105cb57808284815181106105a5576105a56118d0565b6001600160601b0390921660209283029190910190910152826105c78161187b565b9350505b806105d581611894565b91505061054d565b509695505050505050565b6000805460405163a50076f760e01b81526001600160601b038516600482015282916001600160a01b03169063a50076f790602401602060405180830381865afa15801561063a573d6000803e3d6000fd5b505050506040513d601f19601f8201168201806040525081019061065e91906117ec565b9050600061066b8561101d565b604051634dc1a12f60e01b81526001600160601b0387166004820152602481018690529091506000906001600160a01b03841690634dc1a12f90604401602060405180830381865afa1580156106c5573d6000803e3d6000fd5b505050506040513d601f19601f820116820180604052508101906106e99190611839565b90506106fb61047783606001516112c6565b93505050505b92915050565b6060600061071584846113cc565b90506000845b61072e836001600160601b038816611868565b816001600160601b0316101561078357866001600160a01b03166107518261101d565b604001516001600160a01b031603610771578161076d8161187b565b9250505b8061077b81611894565b91505061071b565b5060008167ffffffffffffffff81111561079f5761079f6118ba565b6040519080825280602002602001820160405280156107c8578160200160208202803683370190505b50600092509050855b6107e4846001600160601b038916611868565b816001600160601b031610156105dd57876001600160a01b03166108078261101d565b604001516001600160a01b031603610852578082848151811061082c5761082c6118d0565b6001600160601b03909216602092830291909101909101528261084e8161187b565b9350505b8061085c81611894565b9150506107d1565b6000805460405163a50076f760e01b81526001600160601b038416600482015282916001600160a01b03169063a50076f790602401602060405180830381865afa1580156108b6573d6000803e3d6000fd5b505050506040513d601f19601f820116820180604052508101906108da91906117ec565b60405163732efc0360e01b81526001600160601b03851660048201529091506001600160a01b0382169063732efc0390602401610323565b6000805460405163a50076f760e01b81526001600160601b038416600482015282916001600160a01b03169063a50076f790602401602060405180830381865afa158015610964573d6000803e3d6000fd5b505050506040513d601f19601f8201168201806040525081019061098891906117ec565b60405163ace54da560e01b81526001600160601b03851660048201529091506001600160a01b0382169063ace54da5906024015b602060405180830381865afa1580156109d9573d6000803e3d6000fd5b505050506040513d601f19601f820116820180604052508101906103649190611839565b60606000610a0b84846113cc565b90506000845b610a24836001600160601b038816611868565b816001600160601b03161015610a6257610a3d81610864565b15610a505781610a4c8161187b565b9250505b80610a5a81611894565b915050610a11565b5060008167ffffffffffffffff811115610a7e57610a7e6118ba565b604051908082528060200260200182016040528015610aa7578160200160208202803683370190505b50600092509050855b610ac3846001600160601b038916611868565b816001600160601b03161015610b2c57610adc81610864565b15610b1a5780828481518110610af457610af46118d0565b6001600160601b039092166020928302919091019091015282610b168161187b565b9350505b80610b2481611894565b915050610ab0565b5095945050505050565b6000805460405163a50076f760e01b81526001600160601b038516600482015282916001600160a01b03169063a50076f790602401602060405180830381865afa158015610b88573d6000803e3d6000fd5b505050506040513d601f19601f82011682018060405250810190610bac91906117ec565b90506000610bb98561101d565b600080546060830151929350909182916001600160a01b0316906331d72d6b90610be2906112c6565b6040516001600160e01b031960e084901b1681526001600160d81b03199091166004820152602401606060405180830381865afa158015610c27573d6000803e3d6000fd5b505050506040513d601f19601f82011682018060405250810190610c4b91906118fc565b5060008054604051630bad843b60e01b815265ffffffffffff80861660048301528416602482015260016044820152606481018b90529395509193509182916001600160a01b031690630bad843b906084016040805180830381865afa158015610cb9573d6000803e3d6000fd5b505050506040513d601f19601f82011682018060405250810190610cdd919061193f565b91509150856001600160a01b031663bd8dd0fd8a836001600160601b0316856001600160601b03168c610d109190611963565b610d1a9190611963565b6040516001600160e01b031960e085901b1681526001600160601b0390921660048301526024820152604401602060405180830381865afa158015610d63573d6000803e3d6000fd5b505050506040513d601f19601f82011682018060405250810190610d879190611839565b9998505050505050505050565b6000805460405163a50076f760e01b81526001600160601b038416600482015282916001600160a01b03169063a50076f790602401602060405180830381865afa158015610de6573d6000803e3d6000fd5b505050506040513d601f19601f82011682018060405250810190610e0a91906117ec565b60405163d3ad2fed60e01b81526001600160601b03851660048201529091506001600160a01b0382169063d3ad2fed906024016109bc565b600080546040805163c4ce88fd60e01b815290516001926001600160a01b03169163c4ce88fd9160048083019260209291908290030181865afa158015610e8d573d6000803e3d6000fd5b505050506040513d601f19601f82011682018060405250810190610eb19190611976565b610ebb9190611993565b905090565b60606000610ece84846113cc565b90506000845b610ee7836001600160601b038816611868565b816001600160601b03161015610f3c57866001600160a01b0316610f0a8261101d565b602001516001600160a01b031603610f2a5781610f268161187b565b9250505b80610f3481611894565b915050610ed4565b5060008167ffffffffffffffff811115610f5857610f586118ba565b604051908082528060200260200182016040528015610f81578160200160208202803683370190505b50600092509050855b610f9d846001600160601b038916611868565b816001600160601b031610156105dd57876001600160a01b0316610fc08261101d565b602001516001600160a01b03160361100b5780828481518110610fe557610fe56118d0565b6001600160601b0390921660209283029190910190910152826110078161187b565b9350505b8061101581611894565b915050610f8a565b604080516101208101825260008082526020820181905281830181905260608083018290526080830182905260a0830182905260c0830182905260e0830182905261010083015280549251634f17001d60e11b81526001600160601b038516600482015291929091829182918291829182918291829182916001600160a01b0390911690639e2e003a90602401600060405180830381865afa1580156110c7573d6000803e3d6000fd5b505050506040513d6000823e601f3d908101601f191682016040526110ef91908101906119ba565b60408051610120810182526001600160a01b039a8b168152988a1660208a0152968916968801969096526001600160c81b031994851660608801526080870193909352951660a0850152931660c083015291151560e08201526101008101919091529b9a5050505050505050505050565b6060600061116e84846113cc565b90506000845b611187836001600160601b038816611868565b816001600160601b031610156111e457866001600160c81b0319166111b56111ae8361101d565b6060015190565b6001600160c81b031916036111d257816111ce8161187b565b9250505b806111dc81611894565b915050611174565b5060008167ffffffffffffffff811115611200576112006118ba565b604051908082528060200260200182016040528015611229578160200160208202803683370190505b50600092509050855b611245846001600160601b038916611868565b816001600160601b031610156105dd57876001600160c81b03191661126c6111ae8361101d565b6001600160c81b031916036112b4578082848151811061128e5761128e6118d0565b6001600160601b0390921660209283029190910190910152826112b08161187b565b9350505b806112be81611894565b915050611232565b6000806112d28361145a565b509392505050565b600080546040516331d72d6b60e01b81526001600160d81b031985166004820152829182916001600160a01b03909116906331d72d6b90602401606060405180830381865afa158015611331573d6000803e3d6000fd5b505050506040513d601f19601f8201168201806040525081019061135591906118fc565b5090925090506113658183611af9565b91506000611376620186a086611b18565b9050600061138784620186a0611b2f565b65ffffffffffff16905061139b8183611b64565b156113a75760016113aa565b60005b60ff166113b78284611b78565b6113c19190611868565b979650505050505050565b6000806113d7610e42565b9050806001600160601b0316846001600160601b0316111561140c57604051635435b28960e11b815260040160405180910390fd5b6001600160601b0381166114208486611b8c565b6001600160601b0316116114345782611449565b61143e8482611993565b611449906001611b8c565b6001600160601b0316949350505050565b60008082600360fc1b6001600160f81b031982841a60f81b1610806114925750603960f81b8160001a60f81b6001600160f81b031916115b806114b05750600360fc1b8160011a60f81b6001600160f81b031916105b806114ce5750603960f81b8160011a60f81b6001600160f81b031916115b156114fb57604051628b684360e31b81526001600160c81b03198516600482015260240160405180910390fd5b600061150a603083831a611bac565b61151590600a611bc5565b90506115266030600184901a611bac565b6115309082611be1565b60109290921b6001600160d81b031916959194509092505050565b6001600160601b038116811461156057600080fd5b50565b60006020828403121561157557600080fd5b81356103648161154b565b6001600160a01b038116811461156057600080fd5b6000806000606084860312156115aa57600080fd5b83356115b581611580565b925060208401356115c58161154b565b915060408401356115d58161154b565b809150509250925092565b6020808252825182820181905260009190848201906040850190845b818110156116215783516001600160601b0316835292840192918401916001016115fc565b50909695505050505050565b6000806040838503121561164057600080fd5b823561164b8161154b565b946020939093013593505050565b6000806040838503121561166c57600080fd5b82356116778161154b565b915060208301356116878161154b565b809150509250929050565b60005b838110156116ad578181015183820152602001611695565b50506000910152565b600081518084526116ce816020860160208601611692565b601f01601f19169290920160200192915050565b602081526116fc6020820183516001600160a01b03169052565b6000602083015161171860408401826001600160a01b03169052565b5060408301516001600160a01b03811660608401525060608301516001600160c81b03198116608084015250608083015160a083015260a083015161176860c08401826001600160a01b03169052565b5060c08301516001600160c81b0319811660e08401525060e08301516101006117948185018315159052565b8401516101208481015290506117ae6101408401826116b6565b949350505050565b6001600160c81b03198116811461156057600080fd5b6000806000606084860312156117e157600080fd5b83356115b5816117b6565b6000602082840312156117fe57600080fd5b815161036481611580565b8051801515811461181957600080fd5b919050565b60006020828403121561183057600080fd5b61036482611809565b60006020828403121561184b57600080fd5b5051919050565b634e487b7160e01b600052601160045260246000fd5b8082018082111561070157610701611852565b60006001820161188d5761188d611852565b5060010190565b60006001600160601b038083168181036118b0576118b0611852565b6001019392505050565b634e487b7160e01b600052604160045260246000fd5b634e487b7160e01b600052603260045260246000fd5b805165ffffffffffff8116811461181957600080fd5b60008060006060848603121561191157600080fd5b61191a846118e6565b9250611928602085016118e6565b9150611936604085016118e6565b90509250925092565b6000806040838503121561195257600080fd5b505080516020909101519092909150565b8181038181111561070157610701611852565b60006020828403121561198857600080fd5b81516103648161154b565b6001600160601b038281168282160390808211156119b3576119b3611852565b5092915050565b60008060008060008060008060006101208a8c0312156119d957600080fd5b89516119e481611580565b60208b01519099506119f581611580565b60408b0151909850611a0681611580565b60608b0151909750611a17816117b6565b60808b015160a08c01519197509550611a2f81611580565b60c08b0151909450611a40816117b6565b9250611a4e60e08b01611809565b91506101008a015167ffffffffffffffff80821115611a6c57600080fd5b818c0191508c601f830112611a8057600080fd5b815181811115611a9257611a926118ba565b604051601f8201601f19908116603f01168101908382118183101715611aba57611aba6118ba565b816040528281528f6020848701011115611ad357600080fd5b611ae4836020830160208801611692565b80955050505050509295985092959850929598565b65ffffffffffff8181168382160190808211156119b3576119b3611852565b808202811582820484141761070157610701611852565b65ffffffffffff8281168282160390808211156119b3576119b3611852565b634e487b7160e01b600052601260045260246000fd5b600082611b7357611b73611b4e565b500690565b600082611b8757611b87611b4e565b500490565b6001600160601b038181168382160190808211156119b3576119b3611852565b60ff828116828216039081111561070157610701611852565b60ff81811683821602908116908181146119b3576119b3611852565b60ff81811683821601908111156107015761070161185256fea26469706673582212209fd9f2f67a8130fe5027d5c05fe506cd52721b168fdb4f33f366bc67dc8425b364736f6c63430008130033",
    "linkReferences": {}
  },
  "methodIdentifiers": {
    "auctionHouse()": "ed9152c8",
    "getAuctionsByBaseToken(address,uint96,uint96)": "df3f5573",
    "getAuctionsByQuoteToken(address,uint96,uint96)": "6fe4c402",
    "getAuctionsBySeller(address,uint96,uint96)": "3251dcc8",
    "getAuctionsByType(bytes7,uint96,uint96)": "f614ad8b",
    "getLiveAuctions(uint96,uint96)": "b66f4963",
    "getMaxLotId()": "d831a755",
    "getRouting(uint96)": "f39866b0",
    "hasEnded(uint96)": "03855921",
    "isLive(uint96)": "732efc03",
    "maxAmountAccepted(uint96)": "1a85c634",
    "maxPayout(uint96)": "d3ad2fed",
    "payoutFor(uint96,uint256)": "bd8dd0fd",
    "priceFor(uint96,uint256)": "4dc1a12f",
    "remainingCapacity(uint96)": "ace54da5"
  },
  "id": 109
}