{
  "abi": [
    {
      "type": "constructor",
      "inputs": [
        {
          "name": "owner_",
          "type": "address",
          "internalType": "address"
        },
        {
          "name": "protocol_",
          "type": "address",
          "internalType": "address"
        },
        {
          "name": "permit2_",
          "type": "address",
          "internalType": "address"
        }
      ],
      "stateMutability": "nonpayable"
    },
    {
      "type": "function",
      "name": "auction",
      "inputs": [
        {
          "name": "routing_",
          "type": "tuple",
          "internalType": "struct IAuctionHouse.RoutingParams",
          "components": [
            {
              "name": "auctionType",
              "type": "bytes5",
              "internalType": "Keycode"
            },
            {
              "name": "baseToken",
              "type": "address",
              "internalType": "address"
            },
            {
              "name": "quoteToken",
              "type": "address",
              "internalType": "address"
            },
            {
              "name": "curator",
              "type": "address",
              "internalType": "address"
            },
            {
              "name": "callbacks",
              "type": "address",
              "internalType": "contract ICallback"
            },
            {
              "name": "callbackData",
              "type": "bytes",
              "internalType": "bytes"
            },
            {
              "name": "derivativeType",
              "type": "bytes5",
              "internalType": "Keycode"
            },
            {
              "name": "derivativeParams",
              "type": "bytes",
              "internalType": "bytes"
            },
            {
              "name": "wrapDerivative",
              "type": "bool",
              "internalType": "bool"
            }
          ]
        },
        {
          "name": "params_",
          "type": "tuple",
          "internalType": "struct IAuction.AuctionParams",
          "components": [
            {
              "name": "start",
              "type": "uint48",
              "internalType": "uint48"
            },
            {
              "name": "duration",
              "type": "uint48",
              "internalType": "uint48"
            },
            {
              "name": "capacityInQuote",
              "type": "bool",
              "internalType": "bool"
            },
            {
              "name": "capacity",
              "type": "uint256",
              "internalType": "uint256"
            },
            {
              "name": "implParams",
              "type": "bytes",
              "internalType": "bytes"
            }
          ]
        },
        {
          "name": "infoHash_",
          "type": "string",
          "internalType": "string"
        }
      ],
      "outputs": [
        {
          "name": "lotId",
          "type": "uint96",
          "internalType": "uint96"
        }
      ],
      "stateMutability": "nonpayable"
    },
    {
      "type": "function",
      "name": "calculateQuoteFees",
      "inputs": [
        {
          "name": "protocolFee_",
          "type": "uint48",
          "internalType": "uint48"
        },
        {
          "name": "referrerFee_",
          "type": "uint48",
          "internalType": "uint48"
        },
        {
          "name": "hasReferrer_",
          "type": "bool",
          "internalType": "bool"
        },
        {
          "name": "amount_",
          "type": "uint256",
          "internalType": "uint256"
        }
      ],
      "outputs": [
        {
          "name": "toReferrer",
          "type": "uint256",
          "internalType": "uint256"
        },
        {
          "name": "toProtocol",
          "type": "uint256",
          "internalType": "uint256"
        }
      ],
      "stateMutability": "pure"
    },
    {
      "type": "function",
      "name": "cancel",
      "inputs": [
        {
          "name": "lotId_",
          "type": "uint96",
          "internalType": "uint96"
        },
        {
          "name": "callbackData_",
          "type": "bytes",
          "internalType": "bytes"
        }
      ],
      "outputs": [],
      "stateMutability": "nonpayable"
    },
    {
      "type": "function",
      "name": "claimRewards",
      "inputs": [
        {
          "name": "token_",
          "type": "address",
          "internalType": "address"
        }
      ],
      "outputs": [],
      "stateMutability": "nonpayable"
    },
    {
      "type": "function",
      "name": "condensers",
      "inputs": [
        {
          "name": "auctionRef",
          "type": "bytes7",
          "internalType": "Veecode"
        },
        {
          "name": "derivativeRef",
          "type": "bytes7",
          "internalType": "Veecode"
        }
      ],
      "outputs": [
        {
          "name": "condenserRef",
          "type": "bytes7",
          "internalType": "Veecode"
        }
      ],
      "stateMutability": "view"
    },
    {
      "type": "function",
      "name": "curate",
      "inputs": [
        {
          "name": "lotId_",
          "type": "uint96",
          "internalType": "uint96"
        },
        {
          "name": "callbackData_",
          "type": "bytes",
          "internalType": "bytes"
        }
      ],
      "outputs": [],
      "stateMutability": "nonpayable"
    },
    {
      "type": "function",
      "name": "execOnModule",
      "inputs": [
        {
          "name": "veecode_",
          "type": "bytes7",
          "internalType": "Veecode"
        },
        {
          "name": "callData_",
          "type": "bytes",
          "internalType": "bytes"
        }
      ],
      "outputs": [
        {
          "name": "",
          "type": "bytes",
          "internalType": "bytes"
        }
      ],
      "stateMutability": "nonpayable"
    },
    {
      "type": "function",
      "name": "fees",
      "inputs": [
        {
          "name": "",
          "type": "bytes5",
          "internalType": "Keycode"
        }
      ],
      "outputs": [
        {
          "name": "protocol",
          "type": "uint48",
          "internalType": "uint48"
        },
        {
          "name": "referrer",
          "type": "uint48",
          "internalType": "uint48"
        },
        {
          "name": "maxCuratorFee",
          "type": "uint48",
          "internalType": "uint48"
        }
      ],
      "stateMutability": "view"
    },
    {
      "type": "function",
      "name": "getCuratorFee",
      "inputs": [
        {
          "name": "auctionType_",
          "type": "bytes5",
          "internalType": "Keycode"
        },
        {
          "name": "curator_",
          "type": "address",
          "internalType": "address"
        }
      ],
      "outputs": [
        {
          "name": "curatorFee",
          "type": "uint48",
          "internalType": "uint48"
        }
      ],
      "stateMutability": "view"
    },
    {
      "type": "function",
      "name": "getFees",
      "inputs": [
        {
          "name": "auctionType_",
          "type": "bytes5",
          "internalType": "Keycode"
        }
      ],
      "outputs": [
        {
          "name": "protocol",
          "type": "uint48",
          "internalType": "uint48"
        },
        {
          "name": "referrer",
          "type": "uint48",
          "internalType": "uint48"
        },
        {
          "name": "maxCuratorFee",
          "type": "uint48",
          "internalType": "uint48"
        }
      ],
      "stateMutability": "view"
    },
    {
      "type": "function",
      "name": "getModuleForId",
      "inputs": [
        {
          "name": "lotId_",
          "type": "uint96",
          "internalType": "uint96"
        }
      ],
      "outputs": [
        {
          "name": "",
          "type": "address",
          "internalType": "contract AuctionModule"
        }
      ],
      "stateMutability": "view"
    },
    {
      "type": "function",
      "name": "getModuleForVeecode",
      "inputs": [
        {
          "name": "",
          "type": "bytes7",
          "internalType": "Veecode"
        }
      ],
      "outputs": [
        {
          "name": "",
          "type": "address",
          "internalType": "contract Module"
        }
      ],
      "stateMutability": "view"
    },
    {
      "type": "function",
      "name": "getModuleStatus",
      "inputs": [
        {
          "name": "",
          "type": "bytes5",
          "internalType": "Keycode"
        }
      ],
      "outputs": [
        {
          "name": "latestVersion",
          "type": "uint8",
          "internalType": "uint8"
        },
        {
          "name": "sunset",
          "type": "bool",
          "internalType": "bool"
        }
      ],
      "stateMutability": "view"
    },
    {
      "type": "function",
      "name": "getProtocol",
      "inputs": [],
      "outputs": [
        {
          "name": "",
          "type": "address",
          "internalType": "address"
        }
      ],
      "stateMutability": "view"
    },
    {
      "type": "function",
      "name": "getRewards",
      "inputs": [
        {
          "name": "recipient_",
          "type": "address",
          "internalType": "address"
        },
        {
          "name": "token_",
          "type": "address",
          "internalType": "address"
        }
      ],
      "outputs": [
        {
          "name": "reward",
          "type": "uint256",
          "internalType": "uint256"
        }
      ],
      "stateMutability": "view"
    },
    {
      "type": "function",
      "name": "installModule",
      "inputs": [
        {
          "name": "newModule_",
          "type": "address",
          "internalType": "contract Module"
        }
      ],
      "outputs": [],
      "stateMutability": "nonpayable"
    },
    {
      "type": "function",
      "name": "isExecOnModule",
      "inputs": [],
      "outputs": [
        {
          "name": "",
          "type": "bool",
          "internalType": "bool"
        }
      ],
      "stateMutability": "view"
    },
    {
      "type": "function",
      "name": "lotCounter",
      "inputs": [],
      "outputs": [
        {
          "name": "",
          "type": "uint96",
          "internalType": "uint96"
        }
      ],
      "stateMutability": "view"
    },
    {
      "type": "function",
      "name": "lotFees",
      "inputs": [
        {
          "name": "lotId",
          "type": "uint96",
          "internalType": "uint96"
        }
      ],
      "outputs": [
        {
          "name": "curator",
          "type": "address",
          "internalType": "address"
        },
        {
          "name": "curated",
          "type": "bool",
          "internalType": "bool"
        },
        {
          "name": "curatorFee",
          "type": "uint48",
          "internalType": "uint48"
        },
        {
          "name": "protocolFee",
          "type": "uint48",
          "internalType": "uint48"
        },
        {
          "name": "referrerFee",
          "type": "uint48",
          "internalType": "uint48"
        }
      ],
      "stateMutability": "view"
    },
    {
      "type": "function",
      "name": "lotRouting",
      "inputs": [
        {
          "name": "lotId",
          "type": "uint96",
          "internalType": "uint96"
        }
      ],
      "outputs": [
        {
          "name": "seller",
          "type": "address",
          "internalType": "address"
        },
        {
          "name": "baseToken",
          "type": "address",
          "internalType": "contract ERC20"
        },
        {
          "name": "quoteToken",
          "type": "address",
          "internalType": "contract ERC20"
        },
        {
          "name": "auctionReference",
          "type": "bytes7",
          "internalType": "Veecode"
        },
        {
          "name": "funding",
          "type": "uint256",
          "internalType": "uint256"
        },
        {
          "name": "callbacks",
          "type": "address",
          "internalType": "contract ICallback"
        },
        {
          "name": "derivativeReference",
          "type": "bytes7",
          "internalType": "Veecode"
        },
        {
          "name": "wrapDerivative",
          "type": "bool",
          "internalType": "bool"
        },
        {
          "name": "derivativeParams",
          "type": "bytes",
          "internalType": "bytes"
        }
      ],
      "stateMutability": "view"
    },
    {
      "type": "function",
      "name": "modules",
      "inputs": [
        {
          "name": "",
          "type": "uint256",
          "internalType": "uint256"
        }
      ],
      "outputs": [
        {
          "name": "",
          "type": "bytes5",
          "internalType": "Keycode"
        }
      ],
      "stateMutability": "view"
    },
    {
      "type": "function",
      "name": "modulesCount",
      "inputs": [],
      "outputs": [
        {
          "name": "",
          "type": "uint256",
          "internalType": "uint256"
        }
      ],
      "stateMutability": "view"
    },
    {
      "type": "function",
      "name": "owner",
      "inputs": [],
      "outputs": [
        {
          "name": "",
          "type": "address",
          "internalType": "address"
        }
      ],
      "stateMutability": "view"
    },
    {
      "type": "function",
      "name": "purchase",
      "inputs": [
        {
          "name": "params_",
          "type": "tuple",
          "internalType": "struct IAtomicAuctionHouse.PurchaseParams",
          "components": [
            {
              "name": "recipient",
              "type": "address",
              "internalType": "address"
            },
            {
              "name": "referrer",
              "type": "address",
              "internalType": "address"
            },
            {
              "name": "lotId",
              "type": "uint96",
              "internalType": "uint96"
            },
            {
              "name": "amount",
              "type": "uint256",
              "internalType": "uint256"
            },
            {
              "name": "minAmountOut",
              "type": "uint256",
              "internalType": "uint256"
            },
            {
              "name": "auctionData",
              "type": "bytes",
              "internalType": "bytes"
            },
            {
              "name": "permit2Data",
              "type": "bytes",
              "internalType": "bytes"
            }
          ]
        },
        {
          "name": "callbackData_",
          "type": "bytes",
          "internalType": "bytes"
        }
      ],
      "outputs": [
        {
          "name": "payoutAmount",
          "type": "uint256",
          "internalType": "uint256"
        }
      ],
      "stateMutability": "nonpayable"
    },
    {
      "type": "function",
      "name": "rewards",
      "inputs": [
        {
          "name": "",
          "type": "address",
          "internalType": "address"
        },
        {
          "name": "",
          "type": "address",
          "internalType": "contract ERC20"
        }
      ],
      "outputs": [
        {
          "name": "",
          "type": "uint256",
          "internalType": "uint256"
        }
      ],
      "stateMutability": "view"
    },
    {
      "type": "function",
      "name": "setCondenser",
      "inputs": [
        {
          "name": "auctionRef_",
          "type": "bytes7",
          "internalType": "Veecode"
        },
        {
          "name": "derivativeRef_",
          "type": "bytes7",
          "internalType": "Veecode"
        },
        {
          "name": "condenserRef_",
          "type": "bytes7",
          "internalType": "Veecode"
        }
      ],
      "outputs": [],
      "stateMutability": "nonpayable"
    },
    {
      "type": "function",
      "name": "setCuratorFee",
      "inputs": [
        {
          "name": "auctionType_",
          "type": "bytes5",
          "internalType": "Keycode"
        },
        {
          "name": "fee_",
          "type": "uint48",
          "internalType": "uint48"
        }
      ],
      "outputs": [],
      "stateMutability": "nonpayable"
    },
    {
      "type": "function",
      "name": "setFee",
      "inputs": [
        {
          "name": "auctionType_",
          "type": "bytes5",
          "internalType": "Keycode"
        },
        {
          "name": "type_",
          "type": "uint8",
          "internalType": "enum IFeeManager.FeeType"
        },
        {
          "name": "fee_",
          "type": "uint48",
          "internalType": "uint48"
        }
      ],
      "outputs": [],
      "stateMutability": "nonpayable"
    },
    {
      "type": "function",
      "name": "setProtocol",
      "inputs": [
        {
          "name": "protocol_",
          "type": "address",
          "internalType": "address"
        }
      ],
      "outputs": [],
      "stateMutability": "nonpayable"
    },
    {
      "type": "function",
      "name": "sunsetModule",
      "inputs": [
        {
          "name": "keycode_",
          "type": "bytes5",
          "internalType": "Keycode"
        }
      ],
      "outputs": [],
      "stateMutability": "nonpayable"
    },
    {
      "type": "function",
      "name": "transferOwnership",
      "inputs": [
        {
          "name": "newOwner",
          "type": "address",
          "internalType": "address"
        }
      ],
      "outputs": [],
      "stateMutability": "nonpayable"
    },
    {
      "type": "event",
      "name": "AuctionCancelled",
      "inputs": [
        {
          "name": "lotId",
          "type": "uint96",
          "indexed": true,
          "internalType": "uint96"
        },
        {
          "name": "auctionRef",
          "type": "bytes7",
          "indexed": true,
          "internalType": "Veecode"
        }
      ],
      "anonymous": false
    },
    {
      "type": "event",
      "name": "AuctionCreated",
      "inputs": [
        {
          "name": "lotId",
          "type": "uint96",
          "indexed": true,
          "internalType": "uint96"
        },
        {
          "name": "auctionRef",
          "type": "bytes7",
          "indexed": true,
          "internalType": "Veecode"
        },
        {
          "name": "infoHash",
          "type": "string",
          "indexed": false,
          "internalType": "string"
        }
      ],
      "anonymous": false
    },
    {
      "type": "event",
      "name": "Curated",
      "inputs": [
        {
          "name": "lotId",
          "type": "uint96",
          "indexed": true,
          "internalType": "uint96"
        },
        {
          "name": "curator",
          "type": "address",
          "indexed": true,
          "internalType": "address"
        }
      ],
      "anonymous": false
    },
    {
      "type": "event",
      "name": "ModuleInstalled",
      "inputs": [
        {
          "name": "keycode",
          "type": "bytes5",
          "indexed": true,
          "internalType": "Keycode"
        },
        {
          "name": "version",
          "type": "uint8",
          "indexed": true,
          "internalType": "uint8"
        },
        {
          "name": "location",
          "type": "address",
          "indexed": true,
          "internalType": "address"
        }
      ],
      "anonymous": false
    },
    {
      "type": "event",
      "name": "ModuleSunset",
      "inputs": [
        {
          "name": "keycode",
          "type": "bytes5",
          "indexed": true,
          "internalType": "Keycode"
        }
      ],
      "anonymous": false
    },
    {
      "type": "event",
      "name": "OwnershipTransferred",
      "inputs": [
        {
          "name": "user",
          "type": "address",
          "indexed": true,
          "internalType": "address"
        },
        {
          "name": "newOwner",
          "type": "address",
          "indexed": true,
          "internalType": "address"
        }
      ],
      "anonymous": false
    },
    {
      "type": "event",
      "name": "Purchase",
      "inputs": [
        {
          "name": "lotId",
          "type": "uint96",
          "indexed": true,
          "internalType": "uint96"
        },
        {
          "name": "buyer",
          "type": "address",
          "indexed": true,
          "internalType": "address"
        },
        {
          "name": "referrer",
          "type": "address",
          "indexed": false,
          "internalType": "address"
        },
        {
          "name": "amount",
          "type": "uint256",
          "indexed": false,
          "internalType": "uint256"
        },
        {
          "name": "payout",
          "type": "uint256",
          "indexed": false,
          "internalType": "uint256"
        }
      ],
      "anonymous": false
    },
    {
      "type": "error",
      "name": "AmountLessThanMinimum",
      "inputs": []
    },
    {
      "type": "error",
      "name": "FailedCallback",
      "inputs": []
    },
    {
      "type": "error",
      "name": "InsufficientFunding",
      "inputs": []
    },
    {
      "type": "error",
      "name": "InvalidCallback",
      "inputs": []
    },
    {
      "type": "error",
      "name": "InvalidCallbackResponse",
      "inputs": []
    },
    {
      "type": "error",
      "name": "InvalidFee",
      "inputs": []
    },
    {
      "type": "error",
      "name": "InvalidLotId",
      "inputs": [
        {
          "name": "id_",
          "type": "uint96",
          "internalType": "uint96"
        }
      ]
    },
    {
      "type": "error",
      "name": "InvalidModuleInstall",
      "inputs": [
        {
          "name": "keycode_",
          "type": "bytes5",
          "internalType": "Keycode"
        },
        {
          "name": "version_",
          "type": "uint8",
          "internalType": "uint8"
        }
      ]
    },
    {
      "type": "error",
      "name": "InvalidParams",
      "inputs": []
    },
    {
      "type": "error",
      "name": "InvalidParams",
      "inputs": []
    },
    {
      "type": "error",
      "name": "InvalidState",
      "inputs": []
    },
    {
      "type": "error",
      "name": "InvalidVeecode",
      "inputs": [
        {
          "name": "veecode_",
          "type": "bytes7",
          "internalType": "Veecode"
        }
      ]
    },
    {
      "type": "error",
      "name": "ModuleAlreadySunset",
      "inputs": [
        {
          "name": "keycode_",
          "type": "bytes5",
          "internalType": "Keycode"
        }
      ]
    },
    {
      "type": "error",
      "name": "ModuleExecutionReverted",
      "inputs": [
        {
          "name": "error_",
          "type": "bytes",
          "internalType": "bytes"
        }
      ]
    },
    {
      "type": "error",
      "name": "ModuleIsSunset",
      "inputs": [
        {
          "name": "keycode_",
          "type": "bytes5",
          "internalType": "Keycode"
        }
      ]
    },
    {
      "type": "error",
      "name": "ModuleNotInstalled",
      "inputs": [
        {
          "name": "keycode_",
          "type": "bytes5",
          "internalType": "Keycode"
        },
        {
          "name": "version_",
          "type": "uint8",
          "internalType": "uint8"
        }
      ]
    },
    {
      "type": "error",
      "name": "NotPermitted",
      "inputs": [
        {
          "name": "caller_",
          "type": "address",
          "internalType": "address"
        }
      ]
    },
    {
      "type": "error",
      "name": "TargetNotAContract",
      "inputs": [
        {
          "name": "target_",
          "type": "address",
          "internalType": "address"
        }
      ]
    },
    {
      "type": "error",
      "name": "UnsupportedToken",
      "inputs": [
        {
          "name": "token_",
          "type": "address",
          "internalType": "address"
        }
      ]
    }
  ],
  "bytecode": {
    "object": "0x60a060405260016006553480156200001657600080fd5b5060405162004a9d38038062004a9d8339810160408190526200003991620000d8565b600080546001600160a01b0319166001600160a01b03851690811782556040518592859285928492869283929091907f8be0079c531659141344cd1fd0a4f28419497f9722a3daafe3b4186f6b6457e0908290a35050600780546001600160a01b0319166001600160a01b039283161790551660805250620001229350505050565b80516001600160a01b0381168114620000d357600080fd5b919050565b600080600060608486031215620000ee57600080fd5b620000f984620000bb565b92506200010960208501620000bb565b91506200011960408501620000bb565b90509250925092565b60805161495f6200013e60003960006128a7015261495f6000f3fe608060405234801561001057600080fd5b50600436106101e55760003560e01c80638da5cb5b1161010f578063d16352af116100a2578063ef5cfb8c11610071578063ef5cfb8c1461064a578063f2fde38b1461065d578063f315aafe14610670578063f4b261811461067957600080fd5b8063d16352af14610510578063e70b9e2714610521578063e814b76a1461054c578063ea072e70146105b057600080fd5b8063c4ce88fd116100de578063c4ce88fd146104c4578063c74c149b146104d7578063c75519ba146104ea578063cf042fb0146104fd57600080fd5b80638da5cb5b146104355780639e2e003a146104605780639e55cba314610488578063a50076f7146104b157600080fd5b806350ab0489116101875780637249c0d5116101565780637249c0d5146103d0578063779bcb9b146103e35780637eb1e761146103f657806381b2248a1461040957600080fd5b806350ab0489146103235780635a3eb399146103435780635bb27aab1461036e5780635c774ed7146103b357600080fd5b806320b15fe4116101c357806320b15fe41461029e57806331d72d6b146102b15780633baf6ce4146102ef578063505f901a1461031057600080fd5b80630a9d793d146101ea5780630ab9a1ee146101ff5780630bad843b14610276575b600080fd5b6101fd6101f8366004613903565b6106b4565b005b61024861020d366004613938565b6001600160d81b03191660009081526008602052604090205465ffffffffffff80821692600160301b8304821692600160601b900490911690565b6040805165ffffffffffff948516815292841660208401529216918101919091526060015b60405180910390f35b610289610284366004613975565b610709565b6040805192835260208301919091520161026d565b6101fd6102ac3660046139dc565b610775565b6102486102bf366004613938565b60086020526000908152604090205465ffffffffffff80821691600160301b8104821691600160601b9091041683565b6103026102fd366004613b71565b6109a0565b60405190815260200161026d565b6101fd61031e366004613c72565b611018565b610336610331366004613cb7565b611260565b60405161026d9190613d27565b610356610351366004613d3a565b61133b565b6040516001600160601b03909116815260200161026d565b61039a61037c366004613938565b60046020526000908152604090205460ff8082169161010090041682565b6040805160ff909316835290151560208301520161026d565b6005546103c09060ff1681565b604051901515815260200161026d565b6101fd6103de366004613dd5565b611d30565b6103026103f1366004613e0c565b611dc3565b6101fd610404366004613903565b611df0565b61041c610417366004613e3a565b61206d565b6040516001600160d81b0319909116815260200161026d565b600054610448906001600160a01b031681565b6040516001600160a01b03909116815260200161026d565b61047361046e366004613e53565b6120a4565b60405161026d99989796959493929190613e6e565b610448610496366004613ee4565b6003602052600090815260409020546001600160a01b031681565b6104486104bf366004613e53565b612196565b600a54610356906001600160601b031681565b6101fd6104e5366004613f01565b6121aa565b6101fd6104f8366004613938565b612300565b6101fd61050b366004613c72565b6123fc565b6007546001600160a01b0316610448565b61030261052f366004613e0c565b600960209081526000928352604080842090915290825290205481565b61059961055a366004613f43565b6001600160d81b0319821660009081526008602090815260408083206001600160a01b038516845260010190915290205465ffffffffffff1692915050565b60405165ffffffffffff909116815260200161026d565b61060b6105be366004613e53565b600c60205260009081526040902080546001909101546001600160a01b0382169160ff600160a01b8204169165ffffffffffff600160a81b90920482169181811691600160301b90041685565b604080516001600160a01b039096168652931515602086015265ffffffffffff928316938501939093528116606084015216608082015260a00161026d565b6101fd610658366004613903565b612567565b6101fd61066b366004613903565b6125d2565b61030260025481565b6106a7610687366004613f5f565b600d60209081526000928352604080842090915290825290205460c81b81565b60405161026d9190613f8d565b6000546001600160a01b031633146106e75760405162461bcd60e51b81526004016106de90613fa2565b60405180910390fd5b600780546001600160a01b0319166001600160a01b0392909216919091179055565b600080831561075b576107288365ffffffffffff8716620186a0612647565b91508161074a84610739888a613fde565b65ffffffffffff16620186a0612647565b6107549190614004565b905061076c565b610769836107398789613fde565b90505b94509492505050565b6000546001600160a01b0316331461079f5760405162461bcd60e51b81526004016106de90613fa2565b60006107aa84612665565b6001600160a01b031663bb24fe8a6040518163ffffffff1660e01b8152600401602060405180830381865afa1580156107e7573d6000803e3d6000fd5b505050506040513d601f19601f8201168201806040525081019061080b919061402d565b600381111561081c5761081c614017565b1415806108a45750600161082f83612665565b6001600160a01b031663bb24fe8a6040518163ffffffff1660e01b8152600401602060405180830381865afa15801561086c573d6000803e3d6000fd5b505050506040513d601f19601f82011682018060405250810190610890919061402d565b60038111156108a1576108a1614017565b14155b8061093e57506001600160c81b031981161580159061093e575060026108c982612665565b6001600160a01b031663bb24fe8a6040518163ffffffff1660e01b8152600401602060405180830381865afa158015610906573d6000803e3d6000fd5b505050506040513d601f19601f8201168201806040525081019061092a919061402d565b600381111561093b5761093b614017565b14155b1561095c57604051635435b28960e11b815260040160405180910390fd5b6001600160c81b03199283166000908152600d6020908152604080832094909516825292909252919020805466ffffffffffffff191660c89290921c919091179055565b60006006546001146109c45760405162461bcd60e51b81526004016106de9061404e565b600260065560408401516109d7906126ba565b6040808501516001600160601b03166000908152600b60205290812060028101549091908190610a1090600160a01b900460c81b6126f7565b6001600160d81b031981166000908152600860209081526040822054908a01518654600288015460608d01519596509394610a6e9465ffffffffffff80861695600160301b90041693926001600160a01b039081169291169061270b565b905080886060015103925050506060610a8a87604001516127e9565b6001600160a01b03166376103c8f8860400151848a60a001516040518463ffffffff1660e01b8152600401610ac193929190614072565b6000604051808303816000875af1158015610ae0573d6000803e3d6000fd5b505050506040513d6000823e601f3d908101601f19168201604052610b0891908101906140df565b60808901519195509150841015610b325760405163758342a760e01b815260040160405180910390fd5b6060870151600284015460c0890151610b5e92916001600160a01b031690610b5990612818565b6128a1565b825460028401546004850154610b86926001600160a01b0390811692869290821691166128d1565b604087810180516001600160601b039081166000908152600c602052838120549251909116815291822054610bd591600160a01b900460ff1690600160a81b900465ffffffffffff16876128fc565b6004850154909150600160981b1615610d315760018401546040516370a0823160e01b81523060048201526000916001600160a01b0316906370a0823190602401602060405180830381865afa158015610c33573d6000803e3d6000fd5b505050506040513d601f19601f82011682018060405250810190610c579190614125565b600486015460408b0151919250610c89916001600160a01b03909116903387610c80878c61413e565b60008e8e61292d565b81610c94878361413e565b610c9e919061413e565b60018601546040516370a0823160e01b81523060048201526001600160a01b03909116906370a0823190602401602060405180830381865afa158015610ce8573d6000803e3d6000fd5b505050506040513d601f19601f82011682018060405250810190610d0c9190614125565b1015610d2b5760405163f7a632f560e01b815260040160405180910390fd5b50610d88565b60018401548454610d5b916001600160a01b03908116911630610d54858a61413e565b60016129ad565b60048401546040890151610d88916001600160a01b0316903386610d7f868b61413e565b60018d8d61292d565b8751604080516101208101825286546001600160a01b039081168252600188015481166020830152600288015480821693830193909352600160a01b9283900460c890811b6001600160c81b0319908116606085015260038a0154608085015260048a015492831660a0850152938204901b90921660c0820152600160d81b90910460ff16151560e0820152600586018054610ebc9392899290918991610100840191610e3490614151565b80601f0160208091040260200160405190810160405280929190818152602001828054610e6090614151565b8015610ead5780601f10610e8257610100808354040283529160200191610ead565b820191906000526020600020905b815481529060010190602001808311610e9057829003601f168201915b50505050508152505085612af5565b8015610f90576040888101516001600160601b03166000908152600c6020908152908290205482516101208101845287546001600160a01b0390811682526001890154811693820193909352600288015480841694820194909452600160a01b9384900460c890811b6001600160c81b0319908116606084015260038a0154608084015260048a015480861660a085015295860490911b1660c0820152600160d81b90930460ff16151560e0840152600587018054610f9094939092169285929091899161010084019190610e3490614151565b336001600160a01b031688604001516001600160601b03167f5c53cd94df0c7e2bcd10a80f475d04aef0e489425aff9687e49f92454b4040148a602001518b6060015189604051610fff939291906001600160a01b039390931683526020830191909152604082015260600190565b60405180910390a3505060016006555090949350505050565b60065460011461103a5760405162461bcd60e51b81526004016106de9061404e565b6002600655611048836126ba565b6001600160601b0383166000908152600c6020526040902080546001600160a01b0316331461108c576040516319b1d90760e31b81523360048201526024016106de565b6000611097856127e9565b8254909150600160a01b900460ff16806111235750604051630385592160e01b81526001600160601b03861660048201526001600160a01b03821690630385592190602401602060405180830381865afa1580156110f9573d6000803e3d6000fd5b505050506040513d601f19601f8201168201806040525081019061111d919061418b565b15156001145b156111415760405163baf3f0f760e01b815260040160405180910390fd5b6001600160601b0385166000818152600b6020526040808220855460ff60a01b1916600160a01b908117808855925163ace54da560e01b8152600481019590955290936111fa9291820460ff169165ffffffffffff600160a81b90910416906001600160a01b0387169063ace54da590602401602060405180830381865afa1580156111d1573d6000803e3d6000fd5b505050506040513d601f19601f820116820180604052508101906111f59190614125565b6128fc565b90506000600483015461121b906001600160a01b0316898460008b8b612c87565b60405133906001600160601b038a16907f0cbe7341c5c56a21e107668323c3c414bcd506f3615ea1115f86dd4df173691490600090a350506001600655505050505050565b6000546060906001600160a01b0316331461128d5760405162461bcd60e51b81526004016106de90613fa2565b6005805460ff191660011790556000806112a686612665565b6001600160a01b031685856040516112bf9291906141a8565b6000604051808303816000865af19150503d80600081146112fc576040519150601f19603f3d011682016040523d82523d6000602084013e611301565b606091505b5091509150816113265780604051635d94b9cd60e01b81526004016106de9190613d27565b6005805460ff191690559150505b9392505050565b600060065460011461135f5760405162461bcd60e51b81526004016106de9061404e565b600260065560006113766040870160208801613903565b6001600160a01b031614806113a3575060006113986060870160408801613903565b6001600160a01b0316145b156113c157604051635435b28960e11b815260040160405180910390fd5b600a80546001600160601b03169060006113da836141b8565b82546101009290920a6001600160601b0381810219909316918316021790915581166000908152600b60209081526040918290208054336001600160a01b0319909116178155929350611431918801908801613903565b6001820180546001600160a01b0319166001600160a01b03929092169190911790556114636060870160408801613903565b6002820180546001600160a01b0319166001600160a01b0392909216919091179055600061149c6114976020890189613938565b612cf9565b905060008260010160009054906101000a90046001600160a01b03166001600160a01b031663313ce5676040518163ffffffff1660e01b8152600401602060405180830381865afa1580156114f5573d6000803e3d6000fd5b505050506040513d601f19601f8201168201806040525081019061151991906141de565b905060008360020160009054906101000a90046001600160a01b03166001600160a01b031663313ce5676040518163ffffffff1660e01b8152600401602060405180830381865afa158015611572573d6000803e3d6000fd5b505050506040513d601f19601f8201168201806040525081019061159691906141de565b90506000836001600160a01b031663bb24fe8a6040518163ffffffff1660e01b8152600401602060405180830381865afa1580156115d8573d6000803e3d6000fd5b505050506040513d601f19601f820116820180604052508101906115fc919061402d565b600381111561160d5761160d614017565b14158061161d575060068260ff16105b8061162b575060128260ff16115b80611639575060068160ff16105b80611647575060128160ff16115b1561166557604051635435b28960e11b815260040160405180910390fd5b60405163bae96bdd60e01b81526001600160a01b0384169063bae96bdd906116979088908c908690889060040161422a565b600060405180830381600087803b1580156116b157600080fd5b505af11580156116c5573d6000803e3d6000fd5b50505050826001600160a01b031663d61735ca6040518163ffffffff1660e01b8152600401602060405180830381865afa158015611707573d6000803e3d6000fd5b505050506040513d601f19601f8201168201806040525081019061172b9190614308565b60028501805460c89290921c600160a01b0266ffffffffffffff60a01b199092169190911790555050506001600160601b0382166000908152600c6020526040902061177d6080880160608901613903565b81546001600160a81b0319166001600160a01b039190911617815560006008816117aa60208b018b613938565b6001600160d81b0319168152602081019190915260400160009081208054909250600160601b900465ffffffffffff169060018301816117f060808d0160608e01613903565b6001600160a01b0316815260208101919091526040016000205465ffffffffffff9081169150821681116118245780611826565b815b845465ffffffffffff60a81b1916600160a81b65ffffffffffff9283160217855583546001909501805495821665ffffffffffff1987168117825594546bffffffffffffffffffffffff19909616909417600160301b958690049091169094029390931790915550600090506118a86118a560e0890160c08a01613938565b90565b6001600160d81b03191614611ac85760006118cc61149760e0890160c08a01613938565b90506001816001600160a01b031663bb24fe8a6040518163ffffffff1660e01b8152600401602060405180830381865afa15801561190e573d6000803e3d6000fd5b505050506040513d601f19601f82011682018060405250810190611932919061402d565b600381111561194357611943614017565b1415806119d1575060018201546001600160a01b038083169163caf92785911661197060e08b018b614325565b6040518463ffffffff1660e01b815260040161198e9392919061436b565b602060405180830381865afa1580156119ab573d6000803e3d6000fd5b505050506040513d601f19601f820116820180604052508101906119cf919061418b565b155b156119ef57604051635435b28960e11b815260040160405180910390fd5b806001600160a01b031663d61735ca6040518163ffffffff1660e01b8152600401602060405180830381865afa158015611a2d573d6000803e3d6000fd5b505050506040513d601f19601f82011682018060405250810190611a519190614308565b60048301805460c89290921c600160a01b0266ffffffffffffff60a01b19909216919091179055611a8560e0880188614325565b6005840191611a959190836143d6565b50611aa861012088016101008901614495565b600483018054911515600160d81b0260ff60d81b19909216919091179055505b60028101546001600160c81b0319600160a01b9182900460c890811b82166000908152600d60209081526040808320600488015496909604841b85168352949052929092205490911b90811615611c14576002611b2482612665565b6001600160a01b031663bb24fe8a6040518163ffffffff1660e01b8152600401602060405180830381865afa158015611b61573d6000803e3d6000fd5b505050506040513d601f19601f82011682018060405250810190611b85919061402d565b6003811115611b9657611b96614017565b14611bb457604051635435b28960e11b815260040160405180910390fd5b6000611bbf826126f7565b6001600160d81b03198116600090815260046020526040902054909150610100900460ff161515600103611c125760405163ae05d58960e01b81526001600160d81b0319821660048201526024016106de565b505b50611c2d611c2860a0880160808901613903565b612dc2565b611c4a57604051635435b28960e11b815260040160405180910390fd5b6000611c5c60a0880160808901613903565b6001600160a01b031614611c9d57611c7a60a0870160808801613903565b6004820180546001600160a01b0319166001600160a01b03929092169190911790555b6000611caa838888612e2f565b905080611cc257611cc2878488606001356000612ee2565b8160020160149054906101000a900460c81b6001600160c81b031916836001600160601b03167f7cbd7aa1f47e4f995e92547da29ca023e5fad4db6922fcaa352efa004066491f8787604051611d199291906144b2565b60405180910390a350506001600655949350505050565b6001600160d81b0319821660009081526008602052604090205465ffffffffffff600160601b90910481169082161115611d7d576040516358d620b360e01b815260040160405180910390fd5b6001600160d81b03199190911660009081526008602090815260408083203384526001019091529020805465ffffffffffff191665ffffffffffff909216919091179055565b6001600160a01b038083166000908152600960209081526040808320938516835292905220545b92915050565b6000546001600160a01b03163314611e1a5760405162461bcd60e51b81526004016106de90613fa2565b611e2381612f31565b6000816001600160a01b031663d61735ca6040518163ffffffff1660e01b8152600401602060405180830381865afa158015611e63573d6000803e3d6000fd5b505050506040513d601f19601f82011682018060405250810190611e879190614308565b9050611e9281612f67565b600080611e9e836130cd565b6001600160d81b031982166000908152600460205260409020805492945090925090611ece9060ff1660016144c6565b60ff168260ff1614611ef7578282604051635820a91160e01b81526004016106de9291906144df565b805460ff191660ff8381169190911780835561010090041615611f1e57805461ff00191681555b6001600160c81b03198416600090815260036020526040902080546001600160a01b0319166001600160a01b03871617905560ff821660001901611fce5760018054808201825560009182527fb10e2d527612073b26eecdfd717e6a320cf44b4afac2b0732d9fcbe2b7fa0cf6600680830491909101805464ffffffffff929093066005026101000a9182021990921660d887901c919091021790556002805491611fc8836144fc565b91905055505b846001600160a01b031663ea6439146040518163ffffffff1660e01b8152600401600060405180830381600087803b15801561200957600080fd5b505af115801561201d573d6000803e3d6000fd5b50506040516001600160a01b038816925060ff851691506001600160d81b03198616907f9d59a7f92873a37532afecac87d9ae2e0571c04f7cfe13ace6f38209dd1acd1c90600090a45050505050565b6001818154811061207d57600080fd5b9060005260206000209060069182820401919006600502915054906101000a900460d81b81565b600b602052600090815260409020805460018201546002830154600384015460048501546005860180546001600160a01b03968716979587169680861696600160a01b9687900460c890811b9792861695928304901b93600160d81b90920460ff169290919061211390614151565b80601f016020809104026020016040519081016040528092919081815260200182805461213f90614151565b801561218c5780601f106121615761010080835404028352916020019161218c565b820191906000526020600020905b81548152906001019060200180831161216f57829003601f168201915b5050505050905089565b60006121a1826126ba565b611dea826127e9565b6000546001600160a01b031633146121d45760405162461bcd60e51b81526004016106de90613fa2565b620186a065ffffffffffff82161115612200576040516358d620b360e01b815260040160405180910390fd5b600082600281111561221457612214614017565b0361224e576001600160d81b031983166000908152600860205260409020805465ffffffffffff191665ffffffffffff8316179055505050565b600182600281111561226257612262614017565b036122a8576001600160d81b03198316600090815260086020526040902080546bffffffffffff0000000000001916600160301b65ffffffffffff841602179055505050565b60028260028111156122bc576122bc614017565b036122fb576001600160d81b031983166000908152600860205260409020805465ffffffffffff60601b1916600160601b65ffffffffffff8416021790555b505050565b6000546001600160a01b0316331461232a5760405162461bcd60e51b81526004016106de90613fa2565b6001600160d81b0319811660009081526004602052604090205460ff166123695780600060405163def1560160e01b81526004016106de9291906144df565b6001600160d81b0319811660009081526004602052604090208054610100900460ff16156123b65760405163271614df60e21b81526001600160d81b0319831660048201526024016106de565b805461ff0019166101001781556040516001600160d81b03198316907fa967d5160f4efeca6ce587658357cfe54cbe547c6945ddf21a06ac712216942a90600090a25050565b60065460011461241e5760405162461bcd60e51b81526004016106de9061404e565b600260065561242c836126ba565b6001600160601b0383166000908152600b6020526040902080546001600160a01b03163314612470576040516319b1d90760e31b81523360048201526024016106de565b612479846127e9565b60405163b04046df60e01b81526001600160601b03861660048201526001600160a01b03919091169063b04046df90602401600060405180830381600087803b1580156124c557600080fd5b505af11580156124d9573d6000803e3d6000fd5b50600092508291506124e89050565b90508061250c57600482015461250c906001600160a01b03168660008088886131b0565b6002820154604051600160a01b90910460c81b6001600160c81b031916906001600160601b038716907f2c784826e62ed5cac07a5ebe66734ece0cdc7ee0559b21b59d1434a64e07ec8290600090a350506001600655505050565b6006546001146125895760405162461bcd60e51b81526004016106de9061404e565b60026006553360008181526009602090815260408083206001600160a01b03861684529091528120805490829055839290916125c891849184906131e0565b5050600160065550565b6000546001600160a01b031633146125fc5760405162461bcd60e51b81526004016106de90613fa2565b600080546001600160a01b0319166001600160a01b0383169081178255604051909133917f8be0079c531659141344cd1fd0a4f28419497f9722a3daafe3b4186f6b6457e09190a350565b600082600019048411830215820261265e57600080fd5b5091020490565b6001600160c81b031981166000908152600360205260408120546001600160a01b031680611dea57600080612699856130cd565b91509150818160405163def1560160e01b81526004016106de9291906144df565b600a546001600160601b03908116908216106126f457604051630d55bc2360e41b81526001600160601b03821660048201526024016106de565b50565b600080612703836130cd565b509392505050565b6000808061274489896001600160a01b038a161580159061273e5750886001600160a01b03168a6001600160a01b031614155b87610709565b9092509050811561278c576001600160a01b0380881660009081526009602090815260408083209389168352929052908120805484929061278690849061413e565b90915550505b80156127d2576007546001600160a01b039081166000908152600960209081526040808320938916835292905290812080548392906127cc90849061413e565b90915550505b6127dc818361413e565b9998505050505050505050565b6001600160601b0381166000908152600b6020526040812060020154611dea90600160a01b900460c81b612665565b60408051606080820183526000808352602083015291810191909152815160000361286a5750506040805160608101825260008082526020808301829052835190810184529081529181019190915290565b61010082511461288d57604051635435b28960e11b815260040160405180910390fd5b81806020019051810190611dea9190614515565b6122fb827f000000000000000000000000000000000000000000000000000000000000000033308786600161331f565b6000600160991b82166128e457846128e6565b815b90506128f583828660006131e0565b5050505050565b6000831515810361290f57506000611334565b6129258265ffffffffffff8516620186a0612647565b949350505050565b6001609c1b8816156129a3576129a363fc43998260e01b8888888888888860405160240161296197969594939291906145b4565b60408051601f198184030181529190526020810180516001600160e01b03166001600160e01b0319909316929092179091526001600160a01b038a169061336b565b5050505050505050565b6000811515600103612a26576040516370a0823160e01b81526001600160a01b0385811660048301528716906370a0823190602401602060405180830381865afa1580156129ff573d6000803e3d6000fd5b505050506040513d601f19601f82011682018060405250810190612a239190614125565b90505b8215612a4157612a416001600160a01b038716868686613429565b6001821515148015612ac45750612a58838261413e565b6040516370a0823160e01b81526001600160a01b0386811660048301528816906370a0823190602401602060405180830381865afa158015612a9e573d6000803e3d6000fd5b505050506040513d601f19601f82011682018060405250810190612ac29190614125565b105b15612aed57604051635f8b555b60e11b81526001600160a01b03871660048201526024016106de565b505050505050565b60c082015160208301516001600160c81b03198216612b2057612b1b81878760016131e0565b612aed565b6000612b2b83612665565b61010086015160608701516001600160c81b03199081166000908152600d602090815260408083208985168452909152902054929350909160c81b90811615612bf3576000612b7982612665565b6040516333f1a81560e11b81529091506001600160a01b038216906367e3502a90612baa908a9087906004016145f9565b600060405180830381865afa158015612bc7573d6000803e3d6000fd5b505050506040513d6000823e601f3d908101601f19168201604052612bef919081019061461e565b9250505b612bfe84848a6134be565b60e0870151604051631c81b11f60e31b81526001600160a01b0385169163e40d88f891612c36918d91899188918f9190600401614652565b6060604051808303816000875af1158015612c55573d6000803e3d6000fd5b505050506040513d601f19601f82011682018060405250810190612c799190614697565b505050505050505050505050565b6001609d1b861615612aed57612aed6309b9601c60e01b8686868686604051602401612cb79594939291906146d0565b60408051601f198184030181529190526020810180516001600160e01b03166001600160e01b0319909316929092179091526001600160a01b0388169061336b565b6001600160d81b03198116600090815260046020908152604080832081518083019092525460ff8082168084526101009092041615159282019290925290612d595782600060405163def1560160e01b81526004016106de9291906144df565b806020015115612d885760405163ae05d58960e01b81526001600160d81b0319841660048201526024016106de565b6000612d988483600001516134d2565b6001600160c81b0319166000908152600360205260409020546001600160a01b0316949350505050565b6000600160981b821615158015612deb57506001609f1b82161580612deb57506001609d1b8216155b8015612dfb57506001609c1b8216155b15612e0857506000919050565b6001600160a01b0382161580611dea575050600160991b6001600160a01b03909116101590565b600080612e426114976020860186613938565b90506000816001600160a01b031663994595e16040518163ffffffff1660e01b8152600401602060405180830381865afa158015612e84573d6000803e3d6000fd5b505050506040513d601f19601f82011682018060405250810190612ea8919061470c565b6001811115612eb957612eb9614017565b14612ed757604051635435b28960e11b815260040160405180910390fd5b506000949350505050565b612f2b612ef560a0860160808701613903565b8433612f076040890160208a01613903565b612f1760608a0160408b01613903565b8787612f2660a08d018d614325565b613561565b50505050565b806001600160a01b03163b6000036126f457604051631bd1ba9d60e21b81526001600160a01b03821660048201526024016106de565b8060005b6007811015613099576000828260078110612f8857612f8861472d565b1a60f81b90506002821015612fe457600360fc1b6001600160f81b031982161080612fc05750603960f81b6001600160f81b03198216115b15612fdf5783604051628b684360e31b81526004016106de9190613f8d565b613090565b600582101561303457604160f81b6001600160f81b031982161080612fc05750602d60f91b6001600160f81b031982161115612fdf5783604051628b684360e31b81526004016106de9190613f8d565b6001600160f81b03198116158015906130715750604160f81b6001600160f81b0319821610806130715750602d60f91b6001600160f81b03198216115b156130905783604051628b684360e31b81526004016106de9190613f8d565b50600101612f6b565b5060006130a5836130cd565b9150508060ff166000036122fb5782604051628b684360e31b81526004016106de9190613f8d565b60008082600360fc1b6001600160f81b031982841a60f81b1610806131055750603960f81b8160001a60f81b6001600160f81b031916115b806131235750600360fc1b8160011a60f81b6001600160f81b031916105b806131415750603960f81b8160011a60f81b6001600160f81b031916115b156131605783604051628b684360e31b81526004016106de9190613f8d565b600061316f603083831a614743565b61317a90600a61475c565b905061318b6030600184901a614743565b61319590826144c6565b60109290921b6001600160d81b031916959194509092505050565b6001609e1b861615612aed57612aed63a5658c8660e01b8686868686604051602401612cb79594939291906146d0565b6000811515600103613259576040516370a0823160e01b81526001600160a01b0385811660048301528616906370a0823190602401602060405180830381865afa158015613232573d6000803e3d6000fd5b505050506040513d601f19601f820116820180604052508101906132569190614125565b90505b8215613273576132736001600160a01b03861685856135e4565b60018215151480156132f6575061328a838261413e565b6040516370a0823160e01b81526001600160a01b0386811660048301528716906370a0823190602401602060405180830381865afa1580156132d0573d6000803e3d6000fd5b505050506040513d601f19601f820116820180604052508101906132f49190614125565b105b156128f557604051635f8b555b60e11b81526001600160a01b03861660048201526024016106de565b6001600160a01b0386161580159061333c57506000826040015151115b156133555761335087878787878787613665565b613362565b61336287868686856129ad565b50505050505050565b600060208201519050600080846001600160a01b03168460405161338f9190614778565b6000604051808303816000865af19150503d80600081146133cc576040519150601f19603f3d011682016040523d82523d6000602084013e6133d1565b606091505b5091509150816133e4576133e481613836565b6000818060200190518101906133fa9190614794565b90506001600160e01b031980821690851614612aed5760405163d1c96d5f60e01b815260040160405180910390fd5b60006040516323b872dd60e01b81526001600160a01b03851660048201526001600160a01b03841660248201528260448201526020600060648360008a5af13d15601f3d11600160005114161716915050806128f55760405162461bcd60e51b81526020600482015260146024820152731514905394d1915497d19493d357d1905253115160621b60448201526064016106de565b6122fb6001600160a01b038416838361385e565b6000806134e0600a846147d4565b6134eb9060306144c6565b60f81b905060006134fd600a856147f6565b6135089060306144c6565b6040516001600160f81b0319808516602083015260f89290921b91821660218201526001600160d81b03198716602282015290915060270160405160208183030381529060405261355890614818565b95945050505050565b6001609f1b8916156135d9576135d96366e7416760e01b898989898989898960405160240161359798979695949392919061484f565b60408051601f198184030181529190526020810180516001600160e01b03166001600160e01b0319909316929092179091526001600160a01b038b169061336b565b505050505050505050565b600060405163a9059cbb60e01b81526001600160a01b0384166004820152826024820152602060006044836000895af13d15601f3d1160016000511416171691505080612f2b5760405162461bcd60e51b815260206004820152600f60248201526e1514905394d1915497d19052531151608a1b60448201526064016106de565b60008115156001036136de576040516370a0823160e01b81526001600160a01b0386811660048301528916906370a0823190602401602060405180830381865afa1580156136b7573d6000803e3d6000fd5b505050506040513d601f19601f820116820180604052508101906136db9190614125565b90505b6040805160a0810182526001600160a01b038a81166060830190815260808301889052825260208681015181840152865165ffffffffffff168385015283518085018552898316815290810188905286840151935163187945bd60e11b8152918b16936330f28b7a93613758939092918c916004016148b0565b600060405180830381600087803b15801561377257600080fd5b505af1158015613786573d6000803e3d6000fd5b50505050811515600114801561380d57506137a1848261413e565b6040516370a0823160e01b81526001600160a01b0387811660048301528a16906370a0823190602401602060405180830381865afa1580156137e7573d6000803e3d6000fd5b505050506040513d601f19601f8201168201806040525081019061380b9190614125565b105b156129a357604051635f8b555b60e11b81526001600160a01b03891660048201526024016106de565b80511561384557805181602001fd5b60405163472850e360e11b815260040160405180910390fd5b600060405163095ea7b360e01b81526001600160a01b0384166004820152826024820152602060006044836000895af13d15601f3d1160016000511416171691505080612f2b5760405162461bcd60e51b815260206004820152600e60248201526d1054141493d59157d1905253115160921b60448201526064016106de565b6001600160a01b03811681146126f457600080fd5b80356138fe816138de565b919050565b60006020828403121561391557600080fd5b8135611334816138de565b80356001600160d81b0319811681146138fe57600080fd5b60006020828403121561394a57600080fd5b61133482613920565b65ffffffffffff811681146126f457600080fd5b80151581146126f457600080fd5b6000806000806080858703121561398b57600080fd5b843561399681613953565b935060208501356139a681613953565b925060408501356139b681613967565b9396929550929360600135925050565b6001600160c81b0319811681146126f457600080fd5b6000806000606084860312156139f157600080fd5b83356139fc816139c6565b92506020840135613a0c816139c6565b91506040840135613a1c816139c6565b809150509250925092565b634e487b7160e01b600052604160045260246000fd5b60405160e081016001600160401b0381118282101715613a5f57613a5f613a27565b60405290565b604051601f8201601f191681016001600160401b0381118282101715613a8d57613a8d613a27565b604052919050565b80356001600160601b03811681146138fe57600080fd5b60006001600160401b03821115613ac557613ac5613a27565b50601f01601f191660200190565b600082601f830112613ae457600080fd5b8135613af7613af282613aac565b613a65565b818152846020838601011115613b0c57600080fd5b816020850160208301376000918101602001919091529392505050565b60008083601f840112613b3b57600080fd5b5081356001600160401b03811115613b5257600080fd5b602083019150836020828501011115613b6a57600080fd5b9250929050565b600080600060408486031215613b8657600080fd5b83356001600160401b0380821115613b9d57600080fd5b9085019060e08288031215613bb157600080fd5b613bb9613a3d565b613bc2836138f3565b8152613bd0602084016138f3565b6020820152613be160408401613a95565b6040820152606083013560608201526080830135608082015260a083013582811115613c0c57600080fd5b613c1889828601613ad3565b60a08301525060c083013582811115613c3057600080fd5b613c3c89828601613ad3565b60c08301525094506020860135915080821115613c5857600080fd5b50613c6586828701613b29565b9497909650939450505050565b600080600060408486031215613c8757600080fd5b613c9084613a95565b925060208401356001600160401b03811115613cab57600080fd5b613c6586828701613b29565b600080600060408486031215613ccc57600080fd5b8335613c90816139c6565b60005b83811015613cf2578181015183820152602001613cda565b50506000910152565b60008151808452613d13816020860160208601613cd7565b601f01601f19169290920160200192915050565b6020815260006113346020830184613cfb565b60008060008060608587031215613d5057600080fd5b84356001600160401b0380821115613d6757600080fd5b908601906101208289031215613d7c57600080fd5b90945060208601359080821115613d9257600080fd5b9086019060a08289031215613da657600080fd5b90935060408601359080821115613dbc57600080fd5b50613dc987828801613b29565b95989497509550505050565b60008060408385031215613de857600080fd5b613df183613920565b91506020830135613e0181613953565b809150509250929050565b60008060408385031215613e1f57600080fd5b8235613e2a816138de565b91506020830135613e01816138de565b600060208284031215613e4c57600080fd5b5035919050565b600060208284031215613e6557600080fd5b61133482613a95565b6001600160a01b038a81168252898116602083015288811660408301526001600160c81b031988811660608401526080830188905290861660a0830152841660c082015282151560e08201526101206101008201819052600090613ed483820185613cfb565b9c9b505050505050505050505050565b600060208284031215613ef657600080fd5b8135611334816139c6565b600080600060608486031215613f1657600080fd5b613f1f84613920565b9250602084013560038110613f3357600080fd5b91506040840135613a1c81613953565b60008060408385031215613f5657600080fd5b613e2a83613920565b60008060408385031215613f7257600080fd5b8235613f7d816139c6565b91506020830135613e01816139c6565b6001600160c81b031991909116815260200190565b6020808252600c908201526b15539055551213d49256915160a21b604082015260600190565b634e487b7160e01b600052601160045260246000fd5b65ffffffffffff818116838216019080821115613ffd57613ffd613fc8565b5092915050565b81810381811115611dea57611dea613fc8565b634e487b7160e01b600052602160045260246000fd5b60006020828403121561403f57600080fd5b81516004811061133457600080fd5b6020808252600a90820152695245454e5452414e435960b01b604082015260600190565b6001600160601b03841681528260208201526060604082015260006135586060830184613cfb565b600082601f8301126140ab57600080fd5b81516140b9613af282613aac565b8181528460208386010111156140ce57600080fd5b612925826020830160208701613cd7565b600080604083850312156140f257600080fd5b8251915060208301516001600160401b0381111561410f57600080fd5b61411b8582860161409a565b9150509250929050565b60006020828403121561413757600080fd5b5051919050565b80820180821115611dea57611dea613fc8565b600181811c9082168061416557607f821691505b60208210810361418557634e487b7160e01b600052602260045260246000fd5b50919050565b60006020828403121561419d57600080fd5b815161133481613967565b8183823760009101908152919050565b60006001600160601b038083168181036141d4576141d4613fc8565b6001019392505050565b6000602082840312156141f057600080fd5b815160ff8116811461133457600080fd5b81835281816020850137506000828201602090810191909152601f909101601f19169091010190565b6001600160601b0385168152608060208201526000843561424a81613953565b65ffffffffffff908116608084015260208601359061426882613953565b1660a0830152604085013561427c81613967565b151560c0830152606085013560e0830152608085013536869003601e190181126142a557600080fd5b85016020810190356001600160401b038111156142c157600080fd5b8036038213156142d057600080fd5b60a06101008501526142e761012085018284614201565b925050506142fa604083018560ff169052565b60ff83166060830152613558565b60006020828403121561431a57600080fd5b8151611334816139c6565b6000808335601e1984360301811261433c57600080fd5b8301803591506001600160401b0382111561435657600080fd5b602001915036819003821315613b6a57600080fd5b6001600160a01b03841681526040602082018190526000906135589083018486614201565b601f8211156122fb57600081815260208120601f850160051c810160208610156143b75750805b601f850160051c820191505b81811015612aed578281556001016143c3565b6001600160401b038311156143ed576143ed613a27565b614401836143fb8354614151565b83614390565b6000601f841160018114614435576000851561441d5750838201355b600019600387901b1c1916600186901b1783556128f5565b600083815260209020601f19861690835b828110156144665786850135825560209485019460019092019101614446565b50868210156144835760001960f88860031b161c19848701351681555b505060018560011b0183555050505050565b6000602082840312156144a757600080fd5b813561133481613967565b602081526000612925602083018486614201565b60ff8181168382160190811115611dea57611dea613fc8565b6001600160d81b031992909216825260ff16602082015260400190565b60006001820161450e5761450e613fc8565b5060010190565b60006020828403121561452757600080fd5b81516001600160401b038082111561453e57600080fd5b908301906060828603121561455257600080fd5b60405160608101818110838211171561456d5761456d613a27565b604052825161457b81613953565b81526020838101519082015260408301518281111561459957600080fd5b6145a58782860161409a565b60408301525095945050505050565b6001600160601b038816815260018060a01b0387166020820152856040820152846060820152831515608082015260c060a082015260006127dc60c083018486614201565b60408152600061460c6040830185613cfb565b82810360208401526135588185613cfb565b60006020828403121561463057600080fd5b81516001600160401b0381111561464657600080fd5b6129258482850161409a565b6001600160a01b0386811682528516602082015260a06040820181905260009061467e90830186613cfb565b6060830194909452509015156080909101529392505050565b6000806000606084860312156146ac57600080fd5b8351925060208401516146be816138de565b80925050604084015190509250925092565b6001600160601b03861681528460208201528315156040820152608060608201526000614701608083018486614201565b979650505050505050565b60006020828403121561471e57600080fd5b81516002811061133457600080fd5b634e487b7160e01b600052603260045260246000fd5b60ff8281168282160390811115611dea57611dea613fc8565b60ff8181168382160290811690818114613ffd57613ffd613fc8565b6000825161478a818460208701613cd7565b9190910192915050565b6000602082840312156147a657600080fd5b81516001600160e01b03198116811461133457600080fd5b634e487b7160e01b600052601260045260246000fd5b600060ff8316806147e7576147e76147be565b8060ff84160491505092915050565b600060ff831680614809576148096147be565b8060ff84160691505092915050565b805160208201516001600160c81b031980821692919060078310156148475780818460070360031b1b83161693505b505050919050565b6001600160601b03891681526001600160a01b0388811660208301528781166040830152861660608201526080810185905283151560a082015260e060c082018190526000906148a29083018486614201565b9a9950505050505050505050565b60006101006148d383885180516001600160a01b03168252602090810151910152565b6020870151604084015260408701516060840152614907608084018780516001600160a01b03168252602090810151910152565b6001600160a01b03851660c084015260e0830181905261470181840185613cfb56fea264697066735822122099c30da2d1cc1403047ec0d28c6683c0d033ecbaf2b8cb33d694dd3b6ac528e064736f6c63430008130033",
    "linkReferences": {}
  },
  "methodIdentifiers": {
    "auction((bytes5,address,address,address,address,bytes,bytes5,bytes,bool),(uint48,uint48,bool,uint256,bytes),string)": "5a3eb399",
    "calculateQuoteFees(uint48,uint48,bool,uint256)": "0bad843b",
    "cancel(uint96,bytes)": "cf042fb0",
    "claimRewards(address)": "ef5cfb8c",
    "condensers(bytes7,bytes7)": "f4b26181",
    "curate(uint96,bytes)": "505f901a",
    "execOnModule(bytes7,bytes)": "50ab0489",
    "fees(bytes5)": "31d72d6b",
    "getCuratorFee(bytes5,address)": "e814b76a",
    "getFees(bytes5)": "0ab9a1ee",
    "getModuleForId(uint96)": "a50076f7",
    "getModuleForVeecode(bytes7)": "9e55cba3",
    "getModuleStatus(bytes5)": "5bb27aab",
    "getProtocol()": "d16352af",
    "getRewards(address,address)": "779bcb9b",
    "installModule(address)": "7eb1e761",
    "isExecOnModule()": "5c774ed7",
    "lotCounter()": "c4ce88fd",
    "lotFees(uint96)": "ea072e70",
    "lotRouting(uint96)": "9e2e003a",
    "modules(uint256)": "81b2248a",
    "modulesCount()": "f315aafe",
    "owner()": "8da5cb5b",
    "purchase((address,address,uint96,uint256,uint256,bytes,bytes),bytes)": "3baf6ce4",
    "rewards(address,address)": "e70b9e27",
    "setCondenser(bytes7,bytes7,bytes7)": "20b15fe4",
    "setCuratorFee(bytes5,uint48)": "7249c0d5",
    "setFee(bytes5,uint8,uint48)": "c74c149b",
    "setProtocol(address)": "0a9d793d",
    "sunsetModule(bytes5)": "c75519ba",
    "transferOwnership(address)": "f2fde38b"
  },
  "id": 41
}