{
  "abi": [
    {
      "type": "constructor",
      "inputs": [
        {
          "name": "owner_",
          "type": "address",
          "internalType": "address"
        },
        {
          "name": "protocol_",
          "type": "address",
          "internalType": "address"
        },
        {
          "name": "permit2_",
          "type": "address",
          "internalType": "address"
        }
      ],
      "stateMutability": "nonpayable"
    },
    {
      "type": "function",
      "name": "auction",
      "inputs": [
        {
          "name": "routing_",
          "type": "tuple",
          "internalType": "struct IAuctionHouse.RoutingParams",
          "components": [
            {
              "name": "auctionType",
              "type": "bytes5",
              "internalType": "Keycode"
            },
            {
              "name": "baseToken",
              "type": "address",
              "internalType": "address"
            },
            {
              "name": "quoteToken",
              "type": "address",
              "internalType": "address"
            },
            {
              "name": "curator",
              "type": "address",
              "internalType": "address"
            },
            {
              "name": "callbacks",
              "type": "address",
              "internalType": "contract ICallback"
            },
            {
              "name": "callbackData",
              "type": "bytes",
              "internalType": "bytes"
            },
            {
              "name": "derivativeType",
              "type": "bytes5",
              "internalType": "Keycode"
            },
            {
              "name": "derivativeParams",
              "type": "bytes",
              "internalType": "bytes"
            },
            {
              "name": "wrapDerivative",
              "type": "bool",
              "internalType": "bool"
            }
          ]
        },
        {
          "name": "params_",
          "type": "tuple",
          "internalType": "struct IAuction.AuctionParams",
          "components": [
            {
              "name": "start",
              "type": "uint48",
              "internalType": "uint48"
            },
            {
              "name": "duration",
              "type": "uint48",
              "internalType": "uint48"
            },
            {
              "name": "capacityInQuote",
              "type": "bool",
              "internalType": "bool"
            },
            {
              "name": "capacity",
              "type": "uint256",
              "internalType": "uint256"
            },
            {
              "name": "implParams",
              "type": "bytes",
              "internalType": "bytes"
            }
          ]
        },
        {
          "name": "infoHash_",
          "type": "string",
          "internalType": "string"
        }
      ],
      "outputs": [
        {
          "name": "lotId",
          "type": "uint96",
          "internalType": "uint96"
        }
      ],
      "stateMutability": "nonpayable"
    },
    {
      "type": "function",
      "name": "calculateQuoteFees",
      "inputs": [
        {
          "name": "protocolFee_",
          "type": "uint48",
          "internalType": "uint48"
        },
        {
          "name": "referrerFee_",
          "type": "uint48",
          "internalType": "uint48"
        },
        {
          "name": "hasReferrer_",
          "type": "bool",
          "internalType": "bool"
        },
        {
          "name": "amount_",
          "type": "uint256",
          "internalType": "uint256"
        }
      ],
      "outputs": [
        {
          "name": "toReferrer",
          "type": "uint256",
          "internalType": "uint256"
        },
        {
          "name": "toProtocol",
          "type": "uint256",
          "internalType": "uint256"
        }
      ],
      "stateMutability": "pure"
    },
    {
      "type": "function",
      "name": "cancel",
      "inputs": [
        {
          "name": "lotId_",
          "type": "uint96",
          "internalType": "uint96"
        },
        {
          "name": "callbackData_",
          "type": "bytes",
          "internalType": "bytes"
        }
      ],
      "outputs": [],
      "stateMutability": "nonpayable"
    },
    {
      "type": "function",
      "name": "claimRewards",
      "inputs": [
        {
          "name": "token_",
          "type": "address",
          "internalType": "address"
        }
      ],
      "outputs": [],
      "stateMutability": "nonpayable"
    },
    {
      "type": "function",
      "name": "condensers",
      "inputs": [
        {
          "name": "auctionRef",
          "type": "bytes7",
          "internalType": "Veecode"
        },
        {
          "name": "derivativeRef",
          "type": "bytes7",
          "internalType": "Veecode"
        }
      ],
      "outputs": [
        {
          "name": "condenserRef",
          "type": "bytes7",
          "internalType": "Veecode"
        }
      ],
      "stateMutability": "view"
    },
    {
      "type": "function",
      "name": "curate",
      "inputs": [
        {
          "name": "lotId_",
          "type": "uint96",
          "internalType": "uint96"
        },
        {
          "name": "callbackData_",
          "type": "bytes",
          "internalType": "bytes"
        }
      ],
      "outputs": [],
      "stateMutability": "nonpayable"
    },
    {
      "type": "function",
      "name": "execOnModule",
      "inputs": [
        {
          "name": "veecode_",
          "type": "bytes7",
          "internalType": "Veecode"
        },
        {
          "name": "callData_",
          "type": "bytes",
          "internalType": "bytes"
        }
      ],
      "outputs": [
        {
          "name": "",
          "type": "bytes",
          "internalType": "bytes"
        }
      ],
      "stateMutability": "nonpayable"
    },
    {
      "type": "function",
      "name": "fees",
      "inputs": [
        {
          "name": "",
          "type": "bytes5",
          "internalType": "Keycode"
        }
      ],
      "outputs": [
        {
          "name": "protocol",
          "type": "uint48",
          "internalType": "uint48"
        },
        {
          "name": "referrer",
          "type": "uint48",
          "internalType": "uint48"
        },
        {
          "name": "maxCuratorFee",
          "type": "uint48",
          "internalType": "uint48"
        }
      ],
      "stateMutability": "view"
    },
    {
      "type": "function",
      "name": "getCuratorFee",
      "inputs": [
        {
          "name": "auctionType_",
          "type": "bytes5",
          "internalType": "Keycode"
        },
        {
          "name": "curator_",
          "type": "address",
          "internalType": "address"
        }
      ],
      "outputs": [
        {
          "name": "curatorFee",
          "type": "uint48",
          "internalType": "uint48"
        }
      ],
      "stateMutability": "view"
    },
    {
      "type": "function",
      "name": "getFees",
      "inputs": [
        {
          "name": "auctionType_",
          "type": "bytes5",
          "internalType": "Keycode"
        }
      ],
      "outputs": [
        {
          "name": "protocol",
          "type": "uint48",
          "internalType": "uint48"
        },
        {
          "name": "referrer",
          "type": "uint48",
          "internalType": "uint48"
        },
        {
          "name": "maxCuratorFee",
          "type": "uint48",
          "internalType": "uint48"
        }
      ],
      "stateMutability": "view"
    },
    {
      "type": "function",
      "name": "getModuleForId",
      "inputs": [
        {
          "name": "lotId_",
          "type": "uint96",
          "internalType": "uint96"
        }
      ],
      "outputs": [
        {
          "name": "",
          "type": "address",
          "internalType": "contract AuctionModule"
        }
      ],
      "stateMutability": "view"
    },
    {
      "type": "function",
      "name": "getModuleForVeecode",
      "inputs": [
        {
          "name": "",
          "type": "bytes7",
          "internalType": "Veecode"
        }
      ],
      "outputs": [
        {
          "name": "",
          "type": "address",
          "internalType": "contract Module"
        }
      ],
      "stateMutability": "view"
    },
    {
      "type": "function",
      "name": "getModuleStatus",
      "inputs": [
        {
          "name": "",
          "type": "bytes5",
          "internalType": "Keycode"
        }
      ],
      "outputs": [
        {
          "name": "latestVersion",
          "type": "uint8",
          "internalType": "uint8"
        },
        {
          "name": "sunset",
          "type": "bool",
          "internalType": "bool"
        }
      ],
      "stateMutability": "view"
    },
    {
      "type": "function",
      "name": "getProtocol",
      "inputs": [],
      "outputs": [
        {
          "name": "",
          "type": "address",
          "internalType": "address"
        }
      ],
      "stateMutability": "view"
    },
    {
      "type": "function",
      "name": "getRewards",
      "inputs": [
        {
          "name": "recipient_",
          "type": "address",
          "internalType": "address"
        },
        {
          "name": "token_",
          "type": "address",
          "internalType": "address"
        }
      ],
      "outputs": [
        {
          "name": "reward",
          "type": "uint256",
          "internalType": "uint256"
        }
      ],
      "stateMutability": "view"
    },
    {
      "type": "function",
      "name": "installModule",
      "inputs": [
        {
          "name": "newModule_",
          "type": "address",
          "internalType": "contract Module"
        }
      ],
      "outputs": [],
      "stateMutability": "nonpayable"
    },
    {
      "type": "function",
      "name": "isExecOnModule",
      "inputs": [],
      "outputs": [
        {
          "name": "",
          "type": "bool",
          "internalType": "bool"
        }
      ],
      "stateMutability": "view"
    },
    {
      "type": "function",
      "name": "lotCounter",
      "inputs": [],
      "outputs": [
        {
          "name": "",
          "type": "uint96",
          "internalType": "uint96"
        }
      ],
      "stateMutability": "view"
    },
    {
      "type": "function",
      "name": "lotFees",
      "inputs": [
        {
          "name": "lotId",
          "type": "uint96",
          "internalType": "uint96"
        }
      ],
      "outputs": [
        {
          "name": "curator",
          "type": "address",
          "internalType": "address"
        },
        {
          "name": "curated",
          "type": "bool",
          "internalType": "bool"
        },
        {
          "name": "curatorFee",
          "type": "uint48",
          "internalType": "uint48"
        },
        {
          "name": "protocolFee",
          "type": "uint48",
          "internalType": "uint48"
        },
        {
          "name": "referrerFee",
          "type": "uint48",
          "internalType": "uint48"
        }
      ],
      "stateMutability": "view"
    },
    {
      "type": "function",
      "name": "lotRouting",
      "inputs": [
        {
          "name": "lotId",
          "type": "uint96",
          "internalType": "uint96"
        }
      ],
      "outputs": [
        {
          "name": "seller",
          "type": "address",
          "internalType": "address"
        },
        {
          "name": "baseToken",
          "type": "address",
          "internalType": "contract ERC20"
        },
        {
          "name": "quoteToken",
          "type": "address",
          "internalType": "contract ERC20"
        },
        {
          "name": "auctionReference",
          "type": "bytes7",
          "internalType": "Veecode"
        },
        {
          "name": "funding",
          "type": "uint256",
          "internalType": "uint256"
        },
        {
          "name": "callbacks",
          "type": "address",
          "internalType": "contract ICallback"
        },
        {
          "name": "derivativeReference",
          "type": "bytes7",
          "internalType": "Veecode"
        },
        {
          "name": "wrapDerivative",
          "type": "bool",
          "internalType": "bool"
        },
        {
          "name": "derivativeParams",
          "type": "bytes",
          "internalType": "bytes"
        }
      ],
      "stateMutability": "view"
    },
    {
      "type": "function",
      "name": "modules",
      "inputs": [
        {
          "name": "",
          "type": "uint256",
          "internalType": "uint256"
        }
      ],
      "outputs": [
        {
          "name": "",
          "type": "bytes5",
          "internalType": "Keycode"
        }
      ],
      "stateMutability": "view"
    },
    {
      "type": "function",
      "name": "modulesCount",
      "inputs": [],
      "outputs": [
        {
          "name": "",
          "type": "uint256",
          "internalType": "uint256"
        }
      ],
      "stateMutability": "view"
    },
    {
      "type": "function",
      "name": "multiPurchase",
      "inputs": [
        {
          "name": "params_",
          "type": "tuple[]",
          "internalType": "struct IAtomicAuctionHouse.PurchaseParams[]",
          "components": [
            {
              "name": "recipient",
              "type": "address",
              "internalType": "address"
            },
            {
              "name": "referrer",
              "type": "address",
              "internalType": "address"
            },
            {
              "name": "lotId",
              "type": "uint96",
              "internalType": "uint96"
            },
            {
              "name": "amount",
              "type": "uint256",
              "internalType": "uint256"
            },
            {
              "name": "minAmountOut",
              "type": "uint256",
              "internalType": "uint256"
            },
            {
              "name": "auctionData",
              "type": "bytes",
              "internalType": "bytes"
            },
            {
              "name": "permit2Data",
              "type": "bytes",
              "internalType": "bytes"
            }
          ]
        },
        {
          "name": "callbackData_",
          "type": "bytes[]",
          "internalType": "bytes[]"
        }
      ],
      "outputs": [
        {
          "name": "payoutAmounts",
          "type": "uint256[]",
          "internalType": "uint256[]"
        }
      ],
      "stateMutability": "nonpayable"
    },
    {
      "type": "function",
      "name": "owner",
      "inputs": [],
      "outputs": [
        {
          "name": "",
          "type": "address",
          "internalType": "address"
        }
      ],
      "stateMutability": "view"
    },
    {
      "type": "function",
      "name": "purchase",
      "inputs": [
        {
          "name": "params_",
          "type": "tuple",
          "internalType": "struct IAtomicAuctionHouse.PurchaseParams",
          "components": [
            {
              "name": "recipient",
              "type": "address",
              "internalType": "address"
            },
            {
              "name": "referrer",
              "type": "address",
              "internalType": "address"
            },
            {
              "name": "lotId",
              "type": "uint96",
              "internalType": "uint96"
            },
            {
              "name": "amount",
              "type": "uint256",
              "internalType": "uint256"
            },
            {
              "name": "minAmountOut",
              "type": "uint256",
              "internalType": "uint256"
            },
            {
              "name": "auctionData",
              "type": "bytes",
              "internalType": "bytes"
            },
            {
              "name": "permit2Data",
              "type": "bytes",
              "internalType": "bytes"
            }
          ]
        },
        {
          "name": "callbackData_",
          "type": "bytes",
          "internalType": "bytes"
        }
      ],
      "outputs": [
        {
          "name": "payoutAmount",
          "type": "uint256",
          "internalType": "uint256"
        }
      ],
      "stateMutability": "nonpayable"
    },
    {
      "type": "function",
      "name": "rewards",
      "inputs": [
        {
          "name": "",
          "type": "address",
          "internalType": "address"
        },
        {
          "name": "",
          "type": "address",
          "internalType": "contract ERC20"
        }
      ],
      "outputs": [
        {
          "name": "",
          "type": "uint256",
          "internalType": "uint256"
        }
      ],
      "stateMutability": "view"
    },
    {
      "type": "function",
      "name": "setCondenser",
      "inputs": [
        {
          "name": "auctionRef_",
          "type": "bytes7",
          "internalType": "Veecode"
        },
        {
          "name": "derivativeRef_",
          "type": "bytes7",
          "internalType": "Veecode"
        },
        {
          "name": "condenserRef_",
          "type": "bytes7",
          "internalType": "Veecode"
        }
      ],
      "outputs": [],
      "stateMutability": "nonpayable"
    },
    {
      "type": "function",
      "name": "setCuratorFee",
      "inputs": [
        {
          "name": "auctionType_",
          "type": "bytes5",
          "internalType": "Keycode"
        },
        {
          "name": "fee_",
          "type": "uint48",
          "internalType": "uint48"
        }
      ],
      "outputs": [],
      "stateMutability": "nonpayable"
    },
    {
      "type": "function",
      "name": "setFee",
      "inputs": [
        {
          "name": "auctionType_",
          "type": "bytes5",
          "internalType": "Keycode"
        },
        {
          "name": "type_",
          "type": "uint8",
          "internalType": "enum IFeeManager.FeeType"
        },
        {
          "name": "fee_",
          "type": "uint48",
          "internalType": "uint48"
        }
      ],
      "outputs": [],
      "stateMutability": "nonpayable"
    },
    {
      "type": "function",
      "name": "setProtocol",
      "inputs": [
        {
          "name": "protocol_",
          "type": "address",
          "internalType": "address"
        }
      ],
      "outputs": [],
      "stateMutability": "nonpayable"
    },
    {
      "type": "function",
      "name": "sunsetModule",
      "inputs": [
        {
          "name": "keycode_",
          "type": "bytes5",
          "internalType": "Keycode"
        }
      ],
      "outputs": [],
      "stateMutability": "nonpayable"
    },
    {
      "type": "function",
      "name": "transferOwnership",
      "inputs": [
        {
          "name": "newOwner",
          "type": "address",
          "internalType": "address"
        }
      ],
      "outputs": [],
      "stateMutability": "nonpayable"
    },
    {
      "type": "event",
      "name": "AuctionCancelled",
      "inputs": [
        {
          "name": "lotId",
          "type": "uint96",
          "indexed": true,
          "internalType": "uint96"
        },
        {
          "name": "auctionRef",
          "type": "bytes7",
          "indexed": true,
          "internalType": "Veecode"
        }
      ],
      "anonymous": false
    },
    {
      "type": "event",
      "name": "AuctionCreated",
      "inputs": [
        {
          "name": "lotId",
          "type": "uint96",
          "indexed": true,
          "internalType": "uint96"
        },
        {
          "name": "auctionRef",
          "type": "bytes7",
          "indexed": true,
          "internalType": "Veecode"
        },
        {
          "name": "infoHash",
          "type": "string",
          "indexed": false,
          "internalType": "string"
        }
      ],
      "anonymous": false
    },
    {
      "type": "event",
      "name": "Curated",
      "inputs": [
        {
          "name": "lotId",
          "type": "uint96",
          "indexed": true,
          "internalType": "uint96"
        },
        {
          "name": "curator",
          "type": "address",
          "indexed": true,
          "internalType": "address"
        }
      ],
      "anonymous": false
    },
    {
      "type": "event",
      "name": "ModuleInstalled",
      "inputs": [
        {
          "name": "keycode",
          "type": "bytes5",
          "indexed": true,
          "internalType": "Keycode"
        },
        {
          "name": "version",
          "type": "uint8",
          "indexed": true,
          "internalType": "uint8"
        },
        {
          "name": "location",
          "type": "address",
          "indexed": true,
          "internalType": "address"
        }
      ],
      "anonymous": false
    },
    {
      "type": "event",
      "name": "ModuleSunset",
      "inputs": [
        {
          "name": "keycode",
          "type": "bytes5",
          "indexed": true,
          "internalType": "Keycode"
        }
      ],
      "anonymous": false
    },
    {
      "type": "event",
      "name": "OwnershipTransferred",
      "inputs": [
        {
          "name": "user",
          "type": "address",
          "indexed": true,
          "internalType": "address"
        },
        {
          "name": "newOwner",
          "type": "address",
          "indexed": true,
          "internalType": "address"
        }
      ],
      "anonymous": false
    },
    {
      "type": "event",
      "name": "Purchase",
      "inputs": [
        {
          "name": "lotId",
          "type": "uint96",
          "indexed": true,
          "internalType": "uint96"
        },
        {
          "name": "buyer",
          "type": "address",
          "indexed": true,
          "internalType": "address"
        },
        {
          "name": "referrer",
          "type": "address",
          "indexed": false,
          "internalType": "address"
        },
        {
          "name": "amount",
          "type": "uint256",
          "indexed": false,
          "internalType": "uint256"
        },
        {
          "name": "payout",
          "type": "uint256",
          "indexed": false,
          "internalType": "uint256"
        }
      ],
      "anonymous": false
    },
    {
      "type": "error",
      "name": "AmountLessThanMinimum",
      "inputs": []
    },
    {
      "type": "error",
      "name": "FailedCallback",
      "inputs": []
    },
    {
      "type": "error",
      "name": "InsufficientFunding",
      "inputs": []
    },
    {
      "type": "error",
      "name": "InvalidCallback",
      "inputs": []
    },
    {
      "type": "error",
      "name": "InvalidCallbackResponse",
      "inputs": []
    },
    {
      "type": "error",
      "name": "InvalidFee",
      "inputs": []
    },
    {
      "type": "error",
      "name": "InvalidLotId",
      "inputs": [
        {
          "name": "id_",
          "type": "uint96",
          "internalType": "uint96"
        }
      ]
    },
    {
      "type": "error",
      "name": "InvalidModuleInstall",
      "inputs": [
        {
          "name": "keycode_",
          "type": "bytes5",
          "internalType": "Keycode"
        },
        {
          "name": "version_",
          "type": "uint8",
          "internalType": "uint8"
        }
      ]
    },
    {
      "type": "error",
      "name": "InvalidParams",
      "inputs": []
    },
    {
      "type": "error",
      "name": "InvalidParams",
      "inputs": []
    },
    {
      "type": "error",
      "name": "InvalidState",
      "inputs": []
    },
    {
      "type": "error",
      "name": "InvalidVeecode",
      "inputs": [
        {
          "name": "veecode_",
          "type": "bytes7",
          "internalType": "Veecode"
        }
      ]
    },
    {
      "type": "error",
      "name": "ModuleAlreadySunset",
      "inputs": [
        {
          "name": "keycode_",
          "type": "bytes5",
          "internalType": "Keycode"
        }
      ]
    },
    {
      "type": "error",
      "name": "ModuleExecutionReverted",
      "inputs": [
        {
          "name": "error_",
          "type": "bytes",
          "internalType": "bytes"
        }
      ]
    },
    {
      "type": "error",
      "name": "ModuleIsSunset",
      "inputs": [
        {
          "name": "keycode_",
          "type": "bytes5",
          "internalType": "Keycode"
        }
      ]
    },
    {
      "type": "error",
      "name": "ModuleNotInstalled",
      "inputs": [
        {
          "name": "keycode_",
          "type": "bytes5",
          "internalType": "Keycode"
        },
        {
          "name": "version_",
          "type": "uint8",
          "internalType": "uint8"
        }
      ]
    },
    {
      "type": "error",
      "name": "NotPermitted",
      "inputs": [
        {
          "name": "caller_",
          "type": "address",
          "internalType": "address"
        }
      ]
    },
    {
      "type": "error",
      "name": "TargetNotAContract",
      "inputs": [
        {
          "name": "target_",
          "type": "address",
          "internalType": "address"
        }
      ]
    },
    {
      "type": "error",
      "name": "UnsupportedToken",
      "inputs": [
        {
          "name": "token_",
          "type": "address",
          "internalType": "address"
        }
      ]
    }
  ],
  "bytecode": {
    "object": "0x60a060405260016006553480156200001657600080fd5b5060405162004d8738038062004d878339810160408190526200003991620000d8565b600080546001600160a01b0319166001600160a01b03851690811782556040518592859285928492869283929091907f8be0079c531659141344cd1fd0a4f28419497f9722a3daafe3b4186f6b6457e0908290a35050600780546001600160a01b0319166001600160a01b039283161790551660805250620001229350505050565b80516001600160a01b0381168114620000d357600080fd5b919050565b600080600060608486031215620000ee57600080fd5b620000f984620000bb565b92506200010960208501620000bb565b91506200011960408501620000bb565b90509250925092565b608051614c496200013e60003960006130e40152614c496000f3fe608060405234801561001057600080fd5b50600436106101f05760003560e01c80639e2e003a1161010f578063d16352af116100a2578063ef5cfb8c11610071578063ef5cfb8c14610675578063f2fde38b14610688578063f315aafe1461069b578063f4b26181146106a457600080fd5b8063d16352af1461053b578063e70b9e271461054c578063e814b76a14610577578063ea072e70146105db57600080fd5b8063c5920423116100de578063c5920423146104e2578063c74c149b14610502578063c75519ba14610515578063cf042fb01461052857600080fd5b80639e2e003a1461046b5780639e55cba314610493578063a50076f7146104bc578063c4ce88fd146104cf57600080fd5b80635a3eb39911610187578063779bcb9b11610156578063779bcb9b146103ee5780637eb1e7611461040157806381b2248a146104145780638da5cb5b1461044057600080fd5b80635a3eb3991461034e5780635bb27aab146103795780635c774ed7146103be5780637249c0d5146103db57600080fd5b806331d72d6b116101c357806331d72d6b146102bc5780633baf6ce4146102fa578063505f901a1461031b57806350ab04891461032e57600080fd5b80630a9d793d146101f55780630ab9a1ee1461020a5780630bad843b1461028157806320b15fe4146102a9575b600080fd5b610208610203366004613a68565b6106df565b005b610253610218366004613a9d565b6001600160d81b03191660009081526008602052604090205465ffffffffffff80821692600160301b8304821692600160601b900490911690565b6040805165ffffffffffff948516815292841660208401529216918101919091526060015b60405180910390f35b61029461028f366004613ada565b610734565b60408051928352602083019190915201610278565b6102086102b7366004613b41565b6107a0565b6102536102ca366004613a9d565b60086020526000908152604090205465ffffffffffff80821691600160301b8104821691600160601b9091041683565b61030d610308366004613d8b565b6109cb565b604051908152602001610278565b610208610329366004613df3565b610a0c565b61034161033c366004613e38565b610c54565b6040516102789190613ea8565b61036161035c366004613ebb565b610d2f565b6040516001600160601b039091168152602001610278565b6103a5610387366004613a9d565b60046020526000908152604090205460ff8082169161010090041682565b6040805160ff9093168352901515602083015201610278565b6005546103cb9060ff1681565b6040519015158152602001610278565b6102086103e9366004613f56565b611724565b61030d6103fc366004613f8d565b6117b7565b61020861040f366004613a68565b6117e4565b610427610422366004613fbb565b611a61565b6040516001600160d81b03199091168152602001610278565b600054610453906001600160a01b031681565b6040516001600160a01b039091168152602001610278565b61047e610479366004613fd4565b611a98565b60405161027899989796959493929190613fef565b6104536104a1366004614065565b6003602052600090815260409020546001600160a01b031681565b6104536104ca366004613fd4565b611b8a565b600a54610361906001600160601b031681565b6104f56104f03660046140c6565b611b9e565b60405161027891906141a3565b6102086105103660046141e7565b611cbc565b610208610523366004613a9d565b611e12565b610208610536366004613df3565b611f0e565b6007546001600160a01b0316610453565b61030d61055a366004613f8d565b600960209081526000928352604080842090915290825290205481565b6105c4610585366004614229565b6001600160d81b0319821660009081526008602090815260408083206001600160a01b038516845260010190915290205465ffffffffffff1692915050565b60405165ffffffffffff9091168152602001610278565b6106366105e9366004613fd4565b600c60205260009081526040902080546001909101546001600160a01b0382169160ff600160a01b8204169165ffffffffffff600160a81b90920482169181811691600160301b90041685565b604080516001600160a01b039096168652931515602086015265ffffffffffff928316938501939093528116606084015216608082015260a001610278565b610208610683366004613a68565b612079565b610208610696366004613a68565b6120e4565b61030d60025481565b6106d26106b2366004614245565b600d60209081526000928352604080842090915290825290205460c81b81565b6040516102789190614273565b6000546001600160a01b031633146107125760405162461bcd60e51b815260040161070990614288565b60405180910390fd5b600780546001600160a01b0319166001600160a01b0392909216919091179055565b6000808315610786576107538365ffffffffffff8716620186a0612159565b91508161077584610764888a6142c4565b65ffffffffffff16620186a0612159565b61077f91906142ea565b9050610797565b6107948361076487896142c4565b90505b94509492505050565b6000546001600160a01b031633146107ca5760405162461bcd60e51b815260040161070990614288565b60006107d584612177565b6001600160a01b031663bb24fe8a6040518163ffffffff1660e01b8152600401602060405180830381865afa158015610812573d6000803e3d6000fd5b505050506040513d601f19601f820116820180604052508101906108369190614313565b6003811115610847576108476142fd565b1415806108cf5750600161085a83612177565b6001600160a01b031663bb24fe8a6040518163ffffffff1660e01b8152600401602060405180830381865afa158015610897573d6000803e3d6000fd5b505050506040513d601f19601f820116820180604052508101906108bb9190614313565b60038111156108cc576108cc6142fd565b14155b8061096957506001600160c81b0319811615801590610969575060026108f482612177565b6001600160a01b031663bb24fe8a6040518163ffffffff1660e01b8152600401602060405180830381865afa158015610931573d6000803e3d6000fd5b505050506040513d601f19601f820116820180604052508101906109559190614313565b6003811115610966576109666142fd565b14155b1561098757604051635435b28960e11b815260040160405180910390fd5b6001600160c81b03199283166000908152600d6020908152604080832094909516825292909252919020805466ffffffffffffff191660c89290921c919091179055565b60006006546001146109ef5760405162461bcd60e51b815260040161070990614334565b60026006556109ff8484846121cc565b6001600655949350505050565b600654600114610a2e5760405162461bcd60e51b815260040161070990614334565b6002600655610a3c8361281f565b6001600160601b0383166000908152600c6020526040902080546001600160a01b03163314610a80576040516319b1d90760e31b8152336004820152602401610709565b6000610a8b8561285c565b8254909150600160a01b900460ff1680610b175750604051630385592160e01b81526001600160601b03861660048201526001600160a01b03821690630385592190602401602060405180830381865afa158015610aed573d6000803e3d6000fd5b505050506040513d601f19601f82011682018060405250810190610b119190614358565b15156001145b15610b355760405163baf3f0f760e01b815260040160405180910390fd5b6001600160601b0385166000818152600b6020526040808220855460ff60a01b1916600160a01b908117808855925163ace54da560e01b815260048101959095529093610bee9291820460ff169165ffffffffffff600160a81b90910416906001600160a01b0387169063ace54da590602401602060405180830381865afa158015610bc5573d6000803e3d6000fd5b505050506040513d601f19601f82011682018060405250810190610be99190614375565b61288b565b905060006004830154610c0f906001600160a01b0316898460008b8b6128bc565b60405133906001600160601b038a16907f0cbe7341c5c56a21e107668323c3c414bcd506f3615ea1115f86dd4df173691490600090a350506001600655505050505050565b6000546060906001600160a01b03163314610c815760405162461bcd60e51b815260040161070990614288565b6005805460ff19166001179055600080610c9a86612177565b6001600160a01b03168585604051610cb392919061438e565b6000604051808303816000865af19150503d8060008114610cf0576040519150601f19603f3d011682016040523d82523d6000602084013e610cf5565b606091505b509150915081610d1a5780604051635d94b9cd60e01b81526004016107099190613ea8565b6005805460ff191690559150505b9392505050565b6000600654600114610d535760405162461bcd60e51b815260040161070990614334565b60026006556000610d6a6040870160208801613a68565b6001600160a01b03161480610d9757506000610d8c6060870160408801613a68565b6001600160a01b0316145b15610db557604051635435b28960e11b815260040160405180910390fd5b600a80546001600160601b0316906000610dce8361439e565b82546101009290920a6001600160601b0381810219909316918316021790915581166000908152600b60209081526040918290208054336001600160a01b0319909116178155929350610e25918801908801613a68565b6001820180546001600160a01b0319166001600160a01b0392909216919091179055610e576060870160408801613a68565b6002820180546001600160a01b0319166001600160a01b03929092169190911790556000610e90610e8b6020890189613a9d565b612936565b905060008260010160009054906101000a90046001600160a01b03166001600160a01b031663313ce5676040518163ffffffff1660e01b8152600401602060405180830381865afa158015610ee9573d6000803e3d6000fd5b505050506040513d601f19601f82011682018060405250810190610f0d91906143c4565b905060008360020160009054906101000a90046001600160a01b03166001600160a01b031663313ce5676040518163ffffffff1660e01b8152600401602060405180830381865afa158015610f66573d6000803e3d6000fd5b505050506040513d601f19601f82011682018060405250810190610f8a91906143c4565b90506000836001600160a01b031663bb24fe8a6040518163ffffffff1660e01b8152600401602060405180830381865afa158015610fcc573d6000803e3d6000fd5b505050506040513d601f19601f82011682018060405250810190610ff09190614313565b6003811115611001576110016142fd565b141580611011575060068260ff16105b8061101f575060128260ff16115b8061102d575060068160ff16105b8061103b575060128160ff16115b1561105957604051635435b28960e11b815260040160405180910390fd5b60405163bae96bdd60e01b81526001600160a01b0384169063bae96bdd9061108b9088908c9086908890600401614410565b600060405180830381600087803b1580156110a557600080fd5b505af11580156110b9573d6000803e3d6000fd5b50505050826001600160a01b031663d61735ca6040518163ffffffff1660e01b8152600401602060405180830381865afa1580156110fb573d6000803e3d6000fd5b505050506040513d601f19601f8201168201806040525081019061111f91906144f2565b60028501805460c89290921c600160a01b0266ffffffffffffff60a01b199092169190911790555050506001600160601b0382166000908152600c602052604090206111716080880160608901613a68565b81546001600160a81b0319166001600160a01b0391909116178155600060088161119e60208b018b613a9d565b6001600160d81b0319168152602081019190915260400160009081208054909250600160601b900465ffffffffffff169060018301816111e460808d0160608e01613a68565b6001600160a01b0316815260208101919091526040016000205465ffffffffffff908116915082168111611218578061121a565b815b845465ffffffffffff60a81b1916600160a81b65ffffffffffff9283160217855583546001909501805495821665ffffffffffff1987168117825594546bffffffffffffffffffffffff19909616909417600160301b9586900490911690940293909317909155506000905061129c61129960e0890160c08a01613a9d565b90565b6001600160d81b031916146114bc5760006112c0610e8b60e0890160c08a01613a9d565b90506001816001600160a01b031663bb24fe8a6040518163ffffffff1660e01b8152600401602060405180830381865afa158015611302573d6000803e3d6000fd5b505050506040513d601f19601f820116820180604052508101906113269190614313565b6003811115611337576113376142fd565b1415806113c5575060018201546001600160a01b038083169163caf92785911661136460e08b018b61450f565b6040518463ffffffff1660e01b815260040161138293929190614555565b602060405180830381865afa15801561139f573d6000803e3d6000fd5b505050506040513d601f19601f820116820180604052508101906113c39190614358565b155b156113e357604051635435b28960e11b815260040160405180910390fd5b806001600160a01b031663d61735ca6040518163ffffffff1660e01b8152600401602060405180830381865afa158015611421573d6000803e3d6000fd5b505050506040513d601f19601f8201168201806040525081019061144591906144f2565b60048301805460c89290921c600160a01b0266ffffffffffffff60a01b1990921691909117905561147960e088018861450f565b60058401916114899190836145fa565b5061149c610120880161010089016146b9565b600483018054911515600160d81b0260ff60d81b19909216919091179055505b60028101546001600160c81b0319600160a01b9182900460c890811b82166000908152600d60209081526040808320600488015496909604841b85168352949052929092205490911b9081161561160857600261151882612177565b6001600160a01b031663bb24fe8a6040518163ffffffff1660e01b8152600401602060405180830381865afa158015611555573d6000803e3d6000fd5b505050506040513d601f19601f820116820180604052508101906115799190614313565b600381111561158a5761158a6142fd565b146115a857604051635435b28960e11b815260040160405180910390fd5b60006115b3826129ff565b6001600160d81b03198116600090815260046020526040902054909150610100900460ff1615156001036116065760405163ae05d58960e01b81526001600160d81b031982166004820152602401610709565b505b5061162161161c60a0880160808901613a68565b612a13565b61163e57604051635435b28960e11b815260040160405180910390fd5b600061165060a0880160808901613a68565b6001600160a01b0316146116915761166e60a0870160808801613a68565b6004820180546001600160a01b0319166001600160a01b03929092169190911790555b600061169e838888612a80565b9050806116b6576116b6878488606001356000612b33565b8160020160149054906101000a900460c81b6001600160c81b031916836001600160601b03167f7cbd7aa1f47e4f995e92547da29ca023e5fad4db6922fcaa352efa004066491f878760405161170d9291906146d6565b60405180910390a350506001600655949350505050565b6001600160d81b0319821660009081526008602052604090205465ffffffffffff600160601b90910481169082161115611771576040516358d620b360e01b815260040160405180910390fd5b6001600160d81b03199190911660009081526008602090815260408083203384526001019091529020805465ffffffffffff191665ffffffffffff909216919091179055565b6001600160a01b038083166000908152600960209081526040808320938516835292905220545b92915050565b6000546001600160a01b0316331461180e5760405162461bcd60e51b815260040161070990614288565b61181781612b82565b6000816001600160a01b031663d61735ca6040518163ffffffff1660e01b8152600401602060405180830381865afa158015611857573d6000803e3d6000fd5b505050506040513d601f19601f8201168201806040525081019061187b91906144f2565b905061188681612bb8565b60008061189283612d1e565b6001600160d81b0319821660009081526004602052604090208054929450909250906118c29060ff1660016146ea565b60ff168260ff16146118eb578282604051635820a91160e01b8152600401610709929190614703565b805460ff191660ff838116919091178083556101009004161561191257805461ff00191681555b6001600160c81b03198416600090815260036020526040902080546001600160a01b0319166001600160a01b03871617905560ff8216600019016119c25760018054808201825560009182527fb10e2d527612073b26eecdfd717e6a320cf44b4afac2b0732d9fcbe2b7fa0cf6600680830491909101805464ffffffffff929093066005026101000a9182021990921660d887901c9190910217905560028054916119bc83614720565b91905055505b846001600160a01b031663ea6439146040518163ffffffff1660e01b8152600401600060405180830381600087803b1580156119fd57600080fd5b505af1158015611a11573d6000803e3d6000fd5b50506040516001600160a01b038816925060ff851691506001600160d81b03198616907f9d59a7f92873a37532afecac87d9ae2e0571c04f7cfe13ace6f38209dd1acd1c90600090a45050505050565b60018181548110611a7157600080fd5b9060005260206000209060069182820401919006600502915054906101000a900460d81b81565b600b602052600090815260409020805460018201546002830154600384015460048501546005860180546001600160a01b03968716979587169680861696600160a01b9687900460c890811b9792861695928304901b93600160d81b90920460ff1692909190611b079061457a565b80601f0160208091040260200160405190810160405280929190818152602001828054611b339061457a565b8015611b805780601f10611b5557610100808354040283529160200191611b80565b820191906000526020600020905b815481529060010190602001808311611b6357829003601f168201915b5050505050905089565b6000611b958261281f565b6117de8261285c565b6060600654600114611bc25760405162461bcd60e51b815260040161070990614334565b600260065583518214611be857604051635435b28960e11b815260040160405180910390fd5b8351806001600160401b03811115611c0257611c02613b8c565b604051908082528060200260200182016040528015611c2b578160200160208202803683370190505b50915060005b81811015611cae57611c7f868281518110611c4e57611c4e614739565b6020026020010151868684818110611c6857611c68614739565b9050602002810190611c7a919061450f565b6121cc565b838281518110611c9157611c91614739565b602090810291909101015280611ca681614720565b915050611c31565b505060016006559392505050565b6000546001600160a01b03163314611ce65760405162461bcd60e51b815260040161070990614288565b620186a065ffffffffffff82161115611d12576040516358d620b360e01b815260040160405180910390fd5b6000826002811115611d2657611d266142fd565b03611d60576001600160d81b031983166000908152600860205260409020805465ffffffffffff191665ffffffffffff8316179055505050565b6001826002811115611d7457611d746142fd565b03611dba576001600160d81b03198316600090815260086020526040902080546bffffffffffff0000000000001916600160301b65ffffffffffff841602179055505050565b6002826002811115611dce57611dce6142fd565b03611e0d576001600160d81b031983166000908152600860205260409020805465ffffffffffff60601b1916600160601b65ffffffffffff8416021790555b505050565b6000546001600160a01b03163314611e3c5760405162461bcd60e51b815260040161070990614288565b6001600160d81b0319811660009081526004602052604090205460ff16611e7b5780600060405163def1560160e01b8152600401610709929190614703565b6001600160d81b0319811660009081526004602052604090208054610100900460ff1615611ec85760405163271614df60e21b81526001600160d81b031983166004820152602401610709565b805461ff0019166101001781556040516001600160d81b03198316907fa967d5160f4efeca6ce587658357cfe54cbe547c6945ddf21a06ac712216942a90600090a25050565b600654600114611f305760405162461bcd60e51b815260040161070990614334565b6002600655611f3e8361281f565b6001600160601b0383166000908152600b6020526040902080546001600160a01b03163314611f82576040516319b1d90760e31b8152336004820152602401610709565b611f8b8461285c565b60405163b04046df60e01b81526001600160601b03861660048201526001600160a01b03919091169063b04046df90602401600060405180830381600087803b158015611fd757600080fd5b505af1158015611feb573d6000803e3d6000fd5b5060009250829150611ffa9050565b90508061201e57600482015461201e906001600160a01b0316866000808888612e01565b6002820154604051600160a01b90910460c81b6001600160c81b031916906001600160601b038716907f2c784826e62ed5cac07a5ebe66734ece0cdc7ee0559b21b59d1434a64e07ec8290600090a350506001600655505050565b60065460011461209b5760405162461bcd60e51b815260040161070990614334565b60026006553360008181526009602090815260408083206001600160a01b03861684529091528120805490829055839290916120da9184918490612e31565b5050600160065550565b6000546001600160a01b0316331461210e5760405162461bcd60e51b815260040161070990614288565b600080546001600160a01b0319166001600160a01b0383169081178255604051909133917f8be0079c531659141344cd1fd0a4f28419497f9722a3daafe3b4186f6b6457e09190a350565b600082600019048411830215820261217057600080fd5b5091020490565b6001600160c81b031981166000908152600360205260408120546001600160a01b0316806117de576000806121ab85612d1e565b91509150818160405163def1560160e01b8152600401610709929190614703565b60006121db846040015161281f565b83516000906001600160a01b0316156121f55784516121f7565b335b6040808701516001600160601b03166000908152600b602052908120600281015492935091819061223190600160a01b900460c81b6129ff565b6001600160d81b031981166000908152600860209081526040822054908b01518654600288015460608e0151959650939461228f9465ffffffffffff80861695600160301b90041693926001600160a01b0390811692911690612f77565b9050808960600151039250505060606122ab886040015161285c565b6001600160a01b03166376103c8f8960400151848b60a001516040518463ffffffff1660e01b81526004016122e29392919061474f565b6000604051808303816000875af1158015612301573d6000803e3d6000fd5b505050506040513d6000823e601f3d908101601f1916820160405261232991908101906147bc565b60808a015191965091508510156123535760405163758342a760e01b815260040160405180910390fd5b6060880151600284015460c08a015161237f92916001600160a01b03169061237a90613055565b6130de565b8254600284015460048501546123a7926001600160a01b03908116928692908216911661310e565b604088810180516001600160601b039081166000908152600c6020528381205492519091168152918220546123f691600160a01b900460ff1690600160a81b900465ffffffffffff168861288b565b6004850154909150600160981b16156125525760018401546040516370a0823160e01b81523060048201526000916001600160a01b0316906370a0823190602401602060405180830381865afa158015612454573d6000803e3d6000fd5b505050506040513d601f19601f820116820180604052508101906124789190614375565b600486015460408c01519192506124aa916001600160a01b039091169088876124a1878d614802565b60008f8f613132565b816124b58883614802565b6124bf9190614802565b60018601546040516370a0823160e01b81523060048201526001600160a01b03909116906370a0823190602401602060405180830381865afa158015612509573d6000803e3d6000fd5b505050506040513d601f19601f8201168201806040525081019061252d9190614375565b101561254c5760405163f7a632f560e01b815260040160405180910390fd5b506125a9565b6001840154845461257c916001600160a01b03908116911630612575858b614802565b60016131b2565b600484015460408a01516125a9916001600160a01b03169087866125a0868c614802565b60018e8e613132565b604080516101208101825285546001600160a01b039081168252600187015481166020830152600287015480821693830193909352600160a01b9283900460c890811b6001600160c81b0319908116606085015260038901546080850152600489015492831660a0850152938204901b90921660c0820152600160d81b90910460ff16151560e08201526005850180546126da9288928a9289916101008401916126529061457a565b80601f016020809104026020016040519081016040528092919081815260200182805461267e9061457a565b80156126cb5780601f106126a0576101008083540402835291602001916126cb565b820191906000526020600020905b8154815290600101906020018083116126ae57829003601f168201915b505050505081525050856132f2565b80156127ae576040898101516001600160601b03166000908152600c6020908152908290205482516101208101845287546001600160a01b0390811682526001890154811693820193909352600288015480841694820194909452600160a01b9384900460c890811b6001600160c81b0319908116606084015260038a0154608084015260048a015480861660a085015295860490911b1660c0820152600160d81b90930460ff16151560e08401526005870180546127ae949390921692859290918991610100840191906126529061457a565b6040808a01516020808c01516060808e015185516001600160a01b039384168152938401529382018a90528816926001600160601b03909216917f5c53cd94df0c7e2bcd10a80f475d04aef0e489425aff9687e49f92454b404014910160405180910390a350505050509392505050565b600a546001600160601b039081169082161061285957604051630d55bc2360e41b81526001600160601b0382166004820152602401610709565b50565b6001600160601b0381166000908152600b60205260408120600201546117de90600160a01b900460c81b612177565b6000831515810361289e57506000610d28565b6128b48265ffffffffffff8516620186a0612159565b949350505050565b6001609d1b86161561292e5761292e6309b9601c60e01b86868686866040516024016128ec959493929190614815565b60408051601f198184030181529190526020810180516001600160e01b03166001600160e01b0319909316929092179091526001600160a01b03881690613484565b505050505050565b6001600160d81b03198116600090815260046020908152604080832081518083019092525460ff80821680845261010090920416151592820192909252906129965782600060405163def1560160e01b8152600401610709929190614703565b8060200151156129c55760405163ae05d58960e01b81526001600160d81b031984166004820152602401610709565b60006129d5848360000151613542565b6001600160c81b0319166000908152600360205260409020546001600160a01b0316949350505050565b600080612a0b83612d1e565b509392505050565b6000600160981b821615158015612a3c57506001609f1b82161580612a3c57506001609d1b8216155b8015612a4c57506001609c1b8216155b15612a5957506000919050565b6001600160a01b03821615806117de575050600160991b6001600160a01b03909116101590565b600080612a93610e8b6020860186613a9d565b90506000816001600160a01b031663994595e16040518163ffffffff1660e01b8152600401602060405180830381865afa158015612ad5573d6000803e3d6000fd5b505050506040513d601f19601f82011682018060405250810190612af99190614851565b6001811115612b0a57612b0a6142fd565b14612b2857604051635435b28960e11b815260040160405180910390fd5b506000949350505050565b612b7c612b4660a0860160808701613a68565b8433612b586040890160208a01613a68565b612b6860608a0160408b01613a68565b8787612b7760a08d018d61450f565b6135d1565b50505050565b806001600160a01b03163b60000361285957604051631bd1ba9d60e21b81526001600160a01b0382166004820152602401610709565b8060005b6007811015612cea576000828260078110612bd957612bd9614739565b1a60f81b90506002821015612c3557600360fc1b6001600160f81b031982161080612c115750603960f81b6001600160f81b03198216115b15612c305783604051628b684360e31b81526004016107099190614273565b612ce1565b6005821015612c8557604160f81b6001600160f81b031982161080612c115750602d60f91b6001600160f81b031982161115612c305783604051628b684360e31b81526004016107099190614273565b6001600160f81b0319811615801590612cc25750604160f81b6001600160f81b031982161080612cc25750602d60f91b6001600160f81b03198216115b15612ce15783604051628b684360e31b81526004016107099190614273565b50600101612bbc565b506000612cf683612d1e565b9150508060ff16600003611e0d5782604051628b684360e31b81526004016107099190614273565b60008082600360fc1b6001600160f81b031982841a60f81b161080612d565750603960f81b8160001a60f81b6001600160f81b031916115b80612d745750600360fc1b8160011a60f81b6001600160f81b031916105b80612d925750603960f81b8160011a60f81b6001600160f81b031916115b15612db15783604051628b684360e31b81526004016107099190614273565b6000612dc0603083831a614872565b612dcb90600a61488b565b9050612ddc6030600184901a614872565b612de690826146ea565b60109290921b6001600160d81b031916959194509092505050565b6001609e1b86161561292e5761292e63a5658c8660e01b86868686866040516024016128ec959493929190614815565b6000811515600103612eaa576040516370a0823160e01b81526001600160a01b0385811660048301528616906370a0823190602401602060405180830381865afa158015612e83573d6000803e3d6000fd5b505050506040513d601f19601f82011682018060405250810190612ea79190614375565b90505b8215612ec457612ec46001600160a01b0386168585613654565b6001821515148015612f475750612edb8382614802565b6040516370a0823160e01b81526001600160a01b0386811660048301528716906370a0823190602401602060405180830381865afa158015612f21573d6000803e3d6000fd5b505050506040513d601f19601f82011682018060405250810190612f459190614375565b105b15612f7057604051635f8b555b60e11b81526001600160a01b0386166004820152602401610709565b5050505050565b60008080612fb089896001600160a01b038a1615801590612faa5750886001600160a01b03168a6001600160a01b031614155b87610734565b90925090508115612ff8576001600160a01b03808816600090815260096020908152604080832093891683529290529081208054849290612ff2908490614802565b90915550505b801561303e576007546001600160a01b03908116600090815260096020908152604080832093891683529290529081208054839290613038908490614802565b90915550505b6130488183614802565b9998505050505050505050565b6040805160608082018352600080835260208301529181019190915281516000036130a75750506040805160608101825260008082526020808301829052835190810184529081529181019190915290565b6101008251146130ca57604051635435b28960e11b815260040160405180910390fd5b818060200190518101906117de91906148a7565b611e0d827f00000000000000000000000000000000000000000000000000000000000000003330878660016136d5565b6000600160991b82166131215784613123565b815b9050612f708382866000612e31565b6001609c1b8816156131a8576131a863fc43998260e01b888888888888886040516024016131669796959493929190614946565b60408051601f198184030181529190526020810180516001600160e01b03166001600160e01b0319909316929092179091526001600160a01b038a1690613484565b5050505050505050565b600081151560010361322b576040516370a0823160e01b81526001600160a01b0385811660048301528716906370a0823190602401602060405180830381865afa158015613204573d6000803e3d6000fd5b505050506040513d601f19601f820116820180604052508101906132289190614375565b90505b8215613246576132466001600160a01b038716868686613721565b60018215151480156132c9575061325d8382614802565b6040516370a0823160e01b81526001600160a01b0386811660048301528816906370a0823190602401602060405180830381865afa1580156132a3573d6000803e3d6000fd5b505050506040513d601f19601f820116820180604052508101906132c79190614375565b105b1561292e57604051635f8b555b60e11b81526001600160a01b0387166004820152602401610709565b60c082015160208301516001600160c81b0319821661331d576133188187876001612e31565b61292e565b600061332883612177565b61010086015160608701516001600160c81b03199081166000908152600d602090815260408083208985168452909152902054929350909160c81b908116156133f057600061337682612177565b6040516333f1a81560e11b81529091506001600160a01b038216906367e3502a906133a7908a90879060040161498b565b600060405180830381865afa1580156133c4573d6000803e3d6000fd5b505050506040513d6000823e601f3d908101601f191682016040526133ec91908101906149b0565b9250505b6133fb84848a6137b6565b60e0870151604051631c81b11f60e31b81526001600160a01b0385169163e40d88f891613433918d91899188918f91906004016149e4565b6060604051808303816000875af1158015613452573d6000803e3d6000fd5b505050506040513d601f19601f820116820180604052508101906134769190614a29565b505050505050505050505050565b600060208201519050600080846001600160a01b0316846040516134a89190614a62565b6000604051808303816000865af19150503d80600081146134e5576040519150601f19603f3d011682016040523d82523d6000602084013e6134ea565b606091505b5091509150816134fd576134fd816137ca565b6000818060200190518101906135139190614a7e565b90506001600160e01b03198082169085161461292e5760405163d1c96d5f60e01b815260040160405180910390fd5b600080613550600a84614abe565b61355b9060306146ea565b60f81b9050600061356d600a85614ae0565b6135789060306146ea565b6040516001600160f81b0319808516602083015260f89290921b91821660218201526001600160d81b0319871660228201529091506027016040516020818303038152906040526135c890614b02565b95945050505050565b6001609f1b891615613649576136496366e7416760e01b8989898989898989604051602401613607989796959493929190614b39565b60408051601f198184030181529190526020810180516001600160e01b03166001600160e01b0319909316929092179091526001600160a01b038b1690613484565b505050505050505050565b600060405163a9059cbb60e01b81526001600160a01b0384166004820152826024820152602060006044836000895af13d15601f3d1160016000511416171691505080612b7c5760405162461bcd60e51b815260206004820152600f60248201526e1514905394d1915497d19052531151608a1b6044820152606401610709565b6001600160a01b038616158015906136f257506000826040015151115b1561370b57613706878787878787876137f2565b613718565b61371887868686856131b2565b50505050505050565b60006040516323b872dd60e01b81526001600160a01b03851660048201526001600160a01b03841660248201528260448201526020600060648360008a5af13d15601f3d1160016000511416171691505080612f705760405162461bcd60e51b81526020600482015260146024820152731514905394d1915497d19493d357d1905253115160621b6044820152606401610709565b611e0d6001600160a01b03841683836139c3565b8051156137d957805181602001fd5b60405163472850e360e11b815260040160405180910390fd5b600081151560010361386b576040516370a0823160e01b81526001600160a01b0386811660048301528916906370a0823190602401602060405180830381865afa158015613844573d6000803e3d6000fd5b505050506040513d601f19601f820116820180604052508101906138689190614375565b90505b6040805160a0810182526001600160a01b038a81166060830190815260808301889052825260208681015181840152865165ffffffffffff168385015283518085018552898316815290810188905286840151935163187945bd60e11b8152918b16936330f28b7a936138e5939092918c91600401614b9a565b600060405180830381600087803b1580156138ff57600080fd5b505af1158015613913573d6000803e3d6000fd5b50505050811515600114801561399a575061392e8482614802565b6040516370a0823160e01b81526001600160a01b0387811660048301528a16906370a0823190602401602060405180830381865afa158015613974573d6000803e3d6000fd5b505050506040513d601f19601f820116820180604052508101906139989190614375565b105b156131a857604051635f8b555b60e11b81526001600160a01b0389166004820152602401610709565b600060405163095ea7b360e01b81526001600160a01b0384166004820152826024820152602060006044836000895af13d15601f3d1160016000511416171691505080612b7c5760405162461bcd60e51b815260206004820152600e60248201526d1054141493d59157d1905253115160921b6044820152606401610709565b6001600160a01b038116811461285957600080fd5b8035613a6381613a43565b919050565b600060208284031215613a7a57600080fd5b8135610d2881613a43565b80356001600160d81b031981168114613a6357600080fd5b600060208284031215613aaf57600080fd5b610d2882613a85565b65ffffffffffff8116811461285957600080fd5b801515811461285957600080fd5b60008060008060808587031215613af057600080fd5b8435613afb81613ab8565b93506020850135613b0b81613ab8565b92506040850135613b1b81613acc565b9396929550929360600135925050565b6001600160c81b03198116811461285957600080fd5b600080600060608486031215613b5657600080fd5b8335613b6181613b2b565b92506020840135613b7181613b2b565b91506040840135613b8181613b2b565b809150509250925092565b634e487b7160e01b600052604160045260246000fd5b60405160e081016001600160401b0381118282101715613bc457613bc4613b8c565b60405290565b604051601f8201601f191681016001600160401b0381118282101715613bf257613bf2613b8c565b604052919050565b80356001600160601b0381168114613a6357600080fd5b60006001600160401b03821115613c2a57613c2a613b8c565b50601f01601f191660200190565b600082601f830112613c4957600080fd5b8135613c5c613c5782613c11565b613bca565b818152846020838601011115613c7157600080fd5b816020850160208301376000918101602001919091529392505050565b600060e08284031215613ca057600080fd5b613ca8613ba2565b9050613cb382613a58565b8152613cc160208301613a58565b6020820152613cd260408301613bfa565b6040820152606082013560608201526080820135608082015260a08201356001600160401b0380821115613d0557600080fd5b613d1185838601613c38565b60a084015260c0840135915080821115613d2a57600080fd5b50613d3784828501613c38565b60c08301525092915050565b60008083601f840112613d5557600080fd5b5081356001600160401b03811115613d6c57600080fd5b602083019150836020828501011115613d8457600080fd5b9250929050565b600080600060408486031215613da057600080fd5b83356001600160401b0380821115613db757600080fd5b613dc387838801613c8e565b94506020860135915080821115613dd957600080fd5b50613de686828701613d43565b9497909650939450505050565b600080600060408486031215613e0857600080fd5b613e1184613bfa565b925060208401356001600160401b03811115613e2c57600080fd5b613de686828701613d43565b600080600060408486031215613e4d57600080fd5b8335613e1181613b2b565b60005b83811015613e73578181015183820152602001613e5b565b50506000910152565b60008151808452613e94816020860160208601613e58565b601f01601f19169290920160200192915050565b602081526000610d286020830184613e7c565b60008060008060608587031215613ed157600080fd5b84356001600160401b0380821115613ee857600080fd5b908601906101208289031215613efd57600080fd5b90945060208601359080821115613f1357600080fd5b9086019060a08289031215613f2757600080fd5b90935060408601359080821115613f3d57600080fd5b50613f4a87828801613d43565b95989497509550505050565b60008060408385031215613f6957600080fd5b613f7283613a85565b91506020830135613f8281613ab8565b809150509250929050565b60008060408385031215613fa057600080fd5b8235613fab81613a43565b91506020830135613f8281613a43565b600060208284031215613fcd57600080fd5b5035919050565b600060208284031215613fe657600080fd5b610d2882613bfa565b6001600160a01b038a81168252898116602083015288811660408301526001600160c81b031988811660608401526080830188905290861660a0830152841660c082015282151560e0820152610120610100820181905260009061405583820185613e7c565b9c9b505050505050505050505050565b60006020828403121561407757600080fd5b8135610d2881613b2b565b60008083601f84011261409457600080fd5b5081356001600160401b038111156140ab57600080fd5b6020830191508360208260051b8501011115613d8457600080fd5b6000806000604084860312156140db57600080fd5b83356001600160401b03808211156140f257600080fd5b818601915086601f83011261410657600080fd5b813560208282111561411a5761411a613b8c565b8160051b614129828201613bca565b928352848101820192828101908b85111561414357600080fd5b83870192505b8483101561417f578235868111156141615760008081fd5b61416f8d86838b0101613c8e565b8352509183019190830190614149565b985050508701359250508082111561419657600080fd5b50613de686828701614082565b6020808252825182820181905260009190848201906040850190845b818110156141db578351835292840192918401916001016141bf565b50909695505050505050565b6000806000606084860312156141fc57600080fd5b61420584613a85565b925060208401356003811061421957600080fd5b91506040840135613b8181613ab8565b6000806040838503121561423c57600080fd5b613fab83613a85565b6000806040838503121561425857600080fd5b823561426381613b2b565b91506020830135613f8281613b2b565b6001600160c81b031991909116815260200190565b6020808252600c908201526b15539055551213d49256915160a21b604082015260600190565b634e487b7160e01b600052601160045260246000fd5b65ffffffffffff8181168382160190808211156142e3576142e36142ae565b5092915050565b818103818111156117de576117de6142ae565b634e487b7160e01b600052602160045260246000fd5b60006020828403121561432557600080fd5b815160048110610d2857600080fd5b6020808252600a90820152695245454e5452414e435960b01b604082015260600190565b60006020828403121561436a57600080fd5b8151610d2881613acc565b60006020828403121561438757600080fd5b5051919050565b8183823760009101908152919050565b60006001600160601b038083168181036143ba576143ba6142ae565b6001019392505050565b6000602082840312156143d657600080fd5b815160ff81168114610d2857600080fd5b81835281816020850137506000828201602090810191909152601f909101601f19169091010190565b6001600160601b0385168152608060208201526000843561443081613ab8565b65ffffffffffff908116608084015260208601359061444e82613ab8565b1660a0830152604085013561446281613acc565b151560c0830152606085013560e0830152608085013536869003601e1901811261448b57600080fd5b85016020810190356001600160401b038111156144a757600080fd5b8036038213156144b657600080fd5b60a06101008501526144cd610120850182846143e7565b925050506144e0604083018560ff169052565b60ff8316606083015295945050505050565b60006020828403121561450457600080fd5b8151610d2881613b2b565b6000808335601e1984360301811261452657600080fd5b8301803591506001600160401b0382111561454057600080fd5b602001915036819003821315613d8457600080fd5b6001600160a01b03841681526040602082018190526000906135c890830184866143e7565b600181811c9082168061458e57607f821691505b6020821081036145ae57634e487b7160e01b600052602260045260246000fd5b50919050565b601f821115611e0d57600081815260208120601f850160051c810160208610156145db5750805b601f850160051c820191505b8181101561292e578281556001016145e7565b6001600160401b0383111561461157614611613b8c565b6146258361461f835461457a565b836145b4565b6000601f84116001811461465957600085156146415750838201355b600019600387901b1c1916600186901b178355612f70565b600083815260209020601f19861690835b8281101561468a578685013582556020948501946001909201910161466a565b50868210156146a75760001960f88860031b161c19848701351681555b505060018560011b0183555050505050565b6000602082840312156146cb57600080fd5b8135610d2881613acc565b6020815260006128b46020830184866143e7565b60ff81811683821601908111156117de576117de6142ae565b6001600160d81b031992909216825260ff16602082015260400190565b600060018201614732576147326142ae565b5060010190565b634e487b7160e01b600052603260045260246000fd5b6001600160601b03841681528260208201526060604082015260006135c86060830184613e7c565b600082601f83011261478857600080fd5b8151614796613c5782613c11565b8181528460208386010111156147ab57600080fd5b6128b4826020830160208701613e58565b600080604083850312156147cf57600080fd5b8251915060208301516001600160401b038111156147ec57600080fd5b6147f885828601614777565b9150509250929050565b808201808211156117de576117de6142ae565b6001600160601b038616815284602082015283151560408201526080606082015260006148466080830184866143e7565b979650505050505050565b60006020828403121561486357600080fd5b815160028110610d2857600080fd5b60ff82811682821603908111156117de576117de6142ae565b60ff81811683821602908116908181146142e3576142e36142ae565b6000602082840312156148b957600080fd5b81516001600160401b03808211156148d057600080fd5b90830190606082860312156148e457600080fd5b6040516060810181811083821117156148ff576148ff613b8c565b604052825161490d81613ab8565b81526020838101519082015260408301518281111561492b57600080fd5b61493787828601614777565b60408301525095945050505050565b6001600160601b038816815260018060a01b0387166020820152856040820152846060820152831515608082015260c060a0820152600061304860c0830184866143e7565b60408152600061499e6040830185613e7c565b82810360208401526135c88185613e7c565b6000602082840312156149c257600080fd5b81516001600160401b038111156149d857600080fd5b6128b484828501614777565b6001600160a01b0386811682528516602082015260a060408201819052600090614a1090830186613e7c565b6060830194909452509015156080909101529392505050565b600080600060608486031215614a3e57600080fd5b835192506020840151614a5081613a43565b80925050604084015190509250925092565b60008251614a74818460208701613e58565b9190910192915050565b600060208284031215614a9057600080fd5b81516001600160e01b031981168114610d2857600080fd5b634e487b7160e01b600052601260045260246000fd5b600060ff831680614ad157614ad1614aa8565b8060ff84160491505092915050565b600060ff831680614af357614af3614aa8565b8060ff84160691505092915050565b805160208201516001600160c81b03198082169291906007831015614b315780818460070360031b1b83161693505b505050919050565b6001600160601b03891681526001600160a01b0388811660208301528781166040830152861660608201526080810185905283151560a082015260e060c08201819052600090614b8c90830184866143e7565b9a9950505050505050505050565b6000610100614bbd83885180516001600160a01b03168252602090810151910152565b6020870151604084015260408701516060840152614bf1608084018780516001600160a01b03168252602090810151910152565b6001600160a01b03851660c084015260e0830181905261484681840185613e7c56fea26469706673582212205621d6eaf5685ad669a31ad19c01625a55dd12a3ae02bc4e6ff577b4d2b94e9c64736f6c63430008130033",
    "linkReferences": {}
  },
  "methodIdentifiers": {
    "auction((bytes5,address,address,address,address,bytes,bytes5,bytes,bool),(uint48,uint48,bool,uint256,bytes),string)": "5a3eb399",
    "calculateQuoteFees(uint48,uint48,bool,uint256)": "0bad843b",
    "cancel(uint96,bytes)": "cf042fb0",
    "claimRewards(address)": "ef5cfb8c",
    "condensers(bytes7,bytes7)": "f4b26181",
    "curate(uint96,bytes)": "505f901a",
    "execOnModule(bytes7,bytes)": "50ab0489",
    "fees(bytes5)": "31d72d6b",
    "getCuratorFee(bytes5,address)": "e814b76a",
    "getFees(bytes5)": "0ab9a1ee",
    "getModuleForId(uint96)": "a50076f7",
    "getModuleForVeecode(bytes7)": "9e55cba3",
    "getModuleStatus(bytes5)": "5bb27aab",
    "getProtocol()": "d16352af",
    "getRewards(address,address)": "779bcb9b",
    "installModule(address)": "7eb1e761",
    "isExecOnModule()": "5c774ed7",
    "lotCounter()": "c4ce88fd",
    "lotFees(uint96)": "ea072e70",
    "lotRouting(uint96)": "9e2e003a",
    "modules(uint256)": "81b2248a",
    "modulesCount()": "f315aafe",
    "multiPurchase((address,address,uint96,uint256,uint256,bytes,bytes)[],bytes[])": "c5920423",
    "owner()": "8da5cb5b",
    "purchase((address,address,uint96,uint256,uint256,bytes,bytes),bytes)": "3baf6ce4",
    "rewards(address,address)": "e70b9e27",
    "setCondenser(bytes7,bytes7,bytes7)": "20b15fe4",
    "setCuratorFee(bytes5,uint48)": "7249c0d5",
    "setFee(bytes5,uint8,uint48)": "c74c149b",
    "setProtocol(address)": "0a9d793d",
    "sunsetModule(bytes5)": "c75519ba",
    "transferOwnership(address)": "f2fde38b"
  },
  "id": 108
}