{
  "abi": [
    {
      "type": "constructor",
      "inputs": [
        {
          "name": "owner_",
          "type": "address",
          "internalType": "address"
        },
        {
          "name": "protocol_",
          "type": "address",
          "internalType": "address"
        },
        {
          "name": "permit2_",
          "type": "address",
          "internalType": "address"
        }
      ],
      "stateMutability": "nonpayable"
    },
    {
      "type": "function",
      "name": "abort",
      "inputs": [
        {
          "name": "lotId_",
          "type": "uint96",
          "internalType": "uint96"
        }
      ],
      "outputs": [],
      "stateMutability": "nonpayable"
    },
    {
      "type": "function",
      "name": "auction",
      "inputs": [
        {
          "name": "routing_",
          "type": "tuple",
          "internalType": "struct IAuctionHouse.RoutingParams",
          "components": [
            {
              "name": "auctionType",
              "type": "bytes5",
              "internalType": "Keycode"
            },
            {
              "name": "baseToken",
              "type": "address",
              "internalType": "address"
            },
            {
              "name": "quoteToken",
              "type": "address",
              "internalType": "address"
            },
            {
              "name": "curator",
              "type": "address",
              "internalType": "address"
            },
            {
              "name": "callbacks",
              "type": "address",
              "internalType": "contract ICallback"
            },
            {
              "name": "callbackData",
              "type": "bytes",
              "internalType": "bytes"
            },
            {
              "name": "derivativeType",
              "type": "bytes5",
              "internalType": "Keycode"
            },
            {
              "name": "derivativeParams",
              "type": "bytes",
              "internalType": "bytes"
            },
            {
              "name": "wrapDerivative",
              "type": "bool",
              "internalType": "bool"
            }
          ]
        },
        {
          "name": "params_",
          "type": "tuple",
          "internalType": "struct IAuction.AuctionParams",
          "components": [
            {
              "name": "start",
              "type": "uint48",
              "internalType": "uint48"
            },
            {
              "name": "duration",
              "type": "uint48",
              "internalType": "uint48"
            },
            {
              "name": "capacityInQuote",
              "type": "bool",
              "internalType": "bool"
            },
            {
              "name": "capacity",
              "type": "uint256",
              "internalType": "uint256"
            },
            {
              "name": "implParams",
              "type": "bytes",
              "internalType": "bytes"
            }
          ]
        },
        {
          "name": "infoHash_",
          "type": "string",
          "internalType": "string"
        }
      ],
      "outputs": [
        {
          "name": "lotId",
          "type": "uint96",
          "internalType": "uint96"
        }
      ],
      "stateMutability": "nonpayable"
    },
    {
      "type": "function",
      "name": "bid",
      "inputs": [
        {
          "name": "params_",
          "type": "tuple",
          "internalType": "struct IBatchAuctionHouse.BidParams",
          "components": [
            {
              "name": "lotId",
              "type": "uint96",
              "internalType": "uint96"
            },
            {
              "name": "bidder",
              "type": "address",
              "internalType": "address"
            },
            {
              "name": "referrer",
              "type": "address",
              "internalType": "address"
            },
            {
              "name": "amount",
              "type": "uint256",
              "internalType": "uint256"
            },
            {
              "name": "auctionData",
              "type": "bytes",
              "internalType": "bytes"
            },
            {
              "name": "permit2Data",
              "type": "bytes",
              "internalType": "bytes"
            }
          ]
        },
        {
          "name": "callbackData_",
          "type": "bytes",
          "internalType": "bytes"
        }
      ],
      "outputs": [
        {
          "name": "bidId",
          "type": "uint64",
          "internalType": "uint64"
        }
      ],
      "stateMutability": "nonpayable"
    },
    {
      "type": "function",
      "name": "calculateQuoteFees",
      "inputs": [
        {
          "name": "protocolFee_",
          "type": "uint48",
          "internalType": "uint48"
        },
        {
          "name": "referrerFee_",
          "type": "uint48",
          "internalType": "uint48"
        },
        {
          "name": "hasReferrer_",
          "type": "bool",
          "internalType": "bool"
        },
        {
          "name": "amount_",
          "type": "uint256",
          "internalType": "uint256"
        }
      ],
      "outputs": [
        {
          "name": "toReferrer",
          "type": "uint256",
          "internalType": "uint256"
        },
        {
          "name": "toProtocol",
          "type": "uint256",
          "internalType": "uint256"
        }
      ],
      "stateMutability": "pure"
    },
    {
      "type": "function",
      "name": "cancel",
      "inputs": [
        {
          "name": "lotId_",
          "type": "uint96",
          "internalType": "uint96"
        },
        {
          "name": "callbackData_",
          "type": "bytes",
          "internalType": "bytes"
        }
      ],
      "outputs": [],
      "stateMutability": "nonpayable"
    },
    {
      "type": "function",
      "name": "claimBids",
      "inputs": [
        {
          "name": "lotId_",
          "type": "uint96",
          "internalType": "uint96"
        },
        {
          "name": "bidIds_",
          "type": "uint64[]",
          "internalType": "uint64[]"
        }
      ],
      "outputs": [],
      "stateMutability": "nonpayable"
    },
    {
      "type": "function",
      "name": "claimRewards",
      "inputs": [
        {
          "name": "token_",
          "type": "address",
          "internalType": "address"
        }
      ],
      "outputs": [],
      "stateMutability": "nonpayable"
    },
    {
      "type": "function",
      "name": "condensers",
      "inputs": [
        {
          "name": "auctionRef",
          "type": "bytes7",
          "internalType": "Veecode"
        },
        {
          "name": "derivativeRef",
          "type": "bytes7",
          "internalType": "Veecode"
        }
      ],
      "outputs": [
        {
          "name": "condenserRef",
          "type": "bytes7",
          "internalType": "Veecode"
        }
      ],
      "stateMutability": "view"
    },
    {
      "type": "function",
      "name": "curate",
      "inputs": [
        {
          "name": "lotId_",
          "type": "uint96",
          "internalType": "uint96"
        },
        {
          "name": "callbackData_",
          "type": "bytes",
          "internalType": "bytes"
        }
      ],
      "outputs": [],
      "stateMutability": "nonpayable"
    },
    {
      "type": "function",
      "name": "execOnModule",
      "inputs": [
        {
          "name": "veecode_",
          "type": "bytes7",
          "internalType": "Veecode"
        },
        {
          "name": "callData_",
          "type": "bytes",
          "internalType": "bytes"
        }
      ],
      "outputs": [
        {
          "name": "",
          "type": "bytes",
          "internalType": "bytes"
        }
      ],
      "stateMutability": "nonpayable"
    },
    {
      "type": "function",
      "name": "fees",
      "inputs": [
        {
          "name": "",
          "type": "bytes5",
          "internalType": "Keycode"
        }
      ],
      "outputs": [
        {
          "name": "protocol",
          "type": "uint48",
          "internalType": "uint48"
        },
        {
          "name": "referrer",
          "type": "uint48",
          "internalType": "uint48"
        },
        {
          "name": "maxCuratorFee",
          "type": "uint48",
          "internalType": "uint48"
        }
      ],
      "stateMutability": "view"
    },
    {
      "type": "function",
      "name": "getBatchModuleForId",
      "inputs": [
        {
          "name": "lotId_",
          "type": "uint96",
          "internalType": "uint96"
        }
      ],
      "outputs": [
        {
          "name": "",
          "type": "address",
          "internalType": "contract BatchAuctionModule"
        }
      ],
      "stateMutability": "view"
    },
    {
      "type": "function",
      "name": "getCuratorFee",
      "inputs": [
        {
          "name": "auctionType_",
          "type": "bytes5",
          "internalType": "Keycode"
        },
        {
          "name": "curator_",
          "type": "address",
          "internalType": "address"
        }
      ],
      "outputs": [
        {
          "name": "curatorFee",
          "type": "uint48",
          "internalType": "uint48"
        }
      ],
      "stateMutability": "view"
    },
    {
      "type": "function",
      "name": "getFees",
      "inputs": [
        {
          "name": "auctionType_",
          "type": "bytes5",
          "internalType": "Keycode"
        }
      ],
      "outputs": [
        {
          "name": "protocol",
          "type": "uint48",
          "internalType": "uint48"
        },
        {
          "name": "referrer",
          "type": "uint48",
          "internalType": "uint48"
        },
        {
          "name": "maxCuratorFee",
          "type": "uint48",
          "internalType": "uint48"
        }
      ],
      "stateMutability": "view"
    },
    {
      "type": "function",
      "name": "getModuleForId",
      "inputs": [
        {
          "name": "lotId_",
          "type": "uint96",
          "internalType": "uint96"
        }
      ],
      "outputs": [
        {
          "name": "",
          "type": "address",
          "internalType": "contract AuctionModule"
        }
      ],
      "stateMutability": "view"
    },
    {
      "type": "function",
      "name": "getModuleForVeecode",
      "inputs": [
        {
          "name": "",
          "type": "bytes7",
          "internalType": "Veecode"
        }
      ],
      "outputs": [
        {
          "name": "",
          "type": "address",
          "internalType": "contract Module"
        }
      ],
      "stateMutability": "view"
    },
    {
      "type": "function",
      "name": "getModuleStatus",
      "inputs": [
        {
          "name": "",
          "type": "bytes5",
          "internalType": "Keycode"
        }
      ],
      "outputs": [
        {
          "name": "latestVersion",
          "type": "uint8",
          "internalType": "uint8"
        },
        {
          "name": "sunset",
          "type": "bool",
          "internalType": "bool"
        }
      ],
      "stateMutability": "view"
    },
    {
      "type": "function",
      "name": "getProtocol",
      "inputs": [],
      "outputs": [
        {
          "name": "",
          "type": "address",
          "internalType": "address"
        }
      ],
      "stateMutability": "view"
    },
    {
      "type": "function",
      "name": "getRewards",
      "inputs": [
        {
          "name": "recipient_",
          "type": "address",
          "internalType": "address"
        },
        {
          "name": "token_",
          "type": "address",
          "internalType": "address"
        }
      ],
      "outputs": [
        {
          "name": "reward",
          "type": "uint256",
          "internalType": "uint256"
        }
      ],
      "stateMutability": "view"
    },
    {
      "type": "function",
      "name": "installModule",
      "inputs": [
        {
          "name": "newModule_",
          "type": "address",
          "internalType": "contract Module"
        }
      ],
      "outputs": [],
      "stateMutability": "nonpayable"
    },
    {
      "type": "function",
      "name": "isExecOnModule",
      "inputs": [],
      "outputs": [
        {
          "name": "",
          "type": "bool",
          "internalType": "bool"
        }
      ],
      "stateMutability": "view"
    },
    {
      "type": "function",
      "name": "lotCounter",
      "inputs": [],
      "outputs": [
        {
          "name": "",
          "type": "uint96",
          "internalType": "uint96"
        }
      ],
      "stateMutability": "view"
    },
    {
      "type": "function",
      "name": "lotFees",
      "inputs": [
        {
          "name": "lotId",
          "type": "uint96",
          "internalType": "uint96"
        }
      ],
      "outputs": [
        {
          "name": "curator",
          "type": "address",
          "internalType": "address"
        },
        {
          "name": "curated",
          "type": "bool",
          "internalType": "bool"
        },
        {
          "name": "curatorFee",
          "type": "uint48",
          "internalType": "uint48"
        },
        {
          "name": "protocolFee",
          "type": "uint48",
          "internalType": "uint48"
        },
        {
          "name": "referrerFee",
          "type": "uint48",
          "internalType": "uint48"
        }
      ],
      "stateMutability": "view"
    },
    {
      "type": "function",
      "name": "lotRouting",
      "inputs": [
        {
          "name": "lotId",
          "type": "uint96",
          "internalType": "uint96"
        }
      ],
      "outputs": [
        {
          "name": "seller",
          "type": "address",
          "internalType": "address"
        },
        {
          "name": "baseToken",
          "type": "address",
          "internalType": "contract ERC20"
        },
        {
          "name": "quoteToken",
          "type": "address",
          "internalType": "contract ERC20"
        },
        {
          "name": "auctionReference",
          "type": "bytes7",
          "internalType": "Veecode"
        },
        {
          "name": "funding",
          "type": "uint256",
          "internalType": "uint256"
        },
        {
          "name": "callbacks",
          "type": "address",
          "internalType": "contract ICallback"
        },
        {
          "name": "derivativeReference",
          "type": "bytes7",
          "internalType": "Veecode"
        },
        {
          "name": "wrapDerivative",
          "type": "bool",
          "internalType": "bool"
        },
        {
          "name": "derivativeParams",
          "type": "bytes",
          "internalType": "bytes"
        }
      ],
      "stateMutability": "view"
    },
    {
      "type": "function",
      "name": "modules",
      "inputs": [
        {
          "name": "",
          "type": "uint256",
          "internalType": "uint256"
        }
      ],
      "outputs": [
        {
          "name": "",
          "type": "bytes5",
          "internalType": "Keycode"
        }
      ],
      "stateMutability": "view"
    },
    {
      "type": "function",
      "name": "modulesCount",
      "inputs": [],
      "outputs": [
        {
          "name": "",
          "type": "uint256",
          "internalType": "uint256"
        }
      ],
      "stateMutability": "view"
    },
    {
      "type": "function",
      "name": "owner",
      "inputs": [],
      "outputs": [
        {
          "name": "",
          "type": "address",
          "internalType": "address"
        }
      ],
      "stateMutability": "view"
    },
    {
      "type": "function",
      "name": "refundBid",
      "inputs": [
        {
          "name": "lotId_",
          "type": "uint96",
          "internalType": "uint96"
        },
        {
          "name": "bidId_",
          "type": "uint64",
          "internalType": "uint64"
        },
        {
          "name": "index_",
          "type": "uint256",
          "internalType": "uint256"
        }
      ],
      "outputs": [],
      "stateMutability": "nonpayable"
    },
    {
      "type": "function",
      "name": "rewards",
      "inputs": [
        {
          "name": "",
          "type": "address",
          "internalType": "address"
        },
        {
          "name": "",
          "type": "address",
          "internalType": "contract ERC20"
        }
      ],
      "outputs": [
        {
          "name": "",
          "type": "uint256",
          "internalType": "uint256"
        }
      ],
      "stateMutability": "view"
    },
    {
      "type": "function",
      "name": "setCondenser",
      "inputs": [
        {
          "name": "auctionRef_",
          "type": "bytes7",
          "internalType": "Veecode"
        },
        {
          "name": "derivativeRef_",
          "type": "bytes7",
          "internalType": "Veecode"
        },
        {
          "name": "condenserRef_",
          "type": "bytes7",
          "internalType": "Veecode"
        }
      ],
      "outputs": [],
      "stateMutability": "nonpayable"
    },
    {
      "type": "function",
      "name": "setCuratorFee",
      "inputs": [
        {
          "name": "auctionType_",
          "type": "bytes5",
          "internalType": "Keycode"
        },
        {
          "name": "fee_",
          "type": "uint48",
          "internalType": "uint48"
        }
      ],
      "outputs": [],
      "stateMutability": "nonpayable"
    },
    {
      "type": "function",
      "name": "setFee",
      "inputs": [
        {
          "name": "auctionType_",
          "type": "bytes5",
          "internalType": "Keycode"
        },
        {
          "name": "type_",
          "type": "uint8",
          "internalType": "enum IFeeManager.FeeType"
        },
        {
          "name": "fee_",
          "type": "uint48",
          "internalType": "uint48"
        }
      ],
      "outputs": [],
      "stateMutability": "nonpayable"
    },
    {
      "type": "function",
      "name": "setProtocol",
      "inputs": [
        {
          "name": "protocol_",
          "type": "address",
          "internalType": "address"
        }
      ],
      "outputs": [],
      "stateMutability": "nonpayable"
    },
    {
      "type": "function",
      "name": "settle",
      "inputs": [
        {
          "name": "lotId_",
          "type": "uint96",
          "internalType": "uint96"
        },
        {
          "name": "num_",
          "type": "uint256",
          "internalType": "uint256"
        },
        {
          "name": "callbackData_",
          "type": "bytes",
          "internalType": "bytes"
        }
      ],
      "outputs": [
        {
          "name": "totalIn",
          "type": "uint256",
          "internalType": "uint256"
        },
        {
          "name": "totalOut",
          "type": "uint256",
          "internalType": "uint256"
        },
        {
          "name": "finished",
          "type": "bool",
          "internalType": "bool"
        },
        {
          "name": "auctionOutput",
          "type": "bytes",
          "internalType": "bytes"
        }
      ],
      "stateMutability": "nonpayable"
    },
    {
      "type": "function",
      "name": "sunsetModule",
      "inputs": [
        {
          "name": "keycode_",
          "type": "bytes5",
          "internalType": "Keycode"
        }
      ],
      "outputs": [],
      "stateMutability": "nonpayable"
    },
    {
      "type": "function",
      "name": "transferOwnership",
      "inputs": [
        {
          "name": "newOwner",
          "type": "address",
          "internalType": "address"
        }
      ],
      "outputs": [],
      "stateMutability": "nonpayable"
    },
    {
      "type": "event",
      "name": "Abort",
      "inputs": [
        {
          "name": "lotId",
          "type": "uint96",
          "indexed": true,
          "internalType": "uint96"
        }
      ],
      "anonymous": false
    },
    {
      "type": "event",
      "name": "AuctionCancelled",
      "inputs": [
        {
          "name": "lotId",
          "type": "uint96",
          "indexed": true,
          "internalType": "uint96"
        },
        {
          "name": "auctionRef",
          "type": "bytes7",
          "indexed": true,
          "internalType": "Veecode"
        }
      ],
      "anonymous": false
    },
    {
      "type": "event",
      "name": "AuctionCreated",
      "inputs": [
        {
          "name": "lotId",
          "type": "uint96",
          "indexed": true,
          "internalType": "uint96"
        },
        {
          "name": "auctionRef",
          "type": "bytes7",
          "indexed": true,
          "internalType": "Veecode"
        },
        {
          "name": "infoHash",
          "type": "string",
          "indexed": false,
          "internalType": "string"
        }
      ],
      "anonymous": false
    },
    {
      "type": "event",
      "name": "Bid",
      "inputs": [
        {
          "name": "lotId",
          "type": "uint96",
          "indexed": true,
          "internalType": "uint96"
        },
        {
          "name": "bidId",
          "type": "uint96",
          "indexed": true,
          "internalType": "uint96"
        },
        {
          "name": "bidder",
          "type": "address",
          "indexed": true,
          "internalType": "address"
        },
        {
          "name": "amount",
          "type": "uint256",
          "indexed": false,
          "internalType": "uint256"
        }
      ],
      "anonymous": false
    },
    {
      "type": "event",
      "name": "ClaimBid",
      "inputs": [
        {
          "name": "lotId",
          "type": "uint96",
          "indexed": true,
          "internalType": "uint96"
        },
        {
          "name": "bidId",
          "type": "uint96",
          "indexed": true,
          "internalType": "uint96"
        },
        {
          "name": "bidder",
          "type": "address",
          "indexed": true,
          "internalType": "address"
        }
      ],
      "anonymous": false
    },
    {
      "type": "event",
      "name": "Curated",
      "inputs": [
        {
          "name": "lotId",
          "type": "uint96",
          "indexed": true,
          "internalType": "uint96"
        },
        {
          "name": "curator",
          "type": "address",
          "indexed": true,
          "internalType": "address"
        }
      ],
      "anonymous": false
    },
    {
      "type": "event",
      "name": "ModuleInstalled",
      "inputs": [
        {
          "name": "keycode",
          "type": "bytes5",
          "indexed": true,
          "internalType": "Keycode"
        },
        {
          "name": "version",
          "type": "uint8",
          "indexed": true,
          "internalType": "uint8"
        },
        {
          "name": "location",
          "type": "address",
          "indexed": true,
          "internalType": "address"
        }
      ],
      "anonymous": false
    },
    {
      "type": "event",
      "name": "ModuleSunset",
      "inputs": [
        {
          "name": "keycode",
          "type": "bytes5",
          "indexed": true,
          "internalType": "Keycode"
        }
      ],
      "anonymous": false
    },
    {
      "type": "event",
      "name": "OwnershipTransferred",
      "inputs": [
        {
          "name": "user",
          "type": "address",
          "indexed": true,
          "internalType": "address"
        },
        {
          "name": "newOwner",
          "type": "address",
          "indexed": true,
          "internalType": "address"
        }
      ],
      "anonymous": false
    },
    {
      "type": "event",
      "name": "RefundBid",
      "inputs": [
        {
          "name": "lotId",
          "type": "uint96",
          "indexed": true,
          "internalType": "uint96"
        },
        {
          "name": "bidId",
          "type": "uint96",
          "indexed": true,
          "internalType": "uint96"
        },
        {
          "name": "bidder",
          "type": "address",
          "indexed": true,
          "internalType": "address"
        }
      ],
      "anonymous": false
    },
    {
      "type": "event",
      "name": "Settle",
      "inputs": [
        {
          "name": "lotId",
          "type": "uint96",
          "indexed": true,
          "internalType": "uint96"
        }
      ],
      "anonymous": false
    },
    {
      "type": "error",
      "name": "AmountLessThanMinimum",
      "inputs": []
    },
    {
      "type": "error",
      "name": "FailedCallback",
      "inputs": []
    },
    {
      "type": "error",
      "name": "InsufficientFunding",
      "inputs": []
    },
    {
      "type": "error",
      "name": "InvalidCallback",
      "inputs": []
    },
    {
      "type": "error",
      "name": "InvalidCallbackResponse",
      "inputs": []
    },
    {
      "type": "error",
      "name": "InvalidFee",
      "inputs": []
    },
    {
      "type": "error",
      "name": "InvalidLotId",
      "inputs": [
        {
          "name": "id_",
          "type": "uint96",
          "internalType": "uint96"
        }
      ]
    },
    {
      "type": "error",
      "name": "InvalidModuleInstall",
      "inputs": [
        {
          "name": "keycode_",
          "type": "bytes5",
          "internalType": "Keycode"
        },
        {
          "name": "version_",
          "type": "uint8",
          "internalType": "uint8"
        }
      ]
    },
    {
      "type": "error",
      "name": "InvalidParams",
      "inputs": []
    },
    {
      "type": "error",
      "name": "InvalidParams",
      "inputs": []
    },
    {
      "type": "error",
      "name": "InvalidState",
      "inputs": []
    },
    {
      "type": "error",
      "name": "InvalidVeecode",
      "inputs": [
        {
          "name": "veecode_",
          "type": "bytes7",
          "internalType": "Veecode"
        }
      ]
    },
    {
      "type": "error",
      "name": "ModuleAlreadySunset",
      "inputs": [
        {
          "name": "keycode_",
          "type": "bytes5",
          "internalType": "Keycode"
        }
      ]
    },
    {
      "type": "error",
      "name": "ModuleExecutionReverted",
      "inputs": [
        {
          "name": "error_",
          "type": "bytes",
          "internalType": "bytes"
        }
      ]
    },
    {
      "type": "error",
      "name": "ModuleIsSunset",
      "inputs": [
        {
          "name": "keycode_",
          "type": "bytes5",
          "internalType": "Keycode"
        }
      ]
    },
    {
      "type": "error",
      "name": "ModuleNotInstalled",
      "inputs": [
        {
          "name": "keycode_",
          "type": "bytes5",
          "internalType": "Keycode"
        },
        {
          "name": "version_",
          "type": "uint8",
          "internalType": "uint8"
        }
      ]
    },
    {
      "type": "error",
      "name": "NotPermitted",
      "inputs": [
        {
          "name": "caller_",
          "type": "address",
          "internalType": "address"
        }
      ]
    },
    {
      "type": "error",
      "name": "TargetNotAContract",
      "inputs": [
        {
          "name": "target_",
          "type": "address",
          "internalType": "address"
        }
      ]
    },
    {
      "type": "error",
      "name": "UnsupportedToken",
      "inputs": [
        {
          "name": "token_",
          "type": "address",
          "internalType": "address"
        }
      ]
    }
  ],
  "bytecode": {
    "object": "0x60a060405260016006553480156200001657600080fd5b506040516200582a3803806200582a8339810160408190526200003991620000d8565b600080546001600160a01b0319166001600160a01b03851690811782556040518592859285928492869283929091907f8be0079c531659141344cd1fd0a4f28419497f9722a3daafe3b4186f6b6457e0908290a35050600780546001600160a01b0319166001600160a01b039283161790551660805250620001229350505050565b80516001600160a01b0381168114620000d357600080fd5b919050565b600080600060608486031215620000ee57600080fd5b620000f984620000bb565b92506200010960208501620000bb565b91506200011960408501620000bb565b90509250925092565b6080516156ec6200013e60003960006137fb01526156ec6000f3fe608060405234801561001057600080fd5b506004361061021c5760003560e01c80637eb1e76111610125578063cf042fb0116100ad578063ea072e701161007c578063ea072e7014610694578063ef5cfb8c1461072e578063f2fde38b14610741578063f315aafe14610754578063f4b261811461075d57600080fd5b8063cf042fb0146105e1578063d16352af146105f4578063e70b9e2714610605578063e814b76a1461063057600080fd5b80639e55cba3116100f45780639e55cba31461056c578063a50076f714610595578063c4ce88fd146105a8578063c74c149b146105bb578063c75519ba146105ce57600080fd5b80637eb1e761146104f257806381b2248a146105055780638da5cb5b146105315780639e2e003a1461054457600080fd5b8063505f901a116101a85780635bb27aab116101775780635bb27aab1461040b5780635c774ed7146104505780636e9c996d1461046d5780637249c0d514610498578063779bcb9b146104ab57600080fd5b8063505f901a1461039a57806350ab0489146103ad578063510bd273146103cd5780635a3eb399146103e057600080fd5b80631ed75f1f116101ef5780631ed75f1f146102e857806320b15fe4146102fb57806331d72d6b1461030e578063367b02fb1461034c5780633ab3f98e1461036f57600080fd5b80630a35511b146102215780630a9d793d146102365780630ab9a1ee146102495780630bad843b146102c0575b600080fd5b61023461022f3660046142dc565b610798565b005b610234610244366004614381565b610b12565b6102926102573660046143b6565b6001600160d81b03191660009081526008602052604090205465ffffffffffff80821692600160301b8304821692600160601b900490911690565b6040805165ffffffffffff948516815292841660208401529216918101919091526060015b60405180910390f35b6102d36102ce3660046143f3565b610b5e565b604080519283526020830191909152016102b7565b6102346102f6366004614444565b610bca565b610234610309366004614475565b610d34565b61029261031c3660046143b6565b60086020526000908152604090205465ffffffffffff80821691600160301b8104821691600160601b9091041683565b61035f61035a366004614508565b610f5f565b6040516102b794939291906145b1565b61038261037d366004614444565b611300565b6040516001600160a01b0390911681526020016102b7565b6102346103a83660046145e2565b611311565b6103c06103bb366004614634565b61156c565b6040516102b79190614654565b6102346103db36600461467c565b611647565b6103f36103ee3660046146bb565b61178d565b6040516001600160601b0390911681526020016102b7565b6104376104193660046143b6565b60046020526000908152604090205460ff8082169161010090041682565b6040805160ff90931683529015156020830152016102b7565b60055461045d9060ff1681565b60405190151581526020016102b7565b61048061047b366004614857565b612182565b6040516001600160401b0390911681526020016102b7565b6102346104a6366004614941565b61235f565b6104e46104b9366004614978565b6001600160a01b03918216600090815260096020908152604080832093909416825291909152205490565b6040519081526020016102b7565b610234610500366004614381565b6123f2565b6105186105133660046149a6565b61266f565b6040516001600160d81b031990911681526020016102b7565b600054610382906001600160a01b031681565b610557610552366004614444565b6126a6565b6040516102b7999897969594939291906149bf565b61038261057a366004614a35565b6003602052600090815260409020546001600160a01b031681565b6103826105a3366004614444565b612798565b600a546103f3906001600160601b031681565b6102346105c9366004614a52565b6127ac565b6102346105dc3660046143b6565b612902565b6102346105ef3660046145e2565b6129fe565b6007546001600160a01b0316610382565b6104e4610613366004614978565b600960209081526000928352604080842090915290825290205481565b61067d61063e366004614a94565b6001600160d81b0319821660009081526008602090815260408083206001600160a01b038516845260010190915290205465ffffffffffff1692915050565b60405165ffffffffffff90911681526020016102b7565b6106ef6106a2366004614444565b600c60205260009081526040902080546001909101546001600160a01b0382169160ff600160a01b8204169165ffffffffffff600160a81b90920482169181811691600160301b90041685565b604080516001600160a01b039096168652931515602086015265ffffffffffff928316938501939093528116606084015216608082015260a0016102b7565b61023461073c366004614381565b612b6b565b61023461074f366004614381565b612bd6565b6104e460025481565b61078b61076b366004614ab0565b600d60209081526000928352604080842090915290825290205460c81b81565b6040516102b79190614ade565b6006546001146107c35760405162461bcd60e51b81526004016107ba90614af3565b60405180910390fd5b60026006556107d183612c4b565b6000806107dd85611300565b6001600160a01b0316630a35511b8686866040518463ffffffff1660e01b815260040161080c93929190614b17565b6000604051808303816000875af115801561082b573d6000803e3d6000fd5b505050506040513d6000823e601f3d908101601f191682016040526108539190810190614bbd565b6001600160601b0387166000908152600b60209081526040808320600c90925282206001015484519496509294509265ffffffffffff80841693600160301b900416915b81811015610b015760008782815181106108b3576108b3614cdd565b60200260200101519050600081606001511115610a515760208101518654600288015460808401516040850151610909948a948a9491936001600160a01b0391821693919092169161090491614d09565b612c88565b5060608181015160038801805482900390819055835160408051610120810182528b546001600160a01b03908116825260018d01548116602083015260028d015480821693830193909352600160a01b9283900460c890811b6001600160c81b031990811698840198909852608083019590955260048d015490811660a083015291820490931b90941660c0830152600160d81b90930460ff16151560e0820152600589018054610a51949392918b91610100840191906109c990614d1c565b80601f01602080910402602001604051908101604052809291908181526020018280546109f590614d1c565b8015610a425780601f10610a1757610100808354040283529160200191610a42565b820191906000526020600020905b815481529060010190602001808311610a2557829003601f168201915b5050505050815250508a612d66565b608081015115610a7d57600286015481516080830151610a7d926001600160a01b031691906000612ef9565b80516001600160a01b03168a8a84818110610a9a57610a9a614cdd565b9050602002016020810190610aaf9190614d56565b6001600160401b03168c6001600160601b03167f16c8bb5b68aee6acf37bdd28737b3728e2d041e98a4554f3522f6a7947448c0c60405160405180910390a45080610af981614d73565b915050610897565b505060016006555050505050505050565b6000546001600160a01b03163314610b3c5760405162461bcd60e51b81526004016107ba90614d8c565b600780546001600160a01b0319166001600160a01b0392909216919091179055565b6000808315610bb057610b7d8365ffffffffffff8716620186a061303f565b915081610b9f84610b8e888a614db2565b65ffffffffffff16620186a061303f565b610ba99190614d09565b9050610bc1565b610bbe83610b8e8789614db2565b90505b94509492505050565b600654600114610bec5760405162461bcd60e51b81526004016107ba90614af3565b6002600655610bfa81612c4b565b610c0381611300565b604051631ed75f1f60e01b81526001600160601b03831660048201526001600160a01b039190911690631ed75f1f90602401600060405180830381600087803b158015610c4f57600080fd5b505af1158015610c63573d6000803e3d6000fd5b505050506001600160601b0381166000908152600b6020526040812060038101549091819003610ca6576040516357e000b160e01b815260040160405180910390fd5b6000600383018190556001600160601b0384168152600b60205260409020600181015460048201549154610cf6926001600160a01b0392831692610cee92918116911661305d565b836000612ef9565b6040516001600160601b038416907f16a4d2776546f16d2ecb9de112ea9b037ce1580dacdcf8013658630c66a921d990600090a25050600160065550565b6000546001600160a01b03163314610d5e5760405162461bcd60e51b81526004016107ba90614d8c565b6000610d6984613077565b6001600160a01b031663bb24fe8a6040518163ffffffff1660e01b8152600401602060405180830381865afa158015610da6573d6000803e3d6000fd5b505050506040513d601f19601f82011682018060405250810190610dca9190614dee565b6003811115610ddb57610ddb614dd8565b141580610e6357506001610dee83613077565b6001600160a01b031663bb24fe8a6040518163ffffffff1660e01b8152600401602060405180830381865afa158015610e2b573d6000803e3d6000fd5b505050506040513d601f19601f82011682018060405250810190610e4f9190614dee565b6003811115610e6057610e60614dd8565b14155b80610efd57506001600160c81b0319811615801590610efd57506002610e8882613077565b6001600160a01b031663bb24fe8a6040518163ffffffff1660e01b8152600401602060405180830381865afa158015610ec5573d6000803e3d6000fd5b505050506040513d601f19601f82011682018060405250810190610ee99190614dee565b6003811115610efa57610efa614dd8565b14155b15610f1b57604051635435b28960e11b815260040160405180910390fd5b6001600160c81b03199283166000908152600d6020908152604080832094909516825292909252919020805466ffffffffffffff191660c89290921c919091179055565b60008060006060600654600114610f885760405162461bcd60e51b81526004016107ba90614af3565b6002600655610f9688612c4b565b600080610fa28a611300565b60405163cd280bdb60e01b81526001600160601b038c166004820152602481018b90529091506001600160a01b0382169063cd280bdb906044016000604051808303816000875af1158015610ffb573d6000803e3d6000fd5b505050506040513d6000823e601f3d908101601f191682016040526110239190810190614e0f565b93995091975090955090935091508315156000036110425750506112ed565b506001600160601b0389166000908152600b60209081526040808320600c9092528220600181015491929091819061108e9065ffffffffffff80821691600160301b900416838c610b5e565b855460028701546004880154928d0395506110bd94506001600160a01b039182169350859290821691166130cc565b815460009081906110e890600160a01b810460ff1690600160a81b900465ffffffffffff168b6130f0565b90508015611212576004850154600160a01b900460c81b6001600160c81b031916156111c2578354604080516101208101825287546001600160a01b039081168252600189015481166020830152600289015480821693830193909352600160a01b9283900460c890811b6001600160c81b0319908116606085015260038b0154608085015260048b015480841660a086015294850490911b1660c0830152600160d81b90920460ff16151560e08201526005880180546111bd9493909316928592918a91610100840191906109c990614d1c565b611206565b83546001600160a01b03908116600090815260096020908152604080832060018a015490941683529290529081208054839290611200908490614e7c565b90915550505b60038501805482900390555b835460009061123b90600160a01b810460ff1690600160a81b900465ffffffffffff16896130f0565b905081816112498c8a614d09565b6112539190614e7c565b61125d9190614d09565b600387018054829003905560018701546004880154885492955061129794506001600160a01b039182169350610cee92908216911661305d565b60048401546112b3906001600160a01b03168e84848f8f613121565b6040516001600160601b038e16907f5d4a6ac2287eaf5f22deb24e842c4668fd11d8f478a18cf2a37faa0bcebd31c690600090a250505050505b6001600681905550945094509450949050565b600061130b82613193565b92915050565b6006546001146113335760405162461bcd60e51b81526004016107ba90614af3565b600260065561134183612c4b565b6001600160601b0383166000908152600c6020526040902080546001600160a01b03163314611385576040516319b1d90760e31b81523360048201526024016107ba565b600061139085613193565b8254909150600160a01b900460ff168061141c5750604051630385592160e01b81526001600160601b03861660048201526001600160a01b03821690630385592190602401602060405180830381865afa1580156113f2573d6000803e3d6000fd5b505050506040513d601f19601f820116820180604052508101906114169190614e8f565b15156001145b1561143a5760405163baf3f0f760e01b815260040160405180910390fd5b6001600160601b0385166000818152600b6020526040808220855460ff60a01b1916600160a01b908117808855925163ace54da560e01b8152600481019590955290936114f39291820460ff169165ffffffffffff600160a81b90910416906001600160a01b0387169063ace54da590602401602060405180830381865afa1580156114ca573d6000803e3d6000fd5b505050506040513d601f19601f820116820180604052508101906114ee9190614eac565b6130f0565b90506000611503888389896131c2565b905080611527576004830154611527906001600160a01b0316898460008b8b61337b565b60405133906001600160601b038a16907f0cbe7341c5c56a21e107668323c3c414bcd506f3615ea1115f86dd4df173691490600090a350506001600655505050505050565b6000546060906001600160a01b031633146115995760405162461bcd60e51b81526004016107ba90614d8c565b6005805460ff191660011790556000806115b286613077565b6001600160a01b031685856040516115cb929190614ec5565b6000604051808303816000865af19150503d8060008114611608576040519150601f19603f3d011682016040523d82523d6000602084013e61160d565b606091505b5091509150816116325780604051635d94b9cd60e01b81526004016107ba9190614654565b6005805460ff191690559150505b9392505050565b6006546001146116695760405162461bcd60e51b81526004016107ba90614af3565b600260065561167783612c4b565b6001600160601b0383166000908152600b6020526040902060020154611742906001600160a01b0316336116aa86611300565b604051631f648d2f60e21b81526001600160601b03881660048201526001600160401b0387166024820152604481018690523360648201526001600160a01b039190911690637d9234bc906084016020604051808303816000875af1158015611717573d6000803e3d6000fd5b505050506040513d601f19601f8201168201806040525081019061173b9190614eac565b6000612ef9565b60405133906001600160401b038416906001600160601b038616907fc5e25a727c1d2fa8b8cf2bd4f7a3ba0b6740aaee33d84a3132d47301844f361890600090a45050600160065550565b60006006546001146117b15760405162461bcd60e51b81526004016107ba90614af3565b600260065560006117c86040870160208801614381565b6001600160a01b031614806117f5575060006117ea6060870160408801614381565b6001600160a01b0316145b1561181357604051635435b28960e11b815260040160405180910390fd5b600a80546001600160601b031690600061182c83614ed5565b82546101009290920a6001600160601b0381810219909316918316021790915581166000908152600b60209081526040918290208054336001600160a01b0319909116178155929350611883918801908801614381565b6001820180546001600160a01b0319166001600160a01b03929092169190911790556118b56060870160408801614381565b6002820180546001600160a01b0319166001600160a01b039290921691909117905560006118ee6118e960208901896143b6565b6133ab565b905060008260010160009054906101000a90046001600160a01b03166001600160a01b031663313ce5676040518163ffffffff1660e01b8152600401602060405180830381865afa158015611947573d6000803e3d6000fd5b505050506040513d601f19601f8201168201806040525081019061196b9190614efb565b905060008360020160009054906101000a90046001600160a01b03166001600160a01b031663313ce5676040518163ffffffff1660e01b8152600401602060405180830381865afa1580156119c4573d6000803e3d6000fd5b505050506040513d601f19601f820116820180604052508101906119e89190614efb565b90506000836001600160a01b031663bb24fe8a6040518163ffffffff1660e01b8152600401602060405180830381865afa158015611a2a573d6000803e3d6000fd5b505050506040513d601f19601f82011682018060405250810190611a4e9190614dee565b6003811115611a5f57611a5f614dd8565b141580611a6f575060068260ff16105b80611a7d575060128260ff16115b80611a8b575060068160ff16105b80611a99575060128160ff16115b15611ab757604051635435b28960e11b815260040160405180910390fd5b60405163bae96bdd60e01b81526001600160a01b0384169063bae96bdd90611ae99088908c9086908890600401614f47565b600060405180830381600087803b158015611b0357600080fd5b505af1158015611b17573d6000803e3d6000fd5b50505050826001600160a01b031663d61735ca6040518163ffffffff1660e01b8152600401602060405180830381865afa158015611b59573d6000803e3d6000fd5b505050506040513d601f19601f82011682018060405250810190611b7d9190615029565b60028501805460c89290921c600160a01b0266ffffffffffffff60a01b199092169190911790555050506001600160601b0382166000908152600c60205260409020611bcf6080880160608901614381565b81546001600160a81b0319166001600160a01b03919091161781556000600881611bfc60208b018b6143b6565b6001600160d81b0319168152602081019190915260400160009081208054909250600160601b900465ffffffffffff16906001830181611c4260808d0160608e01614381565b6001600160a01b0316815260208101919091526040016000205465ffffffffffff908116915082168111611c765780611c78565b815b845465ffffffffffff60a81b1916600160a81b65ffffffffffff9283160217855583546001909501805495821665ffffffffffff1987168117825594546bffffffffffffffffffffffff19909616909417600160301b95869004909116909402939093179091555060009050611cfa611cf760e0890160c08a016143b6565b90565b6001600160d81b03191614611f1a576000611d1e6118e960e0890160c08a016143b6565b90506001816001600160a01b031663bb24fe8a6040518163ffffffff1660e01b8152600401602060405180830381865afa158015611d60573d6000803e3d6000fd5b505050506040513d601f19601f82011682018060405250810190611d849190614dee565b6003811115611d9557611d95614dd8565b141580611e23575060018201546001600160a01b038083169163caf927859116611dc260e08b018b615046565b6040518463ffffffff1660e01b8152600401611de09392919061508c565b602060405180830381865afa158015611dfd573d6000803e3d6000fd5b505050506040513d601f19601f82011682018060405250810190611e219190614e8f565b155b15611e4157604051635435b28960e11b815260040160405180910390fd5b806001600160a01b031663d61735ca6040518163ffffffff1660e01b8152600401602060405180830381865afa158015611e7f573d6000803e3d6000fd5b505050506040513d601f19601f82011682018060405250810190611ea39190615029565b60048301805460c89290921c600160a01b0266ffffffffffffff60a01b19909216919091179055611ed760e0880188615046565b6005840191611ee79190836150f7565b50611efa610120880161010089016151b6565b600483018054911515600160d81b0260ff60d81b19909216919091179055505b60028101546001600160c81b0319600160a01b9182900460c890811b82166000908152600d60209081526040808320600488015496909604841b85168352949052929092205490911b90811615612066576002611f7682613077565b6001600160a01b031663bb24fe8a6040518163ffffffff1660e01b8152600401602060405180830381865afa158015611fb3573d6000803e3d6000fd5b505050506040513d601f19601f82011682018060405250810190611fd79190614dee565b6003811115611fe857611fe8614dd8565b1461200657604051635435b28960e11b815260040160405180910390fd5b600061201182613474565b6001600160d81b03198116600090815260046020526040902054909150610100900460ff1615156001036120645760405163ae05d58960e01b81526001600160d81b0319821660048201526024016107ba565b505b5061207f61207a60a0880160808901614381565b613488565b61209c57604051635435b28960e11b815260040160405180910390fd5b60006120ae60a0880160808901614381565b6001600160a01b0316146120ef576120cc60a0870160808801614381565b6004820180546001600160a01b0319166001600160a01b03929092169190911790555b60006120fc8388886134f5565b9050806121145761211487848860600135600061371d565b8160020160149054906101000a900460c81b6001600160c81b031916836001600160601b03167f7cbd7aa1f47e4f995e92547da29ca023e5fad4db6922fcaa352efa004066491f878760405161216b9291906151d3565b60405180910390a350506001600655949350505050565b60006006546001146121a65760405162461bcd60e51b81526004016107ba90614af3565b600260065583516121b690612c4b565b60208401516000906001600160a01b0316156121d65784602001516121d8565b335b90506121e78560000151611300565b6001600160a01b03166387698a31866000015183886040015189606001518a608001516040518663ffffffff1660e01b815260040161222a9594939291906151e7565b6020604051808303816000875af1158015612249573d6000803e3d6000fd5b505050506040513d601f19601f8201168201806040525081019061226d9190615234565b606086015186516001600160601b03166000908152600b602052604090206002015460a08801519294506122b5926001600160a01b03909116906122b09061376c565b6137f5565b84516001600160601b03166000908152600b6020526040902060040154855160608701516122f3926001600160a01b03169190859085908989613825565b806001600160a01b0316826001600160401b031686600001516001600160601b03167fa2e7ed6065b3a19c5ea6dce1c2f7a8933195d54aa91cee19103be6655cc3bcf8886060015160405161234a91815260200190565b60405180910390a45060016006559392505050565b6001600160d81b0319821660009081526008602052604090205465ffffffffffff600160601b909104811690821611156123ac576040516358d620b360e01b815260040160405180910390fd5b6001600160d81b03199190911660009081526008602090815260408083203384526001019091529020805465ffffffffffff191665ffffffffffff909216919091179055565b6000546001600160a01b0316331461241c5760405162461bcd60e51b81526004016107ba90614d8c565b612425816138a2565b6000816001600160a01b031663d61735ca6040518163ffffffff1660e01b8152600401602060405180830381865afa158015612465573d6000803e3d6000fd5b505050506040513d601f19601f820116820180604052508101906124899190615029565b9050612494816138d8565b6000806124a083613a3e565b6001600160d81b0319821660009081526004602052604090208054929450909250906124d09060ff166001615251565b60ff168260ff16146124f9578282604051635820a91160e01b81526004016107ba92919061526a565b805460ff191660ff838116919091178083556101009004161561252057805461ff00191681555b6001600160c81b03198416600090815260036020526040902080546001600160a01b0319166001600160a01b03871617905560ff8216600019016125d05760018054808201825560009182527fb10e2d527612073b26eecdfd717e6a320cf44b4afac2b0732d9fcbe2b7fa0cf6600680830491909101805464ffffffffff929093066005026101000a9182021990921660d887901c9190910217905560028054916125ca83614d73565b91905055505b846001600160a01b031663ea6439146040518163ffffffff1660e01b8152600401600060405180830381600087803b15801561260b57600080fd5b505af115801561261f573d6000803e3d6000fd5b50506040516001600160a01b038816925060ff851691506001600160d81b03198616907f9d59a7f92873a37532afecac87d9ae2e0571c04f7cfe13ace6f38209dd1acd1c90600090a45050505050565b6001818154811061267f57600080fd5b9060005260206000209060069182820401919006600502915054906101000a900460d81b81565b600b602052600090815260409020805460018201546002830154600384015460048501546005860180546001600160a01b03968716979587169680861696600160a01b9687900460c890811b9792861695928304901b93600160d81b90920460ff169290919061271590614d1c565b80601f016020809104026020016040519081016040528092919081815260200182805461274190614d1c565b801561278e5780601f106127635761010080835404028352916020019161278e565b820191906000526020600020905b81548152906001019060200180831161277157829003601f168201915b5050505050905089565b60006127a382612c4b565b61130b82613193565b6000546001600160a01b031633146127d65760405162461bcd60e51b81526004016107ba90614d8c565b620186a065ffffffffffff82161115612802576040516358d620b360e01b815260040160405180910390fd5b600082600281111561281657612816614dd8565b03612850576001600160d81b031983166000908152600860205260409020805465ffffffffffff191665ffffffffffff8316179055505050565b600182600281111561286457612864614dd8565b036128aa576001600160d81b03198316600090815260086020526040902080546bffffffffffff0000000000001916600160301b65ffffffffffff841602179055505050565b60028260028111156128be576128be614dd8565b036128fd576001600160d81b031983166000908152600860205260409020805465ffffffffffff60601b1916600160601b65ffffffffffff8416021790555b505050565b6000546001600160a01b0316331461292c5760405162461bcd60e51b81526004016107ba90614d8c565b6001600160d81b0319811660009081526004602052604090205460ff1661296b5780600060405163def1560160e01b81526004016107ba92919061526a565b6001600160d81b0319811660009081526004602052604090208054610100900460ff16156129b85760405163271614df60e21b81526001600160d81b0319831660048201526024016107ba565b805461ff0019166101001781556040516001600160d81b03198316907fa967d5160f4efeca6ce587658357cfe54cbe547c6945ddf21a06ac712216942a90600090a25050565b600654600114612a205760405162461bcd60e51b81526004016107ba90614af3565b6002600655612a2e83612c4b565b6001600160601b0383166000908152600b6020526040902080546001600160a01b03163314612a72576040516319b1d90760e31b81523360048201526024016107ba565b612a7b84613193565b60405163b04046df60e01b81526001600160601b03861660048201526001600160a01b03919091169063b04046df90602401600060405180830381600087803b158015612ac757600080fd5b505af1158015612adb573d6000803e3d6000fd5b505050506000612aec858585613b21565b905080612b10576004820154612b10906001600160a01b0316866000808888613b90565b6002820154604051600160a01b90910460c81b6001600160c81b031916906001600160601b038716907f2c784826e62ed5cac07a5ebe66734ece0cdc7ee0559b21b59d1434a64e07ec8290600090a350506001600655505050565b600654600114612b8d5760405162461bcd60e51b81526004016107ba90614af3565b60026006553360008181526009602090815260408083206001600160a01b0386168452909152812080549082905583929091612bcc9184918490612ef9565b5050600160065550565b6000546001600160a01b03163314612c005760405162461bcd60e51b81526004016107ba90614d8c565b600080546001600160a01b0319166001600160a01b0383169081178255604051909133917f8be0079c531659141344cd1fd0a4f28419497f9722a3daafe3b4186f6b6457e09190a350565b600a546001600160601b0390811690821610612c8557604051630d55bc2360e41b81526001600160601b03821660048201526024016107ba565b50565b60008080612cc189896001600160a01b038a1615801590612cbb5750886001600160a01b03168a6001600160a01b031614155b87610b5e565b90925090508115612d09576001600160a01b03808816600090815260096020908152604080832093891683529290529081208054849290612d03908490614e7c565b90915550505b8015612d4f576007546001600160a01b03908116600090815260096020908152604080832093891683529290529081208054839290612d49908490614e7c565b90915550505b612d598183614e7c565b9998505050505050505050565b60c082015160208301516001600160c81b03198216612d9157612d8c8187876001612ef9565b612ef1565b6000612d9c83613077565b61010086015160608701516001600160c81b03199081166000908152600d602090815260408083208985168452909152902054929350909160c81b90811615612e64576000612dea82613077565b6040516333f1a81560e11b81529091506001600160a01b038216906367e3502a90612e1b908a908790600401615287565b600060405180830381865afa158015612e38573d6000803e3d6000fd5b505050506040513d6000823e601f3d908101601f19168201604052612e6091908101906152ac565b9250505b612e6f84848a613bc0565b60e0870151604051631c81b11f60e31b81526001600160a01b0385169163e40d88f891612ea7918d91899188918f91906004016152e0565b6060604051808303816000875af1158015612ec6573d6000803e3d6000fd5b505050506040513d601f19601f82011682018060405250810190612eea9190615325565b5050505050505b505050505050565b6000811515600103612f72576040516370a0823160e01b81526001600160a01b0385811660048301528616906370a0823190602401602060405180830381865afa158015612f4b573d6000803e3d6000fd5b505050506040513d601f19601f82011682018060405250810190612f6f9190614eac565b90505b8215612f8c57612f8c6001600160a01b0386168585613bd4565b600182151514801561300f5750612fa38382614e7c565b6040516370a0823160e01b81526001600160a01b0386811660048301528716906370a0823190602401602060405180830381865afa158015612fe9573d6000803e3d6000fd5b505050506040513d601f19601f8201168201806040525081019061300d9190614eac565b105b1561303857604051635f8b555b60e11b81526001600160a01b03861660048201526024016107ba565b5050505050565b600082600019048411830215820261305657600080fd5b5091020490565b6000600160981b83166130705781611640565b5090919050565b6001600160c81b031981166000908152600360205260408120546001600160a01b03168061130b576000806130ab85613a3e565b91509150818160405163def1560160e01b81526004016107ba92919061526a565b6000600160991b82166130df57846130e1565b815b90506130388382866000612ef9565b6000831515810361310357506000611640565b6131198265ffffffffffff8516620186a061303f565b949350505050565b6001609a1b861615612ef157612ef163a5b13f6960e01b868686868660405160240161315195949392919061535e565b60408051601f198184030181529190526020810180516001600160e01b03166001600160e01b0319909316929092179091526001600160a01b03881690613c55565b6001600160601b0381166000908152600b602052604081206002015461130b90600160a01b900460c81b613077565b6001600160601b0384166000908152600b6020526040812060038101805486919084906131f0908490614e7c565b90915550506004810154600160981b16156133315760018101546040516370a0823160e01b81523060048201526000916001600160a01b0316906370a0823190602401602060405180830381865afa158015613250573d6000803e3d6000fd5b505050506040513d601f19601f820116820180604052508101906132749190614eac565b6004830154909150613294906001600160a01b031688886001898961337b565b61329e8682614e7c565b60018301546040516370a0823160e01b81523060048201526001600160a01b03909116906370a0823190602401602060405180830381865afa1580156132e8573d6000803e3d6000fd5b505050506040513d601f19601f8201168201806040525081019061330c9190614eac565b101561332b5760405163f7a632f560e01b815260040160405180910390fd5b5061336f565b60018101548154613352916001600160a01b03908116911630886000613d13565b600481015461336f906001600160a01b031687876000888861337b565b50600195945050505050565b6001609d1b861615612ef157612ef16309b9601c60e01b868686868660405160240161315195949392919061538d565b6001600160d81b03198116600090815260046020908152604080832081518083019092525460ff808216808452610100909204161515928201929092529061340b5782600060405163def1560160e01b81526004016107ba92919061526a565b80602001511561343a5760405163ae05d58960e01b81526001600160d81b0319841660048201526024016107ba565b600061344a848360000151613e53565b6001600160c81b0319166000908152600360205260409020546001600160a01b0316949350505050565b60008061348083613a3e565b509392505050565b6000600160981b8216151580156134b157506001609f1b821615806134b157506001609d1b8216155b80156134c157506001609c1b8216155b156134ce57506000919050565b6001600160a01b038216158061130b575050600160991b6001600160a01b03909116101590565b6000806135086118e960208601866143b6565b90506001816001600160a01b031663994595e16040518163ffffffff1660e01b8152600401602060405180830381865afa15801561354a573d6000803e3d6000fd5b505050506040513d601f19601f8201168201806040525081019061356e91906153be565b600181111561357f5761357f614dd8565b1461359d57604051635435b28960e11b815260040160405180910390fd5b6135ad60608401604085016151b6565b156135cb57604051635435b28960e11b815260040160405180910390fd5b6001600160601b0385166000908152600b60209081526040808320606087013560039091015561360091908701908701614381565b9050613629600160981b61361a60a0880160808901614381565b166001600160a01b0316151590565b156136fe576040516370a0823160e01b81523060048201526000906001600160a01b038316906370a0823190602401602060405180830381865afa158015613675573d6000803e3d6000fd5b505050506040513d601f19601f820116820180604052508101906136999190614eac565b90506136ac86888760600135600161371d565b6136ba606086013582614e7c565b6040516370a0823160e01b81523060048201526001600160a01b038416906370a0823190602401602060405180830381865afa1580156132e8573d6000803e3d6000fd5b61371081333087606001356001613d13565b61336f8587866060013560005b61376661373060a0860160808701614381565b84336137426040890160208a01614381565b61375260608a0160408b01614381565b878761376160a08d018d615046565b613ee2565b50505050565b6040805160608082018352600080835260208301529181019190915281516000036137be5750506040805160608101825260008082526020808301829052835190810184529081529181019190915290565b6101008251146137e157604051635435b28960e11b815260040160405180910390fd5b8180602001905181019061130b91906153df565b6128fd827f0000000000000000000000000000000000000000000000000000000000000000333087866001613f65565b6001609b1b8716156138995761389963b898895e60e01b8787878787876040516024016138579695949392919061547e565b60408051601f198184030181529190526020810180516001600160e01b03166001600160e01b0319909316929092179091526001600160a01b03891690613c55565b50505050505050565b806001600160a01b03163b600003612c8557604051631bd1ba9d60e21b81526001600160a01b03821660048201526024016107ba565b8060005b6007811015613a0a5760008282600781106138f9576138f9614cdd565b1a60f81b9050600282101561395557600360fc1b6001600160f81b0319821610806139315750603960f81b6001600160f81b03198216115b156139505783604051628b684360e31b81526004016107ba9190614ade565b613a01565b60058210156139a557604160f81b6001600160f81b0319821610806139315750602d60f91b6001600160f81b0319821611156139505783604051628b684360e31b81526004016107ba9190614ade565b6001600160f81b03198116158015906139e25750604160f81b6001600160f81b0319821610806139e25750602d60f91b6001600160f81b03198216115b15613a015783604051628b684360e31b81526004016107ba9190614ade565b506001016138dc565b506000613a1683613a3e565b9150508060ff166000036128fd5782604051628b684360e31b81526004016107ba9190614ade565b60008082600360fc1b6001600160f81b031982841a60f81b161080613a765750603960f81b8160001a60f81b6001600160f81b031916115b80613a945750600360fc1b8160011a60f81b6001600160f81b031916105b80613ab25750603960f81b8160011a60f81b6001600160f81b031916115b15613ad15783604051628b684360e31b81526004016107ba9190614ade565b6000613ae0603083831a6154d0565b613aeb90600a6154e9565b9050613afc6030600184901a6154d0565b613b069082615251565b60109290921b6001600160d81b031916959194509092505050565b6001600160601b0383166000908152600b6020526040812060038101805490839055600182015460048301548354613b6d926001600160a01b0390811692610cee92908216911661305d565b600482015461336f906001600160a01b0381169088908490600160981b16151589895b6001609e1b861615612ef157612ef163a5658c8660e01b868686868660405160240161315195949392919061538d565b6128fd6001600160a01b0384168383613fa8565b600060405163a9059cbb60e01b81526001600160a01b0384166004820152826024820152602060006044836000895af13d15601f3d11600160005114161716915050806137665760405162461bcd60e51b815260206004820152600f60248201526e1514905394d1915497d19052531151608a1b60448201526064016107ba565b600060208201519050600080846001600160a01b031684604051613c799190615505565b6000604051808303816000865af19150503d8060008114613cb6576040519150601f19603f3d011682016040523d82523d6000602084013e613cbb565b606091505b509150915081613cce57613cce81614028565b600081806020019051810190613ce49190615521565b90506001600160e01b031980821690851614612ef15760405163d1c96d5f60e01b815260040160405180910390fd5b6000811515600103613d8c576040516370a0823160e01b81526001600160a01b0385811660048301528716906370a0823190602401602060405180830381865afa158015613d65573d6000803e3d6000fd5b505050506040513d601f19601f82011682018060405250810190613d899190614eac565b90505b8215613da757613da76001600160a01b038716868686614050565b6001821515148015613e2a5750613dbe8382614e7c565b6040516370a0823160e01b81526001600160a01b0386811660048301528816906370a0823190602401602060405180830381865afa158015613e04573d6000803e3d6000fd5b505050506040513d601f19601f82011682018060405250810190613e289190614eac565b105b15612ef157604051635f8b555b60e11b81526001600160a01b03871660048201526024016107ba565b600080613e61600a84615561565b613e6c906030615251565b60f81b90506000613e7e600a85615583565b613e89906030615251565b6040516001600160f81b0319808516602083015260f89290921b91821660218201526001600160d81b031987166022820152909150602701604051602081830303815290604052613ed9906155a5565b95945050505050565b6001609f1b891615613f5a57613f5a6366e7416760e01b8989898989898989604051602401613f189897969594939291906155dc565b60408051601f198184030181529190526020810180516001600160e01b03166001600160e01b0319909316929092179091526001600160a01b038b1690613c55565b505050505050505050565b6001600160a01b03861615801590613f8257506000826040015151115b15613f9b57613f96878787878787876140e5565b613899565b6138998786868685613d13565b600060405163095ea7b360e01b81526001600160a01b0384166004820152826024820152602060006044836000895af13d15601f3d11600160005114161716915050806137665760405162461bcd60e51b815260206004820152600e60248201526d1054141493d59157d1905253115160921b60448201526064016107ba565b80511561403757805181602001fd5b60405163472850e360e11b815260040160405180910390fd5b60006040516323b872dd60e01b81526001600160a01b03851660048201526001600160a01b03841660248201528260448201526020600060648360008a5af13d15601f3d11600160005114161716915050806130385760405162461bcd60e51b81526020600482015260146024820152731514905394d1915497d19493d357d1905253115160621b60448201526064016107ba565b600081151560010361415e576040516370a0823160e01b81526001600160a01b0386811660048301528916906370a0823190602401602060405180830381865afa158015614137573d6000803e3d6000fd5b505050506040513d601f19601f8201168201806040525081019061415b9190614eac565b90505b6040805160a0810182526001600160a01b038a81166060830190815260808301889052825260208681015181840152865165ffffffffffff168385015283518085018552898316815290810188905286840151935163187945bd60e11b8152918b16936330f28b7a936141d8939092918c9160040161563d565b600060405180830381600087803b1580156141f257600080fd5b505af1158015614206573d6000803e3d6000fd5b50505050811515600114801561428d57506142218482614e7c565b6040516370a0823160e01b81526001600160a01b0387811660048301528a16906370a0823190602401602060405180830381865afa158015614267573d6000803e3d6000fd5b505050506040513d601f19601f8201168201806040525081019061428b9190614eac565b105b156142b657604051635f8b555b60e11b81526001600160a01b03891660048201526024016107ba565b5050505050505050565b80356001600160601b03811681146142d757600080fd5b919050565b6000806000604084860312156142f157600080fd5b6142fa846142c0565b925060208401356001600160401b038082111561431657600080fd5b818601915086601f83011261432a57600080fd5b81358181111561433957600080fd5b8760208260051b850101111561434e57600080fd5b6020830194508093505050509250925092565b6001600160a01b0381168114612c8557600080fd5b80356142d781614361565b60006020828403121561439357600080fd5b813561164081614361565b80356001600160d81b0319811681146142d757600080fd5b6000602082840312156143c857600080fd5b6116408261439e565b65ffffffffffff81168114612c8557600080fd5b8015158114612c8557600080fd5b6000806000806080858703121561440957600080fd5b8435614414816143d1565b93506020850135614424816143d1565b92506040850135614434816143e5565b9396929550929360600135925050565b60006020828403121561445657600080fd5b611640826142c0565b6001600160c81b031981168114612c8557600080fd5b60008060006060848603121561448a57600080fd5b83356144958161445f565b925060208401356144a58161445f565b915060408401356144b58161445f565b809150509250925092565b60008083601f8401126144d257600080fd5b5081356001600160401b038111156144e957600080fd5b60208301915083602082850101111561450157600080fd5b9250929050565b6000806000806060858703121561451e57600080fd5b614527856142c0565b93506020850135925060408501356001600160401b0381111561454957600080fd5b614555878288016144c0565b95989497509550505050565b60005b8381101561457c578181015183820152602001614564565b50506000910152565b6000815180845261459d816020860160208601614561565b601f01601f19169290920160200192915050565b84815283602082015282151560408201526080606082015260006145d86080830184614585565b9695505050505050565b6000806000604084860312156145f757600080fd5b614600846142c0565b925060208401356001600160401b0381111561461b57600080fd5b614627868287016144c0565b9497909650939450505050565b60008060006040848603121561464957600080fd5b83356146008161445f565b6020815260006116406020830184614585565b6001600160401b0381168114612c8557600080fd5b60008060006060848603121561469157600080fd5b61469a846142c0565b925060208401356146aa81614667565b929592945050506040919091013590565b600080600080606085870312156146d157600080fd5b84356001600160401b03808211156146e857600080fd5b9086019061012082890312156146fd57600080fd5b9094506020860135908082111561471357600080fd5b9086019060a0828903121561472757600080fd5b9093506040860135908082111561473d57600080fd5b50614555878288016144c0565b634e487b7160e01b600052604160045260246000fd5b60405160c081016001600160401b03811182821017156147825761478261474a565b60405290565b60405160a081016001600160401b03811182821017156147825761478261474a565b604051601f8201601f191681016001600160401b03811182821017156147d2576147d261474a565b604052919050565b60006001600160401b038211156147f3576147f361474a565b50601f01601f191660200190565b600082601f83011261481257600080fd5b8135614825614820826147da565b6147aa565b81815284602083860101111561483a57600080fd5b816020850160208301376000918101602001919091529392505050565b60008060006040848603121561486c57600080fd5b83356001600160401b038082111561488357600080fd5b9085019060c0828803121561489757600080fd5b61489f614760565b6148a8836142c0565b81526148b660208401614376565b60208201526148c760408401614376565b6040820152606083013560608201526080830135828111156148e857600080fd5b6148f489828601614801565b60808301525060a08301358281111561490c57600080fd5b61491889828601614801565b60a0830152509450602086013591508082111561493457600080fd5b50614627868287016144c0565b6000806040838503121561495457600080fd5b61495d8361439e565b9150602083013561496d816143d1565b809150509250929050565b6000806040838503121561498b57600080fd5b823561499681614361565b9150602083013561496d81614361565b6000602082840312156149b857600080fd5b5035919050565b6001600160a01b038a81168252898116602083015288811660408301526001600160c81b031988811660608401526080830188905290861660a0830152841660c082015282151560e08201526101206101008201819052600090614a2583820185614585565b9c9b505050505050505050505050565b600060208284031215614a4757600080fd5b81356116408161445f565b600080600060608486031215614a6757600080fd5b614a708461439e565b9250602084013560038110614a8457600080fd5b915060408401356144b5816143d1565b60008060408385031215614aa757600080fd5b6149968361439e565b60008060408385031215614ac357600080fd5b8235614ace8161445f565b9150602083013561496d8161445f565b6001600160c81b031991909116815260200190565b6020808252600a90820152695245454e5452414e435960b01b604082015260600190565b6001600160601b038416815260406020808301829052908201839052600090849060608401835b86811015614b6c578335614b5181614667565b6001600160401b031682529282019290820190600101614b3e565b50979650505050505050565b600082601f830112614b8957600080fd5b8151614b97614820826147da565b818152846020838601011115614bac57600080fd5b613119826020830160208701614561565b6000806040808486031215614bd157600080fd5b83516001600160401b0380821115614be857600080fd5b818601915086601f830112614bfc57600080fd5b8151602082821115614c1057614c1061474a565b614c1e818360051b016147aa565b82815260a0928302850182019282820191908b851115614c3d57600080fd5b958301955b84871015614cab5780878d031215614c5a5760008081fd5b614c62614788565b8751614c6d81614361565b815287850151614c7c81614361565b818601528789015189820152606080890151908201526080808901519082015283529586019591830191614c42565b5091890151919750909450505080831115614cc557600080fd5b5050614cd385828601614b78565b9150509250929050565b634e487b7160e01b600052603260045260246000fd5b634e487b7160e01b600052601160045260246000fd5b8181038181111561130b5761130b614cf3565b600181811c90821680614d3057607f821691505b602082108103614d5057634e487b7160e01b600052602260045260246000fd5b50919050565b600060208284031215614d6857600080fd5b813561164081614667565b600060018201614d8557614d85614cf3565b5060010190565b6020808252600c908201526b15539055551213d49256915160a21b604082015260600190565b65ffffffffffff818116838216019080821115614dd157614dd1614cf3565b5092915050565b634e487b7160e01b600052602160045260246000fd5b600060208284031215614e0057600080fd5b81516004811061164057600080fd5b600080600080600060a08688031215614e2757600080fd5b8551945060208601519350604086015192506060860151614e47816143e5565b60808701519092506001600160401b03811115614e6357600080fd5b614e6f88828901614b78565b9150509295509295909350565b8082018082111561130b5761130b614cf3565b600060208284031215614ea157600080fd5b8151611640816143e5565b600060208284031215614ebe57600080fd5b5051919050565b8183823760009101908152919050565b60006001600160601b03808316818103614ef157614ef1614cf3565b6001019392505050565b600060208284031215614f0d57600080fd5b815160ff8116811461164057600080fd5b81835281816020850137506000828201602090810191909152601f909101601f19169091010190565b6001600160601b03851681526080602082015260008435614f67816143d1565b65ffffffffffff9081166080840152602086013590614f85826143d1565b1660a08301526040850135614f99816143e5565b151560c0830152606085013560e0830152608085013536869003601e19018112614fc257600080fd5b85016020810190356001600160401b03811115614fde57600080fd5b803603821315614fed57600080fd5b60a061010085015261500461012085018284614f1e565b92505050615017604083018560ff169052565b60ff8316606083015295945050505050565b60006020828403121561503b57600080fd5b81516116408161445f565b6000808335601e1984360301811261505d57600080fd5b8301803591506001600160401b0382111561507757600080fd5b60200191503681900382131561450157600080fd5b6001600160a01b0384168152604060208201819052600090613ed99083018486614f1e565b601f8211156128fd57600081815260208120601f850160051c810160208610156150d85750805b601f850160051c820191505b81811015612ef1578281556001016150e4565b6001600160401b0383111561510e5761510e61474a565b6151228361511c8354614d1c565b836150b1565b6000601f841160018114615156576000851561513e5750838201355b600019600387901b1c1916600186901b178355613038565b600083815260209020601f19861690835b828110156151875786850135825560209485019460019092019101615167565b50868210156151a45760001960f88860031b161c19848701351681555b505060018560011b0183555050505050565b6000602082840312156151c857600080fd5b8135611640816143e5565b602081526000613119602083018486614f1e565b6001600160601b03861681526001600160a01b038581166020830152841660408201526060810183905260a06080820181905260009061522990830184614585565b979650505050505050565b60006020828403121561524657600080fd5b815161164081614667565b60ff818116838216019081111561130b5761130b614cf3565b6001600160d81b031992909216825260ff16602082015260400190565b60408152600061529a6040830185614585565b8281036020840152613ed98185614585565b6000602082840312156152be57600080fd5b81516001600160401b038111156152d457600080fd5b61311984828501614b78565b6001600160a01b0386811682528516602082015260a06040820181905260009061530c90830186614585565b6060830194909452509015156080909101529392505050565b60008060006060848603121561533a57600080fd5b83519250602084015161534c81614361565b80925050604084015190509250925092565b6001600160601b0386168152846020820152836040820152608060608201526000615229608083018486614f1e565b6001600160601b03861681528460208201528315156040820152608060608201526000615229608083018486614f1e565b6000602082840312156153d057600080fd5b81516002811061164057600080fd5b6000602082840312156153f157600080fd5b81516001600160401b038082111561540857600080fd5b908301906060828603121561541c57600080fd5b6040516060810181811083821117156154375761543761474a565b6040528251615445816143d1565b81526020838101519082015260408301518281111561546357600080fd5b61546f87828601614b78565b60408301525095945050505050565b6001600160601b03871681526001600160401b038616602082015260018060a01b038516604082015283606082015260a0608082015260006154c460a083018486614f1e565b98975050505050505050565b60ff828116828216039081111561130b5761130b614cf3565b60ff8181168382160290811690818114614dd157614dd1614cf3565b60008251615517818460208701614561565b9190910192915050565b60006020828403121561553357600080fd5b81516001600160e01b03198116811461164057600080fd5b634e487b7160e01b600052601260045260246000fd5b600060ff8316806155745761557461554b565b8060ff84160491505092915050565b600060ff8316806155965761559661554b565b8060ff84160691505092915050565b805160208201516001600160c81b031980821692919060078310156155d45780818460070360031b1b83161693505b505050919050565b6001600160601b03891681526001600160a01b0388811660208301528781166040830152861660608201526080810185905283151560a082015260e060c0820181905260009061562f9083018486614f1e565b9a9950505050505050505050565b600061010061566083885180516001600160a01b03168252602090810151910152565b6020870151604084015260408701516060840152615694608084018780516001600160a01b03168252602090810151910152565b6001600160a01b03851660c084015260e083018190526152298184018561458556fea2646970667358221220b5362d67b267b8d59c686b24aed585515892a4bc41810043ba0c800dd7ab817e64736f6c63430008130033",
    "linkReferences": {}
  },
  "methodIdentifiers": {
    "abort(uint96)": "1ed75f1f",
    "auction((bytes5,address,address,address,address,bytes,bytes5,bytes,bool),(uint48,uint48,bool,uint256,bytes),string)": "5a3eb399",
    "bid((uint96,address,address,uint256,bytes,bytes),bytes)": "6e9c996d",
    "calculateQuoteFees(uint48,uint48,bool,uint256)": "0bad843b",
    "cancel(uint96,bytes)": "cf042fb0",
    "claimBids(uint96,uint64[])": "0a35511b",
    "claimRewards(address)": "ef5cfb8c",
    "condensers(bytes7,bytes7)": "f4b26181",
    "curate(uint96,bytes)": "505f901a",
    "execOnModule(bytes7,bytes)": "50ab0489",
    "fees(bytes5)": "31d72d6b",
    "getBatchModuleForId(uint96)": "3ab3f98e",
    "getCuratorFee(bytes5,address)": "e814b76a",
    "getFees(bytes5)": "0ab9a1ee",
    "getModuleForId(uint96)": "a50076f7",
    "getModuleForVeecode(bytes7)": "9e55cba3",
    "getModuleStatus(bytes5)": "5bb27aab",
    "getProtocol()": "d16352af",
    "getRewards(address,address)": "779bcb9b",
    "installModule(address)": "7eb1e761",
    "isExecOnModule()": "5c774ed7",
    "lotCounter()": "c4ce88fd",
    "lotFees(uint96)": "ea072e70",
    "lotRouting(uint96)": "9e2e003a",
    "modules(uint256)": "81b2248a",
    "modulesCount()": "f315aafe",
    "owner()": "8da5cb5b",
    "refundBid(uint96,uint64,uint256)": "510bd273",
    "rewards(address,address)": "e70b9e27",
    "setCondenser(bytes7,bytes7,bytes7)": "20b15fe4",
    "setCuratorFee(bytes5,uint48)": "7249c0d5",
    "setFee(bytes5,uint8,uint48)": "c74c149b",
    "setProtocol(address)": "0a9d793d",
    "settle(uint96,uint256,bytes)": "367b02fb",
    "sunsetModule(bytes5)": "c75519ba",
    "transferOwnership(address)": "f2fde38b"
  },
  "id": 110
}