{
  "abi": [
    {
      "type": "constructor",
      "inputs": [
        {
          "name": "auctionHouse_",
          "type": "address",
          "internalType": "address"
        }
      ],
      "stateMutability": "nonpayable"
    },
    {
      "type": "function",
      "name": "auctionHouse",
      "inputs": [],
      "outputs": [
        {
          "name": "",
          "type": "address",
          "internalType": "address"
        }
      ],
      "stateMutability": "view"
    },
    {
      "type": "function",
      "name": "getAuctionsByBaseToken",
      "inputs": [
        {
          "name": "baseToken_",
          "type": "address",
          "internalType": "contract ERC20"
        },
        {
          "name": "startId_",
          "type": "uint96",
          "internalType": "uint96"
        },
        {
          "name": "count_",
          "type": "uint96",
          "internalType": "uint96"
        }
      ],
      "outputs": [
        {
          "name": "",
          "type": "uint96[]",
          "internalType": "uint96[]"
        }
      ],
      "stateMutability": "view"
    },
    {
      "type": "function",
      "name": "getAuctionsByQuoteToken",
      "inputs": [
        {
          "name": "quoteToken_",
          "type": "address",
          "internalType": "contract ERC20"
        },
        {
          "name": "startId_",
          "type": "uint96",
          "internalType": "uint96"
        },
        {
          "name": "count_",
          "type": "uint96",
          "internalType": "uint96"
        }
      ],
      "outputs": [
        {
          "name": "",
          "type": "uint96[]",
          "internalType": "uint96[]"
        }
      ],
      "stateMutability": "view"
    },
    {
      "type": "function",
      "name": "getAuctionsBySeller",
      "inputs": [
        {
          "name": "seller_",
          "type": "address",
          "internalType": "address"
        },
        {
          "name": "startId_",
          "type": "uint96",
          "internalType": "uint96"
        },
        {
          "name": "count_",
          "type": "uint96",
          "internalType": "uint96"
        }
      ],
      "outputs": [
        {
          "name": "",
          "type": "uint96[]",
          "internalType": "uint96[]"
        }
      ],
      "stateMutability": "view"
    },
    {
      "type": "function",
      "name": "getAuctionsByType",
      "inputs": [
        {
          "name": "auctionReference_",
          "type": "bytes7",
          "internalType": "Veecode"
        },
        {
          "name": "startId_",
          "type": "uint96",
          "internalType": "uint96"
        },
        {
          "name": "count_",
          "type": "uint96",
          "internalType": "uint96"
        }
      ],
      "outputs": [
        {
          "name": "",
          "type": "uint96[]",
          "internalType": "uint96[]"
        }
      ],
      "stateMutability": "view"
    },
    {
      "type": "function",
      "name": "getBidIds",
      "inputs": [
        {
          "name": "lotId_",
          "type": "uint96",
          "internalType": "uint96"
        },
        {
          "name": "start_",
          "type": "uint256",
          "internalType": "uint256"
        },
        {
          "name": "count_",
          "type": "uint256",
          "internalType": "uint256"
        }
      ],
      "outputs": [
        {
          "name": "",
          "type": "uint64[]",
          "internalType": "uint64[]"
        }
      ],
      "stateMutability": "view"
    },
    {
      "type": "function",
      "name": "getLiveAuctions",
      "inputs": [
        {
          "name": "startId_",
          "type": "uint96",
          "internalType": "uint96"
        },
        {
          "name": "count_",
          "type": "uint96",
          "internalType": "uint96"
        }
      ],
      "outputs": [
        {
          "name": "",
          "type": "uint96[]",
          "internalType": "uint96[]"
        }
      ],
      "stateMutability": "view"
    },
    {
      "type": "function",
      "name": "getMaxLotId",
      "inputs": [],
      "outputs": [
        {
          "name": "",
          "type": "uint96",
          "internalType": "uint96"
        }
      ],
      "stateMutability": "view"
    },
    {
      "type": "function",
      "name": "getRouting",
      "inputs": [
        {
          "name": "lotId_",
          "type": "uint96",
          "internalType": "uint96"
        }
      ],
      "outputs": [
        {
          "name": "",
          "type": "tuple",
          "internalType": "struct AuctionHouse.Routing",
          "components": [
            {
              "name": "seller",
              "type": "address",
              "internalType": "address"
            },
            {
              "name": "baseToken",
              "type": "address",
              "internalType": "contract ERC20"
            },
            {
              "name": "quoteToken",
              "type": "address",
              "internalType": "contract ERC20"
            },
            {
              "name": "auctionReference",
              "type": "bytes7",
              "internalType": "Veecode"
            },
            {
              "name": "funding",
              "type": "uint256",
              "internalType": "uint256"
            },
            {
              "name": "callbacks",
              "type": "address",
              "internalType": "contract ICallback"
            },
            {
              "name": "derivativeReference",
              "type": "bytes7",
              "internalType": "Veecode"
            },
            {
              "name": "wrapDerivative",
              "type": "bool",
              "internalType": "bool"
            },
            {
              "name": "derivativeParams",
              "type": "bytes",
              "internalType": "bytes"
            }
          ]
        }
      ],
      "stateMutability": "view"
    },
    {
      "type": "function",
      "name": "hasEnded",
      "inputs": [
        {
          "name": "lotId_",
          "type": "uint96",
          "internalType": "uint96"
        }
      ],
      "outputs": [
        {
          "name": "",
          "type": "bool",
          "internalType": "bool"
        }
      ],
      "stateMutability": "view"
    },
    {
      "type": "function",
      "name": "isLive",
      "inputs": [
        {
          "name": "lotId_",
          "type": "uint96",
          "internalType": "uint96"
        }
      ],
      "outputs": [
        {
          "name": "",
          "type": "bool",
          "internalType": "bool"
        }
      ],
      "stateMutability": "view"
    },
    {
      "type": "function",
      "name": "remainingCapacity",
      "inputs": [
        {
          "name": "lotId_",
          "type": "uint96",
          "internalType": "uint96"
        }
      ],
      "outputs": [
        {
          "name": "",
          "type": "uint256",
          "internalType": "uint256"
        }
      ],
      "stateMutability": "view"
    },
    {
      "type": "error",
      "name": "InvalidParams",
      "inputs": []
    }
  ],
  "bytecode": {
    "object": "0x608060405234801561001057600080fd5b506040516115cb3803806115cb83398101604081905261002f91610054565b600080546001600160a01b0319166001600160a01b0392909216919091179055610084565b60006020828403121561006657600080fd5b81516001600160a01b038116811461007d57600080fd5b9392505050565b611538806100936000396000f3fe608060405234801561001057600080fd5b50600436106100b35760003560e01c8063b66f496311610071578063b66f49631461016b578063d831a7551461017e578063df3f55731461019e578063ed9152c8146101b1578063f39866b0146101dc578063f614ad8b146101fc57600080fd5b8062b33217146100b857806303855921146100e15780633251dcc8146101045780636fe4c40214610124578063732efc0314610137578063ace54da51461014a575b600080fd5b6100cb6100c6366004610ec2565b61020f565b6040516100d89190610ef7565b60405180910390f35b6100f46100ef366004610f45565b610314565b60405190151581526020016100d8565b610117610112366004610f77565b610406565b6040516100d89190610fc2565b610117610132366004610f77565b610568565b6100f4610145366004610f45565b6106c5565b61015d610158366004610f45565b610773565b6040519081526020016100d8565b610117610179366004611003565b61085d565b610186610998565b6040516001600160601b0390911681526020016100d8565b6101176101ac366004610f77565b610a16565b6000546101c4906001600160a01b031681565b6040516001600160a01b0390911681526020016100d8565b6101ef6101ea366004610f45565b610b73565b6040516100d8919061108c565b61011761020a366004611176565b610cb6565b60008054604051631d59fcc760e11b81526001600160601b0386166004820152606092916001600160a01b031690633ab3f98e90602401602060405180830381865afa158015610263573d6000803e3d6000fd5b505050506040513d601f19601f820116820180604052508101906102879190611196565b60405162b3321760e01b81526001600160601b038716600482015260248101869052604481018590529091506001600160a01b0382169062b3321790606401600060405180830381865afa1580156102e3573d6000803e3d6000fd5b505050506040513d6000823e601f3d908101601f1916820160405261030b91908101906111fa565b95945050505050565b6000805460405163a50076f760e01b81526001600160601b038416600482015282916001600160a01b03169063a50076f790602401602060405180830381865afa158015610366573d6000803e3d6000fd5b505050506040513d601f19601f8201168201806040525081019061038a9190611196565b604051630385592160e01b81526001600160601b03851660048201529091506001600160a01b038216906303855921906024015b602060405180830381865afa1580156103db573d6000803e3d6000fd5b505050506040513d601f19601f820116820180604052508101906103ff91906112c6565b9392505050565b606060006104148484610e1c565b90506000845b61042d836001600160601b0388166112f7565b816001600160601b0316101561047f57866001600160a01b031661045082610b73565b516001600160a01b03160361046d57816104698161130a565b9250505b8061047781611323565b91505061041a565b5060008167ffffffffffffffff81111561049b5761049b6111b3565b6040519080825280602002602001820160405280156104c4578160200160208202803683370190505b50600092509050855b6104e0846001600160601b0389166112f7565b816001600160601b0316101561055d57876001600160a01b031661050382610b73565b516001600160a01b03160361054b578082848151811061052557610525611349565b6001600160601b0390921660209283029190910190910152826105478161130a565b9350505b8061055581611323565b9150506104cd565b509695505050505050565b606060006105768484610e1c565b90506000845b61058f836001600160601b0388166112f7565b816001600160601b031610156105e457866001600160a01b03166105b282610b73565b604001516001600160a01b0316036105d257816105ce8161130a565b9250505b806105dc81611323565b91505061057c565b5060008167ffffffffffffffff811115610600576106006111b3565b604051908082528060200260200182016040528015610629578160200160208202803683370190505b50600092509050855b610645846001600160601b0389166112f7565b816001600160601b0316101561055d57876001600160a01b031661066882610b73565b604001516001600160a01b0316036106b3578082848151811061068d5761068d611349565b6001600160601b0390921660209283029190910190910152826106af8161130a565b9350505b806106bd81611323565b915050610632565b6000805460405163a50076f760e01b81526001600160601b038416600482015282916001600160a01b03169063a50076f790602401602060405180830381865afa158015610717573d6000803e3d6000fd5b505050506040513d601f19601f8201168201806040525081019061073b9190611196565b60405163732efc0360e01b81526001600160601b03851660048201529091506001600160a01b0382169063732efc03906024016103be565b6000805460405163a50076f760e01b81526001600160601b038416600482015282916001600160a01b03169063a50076f790602401602060405180830381865afa1580156107c5573d6000803e3d6000fd5b505050506040513d601f19601f820116820180604052508101906107e99190611196565b60405163ace54da560e01b81526001600160601b03851660048201529091506001600160a01b0382169063ace54da590602401602060405180830381865afa158015610839573d6000803e3d6000fd5b505050506040513d601f19601f820116820180604052508101906103ff919061135f565b6060600061086b8484610e1c565b90506000845b610884836001600160601b0388166112f7565b816001600160601b031610156108c25761089d816106c5565b156108b057816108ac8161130a565b9250505b806108ba81611323565b915050610871565b5060008167ffffffffffffffff8111156108de576108de6111b3565b604051908082528060200260200182016040528015610907578160200160208202803683370190505b50600092509050855b610923846001600160601b0389166112f7565b816001600160601b0316101561098c5761093c816106c5565b1561097a578082848151811061095457610954611349565b6001600160601b0390921660209283029190910190910152826109768161130a565b9350505b8061098481611323565b915050610910565b50925050505b92915050565b600080546040805163c4ce88fd60e01b815290516001926001600160a01b03169163c4ce88fd9160048083019260209291908290030181865afa1580156109e3573d6000803e3d6000fd5b505050506040513d601f19601f82011682018060405250810190610a079190611378565b610a119190611395565b905090565b60606000610a248484610e1c565b90506000845b610a3d836001600160601b0388166112f7565b816001600160601b03161015610a9257866001600160a01b0316610a6082610b73565b602001516001600160a01b031603610a805781610a7c8161130a565b9250505b80610a8a81611323565b915050610a2a565b5060008167ffffffffffffffff811115610aae57610aae6111b3565b604051908082528060200260200182016040528015610ad7578160200160208202803683370190505b50600092509050855b610af3846001600160601b0389166112f7565b816001600160601b0316101561055d57876001600160a01b0316610b1682610b73565b602001516001600160a01b031603610b615780828481518110610b3b57610b3b611349565b6001600160601b039092166020928302919091019091015282610b5d8161130a565b9350505b80610b6b81611323565b915050610ae0565b604080516101208101825260008082526020820181905281830181905260608083018290526080830182905260a0830182905260c0830182905260e0830182905261010083015280549251634f17001d60e11b81526001600160601b038516600482015291929091829182918291829182918291829182916001600160a01b0390911690639e2e003a90602401600060405180830381865afa158015610c1d573d6000803e3d6000fd5b505050506040513d6000823e601f3d908101601f19168201604052610c4591908101906113bc565b60408051610120810182526001600160a01b039a8b168152988a1660208a0152968916968801969096526001600160c81b031994851660608801526080870193909352951660a0850152931660c083015291151560e08201526101008101919091529b9a5050505050505050505050565b60606000610cc48484610e1c565b90506000845b610cdd836001600160601b0388166112f7565b816001600160601b03161015610d3a57866001600160c81b031916610d0b610d0483610b73565b6060015190565b6001600160c81b03191603610d285781610d248161130a565b9250505b80610d3281611323565b915050610cca565b5060008167ffffffffffffffff811115610d5657610d566111b3565b604051908082528060200260200182016040528015610d7f578160200160208202803683370190505b50600092509050855b610d9b846001600160601b0389166112f7565b816001600160601b0316101561055d57876001600160c81b031916610dc2610d0483610b73565b6001600160c81b03191603610e0a5780828481518110610de457610de4611349565b6001600160601b039092166020928302919091019091015282610e068161130a565b9350505b80610e1481611323565b915050610d88565b600080610e27610998565b9050806001600160601b0316846001600160601b03161115610e5c57604051635435b28960e11b815260040160405180910390fd5b6001600160601b038116610e7084866114e2565b6001600160601b031611610e845782610e99565b610e8e8482611395565b610e999060016114e2565b6001600160601b0316949350505050565b6001600160601b0381168114610ebf57600080fd5b50565b600080600060608486031215610ed757600080fd5b8335610ee281610eaa565b95602085013595506040909401359392505050565b6020808252825182820181905260009190848201906040850190845b81811015610f3957835167ffffffffffffffff1683529284019291840191600101610f13565b50909695505050505050565b600060208284031215610f5757600080fd5b81356103ff81610eaa565b6001600160a01b0381168114610ebf57600080fd5b600080600060608486031215610f8c57600080fd5b8335610f9781610f62565b92506020840135610fa781610eaa565b91506040840135610fb781610eaa565b809150509250925092565b6020808252825182820181905260009190848201906040850190845b81811015610f395783516001600160601b031683529284019291840191600101610fde565b6000806040838503121561101657600080fd5b823561102181610eaa565b9150602083013561103181610eaa565b809150509250929050565b60005b8381101561105757818101518382015260200161103f565b50506000910152565b6000815180845261107881602086016020860161103c565b601f01601f19169290920160200192915050565b602081526110a66020820183516001600160a01b03169052565b600060208301516110c260408401826001600160a01b03169052565b5060408301516001600160a01b03811660608401525060608301516001600160c81b03198116608084015250608083015160a083015260a083015161111260c08401826001600160a01b03169052565b5060c08301516001600160c81b0319811660e08401525060e083015161010061113e8185018315159052565b840151610120848101529050611158610140840182611060565b949350505050565b6001600160c81b031981168114610ebf57600080fd5b60008060006060848603121561118b57600080fd5b8335610f9781611160565b6000602082840312156111a857600080fd5b81516103ff81610f62565b634e487b7160e01b600052604160045260246000fd5b604051601f8201601f1916810167ffffffffffffffff811182821017156111f2576111f26111b3565b604052919050565b6000602080838503121561120d57600080fd5b825167ffffffffffffffff8082111561122557600080fd5b818501915085601f83011261123957600080fd5b81518181111561124b5761124b6111b3565b8060051b61125a8582016111c9565b918252838101850191858101908984111561127457600080fd5b948601945b838610156112a4578551925084831683146112945760008081fd5b8282529486019490860190611279565b9998505050505050505050565b805180151581146112c157600080fd5b919050565b6000602082840312156112d857600080fd5b6103ff826112b1565b634e487b7160e01b600052601160045260246000fd5b80820180821115610992576109926112e1565b60006001820161131c5761131c6112e1565b5060010190565b60006001600160601b0380831681810361133f5761133f6112e1565b6001019392505050565b634e487b7160e01b600052603260045260246000fd5b60006020828403121561137157600080fd5b5051919050565b60006020828403121561138a57600080fd5b81516103ff81610eaa565b6001600160601b038281168282160390808211156113b5576113b56112e1565b5092915050565b60008060008060008060008060006101208a8c0312156113db57600080fd5b89516113e681610f62565b60208b01519099506113f781610f62565b60408b015190985061140881610f62565b60608b015190975061141981611160565b60808b015160a08c0151919750955061143181610f62565b60c08b015190945061144281611160565b925061145060e08b016112b1565b91506101008a015167ffffffffffffffff8082111561146e57600080fd5b818c0191508c601f83011261148257600080fd5b815181811115611494576114946111b3565b6114a7601f8201601f19166020016111c9565b91508082528d60208285010111156114be57600080fd5b6114cf81602084016020860161103c565b5080925050509295985092959850929598565b6001600160601b038181168382160190808211156113b5576113b56112e156fea264697066735822122054dd7f833306b2d9b96f7adc6da840992d0dafe123abbb79d0dd030aac64355464736f6c63430008130033",
    "linkReferences": {}
  },
  "methodIdentifiers": {
    "auctionHouse()": "ed9152c8",
    "getAuctionsByBaseToken(address,uint96,uint96)": "df3f5573",
    "getAuctionsByQuoteToken(address,uint96,uint96)": "6fe4c402",
    "getAuctionsBySeller(address,uint96,uint96)": "3251dcc8",
    "getAuctionsByType(bytes7,uint96,uint96)": "f614ad8b",
    "getBidIds(uint96,uint256,uint256)": "00b33217",
    "getLiveAuctions(uint96,uint96)": "b66f4963",
    "getMaxLotId()": "d831a755",
    "getRouting(uint96)": "f39866b0",
    "hasEnded(uint96)": "03855921",
    "isLive(uint96)": "732efc03",
    "remainingCapacity(uint96)": "ace54da5"
  },
  "id": 111
}