{
  "abi": [
    {
      "type": "constructor",
      "inputs": [
        {
          "name": "owner_",
          "type": "address",
          "internalType": "address"
        },
        {
          "name": "protocol_",
          "type": "address",
          "internalType": "address"
        },
        {
          "name": "permit2_",
          "type": "address",
          "internalType": "address"
        }
      ],
      "stateMutability": "nonpayable"
    },
    {
      "type": "function",
      "name": "auction",
      "inputs": [
        {
          "name": "routing_",
          "type": "tuple",
          "internalType": "struct IAuctionHouse.RoutingParams",
          "components": [
            {
              "name": "auctionType",
              "type": "bytes5",
              "internalType": "Keycode"
            },
            {
              "name": "baseToken",
              "type": "address",
              "internalType": "address"
            },
            {
              "name": "quoteToken",
              "type": "address",
              "internalType": "address"
            },
            {
              "name": "curator",
              "type": "address",
              "internalType": "address"
            },
            {
              "name": "callbacks",
              "type": "address",
              "internalType": "contract ICallback"
            },
            {
              "name": "callbackData",
              "type": "bytes",
              "internalType": "bytes"
            },
            {
              "name": "derivativeType",
              "type": "bytes5",
              "internalType": "Keycode"
            },
            {
              "name": "derivativeParams",
              "type": "bytes",
              "internalType": "bytes"
            },
            {
              "name": "wrapDerivative",
              "type": "bool",
              "internalType": "bool"
            }
          ]
        },
        {
          "name": "params_",
          "type": "tuple",
          "internalType": "struct IAuction.AuctionParams",
          "components": [
            {
              "name": "start",
              "type": "uint48",
              "internalType": "uint48"
            },
            {
              "name": "duration",
              "type": "uint48",
              "internalType": "uint48"
            },
            {
              "name": "capacityInQuote",
              "type": "bool",
              "internalType": "bool"
            },
            {
              "name": "capacity",
              "type": "uint256",
              "internalType": "uint256"
            },
            {
              "name": "implParams",
              "type": "bytes",
              "internalType": "bytes"
            }
          ]
        },
        {
          "name": "infoHash_",
          "type": "string",
          "internalType": "string"
        }
      ],
      "outputs": [
        {
          "name": "lotId",
          "type": "uint96",
          "internalType": "uint96"
        }
      ],
      "stateMutability": "nonpayable"
    },
    {
      "type": "function",
      "name": "bid",
      "inputs": [
        {
          "name": "params_",
          "type": "tuple",
          "internalType": "struct IBatchAuctionHouse.BidParams",
          "components": [
            {
              "name": "lotId",
              "type": "uint96",
              "internalType": "uint96"
            },
            {
              "name": "referrer",
              "type": "address",
              "internalType": "address"
            },
            {
              "name": "amount",
              "type": "uint256",
              "internalType": "uint256"
            },
            {
              "name": "auctionData",
              "type": "bytes",
              "internalType": "bytes"
            },
            {
              "name": "permit2Data",
              "type": "bytes",
              "internalType": "bytes"
            }
          ]
        },
        {
          "name": "callbackData_",
          "type": "bytes",
          "internalType": "bytes"
        }
      ],
      "outputs": [
        {
          "name": "bidId",
          "type": "uint64",
          "internalType": "uint64"
        }
      ],
      "stateMutability": "nonpayable"
    },
    {
      "type": "function",
      "name": "calculateQuoteFees",
      "inputs": [
        {
          "name": "protocolFee_",
          "type": "uint48",
          "internalType": "uint48"
        },
        {
          "name": "referrerFee_",
          "type": "uint48",
          "internalType": "uint48"
        },
        {
          "name": "hasReferrer_",
          "type": "bool",
          "internalType": "bool"
        },
        {
          "name": "amount_",
          "type": "uint256",
          "internalType": "uint256"
        }
      ],
      "outputs": [
        {
          "name": "toReferrer",
          "type": "uint256",
          "internalType": "uint256"
        },
        {
          "name": "toProtocol",
          "type": "uint256",
          "internalType": "uint256"
        }
      ],
      "stateMutability": "pure"
    },
    {
      "type": "function",
      "name": "cancel",
      "inputs": [
        {
          "name": "lotId_",
          "type": "uint96",
          "internalType": "uint96"
        },
        {
          "name": "callbackData_",
          "type": "bytes",
          "internalType": "bytes"
        }
      ],
      "outputs": [],
      "stateMutability": "nonpayable"
    },
    {
      "type": "function",
      "name": "claimBids",
      "inputs": [
        {
          "name": "lotId_",
          "type": "uint96",
          "internalType": "uint96"
        },
        {
          "name": "bidIds_",
          "type": "uint64[]",
          "internalType": "uint64[]"
        }
      ],
      "outputs": [],
      "stateMutability": "nonpayable"
    },
    {
      "type": "function",
      "name": "claimProceeds",
      "inputs": [
        {
          "name": "lotId_",
          "type": "uint96",
          "internalType": "uint96"
        },
        {
          "name": "callbackData_",
          "type": "bytes",
          "internalType": "bytes"
        }
      ],
      "outputs": [],
      "stateMutability": "nonpayable"
    },
    {
      "type": "function",
      "name": "claimRewards",
      "inputs": [
        {
          "name": "token_",
          "type": "address",
          "internalType": "address"
        }
      ],
      "outputs": [],
      "stateMutability": "nonpayable"
    },
    {
      "type": "function",
      "name": "condensers",
      "inputs": [
        {
          "name": "auctionRef",
          "type": "bytes7",
          "internalType": "Veecode"
        },
        {
          "name": "derivativeRef",
          "type": "bytes7",
          "internalType": "Veecode"
        }
      ],
      "outputs": [
        {
          "name": "condenserRef",
          "type": "bytes7",
          "internalType": "Veecode"
        }
      ],
      "stateMutability": "view"
    },
    {
      "type": "function",
      "name": "curate",
      "inputs": [
        {
          "name": "lotId_",
          "type": "uint96",
          "internalType": "uint96"
        },
        {
          "name": "callbackData_",
          "type": "bytes",
          "internalType": "bytes"
        }
      ],
      "outputs": [],
      "stateMutability": "nonpayable"
    },
    {
      "type": "function",
      "name": "execOnModule",
      "inputs": [
        {
          "name": "veecode_",
          "type": "bytes7",
          "internalType": "Veecode"
        },
        {
          "name": "callData_",
          "type": "bytes",
          "internalType": "bytes"
        }
      ],
      "outputs": [
        {
          "name": "",
          "type": "bytes",
          "internalType": "bytes"
        }
      ],
      "stateMutability": "nonpayable"
    },
    {
      "type": "function",
      "name": "fees",
      "inputs": [
        {
          "name": "",
          "type": "bytes5",
          "internalType": "Keycode"
        }
      ],
      "outputs": [
        {
          "name": "protocol",
          "type": "uint48",
          "internalType": "uint48"
        },
        {
          "name": "referrer",
          "type": "uint48",
          "internalType": "uint48"
        },
        {
          "name": "maxCuratorFee",
          "type": "uint48",
          "internalType": "uint48"
        }
      ],
      "stateMutability": "view"
    },
    {
      "type": "function",
      "name": "getBatchModuleForId",
      "inputs": [
        {
          "name": "lotId_",
          "type": "uint96",
          "internalType": "uint96"
        }
      ],
      "outputs": [
        {
          "name": "",
          "type": "address",
          "internalType": "contract BatchAuctionModule"
        }
      ],
      "stateMutability": "view"
    },
    {
      "type": "function",
      "name": "getCuratorFee",
      "inputs": [
        {
          "name": "auctionType_",
          "type": "bytes5",
          "internalType": "Keycode"
        },
        {
          "name": "curator_",
          "type": "address",
          "internalType": "address"
        }
      ],
      "outputs": [
        {
          "name": "curatorFee",
          "type": "uint48",
          "internalType": "uint48"
        }
      ],
      "stateMutability": "view"
    },
    {
      "type": "function",
      "name": "getFees",
      "inputs": [
        {
          "name": "auctionType_",
          "type": "bytes5",
          "internalType": "Keycode"
        }
      ],
      "outputs": [
        {
          "name": "protocol",
          "type": "uint48",
          "internalType": "uint48"
        },
        {
          "name": "referrer",
          "type": "uint48",
          "internalType": "uint48"
        },
        {
          "name": "maxCuratorFee",
          "type": "uint48",
          "internalType": "uint48"
        }
      ],
      "stateMutability": "view"
    },
    {
      "type": "function",
      "name": "getModuleForId",
      "inputs": [
        {
          "name": "lotId_",
          "type": "uint96",
          "internalType": "uint96"
        }
      ],
      "outputs": [
        {
          "name": "",
          "type": "address",
          "internalType": "contract AuctionModule"
        }
      ],
      "stateMutability": "view"
    },
    {
      "type": "function",
      "name": "getModuleForVeecode",
      "inputs": [
        {
          "name": "",
          "type": "bytes7",
          "internalType": "Veecode"
        }
      ],
      "outputs": [
        {
          "name": "",
          "type": "address",
          "internalType": "contract Module"
        }
      ],
      "stateMutability": "view"
    },
    {
      "type": "function",
      "name": "getModuleStatus",
      "inputs": [
        {
          "name": "",
          "type": "bytes5",
          "internalType": "Keycode"
        }
      ],
      "outputs": [
        {
          "name": "latestVersion",
          "type": "uint8",
          "internalType": "uint8"
        },
        {
          "name": "sunset",
          "type": "bool",
          "internalType": "bool"
        }
      ],
      "stateMutability": "view"
    },
    {
      "type": "function",
      "name": "getProtocol",
      "inputs": [],
      "outputs": [
        {
          "name": "",
          "type": "address",
          "internalType": "address"
        }
      ],
      "stateMutability": "view"
    },
    {
      "type": "function",
      "name": "getRewards",
      "inputs": [
        {
          "name": "recipient_",
          "type": "address",
          "internalType": "address"
        },
        {
          "name": "token_",
          "type": "address",
          "internalType": "address"
        }
      ],
      "outputs": [
        {
          "name": "reward",
          "type": "uint256",
          "internalType": "uint256"
        }
      ],
      "stateMutability": "view"
    },
    {
      "type": "function",
      "name": "installModule",
      "inputs": [
        {
          "name": "newModule_",
          "type": "address",
          "internalType": "contract Module"
        }
      ],
      "outputs": [],
      "stateMutability": "nonpayable"
    },
    {
      "type": "function",
      "name": "isExecOnModule",
      "inputs": [],
      "outputs": [
        {
          "name": "",
          "type": "bool",
          "internalType": "bool"
        }
      ],
      "stateMutability": "view"
    },
    {
      "type": "function",
      "name": "lotCounter",
      "inputs": [],
      "outputs": [
        {
          "name": "",
          "type": "uint96",
          "internalType": "uint96"
        }
      ],
      "stateMutability": "view"
    },
    {
      "type": "function",
      "name": "lotFees",
      "inputs": [
        {
          "name": "lotId",
          "type": "uint96",
          "internalType": "uint96"
        }
      ],
      "outputs": [
        {
          "name": "curator",
          "type": "address",
          "internalType": "address"
        },
        {
          "name": "curated",
          "type": "bool",
          "internalType": "bool"
        },
        {
          "name": "curatorFee",
          "type": "uint48",
          "internalType": "uint48"
        },
        {
          "name": "protocolFee",
          "type": "uint48",
          "internalType": "uint48"
        },
        {
          "name": "referrerFee",
          "type": "uint48",
          "internalType": "uint48"
        }
      ],
      "stateMutability": "view"
    },
    {
      "type": "function",
      "name": "lotRouting",
      "inputs": [
        {
          "name": "lotId",
          "type": "uint96",
          "internalType": "uint96"
        }
      ],
      "outputs": [
        {
          "name": "seller",
          "type": "address",
          "internalType": "address"
        },
        {
          "name": "baseToken",
          "type": "address",
          "internalType": "contract ERC20"
        },
        {
          "name": "quoteToken",
          "type": "address",
          "internalType": "contract ERC20"
        },
        {
          "name": "auctionReference",
          "type": "bytes7",
          "internalType": "Veecode"
        },
        {
          "name": "funding",
          "type": "uint256",
          "internalType": "uint256"
        },
        {
          "name": "callbacks",
          "type": "address",
          "internalType": "contract ICallback"
        },
        {
          "name": "derivativeReference",
          "type": "bytes7",
          "internalType": "Veecode"
        },
        {
          "name": "wrapDerivative",
          "type": "bool",
          "internalType": "bool"
        },
        {
          "name": "derivativeParams",
          "type": "bytes",
          "internalType": "bytes"
        }
      ],
      "stateMutability": "view"
    },
    {
      "type": "function",
      "name": "modules",
      "inputs": [
        {
          "name": "",
          "type": "uint256",
          "internalType": "uint256"
        }
      ],
      "outputs": [
        {
          "name": "",
          "type": "bytes5",
          "internalType": "Keycode"
        }
      ],
      "stateMutability": "view"
    },
    {
      "type": "function",
      "name": "modulesCount",
      "inputs": [],
      "outputs": [
        {
          "name": "",
          "type": "uint256",
          "internalType": "uint256"
        }
      ],
      "stateMutability": "view"
    },
    {
      "type": "function",
      "name": "owner",
      "inputs": [],
      "outputs": [
        {
          "name": "",
          "type": "address",
          "internalType": "address"
        }
      ],
      "stateMutability": "view"
    },
    {
      "type": "function",
      "name": "refundBid",
      "inputs": [
        {
          "name": "lotId_",
          "type": "uint96",
          "internalType": "uint96"
        },
        {
          "name": "bidId_",
          "type": "uint64",
          "internalType": "uint64"
        },
        {
          "name": "index_",
          "type": "uint256",
          "internalType": "uint256"
        }
      ],
      "outputs": [],
      "stateMutability": "nonpayable"
    },
    {
      "type": "function",
      "name": "rewards",
      "inputs": [
        {
          "name": "",
          "type": "address",
          "internalType": "address"
        },
        {
          "name": "",
          "type": "address",
          "internalType": "contract ERC20"
        }
      ],
      "outputs": [
        {
          "name": "",
          "type": "uint256",
          "internalType": "uint256"
        }
      ],
      "stateMutability": "view"
    },
    {
      "type": "function",
      "name": "setCondenser",
      "inputs": [
        {
          "name": "auctionRef_",
          "type": "bytes7",
          "internalType": "Veecode"
        },
        {
          "name": "derivativeRef_",
          "type": "bytes7",
          "internalType": "Veecode"
        },
        {
          "name": "condenserRef_",
          "type": "bytes7",
          "internalType": "Veecode"
        }
      ],
      "outputs": [],
      "stateMutability": "nonpayable"
    },
    {
      "type": "function",
      "name": "setCuratorFee",
      "inputs": [
        {
          "name": "auctionType_",
          "type": "bytes5",
          "internalType": "Keycode"
        },
        {
          "name": "fee_",
          "type": "uint48",
          "internalType": "uint48"
        }
      ],
      "outputs": [],
      "stateMutability": "nonpayable"
    },
    {
      "type": "function",
      "name": "setFee",
      "inputs": [
        {
          "name": "auctionType_",
          "type": "bytes5",
          "internalType": "Keycode"
        },
        {
          "name": "type_",
          "type": "uint8",
          "internalType": "enum IFeeManager.FeeType"
        },
        {
          "name": "fee_",
          "type": "uint48",
          "internalType": "uint48"
        }
      ],
      "outputs": [],
      "stateMutability": "nonpayable"
    },
    {
      "type": "function",
      "name": "setProtocol",
      "inputs": [
        {
          "name": "protocol_",
          "type": "address",
          "internalType": "address"
        }
      ],
      "outputs": [],
      "stateMutability": "nonpayable"
    },
    {
      "type": "function",
      "name": "settle",
      "inputs": [
        {
          "name": "lotId_",
          "type": "uint96",
          "internalType": "uint96"
        }
      ],
      "outputs": [
        {
          "name": "totalIn",
          "type": "uint256",
          "internalType": "uint256"
        },
        {
          "name": "totalOut",
          "type": "uint256",
          "internalType": "uint256"
        },
        {
          "name": "auctionOutput",
          "type": "bytes",
          "internalType": "bytes"
        }
      ],
      "stateMutability": "nonpayable"
    },
    {
      "type": "function",
      "name": "sunsetModule",
      "inputs": [
        {
          "name": "keycode_",
          "type": "bytes5",
          "internalType": "Keycode"
        }
      ],
      "outputs": [],
      "stateMutability": "nonpayable"
    },
    {
      "type": "function",
      "name": "transferOwnership",
      "inputs": [
        {
          "name": "newOwner",
          "type": "address",
          "internalType": "address"
        }
      ],
      "outputs": [],
      "stateMutability": "nonpayable"
    },
    {
      "type": "event",
      "name": "AuctionCancelled",
      "inputs": [
        {
          "name": "lotId",
          "type": "uint96",
          "indexed": true,
          "internalType": "uint96"
        },
        {
          "name": "auctionRef",
          "type": "bytes7",
          "indexed": true,
          "internalType": "Veecode"
        }
      ],
      "anonymous": false
    },
    {
      "type": "event",
      "name": "AuctionCreated",
      "inputs": [
        {
          "name": "lotId",
          "type": "uint96",
          "indexed": true,
          "internalType": "uint96"
        },
        {
          "name": "auctionRef",
          "type": "bytes7",
          "indexed": true,
          "internalType": "Veecode"
        },
        {
          "name": "infoHash",
          "type": "string",
          "indexed": false,
          "internalType": "string"
        }
      ],
      "anonymous": false
    },
    {
      "type": "event",
      "name": "Bid",
      "inputs": [
        {
          "name": "lotId",
          "type": "uint96",
          "indexed": true,
          "internalType": "uint96"
        },
        {
          "name": "bidId",
          "type": "uint96",
          "indexed": true,
          "internalType": "uint96"
        },
        {
          "name": "bidder",
          "type": "address",
          "indexed": true,
          "internalType": "address"
        },
        {
          "name": "amount",
          "type": "uint256",
          "indexed": false,
          "internalType": "uint256"
        }
      ],
      "anonymous": false
    },
    {
      "type": "event",
      "name": "ClaimBid",
      "inputs": [
        {
          "name": "lotId",
          "type": "uint96",
          "indexed": true,
          "internalType": "uint96"
        },
        {
          "name": "bidId",
          "type": "uint96",
          "indexed": true,
          "internalType": "uint96"
        },
        {
          "name": "bidder",
          "type": "address",
          "indexed": true,
          "internalType": "address"
        }
      ],
      "anonymous": false
    },
    {
      "type": "event",
      "name": "ClaimProceeds",
      "inputs": [
        {
          "name": "lotId",
          "type": "uint96",
          "indexed": true,
          "internalType": "uint96"
        },
        {
          "name": "seller",
          "type": "address",
          "indexed": true,
          "internalType": "address"
        }
      ],
      "anonymous": false
    },
    {
      "type": "event",
      "name": "Curated",
      "inputs": [
        {
          "name": "lotId",
          "type": "uint96",
          "indexed": true,
          "internalType": "uint96"
        },
        {
          "name": "curator",
          "type": "address",
          "indexed": true,
          "internalType": "address"
        }
      ],
      "anonymous": false
    },
    {
      "type": "event",
      "name": "ModuleInstalled",
      "inputs": [
        {
          "name": "keycode",
          "type": "bytes5",
          "indexed": true,
          "internalType": "Keycode"
        },
        {
          "name": "version",
          "type": "uint8",
          "indexed": true,
          "internalType": "uint8"
        },
        {
          "name": "location",
          "type": "address",
          "indexed": true,
          "internalType": "address"
        }
      ],
      "anonymous": false
    },
    {
      "type": "event",
      "name": "ModuleSunset",
      "inputs": [
        {
          "name": "keycode",
          "type": "bytes5",
          "indexed": true,
          "internalType": "Keycode"
        }
      ],
      "anonymous": false
    },
    {
      "type": "event",
      "name": "OwnershipTransferred",
      "inputs": [
        {
          "name": "user",
          "type": "address",
          "indexed": true,
          "internalType": "address"
        },
        {
          "name": "newOwner",
          "type": "address",
          "indexed": true,
          "internalType": "address"
        }
      ],
      "anonymous": false
    },
    {
      "type": "event",
      "name": "RefundBid",
      "inputs": [
        {
          "name": "lotId",
          "type": "uint96",
          "indexed": true,
          "internalType": "uint96"
        },
        {
          "name": "bidId",
          "type": "uint96",
          "indexed": true,
          "internalType": "uint96"
        },
        {
          "name": "bidder",
          "type": "address",
          "indexed": true,
          "internalType": "address"
        }
      ],
      "anonymous": false
    },
    {
      "type": "event",
      "name": "Settle",
      "inputs": [
        {
          "name": "lotId",
          "type": "uint96",
          "indexed": true,
          "internalType": "uint96"
        }
      ],
      "anonymous": false
    },
    {
      "type": "error",
      "name": "AmountLessThanMinimum",
      "inputs": []
    },
    {
      "type": "error",
      "name": "FailedCallback",
      "inputs": []
    },
    {
      "type": "error",
      "name": "InsufficientFunding",
      "inputs": []
    },
    {
      "type": "error",
      "name": "InvalidCallback",
      "inputs": []
    },
    {
      "type": "error",
      "name": "InvalidCallbackResponse",
      "inputs": []
    },
    {
      "type": "error",
      "name": "InvalidFee",
      "inputs": []
    },
    {
      "type": "error",
      "name": "InvalidLotId",
      "inputs": [
        {
          "name": "id_",
          "type": "uint96",
          "internalType": "uint96"
        }
      ]
    },
    {
      "type": "error",
      "name": "InvalidModuleInstall",
      "inputs": [
        {
          "name": "keycode_",
          "type": "bytes5",
          "internalType": "Keycode"
        },
        {
          "name": "version_",
          "type": "uint8",
          "internalType": "uint8"
        }
      ]
    },
    {
      "type": "error",
      "name": "InvalidParams",
      "inputs": []
    },
    {
      "type": "error",
      "name": "InvalidParams",
      "inputs": []
    },
    {
      "type": "error",
      "name": "InvalidState",
      "inputs": []
    },
    {
      "type": "error",
      "name": "InvalidVeecode",
      "inputs": [
        {
          "name": "veecode_",
          "type": "bytes7",
          "internalType": "Veecode"
        }
      ]
    },
    {
      "type": "error",
      "name": "ModuleAlreadySunset",
      "inputs": [
        {
          "name": "keycode_",
          "type": "bytes5",
          "internalType": "Keycode"
        }
      ]
    },
    {
      "type": "error",
      "name": "ModuleExecutionReverted",
      "inputs": [
        {
          "name": "error_",
          "type": "bytes",
          "internalType": "bytes"
        }
      ]
    },
    {
      "type": "error",
      "name": "ModuleIsSunset",
      "inputs": [
        {
          "name": "keycode_",
          "type": "bytes5",
          "internalType": "Keycode"
        }
      ]
    },
    {
      "type": "error",
      "name": "ModuleNotInstalled",
      "inputs": [
        {
          "name": "keycode_",
          "type": "bytes5",
          "internalType": "Keycode"
        },
        {
          "name": "version_",
          "type": "uint8",
          "internalType": "uint8"
        }
      ]
    },
    {
      "type": "error",
      "name": "NotPermitted",
      "inputs": [
        {
          "name": "caller_",
          "type": "address",
          "internalType": "address"
        }
      ]
    },
    {
      "type": "error",
      "name": "TargetNotAContract",
      "inputs": [
        {
          "name": "target_",
          "type": "address",
          "internalType": "address"
        }
      ]
    },
    {
      "type": "error",
      "name": "UnsupportedToken",
      "inputs": [
        {
          "name": "token_",
          "type": "address",
          "internalType": "address"
        }
      ]
    }
  ],
  "bytecode": {
    "object": "0x60a060405260016006553480156200001657600080fd5b50604051620057ac380380620057ac8339810160408190526200003991620000d8565b600080546001600160a01b0319166001600160a01b03851690811782556040518592859285928492869283929091907f8be0079c531659141344cd1fd0a4f28419497f9722a3daafe3b4186f6b6457e0908290a35050600780546001600160a01b0319166001600160a01b039283161790551660805250620001229350505050565b80516001600160a01b0381168114620000d357600080fd5b919050565b600080600060608486031215620000ee57600080fd5b620000f984620000bb565b92506200010960208501620000bb565b91506200011960408501620000bb565b90509250925092565b60805161566e6200013e60003960006131b7015261566e6000f3fe608060405234801561001057600080fd5b506004361061021c5760003560e01c806381b2248a11610125578063d16352af116100ad578063ef5cfb8c1161007c578063ef5cfb8c1461070b578063f2fde38b1461071e578063f315aafe14610731578063f4b261811461073a578063fb9d3cb61461077557600080fd5b8063d16352af146105d1578063e70b9e27146105e2578063e814b76a1461060d578063ea072e701461067157600080fd5b8063a50076f7116100f4578063a50076f714610572578063c4ce88fd14610585578063c74c149b14610598578063c75519ba146105ab578063cf042fb0146105be57600080fd5b806381b2248a146104e25780638da5cb5b1461050e5780639e2e003a146105215780639e55cba31461054957600080fd5b8063505f901a116101a85780635bb27aab116101775780635bb27aab146104135780635c774ed7146104585780637249c0d514610475578063779bcb9b146104885780637eb1e761146104cf57600080fd5b8063505f901a146103a257806350ab0489146103b5578063510bd273146103d55780635a3eb399146103e857600080fd5b80630e9132eb116101ef5780630e9132eb146102e8578063183b0ed3146102fb57806320b15fe41461032657806331d72d6b146103395780633ab3f98e1461037757600080fd5b80630a35511b146102215780630a9d793d146102365780630ab9a1ee146102495780630bad843b146102c0575b600080fd5b61023461022f3660046142c2565b610797565b005b61023461024436600461435c565b610b11565b610292610257366004614391565b6001600160d81b03191660009081526008602052604090205465ffffffffffff80821692600160301b8304821692600160601b900490911690565b6040805165ffffffffffff948516815292841660208401529216918101919091526060015b60405180910390f35b6102d36102ce3660046143ce565b610b5d565b604080519283526020830191909152016102b7565b6102346102f6366004614467565b610bc9565b61030e6103093660046145a4565b610fdf565b6040516001600160401b0390911681526020016102b7565b610234610334366004614695565b611199565b610292610347366004614391565b60086020526000908152604090205465ffffffffffff80821691600160301b8104821691600160601b9091041683565b61038a6103853660046146e0565b6113c4565b6040516001600160a01b0390911681526020016102b7565b6102346103b0366004614467565b6113d5565b6103c86103c33660046146fb565b611630565b6040516102b7919061476b565b6102346103e3366004614793565b61170b565b6103fb6103f63660046147d2565b611851565b6040516001600160601b0390911681526020016102b7565b61043f610421366004614391565b60046020526000908152604090205460ff8082169161010090041682565b6040805160ff90931683529015156020830152016102b7565b6005546104659060ff1681565b60405190151581526020016102b7565b61023461048336600461486d565b612246565b6104c16104963660046148a4565b6001600160a01b03918216600090815260096020908152604080832093909416825291909152205490565b6040519081526020016102b7565b6102346104dd36600461435c565b6122d9565b6104f56104f03660046148d2565b612556565b6040516001600160d81b031990911681526020016102b7565b60005461038a906001600160a01b031681565b61053461052f3660046146e0565b61258d565b6040516102b7999897969594939291906148eb565b61038a610557366004614961565b6003602052600090815260409020546001600160a01b031681565b61038a6105803660046146e0565b61267f565b600a546103fb906001600160601b031681565b6102346105a636600461497e565b612693565b6102346105b9366004614391565b6127e9565b6102346105cc366004614467565b6128e5565b6007546001600160a01b031661038a565b6104c16105f03660046148a4565b600960209081526000928352604080842090915290825290205481565b61065a61061b3660046149c0565b6001600160d81b0319821660009081526008602090815260408083206001600160a01b038516845260010190915290205465ffffffffffff1692915050565b60405165ffffffffffff90911681526020016102b7565b6106cc61067f3660046146e0565b600c60205260009081526040902080546001909101546001600160a01b0382169160ff600160a01b8204169165ffffffffffff600160a81b90920482169181811691600160301b90041685565b604080516001600160a01b039096168652931515602086015265ffffffffffff928316938501939093528116606084015216608082015260a0016102b7565b61023461071936600461435c565b612a52565b61023461072c36600461435c565b612abd565b6104c160025481565b6107686107483660046149dc565b600d60209081526000928352604080842090915290825290205460c81b81565b6040516102b79190614a0a565b6107886107833660046146e0565b612b32565b6040516102b793929190614a1f565b6006546001146107c25760405162461bcd60e51b81526004016107b990614a3e565b60405180910390fd5b60026006556107d083612c35565b6000806107dc856113c4565b6001600160a01b0316630a35511b8686866040518463ffffffff1660e01b815260040161080b93929190614a62565b6000604051808303816000875af115801561082a573d6000803e3d6000fd5b505050506040513d6000823e601f3d908101601f191682016040526108529190810190614b08565b6001600160601b0387166000908152600b60209081526040808320600c90925282206001015484519496509294509265ffffffffffff80841693600160301b900416915b81811015610b005760008782815181106108b2576108b2614c28565b60200260200101519050600081606001511115610a505760208101518654600288015460808401516040850151610908948a948a9491936001600160a01b0391821693919092169161090391614c54565b612c72565b5060608181015160038801805482900390819055835160408051610120810182528b546001600160a01b03908116825260018d01548116602083015260028d015480821693830193909352600160a01b9283900460c890811b6001600160c81b031990811698840198909852608083019590955260048d015490811660a083015291820490931b90941660c0830152600160d81b90930460ff16151560e0820152600589018054610a50949392918b91610100840191906109c890614c67565b80601f01602080910402602001604051908101604052809291908181526020018280546109f490614c67565b8015610a415780601f10610a1657610100808354040283529160200191610a41565b820191906000526020600020905b815481529060010190602001808311610a2457829003601f168201915b5050505050815250508a612d50565b608081015115610a7c57600286015481516080830151610a7c926001600160a01b031691906000612ee3565b80516001600160a01b03168a8a84818110610a9957610a99614c28565b9050602002016020810190610aae9190614ca1565b6001600160401b03168c6001600160601b03167f16c8bb5b68aee6acf37bdd28737b3728e2d041e98a4554f3522f6a7947448c0c60405160405180910390a45080610af881614cbe565b915050610896565b505060016006555050505050505050565b6000546001600160a01b03163314610b3b5760405162461bcd60e51b81526004016107b990614cd7565b600780546001600160a01b0319166001600160a01b0392909216919091179055565b6000808315610baf57610b7c8365ffffffffffff8716620186a0613029565b915081610b9e84610b8d888a614cfd565b65ffffffffffff16620186a0613029565b610ba89190614c54565b9050610bc0565b610bbd83610b8d8789614cfd565b90505b94509492505050565b600654600114610beb5760405162461bcd60e51b81526004016107b990614a3e565b6002600655610bf983612c35565b600080600080610c08876113c4565b6040516324546b2d60e01b81526001600160601b03891660048201526001600160a01b0391909116906324546b2d906024016000604051808303816000875af1158015610c59573d6000803e3d6000fd5b505050506040513d6000823e601f3d908101601f19168201604052610c819190810190614d23565b6001600160601b038b166000908152600b60209081526040808320600c90925282208054969a509498509296509094509092610cd790600160a01b810460ff1690600160a81b900465ffffffffffff1688613047565b90508015610e89576004830154600160a01b900460c81b6001600160c81b03191615610e39578154604080516101208101825285546001600160a01b039081168252600187015481166020830152600287015480821693830193909352600160a01b9283900460c890811b6001600160c81b0319908116606085015260038901546080850152600489015480841660a086015294850490911b1660c0830152600160d81b90920460ff16151560e0820152600586018054610e34949390931692859291889161010084019190610dac90614c67565b80601f0160208091040260200160405190810160405280929190818152602001828054610dd890614c67565b8015610e255780601f10610dfa57610100808354040283529160200191610e25565b820191906000526020600020905b815481529060010190602001808311610e0857829003601f168201915b50505050508152505087612d50565b610e7d565b81546001600160a01b039081166000908152600960209081526040808320600188015490941683529290529081208054839290610e77908490614d7c565b90915550505b60038301805482900390555b60018201546000908190610eb19065ffffffffffff80821691600160301b900416838c610b5d565b865460028801546004890154928d039550610ee094506001600160a01b03918216935085929082169116613078565b82546000908190610f0b90600160a01b810460ff1690600160a81b900465ffffffffffff168a613047565b90508381610f198b8b614c54565b610f239190614d7c565b610f2d9190614c54565b6003870180548290039055600187015460048801548854929450610f6e93506001600160a01b0391821692610f6692918216911661309c565b836000612ee3565b6004850154610f8a906001600160a01b03168d84848f8f6130b6565b84546040516001600160a01b03909116906001600160601b038e16907feca9d16ebae6caa387c47c0c2727f70c3989dfaf52c1c20dd5133d34bf4281a090600090a35050600160065550505050505050505050565b60006006546001146110035760405162461bcd60e51b81526004016107b990614a3e565b6002600655835161101390612c35565b835161101e906113c4565b6001600160a01b03166387698a318560000151338760200151886040015189606001516040518663ffffffff1660e01b8152600401611061959493929190614d8f565b6020604051808303816000875af1158015611080573d6000803e3d6000fd5b505050506040513d601f19601f820116820180604052508101906110a49190614ddc565b60408086015186516001600160601b03166000908152600b602052919091206002015460808701519293506110ed926001600160a01b03909116906110e890613128565b6131b1565b83516001600160601b03166000908152600b6020526040908190206004015485519186015161112e926001600160a01b0390921691908490339088886131e1565b336001600160a01b0316816001600160401b031685600001516001600160601b03167fa2e7ed6065b3a19c5ea6dce1c2f7a8933195d54aa91cee19103be6655cc3bcf8876040015160405161118591815260200190565b60405180910390a460016006559392505050565b6000546001600160a01b031633146111c35760405162461bcd60e51b81526004016107b990614cd7565b60006111ce8461325e565b6001600160a01b031663bb24fe8a6040518163ffffffff1660e01b8152600401602060405180830381865afa15801561120b573d6000803e3d6000fd5b505050506040513d601f19601f8201168201806040525081019061122f9190614e0f565b600381111561124057611240614df9565b1415806112c8575060016112538361325e565b6001600160a01b031663bb24fe8a6040518163ffffffff1660e01b8152600401602060405180830381865afa158015611290573d6000803e3d6000fd5b505050506040513d601f19601f820116820180604052508101906112b49190614e0f565b60038111156112c5576112c5614df9565b14155b8061136257506001600160c81b0319811615801590611362575060026112ed8261325e565b6001600160a01b031663bb24fe8a6040518163ffffffff1660e01b8152600401602060405180830381865afa15801561132a573d6000803e3d6000fd5b505050506040513d601f19601f8201168201806040525081019061134e9190614e0f565b600381111561135f5761135f614df9565b14155b1561138057604051635435b28960e11b815260040160405180910390fd5b6001600160c81b03199283166000908152600d6020908152604080832094909516825292909252919020805466ffffffffffffff191660c89290921c919091179055565b60006113cf826132b3565b92915050565b6006546001146113f75760405162461bcd60e51b81526004016107b990614a3e565b600260065561140583612c35565b6001600160601b0383166000908152600c6020526040902080546001600160a01b03163314611449576040516319b1d90760e31b81523360048201526024016107b9565b6000611454856132b3565b8254909150600160a01b900460ff16806114e05750604051630385592160e01b81526001600160601b03861660048201526001600160a01b03821690630385592190602401602060405180830381865afa1580156114b6573d6000803e3d6000fd5b505050506040513d601f19601f820116820180604052508101906114da9190614e30565b15156001145b156114fe5760405163baf3f0f760e01b815260040160405180910390fd5b6001600160601b0385166000818152600b6020526040808220855460ff60a01b1916600160a01b908117808855925163ace54da560e01b8152600481019590955290936115b79291820460ff169165ffffffffffff600160a81b90910416906001600160a01b0387169063ace54da590602401602060405180830381865afa15801561158e573d6000803e3d6000fd5b505050506040513d601f19601f820116820180604052508101906115b29190614e4d565b613047565b905060006115c7888389896132e2565b9050806115eb5760048301546115eb906001600160a01b0316898460008b8b61349b565b60405133906001600160601b038a16907f0cbe7341c5c56a21e107668323c3c414bcd506f3615ea1115f86dd4df173691490600090a350506001600655505050505050565b6000546060906001600160a01b0316331461165d5760405162461bcd60e51b81526004016107b990614cd7565b6005805460ff191660011790556000806116768661325e565b6001600160a01b0316858560405161168f929190614e66565b6000604051808303816000865af19150503d80600081146116cc576040519150601f19603f3d011682016040523d82523d6000602084013e6116d1565b606091505b5091509150816116f65780604051635d94b9cd60e01b81526004016107b9919061476b565b6005805460ff191690559150505b9392505050565b60065460011461172d5760405162461bcd60e51b81526004016107b990614a3e565b600260065561173b83612c35565b6001600160601b0383166000908152600b6020526040902060020154611806906001600160a01b03163361176e866113c4565b604051631f648d2f60e21b81526001600160601b03881660048201526001600160401b0387166024820152604481018690523360648201526001600160a01b039190911690637d9234bc906084016020604051808303816000875af11580156117db573d6000803e3d6000fd5b505050506040513d601f19601f820116820180604052508101906117ff9190614e4d565b6000612ee3565b60405133906001600160401b038416906001600160601b038616907fc5e25a727c1d2fa8b8cf2bd4f7a3ba0b6740aaee33d84a3132d47301844f361890600090a45050600160065550565b60006006546001146118755760405162461bcd60e51b81526004016107b990614a3e565b6002600655600061188c604087016020880161435c565b6001600160a01b031614806118b9575060006118ae606087016040880161435c565b6001600160a01b0316145b156118d757604051635435b28960e11b815260040160405180910390fd5b600a80546001600160601b03169060006118f083614e76565b82546101009290920a6001600160601b0381810219909316918316021790915581166000908152600b60209081526040918290208054336001600160a01b031990911617815592935061194791880190880161435c565b6001820180546001600160a01b0319166001600160a01b0392909216919091179055611979606087016040880161435c565b6002820180546001600160a01b0319166001600160a01b039290921691909117905560006119b26119ad6020890189614391565b6134cb565b905060008260010160009054906101000a90046001600160a01b03166001600160a01b031663313ce5676040518163ffffffff1660e01b8152600401602060405180830381865afa158015611a0b573d6000803e3d6000fd5b505050506040513d601f19601f82011682018060405250810190611a2f9190614e9c565b905060008360020160009054906101000a90046001600160a01b03166001600160a01b031663313ce5676040518163ffffffff1660e01b8152600401602060405180830381865afa158015611a88573d6000803e3d6000fd5b505050506040513d601f19601f82011682018060405250810190611aac9190614e9c565b90506000836001600160a01b031663bb24fe8a6040518163ffffffff1660e01b8152600401602060405180830381865afa158015611aee573d6000803e3d6000fd5b505050506040513d601f19601f82011682018060405250810190611b129190614e0f565b6003811115611b2357611b23614df9565b141580611b33575060068260ff16105b80611b41575060128260ff16115b80611b4f575060068160ff16105b80611b5d575060128160ff16115b15611b7b57604051635435b28960e11b815260040160405180910390fd5b60405163bae96bdd60e01b81526001600160a01b0384169063bae96bdd90611bad9088908c9086908890600401614ee8565b600060405180830381600087803b158015611bc757600080fd5b505af1158015611bdb573d6000803e3d6000fd5b50505050826001600160a01b031663d61735ca6040518163ffffffff1660e01b8152600401602060405180830381865afa158015611c1d573d6000803e3d6000fd5b505050506040513d601f19601f82011682018060405250810190611c419190614fc6565b60028501805460c89290921c600160a01b0266ffffffffffffff60a01b199092169190911790555050506001600160601b0382166000908152600c60205260409020611c93608088016060890161435c565b81546001600160a81b0319166001600160a01b03919091161781556000600881611cc060208b018b614391565b6001600160d81b0319168152602081019190915260400160009081208054909250600160601b900465ffffffffffff16906001830181611d0660808d0160608e0161435c565b6001600160a01b0316815260208101919091526040016000205465ffffffffffff908116915082168111611d3a5780611d3c565b815b845465ffffffffffff60a81b1916600160a81b65ffffffffffff9283160217855583546001909501805495821665ffffffffffff1987168117825594546bffffffffffffffffffffffff19909616909417600160301b95869004909116909402939093179091555060009050611dbe611dbb60e0890160c08a01614391565b90565b6001600160d81b03191614611fde576000611de26119ad60e0890160c08a01614391565b90506001816001600160a01b031663bb24fe8a6040518163ffffffff1660e01b8152600401602060405180830381865afa158015611e24573d6000803e3d6000fd5b505050506040513d601f19601f82011682018060405250810190611e489190614e0f565b6003811115611e5957611e59614df9565b141580611ee7575060018201546001600160a01b038083169163caf927859116611e8660e08b018b614fe3565b6040518463ffffffff1660e01b8152600401611ea493929190615029565b602060405180830381865afa158015611ec1573d6000803e3d6000fd5b505050506040513d601f19601f82011682018060405250810190611ee59190614e30565b155b15611f0557604051635435b28960e11b815260040160405180910390fd5b806001600160a01b031663d61735ca6040518163ffffffff1660e01b8152600401602060405180830381865afa158015611f43573d6000803e3d6000fd5b505050506040513d601f19601f82011682018060405250810190611f679190614fc6565b60048301805460c89290921c600160a01b0266ffffffffffffff60a01b19909216919091179055611f9b60e0880188614fe3565b6005840191611fab919083615094565b50611fbe61012088016101008901615153565b600483018054911515600160d81b0260ff60d81b19909216919091179055505b60028101546001600160c81b0319600160a01b9182900460c890811b82166000908152600d60209081526040808320600488015496909604841b85168352949052929092205490911b9081161561212a57600261203a8261325e565b6001600160a01b031663bb24fe8a6040518163ffffffff1660e01b8152600401602060405180830381865afa158015612077573d6000803e3d6000fd5b505050506040513d601f19601f8201168201806040525081019061209b9190614e0f565b60038111156120ac576120ac614df9565b146120ca57604051635435b28960e11b815260040160405180910390fd5b60006120d582613594565b6001600160d81b03198116600090815260046020526040902054909150610100900460ff1615156001036121285760405163ae05d58960e01b81526001600160d81b0319821660048201526024016107b9565b505b5061214361213e60a088016080890161435c565b6135a8565b61216057604051635435b28960e11b815260040160405180910390fd5b600061217260a088016080890161435c565b6001600160a01b0316146121b35761219060a087016080880161435c565b6004820180546001600160a01b0319166001600160a01b03929092169190911790555b60006121c0838888613615565b9050806121d8576121d887848860600135600061383d565b8160020160149054906101000a900460c81b6001600160c81b031916836001600160601b03167f7cbd7aa1f47e4f995e92547da29ca023e5fad4db6922fcaa352efa004066491f878760405161222f929190615170565b60405180910390a350506001600655949350505050565b6001600160d81b0319821660009081526008602052604090205465ffffffffffff600160601b90910481169082161115612293576040516358d620b360e01b815260040160405180910390fd5b6001600160d81b03199190911660009081526008602090815260408083203384526001019091529020805465ffffffffffff191665ffffffffffff909216919091179055565b6000546001600160a01b031633146123035760405162461bcd60e51b81526004016107b990614cd7565b61230c8161388c565b6000816001600160a01b031663d61735ca6040518163ffffffff1660e01b8152600401602060405180830381865afa15801561234c573d6000803e3d6000fd5b505050506040513d601f19601f820116820180604052508101906123709190614fc6565b905061237b816138c2565b60008061238783613a28565b6001600160d81b0319821660009081526004602052604090208054929450909250906123b79060ff166001615184565b60ff168260ff16146123e0578282604051635820a91160e01b81526004016107b992919061519d565b805460ff191660ff838116919091178083556101009004161561240757805461ff00191681555b6001600160c81b03198416600090815260036020526040902080546001600160a01b0319166001600160a01b03871617905560ff8216600019016124b75760018054808201825560009182527fb10e2d527612073b26eecdfd717e6a320cf44b4afac2b0732d9fcbe2b7fa0cf6600680830491909101805464ffffffffff929093066005026101000a9182021990921660d887901c9190910217905560028054916124b183614cbe565b91905055505b846001600160a01b031663ea6439146040518163ffffffff1660e01b8152600401600060405180830381600087803b1580156124f257600080fd5b505af1158015612506573d6000803e3d6000fd5b50506040516001600160a01b038816925060ff851691506001600160d81b03198616907f9d59a7f92873a37532afecac87d9ae2e0571c04f7cfe13ace6f38209dd1acd1c90600090a45050505050565b6001818154811061256657600080fd5b9060005260206000209060069182820401919006600502915054906101000a900460d81b81565b600b602052600090815260409020805460018201546002830154600384015460048501546005860180546001600160a01b03968716979587169680861696600160a01b9687900460c890811b9792861695928304901b93600160d81b90920460ff16929091906125fc90614c67565b80601f016020809104026020016040519081016040528092919081815260200182805461262890614c67565b80156126755780601f1061264a57610100808354040283529160200191612675565b820191906000526020600020905b81548152906001019060200180831161265857829003601f168201915b5050505050905089565b600061268a82612c35565b6113cf826132b3565b6000546001600160a01b031633146126bd5760405162461bcd60e51b81526004016107b990614cd7565b620186a065ffffffffffff821611156126e9576040516358d620b360e01b815260040160405180910390fd5b60008260028111156126fd576126fd614df9565b03612737576001600160d81b031983166000908152600860205260409020805465ffffffffffff191665ffffffffffff8316179055505050565b600182600281111561274b5761274b614df9565b03612791576001600160d81b03198316600090815260086020526040902080546bffffffffffff0000000000001916600160301b65ffffffffffff841602179055505050565b60028260028111156127a5576127a5614df9565b036127e4576001600160d81b031983166000908152600860205260409020805465ffffffffffff60601b1916600160601b65ffffffffffff8416021790555b505050565b6000546001600160a01b031633146128135760405162461bcd60e51b81526004016107b990614cd7565b6001600160d81b0319811660009081526004602052604090205460ff166128525780600060405163def1560160e01b81526004016107b992919061519d565b6001600160d81b0319811660009081526004602052604090208054610100900460ff161561289f5760405163271614df60e21b81526001600160d81b0319831660048201526024016107b9565b805461ff0019166101001781556040516001600160d81b03198316907fa967d5160f4efeca6ce587658357cfe54cbe547c6945ddf21a06ac712216942a90600090a25050565b6006546001146129075760405162461bcd60e51b81526004016107b990614a3e565b600260065561291583612c35565b6001600160601b0383166000908152600b6020526040902080546001600160a01b03163314612959576040516319b1d90760e31b81523360048201526024016107b9565b612962846132b3565b60405163b04046df60e01b81526001600160601b03861660048201526001600160a01b03919091169063b04046df90602401600060405180830381600087803b1580156129ae57600080fd5b505af11580156129c2573d6000803e3d6000fd5b5050505060006129d3858585613b0b565b9050806129f75760048201546129f7906001600160a01b0316866000808888613b7a565b6002820154604051600160a01b90910460c81b6001600160c81b031916906001600160601b038716907f2c784826e62ed5cac07a5ebe66734ece0cdc7ee0559b21b59d1434a64e07ec8290600090a350506001600655505050565b600654600114612a745760405162461bcd60e51b81526004016107b990614a3e565b60026006553360008181526009602090815260408083206001600160a01b0386168452909152812080549082905583929091612ab39184918490612ee3565b5050600160065550565b6000546001600160a01b03163314612ae75760405162461bcd60e51b81526004016107b990614cd7565b600080546001600160a01b0319166001600160a01b0383169081178255604051909133917f8be0079c531659141344cd1fd0a4f28419497f9722a3daafe3b4186f6b6457e09190a350565b6000806060600654600114612b595760405162461bcd60e51b81526004016107b990614a3e565b6002600655612b6784612c35565b6000612b72856113c4565b604051637dce9e5b60e11b81526001600160601b03871660048201529091506001600160a01b0382169063fb9d3cb6906024016000604051808303816000875af1158015612bc4573d6000803e3d6000fd5b505050506040513d6000823e601f3d908101601f19168201604052612bec91908101906151ba565b60405192965090945092506001600160601b038616907f5d4a6ac2287eaf5f22deb24e842c4668fd11d8f478a18cf2a37faa0bcebd31c690600090a25060016006559193909250565b600a546001600160601b0390811690821610612c6f57604051630d55bc2360e41b81526001600160601b03821660048201526024016107b9565b50565b60008080612cab89896001600160a01b038a1615801590612ca55750886001600160a01b03168a6001600160a01b031614155b87610b5d565b90925090508115612cf3576001600160a01b03808816600090815260096020908152604080832093891683529290529081208054849290612ced908490614d7c565b90915550505b8015612d39576007546001600160a01b03908116600090815260096020908152604080832093891683529290529081208054839290612d33908490614d7c565b90915550505b612d438183614d7c565b9998505050505050505050565b60c082015160208301516001600160c81b03198216612d7b57612d768187876001612ee3565b612edb565b6000612d868361325e565b61010086015160608701516001600160c81b03199081166000908152600d602090815260408083208985168452909152902054929350909160c81b90811615612e4e576000612dd48261325e565b6040516333f1a81560e11b81529091506001600160a01b038216906367e3502a90612e05908a908790600401615209565b600060405180830381865afa158015612e22573d6000803e3d6000fd5b505050506040513d6000823e601f3d908101601f19168201604052612e4a919081019061522e565b9250505b612e5984848a613baa565b60e0870151604051631c81b11f60e31b81526001600160a01b0385169163e40d88f891612e91918d91899188918f9190600401615262565b6060604051808303816000875af1158015612eb0573d6000803e3d6000fd5b505050506040513d601f19601f82011682018060405250810190612ed491906152a7565b5050505050505b505050505050565b6000811515600103612f5c576040516370a0823160e01b81526001600160a01b0385811660048301528616906370a0823190602401602060405180830381865afa158015612f35573d6000803e3d6000fd5b505050506040513d601f19601f82011682018060405250810190612f599190614e4d565b90505b8215612f7657612f766001600160a01b0386168585613bbe565b6001821515148015612ff95750612f8d8382614d7c565b6040516370a0823160e01b81526001600160a01b0386811660048301528716906370a0823190602401602060405180830381865afa158015612fd3573d6000803e3d6000fd5b505050506040513d601f19601f82011682018060405250810190612ff79190614e4d565b105b1561302257604051635f8b555b60e11b81526001600160a01b03861660048201526024016107b9565b5050505050565b600082600019048411830215820261304057600080fd5b5091020490565b6000831515810361305a57506000611704565b6130708265ffffffffffff8516620186a0613029565b949350505050565b6000600160991b821661308b578461308d565b815b90506130228382866000612ee3565b6000600160981b83166130af5781611704565b5090919050565b6001609a1b861615612edb57612edb63ffcca1e160e01b86868686866040516024016130e69594939291906152e0565b60408051601f198184030181529190526020810180516001600160e01b03166001600160e01b0319909316929092179091526001600160a01b03881690613c3f565b60408051606080820183526000808352602083015291810191909152815160000361317a5750506040805160608101825260008082526020808301829052835190810184529081529181019190915290565b61010082511461319d57604051635435b28960e11b815260040160405180910390fd5b818060200190518101906113cf919061530f565b6127e4827f0000000000000000000000000000000000000000000000000000000000000000333087866001613cfd565b6001609b1b8716156132555761325563b898895e60e01b878787878787604051602401613213969594939291906153ae565b60408051601f198184030181529190526020810180516001600160e01b03166001600160e01b0319909316929092179091526001600160a01b03891690613c3f565b50505050505050565b6001600160c81b031981166000908152600360205260408120546001600160a01b0316806113cf5760008061329285613a28565b91509150818160405163def1560160e01b81526004016107b992919061519d565b6001600160601b0381166000908152600b60205260408120600201546113cf90600160a01b900460c81b61325e565b6001600160601b0384166000908152600b602052604081206003810180548691908490613310908490614d7c565b90915550506004810154600160981b16156134515760018101546040516370a0823160e01b81523060048201526000916001600160a01b0316906370a0823190602401602060405180830381865afa158015613370573d6000803e3d6000fd5b505050506040513d601f19601f820116820180604052508101906133949190614e4d565b60048301549091506133b4906001600160a01b031688886001898961349b565b6133be8682614d7c565b60018301546040516370a0823160e01b81523060048201526001600160a01b03909116906370a0823190602401602060405180830381865afa158015613408573d6000803e3d6000fd5b505050506040513d601f19601f8201168201806040525081019061342c9190614e4d565b101561344b5760405163f7a632f560e01b815260040160405180910390fd5b5061348f565b60018101548154613472916001600160a01b03908116911630886000613d3c565b600481015461348f906001600160a01b031687876000888861349b565b50600195945050505050565b6001609d1b861615612edb57612edb6309b9601c60e01b86868686866040516024016130e6959493929190615400565b6001600160d81b03198116600090815260046020908152604080832081518083019092525460ff808216808452610100909204161515928201929092529061352b5782600060405163def1560160e01b81526004016107b992919061519d565b80602001511561355a5760405163ae05d58960e01b81526001600160d81b0319841660048201526024016107b9565b600061356a848360000151613e7c565b6001600160c81b0319166000908152600360205260409020546001600160a01b0316949350505050565b6000806135a083613a28565b509392505050565b6000600160981b8216151580156135d157506001609f1b821615806135d157506001609d1b8216155b80156135e157506001609c1b8216155b156135ee57506000919050565b6001600160a01b03821615806113cf575050600160991b6001600160a01b03909116101590565b6000806136286119ad6020860186614391565b90506001816001600160a01b031663994595e16040518163ffffffff1660e01b8152600401602060405180830381865afa15801561366a573d6000803e3d6000fd5b505050506040513d601f19601f8201168201806040525081019061368e9190615431565b600181111561369f5761369f614df9565b146136bd57604051635435b28960e11b815260040160405180910390fd5b6136cd6060840160408501615153565b156136eb57604051635435b28960e11b815260040160405180910390fd5b6001600160601b0385166000908152600b6020908152604080832060608701356003909101556137209190870190870161435c565b9050613749600160981b61373a60a088016080890161435c565b166001600160a01b0316151590565b1561381e576040516370a0823160e01b81523060048201526000906001600160a01b038316906370a0823190602401602060405180830381865afa158015613795573d6000803e3d6000fd5b505050506040513d601f19601f820116820180604052508101906137b99190614e4d565b90506137cc86888760600135600161383d565b6137da606086013582614d7c565b6040516370a0823160e01b81523060048201526001600160a01b038416906370a0823190602401602060405180830381865afa158015613408573d6000803e3d6000fd5b61383081333087606001356001613d3c565b61348f8587866060013560005b61388661385060a086016080870161435c565b84336138626040890160208a0161435c565b61387260608a0160408b0161435c565b878761388160a08d018d614fe3565b613f0b565b50505050565b806001600160a01b03163b600003612c6f57604051631bd1ba9d60e21b81526001600160a01b03821660048201526024016107b9565b8060005b60078110156139f45760008282600781106138e3576138e3614c28565b1a60f81b9050600282101561393f57600360fc1b6001600160f81b03198216108061391b5750603960f81b6001600160f81b03198216115b1561393a5783604051628b684360e31b81526004016107b99190614a0a565b6139eb565b600582101561398f57604160f81b6001600160f81b03198216108061391b5750602d60f91b6001600160f81b03198216111561393a5783604051628b684360e31b81526004016107b99190614a0a565b6001600160f81b03198116158015906139cc5750604160f81b6001600160f81b0319821610806139cc5750602d60f91b6001600160f81b03198216115b156139eb5783604051628b684360e31b81526004016107b99190614a0a565b506001016138c6565b506000613a0083613a28565b9150508060ff166000036127e45782604051628b684360e31b81526004016107b99190614a0a565b60008082600360fc1b6001600160f81b031982841a60f81b161080613a605750603960f81b8160001a60f81b6001600160f81b031916115b80613a7e5750600360fc1b8160011a60f81b6001600160f81b031916105b80613a9c5750603960f81b8160011a60f81b6001600160f81b031916115b15613abb5783604051628b684360e31b81526004016107b99190614a0a565b6000613aca603083831a615452565b613ad590600a61546b565b9050613ae66030600184901a615452565b613af09082615184565b60109290921b6001600160d81b031916959194509092505050565b6001600160601b0383166000908152600b6020526040812060038101805490839055600182015460048301548354613b57926001600160a01b0390811692610f6692908216911661309c565b600482015461348f906001600160a01b0381169088908490600160981b16151589895b6001609e1b861615612edb57612edb63a5658c8660e01b86868686866040516024016130e6959493929190615400565b6127e46001600160a01b0384168383613f8e565b600060405163a9059cbb60e01b81526001600160a01b0384166004820152826024820152602060006044836000895af13d15601f3d11600160005114161716915050806138865760405162461bcd60e51b815260206004820152600f60248201526e1514905394d1915497d19052531151608a1b60448201526064016107b9565b600060208201519050600080846001600160a01b031684604051613c639190615487565b6000604051808303816000865af19150503d8060008114613ca0576040519150601f19603f3d011682016040523d82523d6000602084013e613ca5565b606091505b509150915081613cb857613cb88161400e565b600081806020019051810190613cce91906154a3565b90506001600160e01b031980821690851614612edb5760405163d1c96d5f60e01b815260040160405180910390fd5b6001600160a01b03861615801590613d1a57506000826040015151115b15613d3357613d2e87878787878787614036565b613255565b61325587868686855b6000811515600103613db5576040516370a0823160e01b81526001600160a01b0385811660048301528716906370a0823190602401602060405180830381865afa158015613d8e573d6000803e3d6000fd5b505050506040513d601f19601f82011682018060405250810190613db29190614e4d565b90505b8215613dd057613dd06001600160a01b038716868686614211565b6001821515148015613e535750613de78382614d7c565b6040516370a0823160e01b81526001600160a01b0386811660048301528816906370a0823190602401602060405180830381865afa158015613e2d573d6000803e3d6000fd5b505050506040513d601f19601f82011682018060405250810190613e519190614e4d565b105b15612edb57604051635f8b555b60e11b81526001600160a01b03871660048201526024016107b9565b600080613e8a600a846154e3565b613e95906030615184565b60f81b90506000613ea7600a85615505565b613eb2906030615184565b6040516001600160f81b0319808516602083015260f89290921b91821660218201526001600160d81b031987166022820152909150602701604051602081830303815290604052613f0290615527565b95945050505050565b6001609f1b891615613f8357613f836366e7416760e01b8989898989898989604051602401613f4198979695949392919061555e565b60408051601f198184030181529190526020810180516001600160e01b03166001600160e01b0319909316929092179091526001600160a01b038b1690613c3f565b505050505050505050565b600060405163095ea7b360e01b81526001600160a01b0384166004820152826024820152602060006044836000895af13d15601f3d11600160005114161716915050806138865760405162461bcd60e51b815260206004820152600e60248201526d1054141493d59157d1905253115160921b60448201526064016107b9565b80511561401d57805181602001fd5b60405163472850e360e11b815260040160405180910390fd5b60008115156001036140af576040516370a0823160e01b81526001600160a01b0386811660048301528916906370a0823190602401602060405180830381865afa158015614088573d6000803e3d6000fd5b505050506040513d601f19601f820116820180604052508101906140ac9190614e4d565b90505b6040805160a0810182526001600160a01b038a81166060830190815260808301889052825260208681015181840152865165ffffffffffff168385015283518085018552898316815290810188905286840151935163187945bd60e11b8152918b16936330f28b7a93614129939092918c916004016155bf565b600060405180830381600087803b15801561414357600080fd5b505af1158015614157573d6000803e3d6000fd5b5050505081151560011480156141de57506141728482614d7c565b6040516370a0823160e01b81526001600160a01b0387811660048301528a16906370a0823190602401602060405180830381865afa1580156141b8573d6000803e3d6000fd5b505050506040513d601f19601f820116820180604052508101906141dc9190614e4d565b105b1561420757604051635f8b555b60e11b81526001600160a01b03891660048201526024016107b9565b5050505050505050565b60006040516323b872dd60e01b81526001600160a01b03851660048201526001600160a01b03841660248201528260448201526020600060648360008a5af13d15601f3d11600160005114161716915050806130225760405162461bcd60e51b81526020600482015260146024820152731514905394d1915497d19493d357d1905253115160621b60448201526064016107b9565b80356001600160601b03811681146142bd57600080fd5b919050565b6000806000604084860312156142d757600080fd5b6142e0846142a6565b925060208401356001600160401b03808211156142fc57600080fd5b818601915086601f83011261431057600080fd5b81358181111561431f57600080fd5b8760208260051b850101111561433457600080fd5b6020830194508093505050509250925092565b6001600160a01b0381168114612c6f57600080fd5b60006020828403121561436e57600080fd5b813561170481614347565b80356001600160d81b0319811681146142bd57600080fd5b6000602082840312156143a357600080fd5b61170482614379565b65ffffffffffff81168114612c6f57600080fd5b8015158114612c6f57600080fd5b600080600080608085870312156143e457600080fd5b84356143ef816143ac565b935060208501356143ff816143ac565b9250604085013561440f816143c0565b9396929550929360600135925050565b60008083601f84011261443157600080fd5b5081356001600160401b0381111561444857600080fd5b60208301915083602082850101111561446057600080fd5b9250929050565b60008060006040848603121561447c57600080fd5b614485846142a6565b925060208401356001600160401b038111156144a057600080fd5b6144ac8682870161441f565b9497909650939450505050565b634e487b7160e01b600052604160045260246000fd5b60405160a081016001600160401b03811182821017156144f1576144f16144b9565b60405290565b604051601f8201601f191681016001600160401b038111828210171561451f5761451f6144b9565b604052919050565b60006001600160401b03821115614540576145406144b9565b50601f01601f191660200190565b600082601f83011261455f57600080fd5b813561457261456d82614527565b6144f7565b81815284602083860101111561458757600080fd5b816020850160208301376000918101602001919091529392505050565b6000806000604084860312156145b957600080fd5b83356001600160401b03808211156145d057600080fd5b9085019060a082880312156145e457600080fd5b6145ec6144cf565b6145f5836142a6565b8152602083013561460581614347565b60208201526040838101359082015260608301358281111561462657600080fd5b6146328982860161454e565b60608301525060808301358281111561464a57600080fd5b6146568982860161454e565b6080830152509450602086013591508082111561467257600080fd5b506144ac8682870161441f565b6001600160c81b031981168114612c6f57600080fd5b6000806000606084860312156146aa57600080fd5b83356146b58161467f565b925060208401356146c58161467f565b915060408401356146d58161467f565b809150509250925092565b6000602082840312156146f257600080fd5b611704826142a6565b60008060006040848603121561471057600080fd5b83356144858161467f565b60005b8381101561473657818101518382015260200161471e565b50506000910152565b6000815180845261475781602086016020860161471b565b601f01601f19169290920160200192915050565b602081526000611704602083018461473f565b6001600160401b0381168114612c6f57600080fd5b6000806000606084860312156147a857600080fd5b6147b1846142a6565b925060208401356147c18161477e565b929592945050506040919091013590565b600080600080606085870312156147e857600080fd5b84356001600160401b03808211156147ff57600080fd5b90860190610120828903121561481457600080fd5b9094506020860135908082111561482a57600080fd5b9086019060a0828903121561483e57600080fd5b9093506040860135908082111561485457600080fd5b506148618782880161441f565b95989497509550505050565b6000806040838503121561488057600080fd5b61488983614379565b91506020830135614899816143ac565b809150509250929050565b600080604083850312156148b757600080fd5b82356148c281614347565b9150602083013561489981614347565b6000602082840312156148e457600080fd5b5035919050565b6001600160a01b038a81168252898116602083015288811660408301526001600160c81b031988811660608401526080830188905290861660a0830152841660c082015282151560e082015261012061010082018190526000906149518382018561473f565b9c9b505050505050505050505050565b60006020828403121561497357600080fd5b81356117048161467f565b60008060006060848603121561499357600080fd5b61499c84614379565b92506020840135600381106149b057600080fd5b915060408401356146d5816143ac565b600080604083850312156149d357600080fd5b6148c283614379565b600080604083850312156149ef57600080fd5b82356149fa8161467f565b915060208301356148998161467f565b6001600160c81b031991909116815260200190565b838152826020820152606060408201526000613f02606083018461473f565b6020808252600a90820152695245454e5452414e435960b01b604082015260600190565b6001600160601b038416815260406020808301829052908201839052600090849060608401835b86811015614ab7578335614a9c8161477e565b6001600160401b031682529282019290820190600101614a89565b50979650505050505050565b600082601f830112614ad457600080fd5b8151614ae261456d82614527565b818152846020838601011115614af757600080fd5b61307082602083016020870161471b565b6000806040808486031215614b1c57600080fd5b83516001600160401b0380821115614b3357600080fd5b818601915086601f830112614b4757600080fd5b8151602082821115614b5b57614b5b6144b9565b614b69818360051b016144f7565b82815260a0928302850182019282820191908b851115614b8857600080fd5b958301955b84871015614bf65780878d031215614ba55760008081fd5b614bad6144cf565b8751614bb881614347565b815287850151614bc781614347565b818601528789015189820152606080890151908201526080808901519082015283529586019591830191614b8d565b5091890151919750909450505080831115614c1057600080fd5b5050614c1e85828601614ac3565b9150509250929050565b634e487b7160e01b600052603260045260246000fd5b634e487b7160e01b600052601160045260246000fd5b818103818111156113cf576113cf614c3e565b600181811c90821680614c7b57607f821691505b602082108103614c9b57634e487b7160e01b600052602260045260246000fd5b50919050565b600060208284031215614cb357600080fd5b81356117048161477e565b600060018201614cd057614cd0614c3e565b5060010190565b6020808252600c908201526b15539055551213d49256915160a21b604082015260600190565b65ffffffffffff818116838216019080821115614d1c57614d1c614c3e565b5092915050565b60008060008060808587031215614d3957600080fd5b84519350602085015192506040850151915060608501516001600160401b03811115614d6457600080fd5b614d7087828801614ac3565b91505092959194509250565b808201808211156113cf576113cf614c3e565b6001600160601b03861681526001600160a01b038581166020830152841660408201526060810183905260a060808201819052600090614dd19083018461473f565b979650505050505050565b600060208284031215614dee57600080fd5b81516117048161477e565b634e487b7160e01b600052602160045260246000fd5b600060208284031215614e2157600080fd5b81516004811061170457600080fd5b600060208284031215614e4257600080fd5b8151611704816143c0565b600060208284031215614e5f57600080fd5b5051919050565b8183823760009101908152919050565b60006001600160601b03808316818103614e9257614e92614c3e565b6001019392505050565b600060208284031215614eae57600080fd5b815160ff8116811461170457600080fd5b81835281816020850137506000828201602090810191909152601f909101601f19169091010190565b6001600160601b03851681526080602082015260008435614f08816143ac565b65ffffffffffff9081166080840152602086013590614f26826143ac565b1660a08301526040850135614f3a816143c0565b151560c0830152606085013560e0830152608085013536869003601e19018112614f6357600080fd5b85016020810190356001600160401b03811115614f7f57600080fd5b803603821315614f8e57600080fd5b60a0610100850152614fa561012085018284614ebf565b92505050614fb8604083018560ff169052565b60ff83166060830152613f02565b600060208284031215614fd857600080fd5b81516117048161467f565b6000808335601e19843603018112614ffa57600080fd5b8301803591506001600160401b0382111561501457600080fd5b60200191503681900382131561446057600080fd5b6001600160a01b0384168152604060208201819052600090613f029083018486614ebf565b601f8211156127e457600081815260208120601f850160051c810160208610156150755750805b601f850160051c820191505b81811015612edb57828155600101615081565b6001600160401b038311156150ab576150ab6144b9565b6150bf836150b98354614c67565b8361504e565b6000601f8411600181146150f357600085156150db5750838201355b600019600387901b1c1916600186901b178355613022565b600083815260209020601f19861690835b828110156151245786850135825560209485019460019092019101615104565b50868210156151415760001960f88860031b161c19848701351681555b505060018560011b0183555050505050565b60006020828403121561516557600080fd5b8135611704816143c0565b602081526000613070602083018486614ebf565b60ff81811683821601908111156113cf576113cf614c3e565b6001600160d81b031992909216825260ff16602082015260400190565b6000806000606084860312156151cf57600080fd5b835192506020840151915060408401516001600160401b038111156151f357600080fd5b6151ff86828701614ac3565b9150509250925092565b60408152600061521c604083018561473f565b8281036020840152613f02818561473f565b60006020828403121561524057600080fd5b81516001600160401b0381111561525657600080fd5b61307084828501614ac3565b6001600160a01b0386811682528516602082015260a06040820181905260009061528e9083018661473f565b6060830194909452509015156080909101529392505050565b6000806000606084860312156152bc57600080fd5b8351925060208401516152ce81614347565b80925050604084015190509250925092565b6001600160601b0386168152846020820152836040820152608060608201526000614dd1608083018486614ebf565b60006020828403121561532157600080fd5b81516001600160401b038082111561533857600080fd5b908301906060828603121561534c57600080fd5b604051606081018181108382111715615367576153676144b9565b6040528251615375816143ac565b81526020838101519082015260408301518281111561539357600080fd5b61539f87828601614ac3565b60408301525095945050505050565b6001600160601b03871681526001600160401b038616602082015260018060a01b038516604082015283606082015260a0608082015260006153f460a083018486614ebf565b98975050505050505050565b6001600160601b03861681528460208201528315156040820152608060608201526000614dd1608083018486614ebf565b60006020828403121561544357600080fd5b81516002811061170457600080fd5b60ff82811682821603908111156113cf576113cf614c3e565b60ff8181168382160290811690818114614d1c57614d1c614c3e565b6000825161549981846020870161471b565b9190910192915050565b6000602082840312156154b557600080fd5b81516001600160e01b03198116811461170457600080fd5b634e487b7160e01b600052601260045260246000fd5b600060ff8316806154f6576154f66154cd565b8060ff84160491505092915050565b600060ff831680615518576155186154cd565b8060ff84160691505092915050565b805160208201516001600160c81b031980821692919060078310156155565780818460070360031b1b83161693505b505050919050565b6001600160601b03891681526001600160a01b0388811660208301528781166040830152861660608201526080810185905283151560a082015260e060c082018190526000906155b19083018486614ebf565b9a9950505050505050505050565b60006101006155e283885180516001600160a01b03168252602090810151910152565b6020870151604084015260408701516060840152615616608084018780516001600160a01b03168252602090810151910152565b6001600160a01b03851660c084015260e08301819052614dd18184018561473f56fea264697066735822122041652b22f787687715406882e822022457c6bd717213c464fa5795fff9b035a064736f6c63430008130033",
    "linkReferences": {}
  },
  "methodIdentifiers": {
    "auction((bytes5,address,address,address,address,bytes,bytes5,bytes,bool),(uint48,uint48,bool,uint256,bytes),string)": "5a3eb399",
    "bid((uint96,address,uint256,bytes,bytes),bytes)": "183b0ed3",
    "calculateQuoteFees(uint48,uint48,bool,uint256)": "0bad843b",
    "cancel(uint96,bytes)": "cf042fb0",
    "claimBids(uint96,uint64[])": "0a35511b",
    "claimProceeds(uint96,bytes)": "0e9132eb",
    "claimRewards(address)": "ef5cfb8c",
    "condensers(bytes7,bytes7)": "f4b26181",
    "curate(uint96,bytes)": "505f901a",
    "execOnModule(bytes7,bytes)": "50ab0489",
    "fees(bytes5)": "31d72d6b",
    "getBatchModuleForId(uint96)": "3ab3f98e",
    "getCuratorFee(bytes5,address)": "e814b76a",
    "getFees(bytes5)": "0ab9a1ee",
    "getModuleForId(uint96)": "a50076f7",
    "getModuleForVeecode(bytes7)": "9e55cba3",
    "getModuleStatus(bytes5)": "5bb27aab",
    "getProtocol()": "d16352af",
    "getRewards(address,address)": "779bcb9b",
    "installModule(address)": "7eb1e761",
    "isExecOnModule()": "5c774ed7",
    "lotCounter()": "c4ce88fd",
    "lotFees(uint96)": "ea072e70",
    "lotRouting(uint96)": "9e2e003a",
    "modules(uint256)": "81b2248a",
    "modulesCount()": "f315aafe",
    "owner()": "8da5cb5b",
    "refundBid(uint96,uint64,uint256)": "510bd273",
    "rewards(address,address)": "e70b9e27",
    "setCondenser(bytes7,bytes7,bytes7)": "20b15fe4",
    "setCuratorFee(bytes5,uint48)": "7249c0d5",
    "setFee(bytes5,uint8,uint48)": "c74c149b",
    "setProtocol(address)": "0a9d793d",
    "settle(uint96)": "fb9d3cb6",
    "sunsetModule(bytes5)": "c75519ba",
    "transferOwnership(address)": "f2fde38b"
  },
  "id": 43
}