{
  "abi": [
    {
      "inputs": [
        {
          "internalType": "address",
          "name": "owner_",
          "type": "address"
        },
        {
          "internalType": "address",
          "name": "protocol_",
          "type": "address"
        },
        {
          "internalType": "address",
          "name": "permit2_",
          "type": "address"
        }
      ],
      "stateMutability": "nonpayable",
      "type": "constructor"
    },
    {
      "inputs": [],
      "name": "AmountLessThanMinimum",
      "type": "error"
    },
    {
      "inputs": [],
      "name": "FailedCallback",
      "type": "error"
    },
    {
      "inputs": [],
      "name": "InsufficientFunding",
      "type": "error"
    },
    {
      "inputs": [],
      "name": "InvalidCallback",
      "type": "error"
    },
    {
      "inputs": [],
      "name": "InvalidCallbackResponse",
      "type": "error"
    },
    {
      "inputs": [],
      "name": "InvalidFee",
      "type": "error"
    },
    {
      "inputs": [
        {
          "internalType": "uint96",
          "name": "id_",
          "type": "uint96"
        }
      ],
      "name": "InvalidLotId",
      "type": "error"
    },
    {
      "inputs": [
        {
          "internalType": "Keycode",
          "name": "keycode_",
          "type": "bytes5"
        },
        {
          "internalType": "uint8",
          "name": "version_",
          "type": "uint8"
        }
      ],
      "name": "InvalidModuleInstall",
      "type": "error"
    },
    {
      "inputs": [],
      "name": "InvalidParams",
      "type": "error"
    },
    {
      "inputs": [],
      "name": "InvalidState",
      "type": "error"
    },
    {
      "inputs": [
        {
          "internalType": "Veecode",
          "name": "veecode_",
          "type": "bytes7"
        }
      ],
      "name": "InvalidVeecode",
      "type": "error"
    },
    {
      "inputs": [
        {
          "internalType": "Keycode",
          "name": "keycode_",
          "type": "bytes5"
        }
      ],
      "name": "ModuleAlreadySunset",
      "type": "error"
    },
    {
      "inputs": [
        {
          "internalType": "bytes",
          "name": "error_",
          "type": "bytes"
        }
      ],
      "name": "ModuleExecutionReverted",
      "type": "error"
    },
    {
      "inputs": [
        {
          "internalType": "Keycode",
          "name": "keycode_",
          "type": "bytes5"
        }
      ],
      "name": "ModuleIsSunset",
      "type": "error"
    },
    {
      "inputs": [
        {
          "internalType": "Keycode",
          "name": "keycode_",
          "type": "bytes5"
        },
        {
          "internalType": "uint8",
          "name": "version_",
          "type": "uint8"
        }
      ],
      "name": "ModuleNotInstalled",
      "type": "error"
    },
    {
      "inputs": [
        {
          "internalType": "address",
          "name": "caller_",
          "type": "address"
        }
      ],
      "name": "NotPermitted",
      "type": "error"
    },
    {
      "inputs": [
        {
          "internalType": "address",
          "name": "target_",
          "type": "address"
        }
      ],
      "name": "TargetNotAContract",
      "type": "error"
    },
    {
      "anonymous": false,
      "inputs": [
        {
          "indexed": true,
          "internalType": "uint96",
          "name": "lotId",
          "type": "uint96"
        },
        {
          "indexed": true,
          "internalType": "Veecode",
          "name": "auctionRef",
          "type": "bytes7"
        }
      ],
      "name": "AuctionCancelled",
      "type": "event"
    },
    {
      "anonymous": false,
      "inputs": [
        {
          "indexed": true,
          "internalType": "uint96",
          "name": "lotId",
          "type": "uint96"
        },
        {
          "indexed": true,
          "internalType": "Veecode",
          "name": "auctionRef",
          "type": "bytes7"
        },
        {
          "indexed": false,
          "internalType": "string",
          "name": "infoHash",
          "type": "string"
        }
      ],
      "name": "AuctionCreated",
      "type": "event"
    },
    {
      "anonymous": false,
      "inputs": [
        {
          "indexed": true,
          "internalType": "uint96",
          "name": "lotId",
          "type": "uint96"
        },
        {
          "indexed": true,
          "internalType": "uint96",
          "name": "bidId",
          "type": "uint96"
        },
        {
          "indexed": true,
          "internalType": "address",
          "name": "bidder",
          "type": "address"
        },
        {
          "indexed": false,
          "internalType": "uint256",
          "name": "amount",
          "type": "uint256"
        }
      ],
      "name": "Bid",
      "type": "event"
    },
    {
      "anonymous": false,
      "inputs": [
        {
          "indexed": true,
          "internalType": "uint96",
          "name": "lotId",
          "type": "uint96"
        },
        {
          "indexed": true,
          "internalType": "address",
          "name": "curator",
          "type": "address"
        }
      ],
      "name": "Curated",
      "type": "event"
    },
    {
      "anonymous": false,
      "inputs": [
        {
          "indexed": true,
          "internalType": "Keycode",
          "name": "keycode",
          "type": "bytes5"
        },
        {
          "indexed": true,
          "internalType": "uint8",
          "name": "version",
          "type": "uint8"
        },
        {
          "indexed": true,
          "internalType": "address",
          "name": "location",
          "type": "address"
        }
      ],
      "name": "ModuleInstalled",
      "type": "event"
    },
    {
      "anonymous": false,
      "inputs": [
        {
          "indexed": true,
          "internalType": "Keycode",
          "name": "keycode",
          "type": "bytes5"
        }
      ],
      "name": "ModuleSunset",
      "type": "event"
    },
    {
      "anonymous": false,
      "inputs": [
        {
          "indexed": true,
          "internalType": "address",
          "name": "user",
          "type": "address"
        },
        {
          "indexed": true,
          "internalType": "address",
          "name": "newOwner",
          "type": "address"
        }
      ],
      "name": "OwnershipTransferred",
      "type": "event"
    },
    {
      "anonymous": false,
      "inputs": [
        {
          "indexed": true,
          "internalType": "uint96",
          "name": "lotId",
          "type": "uint96"
        },
        {
          "indexed": true,
          "internalType": "address",
          "name": "buyer",
          "type": "address"
        },
        {
          "indexed": false,
          "internalType": "address",
          "name": "referrer",
          "type": "address"
        },
        {
          "indexed": false,
          "internalType": "uint256",
          "name": "amount",
          "type": "uint256"
        },
        {
          "indexed": false,
          "internalType": "uint256",
          "name": "payout",
          "type": "uint256"
        }
      ],
      "name": "Purchase",
      "type": "event"
    },
    {
      "anonymous": false,
      "inputs": [
        {
          "indexed": true,
          "internalType": "uint96",
          "name": "lotId",
          "type": "uint96"
        },
        {
          "indexed": true,
          "internalType": "uint96",
          "name": "bidId",
          "type": "uint96"
        },
        {
          "indexed": true,
          "internalType": "address",
          "name": "bidder",
          "type": "address"
        }
      ],
      "name": "RefundBid",
      "type": "event"
    },
    {
      "anonymous": false,
      "inputs": [
        {
          "indexed": true,
          "internalType": "uint96",
          "name": "lotId",
          "type": "uint96"
        }
      ],
      "name": "Settle",
      "type": "event"
    },
    {
      "inputs": [
        {
          "components": [
            {
              "internalType": "Keycode",
              "name": "auctionType",
              "type": "bytes5"
            },
            {
              "internalType": "contract ERC20",
              "name": "baseToken",
              "type": "address"
            },
            {
              "internalType": "contract ERC20",
              "name": "quoteToken",
              "type": "address"
            },
            {
              "internalType": "address",
              "name": "curator",
              "type": "address"
            },
            {
              "internalType": "contract ICallback",
              "name": "callbacks",
              "type": "address"
            },
            {
              "internalType": "bytes",
              "name": "callbackData",
              "type": "bytes"
            },
            {
              "internalType": "Keycode",
              "name": "derivativeType",
              "type": "bytes5"
            },
            {
              "internalType": "bytes",
              "name": "derivativeParams",
              "type": "bytes"
            },
            {
              "internalType": "bool",
              "name": "wrapDerivative",
              "type": "bool"
            },
            {
              "internalType": "bool",
              "name": "prefunded",
              "type": "bool"
            }
          ],
          "internalType": "struct Auctioneer.RoutingParams",
          "name": "routing_",
          "type": "tuple"
        },
        {
          "components": [
            {
              "internalType": "uint48",
              "name": "start",
              "type": "uint48"
            },
            {
              "internalType": "uint48",
              "name": "duration",
              "type": "uint48"
            },
            {
              "internalType": "bool",
              "name": "capacityInQuote",
              "type": "bool"
            },
            {
              "internalType": "uint96",
              "name": "capacity",
              "type": "uint96"
            },
            {
              "internalType": "bytes",
              "name": "implParams",
              "type": "bytes"
            }
          ],
          "internalType": "struct Auction.AuctionParams",
          "name": "params_",
          "type": "tuple"
        },
        {
          "internalType": "string",
          "name": "infoHash_",
          "type": "string"
        }
      ],
      "name": "auction",
      "outputs": [
        {
          "internalType": "uint96",
          "name": "lotId",
          "type": "uint96"
        }
      ],
      "stateMutability": "nonpayable",
      "type": "function"
    },
    {
      "inputs": [
        {
          "components": [
            {
              "internalType": "uint96",
              "name": "lotId",
              "type": "uint96"
            },
            {
              "internalType": "address",
              "name": "referrer",
              "type": "address"
            },
            {
              "internalType": "uint96",
              "name": "amount",
              "type": "uint96"
            },
            {
              "internalType": "bytes",
              "name": "auctionData",
              "type": "bytes"
            },
            {
              "internalType": "bytes",
              "name": "permit2Data",
              "type": "bytes"
            }
          ],
          "internalType": "struct Router.BidParams",
          "name": "params_",
          "type": "tuple"
        },
        {
          "internalType": "bytes",
          "name": "callbackData_",
          "type": "bytes"
        }
      ],
      "name": "bid",
      "outputs": [
        {
          "internalType": "uint64",
          "name": "bidId",
          "type": "uint64"
        }
      ],
      "stateMutability": "nonpayable",
      "type": "function"
    },
    {
      "inputs": [
        {
          "internalType": "uint96",
          "name": "protocolFee_",
          "type": "uint96"
        },
        {
          "internalType": "uint96",
          "name": "referrerFee_",
          "type": "uint96"
        },
        {
          "internalType": "bool",
          "name": "hasReferrer_",
          "type": "bool"
        },
        {
          "internalType": "uint96",
          "name": "amount_",
          "type": "uint96"
        }
      ],
      "name": "calculateQuoteFees",
      "outputs": [
        {
          "internalType": "uint96",
          "name": "toReferrer",
          "type": "uint96"
        },
        {
          "internalType": "uint96",
          "name": "toProtocol",
          "type": "uint96"
        }
      ],
      "stateMutability": "pure",
      "type": "function"
    },
    {
      "inputs": [
        {
          "internalType": "uint96",
          "name": "lotId_",
          "type": "uint96"
        },
        {
          "internalType": "bytes",
          "name": "callbackData_",
          "type": "bytes"
        }
      ],
      "name": "cancel",
      "outputs": [],
      "stateMutability": "nonpayable",
      "type": "function"
    },
    {
      "inputs": [
        {
          "internalType": "uint96",
          "name": "lotId_",
          "type": "uint96"
        },
        {
          "internalType": "uint64[]",
          "name": "bidIds_",
          "type": "uint64[]"
        }
      ],
      "name": "claimBids",
      "outputs": [],
      "stateMutability": "nonpayable",
      "type": "function"
    },
    {
      "inputs": [
        {
          "internalType": "Veecode",
          "name": "reference_",
          "type": "bytes7"
        }
      ],
      "name": "claimModuleGas",
      "outputs": [],
      "stateMutability": "nonpayable",
      "type": "function"
    },
    {
      "inputs": [
        {
          "internalType": "uint96",
          "name": "lotId_",
          "type": "uint96"
        },
        {
          "internalType": "bytes",
          "name": "callbackData_",
          "type": "bytes"
        }
      ],
      "name": "claimProceeds",
      "outputs": [],
      "stateMutability": "nonpayable",
      "type": "function"
    },
    {
      "inputs": [
        {
          "internalType": "address",
          "name": "token_",
          "type": "address"
        }
      ],
      "name": "claimRewards",
      "outputs": [],
      "stateMutability": "nonpayable",
      "type": "function"
    },
    {
      "inputs": [],
      "name": "claimYieldAndGas",
      "outputs": [],
      "stateMutability": "nonpayable",
      "type": "function"
    },
    {
      "inputs": [
        {
          "internalType": "uint96",
          "name": "lotId_",
          "type": "uint96"
        },
        {
          "internalType": "bytes",
          "name": "callbackData_",
          "type": "bytes"
        }
      ],
      "name": "curate",
      "outputs": [],
      "stateMutability": "nonpayable",
      "type": "function"
    },
    {
      "inputs": [
        {
          "internalType": "Veecode",
          "name": "veecode_",
          "type": "bytes7"
        },
        {
          "internalType": "bytes",
          "name": "callData_",
          "type": "bytes"
        }
      ],
      "name": "execOnModule",
      "outputs": [
        {
          "internalType": "bytes",
          "name": "",
          "type": "bytes"
        }
      ],
      "stateMutability": "nonpayable",
      "type": "function"
    },
    {
      "inputs": [
        {
          "internalType": "Keycode",
          "name": "",
          "type": "bytes5"
        }
      ],
      "name": "fees",
      "outputs": [
        {
          "internalType": "uint48",
          "name": "protocol",
          "type": "uint48"
        },
        {
          "internalType": "uint48",
          "name": "referrer",
          "type": "uint48"
        },
        {
          "internalType": "uint48",
          "name": "maxCuratorFee",
          "type": "uint48"
        }
      ],
      "stateMutability": "view",
      "type": "function"
    },
    {
      "inputs": [
        {
          "internalType": "uint96",
          "name": "lotId_",
          "type": "uint96"
        }
      ],
      "name": "getModuleForId",
      "outputs": [
        {
          "internalType": "contract AuctionModule",
          "name": "",
          "type": "address"
        }
      ],
      "stateMutability": "view",
      "type": "function"
    },
    {
      "inputs": [
        {
          "internalType": "Veecode",
          "name": "",
          "type": "bytes7"
        }
      ],
      "name": "getModuleForVeecode",
      "outputs": [
        {
          "internalType": "contract Module",
          "name": "",
          "type": "address"
        }
      ],
      "stateMutability": "view",
      "type": "function"
    },
    {
      "inputs": [
        {
          "internalType": "Keycode",
          "name": "",
          "type": "bytes5"
        }
      ],
      "name": "getModuleStatus",
      "outputs": [
        {
          "internalType": "uint8",
          "name": "latestVersion",
          "type": "uint8"
        },
        {
          "internalType": "bool",
          "name": "sunset",
          "type": "bool"
        }
      ],
      "stateMutability": "view",
      "type": "function"
    },
    {
      "inputs": [
        {
          "internalType": "contract Module",
          "name": "newModule_",
          "type": "address"
        }
      ],
      "name": "installModule",
      "outputs": [],
      "stateMutability": "nonpayable",
      "type": "function"
    },
    {
      "inputs": [],
      "name": "isExecOnModule",
      "outputs": [
        {
          "internalType": "bool",
          "name": "",
          "type": "bool"
        }
      ],
      "stateMutability": "view",
      "type": "function"
    },
    {
      "inputs": [],
      "name": "lotCounter",
      "outputs": [
        {
          "internalType": "uint96",
          "name": "",
          "type": "uint96"
        }
      ],
      "stateMutability": "view",
      "type": "function"
    },
    {
      "inputs": [
        {
          "internalType": "uint96",
          "name": "lotId",
          "type": "uint96"
        }
      ],
      "name": "lotFees",
      "outputs": [
        {
          "internalType": "address",
          "name": "curator",
          "type": "address"
        },
        {
          "internalType": "bool",
          "name": "curated",
          "type": "bool"
        },
        {
          "internalType": "uint48",
          "name": "curatorFee",
          "type": "uint48"
        },
        {
          "internalType": "uint48",
          "name": "protocolFee",
          "type": "uint48"
        },
        {
          "internalType": "uint48",
          "name": "referrerFee",
          "type": "uint48"
        }
      ],
      "stateMutability": "view",
      "type": "function"
    },
    {
      "inputs": [
        {
          "internalType": "uint96",
          "name": "lotId",
          "type": "uint96"
        }
      ],
      "name": "lotRouting",
      "outputs": [
        {
          "internalType": "address",
          "name": "seller",
          "type": "address"
        },
        {
          "internalType": "uint96",
          "name": "funding",
          "type": "uint96"
        },
        {
          "internalType": "contract ERC20",
          "name": "baseToken",
          "type": "address"
        },
        {
          "internalType": "Veecode",
          "name": "auctionReference",
          "type": "bytes7"
        },
        {
          "internalType": "contract ERC20",
          "name": "quoteToken",
          "type": "address"
        },
        {
          "internalType": "contract ICallback",
          "name": "callbacks",
          "type": "address"
        },
        {
          "internalType": "Veecode",
          "name": "derivativeReference",
          "type": "bytes7"
        },
        {
          "internalType": "bool",
          "name": "wrapDerivative",
          "type": "bool"
        },
        {
          "internalType": "bytes",
          "name": "derivativeParams",
          "type": "bytes"
        }
      ],
      "stateMutability": "view",
      "type": "function"
    },
    {
      "inputs": [
        {
          "internalType": "uint256",
          "name": "",
          "type": "uint256"
        }
      ],
      "name": "modules",
      "outputs": [
        {
          "internalType": "Keycode",
          "name": "",
          "type": "bytes5"
        }
      ],
      "stateMutability": "view",
      "type": "function"
    },
    {
      "inputs": [],
      "name": "modulesCount",
      "outputs": [
        {
          "internalType": "uint256",
          "name": "",
          "type": "uint256"
        }
      ],
      "stateMutability": "view",
      "type": "function"
    },
    {
      "inputs": [],
      "name": "owner",
      "outputs": [
        {
          "internalType": "address",
          "name": "",
          "type": "address"
        }
      ],
      "stateMutability": "view",
      "type": "function"
    },
    {
      "inputs": [
        {
          "components": [
            {
              "internalType": "address",
              "name": "recipient",
              "type": "address"
            },
            {
              "internalType": "address",
              "name": "referrer",
              "type": "address"
            },
            {
              "internalType": "uint96",
              "name": "lotId",
              "type": "uint96"
            },
            {
              "internalType": "uint96",
              "name": "amount",
              "type": "uint96"
            },
            {
              "internalType": "uint96",
              "name": "minAmountOut",
              "type": "uint96"
            },
            {
              "internalType": "bytes",
              "name": "auctionData",
              "type": "bytes"
            },
            {
              "internalType": "bytes",
              "name": "permit2Data",
              "type": "bytes"
            }
          ],
          "internalType": "struct Router.PurchaseParams",
          "name": "params_",
          "type": "tuple"
        },
        {
          "internalType": "bytes",
          "name": "callbackData_",
          "type": "bytes"
        }
      ],
      "name": "purchase",
      "outputs": [
        {
          "internalType": "uint96",
          "name": "payoutAmount",
          "type": "uint96"
        }
      ],
      "stateMutability": "nonpayable",
      "type": "function"
    },
    {
      "inputs": [
        {
          "internalType": "uint96",
          "name": "lotId_",
          "type": "uint96"
        },
        {
          "internalType": "uint64",
          "name": "bidId_",
          "type": "uint64"
        }
      ],
      "name": "refundBid",
      "outputs": [],
      "stateMutability": "nonpayable",
      "type": "function"
    },
    {
      "inputs": [
        {
          "internalType": "address",
          "name": "",
          "type": "address"
        },
        {
          "internalType": "contract ERC20",
          "name": "",
          "type": "address"
        }
      ],
      "name": "rewards",
      "outputs": [
        {
          "internalType": "uint256",
          "name": "",
          "type": "uint256"
        }
      ],
      "stateMutability": "view",
      "type": "function"
    },
    {
      "inputs": [
        {
          "internalType": "Keycode",
          "name": "auctionType_",
          "type": "bytes5"
        },
        {
          "internalType": "uint48",
          "name": "fee_",
          "type": "uint48"
        }
      ],
      "name": "setCuratorFee",
      "outputs": [],
      "stateMutability": "nonpayable",
      "type": "function"
    },
    {
      "inputs": [
        {
          "internalType": "Keycode",
          "name": "auctionType_",
          "type": "bytes5"
        },
        {
          "internalType": "enum FeeManager.FeeType",
          "name": "type_",
          "type": "uint8"
        },
        {
          "internalType": "uint48",
          "name": "fee_",
          "type": "uint48"
        }
      ],
      "name": "setFee",
      "outputs": [],
      "stateMutability": "nonpayable",
      "type": "function"
    },
    {
      "inputs": [
        {
          "internalType": "address",
          "name": "protocol_",
          "type": "address"
        }
      ],
      "name": "setProtocol",
      "outputs": [],
      "stateMutability": "nonpayable",
      "type": "function"
    },
    {
      "inputs": [
        {
          "internalType": "uint96",
          "name": "lotId_",
          "type": "uint96"
        }
      ],
      "name": "settle",
      "outputs": [],
      "stateMutability": "nonpayable",
      "type": "function"
    },
    {
      "inputs": [
        {
          "internalType": "Keycode",
          "name": "keycode_",
          "type": "bytes5"
        }
      ],
      "name": "sunsetModule",
      "outputs": [],
      "stateMutability": "nonpayable",
      "type": "function"
    },
    {
      "inputs": [
        {
          "internalType": "address",
          "name": "newOwner",
          "type": "address"
        }
      ],
      "name": "transferOwnership",
      "outputs": [],
      "stateMutability": "nonpayable",
      "type": "function"
    }
  ],
  "bytecode": {
    "object": "0x60a060405260016006553480156200001657600080fd5b506040516200628038038062006280833981016040819052620000399162000242565b600080546001600160a01b0319166001600160a01b03851690811782556040518592859285928492869283929091907f8be0079c531659141344cd1fd0a4f28419497f9722a3daafe3b4186f6b6457e0908290a35050600a80546001600160a01b0319166001600160a01b03928316179055166080525050604051631a33757d60e01b815273420000000000000000000000000000000000002390631a33757d90620000eb906002906004016200028c565b6020604051808303816000875af11580156200010b573d6000803e3d6000fd5b505050506040513d601f19601f82011682018060405250810190620001319190620002b5565b50604051631a33757d60e01b815273420000000000000000000000000000000000002290631a33757d906200016c906002906004016200028c565b6020604051808303816000875af11580156200018c573d6000803e3d6000fd5b505050506040513d601f19601f82011682018060405250810190620001b29190620002b5565b507343000000000000000000000000000000000000026001600160a01b0316634e606c476040518163ffffffff1660e01b8152600401600060405180830381600087803b1580156200020357600080fd5b505af115801562000218573d6000803e3d6000fd5b50505050505050620002cf565b80516001600160a01b03811681146200023d57600080fd5b919050565b6000806000606084860312156200025857600080fd5b620002638462000225565b9250620002736020850162000225565b9150620002836040850162000225565b90509250925092565b6020810160038310620002af57634e487b7160e01b600052602160045260246000fd5b91905290565b600060208284031215620002c857600080fd5b5051919050565b608051615f95620002eb60003960006141970152615f956000f3fe608060405234801561001057600080fd5b50600436106101f05760003560e01c80639e55cba31161010f578063e1d38d17116100a2578063f2fde38b11610071578063f2fde38b146105fb578063f315aafe1461060e578063fb9d3cb614610617578063fd2ade301461062a57600080fd5b8063e1d38d1714610502578063e70b9e2714610515578063ea072e701461054e578063ef5cfb8c146105e857600080fd5b8063c4ce88fd116100de578063c4ce88fd1461049e578063c74c149b146104c9578063c75519ba146104dc578063cf042fb0146104ef57600080fd5b80639e55cba31461041c578063a3b7673014610445578063a50076f714610478578063bc17699c1461048b57600080fd5b80635bb27aab116101875780637eb1e761116101565780637eb1e7611461038a57806381b2248a1461039d5780638da5cb5b146103c95780639e2e003a146103f457600080fd5b80635bb27aab146103025780635c774ed7146103475780637249c0d5146103645780637c86106f1461037757600080fd5b806338ec8b42116101c357806338ec8b421461029c578063505f901a146102a457806350ab0489146102b757806359a8bf64146102d757600080fd5b80630a35511b146101f55780630a9d793d1461020a5780630e9132eb1461021d57806331d72d6b14610230575b600080fd5b610208610203366004614957565b61063d565b005b6102086102183660046149fe565b6109c4565b61020861022b366004614a63565b610a10565b61026e61023e366004614acf565b600b6020526000908152604090205465ffffffffffff80821691600160301b8104821691600160601b9091041683565b6040805165ffffffffffff948516815292841660208401529216918101919091526060015b60405180910390f35b610208610c5d565b6102086102b2366004614a63565b610eb5565b6102ca6102c5366004614b00565b61138d565b6040516102939190614b70565b6102ea6102e5366004614cb2565b611468565b6040516001600160401b039091168152602001610293565b61032e610310366004614acf565b60046020526000908152604090205460ff8082169161010090041682565b6040805160ff9093168352901515602083015201610293565b6005546103549060ff1681565b6040519015158152602001610293565b610208610372366004614daa565b61168c565b610208610385366004614df6565b61171f565b6102086103983660046149fe565b6118bf565b6103b06103ab366004614e24565b611b3c565b6040516001600160d81b03199091168152602001610293565b6000546103dc906001600160a01b031681565b6040516001600160a01b039091168152602001610293565b610407610402366004614e3d565b611b73565b60405161029399989796959493929190614e5a565b6103dc61042a366004614ed8565b6003602052600090815260409020546001600160a01b031681565b610458610453366004614f03565b611c69565b604080516001600160601b03938416815292909116602083015201610293565b6103dc610486366004614e3d565b611d1b565b610208610499366004614ed8565b611d35565b6007546104b1906001600160601b031681565b6040516001600160601b039091168152602001610293565b6102086104d7366004614f5f565b611dc3565b6102086104ea366004614acf565b611f19565b6102086104fd366004614a63565b612015565b6104b1610510366004614fac565b61225e565b6105406105233660046150a1565b600c60209081526000928352604080842090915290825290205481565b604051908152602001610293565b6105a961055c366004614e3d565b600960205260009081526040902080546001909101546001600160a01b0382169160ff600160a01b8204169165ffffffffffff600160a81b90920482169181811691600160301b90041685565b604080516001600160a01b039096168652931515602086015265ffffffffffff928316938501939093528116606084015216608082015260a001610293565b6102086105f63660046149fe565b612a5f565b6102086106093660046149fe565b612b28565b61054060025481565b610208610625366004614e3d565b612b9d565b6104b16106383660046150cf565b6131b2565b6006546001146106685760405162461bcd60e51b815260040161065f9061516a565b60405180910390fd5b600260065561067683613c70565b60008061068285613caa565b6001600160a01b0316630a35511b8686866040518463ffffffff1660e01b81526004016106b19392919061518e565b6000604051808303816000875af11580156106d0573d6000803e3d6000fd5b505050506040513d6000823e601f3d908101601f191682016040526106f8919081019061524a565b6001600160601b0387166000908152600860209081526040808320600990925282206001015484519496509294509265ffffffffffff80841693600160301b900416915b818110156109b357600087828151811061075857610758615375565b60200260200101519050600081606001516001600160601b0316111561091c5760208101518654600288015460408401516107b39365ffffffffffff808b1694908a169391926001600160a01b039182169290911690613cd9565b5060608082015187546001600160601b03600160a01b8083048216849003821681026001600160a01b03938416818117808e55885160408051610120810182529488169093178452908490048516602084015260018e0154808716928401929092526001600160c81b03199184900460c890811b83169884019890985260028e01548616608084015260038e015495861660a084015292850490961b90951660c086015260ff600160d81b90930492909216151560e085015260048a0180546109179593949290921692918b9161010084019161088f9061538b565b80601f01602080910402602001604051908101604052809291908181526020018280546108bb9061538b565b80156109085780601f106108dd57610100808354040283529160200191610908565b820191906000526020600020905b8154815290600101906020018083116108eb57829003601f168201915b5050505050815250508a613ddb565b6109a0565b60028601548151604080840151905163636c380360e01b815273__$edb40677ae687b89a8312a1af66086cd07$__9363636c38039361096f936001600160a01b03909216929091906000906004016153c5565b60006040518083038186803b15801561098757600080fd5b505af415801561099b573d6000803e3d6000fd5b505050505b50806109ab8161540d565b91505061073c565b505060016006555050505050505050565b6000546001600160a01b031633146109ee5760405162461bcd60e51b815260040161065f90615426565b600a80546001600160a01b0319166001600160a01b0392909216919091179055565b600654600114610a325760405162461bcd60e51b815260040161065f9061516a565b6002600655610a4083613c70565b6000806000610a4e86613caa565b6040516324546b2d60e01b81526001600160601b03881660048201526001600160a01b0391909116906324546b2d906024016060604051808303816000875af1158015610a9f573d6000803e3d6000fd5b505050506040513d601f19601f82011682018060405250810190610ac3919061544c565b6001600160601b0389166000908152600860209081526040808320600990925282206001015494975092955090935090918190610b149065ffffffffffff80821691600160301b9004168389611c69565b845460028601546003870154928a039550610b4c94506001600160a01b0391821693506001600160601b038616929082169116613f7b565b81546000908590610b6e908690600160a01b90046001600160601b031661548e565b610b7891906154b5565b83546001600160601b03600160a01b8083048216849003909116026001600160a01b0391821681811787556001870154600388015494955073__$edb40677ae687b89a8312a1af66086cd07$__9463636c38039491821693610bdf93918316921617614008565b8460006040518563ffffffff1660e01b8152600401610c0194939291906153c5565b60006040518083038186803b158015610c1957600080fd5b505af4158015610c2d573d6000803e3d6000fd5b5050506003840154610c4d91506001600160a01b03168a84848c8c614022565b5050600160065550505050505050565b600a5460405163e12f3a6160e01b81523060048201526023602160991b019163aad3ec96916001600160a01b0390911690839063e12f3a6190602401602060405180830381865afa158015610cb6573d6000803e3d6000fd5b505050506040513d601f19601f82011682018060405250810190610cda91906154d5565b6040516001600160e01b031960e085901b1681526001600160a01b03909216600483015260248201526044016020604051808303816000875af1158015610d25573d6000803e3d6000fd5b505050506040513d601f19601f82011682018060405250810190610d4991906154d5565b50600a5460405163e12f3a6160e01b81523060048201526022602160991b019163aad3ec96916001600160a01b0390911690839063e12f3a6190602401602060405180830381865afa158015610da3573d6000803e3d6000fd5b505050506040513d601f19601f82011682018060405250810190610dc791906154d5565b6040516001600160e01b031960e085901b1681526001600160a01b03909216600483015260248201526044016020604051808303816000875af1158015610e12573d6000803e3d6000fd5b505050506040513d601f19601f82011682018060405250810190610e3691906154d5565b50600a5460405163662aa11d60e01b81523060048201526001600160a01b0390911660248201526002604360981b019063662aa11d906044016020604051808303816000875af1158015610e8e573d6000803e3d6000fd5b505050506040513d601f19601f82011682018060405250810190610eb291906154d5565b50565b600654600114610ed75760405162461bcd60e51b815260040161065f9061516a565b6002600655610ee583613c70565b6001600160601b038316600090815260096020526040902080546001600160a01b03163314610f29576040516319b1d90760e31b815233600482015260240161065f565b6000610f3485613caa565b8254909150600160a01b900460ff1680610fc05750604051630385592160e01b81526001600160601b03861660048201526001600160a01b03821690630385592190602401602060405180830381865afa158015610f96573d6000803e3d6000fd5b505050506040513d601f19601f82011682018060405250810190610fba91906154ee565b15156001145b15610fde5760405163baf3f0f760e01b815260040160405180910390fd5b6001600160601b0385166000908152600860205260408120835460ff60a01b1916600160a01b908117855560018201549192600b929091611022910460c81b614094565b6001600160d81b03191681526020808201929092526040908101600090812033825260010190925280822054855465ffffffffffff60a81b191665ffffffffffff918216600160a81b90810291909117808855925163ace54da560e01b81526001600160601b038b16600482015261110093600160a01b810460ff1693929004909116906001600160a01b0387169063ace54da590602401602060405180830381865afa1580156110d7573d6000803e3d6000fd5b505050506040513d601f19601f820116820180604052508101906110fb919061550b565b6140a8565b8254909150600160a01b90046001600160601b03161561132c5781546001600160601b03600160a01b80830482168401909116026001600160a01b039091161782556003820154600160981b16156112875760018201546040516370a0823160e01b81523060048201526000916001600160a01b0316906370a0823190602401602060405180830381865afa15801561119d573d6000803e3d6000fd5b505050506040513d601f19601f820116820180604052508101906111c191906154d5565b60038401549091506111e1906001600160a01b0316898460018b8b6140e2565b6111f46001600160601b03831682615528565b60018401546040516370a0823160e01b81523060048201526001600160a01b03909116906370a0823190602401602060405180830381865afa15801561123e573d6000803e3d6000fd5b505050506040513d601f19601f8201168201806040525081019061126291906154d5565b10156112815760405163f7a632f560e01b815260040160405180910390fd5b50611349565b6001820154825460405163bc0dbc9960e01b815273__$edb40677ae687b89a8312a1af66086cd07$__9263bc0dbc99926112da926001600160a01b0392831692909116903090879060009060040161553b565b60006040518083038186803b1580156112f257600080fd5b505af4158015611306573d6000803e3d6000fd5b505050600383015461132791506001600160a01b0316888360008a8a6140e2565b611349565b6003820154611349906001600160a01b0316888360008a8a6140e2565b60405133906001600160601b038916907f0cbe7341c5c56a21e107668323c3c414bcd506f3615ea1115f86dd4df173691490600090a3505060016006555050505050565b6000546060906001600160a01b031633146113ba5760405162461bcd60e51b815260040161065f90615426565b6005805460ff191660011790556000806113d386614112565b6001600160a01b031685856040516113ec929190615577565b6000604051808303816000865af19150503d8060008114611429576040519150601f19603f3d011682016040523d82523d6000602084013e61142e565b606091505b5091509150816114535780604051635d94b9cd60e01b815260040161065f9190614b70565b6005805460ff191690559150505b9392505050565b600060065460011461148c5760405162461bcd60e51b815260040161065f9061516a565b6002600655835161149c90613c70565b83516114a790613caa565b6001600160a01b03166323464a608560000151338760200151886040015189606001516040518663ffffffff1660e01b81526004016114ea959493929190615587565b6020604051808303816000875af1158015611509573d6000803e3d6000fd5b505050506040513d601f19601f8201168201806040525081019061152d91906155d5565b60408086015186516001600160601b03908116600090815260086020528390206002015460808901519351635c2fc75360e01b81529495506115ec9491909216926001600160a01b039092169173__$edb40677ae687b89a8312a1af66086cd07$__91635c2fc753916115a291600401614b70565b600060405180830381865af41580156115bf573d6000803e3d6000fd5b505050506040513d6000823e601f3d908101601f191682016040526115e791908101906155f2565b614167565b83516001600160601b0316600090815260086020526040908190206003015485519186015161162d926001600160a01b0390921691908490339088886141ff565b835160408086015190516001600160601b03918216815233926001600160401b0385169216907fa2e7ed6065b3a19c5ea6dce1c2f7a8933195d54aa91cee19103be6655cc3bcf89060200160405180910390a460016006559392505050565b6001600160d81b031982166000908152600b602052604090205465ffffffffffff600160601b909104811690821611156116d9576040516358d620b360e01b815260040160405180910390fd5b6001600160d81b0319919091166000908152600b602090815260408083203384526001019091529020805465ffffffffffff191665ffffffffffff909216919091179055565b6006546001146117415760405162461bcd60e51b815260040161065f9061516a565b600260065561174f82613c70565b6001600160601b03821660009081526008602052604090206002015473__$edb40677ae687b89a8312a1af66086cd07$__9063636c3803906001600160a01b03163361179a86613caa565b6040516329b843cb60e11b81526001600160601b03881660048201526001600160401b03871660248201523360448201526001600160a01b0391909116906353708796906064016020604051808303816000875af1158015611800573d6000803e3d6000fd5b505050506040513d601f19601f82011682018060405250810190611824919061550b565b60006040518563ffffffff1660e01b815260040161184594939291906153c5565b60006040518083038186803b15801561185d57600080fd5b505af4158015611871573d6000803e3d6000fd5b50506040513392506001600160401b03841691506001600160601b038516907fc5e25a727c1d2fa8b8cf2bd4f7a3ba0b6740aaee33d84a3132d47301844f361890600090a450506001600655565b6000546001600160a01b031633146118e95760405162461bcd60e51b815260040161065f90615426565b6118f281614273565b6000816001600160a01b031663d61735ca6040518163ffffffff1660e01b8152600401602060405180830381865afa158015611932573d6000803e3d6000fd5b505050506040513d601f19601f820116820180604052508101906119569190615691565b9050611961816142a9565b60008061196d8361440f565b6001600160d81b03198216600090815260046020526040902080549294509092509061199d9060ff1660016156ae565b60ff168260ff16146119c6578282604051635820a91160e01b815260040161065f9291906156c7565b805460ff191660ff83811691909117808355610100900416156119ed57805461ff00191681555b6001600160c81b03198416600090815260036020526040902080546001600160a01b0319166001600160a01b03871617905560ff821660001901611a9d5760018054808201825560009182527fb10e2d527612073b26eecdfd717e6a320cf44b4afac2b0732d9fcbe2b7fa0cf6600680830491909101805464ffffffffff929093066005026101000a9182021990921660d887901c919091021790556002805491611a978361540d565b91905055505b846001600160a01b031663ea6439146040518163ffffffff1660e01b8152600401600060405180830381600087803b158015611ad857600080fd5b505af1158015611aec573d6000803e3d6000fd5b50506040516001600160a01b038816925060ff851691506001600160d81b03198616907f9d59a7f92873a37532afecac87d9ae2e0571c04f7cfe13ace6f38209dd1acd1c90600090a45050505050565b60018181548110611b4c57600080fd5b9060005260206000209060069182820401919006600502915054906101000a900460d81b81565b600860205260009081526040902080546001820154600283015460038401546004850180546001600160a01b0380871697600160a01b978890046001600160601b0316978288169781900460c890811b9784169693841695918404901b93600160d81b90930460ff1692611be69061538b565b80601f0160208091040260200160405190810160405280929190818152602001828054611c129061538b565b8015611c5f5780601f10611c3457610100808354040283529160200191611c5f565b820191906000526020600020905b815481529060010190602001808311611c4257829003601f168201915b5050505050905089565b600080620186a08415611cdf57611c9c846001600160601b0316876001600160601b0316836001600160601b03166144f2565b925082611cce6001600160601b038616611cb6898b61548e565b6001600160601b0316846001600160601b03166144f2565b611cd891906154b5565b9150611d11565b611d0e6001600160601b038516611cf6888a61548e565b6001600160601b0316836001600160601b03166144f2565b91505b5094509492505050565b6000611d2682613c70565b611d2f82613caa565b92915050565b6002604360981b0163662aa11d611d4b83614112565b600a5460405160e084901b6001600160e01b03191681526001600160a01b039283166004820152911660248201526044016020604051808303816000875af1158015611d9b573d6000803e3d6000fd5b505050506040513d601f19601f82011682018060405250810190611dbf91906154d5565b5050565b6000546001600160a01b03163314611ded5760405162461bcd60e51b815260040161065f90615426565b620186a065ffffffffffff82161115611e19576040516358d620b360e01b815260040160405180910390fd5b6000826002811115611e2d57611e2d6156e4565b03611e67576001600160d81b031983166000908152600b60205260409020805465ffffffffffff191665ffffffffffff8316179055505050565b6001826002811115611e7b57611e7b6156e4565b03611ec1576001600160d81b031983166000908152600b6020526040902080546bffffffffffff0000000000001916600160301b65ffffffffffff841602179055505050565b6002826002811115611ed557611ed56156e4565b03611f14576001600160d81b031983166000908152600b60205260409020805465ffffffffffff60601b1916600160601b65ffffffffffff8416021790555b505050565b6000546001600160a01b03163314611f435760405162461bcd60e51b815260040161065f90615426565b6001600160d81b0319811660009081526004602052604090205460ff16611f825780600060405163def1560160e01b815260040161065f9291906156c7565b6001600160d81b0319811660009081526004602052604090208054610100900460ff1615611fcf5760405163271614df60e21b81526001600160d81b03198316600482015260240161065f565b805461ff0019166101001781556040516001600160d81b03198316907fa967d5160f4efeca6ce587658357cfe54cbe547c6945ddf21a06ac712216942a90600090a25050565b6006546001146120375760405162461bcd60e51b815260040161065f9061516a565b600260065561204583613c70565b6001600160601b038316600090815260086020526040902080546001600160a01b03163314612089576040516319b1d90760e31b815233600482015260240161065f565b61209284613caa565b60405163b04046df60e01b81526001600160601b03861660048201526001600160a01b03919091169063b04046df90602401600060405180830381600087803b1580156120de57600080fd5b505af11580156120f2573d6000803e3d6000fd5b50508254600160a01b90046001600160601b03161591506121e790505780546001600160a01b0380821680845560018401546003850154600160a01b9094046001600160601b03169373__$edb40677ae687b89a8312a1af66086cd07$__9363636c380393928116926121689290911690614008565b8460006040518563ffffffff1660e01b815260040161218a94939291906153c5565b60006040518083038186803b1580156121a257600080fd5b505af41580156121b6573d6000803e3d6000fd5b5050505060038201546121e1906001600160a01b0381169087908490600160981b1615158888614510565b50612204565b6003810154612204906001600160a01b0316856000808787614510565b6001810154604051600160a01b90910460c81b6001600160c81b031916906001600160601b038616907f2c784826e62ed5cac07a5ebe66734ece0cdc7ee0559b21b59d1434a64e07ec8290600090a3505060016006555050565b60006006546001146122825760405162461bcd60e51b815260040161065f9061516a565b6002600655604084015161229590613c70565b6040808501516001600160601b031660009081526008602052908120600181015490919081906122ce90600160a01b900460c81b614094565b6001600160d81b031981166000908152600b60209081526040822054908a01518654600288015460608d0151959650939461232c9465ffffffffffff80861695600160301b90041693926001600160a01b0390811692911690613cd9565b9050808860600151039250505060606123488760400151613caa565b6001600160a01b031663a8ee70be8860400151848a60a001516040518463ffffffff1660e01b815260040161237f939291906156fa565b6000604051808303816000875af115801561239e573d6000803e3d6000fd5b505050506040513d6000823e601f3d908101601f191682016040526123c69190810190615726565b608089015191955091506001600160601b0390811690851610156123fd5760405163758342a760e01b815260040160405180910390fd5b6060870151600284015460c0890151604051635c2fc75360e01b8152612459936001600160601b0316926001600160a01b03169173__$edb40677ae687b89a8312a1af66086cd07$__91635c2fc753916115a291600401614b70565b82546002840154600385015461248a926001600160a01b03908116926001600160601b038716929082169116613f7b565b604087810180516001600160601b03908116600090815260096020528381205492519091168152918220546124d991600160a01b900460ff1690600160a81b900465ffffffffffff16876140a8565b8454909150600160a01b90046001600160601b0316600003612721576003840154600160981b16156126625760018401546040516370a0823160e01b81523060048201526000916001600160a01b0316906370a0823190602401602060405180830381865afa158015612550573d6000803e3d6000fd5b505050506040513d601f19601f8201168201806040525081019061257491906154d5565b600386015460408b01519192506125a6916001600160a01b0390911690338761259d878c61548e565b60008e8e614540565b816001600160601b0316866001600160601b0316826125c59190615528565b6125cf9190615528565b60018601546040516370a0823160e01b81523060048201526001600160a01b03909116906370a0823190602401602060405180830381865afa158015612619573d6000803e3d6000fd5b505050506040513d601f19601f8201168201806040525081019061263d91906154d5565b101561265c5760405163f7a632f560e01b815260040160405180910390fd5b506127b2565b6001840154845473__$edb40677ae687b89a8312a1af66086cd07$__9163bc0dbc99916001600160a01b0391821691163061269d868b61548e565b60016040518663ffffffff1660e01b81526004016126bf95949392919061553b565b60006040518083038186803b1580156126d757600080fd5b505af41580156126eb573d6000803e3d6000fd5b505050506003840154604089015161271c916001600160a01b0316903386612713868b61548e565b60018d8d614540565b6127b2565b60038401546040890151612745916001600160a01b0316903386612713868b61548e565b61274f818661548e565b84546001600160601b03918216600160a01b9091049091161015612786576040516357e000b160e01b815260040160405180910390fd5b83548582016001600160601b03600160a01b80840482169290920316026001600160a01b039091161784555b8751604080516101208101825286546001600160a01b0380821683526001600160601b03600160a01b928390048116602085015260018a0154808316958501959095529382900460c890811b6001600160c81b0319908116606086015260028b01548316608086015260038b015492831660a0860152928204901b90911660c0830152600160d81b900460ff16151560e08201526004870180546128ef94938a1692918991610100840191906128679061538b565b80601f01602080910402602001604051908101604052809291908181526020018280546128939061538b565b80156128e05780601f106128b5576101008083540402835291602001916128e0565b820191906000526020600020905b8154815290600101906020018083116128c357829003601f168201915b50505050508152505085613ddb565b6001600160601b038116156129ce576040888101516001600160601b03908116600090815260096020908152908390205483516101208101855288546001600160a01b038082168352600160a01b9182900486169483019490945260018a0154808516968301969096529485900460c890811b6001600160c81b0319908116606084015260028b01548516608084015260038b015480861660a085015296870490911b1660c0820152600160d81b90940460ff16151560e08501526004880180546129ce9593909216938616929189916101008401916128679061538b565b336001600160a01b031688604001516001600160601b03167f5c53cd94df0c7e2bcd10a80f475d04aef0e489425aff9687e49f92454b4040148a602001518b6060015189604051612a46939291906001600160a01b039390931683526001600160601b03918216602084015216604082015260600190565b60405180910390a3505060016006555090949350505050565b600654600114612a815760405162461bcd60e51b815260040161065f9061516a565b6002600655336000818152600c602090815260408083206001600160a01b0386168452909152808220805490839055905163636c380360e01b81528493919273__$edb40677ae687b89a8312a1af66086cd07$__9263636c380392612aee9287929187919060040161576c565b60006040518083038186803b158015612b0657600080fd5b505af4158015612b1a573d6000803e3d6000fd5b505060016006555050505050565b6000546001600160a01b03163314612b525760405162461bcd60e51b815260040161065f90615426565b600080546001600160a01b0319166001600160a01b0383169081178255604051909133917f8be0079c531659141344cd1fd0a4f28419497f9722a3daafe3b4186f6b6457e09190a350565b600654600114612bbf5760405162461bcd60e51b815260040161065f9061516a565b6002600655612bcd81613c70565b6000612bd882613caa565b60405163ace54da560e01b81526001600160601b03841660048201529091506000906001600160a01b0383169063ace54da590602401602060405180830381865afa158015612c2b573d6000803e3d6000fd5b505050506040513d601f19601f82011682018060405250810190612c4f919061550b565b604051637dce9e5b60e11b81526001600160601b038516600482015290915060009081906001600160a01b0385169063fb9d3cb6906024016000604051808303816000875af1158015612ca6573d6000803e3d6000fd5b505050506040513d6000823e601f3d908101601f19168201604052612cce9190810190615795565b815191935091506001600160601b031615801590612cf95750600082602001516001600160601b0316115b15613172576001600160601b038516600090815260096020908152604080832060089092528220600181015491929091612d3c90600160a01b900460c81b614094565b6001600160d81b0319166000908152600b60205260408120805460018601805465ffffffffffff19811665ffffffffffff93841690811783559354600160301b908190048416026bffffffffffffffffffffffff19909116909317929092179091558454919250612dc19160ff600160a01b82041691600160a81b90910416886140a8565b60408601519091506001600160a01b03161561303057600183015460608601518354600285015460a0890151895160208b0151612e3d9665ffffffffffff80821697600160301b909204169590946001600160a01b0391821694911692612e38926001600160601b039283169291821691166144f2565b613cd9565b5060a085015182546001600160601b03600160a01b808304821693909303169091026001600160a01b0391821617835560028301546040808801516080890151915163636c380360e01b815273__$edb40677ae687b89a8312a1af66086cd07$__9463636c380394612eb894911692916000906004016153c5565b60006040518083038186803b158015612ed057600080fd5b505af4158015612ee4573d6000803e3d6000fd5b5050505060408581015160a08088015183516101208101855286546001600160a01b0380821683526001600160601b03600160a01b928390048116602085015260018a0154808316988501989098529682900460c890811b6001600160c81b0319908116606086015260028b01548316608086015260038b01549283169685019690965291810490911b90931660c0820152600160d81b90920460ff16151560e08301526004860180546130309590921692918791610100840191612fa89061538b565b80601f0160208091040260200160405190810160405280929190818152602001828054612fd49061538b565b80156130215780601f10612ff657610100808354040283529160200191613021565b820191906000526020600020905b81548152906001019060200180831161300457829003601f168201915b50505050508152505087613ddb565b856001600160601b031685602001516001600160601b031610801561305e57506000816001600160601b0316115b1561308d576020850151860360006130866001600160601b0380851690808516908b166144f2565b9092039150505b6001600160601b0381161561316e5781546001600160601b03600160a01b8083048216849003821681026001600160a01b0393841681811780885588546040805161012081018252948816909317845290849004851660208401526001880154808716928401929092526001600160c81b03199184900460c890811b83166060850152600289015487166080850152600389015480881660a0860152948504901b90911660c083015260ff600160d81b90930492909216151560e082015260048601805461316e9593909316938616928791610100840191612fa89061538b565b5050505b6040516001600160601b038616907f5d4a6ac2287eaf5f22deb24e842c4668fd11d8f478a18cf2a37faa0bcebd31c690600090a250506001600655505050565b60006006546001146131d65760405162461bcd60e51b815260040161065f9061516a565b600260065560006131ed60408701602088016149fe565b6001600160a01b0316148061321a5750600061320f60608701604088016149fe565b6001600160a01b0316145b1561323857604051635435b28960e11b815260040160405180910390fd5b6001600160601b0381166000908152600860209081526040822091908190819061326d90613268908b018b614acf565b6145c0565b9050600061328160408b0160208c016149fe565b6001600160a01b031663313ce5676040518163ffffffff1660e01b8152600401602060405180830381865afa1580156132be573d6000803e3d6000fd5b505050506040513d601f19601f820116820180604052508101906132e29190615883565b905060006132f660608c0160408d016149fe565b6001600160a01b031663313ce5676040518163ffffffff1660e01b8152600401602060405180830381865afa158015613333573d6000803e3d6000fd5b505050506040513d601f19601f820116820180604052508101906133579190615883565b90506000836001600160a01b031663bb24fe8a6040518163ffffffff1660e01b8152600401602060405180830381865afa158015613399573d6000803e3d6000fd5b505050506040513d601f19601f820116820180604052508101906133bd91906158a6565b60038111156133ce576133ce6156e4565b1415806133de575060068260ff16105b806133ec575060128260ff16115b806133fa575060068160ff16105b80613408575060128160ff16115b1561342657604051635435b28960e11b815260040160405180910390fd5b600780546001600160601b031690600061343f836158c7565b91906101000a8154816001600160601b0302191690836001600160601b031602179055509650826001600160a01b031663803c90fd888c84866040518563ffffffff1660e01b8152600401613497949392919061595b565b6020604051808303816000875af11580156134b6573d6000803e3d6000fd5b505050506040513d601f19601f820116820180604052508101906134da919061550b565b9350826001600160a01b031663d61735ca6040518163ffffffff1660e01b8152600401602060405180830381865afa15801561351a573d6000803e3d6000fd5b505050506040513d601f19601f8201168201806040525081019061353e9190615691565b6001808801805460c89390931c600160a01b0266ffffffffffffff60a01b1990931692909217909155836001600160a01b031663994595e16040518163ffffffff1660e01b8152600401602060405180830381865afa1580156135a5573d6000803e3d6000fd5b505050506040513d601f19601f820116820180604052508101906135c99190615a0e565b60018111156135da576135da6156e4565b1480156135f657506135f46101408c016101208d01615a2f565b155b1561361457604051635435b28960e11b815260040160405180910390fd5b6136266101408c016101208d01615a2f565b86546001600160a01b03191633178755945061364d92505060408a01905060208a016149fe565b6001840180546001600160a01b0319166001600160a01b039290921691909117905561367f6060890160408a016149fe565b6002840180546001600160a01b0319166001600160a01b03929092169190911790556001600160601b03841660009081526009602052604090206136c960808a0160608b016149fe565b81546001600160a81b0319166001600160a01b039190911617905560006136fc6136f960e08b0160c08c01614acf565b90565b6001600160d81b0319161461391c57600061372061326860e08b0160c08c01614acf565b90506001816001600160a01b031663bb24fe8a6040518163ffffffff1660e01b8152600401602060405180830381865afa158015613762573d6000803e3d6000fd5b505050506040513d601f19601f8201168201806040525081019061378691906158a6565b6003811115613797576137976156e4565b141580613825575060018401546001600160a01b038083169163caf9278591166137c460e08d018d615a4c565b6040518463ffffffff1660e01b81526004016137e293929190615a92565b602060405180830381865afa1580156137ff573d6000803e3d6000fd5b505050506040513d601f19601f8201168201806040525081019061382391906154ee565b155b1561384357604051635435b28960e11b815260040160405180910390fd5b806001600160a01b031663d61735ca6040518163ffffffff1660e01b8152600401602060405180830381865afa158015613881573d6000803e3d6000fd5b505050506040513d601f19601f820116820180604052508101906138a59190615691565b60038501805460c89290921c600160a01b0266ffffffffffffff60a01b199092169190911790556138d960e08a018a615a4c565b60048601916138e9919083615afd565b506138fc6101208a016101008b01615a2f565b600385018054911515600160d81b0260ff60d81b19909216919091179055505b61393461392f60a08a0160808b016149fe565b614689565b61395157604051635435b28960e11b815260040160405180910390fd5b600061396360a08a0160808b016149fe565b6001600160a01b0316146139a45761398160a0890160808a016149fe565b6003840180546001600160a01b0319166001600160a01b03929092169190911790555b811515600103613bf4576139be6060880160408901615a2f565b156139dc57604051635435b28960e11b815260040160405180910390fd5b82546001600160a01b0316600160a01b6001600160601b03831602178355613a21600160981b613a1260a08b0160808c016149fe565b166001600160a01b0316151590565b15613b63576000613a3860408a0160208b016149fe565b6040516370a0823160e01b81523060048201526001600160a01b0391909116906370a0823190602401602060405180830381865afa158015613a7e573d6000803e3d6000fd5b505050506040513d601f19601f82011682018060405250810190613aa291906154d5565b9050613ab189868460016146f6565b613ac46001600160601b03831682615528565b613ad460408b0160208c016149fe565b6040516370a0823160e01b81523060048201526001600160a01b0391909116906370a0823190602401602060405180830381865afa158015613b1a573d6000803e3d6000fd5b505050506040513d601f19601f82011682018060405250810190613b3e91906154d5565b1015613b5d5760405163f7a632f560e01b815260040160405180910390fd5b50613c01565b73__$edb40677ae687b89a8312a1af66086cd07$__63bc0dbc99613b8d60408b0160208c016149fe565b33308560016040518663ffffffff1660e01b8152600401613bb295949392919061553b565b60006040518083038186803b158015613bca57600080fd5b505af4158015613bde573d6000803e3d6000fd5b50505050613bef88858360006146f6565b613c01565b613c0188858360006146f6565b8260010160149054906101000a900460c81b6001600160c81b031916846001600160601b03167f7cbd7aa1f47e4f995e92547da29ca023e5fad4db6922fcaa352efa004066491f8888604051613c58929190615bbd565b60405180910390a35050600160065550949350505050565b6007546001600160601b0390811690821610610eb257604051630d55bc2360e41b81526001600160601b038216600482015260240161065f565b6001600160601b038116600090815260086020526040812060010154611d2f90600160a01b900460c81b614112565b60008080613d1289896001600160a01b038a1615801590613d0c5750886001600160a01b03168a6001600160a01b031614155b87611c69565b90925090506001600160601b03821615613d6c576001600160a01b038088166000908152600c60209081526040808320938916835292905290812080546001600160601b0385169290613d66908490615528565b90915550505b6001600160601b03811615613dc457600a546001600160a01b039081166000908152600c60209081526040808320938916835292905290812080546001600160601b0384169290613dbe908490615528565b90915550505b613dce818361548e565b9998505050505050505050565b60c082015160408301516001600160c81b03198216613e675760405163636c380360e01b815273__$edb40677ae687b89a8312a1af66086cd07$__9063636c380390613e329084908a908a9060019060040161576c565b60006040518083038186803b158015613e4a57600080fd5b505af4158015613e5e573d6000803e3d6000fd5b50505050613f73565b6000613e7283614112565b60405163bd35547360e01b81526001600160a01b038085166004830152821660248201526044810188905290915073__$edb40677ae687b89a8312a1af66086cd07$__9063bd3554739060640160006040518083038186803b158015613ed757600080fd5b505af4158015613eeb573d6000803e3d6000fd5b50505061010086015160e0870151604051631c81b11f60e31b81526001600160a01b038516935063e40d88f892613f2b928c928892918d91600401615bd1565b6060604051808303816000875af1158015613f4a573d6000803e3d6000fd5b505050506040513d601f19601f82011682018060405250810190613f6e9190615c16565b505050505b505050505050565b6000600160991b8216613f8e5784613f90565b815b60405163636c380360e01b815290915073__$edb40677ae687b89a8312a1af66086cd07$__9063636c380390613fd19086908590899060009060040161576c565b60006040518083038186803b158015613fe957600080fd5b505af4158015613ffd573d6000803e3d6000fd5b505050505050505050565b6000600160981b831661401b5781611461565b5090919050565b6001609a1b861615613f7357613f7363ab4b55ba60e01b8686868686604051602401614052959493929190615c4f565b60408051601f198184030181529190526020810180516001600160e01b03166001600160e01b0319909316929092179091526001600160a01b03881690614745565b6000806140a08361440f565b509392505050565b600083151581036140bb57506000611461565b6140da6001600160601b03831665ffffffffffff8516620186a06144f2565b949350505050565b6001609d1b861615613f7357613f73635122d47a60e01b8686868686604051602401614052959493929190615c84565b6001600160c81b031981166000908152600360205260408120546001600160a01b031680611d2f576000806141468561440f565b91509150818160405163def1560160e01b815260040161065f9291906156c7565b604051628f1c9d60e61b815273__$edb40677ae687b89a8312a1af66086cd07$__906323c72740906141ca9085907f000000000000000000000000000000000000000000000000000000000000000090339030908a908990600190600401615cb9565b60006040518083038186803b1580156141e257600080fd5b505af41580156141f6573d6000803e3d6000fd5b50505050505050565b6001609b1b8716156141f6576141f6637a9eae6a60e01b87878787878760405160240161423196959493929190615d39565b60408051601f198184030181529190526020810180516001600160e01b03166001600160e01b0319909316929092179091526001600160a01b03891690614745565b806001600160a01b03163b600003610eb257604051631bd1ba9d60e21b81526001600160a01b038216600482015260240161065f565b8060005b60078110156143db5760008282600781106142ca576142ca615375565b1a60f81b9050600282101561432657600360fc1b6001600160f81b0319821610806143025750603960f81b6001600160f81b03198216115b156143215783604051628b684360e31b815260040161065f9190615d90565b6143d2565b600582101561437657604160f81b6001600160f81b0319821610806143025750602d60f91b6001600160f81b0319821611156143215783604051628b684360e31b815260040161065f9190615d90565b6001600160f81b03198116158015906143b35750604160f81b6001600160f81b0319821610806143b35750602d60f91b6001600160f81b03198216115b156143d25783604051628b684360e31b815260040161065f9190615d90565b506001016142ad565b5060006143e78361440f565b9150508060ff16600003611f145782604051628b684360e31b815260040161065f9190615d90565b60008082600360fc1b6001600160f81b031982841a60f81b1610806144475750603960f81b8160001a60f81b6001600160f81b031916115b806144655750600360fc1b8160011a60f81b6001600160f81b031916105b806144835750603960f81b8160011a60f81b6001600160f81b031916115b156144a25783604051628b684360e31b815260040161065f9190615d90565b60006144b1603083831a615da5565b6144bc90600a615dbe565b90506144cd6030600184901a615da5565b6144d790826156ae565b60109290921b6001600160d81b031916959194509092505050565b600082600019048411830215820261450957600080fd5b5091020490565b6001609e1b861615613f7357613f7363952dc17d60e01b8686868686604051602401614052959493929190615c84565b6001609c1b8816156145b6576145b6637c7abd3560e01b888888888888886040516024016145749796959493929190615dda565b60408051601f198184030181529190526020810180516001600160e01b03166001600160e01b0319909316929092179091526001600160a01b038a1690614745565b5050505050505050565b6001600160d81b03198116600090815260046020908152604080832081518083019092525460ff80821680845261010090920416151592820192909252906146205782600060405163def1560160e01b815260040161065f9291906156c7565b80602001511561464f5760405163ae05d58960e01b81526001600160d81b03198416600482015260240161065f565b600061465f848360000151614803565b6001600160c81b0319166000908152600360205260409020546001600160a01b0316949350505050565b6000600160981b8216151580156146b257506001609f1b821615806146b257506001609d1b8216155b80156146c257506001609c1b8216155b156146cf57506000919050565b6001600160a01b0382161580611d2f575050600160991b6001600160a01b03909116101590565b61473f61470960a08601608087016149fe565b843361471b6040890160208a016149fe565b61472b60608a0160408b016149fe565b878761473a60a08d018d615a4c565b614892565b50505050565b600060208201519050600080846001600160a01b0316846040516147699190615e26565b6000604051808303816000865af19150503d80600081146147a6576040519150601f19603f3d011682016040523d82523d6000602084013e6147ab565b606091505b5091509150816147be576147be8161490a565b6000818060200190518101906147d49190615e42565b90506001600160e01b031980821690851614613f735760405163d1c96d5f60e01b815260040160405180910390fd5b600080614811600a84615e82565b61481c9060306156ae565b60f81b9050600061482e600a85615ea4565b6148399060306156ae565b6040516001600160f81b0319808516602083015260f89290921b91821660218201526001600160d81b03198716602282015290915060270160405160208183030381529060405261488990615ec6565b95945050505050565b6001609f1b891615613ffd57613ffd63805131f660e01b89898989898989896040516024016148c8989796959493929190615efd565b60408051601f198184030181529190526020810180516001600160e01b03166001600160e01b0319909316929092179091526001600160a01b038b1690614745565b80511561491957805181602001fd5b60405163472850e360e11b815260040160405180910390fd5b6001600160601b0381168114610eb257600080fd5b803561495281614932565b919050565b60008060006040848603121561496c57600080fd5b833561497781614932565b925060208401356001600160401b038082111561499357600080fd5b818601915086601f8301126149a757600080fd5b8135818111156149b657600080fd5b8760208260051b85010111156149cb57600080fd5b6020830194508093505050509250925092565b6001600160a01b0381168114610eb257600080fd5b8035614952816149de565b600060208284031215614a1057600080fd5b8135611461816149de565b60008083601f840112614a2d57600080fd5b5081356001600160401b03811115614a4457600080fd5b602083019150836020828501011115614a5c57600080fd5b9250929050565b600080600060408486031215614a7857600080fd5b8335614a8381614932565b925060208401356001600160401b03811115614a9e57600080fd5b614aaa86828701614a1b565b9497909650939450505050565b80356001600160d81b03198116811461495257600080fd5b600060208284031215614ae157600080fd5b61146182614ab7565b6001600160c81b031981168114610eb257600080fd5b600080600060408486031215614b1557600080fd5b8335614a8381614aea565b60005b83811015614b3b578181015183820152602001614b23565b50506000910152565b60008151808452614b5c816020860160208601614b20565b601f01601f19169290920160200192915050565b6020815260006114616020830184614b44565b634e487b7160e01b600052604160045260246000fd5b60405160a081016001600160401b0381118282101715614bbb57614bbb614b83565b60405290565b60405160e081016001600160401b0381118282101715614bbb57614bbb614b83565b604051608081016001600160401b0381118282101715614bbb57614bbb614b83565b604051601f8201601f191681016001600160401b0381118282101715614c2d57614c2d614b83565b604052919050565b60006001600160401b03821115614c4e57614c4e614b83565b50601f01601f191660200190565b600082601f830112614c6d57600080fd5b8135614c80614c7b82614c35565b614c05565b818152846020838601011115614c9557600080fd5b816020850160208301376000918101602001919091529392505050565b600080600060408486031215614cc757600080fd5b83356001600160401b0380821115614cde57600080fd5b9085019060a08288031215614cf257600080fd5b614cfa614b99565b8235614d0581614932565b81526020830135614d15816149de565b6020820152614d2660408401614947565b6040820152606083013582811115614d3d57600080fd5b614d4989828601614c5c565b606083015250608083013582811115614d6157600080fd5b614d6d89828601614c5c565b60808301525094506020860135915080821115614d8957600080fd5b50614aaa86828701614a1b565b65ffffffffffff81168114610eb257600080fd5b60008060408385031215614dbd57600080fd5b614dc683614ab7565b91506020830135614dd681614d96565b809150509250929050565b6001600160401b0381168114610eb257600080fd5b60008060408385031215614e0957600080fd5b8235614e1481614932565b91506020830135614dd681614de1565b600060208284031215614e3657600080fd5b5035919050565b600060208284031215614e4f57600080fd5b813561146181614932565b6001600160a01b038a811682526001600160601b038a16602083015288811660408301526001600160c81b03198881166060840152878216608084015290861660a0830152841660c082015282151560e08201526101206101008201819052600090614ec883820185614b44565b9c9b505050505050505050505050565b600060208284031215614eea57600080fd5b813561146181614aea565b8015158114610eb257600080fd5b60008060008060808587031215614f1957600080fd5b8435614f2481614932565b93506020850135614f3481614932565b92506040850135614f4481614ef5565b91506060850135614f5481614932565b939692955090935050565b600080600060608486031215614f7457600080fd5b614f7d84614ab7565b9250602084013560038110614f9157600080fd5b91506040840135614fa181614d96565b809150509250925092565b600080600060408486031215614fc157600080fd5b83356001600160401b0380821115614fd857600080fd5b9085019060e08288031215614fec57600080fd5b614ff4614bc1565b614ffd836149f3565b815261500b602084016149f3565b602082015261501c60408401614947565b604082015261502d60608401614947565b606082015261503e60808401614947565b608082015260a08301358281111561505557600080fd5b61506189828601614c5c565b60a08301525060c08301358281111561507957600080fd5b61508589828601614c5c565b60c08301525094506020860135915080821115614d8957600080fd5b600080604083850312156150b457600080fd5b82356150bf816149de565b91506020830135614dd6816149de565b600080600080606085870312156150e557600080fd5b84356001600160401b03808211156150fc57600080fd5b90860190610140828903121561511157600080fd5b9094506020860135908082111561512757600080fd5b9086019060a0828903121561513b57600080fd5b9093506040860135908082111561515157600080fd5b5061515e87828801614a1b565b95989497509550505050565b6020808252600a90820152695245454e5452414e435960b01b604082015260600190565b6001600160601b038416815260406020808301829052908201839052600090849060608401835b868110156151e35783356151c881614de1565b6001600160401b0316825292820192908201906001016151b5565b50979650505050505050565b8051614952816149de565b805161495281614932565b600082601f83011261521657600080fd5b8151615224614c7b82614c35565b81815284602083860101111561523957600080fd5b6140da826020830160208701614b20565b600080604080848603121561525e57600080fd5b83516001600160401b038082111561527557600080fd5b818601915086601f83011261528957600080fd5b815160208282111561529d5761529d614b83565b6152ab818360051b01614c05565b82815260079290921b8401810191818101908a8411156152ca57600080fd5b948201945b83861015615344576080868c0312156152e85760008081fd5b6152f0614be3565b86516152fb816149de565b81528684015161530a816149de565b818501528688015161531b81614932565b8189015260608781015161532e81614932565b90820152825260809590950194908201906152cf565b9189015191975090945050508083111561535d57600080fd5b505061536b85828601615205565b9150509250929050565b634e487b7160e01b600052603260045260246000fd5b600181811c9082168061539f57607f821691505b6020821081036153bf57634e487b7160e01b600052602260045260246000fd5b50919050565b6001600160a01b0394851681529290931660208301526001600160601b03166040820152901515606082015260800190565b634e487b7160e01b600052601160045260246000fd5b60006001820161541f5761541f6153f7565b5060010190565b6020808252600c908201526b15539055551213d49256915160a21b604082015260600190565b60008060006060848603121561546157600080fd5b835161546c81614932565b602085015190935061547d81614932565b6040850151909250614fa181614932565b6001600160601b038181168382160190808211156154ae576154ae6153f7565b5092915050565b6001600160601b038281168282160390808211156154ae576154ae6153f7565b6000602082840312156154e757600080fd5b5051919050565b60006020828403121561550057600080fd5b815161146181614ef5565b60006020828403121561551d57600080fd5b815161146181614932565b80820180821115611d2f57611d2f6153f7565b6001600160a01b03958616815293851660208501529190931660408301526001600160601b039092166060820152901515608082015260a00190565b8183823760009101908152919050565b6001600160601b0386811682526001600160a01b038681166020840152851660408301528316606082015260a0608082018190526000906155ca90830184614b44565b979650505050505050565b6000602082840312156155e757600080fd5b815161146181614de1565b60006020828403121561560457600080fd5b81516001600160401b038082111561561b57600080fd5b908301906060828603121561562f57600080fd5b60405160608101818110838211171561564a5761564a614b83565b604052825161565881614d96565b81526020838101519082015260408301518281111561567657600080fd5b61568287828601615205565b60408301525095945050505050565b6000602082840312156156a357600080fd5b815161146181614aea565b60ff8181168382160190811115611d2f57611d2f6153f7565b6001600160d81b031992909216825260ff16602082015260400190565b634e487b7160e01b600052602160045260246000fd5b60006001600160601b038086168352808516602084015250606060408301526148896060830184614b44565b6000806040838503121561573957600080fd5b825161574481614932565b60208401519092506001600160401b0381111561576057600080fd5b61536b85828601615205565b6001600160a01b0394851681529290931660208301526040820152901515606082015260800190565b600080604083850312156157a857600080fd5b82516001600160401b03808211156157bf57600080fd5b9084019060e082870312156157d357600080fd5b6157db614bc1565b6157e4836151fa565b81526157f2602084016151fa565b6020820152615803604084016151ef565b6040820152615814606084016151ef565b6060820152615825608084016151fa565b608082015261583660a084016151fa565b60a082015260c08301518281111561584d57600080fd5b61585988828601615205565b60c083015250602086015190945091508082111561587657600080fd5b5061536b85828601615205565b60006020828403121561589557600080fd5b815160ff8116811461146157600080fd5b6000602082840312156158b857600080fd5b81516004811061146157600080fd5b60006001600160601b038083168181036158e3576158e36153f7565b6001019392505050565b6000808335601e1984360301811261590457600080fd5b83016020810192503590506001600160401b0381111561592357600080fd5b803603821315614a5c57600080fd5b81835281816020850137506000828201602090810191909152601f909101601f19169091010190565b60006001600160601b03808716835260806020840152853561597c81614d96565b65ffffffffffff908116608085015260208701359061599a82614d96565b1660a084015260408601356159ae81614ef5565b151560c084015260608601356159c381614932565b1660e08301526159d660808601866158ed565b60a06101008501526159ed61012085018284615932565b92505050615a00604083018560ff169052565b60ff83166060830152614889565b600060208284031215615a2057600080fd5b81516002811061146157600080fd5b600060208284031215615a4157600080fd5b813561146181614ef5565b6000808335601e19843603018112615a6357600080fd5b8301803591506001600160401b03821115615a7d57600080fd5b602001915036819003821315614a5c57600080fd5b6001600160a01b03841681526040602082018190526000906148899083018486615932565b601f821115611f1457600081815260208120601f850160051c81016020861015615ade5750805b601f850160051c820191505b81811015613f7357828155600101615aea565b6001600160401b03831115615b1457615b14614b83565b615b2883615b22835461538b565b83615ab7565b6000601f841160018114615b5c5760008515615b445750838201355b600019600387901b1c1916600186901b178355615bb6565b600083815260209020601f19861690835b82811015615b8d5786850135825560209485019460019092019101615b6d565b5086821015615baa5760001960f88860031b161c19848701351681555b505060018560011b0183555b5050505050565b6020815260006140da602083018486615932565b6001600160a01b0386811682528516602082015260a060408201819052600090615bfd90830186614b44565b6060830194909452509015156080909101529392505050565b600080600060608486031215615c2b57600080fd5b835192506020840151615c3d816149de565b80925050604084015190509250925092565b60006001600160601b0380881683528087166020840152808616604084015250608060608301526155ca608083018486615932565b60006001600160601b0380881683528087166020840152508415156040830152608060608301526155ca608083018486615932565b600060018060a01b03808a1683528089166020840152808816604084015280871660608401525084608083015260e060a083015265ffffffffffff84511660e0830152602084015161010083015260408401516060610120840152615d22610140840182614b44565b91505082151560c083015298975050505050505050565b6001600160601b0387811682526001600160401b03871660208301526001600160a01b03861660408301528416606082015260a060808201819052600090615d849083018486615932565b98975050505050505050565b6001600160c81b031991909116815260200190565b60ff8281168282160390811115611d2f57611d2f6153f7565b60ff81811683821602908116908181146154ae576154ae6153f7565b6001600160601b0388811682526001600160a01b0388166020830152868116604083015285166060820152831515608082015260c060a08201819052600090613dce9083018486615932565b60008251615e38818460208701614b20565b9190910192915050565b600060208284031215615e5457600080fd5b81516001600160e01b03198116811461146157600080fd5b634e487b7160e01b600052601260045260246000fd5b600060ff831680615e9557615e95615e6c565b8060ff84160491505092915050565b600060ff831680615eb757615eb7615e6c565b8060ff84160691505092915050565b805160208201516001600160c81b03198082169291906007831015615ef55780818460070360031b1b83161693505b505050919050565b6001600160601b0389811682526001600160a01b0389811660208401528881166040840152871660608301528516608082015283151560a082015260e060c08201819052600090615f519083018486615932565b9a995050505050505050505056fea2646970667358221220f6d29fc98a260603398ab9f7ed144ff03a0b638621975a043972cabb3638e91964736f6c63430008130033",
    "linkReferences": {
      "src/lib/Transfer.sol": {
        "Transfer": [
          {
            "start": 3106,
            "length": 20
          },
          {
            "start": 3741,
            "length": 20
          },
          {
            "start": 5512,
            "length": 20
          },
          {
            "start": 6247,
            "length": 20
          },
          {
            "start": 6744,
            "length": 20
          },
          {
            "start": 9256,
            "length": 20
          },
          {
            "start": 10014,
            "length": 20
          },
          {
            "start": 10582,
            "length": 20
          },
          {
            "start": 11693,
            "length": 20
          },
          {
            "start": 12662,
            "length": 20
          },
          {
            "start": 15952,
            "length": 20
          },
          {
            "start": 16622,
            "length": 20
          },
          {
            "start": 16781,
            "length": 20
          },
          {
            "start": 17037,
            "length": 20
          },
          {
            "start": 17504,
            "length": 20
          }
        ]
      }
    }
  },
  "methodIdentifiers": {
    "auction((bytes5,address,address,address,address,bytes,bytes5,bytes,bool,bool),(uint48,uint48,bool,uint96,bytes),string)": "fd2ade30",
    "bid((uint96,address,uint96,bytes,bytes),bytes)": "59a8bf64",
    "calculateQuoteFees(uint96,uint96,bool,uint96)": "a3b76730",
    "cancel(uint96,bytes)": "cf042fb0",
    "claimBids(uint96,uint64[])": "0a35511b",
    "claimModuleGas(bytes7)": "bc17699c",
    "claimProceeds(uint96,bytes)": "0e9132eb",
    "claimRewards(address)": "ef5cfb8c",
    "claimYieldAndGas()": "38ec8b42",
    "curate(uint96,bytes)": "505f901a",
    "execOnModule(bytes7,bytes)": "50ab0489",
    "fees(bytes5)": "31d72d6b",
    "getModuleForId(uint96)": "a50076f7",
    "getModuleForVeecode(bytes7)": "9e55cba3",
    "getModuleStatus(bytes5)": "5bb27aab",
    "installModule(address)": "7eb1e761",
    "isExecOnModule()": "5c774ed7",
    "lotCounter()": "c4ce88fd",
    "lotFees(uint96)": "ea072e70",
    "lotRouting(uint96)": "9e2e003a",
    "modules(uint256)": "81b2248a",
    "modulesCount()": "f315aafe",
    "owner()": "8da5cb5b",
    "purchase((address,address,uint96,uint96,uint96,bytes,bytes),bytes)": "e1d38d17",
    "refundBid(uint96,uint64)": "7c86106f",
    "rewards(address,address)": "e70b9e27",
    "setCuratorFee(bytes5,uint48)": "7249c0d5",
    "setFee(bytes5,uint8,uint48)": "c74c149b",
    "setProtocol(address)": "0a9d793d",
    "settle(uint96)": "fb9d3cb6",
    "sunsetModule(bytes5)": "c75519ba",
    "transferOwnership(address)": "f2fde38b"
  },
  "id": 37
}