{
  "abi": [
    {
      "type": "constructor",
      "inputs": [
        {
          "name": "owner_",
          "type": "address",
          "internalType": "address"
        },
        {
          "name": "protocol_",
          "type": "address",
          "internalType": "address"
        },
        {
          "name": "permit2_",
          "type": "address",
          "internalType": "address"
        }
      ],
      "stateMutability": "nonpayable"
    },
    {
      "type": "function",
      "name": "auction",
      "inputs": [
        {
          "name": "routing_",
          "type": "tuple",
          "internalType": "struct Auctioneer.RoutingParams",
          "components": [
            {
              "name": "auctionType",
              "type": "bytes5",
              "internalType": "Keycode"
            },
            {
              "name": "baseToken",
              "type": "address",
              "internalType": "contract ERC20"
            },
            {
              "name": "quoteToken",
              "type": "address",
              "internalType": "contract ERC20"
            },
            {
              "name": "curator",
              "type": "address",
              "internalType": "address"
            },
            {
              "name": "hooks",
              "type": "address",
              "internalType": "contract IHooks"
            },
            {
              "name": "allowlist",
              "type": "address",
              "internalType": "contract IAllowlist"
            },
            {
              "name": "allowlistParams",
              "type": "bytes",
              "internalType": "bytes"
            },
            {
              "name": "derivativeType",
              "type": "bytes5",
              "internalType": "Keycode"
            },
            {
              "name": "derivativeParams",
              "type": "bytes",
              "internalType": "bytes"
            }
          ]
        },
        {
          "name": "params_",
          "type": "tuple",
          "internalType": "struct Auction.AuctionParams",
          "components": [
            {
              "name": "start",
              "type": "uint48",
              "internalType": "uint48"
            },
            {
              "name": "duration",
              "type": "uint48",
              "internalType": "uint48"
            },
            {
              "name": "capacityInQuote",
              "type": "bool",
              "internalType": "bool"
            },
            {
              "name": "capacity",
              "type": "uint256",
              "internalType": "uint256"
            },
            {
              "name": "implParams",
              "type": "bytes",
              "internalType": "bytes"
            }
          ]
        },
        {
          "name": "infoHash_",
          "type": "string",
          "internalType": "string"
        }
      ],
      "outputs": [
        {
          "name": "lotId",
          "type": "uint96",
          "internalType": "uint96"
        }
      ],
      "stateMutability": "nonpayable"
    },
    {
      "type": "function",
      "name": "bid",
      "inputs": [
        {
          "name": "params_",
          "type": "tuple",
          "internalType": "struct Router.BidParams",
          "components": [
            {
              "name": "lotId",
              "type": "uint96",
              "internalType": "uint96"
            },
            {
              "name": "recipient",
              "type": "address",
              "internalType": "address"
            },
            {
              "name": "referrer",
              "type": "address",
              "internalType": "address"
            },
            {
              "name": "amount",
              "type": "uint256",
              "internalType": "uint256"
            },
            {
              "name": "auctionData",
              "type": "bytes",
              "internalType": "bytes"
            },
            {
              "name": "allowlistProof",
              "type": "bytes",
              "internalType": "bytes"
            },
            {
              "name": "permit2Data",
              "type": "bytes",
              "internalType": "bytes"
            }
          ]
        }
      ],
      "outputs": [
        {
          "name": "",
          "type": "uint96",
          "internalType": "uint96"
        }
      ],
      "stateMutability": "nonpayable"
    },
    {
      "type": "function",
      "name": "calculateQuoteFees",
      "inputs": [
        {
          "name": "auctionType_",
          "type": "bytes5",
          "internalType": "Keycode"
        },
        {
          "name": "hasReferrer_",
          "type": "bool",
          "internalType": "bool"
        },
        {
          "name": "amount_",
          "type": "uint256",
          "internalType": "uint256"
        }
      ],
      "outputs": [
        {
          "name": "toReferrer",
          "type": "uint256",
          "internalType": "uint256"
        },
        {
          "name": "toProtocol",
          "type": "uint256",
          "internalType": "uint256"
        }
      ],
      "stateMutability": "view"
    },
    {
      "type": "function",
      "name": "cancel",
      "inputs": [
        {
          "name": "lotId_",
          "type": "uint96",
          "internalType": "uint96"
        }
      ],
      "outputs": [],
      "stateMutability": "nonpayable"
    },
    {
      "type": "function",
      "name": "claimModuleGas",
      "inputs": [
        {
          "name": "reference_",
          "type": "bytes7",
          "internalType": "Veecode"
        }
      ],
      "outputs": [],
      "stateMutability": "nonpayable"
    },
    {
      "type": "function",
      "name": "claimRewards",
      "inputs": [
        {
          "name": "token_",
          "type": "address",
          "internalType": "address"
        }
      ],
      "outputs": [],
      "stateMutability": "nonpayable"
    },
    {
      "type": "function",
      "name": "claimYieldAndGas",
      "inputs": [],
      "outputs": [],
      "stateMutability": "nonpayable"
    },
    {
      "type": "function",
      "name": "condensers",
      "inputs": [
        {
          "name": "auctionRef",
          "type": "bytes7",
          "internalType": "Veecode"
        },
        {
          "name": "derivativeRef",
          "type": "bytes7",
          "internalType": "Veecode"
        }
      ],
      "outputs": [
        {
          "name": "condenserRef",
          "type": "bytes7",
          "internalType": "Veecode"
        }
      ],
      "stateMutability": "view"
    },
    {
      "type": "function",
      "name": "curate",
      "inputs": [
        {
          "name": "lotId_",
          "type": "uint96",
          "internalType": "uint96"
        }
      ],
      "outputs": [],
      "stateMutability": "nonpayable"
    },
    {
      "type": "function",
      "name": "execOnModule",
      "inputs": [
        {
          "name": "veecode_",
          "type": "bytes7",
          "internalType": "Veecode"
        },
        {
          "name": "callData_",
          "type": "bytes",
          "internalType": "bytes"
        }
      ],
      "outputs": [
        {
          "name": "",
          "type": "bytes",
          "internalType": "bytes"
        }
      ],
      "stateMutability": "nonpayable"
    },
    {
      "type": "function",
      "name": "fees",
      "inputs": [
        {
          "name": "",
          "type": "bytes5",
          "internalType": "Keycode"
        }
      ],
      "outputs": [
        {
          "name": "protocol",
          "type": "uint48",
          "internalType": "uint48"
        },
        {
          "name": "referrer",
          "type": "uint48",
          "internalType": "uint48"
        },
        {
          "name": "maxCuratorFee",
          "type": "uint48",
          "internalType": "uint48"
        }
      ],
      "stateMutability": "view"
    },
    {
      "type": "function",
      "name": "getModuleForId",
      "inputs": [
        {
          "name": "lotId_",
          "type": "uint96",
          "internalType": "uint96"
        }
      ],
      "outputs": [
        {
          "name": "",
          "type": "address",
          "internalType": "contract AuctionModule"
        }
      ],
      "stateMutability": "view"
    },
    {
      "type": "function",
      "name": "getModuleForVeecode",
      "inputs": [
        {
          "name": "",
          "type": "bytes7",
          "internalType": "Veecode"
        }
      ],
      "outputs": [
        {
          "name": "",
          "type": "address",
          "internalType": "contract Module"
        }
      ],
      "stateMutability": "view"
    },
    {
      "type": "function",
      "name": "getModuleStatus",
      "inputs": [
        {
          "name": "",
          "type": "bytes5",
          "internalType": "Keycode"
        }
      ],
      "outputs": [
        {
          "name": "latestVersion",
          "type": "uint8",
          "internalType": "uint8"
        },
        {
          "name": "sunset",
          "type": "bool",
          "internalType": "bool"
        }
      ],
      "stateMutability": "view"
    },
    {
      "type": "function",
      "name": "installModule",
      "inputs": [
        {
          "name": "newModule_",
          "type": "address",
          "internalType": "contract Module"
        }
      ],
      "outputs": [],
      "stateMutability": "nonpayable"
    },
    {
      "type": "function",
      "name": "isExecOnModule",
      "inputs": [],
      "outputs": [
        {
          "name": "",
          "type": "bool",
          "internalType": "bool"
        }
      ],
      "stateMutability": "view"
    },
    {
      "type": "function",
      "name": "lotCounter",
      "inputs": [],
      "outputs": [
        {
          "name": "",
          "type": "uint96",
          "internalType": "uint96"
        }
      ],
      "stateMutability": "view"
    },
    {
      "type": "function",
      "name": "lotCuration",
      "inputs": [
        {
          "name": "lotId",
          "type": "uint96",
          "internalType": "uint96"
        }
      ],
      "outputs": [
        {
          "name": "curator",
          "type": "address",
          "internalType": "address"
        },
        {
          "name": "curated",
          "type": "bool",
          "internalType": "bool"
        }
      ],
      "stateMutability": "view"
    },
    {
      "type": "function",
      "name": "lotRouting",
      "inputs": [
        {
          "name": "lotId",
          "type": "uint96",
          "internalType": "uint96"
        }
      ],
      "outputs": [
        {
          "name": "auctionReference",
          "type": "bytes7",
          "internalType": "Veecode"
        },
        {
          "name": "owner",
          "type": "address",
          "internalType": "address"
        },
        {
          "name": "baseToken",
          "type": "address",
          "internalType": "contract ERC20"
        },
        {
          "name": "quoteToken",
          "type": "address",
          "internalType": "contract ERC20"
        },
        {
          "name": "hooks",
          "type": "address",
          "internalType": "contract IHooks"
        },
        {
          "name": "allowlist",
          "type": "address",
          "internalType": "contract IAllowlist"
        },
        {
          "name": "derivativeReference",
          "type": "bytes7",
          "internalType": "Veecode"
        },
        {
          "name": "derivativeParams",
          "type": "bytes",
          "internalType": "bytes"
        },
        {
          "name": "wrapDerivative",
          "type": "bool",
          "internalType": "bool"
        },
        {
          "name": "prefunding",
          "type": "uint256",
          "internalType": "uint256"
        }
      ],
      "stateMutability": "view"
    },
    {
      "type": "function",
      "name": "modules",
      "inputs": [
        {
          "name": "",
          "type": "uint256",
          "internalType": "uint256"
        }
      ],
      "outputs": [
        {
          "name": "",
          "type": "bytes5",
          "internalType": "Keycode"
        }
      ],
      "stateMutability": "view"
    },
    {
      "type": "function",
      "name": "modulesCount",
      "inputs": [],
      "outputs": [
        {
          "name": "",
          "type": "uint256",
          "internalType": "uint256"
        }
      ],
      "stateMutability": "view"
    },
    {
      "type": "function",
      "name": "owner",
      "inputs": [],
      "outputs": [
        {
          "name": "",
          "type": "address",
          "internalType": "address"
        }
      ],
      "stateMutability": "view"
    },
    {
      "type": "function",
      "name": "purchase",
      "inputs": [
        {
          "name": "params_",
          "type": "tuple",
          "internalType": "struct Router.PurchaseParams",
          "components": [
            {
              "name": "recipient",
              "type": "address",
              "internalType": "address"
            },
            {
              "name": "referrer",
              "type": "address",
              "internalType": "address"
            },
            {
              "name": "lotId",
              "type": "uint96",
              "internalType": "uint96"
            },
            {
              "name": "amount",
              "type": "uint256",
              "internalType": "uint256"
            },
            {
              "name": "minAmountOut",
              "type": "uint256",
              "internalType": "uint256"
            },
            {
              "name": "auctionData",
              "type": "bytes",
              "internalType": "bytes"
            },
            {
              "name": "allowlistProof",
              "type": "bytes",
              "internalType": "bytes"
            },
            {
              "name": "permit2Data",
              "type": "bytes",
              "internalType": "bytes"
            }
          ]
        }
      ],
      "outputs": [
        {
          "name": "payoutAmount",
          "type": "uint256",
          "internalType": "uint256"
        }
      ],
      "stateMutability": "nonpayable"
    },
    {
      "type": "function",
      "name": "refundBid",
      "inputs": [
        {
          "name": "lotId_",
          "type": "uint96",
          "internalType": "uint96"
        },
        {
          "name": "bidId_",
          "type": "uint96",
          "internalType": "uint96"
        }
      ],
      "outputs": [],
      "stateMutability": "nonpayable"
    },
    {
      "type": "function",
      "name": "rewards",
      "inputs": [
        {
          "name": "",
          "type": "address",
          "internalType": "address"
        },
        {
          "name": "",
          "type": "address",
          "internalType": "contract ERC20"
        }
      ],
      "outputs": [
        {
          "name": "",
          "type": "uint256",
          "internalType": "uint256"
        }
      ],
      "stateMutability": "view"
    },
    {
      "type": "function",
      "name": "setCondenser",
      "inputs": [
        {
          "name": "auctionRef_",
          "type": "bytes7",
          "internalType": "Veecode"
        },
        {
          "name": "derivativeRef_",
          "type": "bytes7",
          "internalType": "Veecode"
        },
        {
          "name": "condenserRef_",
          "type": "bytes7",
          "internalType": "Veecode"
        }
      ],
      "outputs": [],
      "stateMutability": "nonpayable"
    },
    {
      "type": "function",
      "name": "setCuratorFee",
      "inputs": [
        {
          "name": "auctionType_",
          "type": "bytes5",
          "internalType": "Keycode"
        },
        {
          "name": "fee_",
          "type": "uint48",
          "internalType": "uint48"
        }
      ],
      "outputs": [],
      "stateMutability": "nonpayable"
    },
    {
      "type": "function",
      "name": "setFee",
      "inputs": [
        {
          "name": "auctionType_",
          "type": "bytes5",
          "internalType": "Keycode"
        },
        {
          "name": "type_",
          "type": "uint8",
          "internalType": "enum FeeManager.FeeType"
        },
        {
          "name": "fee_",
          "type": "uint48",
          "internalType": "uint48"
        }
      ],
      "outputs": [],
      "stateMutability": "nonpayable"
    },
    {
      "type": "function",
      "name": "setProtocol",
      "inputs": [
        {
          "name": "protocol_",
          "type": "address",
          "internalType": "address"
        }
      ],
      "outputs": [],
      "stateMutability": "nonpayable"
    },
    {
      "type": "function",
      "name": "settle",
      "inputs": [
        {
          "name": "lotId_",
          "type": "uint96",
          "internalType": "uint96"
        }
      ],
      "outputs": [],
      "stateMutability": "nonpayable"
    },
    {
      "type": "function",
      "name": "sunsetModule",
      "inputs": [
        {
          "name": "keycode_",
          "type": "bytes5",
          "internalType": "Keycode"
        }
      ],
      "outputs": [],
      "stateMutability": "nonpayable"
    },
    {
      "type": "function",
      "name": "transferOwnership",
      "inputs": [
        {
          "name": "newOwner",
          "type": "address",
          "internalType": "address"
        }
      ],
      "outputs": [],
      "stateMutability": "nonpayable"
    },
    {
      "type": "event",
      "name": "AuctionCancelled",
      "inputs": [
        {
          "name": "lotId",
          "type": "uint96",
          "indexed": true,
          "internalType": "uint96"
        },
        {
          "name": "auctionRef",
          "type": "bytes7",
          "indexed": true,
          "internalType": "Veecode"
        }
      ],
      "anonymous": false
    },
    {
      "type": "event",
      "name": "AuctionCreated",
      "inputs": [
        {
          "name": "lotId",
          "type": "uint96",
          "indexed": true,
          "internalType": "uint96"
        },
        {
          "name": "auctionRef",
          "type": "bytes7",
          "indexed": true,
          "internalType": "Veecode"
        },
        {
          "name": "infoHash",
          "type": "string",
          "indexed": false,
          "internalType": "string"
        }
      ],
      "anonymous": false
    },
    {
      "type": "event",
      "name": "Bid",
      "inputs": [
        {
          "name": "lotId",
          "type": "uint96",
          "indexed": true,
          "internalType": "uint96"
        },
        {
          "name": "bidId",
          "type": "uint96",
          "indexed": true,
          "internalType": "uint96"
        },
        {
          "name": "bidder",
          "type": "address",
          "indexed": true,
          "internalType": "address"
        },
        {
          "name": "amount",
          "type": "uint256",
          "indexed": false,
          "internalType": "uint256"
        }
      ],
      "anonymous": false
    },
    {
      "type": "event",
      "name": "Curated",
      "inputs": [
        {
          "name": "lotId",
          "type": "uint96",
          "indexed": true,
          "internalType": "uint96"
        },
        {
          "name": "curator",
          "type": "address",
          "indexed": true,
          "internalType": "address"
        }
      ],
      "anonymous": false
    },
    {
      "type": "event",
      "name": "ModuleInstalled",
      "inputs": [
        {
          "name": "keycode",
          "type": "bytes5",
          "indexed": true,
          "internalType": "Keycode"
        },
        {
          "name": "version",
          "type": "uint8",
          "indexed": true,
          "internalType": "uint8"
        },
        {
          "name": "location",
          "type": "address",
          "indexed": true,
          "internalType": "address"
        }
      ],
      "anonymous": false
    },
    {
      "type": "event",
      "name": "ModuleSunset",
      "inputs": [
        {
          "name": "keycode",
          "type": "bytes5",
          "indexed": true,
          "internalType": "Keycode"
        }
      ],
      "anonymous": false
    },
    {
      "type": "event",
      "name": "OwnershipTransferred",
      "inputs": [
        {
          "name": "user",
          "type": "address",
          "indexed": true,
          "internalType": "address"
        },
        {
          "name": "newOwner",
          "type": "address",
          "indexed": true,
          "internalType": "address"
        }
      ],
      "anonymous": false
    },
    {
      "type": "event",
      "name": "Purchase",
      "inputs": [
        {
          "name": "lotId",
          "type": "uint96",
          "indexed": true,
          "internalType": "uint96"
        },
        {
          "name": "buyer",
          "type": "address",
          "indexed": true,
          "internalType": "address"
        },
        {
          "name": "referrer",
          "type": "address",
          "indexed": false,
          "internalType": "address"
        },
        {
          "name": "amount",
          "type": "uint256",
          "indexed": false,
          "internalType": "uint256"
        },
        {
          "name": "payout",
          "type": "uint256",
          "indexed": false,
          "internalType": "uint256"
        }
      ],
      "anonymous": false
    },
    {
      "type": "event",
      "name": "RefundBid",
      "inputs": [
        {
          "name": "lotId",
          "type": "uint96",
          "indexed": true,
          "internalType": "uint96"
        },
        {
          "name": "bidId",
          "type": "uint96",
          "indexed": true,
          "internalType": "uint96"
        },
        {
          "name": "bidder",
          "type": "address",
          "indexed": true,
          "internalType": "address"
        }
      ],
      "anonymous": false
    },
    {
      "type": "event",
      "name": "Settle",
      "inputs": [
        {
          "name": "lotId",
          "type": "uint96",
          "indexed": true,
          "internalType": "uint96"
        }
      ],
      "anonymous": false
    },
    {
      "type": "error",
      "name": "AmountLessThanMinimum",
      "inputs": []
    },
    {
      "type": "error",
      "name": "Broken_Invariant",
      "inputs": []
    },
    {
      "type": "error",
      "name": "InvalidBidder",
      "inputs": [
        {
          "name": "bidder_",
          "type": "address",
          "internalType": "address"
        }
      ]
    },
    {
      "type": "error",
      "name": "InvalidFee",
      "inputs": []
    },
    {
      "type": "error",
      "name": "InvalidHook",
      "inputs": []
    },
    {
      "type": "error",
      "name": "InvalidLotId",
      "inputs": [
        {
          "name": "id_",
          "type": "uint96",
          "internalType": "uint96"
        }
      ]
    },
    {
      "type": "error",
      "name": "InvalidModuleInstall",
      "inputs": [
        {
          "name": "keycode_",
          "type": "bytes5",
          "internalType": "Keycode"
        },
        {
          "name": "version_",
          "type": "uint8",
          "internalType": "uint8"
        }
      ]
    },
    {
      "type": "error",
      "name": "InvalidParams",
      "inputs": []
    },
    {
      "type": "error",
      "name": "InvalidState",
      "inputs": []
    },
    {
      "type": "error",
      "name": "InvalidVeecode",
      "inputs": [
        {
          "name": "veecode_",
          "type": "bytes7",
          "internalType": "Veecode"
        }
      ]
    },
    {
      "type": "error",
      "name": "ModuleAlreadySunset",
      "inputs": [
        {
          "name": "keycode_",
          "type": "bytes5",
          "internalType": "Keycode"
        }
      ]
    },
    {
      "type": "error",
      "name": "ModuleExecutionReverted",
      "inputs": [
        {
          "name": "error_",
          "type": "bytes",
          "internalType": "bytes"
        }
      ]
    },
    {
      "type": "error",
      "name": "ModuleFunctionInvalid",
      "inputs": [
        {
          "name": "function_",
          "type": "bytes4",
          "internalType": "bytes4"
        }
      ]
    },
    {
      "type": "error",
      "name": "ModuleIsSunset",
      "inputs": [
        {
          "name": "keycode_",
          "type": "bytes5",
          "internalType": "Keycode"
        }
      ]
    },
    {
      "type": "error",
      "name": "ModuleNotInstalled",
      "inputs": [
        {
          "name": "keycode_",
          "type": "bytes5",
          "internalType": "Keycode"
        },
        {
          "name": "version_",
          "type": "uint8",
          "internalType": "uint8"
        }
      ]
    },
    {
      "type": "error",
      "name": "NotPermitted",
      "inputs": [
        {
          "name": "caller_",
          "type": "address",
          "internalType": "address"
        }
      ]
    },
    {
      "type": "error",
      "name": "TargetNotAContract",
      "inputs": [
        {
          "name": "target_",
          "type": "address",
          "internalType": "address"
        }
      ]
    }
  ],
  "bytecode": {
    "object": "0x60a060405260016006553480156200001657600080fd5b506040516200616e3803806200616e833981016040819052620000399162000242565b600080546001600160a01b0319166001600160a01b03851690811782556040518592859285928492869283929091907f8be0079c531659141344cd1fd0a4f28419497f9722a3daafe3b4186f6b6457e0908290a35050600b80546001600160a01b0319166001600160a01b03928316179055166080525050604051631a33757d60e01b815273420000000000000000000000000000000000002390631a33757d90620000eb906002906004016200028c565b6020604051808303816000875af11580156200010b573d6000803e3d6000fd5b505050506040513d601f19601f82011682018060405250810190620001319190620002b5565b50604051631a33757d60e01b815273420000000000000000000000000000000000002290631a33757d906200016c906002906004016200028c565b6020604051808303816000875af11580156200018c573d6000803e3d6000fd5b505050506040513d601f19601f82011682018060405250810190620001b29190620002b5565b507343000000000000000000000000000000000000026001600160a01b0316634e606c476040518163ffffffff1660e01b8152600401600060405180830381600087803b1580156200020357600080fd5b505af115801562000218573d6000803e3d6000fd5b50505050505050620002cf565b80516001600160a01b03811681146200023d57600080fd5b919050565b6000806000606084860312156200025857600080fd5b620002638462000225565b9250620002736020850162000225565b9150620002836040850162000225565b90509250925092565b6020810160038310620002af57634e487b7160e01b600052602160045260246000fd5b91905290565b600060208284031215620002c857600080fd5b5051919050565b608051615e83620002eb6000396000613fa40152615e836000f3fe608060405234801561001057600080fd5b50600436106101f05760003560e01c80639e55cba31161010f578063c75519ba116100a2578063f2fde38b11610071578063f2fde38b14610593578063f315aafe146105a6578063f4b26181146105af578063fb9d3cb6146105ea57600080fd5b8063c75519ba1461052f578063d8d9570114610542578063e70b9e2714610555578063ef5cfb8c1461058057600080fd5b8063bc17699c116100de578063bc17699c146104d5578063c1cf8c7f146104e8578063c4ce88fd14610509578063c74c149b1461051c57600080fd5b80639e55cba314610432578063a249a5091461045b578063a50076f7146104af578063a782e524146104c257600080fd5b80635bb27aab1161018757806381b2248a1161015657806381b2248a1461039f5780638da5cb5b146103cb5780638eae8235146103f65780639e2e003a1461040957600080fd5b80635bb27aab146103175780635c774ed71461035c5780637249c0d5146103795780637eb1e7611461038c57600080fd5b806338ec8b42116101c357806338ec8b42146102b45780634bcbd88b146102bc57806350ab0489146102e4578063528c410d1461030457600080fd5b8063076af8b7146101f55780630a9d793d1461022557806320b15fe41461023a57806331d72d6b1461024d575b600080fd5b610208610203366004614b6b565b6105fd565b6040516001600160601b0390911681526020015b60405180910390f35b610238610233366004614c2b565b611263565b005b610238610248366004614c65565b6112af565b61028b61025b366004614cc8565b600c6020526000908152604090205465ffffffffffff80821691600160301b8104821691600160601b9091041683565b6040805165ffffffffffff9485168152928416602084015292169181019190915260600161021c565b6102386114da565b6102cf6102ca366004614cf1565b611732565b6040805192835260208301919091520161021c565b6102f76102f2366004614d30565b611808565b60405161021c9190614dd4565b610208610312366004614f37565b6118e7565b610343610325366004614cc8565b60046020526000908152604090205460ff8082169161010090041682565b6040805160ff909316835290151560208301520161021c565b6005546103699060ff1681565b604051901515815260200161021c565b61023861038736600461503c565b611c42565b61023861039a366004614c2b565b611cd5565b6103b26103ad366004615073565b611f52565b6040516001600160d81b0319909116815260200161021c565b6000546103de906001600160a01b031681565b6040516001600160a01b03909116815260200161021c565b61023861040436600461508c565b611f89565b61041c61041736600461508c565b612177565b60405161021c9a999897969594939291906150a9565b6103de610440366004615122565b6003602052600090815260409020546001600160a01b031681565b61049061046936600461508c565b6009602052600090815260409020546001600160a01b03811690600160a01b900460ff1682565b604080516001600160a01b03909316835290151560208301520161021c565b6103de6104bd36600461508c565b612272565b6102386104d036600461508c565b6122a8565b6102386104e3366004615122565b6125db565b6104fb6104f636600461513f565b612669565b60405190815260200161021c565b600754610208906001600160601b031681565b61023861052a36600461523b565b612d22565b61023861053d366004614cc8565b612e78565b61023861055036600461527d565b612f74565b6104fb6105633660046152ab565b600d60209081526000928352604080842090915290825290205481565b61023861058e366004614c2b565b613108565b6102386105a1366004614c2b565b6131d1565b6104fb60025481565b6105dd6105bd3660046152d9565b600a60209081526000928352604080842090915290825290205460c81b81565b60405161021c9190615307565b6102386105f836600461508c565b613246565b600060065460011461062a5760405162461bcd60e51b81526004016106219061531c565b60405180910390fd5b600260065560006106466106416020880188614cc8565b613caa565b90506000816001600160a01b031663bb24fe8a6040518163ffffffff1660e01b8152600401602060405180830381865afa158015610688573d6000803e3d6000fd5b505050506040513d601f19601f820116820180604052508101906106ac9190615356565b60038111156106bd576106bd615340565b146106db57604051635435b28960e11b815260040160405180910390fd5b60006106ed6040880160208901614c2b565b6001600160a01b0316148061071a5750600061070f6060880160408901614c2b565b6001600160a01b0316145b1561073857604051635435b28960e11b815260040160405180910390fd5b6000808061074c60408a0160208b01614c2b565b6001600160a01b031663313ce5676040518163ffffffff1660e01b8152600401602060405180830381865afa158015610789573d6000803e3d6000fd5b505050506040513d601f19601f820116820180604052508101906107ad9190615377565b905060006107c160608b0160408c01614c2b565b6001600160a01b031663313ce5676040518163ffffffff1660e01b8152600401602060405180830381865afa1580156107fe573d6000803e3d6000fd5b505050506040513d601f19601f820116820180604052508101906108229190615377565b905060068260ff161080610839575060128260ff16115b80610847575060068160ff16105b80610855575060128160ff16115b1561087357604051635435b28960e11b815260040160405180910390fd5b600780546001600160601b031690600061088c836153b0565b91906101000a8154816001600160601b0302191690836001600160601b031602179055509550846001600160a01b031663bae96bdd878b84866040518563ffffffff1660e01b81526004016108e494939291906153ff565b60408051808303816000875af1158015610902573d6000803e3d6000fd5b505050506040513d601f19601f8201168201806040525081019061092691906154dd565b6001600160601b0388166000908152600860209081526040918290208251636b0b9ae560e11b815292519498509296509194506001600160a01b038816935063d61735ca92600480830193928290030181865afa15801561098b573d6000803e3d6000fd5b505050506040513d601f19601f820116820180604052508101906109af919061550b565b815460c89190911c6001600160d81b03199091161733600160381b021781556109de60408a0160208b01614c2b565b6001820180546001600160a01b0319166001600160a01b0392909216919091179055610a1060608a0160408b01614c2b565b6002820180546001600160a01b0319166001600160a01b03929092169190911790556001600160601b0385166000908152600960205260409020610a5a60808b0160608c01614c2b565b81546001600160a81b0319166001600160a01b03919091161790556000610a8e610a8b6101008c0160e08d01614cc8565b90565b6001600160d81b03191614610c93576000610ab36106416101008c0160e08d01614cc8565b90506000816001600160a01b031663d61735ca6040518163ffffffff1660e01b8152600401602060405180830381865afa158015610af5573d6000803e3d6000fd5b505050506040513d601f19601f82011682018060405250810190610b19919061550b565b90506001826001600160a01b031663bb24fe8a6040518163ffffffff1660e01b8152600401602060405180830381865afa158015610b5b573d6000803e3d6000fd5b505050506040513d601f19601f82011682018060405250810190610b7f9190615356565b6003811115610b9057610b90615340565b14610bae57604051635435b28960e11b815260040160405180910390fd5b60018301546001600160a01b038084169163caf927859116610bd46101008f018f615528565b6040518463ffffffff1660e01b8152600401610bf29392919061556e565b602060405180830381865afa158015610c0f573d6000803e3d6000fd5b505050506040513d601f19601f82011682018060405250810190610c339190615593565b610c5057604051635435b28960e11b815260040160405180910390fd5b60048301805466ffffffffffffff60a01b1916600160a01b60c884901c02179055610c7f6101008c018c615528565b6005850191610c8f919083615638565b5050505b80546001600160c81b031960c891821b81166000908152600a602090815260408083206004870154600160a01b9004861b90941683529290529081205490911b90610cdb8290565b6001600160c81b03191614610de5576002610cf582613d73565b6001600160a01b031663bb24fe8a6040518163ffffffff1660e01b8152600401602060405180830381865afa158015610d32573d6000803e3d6000fd5b505050506040513d601f19601f82011682018060405250810190610d569190615356565b6003811115610d6757610d67615340565b14610d8557604051635435b28960e11b815260040160405180910390fd5b6000610d9082613dc8565b6001600160d81b03198116600090815260046020526040902054909150610100900460ff161515600103610de35760405163ae05d58960e01b81526001600160d81b031982166004820152602401610621565b505b506000610df860c08b0160a08c01614c2b565b6001600160a01b031614610ef057610e1660c08a0160a08b01614c2b565b6001600160a01b03163b600003610e4057604051635435b28960e11b815260040160405180910390fd5b610e5060c08a0160a08b01614c2b565b6001600160a01b03166344d799f386610e6c60c08d018d615528565b6040518463ffffffff1660e01b8152600401610e8a939291906156f7565b600060405180830381600087803b158015610ea457600080fd5b505af1158015610eb8573d6000803e3d6000fd5b50610ecd9250505060c08a0160a08b01614c2b565b6004820180546001600160a01b0319166001600160a01b03929092169190911790555b6000610f0260a08b0160808c01614c2b565b6001600160a01b031614610f7d57610f2060a08a0160808b01614c2b565b6001600160a01b03163b600003610f4a57604051635435b28960e11b815260040160405180910390fd5b610f5a60a08a0160808b01614c2b565b6003820180546001600160a01b0319166001600160a01b03929092169190911790555b8215156001036111f957610f976060890160408a0161571a565b15610fb557604051635435b28960e11b815260040160405180910390fd5b600781018290556000610fce60a08b0160808c01614c2b565b6001600160a01b031614611179576000610fee60408b0160208c01614c2b565b6040516370a0823160e01b81523060048201526001600160a01b0391909116906370a0823190602401602060405180830381865afa158015611034573d6000803e3d6000fd5b505050506040513d601f19601f820116820180604052508101906110589190615737565b905061106a60a08b0160808c01614c2b565b60405163e5e3f46560e01b81526001600160601b03881660048201526001600160a01b03919091169063e5e3f46590602401600060405180830381600087803b1580156110b657600080fd5b505af11580156110ca573d6000803e3d6000fd5b5050505082816110da9190615750565b6110ea60408c0160208d01614c2b565b6040516370a0823160e01b81523060048201526001600160a01b0391909116906370a0823190602401602060405180830381865afa158015611130573d6000803e3d6000fd5b505050506040513d601f19601f820116820180604052508101906111549190615737565b101561117357604051639c9d882360e01b815260040160405180910390fd5b506111f9565b73__$edb40677ae687b89a8312a1af66086cd07$__63bc0dbc996111a360408c0160208d01614c2b565b33308660016040518663ffffffff1660e01b81526004016111c8959493929190615763565b60006040518083038186803b1580156111e057600080fd5b505af41580156111f4573d6000803e3d6000fd5b505050505b805460405160c89190911b6001600160c81b031916906001600160601b038716907f7cbd7aa1f47e4f995e92547da29ca023e5fad4db6922fcaa352efa004066491f90611249908b908b90615797565b60405180910390a350506001600655509095945050505050565b6000546001600160a01b0316331461128d5760405162461bcd60e51b8152600401610621906157ab565b600b80546001600160a01b0319166001600160a01b0392909216919091179055565b6000546001600160a01b031633146112d95760405162461bcd60e51b8152600401610621906157ab565b60006112e484613d73565b6001600160a01b031663bb24fe8a6040518163ffffffff1660e01b8152600401602060405180830381865afa158015611321573d6000803e3d6000fd5b505050506040513d601f19601f820116820180604052508101906113459190615356565b600381111561135657611356615340565b1415806113de5750600161136983613d73565b6001600160a01b031663bb24fe8a6040518163ffffffff1660e01b8152600401602060405180830381865afa1580156113a6573d6000803e3d6000fd5b505050506040513d601f19601f820116820180604052508101906113ca9190615356565b60038111156113db576113db615340565b14155b8061147857506001600160c81b03198116158015906114785750600261140382613d73565b6001600160a01b031663bb24fe8a6040518163ffffffff1660e01b8152600401602060405180830381865afa158015611440573d6000803e3d6000fd5b505050506040513d601f19601f820116820180604052508101906114649190615356565b600381111561147557611475615340565b14155b1561149657604051635435b28960e11b815260040160405180910390fd5b6001600160c81b03199283166000908152600a6020908152604080832094909516825292909252919020805466ffffffffffffff191660c89290921c919091179055565b600b5460405163e12f3a6160e01b81523060048201526023602160991b019163aad3ec96916001600160a01b0390911690839063e12f3a6190602401602060405180830381865afa158015611533573d6000803e3d6000fd5b505050506040513d601f19601f820116820180604052508101906115579190615737565b6040516001600160e01b031960e085901b1681526001600160a01b03909216600483015260248201526044016020604051808303816000875af11580156115a2573d6000803e3d6000fd5b505050506040513d601f19601f820116820180604052508101906115c69190615737565b50600b5460405163e12f3a6160e01b81523060048201526022602160991b019163aad3ec96916001600160a01b0390911690839063e12f3a6190602401602060405180830381865afa158015611620573d6000803e3d6000fd5b505050506040513d601f19601f820116820180604052508101906116449190615737565b6040516001600160e01b031960e085901b1681526001600160a01b03909216600483015260248201526044016020604051808303816000875af115801561168f573d6000803e3d6000fd5b505050506040513d601f19601f820116820180604052508101906116b39190615737565b50600b5460405163662aa11d60e01b81523060048201526001600160a01b0390911660248201526002604360981b019063662aa11d906044016020604051808303816000875af115801561170b573d6000803e3d6000fd5b505050506040513d601f19601f8201168201806040525081019061172f9190615737565b50565b6001600160d81b031983166000908152600c6020526040812054819065ffffffffffff1684156117dc576001600160d81b031986166000908152600c6020526040902054600160301b900465ffffffffffff16620186a061179382876157d1565b61179d91906157fe565b935083620186a06117ae8385615812565b6117c09065ffffffffffff16886157d1565b6117ca91906157fe565b6117d49190615838565b9250506117ff565b620186a06117f265ffffffffffff8316866157d1565b6117fc91906157fe565b91505b50935093915050565b6000546060906001600160a01b031633146118355760405162461bcd60e51b8152600401610621906157ab565b6005805460ff19166001179055600061184d85613d73565b9050600080826001600160a01b0316868660405161186c92919061584b565b6000604051808303816000865af19150503d80600081146118a9576040519150601f19603f3d011682016040523d82523d6000602084013e6118ae565b606091505b5091509150816118d35780604051635d94b9cd60e01b81526004016106219190614dd4565b6005805460ff191690559695505050505050565b600060065460011461190b5760405162461bcd60e51b81526004016106219061531c565b6002600655815161191b90613ddc565b81516001600160601b0316600090815260086020908152604080832081516101408101835281546001600160c81b031960c882811b821684526001600160a01b03600160381b9093048316968401969096526001840154821694830194909452600283015481166060830152600383015481166080830152600483015490811660a0830152600160a01b900490931b90911660c083015260058101805460e0840191906119c7906155b0565b80601f01602080910402602001604051908101604052809291908181526020018280546119f3906155b0565b8015611a405780601f10611a1557610100808354040283529160200191611a40565b820191906000526020600020905b815481529060010190602001808311611a2357829003601f168201915b5050509183525050600682015460ff161515602082015260079091015460409091015260a080820151855191860151929350611a80929091903390613e67565b611a9f57604051632aaf132360e11b8152336004820152602401610621565b6000611aae8460000151612272565b6001600160a01b03166356ab110b8560000151338760200151886040015189606001518a608001516040518763ffffffff1660e01b8152600401611af79695949392919061585b565b6020604051808303816000875af1158015611b16573d6000803e3d6000fd5b505050506040513d601f19601f82011682018060405250810190611b3a91906158b1565b845160608087015190850151608086015160c0890151604051635c2fc75360e01b8152959650611bd79573__$edb40677ae687b89a8312a1af66086cd07$__91635c2fc75391611b8d9190600401614dd4565b600060405180830381865af4158015611baa573d6000803e3d6000fd5b505050506040513d6000823e601f3d908101601f19168201604052611bd29190810190615913565b613efb565b336001600160a01b0316816001600160601b031685600001516001600160601b03167fa2e7ed6065b3a19c5ea6dce1c2f7a8933195d54aa91cee19103be6655cc3bcf88760600151604051611c2e91815260200190565b60405180910390a460016006559392505050565b6001600160d81b031982166000908152600c602052604090205465ffffffffffff600160601b90910481169082161115611c8f576040516358d620b360e01b815260040160405180910390fd5b6001600160d81b0319919091166000908152600c602090815260408083203384526001019091529020805465ffffffffffff191665ffffffffffff909216919091179055565b6000546001600160a01b03163314611cff5760405162461bcd60e51b8152600401610621906157ab565b611d088161400e565b6000816001600160a01b031663d61735ca6040518163ffffffff1660e01b8152600401602060405180830381865afa158015611d48573d6000803e3d6000fd5b505050506040513d601f19601f82011682018060405250810190611d6c919061550b565b9050611d7781614044565b600080611d83836141aa565b6001600160d81b031982166000908152600460205260409020805492945090925090611db39060ff1660016159b2565b60ff168260ff1614611ddc578282604051635820a91160e01b81526004016106219291906159cb565b805460ff191660ff8381169190911780835561010090041615611e0357805461ff00191681555b6001600160c81b03198416600090815260036020526040902080546001600160a01b0319166001600160a01b03871617905560ff821660001901611eb35760018054808201825560009182527fb10e2d527612073b26eecdfd717e6a320cf44b4afac2b0732d9fcbe2b7fa0cf6600680830491909101805464ffffffffff929093066005026101000a9182021990921660d887901c919091021790556002805491611ead836159e8565b91905055505b846001600160a01b031663ea6439146040518163ffffffff1660e01b8152600401600060405180830381600087803b158015611eee57600080fd5b505af1158015611f02573d6000803e3d6000fd5b50506040516001600160a01b038816925060ff851691506001600160d81b03198616907f9d59a7f92873a37532afecac87d9ae2e0571c04f7cfe13ace6f38209dd1acd1c90600090a45050505050565b60018181548110611f6257600080fd5b9060005260206000209060069182820401919006600502915054906101000a900460d81b81565b600654600114611fab5760405162461bcd60e51b81526004016106219061531c565b6002600655611fb981613ddc565b6001600160601b03811660009081526008602052604090208054600160381b90046001600160a01b03163314612004576040516319b1d90760e31b8152336004820152602401610621565b61200d82612272565b60405163b04046df60e01b81526001600160601b03841660048201526001600160a01b03919091169063b04046df90602401600060405180830381600087803b15801561205957600080fd5b505af115801561206d573d6000803e3d6000fd5b50505050600781015415612127576007808201546001600160601b03841660009081526008602052604080822090930181905560018401548454935163636c380360e01b8152929373__$edb40677ae687b89a8312a1af66086cd07$__9363636c3803936120f5936001600160a01b0390811693600160381b90041691879190600401615a01565b60006040518083038186803b15801561210d57600080fd5b505af4158015612121573d6000803e3d6000fd5b50505050505b805460405160c89190911b6001600160c81b031916906001600160601b038416907f2c784826e62ed5cac07a5ebe66734ece0cdc7ee0559b21b59d1434a64e07ec8290600090a350506001600655565b60086020526000908152604090208054600182015460028301546003840154600485015460058601805460c887811b986001600160a01b03600160381b909904891698978816979687169695861695851694600160a01b900490911b9290916121df906155b0565b80601f016020809104026020016040519081016040528092919081815260200182805461220b906155b0565b80156122585780601f1061222d57610100808354040283529160200191612258565b820191906000526020600020905b81548152906001019060200180831161223b57829003601f168201915b505050506006830154600790930154919260ff169190508a565b600061227d82613ddc565b6001600160601b0382166000908152600860205260409020546122a29060c81b613d73565b92915050565b6006546001146122ca5760405162461bcd60e51b81526004016106219061531c565b60026006556122d881613ddc565b6001600160601b03811660009081526008602090815260408083206009909252822081549192909161230c9060c81b613dc8565b82549091506001600160a01b0316331461233b576040516319b1d90760e31b8152336004820152602401610621565b8154600160a01b900460ff16156123655760405163baf3f0f760e01b815260040160405180910390fd5b600061237085612272565b604051630385592160e01b81526001600160601b03871660048201529091506001600160a01b03821690630385592190602401602060405180830381865afa1580156123c0573d6000803e3d6000fd5b505050506040513d601f19601f820116820180604052508101906123e49190615593565b15156001036124065760405163baf3f0f760e01b815260040160405180910390fd5b6001600160d81b031982166000908152600c6020908152604080832033845260010190915281205465ffffffffffff169003612455576040516358d620b360e01b815260040160405180910390fd5b825460ff60a01b1916600160a01b1783556007840154156125995760405163ace54da560e01b81526001600160601b03861660048201526000906124f190849033906001600160a01b0386169063ace54da590602401602060405180830381865afa1580156124c8573d6000803e3d6000fd5b505050506040513d601f19601f820116820180604052508101906124ec9190615737565b61428d565b9050808560070160008282546125079190615750565b90915550506001850154855460405163bc0dbc9960e01b815273__$edb40677ae687b89a8312a1af66086cd07$__9263bc0dbc9992612567926001600160a01b0392831692600160381b9092049091169030908790600090600401615763565b60006040518083038186803b15801561257f57600080fd5b505af4158015612593573d6000803e3d6000fd5b50505050505b60405133906001600160601b038716907f0cbe7341c5c56a21e107668323c3c414bcd506f3615ea1115f86dd4df173691490600090a350506001600655505050565b6002604360981b0163662aa11d6125f183613d73565b600b5460405160e084901b6001600160e01b03191681526001600160a01b039283166004820152911660248201526044016020604051808303816000875af1158015612641573d6000803e3d6000fd5b505050506040513d601f19601f820116820180604052508101906126659190615737565b5050565b600060065460011461268d5760405162461bcd60e51b81526004016106219061531c565b600260065560408201516126a090613ddc565b604080830180516001600160601b031660009081526008602052919091206004810154915160c085015191926126e4926001600160a01b0390911691903390613e67565b61270357604051632aaf132360e11b8152336004820152602401610621565b8054600090612745906127189060c81b613dc8565b6020860151845460028601546060890151600160381b9092046001600160a01b03908116929116906142df565b84606001516127549190615838565b905060606127658560400151612272565b6001600160a01b03166376103c8f8660400151848860a001516040518463ffffffff1660e01b815260040161279c93929190615a2a565b6000604051808303816000875af11580156127bb573d6000803e3d6000fd5b505050506040513d6000823e601f3d908101601f191682016040526127e39190810190615a52565b6080870151919550915084101561280d5760405163758342a760e01b815260040160405180910390fd5b60408581015160608701516002860154600387015460e08a01519451635c2fc75360e01b815261286f956001600160a01b03938416939092169173__$edb40677ae687b89a8312a1af66086cd07$__91635c2fc75391611b8d91600401614dd4565b82546002840154600385015461289e926001600160a01b03600160381b909104811692869290821691166143bd565b6040858101516001600160601b0316600090815260096020529081208054909190600160a01b900460ff16156128f45784546128f1906128e09060c81b613dc8565b83546001600160a01b03168861428d565b90505b6040870151612a3b9085612908848a615750565b60408051610140810182528a546001600160c81b031960c882811b821684526001600160a01b03600160381b9093048316602085015260018e015483169484019490945260028d01548216606084015260038d01548216608084015260048d015491821660a0840152600160a01b90910490921b90911660c082015260058a0180548b9160e084019161299a906155b0565b80601f01602080910402602001604051908101604052809291908181526020018280546129c6906155b0565b8015612a135780601f106129e857610100808354040283529160200191612a13565b820191906000526020600020905b8154815290600101906020018083116129f657829003601f168201915b5050509183525050600682015460ff1615156020820152600790910154604090910152614447565b600785015415612a76578585600701541015612a6a57604051633a196e0960e21b815260040160405180910390fd5b60078501805487900390555b604080880151885182516101408101845288546001600160c81b031960c882811b821684526001600160a01b03600160381b9093048316602085015260018c015483169684019690965260028b01548216606084015260038b01548216608084015260048b015491821660a0840152600160a01b90910490941b90931660c0840152600588018054612bb8948b9290918b9160e0840191612b16906155b0565b80601f0160208091040260200160405190810160405280929190818152602001828054612b42906155b0565b8015612b8f5780601f10612b6457610100808354040283529160200191612b8f565b820191906000526020600020905b815481529060010190602001808311612b7257829003601f168201915b5050509183525050600682015460ff161515602082015260079091015460409091015287614632565b8015612c9b57600785015415612bf9578085600701541015612bed57604051633a196e0960e21b815260040160405180910390fd5b60078501805482900390555b604080880151835482516101408101845288546001600160c81b031960c882811b82168452600160381b9092046001600160a01b03908116602085015260018c015481169684019690965260028b01548616606084015260038b01548616608084015260048b015480871660a0850152600160a01b900490911b1660c0820152600589018054612c9b95909316928692918b9160e084019190612b16906155b0565b336001600160a01b031687604001516001600160601b03167f5c53cd94df0c7e2bcd10a80f475d04aef0e489425aff9687e49f92454b40401489602001518a606001518a604051612d0a939291906001600160a01b039390931683526020830191909152604082015260600190565b60405180910390a35050600160065550919392505050565b6000546001600160a01b03163314612d4c5760405162461bcd60e51b8152600401610621906157ab565b620186a065ffffffffffff82161115612d78576040516358d620b360e01b815260040160405180910390fd5b6000826002811115612d8c57612d8c615340565b03612dc6576001600160d81b031983166000908152600c60205260409020805465ffffffffffff191665ffffffffffff8316179055505050565b6001826002811115612dda57612dda615340565b03612e20576001600160d81b031983166000908152600c6020526040902080546bffffffffffff0000000000001916600160301b65ffffffffffff841602179055505050565b6002826002811115612e3457612e34615340565b03612e73576001600160d81b031983166000908152600c60205260409020805465ffffffffffff60601b1916600160601b65ffffffffffff8416021790555b505050565b6000546001600160a01b03163314612ea25760405162461bcd60e51b8152600401610621906157ab565b6001600160d81b0319811660009081526004602052604090205460ff16612ee15780600060405163def1560160e01b81526004016106219291906159cb565b6001600160d81b0319811660009081526004602052604090208054610100900460ff1615612f2e5760405163271614df60e21b81526001600160d81b031983166004820152602401610621565b805461ff0019166101001781556040516001600160d81b03198316907fa967d5160f4efeca6ce587658357cfe54cbe547c6945ddf21a06ac712216942a90600090a25050565b600654600114612f965760405162461bcd60e51b81526004016106219061531c565b6002600655612fa482613ddc565b6000612faf83612272565b60405163177ee7e360e11b81526001600160601b038086166004830152841660248201523360448201526001600160a01b039190911690632efdcfc6906064016020604051808303816000875af115801561300e573d6000803e3d6000fd5b505050506040513d601f19601f820116820180604052508101906130329190615737565b6001600160601b03841660009081526008602052604080822060020154905163636c380360e01b815292935073__$edb40677ae687b89a8312a1af66086cd07$__9263636c380392613094926001600160a01b03169133918791600401615a01565b60006040518083038186803b1580156130ac57600080fd5b505af41580156130c0573d6000803e3d6000fd5b50506040513392506001600160601b0380861692508616907fc5e25a727c1d2fa8b8cf2bd4f7a3ba0b6740aaee33d84a3132d47301844f361890600090a45050600160065550565b60065460011461312a5760405162461bcd60e51b81526004016106219061531c565b6002600655336000818152600d602090815260408083206001600160a01b0386168452909152808220805490839055905163636c380360e01b81528493919273__$edb40677ae687b89a8312a1af66086cd07$__9263636c38039261319792879291879190600401615a01565b60006040518083038186803b1580156131af57600080fd5b505af41580156131c3573d6000803e3d6000fd5b505060016006555050505050565b6000546001600160a01b031633146131fb5760405162461bcd60e51b8152600401610621906157ab565b600080546001600160a01b0319166001600160a01b0383169081178255604051909133917f8be0079c531659141344cd1fd0a4f28419497f9722a3daafe3b4186f6b6457e09190a350565b6006546001146132685760405162461bcd60e51b81526004016106219061531c565b600260065561327681613ddc565b600061328182612272565b60405163ace54da560e01b81526001600160601b03841660048201529091506000906001600160a01b0383169063ace54da590602401602060405180830381865afa1580156132d4573d6000803e3d6000fd5b505050506040513d601f19601f820116820180604052508101906132f89190615737565b604051637dce9e5b60e11b81526001600160601b038516600482015290915060009081906001600160a01b0385169063fb9d3cb6906024016000604051808303816000875af115801561334f573d6000803e3d6000fd5b505050506040513d6000823e601f3d908101601f191682016040526133779190810190615a98565b815191935091506000908190859081835b828110156135335760008882815181106133a4576133a4615bfd565b60200260200101516080015190506001846133bf9190615838565b821480156133cc57508281115b156134fc57828983815181106133e4576133e4615bfd565b60209081029190910101516080015260008161340885670de0b6b3a76400006157d1565b61341291906157fe565b61342490670de0b6b3a7640000615838565b90506000670de0b6b3a7640000828c868151811061344457613444615bfd565b60200260200101516060015161345a91906157d1565b61346491906157fe565b90508098508a848151811061347b5761347b615bfd565b60200260200101516000015197508a848151811061349b5761349b615bfd565b6020026020010151606001518111156134c757604051633a196e0960e21b815260040160405180910390fd5b808b85815181106134da576134da615bfd565b6020026020010151606001818151039150818152505060009450505050613533565b8281111561351d57604051633a196e0960e21b815260040160405180910390fd5b909103908061352b816159e8565b915050613388565b508015613547576135448184615838565b92505b50506001600160601b03881660009081526008602052604081208054909190613598906135769060c81b613dc8565b835460028501548a916001600160a01b03600160381b90910481169116614915565b6001600160601b038d166000908152600960205260408120805492955093509150600160a01b900460ff16156135ee5783546135eb906135da9060c81b613dc8565b83546001600160a01b03168761428d565b90505b61368f8c846135fd8489615750565b604080516101408101825289546001600160c81b031960c882811b821684526001600160a01b03600160381b9093048316602085015260018d015483169484019490945260028c01548216606084015260038c01548216608084015260048c015491821660a0840152600160a01b90910490921b90911660c08201526005890180548a9160e084019161299a906155b0565b80156138ed576007840154156136d05780846007015410156136c457604051633a196e0960e21b815260040160405180910390fd5b60078401805482900390555b6138ed8c8360000160009054906101000a90046001600160a01b03168387604051806101400160405290816000820160009054906101000a900460c81b6001600160c81b0319166001600160c81b03191681526020016000820160079054906101000a90046001600160a01b03166001600160a01b03166001600160a01b031681526020016001820160009054906101000a90046001600160a01b03166001600160a01b03166001600160a01b031681526020016002820160009054906101000a90046001600160a01b03166001600160a01b03166001600160a01b031681526020016003820160009054906101000a90046001600160a01b03166001600160a01b03166001600160a01b031681526020016004820160009054906101000a90046001600160a01b03166001600160a01b03166001600160a01b031681526020016004820160149054906101000a900460c81b6001600160c81b0319166001600160c81b031916815260200160058201805461384b906155b0565b80601f0160208091040260200160405190810160405280929190818152602001828054613877906155b0565b80156138c45780601f10613899576101008083540402835291602001916138c4565b820191906000526020600020905b8154815290600101906020018083116138a757829003601f168201915b5050509183525050600682015460ff16151560208201526007909101546040909101528c614632565b505060078201548751899060005b81811015613aee5760008b828151811061391757613917615bfd565b6020026020010151608001519050613a848f8d848151811061393b5761393b615bfd565b60209081029190910181015181015160408051610140810182528c546001600160c81b031960c882811b821684526001600160a01b03600160381b90930483169684019690965260018f015482169383019390935260028e01548116606083015260038e01548116608083015260048e015490811660a0830152600160a01b900490931b1660c083015260058b0180549192869290918d9160e0840191906139e2906155b0565b80601f0160208091040260200160405190810160405280929190818152602001828054613a0e906155b0565b8015613a5b5780601f10613a3057610100808354040283529160200191613a5b565b820191906000526020600020905b815481529060010190602001808311613a3e57829003601f168201915b5050509183525050600682015460ff16151560208201526007909101546040909101528f614632565b80841015613aa557604051633a196e0960e21b815260040160405180910390fd5b6007870154938190039315613adb5780851015613ad557604051633a196e0960e21b815260040160405180910390fd5b80850394505b5080613ae6816159e8565b9150506138fb565b508215613b89576000600786018190556001860154865460405163636c380360e01b815273__$edb40677ae687b89a8312a1af66086cd07$__9363636c380393613b54936001600160a01b0391821693600160381b909104909116918991600401615a01565b60006040518083038186803b158015613b6c57600080fd5b505af4158015613b80573d6000803e3d6000fd5b50505050613b9b565b600785015415613b9b57600060078601555b5050825460028401546003850154613bcc93506001600160a01b03600160381b9093048316928592811691166143bd565b600085118015613be457506001600160a01b03841615155b15613c6557600282015460405163636c380360e01b815273__$edb40677ae687b89a8312a1af66086cd07$__9163636c380391613c34916001600160a01b03169088908a90600090600401615a01565b60006040518083038186803b158015613c4c57600080fd5b505af4158015613c60573d6000803e3d6000fd5b505050505b6040516001600160601b038b16907f5d4a6ac2287eaf5f22deb24e842c4668fd11d8f478a18cf2a37faa0bcebd31c690600090a2505060016006555050505050505050565b6001600160d81b03198116600090815260046020908152604080832081518083019092525460ff8082168084526101009092041615159282019290925290613d0a5782600060405163def1560160e01b81526004016106219291906159cb565b806020015115613d395760405163ae05d58960e01b81526001600160d81b031984166004820152602401610621565b6000613d49848360000151614a9d565b6001600160c81b0319166000908152600360205260409020546001600160a01b0316949350505050565b6001600160c81b031981166000908152600360205260408120546001600160a01b0316806122a257600080613da7856141aa565b91509150818160405163def1560160e01b81526004016106219291906159cb565b600080613dd4836141aa565b509392505050565b6007546001600160601b0390811690821610613e1657604051630d55bc2360e41b81526001600160601b0382166004820152602401610621565b6001600160601b038116600090815260086020526040902054600160381b90046001600160a01b031661172f57604051630d55bc2360e41b81526001600160601b0382166004820152602401610621565b60006001600160a01b038516613e7f57506001613ef3565b6040516324aad2b360e21b81526001600160a01b038616906392ab4acc90613eaf90879087908790600401615c13565b602060405180830381865afa158015613ecc573d6000803e3d6000fd5b505050506040513d601f19601f82011682018060405250810190613ef09190615593565b90505b949350505050565b6001600160a01b03821615613f74576040516315750d0560e31b81526001600160601b0386166004820152602481018590526001600160a01b0383169063aba8682890604401600060405180830381600087803b158015613f5b57600080fd5b505af1158015613f6f573d6000803e3d6000fd5b505050505b604051628f1c9d60e61b815273__$edb40677ae687b89a8312a1af66086cd07$__906323c7274090613fd79086907f000000000000000000000000000000000000000000000000000000000000000090339030908b908990600190600401615c46565b60006040518083038186803b158015613fef57600080fd5b505af4158015614003573d6000803e3d6000fd5b505050505050505050565b806001600160a01b03163b60000361172f57604051631bd1ba9d60e21b81526001600160a01b0382166004820152602401610621565b8060005b600781101561417657600082826007811061406557614065615bfd565b1a60f81b905060028210156140c157600360fc1b6001600160f81b03198216108061409d5750603960f81b6001600160f81b03198216115b156140bc5783604051628b684360e31b81526004016106219190615307565b61416d565b600582101561411157604160f81b6001600160f81b03198216108061409d5750602d60f91b6001600160f81b0319821611156140bc5783604051628b684360e31b81526004016106219190615307565b6001600160f81b031981161580159061414e5750604160f81b6001600160f81b03198216108061414e5750602d60f91b6001600160f81b03198216115b1561416d5783604051628b684360e31b81526004016106219190615307565b50600101614048565b506000614182836141aa565b9150508060ff16600003612e735782604051628b684360e31b81526004016106219190615307565b60008082600360fc1b6001600160f81b031982841a60f81b1610806141e25750603960f81b8160001a60f81b6001600160f81b031916115b806142005750600360fc1b8160011a60f81b6001600160f81b031916105b8061421e5750603960f81b8160011a60f81b6001600160f81b031916115b1561423d5783604051628b684360e31b81526004016106219190615307565b600061424c603083831a615cc6565b61425790600a615cdf565b90506142686030600184901a615cc6565b61427290826159b2565b60109290921b6001600160d81b031916959194509092505050565b6001600160d81b031983166000908152600c602090815260408083206001600160a01b0386168452600101909152812054620186a0906142d59065ffffffffffff16846157d1565b613ef391906157fe565b60008080614317886001600160a01b038916158015906143115750876001600160a01b0316896001600160a01b031614155b86611732565b9092509050811561435f576001600160a01b038088166000908152600d6020908152604080832093891683529290529081208054849290614359908490615750565b90915550505b80156143a557600b546001600160a01b039081166000908152600d602090815260408083209389168352929052908120805483929061439f908490615750565b90915550505b6143af8183615750565b925050505b95945050505050565b73__$edb40677ae687b89a8312a1af66086cd07$__63636c3803836001600160a01b038416156143ed57836143ef565b865b8660006040518563ffffffff1660e01b81526004016144119493929190615a01565b60006040518083038186803b15801561442957600080fd5b505af415801561443d573d6000803e3d6000fd5b5050505050505050565b60008161012001511161462c57604081015160808201516001600160a01b0316156145e7576040516370a0823160e01b81523060048201526000906001600160a01b038316906370a0823190602401602060405180830381865afa1580156144b3573d6000803e3d6000fd5b505050506040513d601f19601f820116820180604052508101906144d79190615737565b6080840151604051637c41fdaf60e11b81526001600160601b038916600482015260248101889052604481018790529192506001600160a01b03169063f883fb5e90606401600060405180830381600087803b15801561453657600080fd5b505af115801561454a573d6000803e3d6000fd5b50505050838161455a9190615750565b6040516370a0823160e01b81523060048201526001600160a01b038416906370a0823190602401602060405180830381865afa15801561459e573d6000803e3d6000fd5b505050506040513d601f19601f820116820180604052508101906145c29190615737565b10156145e157604051639c9d882360e01b815260040160405180910390fd5b5061462a565b602082015160405163bc0dbc9960e01b815273__$edb40677ae687b89a8312a1af66086cd07$__9163bc0dbc9991613fd791859130908990600190600401615763565b505b50505050565b60c082015160408301516001600160c81b031982166146be5760405163636c380360e01b815273__$edb40677ae687b89a8312a1af66086cd07$__9063636c3803906146899084908a908a90600190600401615a01565b60006040518083038186803b1580156146a157600080fd5b505af41580156146b5573d6000803e3d6000fd5b50505050614889565b60006146c983613d73565b60e086015186516001600160c81b03199081166000908152600a602090815260408083208985168452909152902054929350909160c81b9081161561478d57600061471382613d73565b6040516333f1a81560e11b81529091506001600160a01b038216906367e3502a90614744908a908790600401615cfb565b600060405180830381865afa158015614761573d6000803e3d6000fd5b505050506040513d6000823e601f3d908101601f191682016040526147899190810190615d20565b9250505b60405163bd35547360e01b81526001600160a01b038086166004830152841660248201526044810189905273__$edb40677ae687b89a8312a1af66086cd07$__9063bd3554739060640160006040518083038186803b1580156147ef57600080fd5b505af4158015614803573d6000803e3d6000fd5b505050610100880151604051631c81b11f60e31b81526001600160a01b038616925063e40d88f89161483f918d91899188918f91600401615d54565b6060604051808303816000875af115801561485e573d6000803e3d6000fd5b505050506040513d601f19601f820116820180604052508101906148829190615d99565b5050505050505b60808401516001600160a01b03161561490c576080840151604051634d420d8560e01b81526001600160601b0389166004820152602481018790526001600160a01b0390911690634d420d8590604401600060405180830381600087803b1580156148f357600080fd5b505af1158015614907573d6000803e3d6000fd5b505050505b50505050505050565b600080600080865190506000805b82811015614a3e57600089828151811061493f5761493f615bfd565b602002602001015160400151905060008a838151811061496157614961615bfd565b60200260200101516060015190506000806149b18e60006001600160a01b0316866001600160a01b0316141580156149ab57508d6001600160a01b0316866001600160a01b031614155b85611732565b909250905081156149f9576001600160a01b038085166000908152600d60209081526040808320938f16835292905290812080548492906149f3908490615750565b90915550505b614a038187615750565b9550614a0f8183615750565b614a19908a615750565b9850614a25838b615750565b9950505050508080614a36906159e8565b915050614923565b508015614a8557600b546001600160a01b039081166000908152600d60209081526040808320938a1683529290529081208054839290614a7f908490615750565b90915550505b614a8f8486615838565b925050509450945094915050565b600080614aab600a84615dd2565b614ab69060306159b2565b60f81b90506000614ac8600a85615df4565b614ad39060306159b2565b6040516001600160f81b0319808516602083015260f89290921b91821660218201526001600160d81b0319871660228201529091506027016040516020818303038152906040526143b490615e16565b60008083601f840112614b3557600080fd5b5081356001600160401b03811115614b4c57600080fd5b602083019150836020828501011115614b6457600080fd5b9250929050565b60008060008060608587031215614b8157600080fd5b84356001600160401b0380821115614b9857600080fd5b908601906101208289031215614bad57600080fd5b90945060208601359080821115614bc357600080fd5b9086019060a08289031215614bd757600080fd5b90935060408601359080821115614bed57600080fd5b50614bfa87828801614b23565b95989497509550505050565b6001600160a01b038116811461172f57600080fd5b8035614c2681614c06565b919050565b600060208284031215614c3d57600080fd5b8135614c4881614c06565b9392505050565b6001600160c81b03198116811461172f57600080fd5b600080600060608486031215614c7a57600080fd5b8335614c8581614c4f565b92506020840135614c9581614c4f565b91506040840135614ca581614c4f565b809150509250925092565b80356001600160d81b031981168114614c2657600080fd5b600060208284031215614cda57600080fd5b614c4882614cb0565b801515811461172f57600080fd5b600080600060608486031215614d0657600080fd5b614d0f84614cb0565b92506020840135614d1f81614ce3565b929592945050506040919091013590565b600080600060408486031215614d4557600080fd5b8335614d5081614c4f565b925060208401356001600160401b03811115614d6b57600080fd5b614d7786828701614b23565b9497909650939450505050565b60005b83811015614d9f578181015183820152602001614d87565b50506000910152565b60008151808452614dc0816020860160208601614d84565b601f01601f19169290920160200192915050565b602081526000614c486020830184614da8565b634e487b7160e01b600052604160045260246000fd5b60405160e081016001600160401b0381118282101715614e1f57614e1f614de7565b60405290565b60405161010081016001600160401b0381118282101715614e1f57614e1f614de7565b60405160c081016001600160401b0381118282101715614e1f57614e1f614de7565b604051601f8201601f191681016001600160401b0381118282101715614e9257614e92614de7565b604052919050565b6001600160601b038116811461172f57600080fd5b8035614c2681614e9a565b60006001600160401b03821115614ed357614ed3614de7565b50601f01601f191660200190565b600082601f830112614ef257600080fd5b8135614f05614f0082614eba565b614e6a565b818152846020838601011115614f1a57600080fd5b816020850160208301376000918101602001919091529392505050565b600060208284031215614f4957600080fd5b81356001600160401b0380821115614f6057600080fd5b9083019060e08286031215614f7457600080fd5b614f7c614dfd565b614f8583614eaf565b8152614f9360208401614c1b565b6020820152614fa460408401614c1b565b604082015260608301356060820152608083013582811115614fc557600080fd5b614fd187828601614ee1565b60808301525060a083013582811115614fe957600080fd5b614ff587828601614ee1565b60a08301525060c08301358281111561500d57600080fd5b61501987828601614ee1565b60c08301525095945050505050565b65ffffffffffff8116811461172f57600080fd5b6000806040838503121561504f57600080fd5b61505883614cb0565b9150602083013561506881615028565b809150509250929050565b60006020828403121561508557600080fd5b5035919050565b60006020828403121561509e57600080fd5b8135614c4881614e9a565b6001600160c81b03198b811682526001600160a01b038b811660208401528a8116604084015289811660608401528881166080840152871660a0830152851660c082015261014060e0820181905260009061510683820187614da8565b9415156101008401525050610120015298975050505050505050565b60006020828403121561513457600080fd5b8135614c4881614c4f565b60006020828403121561515157600080fd5b81356001600160401b038082111561516857600080fd5b90830190610100828603121561517d57600080fd5b615185614e25565b61518e83614c1b565b815261519c60208401614c1b565b60208201526151ad60408401614eaf565b6040820152606083013560608201526080830135608082015260a0830135828111156151d857600080fd5b6151e487828601614ee1565b60a08301525060c0830135828111156151fc57600080fd5b61520887828601614ee1565b60c08301525060e08301358281111561522057600080fd5b61522c87828601614ee1565b60e08301525095945050505050565b60008060006060848603121561525057600080fd5b61525984614cb0565b925060208401356003811061526d57600080fd5b91506040840135614ca581615028565b6000806040838503121561529057600080fd5b823561529b81614e9a565b9150602083013561506881614e9a565b600080604083850312156152be57600080fd5b82356152c981614c06565b9150602083013561506881614c06565b600080604083850312156152ec57600080fd5b82356152f781614c4f565b9150602083013561506881614c4f565b6001600160c81b031991909116815260200190565b6020808252600a90820152695245454e5452414e435960b01b604082015260600190565b634e487b7160e01b600052602160045260246000fd5b60006020828403121561536857600080fd5b815160048110614c4857600080fd5b60006020828403121561538957600080fd5b815160ff81168114614c4857600080fd5b634e487b7160e01b600052601160045260246000fd5b60006001600160601b038083168181036153cc576153cc61539a565b6001019392505050565b81835281816020850137506000828201602090810191909152601f909101601f19169091010190565b6001600160601b0385168152608060208201526000843561541f81615028565b65ffffffffffff908116608084015260208601359061543d82615028565b1660a0830152604085013561545181614ce3565b151560c0830152606085013560e0830152608085013536869003601e1901811261547a57600080fd5b85016020810190356001600160401b0381111561549657600080fd5b8036038213156154a557600080fd5b60a06101008501526154bc610120850182846153d6565b925050506154cf604083018560ff169052565b60ff831660608301526143b4565b600080604083850312156154f057600080fd5b82516154fb81614ce3565b6020939093015192949293505050565b60006020828403121561551d57600080fd5b8151614c4881614c4f565b6000808335601e1984360301811261553f57600080fd5b8301803591506001600160401b0382111561555957600080fd5b602001915036819003821315614b6457600080fd5b6001600160a01b03841681526040602082018190526000906143b490830184866153d6565b6000602082840312156155a557600080fd5b8151614c4881614ce3565b600181811c908216806155c457607f821691505b6020821081036155e457634e487b7160e01b600052602260045260246000fd5b50919050565b601f821115612e7357600081815260208120601f850160051c810160208610156156115750805b601f850160051c820191505b818110156156305782815560010161561d565b505050505050565b6001600160401b0383111561564f5761564f614de7565b6156638361565d83546155b0565b836155ea565b6000601f841160018114615697576000851561567f5750838201355b600019600387901b1c1916600186901b17835561462a565b600083815260209020601f19861690835b828110156156c857868501358255602094850194600190920191016156a8565b50868210156156e55760001960f88860031b161c19848701351681555b505060018560011b0183555050505050565b6001600160601b03841681526040602082015260006143b46040830184866153d6565b60006020828403121561572c57600080fd5b8135614c4881614ce3565b60006020828403121561574957600080fd5b5051919050565b808201808211156122a2576122a261539a565b6001600160a01b03958616815293851660208501529190931660408301526060820192909252901515608082015260a00190565b602081526000613ef36020830184866153d6565b6020808252600c908201526b15539055551213d49256915160a21b604082015260600190565b80820281158282048414176122a2576122a261539a565b634e487b7160e01b600052601260045260246000fd5b60008261580d5761580d6157e8565b500490565b65ffffffffffff8181168382160190808211156158315761583161539a565b5092915050565b818103818111156122a2576122a261539a565b8183823760009101908152919050565b6001600160601b03871681526001600160a01b0386811660208301528581166040830152841660608201526080810183905260c060a082018190526000906158a590830184614da8565b98975050505050505050565b6000602082840312156158c357600080fd5b8151614c4881614e9a565b600082601f8301126158df57600080fd5b81516158ed614f0082614eba565b81815284602083860101111561590257600080fd5b613ef3826020830160208701614d84565b60006020828403121561592557600080fd5b81516001600160401b038082111561593c57600080fd5b908301906060828603121561595057600080fd5b60405160608101818110838211171561596b5761596b614de7565b604052825161597981615028565b81526020838101519082015260408301518281111561599757600080fd5b6159a3878286016158ce565b60408301525095945050505050565b60ff81811683821601908111156122a2576122a261539a565b6001600160d81b031992909216825260ff16602082015260400190565b6000600182016159fa576159fa61539a565b5060010190565b6001600160a01b0394851681529290931660208301526040820152901515606082015260800190565b6001600160601b03841681528260208201526060604082015260006143b46060830184614da8565b60008060408385031215615a6557600080fd5b8251915060208301516001600160401b03811115615a8257600080fd5b615a8e858286016158ce565b9150509250929050565b60008060408385031215615aab57600080fd5b82516001600160401b0380821115615ac257600080fd5b818501915085601f830112615ad657600080fd5b8151602082821115615aea57615aea614de7565b8160051b615af9828201614e6a565b928352848101820192828101908a851115615b1357600080fd5b83870192505b84831015615bd657825186811115615b315760008081fd5b870160c0818d03601f1901811315615b495760008081fd5b615b51614e48565b86830151615b5e81614c06565b81526040830151615b6e81614c06565b81880152606083810151615b8181614c06565b806040840152506080808501518284015260a0915081850151818401525082840151925089831115615bb35760008081fd5b615bc18f89858701016158ce565b90820152845250509183019190830190615b19565b9289015192975091945050505080821115615bf057600080fd5b50615a8e858286016158ce565b634e487b7160e01b600052603260045260246000fd5b6001600160601b03841681526001600160a01b03831660208201526060604082018190526000906143b490830184614da8565b600060018060a01b03808a1683528089166020840152808816604084015280871660608401525084608083015260e060a083015265ffffffffffff84511660e0830152602084015161010083015260408401516060610120840152615caf610140840182614da8565b91505082151560c083015298975050505050505050565b60ff82811682821603908111156122a2576122a261539a565b60ff81811683821602908116908181146158315761583161539a565b604081526000615d0e6040830185614da8565b82810360208401526143b48185614da8565b600060208284031215615d3257600080fd5b81516001600160401b03811115615d4857600080fd5b613ef3848285016158ce565b6001600160a01b0386811682528516602082015260a060408201819052600090615d8090830186614da8565b6060830194909452509015156080909101529392505050565b600080600060608486031215615dae57600080fd5b835192506020840151615dc081614c06565b80925050604084015190509250925092565b600060ff831680615de557615de56157e8565b8060ff84160491505092915050565b600060ff831680615e0757615e076157e8565b8060ff84160691505092915050565b805160208201516001600160c81b03198082169291906007831015615e455780818460070360031b1b83161693505b50505091905056fea26469706673582212203160b7c5bb7de8ebe47a6c6a826977de5e1e2957123b1d6e1d08338ba5aaffe764736f6c63430008130033",
    "linkReferences": {
      "src/lib/Transfer.sol": {
        "Transfer": [
          {
            "start": 5222,
            "length": 20
          },
          {
            "start": 7761,
            "length": 20
          },
          {
            "start": 9122,
            "length": 20
          },
          {
            "start": 10253,
            "length": 20
          },
          {
            "start": 11060,
            "length": 20
          },
          {
            "start": 13131,
            "length": 20
          },
          {
            "start": 13398,
            "length": 20
          },
          {
            "start": 15871,
            "length": 20
          },
          {
            "start": 16104,
            "length": 20
          },
          {
            "start": 17005,
            "length": 20
          },
          {
            "start": 18090,
            "length": 20
          },
          {
            "start": 18662,
            "length": 20
          },
          {
            "start": 18757,
            "length": 20
          },
          {
            "start": 19109,
            "length": 20
          }
        ]
      }
    }
  },
  "methodIdentifiers": {
    "auction((bytes5,address,address,address,address,address,bytes,bytes5,bytes),(uint48,uint48,bool,uint256,bytes),string)": "076af8b7",
    "bid((uint96,address,address,uint256,bytes,bytes,bytes))": "528c410d",
    "calculateQuoteFees(bytes5,bool,uint256)": "4bcbd88b",
    "cancel(uint96)": "8eae8235",
    "claimModuleGas(bytes7)": "bc17699c",
    "claimRewards(address)": "ef5cfb8c",
    "claimYieldAndGas()": "38ec8b42",
    "condensers(bytes7,bytes7)": "f4b26181",
    "curate(uint96)": "a782e524",
    "execOnModule(bytes7,bytes)": "50ab0489",
    "fees(bytes5)": "31d72d6b",
    "getModuleForId(uint96)": "a50076f7",
    "getModuleForVeecode(bytes7)": "9e55cba3",
    "getModuleStatus(bytes5)": "5bb27aab",
    "installModule(address)": "7eb1e761",
    "isExecOnModule()": "5c774ed7",
    "lotCounter()": "c4ce88fd",
    "lotCuration(uint96)": "a249a509",
    "lotRouting(uint96)": "9e2e003a",
    "modules(uint256)": "81b2248a",
    "modulesCount()": "f315aafe",
    "owner()": "8da5cb5b",
    "purchase((address,address,uint96,uint256,uint256,bytes,bytes,bytes))": "c1cf8c7f",
    "refundBid(uint96,uint96)": "d8d95701",
    "rewards(address,address)": "e70b9e27",
    "setCondenser(bytes7,bytes7,bytes7)": "20b15fe4",
    "setCuratorFee(bytes5,uint48)": "7249c0d5",
    "setFee(bytes5,uint8,uint48)": "c74c149b",
    "setProtocol(address)": "0a9d793d",
    "settle(uint96)": "fb9d3cb6",
    "sunsetModule(bytes5)": "c75519ba",
    "transferOwnership(address)": "f2fde38b"
  },
  "id": 33
}