{
  "abi": [
    {
      "inputs": [
        {
          "internalType": "address",
          "name": "auctionHouse_",
          "type": "address"
        }
      ],
      "stateMutability": "nonpayable",
      "type": "constructor"
    },
    {
      "inputs": [],
      "name": "BrokenInvariant",
      "type": "error"
    },
    {
      "inputs": [],
      "name": "Derivative_NotImplemented",
      "type": "error"
    },
    {
      "inputs": [],
      "name": "InsufficientBalance",
      "type": "error"
    },
    {
      "inputs": [],
      "name": "InvalidParams",
      "type": "error"
    },
    {
      "inputs": [
        {
          "internalType": "address",
          "name": "parent_",
          "type": "address"
        }
      ],
      "name": "Module_InvalidParent",
      "type": "error"
    },
    {
      "inputs": [],
      "name": "Module_OnlyInternal",
      "type": "error"
    },
    {
      "inputs": [
        {
          "internalType": "address",
          "name": "caller_",
          "type": "address"
        }
      ],
      "name": "Module_OnlyParent",
      "type": "error"
    },
    {
      "inputs": [],
      "name": "NotPermitted",
      "type": "error"
    },
    {
      "inputs": [
        {
          "internalType": "address",
          "name": "token_",
          "type": "address"
        }
      ],
      "name": "UnsupportedToken",
      "type": "error"
    },
    {
      "anonymous": false,
      "inputs": [
        {
          "indexed": true,
          "internalType": "address",
          "name": "owner",
          "type": "address"
        },
        {
          "indexed": true,
          "internalType": "address",
          "name": "spender",
          "type": "address"
        },
        {
          "indexed": true,
          "internalType": "uint256",
          "name": "id",
          "type": "uint256"
        },
        {
          "indexed": false,
          "internalType": "uint256",
          "name": "amount",
          "type": "uint256"
        }
      ],
      "name": "Approval",
      "type": "event"
    },
    {
      "anonymous": false,
      "inputs": [
        {
          "indexed": true,
          "internalType": "uint256",
          "name": "tokenId",
          "type": "uint256"
        },
        {
          "indexed": false,
          "internalType": "uint48",
          "name": "start",
          "type": "uint48"
        },
        {
          "indexed": false,
          "internalType": "uint48",
          "name": "expiry",
          "type": "uint48"
        },
        {
          "indexed": false,
          "internalType": "address",
          "name": "baseToken",
          "type": "address"
        }
      ],
      "name": "DerivativeCreated",
      "type": "event"
    },
    {
      "anonymous": false,
      "inputs": [
        {
          "indexed": true,
          "internalType": "address",
          "name": "owner",
          "type": "address"
        },
        {
          "indexed": true,
          "internalType": "address",
          "name": "operator",
          "type": "address"
        },
        {
          "indexed": false,
          "internalType": "bool",
          "name": "approved",
          "type": "bool"
        }
      ],
      "name": "OperatorSet",
      "type": "event"
    },
    {
      "anonymous": false,
      "inputs": [
        {
          "indexed": true,
          "internalType": "uint256",
          "name": "tokenId",
          "type": "uint256"
        },
        {
          "indexed": true,
          "internalType": "address",
          "name": "owner",
          "type": "address"
        },
        {
          "indexed": false,
          "internalType": "uint256",
          "name": "amount",
          "type": "uint256"
        }
      ],
      "name": "Redeemed",
      "type": "event"
    },
    {
      "anonymous": false,
      "inputs": [
        {
          "indexed": false,
          "internalType": "address",
          "name": "caller",
          "type": "address"
        },
        {
          "indexed": true,
          "internalType": "address",
          "name": "from",
          "type": "address"
        },
        {
          "indexed": true,
          "internalType": "address",
          "name": "to",
          "type": "address"
        },
        {
          "indexed": true,
          "internalType": "uint256",
          "name": "id",
          "type": "uint256"
        },
        {
          "indexed": false,
          "internalType": "uint256",
          "name": "amount",
          "type": "uint256"
        }
      ],
      "name": "Transfer",
      "type": "event"
    },
    {
      "anonymous": false,
      "inputs": [
        {
          "indexed": true,
          "internalType": "uint256",
          "name": "tokenId",
          "type": "uint256"
        },
        {
          "indexed": true,
          "internalType": "address",
          "name": "owner",
          "type": "address"
        },
        {
          "indexed": false,
          "internalType": "uint256",
          "name": "amount",
          "type": "uint256"
        },
        {
          "indexed": false,
          "internalType": "address",
          "name": "wrappedToken",
          "type": "address"
        }
      ],
      "name": "Unwrapped",
      "type": "event"
    },
    {
      "anonymous": false,
      "inputs": [
        {
          "indexed": true,
          "internalType": "uint256",
          "name": "tokenId",
          "type": "uint256"
        },
        {
          "indexed": true,
          "internalType": "address",
          "name": "owner",
          "type": "address"
        },
        {
          "indexed": false,
          "internalType": "uint256",
          "name": "amount",
          "type": "uint256"
        },
        {
          "indexed": false,
          "internalType": "address",
          "name": "wrappedToken",
          "type": "address"
        }
      ],
      "name": "Wrapped",
      "type": "event"
    },
    {
      "anonymous": false,
      "inputs": [
        {
          "indexed": true,
          "internalType": "uint256",
          "name": "tokenId",
          "type": "uint256"
        },
        {
          "indexed": false,
          "internalType": "address",
          "name": "wrappedToken",
          "type": "address"
        }
      ],
      "name": "WrappedDerivativeCreated",
      "type": "event"
    },
    {
      "inputs": [],
      "name": "INIT",
      "outputs": [],
      "stateMutability": "nonpayable",
      "type": "function"
    },
    {
      "inputs": [],
      "name": "PARENT",
      "outputs": [
        {
          "internalType": "address",
          "name": "",
          "type": "address"
        }
      ],
      "stateMutability": "view",
      "type": "function"
    },
    {
      "inputs": [],
      "name": "TYPE",
      "outputs": [
        {
          "internalType": "enum Module.Type",
          "name": "",
          "type": "uint8"
        }
      ],
      "stateMutability": "pure",
      "type": "function"
    },
    {
      "inputs": [],
      "name": "VEECODE",
      "outputs": [
        {
          "internalType": "Veecode",
          "name": "",
          "type": "bytes7"
        }
      ],
      "stateMutability": "pure",
      "type": "function"
    },
    {
      "inputs": [
        {
          "internalType": "address",
          "name": "",
          "type": "address"
        },
        {
          "internalType": "address",
          "name": "",
          "type": "address"
        },
        {
          "internalType": "uint256",
          "name": "",
          "type": "uint256"
        }
      ],
      "name": "allowance",
      "outputs": [
        {
          "internalType": "uint256",
          "name": "",
          "type": "uint256"
        }
      ],
      "stateMutability": "view",
      "type": "function"
    },
    {
      "inputs": [
        {
          "internalType": "address",
          "name": "",
          "type": "address"
        },
        {
          "internalType": "uint256",
          "name": "",
          "type": "uint256"
        },
        {
          "internalType": "uint256",
          "name": "",
          "type": "uint256"
        }
      ],
      "name": "approve",
      "outputs": [
        {
          "internalType": "bool",
          "name": "",
          "type": "bool"
        }
      ],
      "stateMutability": "nonpayable",
      "type": "function"
    },
    {
      "inputs": [
        {
          "internalType": "address",
          "name": "",
          "type": "address"
        },
        {
          "internalType": "uint256",
          "name": "",
          "type": "uint256"
        }
      ],
      "name": "balanceOf",
      "outputs": [
        {
          "internalType": "uint256",
          "name": "",
          "type": "uint256"
        }
      ],
      "stateMutability": "view",
      "type": "function"
    },
    {
      "inputs": [
        {
          "internalType": "address",
          "name": "underlyingToken_",
          "type": "address"
        },
        {
          "internalType": "bytes",
          "name": "params_",
          "type": "bytes"
        }
      ],
      "name": "computeId",
      "outputs": [
        {
          "internalType": "uint256",
          "name": "",
          "type": "uint256"
        }
      ],
      "stateMutability": "pure",
      "type": "function"
    },
    {
      "inputs": [
        {
          "internalType": "bytes",
          "name": "",
          "type": "bytes"
        },
        {
          "internalType": "uint256",
          "name": "",
          "type": "uint256"
        }
      ],
      "name": "convertsTo",
      "outputs": [
        {
          "internalType": "uint256",
          "name": "",
          "type": "uint256"
        }
      ],
      "stateMutability": "view",
      "type": "function"
    },
    {
      "inputs": [
        {
          "internalType": "uint256",
          "name": "tokenId_",
          "type": "uint256"
        }
      ],
      "name": "decimals",
      "outputs": [
        {
          "internalType": "uint8",
          "name": "",
          "type": "uint8"
        }
      ],
      "stateMutability": "view",
      "type": "function"
    },
    {
      "inputs": [
        {
          "internalType": "address",
          "name": "underlyingToken_",
          "type": "address"
        },
        {
          "internalType": "bytes",
          "name": "params_",
          "type": "bytes"
        },
        {
          "internalType": "bool",
          "name": "wrapped_",
          "type": "bool"
        }
      ],
      "name": "deploy",
      "outputs": [
        {
          "internalType": "uint256",
          "name": "tokenId_",
          "type": "uint256"
        },
        {
          "internalType": "address",
          "name": "wrappedAddress_",
          "type": "address"
        }
      ],
      "stateMutability": "nonpayable",
      "type": "function"
    },
    {
      "inputs": [
        {
          "internalType": "uint256",
          "name": "",
          "type": "uint256"
        },
        {
          "internalType": "uint256",
          "name": "",
          "type": "uint256"
        }
      ],
      "name": "exercise",
      "outputs": [],
      "stateMutability": "nonpayable",
      "type": "function"
    },
    {
      "inputs": [
        {
          "internalType": "bytes",
          "name": "",
          "type": "bytes"
        },
        {
          "internalType": "uint256",
          "name": "",
          "type": "uint256"
        }
      ],
      "name": "exerciseCost",
      "outputs": [
        {
          "internalType": "uint256",
          "name": "",
          "type": "uint256"
        }
      ],
      "stateMutability": "view",
      "type": "function"
    },
    {
      "inputs": [
        {
          "internalType": "uint256",
          "name": "tokenId",
          "type": "uint256"
        }
      ],
      "name": "getTokenMetadata",
      "outputs": [
        {
          "components": [
            {
              "internalType": "bool",
              "name": "exists",
              "type": "bool"
            },
            {
              "internalType": "address",
              "name": "wrapped",
              "type": "address"
            },
            {
              "internalType": "address",
              "name": "underlyingToken",
              "type": "address"
            },
            {
              "internalType": "bytes",
              "name": "data",
              "type": "bytes"
            }
          ],
          "internalType": "struct Derivative.Token",
          "name": "",
          "type": "tuple"
        }
      ],
      "stateMutability": "view",
      "type": "function"
    },
    {
      "inputs": [
        {
          "internalType": "address",
          "name": "",
          "type": "address"
        },
        {
          "internalType": "address",
          "name": "",
          "type": "address"
        }
      ],
      "name": "isOperator",
      "outputs": [
        {
          "internalType": "bool",
          "name": "",
          "type": "bool"
        }
      ],
      "stateMutability": "view",
      "type": "function"
    },
    {
      "inputs": [
        {
          "internalType": "address",
          "name": "to_",
          "type": "address"
        },
        {
          "internalType": "uint256",
          "name": "tokenId_",
          "type": "uint256"
        },
        {
          "internalType": "uint256",
          "name": "amount_",
          "type": "uint256"
        },
        {
          "internalType": "bool",
          "name": "wrapped_",
          "type": "bool"
        }
      ],
      "name": "mint",
      "outputs": [
        {
          "internalType": "uint256",
          "name": "",
          "type": "uint256"
        },
        {
          "internalType": "address",
          "name": "",
          "type": "address"
        },
        {
          "internalType": "uint256",
          "name": "",
          "type": "uint256"
        }
      ],
      "stateMutability": "nonpayable",
      "type": "function"
    },
    {
      "inputs": [
        {
          "internalType": "address",
          "name": "to_",
          "type": "address"
        },
        {
          "internalType": "address",
          "name": "underlyingToken_",
          "type": "address"
        },
        {
          "internalType": "bytes",
          "name": "params_",
          "type": "bytes"
        },
        {
          "internalType": "uint256",
          "name": "amount_",
          "type": "uint256"
        },
        {
          "internalType": "bool",
          "name": "wrapped_",
          "type": "bool"
        }
      ],
      "name": "mint",
      "outputs": [
        {
          "internalType": "uint256",
          "name": "tokenId_",
          "type": "uint256"
        },
        {
          "internalType": "address",
          "name": "wrappedAddress_",
          "type": "address"
        },
        {
          "internalType": "uint256",
          "name": "amountCreated_",
          "type": "uint256"
        }
      ],
      "stateMutability": "nonpayable",
      "type": "function"
    },
    {
      "inputs": [
        {
          "internalType": "uint256",
          "name": "tokenId_",
          "type": "uint256"
        }
      ],
      "name": "name",
      "outputs": [
        {
          "internalType": "string",
          "name": "",
          "type": "string"
        }
      ],
      "stateMutability": "view",
      "type": "function"
    },
    {
      "inputs": [
        {
          "internalType": "uint256",
          "name": "",
          "type": "uint256"
        }
      ],
      "name": "reclaim",
      "outputs": [],
      "stateMutability": "nonpayable",
      "type": "function"
    },
    {
      "inputs": [
        {
          "internalType": "uint256",
          "name": "tokenId_",
          "type": "uint256"
        },
        {
          "internalType": "uint256",
          "name": "amount_",
          "type": "uint256"
        }
      ],
      "name": "redeem",
      "outputs": [],
      "stateMutability": "nonpayable",
      "type": "function"
    },
    {
      "inputs": [
        {
          "internalType": "uint256",
          "name": "tokenId_",
          "type": "uint256"
        }
      ],
      "name": "redeemMax",
      "outputs": [],
      "stateMutability": "nonpayable",
      "type": "function"
    },
    {
      "inputs": [
        {
          "internalType": "address",
          "name": "owner_",
          "type": "address"
        },
        {
          "internalType": "uint256",
          "name": "tokenId_",
          "type": "uint256"
        }
      ],
      "name": "redeemable",
      "outputs": [
        {
          "internalType": "uint256",
          "name": "",
          "type": "uint256"
        }
      ],
      "stateMutability": "view",
      "type": "function"
    },
    {
      "inputs": [
        {
          "internalType": "address",
          "name": "operator",
          "type": "address"
        },
        {
          "internalType": "bool",
          "name": "approved",
          "type": "bool"
        }
      ],
      "name": "setOperator",
      "outputs": [
        {
          "internalType": "bool",
          "name": "",
          "type": "bool"
        }
      ],
      "stateMutability": "nonpayable",
      "type": "function"
    },
    {
      "inputs": [
        {
          "internalType": "bytes4",
          "name": "interfaceId",
          "type": "bytes4"
        }
      ],
      "name": "supportsInterface",
      "outputs": [
        {
          "internalType": "bool",
          "name": "",
          "type": "bool"
        }
      ],
      "stateMutability": "view",
      "type": "function"
    },
    {
      "inputs": [
        {
          "internalType": "uint256",
          "name": "tokenId_",
          "type": "uint256"
        }
      ],
      "name": "symbol",
      "outputs": [
        {
          "internalType": "string",
          "name": "",
          "type": "string"
        }
      ],
      "stateMutability": "view",
      "type": "function"
    },
    {
      "inputs": [
        {
          "internalType": "uint256",
          "name": "tokenId",
          "type": "uint256"
        }
      ],
      "name": "tokenMetadata",
      "outputs": [
        {
          "internalType": "bool",
          "name": "exists",
          "type": "bool"
        },
        {
          "internalType": "address",
          "name": "wrapped",
          "type": "address"
        },
        {
          "internalType": "address",
          "name": "underlyingToken",
          "type": "address"
        },
        {
          "internalType": "bytes",
          "name": "data",
          "type": "bytes"
        }
      ],
      "stateMutability": "view",
      "type": "function"
    },
    {
      "inputs": [
        {
          "internalType": "address",
          "name": "",
          "type": "address"
        },
        {
          "internalType": "uint256",
          "name": "",
          "type": "uint256"
        },
        {
          "internalType": "uint256",
          "name": "",
          "type": "uint256"
        }
      ],
      "name": "transfer",
      "outputs": [
        {
          "internalType": "bool",
          "name": "",
          "type": "bool"
        }
      ],
      "stateMutability": "nonpayable",
      "type": "function"
    },
    {
      "inputs": [
        {
          "internalType": "address",
          "name": "",
          "type": "address"
        },
        {
          "internalType": "address",
          "name": "",
          "type": "address"
        },
        {
          "internalType": "uint256",
          "name": "",
          "type": "uint256"
        },
        {
          "internalType": "uint256",
          "name": "",
          "type": "uint256"
        }
      ],
      "name": "transferFrom",
      "outputs": [
        {
          "internalType": "bool",
          "name": "",
          "type": "bool"
        }
      ],
      "stateMutability": "nonpayable",
      "type": "function"
    },
    {
      "inputs": [
        {
          "internalType": "uint256",
          "name": "",
          "type": "uint256"
        },
        {
          "internalType": "address",
          "name": "",
          "type": "address"
        },
        {
          "internalType": "uint256",
          "name": "",
          "type": "uint256"
        }
      ],
      "name": "transform",
      "outputs": [],
      "stateMutability": "nonpayable",
      "type": "function"
    },
    {
      "inputs": [
        {
          "internalType": "uint256",
          "name": "tokenId_",
          "type": "uint256"
        },
        {
          "internalType": "uint256",
          "name": "amount_",
          "type": "uint256"
        }
      ],
      "name": "unwrap",
      "outputs": [],
      "stateMutability": "nonpayable",
      "type": "function"
    },
    {
      "inputs": [
        {
          "internalType": "address",
          "name": "owner_",
          "type": "address"
        },
        {
          "internalType": "uint256",
          "name": "tokenId_",
          "type": "uint256"
        }
      ],
      "name": "userClaimed",
      "outputs": [
        {
          "internalType": "uint256",
          "name": "claimed_",
          "type": "uint256"
        }
      ],
      "stateMutability": "view",
      "type": "function"
    },
    {
      "inputs": [
        {
          "internalType": "address",
          "name": "underlyingToken_",
          "type": "address"
        },
        {
          "internalType": "bytes",
          "name": "params_",
          "type": "bytes"
        }
      ],
      "name": "validate",
      "outputs": [
        {
          "internalType": "bool",
          "name": "",
          "type": "bool"
        }
      ],
      "stateMutability": "view",
      "type": "function"
    },
    {
      "inputs": [
        {
          "internalType": "uint256",
          "name": "tokenId_",
          "type": "uint256"
        },
        {
          "internalType": "uint256",
          "name": "amount_",
          "type": "uint256"
        }
      ],
      "name": "wrap",
      "outputs": [],
      "stateMutability": "nonpayable",
      "type": "function"
    }
  ],
  "bytecode": {
    "object": "0x60e0604090815260a0523480156200001657600080fd5b5060405162003c1638038062003c16833981016040819052620000399162000138565b8080806001600160a01b0381166200007357604051631462ddc360e21b81526001600160a01b038216600482015260240160405180910390fd5b6001600160a01b03166080526040516200008d906200012a565b604051809103906000f080158015620000aa573d6000803e3d6000fd5b506001600160a01b0390811660c052604051631d70c8d360e31b81529083166004820152734300000000000000000000000000000000000002915063eb86469890602401600060405180830381600087803b1580156200010957600080fd5b505af11580156200011e573d6000803e3d6000fd5b5050505050506200016a565b61075d80620034b983390190565b6000602082840312156200014b57600080fd5b81516001600160a01b03811681146200016357600080fd5b9392505050565b60805160a05160c051613311620001a860003960008181611b160152611d310152600061178001526000818161029b01526114f801526133116000f3fe608060405234801561001057600080fd5b50600436106101f95760003560e01c80636a9311b71161011a578063d61735ca116100ad578063ea6439141161007c578063ea64391414610513578063f6e9936a1461051b578063f904eed814610529578063fcbf8b241461053c578063fe99049a1461056757600080fd5b8063d61735ca14610496578063dbad2d9a146104b7578063dbf110a7146104ca578063e40d88f81461050057600080fd5b8063a86265bb116100e9578063a86265bb14610438578063b6363cf214610446578063bb24fe8a14610474578063caf927851461048357600080fd5b80636a9311b7146103ff5780636e286671146104125780637cbc2373146104255780639ad790c5146103ff57600080fd5b80633f47e66211610192578063598af9e711610161578063598af9e71461037857806360316801146103a957806367627b62146103c95780636914db60146103dc57600080fd5b80633f47e6621461032d578063426a8493146102835780634e41a1fb14610352578063558a72971461036557600080fd5b8063122b83f9116101ce578063122b83f9146102965780631f54245b146102d557806325ded586146103055780632dabbeed1461031a57600080fd5b8062ad800c146101fe578062fdd58e1461022757806301ffc9a714610260578063095bcdb614610283575b600080fd5b61021161020c36600461275c565b610575565b60405161021e91906127c5565b60405180910390f35b6102526102353660046127f7565b600260209081526000928352604080842090915290825290205481565b60405190815260200161021e565b61027361026e366004612823565b610681565b604051901515815260200161021e565b61027361029136600461284d565b6106b8565b6102bd7f000000000000000000000000000000000000000000000000000000000000000081565b6040516001600160a01b03909116815260200161021e565b6102e86102e336600461295c565b6106d3565b604080519283526001600160a01b0390911660208301520161021e565b6103186103133660046129bc565b61072c565b005b61031861032836600461275c565b61089c565b61034061033b36600461275c565b6108b5565b60405160ff909116815260200161021e565b61021161036036600461275c565b610a0c565b6102736103733660046129de565b610b16565b610252610386366004612a13565b600360209081526000938452604080852082529284528284209052825290205481565b6103bc6103b736600461275c565b610b86565b60405161021e9190612a54565b6102526103d73660046127f7565b610c92565b6103ef6103ea36600461275c565b610f18565b60405161021e9493929190612a9d565b61025261040d366004612adb565b610fdb565b6103186104203660046129bc565b610ff6565b6103186104333660046129bc565b6111eb565b6103186103283660046129bc565b610273610454366004612b20565b600160209081526000928352604080842090915290825290205460ff1681565b600160405161021e9190612b59565b610273610491366004612b81565b611283565b61049e6112a3565b6040516001600160c81b0319909116815260200161021e565b6102526104c5366004612b81565b6112bb565b6104dd6104d8366004612bd1565b6112de565b604080519384526001600160a01b0390921660208401529082015260600161021e565b6104dd61050e366004612c19565b611444565b6103186114ed565b610318610328366004612c96565b61031861053736600461275c565b61153f565b61025261054a3660046127f7565b600460209081526000928352604080842090915290825290205481565b610273610291366004612cbd565b600081815260208190526040812054606091839160ff16151590036105ad57604051635435b28960e11b815260040160405180910390fd5b60008381526020819052604081206002810180549192916105cd90612d03565b80601f01602080910402602001604051908101604052809291908181526020018280546105f990612d03565b80156106465780601f1061061b57610100808354040283529160200191610646565b820191906000526020600020905b81548152906001019060200180831161062957829003601f168201915b505050505080602001905181019061065e9190612d4d565b90506000610674826040015183602001516115b5565b5094505050505b50919050565b60006301ffc9a760e01b6001600160e01b0319831614806106b25750630f632fb360e01b6001600160e01b03198316145b92915050565b60006040516339218f3b60e01b815260040160405180910390fd5b60008060006106e18561176a565b90506106ed86826117d3565b151560000361070f57604051635435b28960e11b815260040160405180910390fd5b60008061071d88848861188c565b90999098509650505050505050565b600082815260208190526040812054839160ff9091161515900361076357604051635435b28960e11b815260040160405180910390fd5b8160000361078457604051635435b28960e11b815260040160405180910390fd5b3360009081526002602090815260408083208684529091529020548211156107bf57604051631e9acf1760e31b815260040160405180910390fd5b6107ca338484611a76565b60008381526020819052604090206107e28482611afd565b5080546040516340c10f1960e01b8152336004820152602481018590526101009091046001600160a01b0316906340c10f1990604401600060405180830381600087803b15801561083257600080fd5b505af1158015610846573d6000803e3d6000fd5b50508254604080518781526101009092046001600160a01b031660208301523393508792507fed8f3f6d485df7980ffa03dd0323e0e62decf810572edd79af06baf0f74efe06910160405180910390a350505050565b60405163cb93550d60e01b815260040160405180910390fd5b600081815260208190526040812054829060ff16151582036108ea57604051635435b28960e11b815260040160405180910390fd5b600083815260208190526040812060028101805491929161090a90612d03565b80601f016020809104026020016040519081016040528092919081815260200182805461093690612d03565b80156109835780601f1061095857610100808354040283529160200191610983565b820191906000526020600020905b81548152906001019060200180831161096657829003601f168201915b505050505080602001905181019061099b9190612d4d565b905080604001516001600160a01b031663313ce5676040518163ffffffff1660e01b8152600401602060405180830381865afa1580156109df573d6000803e3d6000fd5b505050506040513d601f19601f82011682018060405250810190610a039190612dbb565b95945050505050565b600081815260208190526040812054606091839160ff1615159003610a4457604051635435b28960e11b815260040160405180910390fd5b6000838152602081905260408120600281018054919291610a6490612d03565b80601f0160208091040260200160405190810160405280929190818152602001828054610a9090612d03565b8015610add5780601f10610ab257610100808354040283529160200191610add565b820191906000526020600020905b815481529060010190602001808311610ac057829003601f168201915b5050505050806020019051810190610af59190612d4d565b90506000610b0b826040015183602001516115b5565b979650505050505050565b3360008181526001602090815260408083206001600160a01b038716808552908352818420805460ff191687151590811790915591519182529293917fceb576d9f15e4e200fdb5096d64d5dfd667e16def20c1eefd14256d8e3faa267910160405180910390a350600192915050565b6040805160808101825260008082526020820181905291810191909152606080820152600082815260208181526040918290208251608081018452815460ff8116151582526001600160a01b03610100909104811693820193909352600182015490921692820192909252600282018054919291606084019190610c0990612d03565b80601f0160208091040260200160405190810160405280929190818152602001828054610c3590612d03565b8015610c825780601f10610c5757610100808354040283529160200191610c82565b820191906000526020600020905b815481529060010190602001808311610c6557829003601f168201915b5050505050815250509050919050565b600081815260208190526040812054829060ff1615158203610cc757604051635435b28960e11b815260040160405180910390fd5b6000838152602081905260408120600281018054919291610ce790612d03565b80601f0160208091040260200160405190810160405280929190818152602001828054610d1390612d03565b8015610d605780601f10610d3557610100808354040283529160200191610d60565b820191906000526020600020905b815481529060010190602001808311610d4357829003601f168201915b5050505050806020019051810190610d789190612d4d565b805190915065ffffffffffff164211610d9657600093505050610f11565b6001600160a01b038087166000908152600260209081526040808320898452909152812054845490926101009091041615610e435783546040516370a0823160e01b81526001600160a01b038a81166004830152610100909204909116906370a0823190602401602060405180830381865afa158015610e1a573d6000803e3d6000fd5b505050506040513d601f19601f82011682018060405250810190610e3e9190612dde565b610e46565b60005b6001600160a01b03891660009081526004602090815260408083208b845290915281205491925081610e788486612e0d565b610e829190612e0d565b90506000856020015165ffffffffffff164210610ea0575080610edc565b8551610ed990610eb89065ffffffffffff1642612e20565b87516020890151610ec99190612e33565b84919065ffffffffffff16611dd0565b90505b82811015610efd5760405163efbc9a9760e01b815260040160405180910390fd5b610f078382612e20565b9850505050505050505b5092915050565b60006020819052908152604090208054600182015460028301805460ff8416946101009094046001600160a01b03908116949316929190610f5890612d03565b80601f0160208091040260200160405190810160405280929190818152602001828054610f8490612d03565b8015610fd15780601f10610fa657610100808354040283529160200191610fd1565b820191906000526020600020905b815481529060010190602001808311610fb457829003601f168201915b5050505050905084565b600060405163cb93550d60e01b815260040160405180910390fd5b600082815260208190526040812054839160ff9091161515900361102d57604051635435b28960e11b815260040160405180910390fd5b600083815260208190526040902054839061010090046001600160a01b031661106957604051635435b28960e11b815260040160405180910390fd5b8260000361108a57604051635435b28960e11b815260040160405180910390fd5b60008481526020819052604090819020805491516370a0823160e01b8152336004820152909161010090046001600160a01b031690859082906370a0823190602401602060405180830381865afa1580156110e9573d6000803e3d6000fd5b505050506040513d601f19601f8201168201806040525081019061110d9190612dde565b101561112c57604051631e9acf1760e31b815260040160405180910390fd5b604051632770a7eb60e21b8152336004820152602481018690526001600160a01b03821690639dc29fac90604401600060405180830381600087803b15801561117457600080fd5b505af1158015611188573d6000803e3d6000fd5b50505050611197338787611dee565b8154604080518781526101009092046001600160a01b03166020830152339188917f171711504f91229e77cb6057e65ba3567d9072edd7152eb5f11cc13152407da3910160405180910390a3505050505050565b600082815260208190526040812054839160ff9091161515900361122257604051635435b28960e11b815260040160405180910390fd5b8160000361124357604051635435b28960e11b815260040160405180910390fd5b600061124f3385610c92565b90508281101561127257604051631e9acf1760e31b815260040160405180910390fd5b61127d843385611e6c565b50505050565b60008061128f8361176a565b905061129b84826117d3565b949350505050565b60006112b6622624ab60e91b6001612133565b905090565b6000806112c78361176a565b805160208201519192508591610a039183916121b9565b60008381526020819052604081205481908190869060ff161515820361131757604051635435b28960e11b815260040160405180910390fd5b8560000361133857604051635435b28960e11b815260040160405180910390fd5b600087815260208190526040812060028101805491929161135890612d03565b80601f016020809104026020016040519081016040528092919081815260200182805461138490612d03565b80156113d15780601f106113a6576101008083540402835291602001916113d1565b820191906000526020600020905b8154815290600101906020018083116113b457829003601f168201915b50505050508060200190518101906113e99190612d4d565b905042816020015165ffffffffffff16101561141857604051635435b28960e11b815260040160405180910390fd5b6114258a8a8a858b612246565b505496986101009097046001600160a01b031697509495945050505050565b60008060008460000361146a57604051635435b28960e11b815260040160405180910390fd5b60006114758761176a565b905061148188826117d3565b15156000036114a357604051635435b28960e11b815260040160405180910390fd5b6114ae88828761188c565b5060008181526020819052604090209094506114cd8a8689848a612246565b5493996101009094046001600160a01b0316985094965091945050505050565b336001600160a01b037f0000000000000000000000000000000000000000000000000000000000000000161461153d576040516366e069e160e01b81523360048201526024015b60405180910390fd5b565b600081815260208190526040812054829160ff9091161515900361157657604051635435b28960e11b815260040160405180910390fd5b60006115823384610c92565b9050806000036115a557604051631e9acf1760e31b815260040160405180910390fd5b6115b0833383611e6c565b505050565b604051630455de8d60e11b815265ffffffffffff8216600482015260609081906000908190819073__$dad9d702ebcf30e136ab952dddd2dac006$__906308abbd1a90602401600060405180830381865af4158015611618573d6000803e3d6000fd5b505050506040513d6000823e601f3d908101601f191682016040526116409190810190612e97565b925092509250866001600160a01b03166306fdde036040518163ffffffff1660e01b8152600401600060405180830381865afa158015611684573d6000803e3d6000fd5b505050506040513d6000823e601f3d908101601f191682016040526116ac9190810190612f1f565b8383836040516020016116c29493929190612f54565b604051602081830303815290604052876001600160a01b03166395d89b416040518163ffffffff1660e01b8152600401600060405180830381865afa15801561170f573d6000803e3d6000fd5b505050506040513d6000823e601f3d908101601f191682016040526117379190810190612f1f565b84848460405160200161174d9493929190612f54565b604051602081830303815290604052945094505050509250929050565b60408051808201909152600080825260208201527f00000000000000000000000000000000000000000000000000000000000000008251146117bf57604051635435b28960e11b815260040160405180910390fd5b818060200190518101906106b29190612fd1565b805160009065ffffffffffff1615806117f65750602082015165ffffffffffff16155b15611803575060006106b2565b816020015165ffffffffffff16826000015165ffffffffffff160361182a575060006106b2565b816020015165ffffffffffff16826000015165ffffffffffff1610611851575060006106b2565b42826020015165ffffffffffff16101561186d575060006106b2565b6001600160a01b038316611883575060006106b2565b50600192915050565b60008060008590506118a781866000015187602001516121b9565b600081815260208190526040812080549295509160ff1615159003611a49578054600160ff1990911681178255810180546001600160a01b0319166001600160a01b03898116919091179091556040805160608082018352895165ffffffffffff9081168084526020808d01518316818601908152898816958701958652865191820192909252905190911681850152915190931681840152815180820390930183526080019052600282019061195e908261307a565b5060008481526020819052604090208154815460ff909116151560ff1982168117835583546001600160a01b03610100918290048116909102610100600160a81b03199092166001600160a81b03199093169290921717825560018084015490830180546001600160a01b0319169190921617905581906002808201906119e79084018261313a565b505086516020808901516040805165ffffffffffff948516815293909116918301919091526001600160a01b038a1682820152518692507f4ab4dadc5d33a7b415be92bf51b712368ca8cae2ed2024779d3748a0dd229be49181900360600190a25b8415611a5b57611a598482611afd565b505b546001600160a01b0361010090910416915050935093915050565b6001600160a01b038316600090815260026020908152604080832085845290915281208054839290611aa9908490612e20565b9091555050604080513381526020810183905283916000916001600160a01b038716917f1b3d7edb2e9c0b0e7c525b20aaaef0f5940d2ed71663c7d39266ecafac72885991015b60405180910390a4505050565b805460009061010090046001600160a01b0316611dbb577f00000000000000000000000000000000000000000000000000000000000000006001600160a01b0316611b5b57604051635435b28960e11b815260040160405180910390fd5b6000826002018054611b6c90612d03565b80601f0160208091040260200160405190810160405280929190818152602001828054611b9890612d03565b8015611be55780601f10611bba57610100808354040283529160200191611be5565b820191906000526020600020905b815481529060010190602001808311611bc857829003601f168201915b5050505050806020019051810190611bfd9190612d4d565b9050600080611c14836040015184602001516115b5565b91509150600082611c249061320d565b611c2d8361320d565b85604001516001600160a01b031663313ce5676040518163ffffffff1660e01b8152600401602060405180830381865afa158015611c6f573d6000803e3d6000fd5b505050506040513d601f19601f82011682018060405250810190611c939190612dbb565b866020015165ffffffffffff16308860400151604051602001611d1296959493929190958652602086019490945260f89290921b6001600160f81b031916604085015260c01b6001600160c01b0319166041840152606090811b6bffffffffffffffffffffffff19908116604985015291901b16605d82015260710190565b60408051601f198184030181529190529050611d586001600160a01b037f00000000000000000000000000000000000000000000000000000000000000001682896124ed565b8654610100600160a81b0319166101006001600160a01b03928316810291909117808955604051919004909116815287907fc687cf6c60d91b1f6be3b5e820ae9a808dc51f7b3bf4aab1967232b2f71c97d49060200160405180910390a2505050505b505461010090046001600160a01b0316919050565b6000826000190484118302158202611de757600080fd5b5091020490565b6001600160a01b038316600090815260026020908152604080832085845290915281208054839290611e21908490612e0d565b9091555050604080513381526020810183905283916001600160a01b038616916000917f1b3d7edb2e9c0b0e7c525b20aaaef0f5940d2ed71663c7d39266ecafac7288599101611af0565b6000838152602081815260408083206001600160a01b0380871685526002845282852088865290935290832054815491939092909161010090041615611f245782546040516370a0823160e01b81526001600160a01b038781166004830152610100909204909116906370a0823190602401602060405180830381865afa158015611efb573d6000803e3d6000fd5b505050506040513d601f19601f82011682018060405250810190611f1f9190612dde565b611f27565b60005b90506000828511611f385784611f3a565b825b90506000611f488287612e20565b905082811115611f6b57604051631e9acf1760e31b815260040160405180910390fd5b6001600160a01b03871660009081526004602090815260408083208b845290915281208054889290611f9e908490612e0d565b90915550508115611fb457611fb4878984611a76565b8015612026578454604051632770a7eb60e21b81526001600160a01b0389811660048301526024820184905261010090920490911690639dc29fac90604401600060405180830381600087803b15801561200d57600080fd5b505af1158015612021573d6000803e3d6000fd5b505050505b600085600201805461203790612d03565b80601f016020809104026020016040519081016040528092919081815260200182805461206390612d03565b80156120b05780601f10612085576101008083540402835291602001916120b0565b820191906000526020600020905b81548152906001019060200180831161209357829003601f168201915b50505050508060200190518101906120c89190612d4d565b60408101519091506120e4906001600160a01b03168989612646565b876001600160a01b0316897fa18626381edd3d7a115c4a09f678bb79665034a541affcdba9fe65a1d3d107ee8960405161212091815260200190565b60405180910390a3505050505050505050565b600080612141600a84613247565b61214c906030613269565b60f81b9050600061215e600a85613282565b612169906030613269565b6040516001600160f81b0319808516602083015260f89290921b91821660218201526001600160d81b031987166022820152909150602701604051602081830303815290604052610a03906132a4565b60006121c36112a3565b604080516001600160a01b038716602082015265ffffffffffff80871692820192909252908416606082015260800160408051601f198184030181529082905280516020918201206001600160c81b031990931690820152602781019190915260470160408051601f198184030181529190528051602090910120949350505050565b8015612258576122568483611afd565b505b600082600201805461226990612d03565b80601f016020809104026020016040519081016040528092919081815260200182805461229590612d03565b80156122e25780601f106122b7576101008083540402835291602001916122e2565b820191906000526020600020905b8154815290600101906020018083116122c557829003601f168201915b50505050508060200190518101906122fa9190612d4d565b60408082015190516370a0823160e01b81523060048201529192506000916001600160a01b03909116906370a0823190602401602060405180830381865afa15801561234a573d6000803e3d6000fd5b505050506040513d601f19601f8201168201806040525081019061236e9190612dde565b604083015190915061238b906001600160a01b03163330886126c7565b6123958582612e0d565b60408084015190516370a0823160e01b81523060048201526001600160a01b03909116906370a0823190602401602060405180830381865afa1580156123df573d6000803e3d6000fd5b505050506040513d601f19601f820116820180604052508101906124039190612dde565b1015612433576040808301519051635f8b555b60e11b81526001600160a01b039091166004820152602401611534565b505080156124db57815461010090046001600160a01b031661246857604051635435b28960e11b815260040160405180910390fd5b81546040516340c10f1960e01b81526001600160a01b038781166004830152602482018690526101009092049091169081906340c10f1990604401600060405180830381600087803b1580156124bd57600080fd5b505af11580156124d1573d6000803e3d6000fd5b50505050506124e6565b6124e6858585611dee565b5050505050565b8151604051613d6160f01b8152603a820160f090811b6002838101919091526680600b3d3981f360c81b600484015264363d3d376160d81b600b8401528301901b6010820181905268603836393d3d3d366160b81b6012830152601b82015262013d7360e81b601d820152606085901b6020808301919091526e5af43d82803e903d91603657fd5bf360881b60348301526000929160458301918390604383019088015b602083106125b05780518252601f199092019160209182019101612591565b60006001846020036101000a0319905080825116835283830192508660f01b83526f67363d3d37363d34f03d5260086018f3600052886010806000f5806125ff5763ebfef1886000526004601cfd5b8060145261d69460005260016034536017601e20985060008088886000855af115893b15171561263757638f86d2f16000526004601cfd5b50505050505050509392505050565b600060405163a9059cbb60e01b81526001600160a01b0384166004820152826024820152602060006044836000895af13d15601f3d116001600051141617169150508061127d5760405162461bcd60e51b815260206004820152600f60248201526e1514905394d1915497d19052531151608a1b6044820152606401611534565b60006040516323b872dd60e01b81526001600160a01b03851660048201526001600160a01b03841660248201528260448201526020600060648360008a5af13d15601f3d11600160005114161716915050806124e65760405162461bcd60e51b81526020600482015260146024820152731514905394d1915497d19493d357d1905253115160621b6044820152606401611534565b60006020828403121561276e57600080fd5b5035919050565b60005b83811015612790578181015183820152602001612778565b50506000910152565b600081518084526127b1816020860160208601612775565b601f01601f19169290920160200192915050565b6020815260006127d86020830184612799565b9392505050565b6001600160a01b03811681146127f457600080fd5b50565b6000806040838503121561280a57600080fd5b8235612815816127df565b946020939093013593505050565b60006020828403121561283557600080fd5b81356001600160e01b0319811681146127d857600080fd5b60008060006060848603121561286257600080fd5b833561286d816127df565b95602085013595506040909401359392505050565b634e487b7160e01b600052604160045260246000fd5b604051601f8201601f1916810167ffffffffffffffff811182821017156128c1576128c1612882565b604052919050565b600067ffffffffffffffff8211156128e3576128e3612882565b50601f01601f191660200190565b600082601f83011261290257600080fd5b8135612915612910826128c9565b612898565b81815284602083860101111561292a57600080fd5b816020850160208301376000918101602001919091529392505050565b8035801515811461295757600080fd5b919050565b60008060006060848603121561297157600080fd5b833561297c816127df565b9250602084013567ffffffffffffffff81111561299857600080fd5b6129a4868287016128f1565b9250506129b360408501612947565b90509250925092565b600080604083850312156129cf57600080fd5b50508035926020909101359150565b600080604083850312156129f157600080fd5b82356129fc816127df565b9150612a0a60208401612947565b90509250929050565b600080600060608486031215612a2857600080fd5b8335612a33816127df565b92506020840135612a43816127df565b929592945050506040919091013590565b602081528151151560208201526000602083015160018060a01b0380821660408501528060408601511660608501525050606083015160808084015261129b60a0840182612799565b84151581526001600160a01b03848116602083015283166040820152608060608201819052600090612ad190830184612799565b9695505050505050565b60008060408385031215612aee57600080fd5b823567ffffffffffffffff811115612b0557600080fd5b612b11858286016128f1565b95602094909401359450505050565b60008060408385031215612b3357600080fd5b8235612b3e816127df565b91506020830135612b4e816127df565b809150509250929050565b6020810160048310612b7b57634e487b7160e01b600052602160045260246000fd5b91905290565b60008060408385031215612b9457600080fd5b8235612b9f816127df565b9150602083013567ffffffffffffffff811115612bbb57600080fd5b612bc7858286016128f1565b9150509250929050565b60008060008060808587031215612be757600080fd5b8435612bf2816127df565b93506020850135925060408501359150612c0e60608601612947565b905092959194509250565b600080600080600060a08688031215612c3157600080fd5b8535612c3c816127df565b94506020860135612c4c816127df565b9350604086013567ffffffffffffffff811115612c6857600080fd5b612c74888289016128f1565b93505060608601359150612c8a60808701612947565b90509295509295909350565b600080600060608486031215612cab57600080fd5b833592506020840135612a43816127df565b60008060008060808587031215612cd357600080fd5b8435612cde816127df565b93506020850135612cee816127df565b93969395505050506040820135916060013590565b600181811c90821680612d1757607f821691505b60208210810361067b57634e487b7160e01b600052602260045260246000fd5b805165ffffffffffff8116811461295757600080fd5b600060608284031215612d5f57600080fd5b6040516060810181811067ffffffffffffffff82111715612d8257612d82612882565b604052612d8e83612d37565b8152612d9c60208401612d37565b60208201526040830151612daf816127df565b60408201529392505050565b600060208284031215612dcd57600080fd5b815160ff811681146127d857600080fd5b600060208284031215612df057600080fd5b5051919050565b634e487b7160e01b600052601160045260246000fd5b808201808211156106b2576106b2612df7565b818103818111156106b2576106b2612df7565b65ffffffffffff828116828216039080821115610f1157610f11612df7565b600082601f830112612e6357600080fd5b8151612e71612910826128c9565b818152846020838601011115612e8657600080fd5b61129b826020830160208701612775565b600080600060608486031215612eac57600080fd5b835167ffffffffffffffff80821115612ec457600080fd5b612ed087838801612e52565b94506020860151915080821115612ee657600080fd5b612ef287838801612e52565b93506040860151915080821115612f0857600080fd5b50612f1586828701612e52565b9150509250925092565b600060208284031215612f3157600080fd5b815167ffffffffffffffff811115612f4857600080fd5b61129b84828501612e52565b60008551612f66818460208a01612775565b600160fd1b9083019081528551612f84816001840160208a01612775565b808201915050602d60f81b8060018301528551612fa8816002850160208a01612775565b60029201918201528351612fc3816003840160208801612775565b016003019695505050505050565b600060408284031215612fe357600080fd5b6040516040810181811067ffffffffffffffff8211171561300657613006612882565b60405261301283612d37565b815261302060208401612d37565b60208201529392505050565b601f8211156115b057600081815260208120601f850160051c810160208610156130535750805b601f850160051c820191505b818110156130725782815560010161305f565b505050505050565b815167ffffffffffffffff81111561309457613094612882565b6130a8816130a28454612d03565b8461302c565b602080601f8311600181146130dd57600084156130c55750858301515b600019600386901b1c1916600185901b178555613072565b600085815260208120601f198616915b8281101561310c578886015182559484019460019091019084016130ed565b508582101561312a5787850151600019600388901b60f8161c191681555b5050505050600190811b01905550565b818103613145575050565b61314f8254612d03565b67ffffffffffffffff81111561316757613167612882565b613175816130a28454612d03565b6000601f8211600181146131a957600083156131915750848201545b600019600385901b1c1916600184901b1784556124e6565b600085815260209020601f19841690600086815260209020845b838110156131e357828601548255600195860195909101906020016131c3565b508583101561312a5793015460001960f8600387901b161c19169092555050600190811b01905550565b8051602080830151919081101561067b5760001960209190910360031b1b16919050565b634e487b7160e01b600052601260045260246000fd5b600060ff83168061325a5761325a613231565b8060ff84160491505092915050565b60ff81811683821601908111156106b2576106b2612df7565b600060ff83168061329557613295613231565b8060ff84160691505092915050565b805160208201516001600160c81b031980821692919060078310156132d35780818460070360031b1b83161693505b50505091905056fea2646970667358221220faeb9c2085d363423abf36617399632e640875a75e781f8347148834ca70518964736f6c63430008130033608060405234801561001057600080fd5b5061073d806100206000396000f3fe608060405234801561001057600080fd5b50600436106101005760003560e01c806370a0823111610097578063a457c2d711610066578063a457c2d714610210578063a9059cbb14610123578063dd62ed3e14610223578063e184c9be1461024e57600080fd5b806370a08231146101cd5780638da5cb5b146101ed57806395d89b41146101f55780639dc29fac146101fd57600080fd5b8063313ce567116100d3578063313ce5671461016b578063395093511461018557806340c10f19146101985780636f307dc3146101ad57600080fd5b806306fdde0314610105578063095ea7b31461012357806318160ddd1461014657806323b872dd1461015d575b600080fd5b61010d61026d565b60405161011a91906105a6565b60405180910390f35b610136610131366004610610565b61029f565b604051901515815260200161011a565b61014f60005481565b60405190815260200161011a565b61013661013136600461063a565b6101736102ba565b60405160ff909116815260200161011a565b610136610193366004610610565b6102cb565b6101ab6101a6366004610610565b610369565b005b6101b56103b0565b6040516001600160a01b03909116815260200161011a565b61014f6101db366004610676565b60016020526000908152604090205481565b6101b56103bc565b61010d6103c8565b6101ab61020b366004610610565b6103d4565b61013661021e366004610610565b610417565b61014f610231366004610698565b600260209081526000928352604080842090915290825290205481565b61025661044c565b60405165ffffffffffff909116815260200161011a565b60606102796000610458565b60405160200161028b91815260200190565b604051602081830303815290604052905090565b60006040516339218f3b60e01b815260040160405180910390fd5b60006102c6604061046e565b905090565b3360009081526002602090815260408083206001600160a01b03861684529091528120805483919083906103009084906106e1565b90915550503360008181526002602090815260408083206001600160a01b038816808552908352928190205490519081529192917f8c5be1e5ebec7d5bd14f71427d1e84f3dd0314c0f7b2291e5b200ac8c7c3b925910160405180910390a35060015b92915050565b6103716103bc565b6001600160a01b0316336001600160a01b0316146103a2576040516339218f3b60e01b815260040160405180910390fd5b6103ac8282610487565b5050565b60006102c6605d6104f2565b60006102c660496104f2565b60606102796020610458565b6103dc6103bc565b6001600160a01b0316336001600160a01b03161461040d576040516339218f3b60e01b815260040160405180910390fd5b6103ac828261050b565b3360009081526002602090815260408083206001600160a01b03861684529091528120805483919083906103009084906106f4565b60006102c6604161057c565b600080610463610595565b929092013592915050565b600080610479610595565b929092013560f81c92915050565b8060008082825461049891906106e1565b90915550506001600160a01b0382166000818152600160209081526040808320805486019055518481527fddf252ad1be2c89b69c2b068fc378daa952ba7f163c4a11628f55a4df523b3ef91015b60405180910390a35050565b6000806104fd610595565b929092013560601c92915050565b6001600160a01b038216600090815260016020526040812080548392906105339084906106f4565b90915550506000805482900381556040518281526001600160a01b038416907fddf252ad1be2c89b69c2b068fc378daa952ba7f163c4a11628f55a4df523b3ef906020016104e6565b600080610587610595565b929092013560c01c92915050565b600119368181013560f01c90030190565b600060208083528351808285015260005b818110156105d3578581018301518582016040015282016105b7565b506000604082860101526040601f19601f8301168501019250505092915050565b80356001600160a01b038116811461060b57600080fd5b919050565b6000806040838503121561062357600080fd5b61062c836105f4565b946020939093013593505050565b60008060006060848603121561064f57600080fd5b610658846105f4565b9250610666602085016105f4565b9150604084013590509250925092565b60006020828403121561068857600080fd5b610691826105f4565b9392505050565b600080604083850312156106ab57600080fd5b6106b4836105f4565b91506106c2602084016105f4565b90509250929050565b634e487b7160e01b600052601160045260246000fd5b80820180821115610363576103636106cb565b81810381811115610363576103636106cb56fea2646970667358221220e319636b3819db9a97980487fc9c986d9c36e52580848585685e686e0ebe1f8e64736f6c63430008130033",
    "linkReferences": {
      "src/lib/Timestamp.sol": {
        "Timestamp": [
          {
            "start": 6022,
            "length": 20
          }
        ]
      }
    }
  },
  "methodIdentifiers": {
    "INIT()": "ea643914",
    "PARENT()": "122b83f9",
    "TYPE()": "bb24fe8a",
    "VEECODE()": "d61735ca",
    "allowance(address,address,uint256)": "598af9e7",
    "approve(address,uint256,uint256)": "426a8493",
    "balanceOf(address,uint256)": "00fdd58e",
    "computeId(address,bytes)": "dbad2d9a",
    "convertsTo(bytes,uint256)": "9ad790c5",
    "decimals(uint256)": "3f47e662",
    "deploy(address,bytes,bool)": "1f54245b",
    "exercise(uint256,uint256)": "a86265bb",
    "exerciseCost(bytes,uint256)": "6a9311b7",
    "getTokenMetadata(uint256)": "60316801",
    "isOperator(address,address)": "b6363cf2",
    "mint(address,address,bytes,uint256,bool)": "e40d88f8",
    "mint(address,uint256,uint256,bool)": "dbf110a7",
    "name(uint256)": "00ad800c",
    "reclaim(uint256)": "2dabbeed",
    "redeem(uint256,uint256)": "7cbc2373",
    "redeemMax(uint256)": "f904eed8",
    "redeemable(address,uint256)": "67627b62",
    "setOperator(address,bool)": "558a7297",
    "supportsInterface(bytes4)": "01ffc9a7",
    "symbol(uint256)": "4e41a1fb",
    "tokenMetadata(uint256)": "6914db60",
    "transfer(address,uint256,uint256)": "095bcdb6",
    "transferFrom(address,address,uint256,uint256)": "fe99049a",
    "transform(uint256,address,uint256)": "f6e9936a",
    "unwrap(uint256,uint256)": "6e286671",
    "userClaimed(address,uint256)": "fcbf8b24",
    "validate(address,bytes)": "caf92785",
    "wrap(uint256,uint256)": "25ded586"
  },
  "id": 40
}