{
  "abi": [
    {
      "type": "constructor",
      "inputs": [
        {
          "name": "auctionHouse_",
          "type": "address",
          "internalType": "address"
        },
        {
          "name": "permissions_",
          "type": "tuple",
          "internalType": "struct Callbacks.Permissions",
          "components": [
            {
              "name": "onCreate",
              "type": "bool",
              "internalType": "bool"
            },
            {
              "name": "onCancel",
              "type": "bool",
              "internalType": "bool"
            },
            {
              "name": "onCurate",
              "type": "bool",
              "internalType": "bool"
            },
            {
              "name": "onPurchase",
              "type": "bool",
              "internalType": "bool"
            },
            {
              "name": "onBid",
              "type": "bool",
              "internalType": "bool"
            },
            {
              "name": "onSettle",
              "type": "bool",
              "internalType": "bool"
            },
            {
              "name": "receiveQuoteTokens",
              "type": "bool",
              "internalType": "bool"
            },
            {
              "name": "sendBaseTokens",
              "type": "bool",
              "internalType": "bool"
            }
          ]
        }
      ],
      "stateMutability": "nonpayable"
    },
    {
      "type": "function",
      "name": "AUCTION_HOUSE",
      "inputs": [],
      "outputs": [
        {
          "name": "",
          "type": "address",
          "internalType": "address"
        }
      ],
      "stateMutability": "view"
    },
    {
      "type": "function",
      "name": "lotBuyerLimit",
      "inputs": [
        {
          "name": "",
          "type": "uint96",
          "internalType": "uint96"
        }
      ],
      "outputs": [
        {
          "name": "",
          "type": "uint256",
          "internalType": "uint256"
        }
      ],
      "stateMutability": "view"
    },
    {
      "type": "function",
      "name": "lotBuyerSpent",
      "inputs": [
        {
          "name": "",
          "type": "uint96",
          "internalType": "uint96"
        },
        {
          "name": "",
          "type": "address",
          "internalType": "address"
        }
      ],
      "outputs": [
        {
          "name": "",
          "type": "uint256",
          "internalType": "uint256"
        }
      ],
      "stateMutability": "view"
    },
    {
      "type": "function",
      "name": "lotIdRegistered",
      "inputs": [
        {
          "name": "",
          "type": "uint96",
          "internalType": "uint96"
        }
      ],
      "outputs": [
        {
          "name": "",
          "type": "bool",
          "internalType": "bool"
        }
      ],
      "stateMutability": "view"
    },
    {
      "type": "function",
      "name": "lotMerkleRoot",
      "inputs": [
        {
          "name": "lotId",
          "type": "uint96",
          "internalType": "uint96"
        }
      ],
      "outputs": [
        {
          "name": "merkleRoot",
          "type": "bytes32",
          "internalType": "bytes32"
        }
      ],
      "stateMutability": "view"
    },
    {
      "type": "function",
      "name": "onBid",
      "inputs": [
        {
          "name": "lotId_",
          "type": "uint96",
          "internalType": "uint96"
        },
        {
          "name": "bidId",
          "type": "uint64",
          "internalType": "uint64"
        },
        {
          "name": "buyer_",
          "type": "address",
          "internalType": "address"
        },
        {
          "name": "amount_",
          "type": "uint256",
          "internalType": "uint256"
        },
        {
          "name": "callbackData_",
          "type": "bytes",
          "internalType": "bytes"
        }
      ],
      "outputs": [
        {
          "name": "",
          "type": "bytes4",
          "internalType": "bytes4"
        }
      ],
      "stateMutability": "nonpayable"
    },
    {
      "type": "function",
      "name": "onCancel",
      "inputs": [
        {
          "name": "lotId_",
          "type": "uint96",
          "internalType": "uint96"
        },
        {
          "name": "refund_",
          "type": "uint256",
          "internalType": "uint256"
        },
        {
          "name": "prefunded_",
          "type": "bool",
          "internalType": "bool"
        },
        {
          "name": "callbackData_",
          "type": "bytes",
          "internalType": "bytes"
        }
      ],
      "outputs": [
        {
          "name": "",
          "type": "bytes4",
          "internalType": "bytes4"
        }
      ],
      "stateMutability": "nonpayable"
    },
    {
      "type": "function",
      "name": "onCreate",
      "inputs": [
        {
          "name": "lotId_",
          "type": "uint96",
          "internalType": "uint96"
        },
        {
          "name": "seller_",
          "type": "address",
          "internalType": "address"
        },
        {
          "name": "baseToken_",
          "type": "address",
          "internalType": "address"
        },
        {
          "name": "quoteToken_",
          "type": "address",
          "internalType": "address"
        },
        {
          "name": "capacity_",
          "type": "uint256",
          "internalType": "uint256"
        },
        {
          "name": "prefund_",
          "type": "bool",
          "internalType": "bool"
        },
        {
          "name": "callbackData_",
          "type": "bytes",
          "internalType": "bytes"
        }
      ],
      "outputs": [
        {
          "name": "",
          "type": "bytes4",
          "internalType": "bytes4"
        }
      ],
      "stateMutability": "nonpayable"
    },
    {
      "type": "function",
      "name": "onCurate",
      "inputs": [
        {
          "name": "lotId_",
          "type": "uint96",
          "internalType": "uint96"
        },
        {
          "name": "curatorFee_",
          "type": "uint256",
          "internalType": "uint256"
        },
        {
          "name": "prefund_",
          "type": "bool",
          "internalType": "bool"
        },
        {
          "name": "callbackData_",
          "type": "bytes",
          "internalType": "bytes"
        }
      ],
      "outputs": [
        {
          "name": "",
          "type": "bytes4",
          "internalType": "bytes4"
        }
      ],
      "stateMutability": "nonpayable"
    },
    {
      "type": "function",
      "name": "onPurchase",
      "inputs": [
        {
          "name": "lotId_",
          "type": "uint96",
          "internalType": "uint96"
        },
        {
          "name": "buyer_",
          "type": "address",
          "internalType": "address"
        },
        {
          "name": "amount_",
          "type": "uint256",
          "internalType": "uint256"
        },
        {
          "name": "payout_",
          "type": "uint256",
          "internalType": "uint256"
        },
        {
          "name": "prefunded_",
          "type": "bool",
          "internalType": "bool"
        },
        {
          "name": "callbackData_",
          "type": "bytes",
          "internalType": "bytes"
        }
      ],
      "outputs": [
        {
          "name": "",
          "type": "bytes4",
          "internalType": "bytes4"
        }
      ],
      "stateMutability": "nonpayable"
    },
    {
      "type": "function",
      "name": "onSettle",
      "inputs": [
        {
          "name": "lotId_",
          "type": "uint96",
          "internalType": "uint96"
        },
        {
          "name": "proceeds_",
          "type": "uint256",
          "internalType": "uint256"
        },
        {
          "name": "refund_",
          "type": "uint256",
          "internalType": "uint256"
        },
        {
          "name": "callbackData_",
          "type": "bytes",
          "internalType": "bytes"
        }
      ],
      "outputs": [
        {
          "name": "",
          "type": "bytes4",
          "internalType": "bytes4"
        }
      ],
      "stateMutability": "nonpayable"
    },
    {
      "type": "function",
      "name": "setMerkleRoot",
      "inputs": [
        {
          "name": "lotId_",
          "type": "uint96",
          "internalType": "uint96"
        },
        {
          "name": "merkleRoot_",
          "type": "bytes32",
          "internalType": "bytes32"
        }
      ],
      "outputs": [],
      "stateMutability": "nonpayable"
    },
    {
      "type": "event",
      "name": "MerkleRootSet",
      "inputs": [
        {
          "name": "lotId",
          "type": "uint96",
          "indexed": false,
          "internalType": "uint96"
        },
        {
          "name": "merkleRoot",
          "type": "bytes32",
          "indexed": false,
          "internalType": "bytes32"
        }
      ],
      "anonymous": false
    },
    {
      "type": "error",
      "name": "Callback_ExceedsLimit",
      "inputs": []
    },
    {
      "type": "error",
      "name": "Callback_InvalidParams",
      "inputs": []
    },
    {
      "type": "error",
      "name": "Callback_NotAuthorized",
      "inputs": []
    },
    {
      "type": "error",
      "name": "Callback_NotImplemented",
      "inputs": []
    },
    {
      "type": "error",
      "name": "CallbacksAddressNotValid",
      "inputs": [
        {
          "name": "callbacks",
          "type": "address",
          "internalType": "address"
        }
      ]
    }
  ],
  "bytecode": {
    "object": "0x60a06040523480156200001157600080fd5b50604051620013e2380380620013e2833981016040819052620000349162000169565b818181816200004430826200005c565b506001600160a01b0316608052506200028392505050565b805115156001609f1b83161515141580620000855750602081015115156001609e1b8316151514155b806200009f5750604081015115156001609d1b8316151514155b80620000b95750606081015115156001609c1b8316151514155b80620000d35750608081015115156001609b1b8316151514155b80620000ed575060a081015115156001609a1b8316151514155b8062000107575060c08101511515600160991b8316151514155b8062000121575060e08101511515600160981b8316151514155b156200014f576040516303b556f760e01b81526001600160a01b038316600482015260240160405180910390fd5b5050565b805180151581146200016457600080fd5b919050565b6000808284036101208112156200017f57600080fd5b83516001600160a01b03811681146200019757600080fd5b9250610100601f198201811315620001ae57600080fd5b60405191508082016001600160401b0381118382101715620001e057634e487b7160e01b600052604160045260246000fd5b604052620001f16020860162000153565b8252620002016040860162000153565b6020830152620002146060860162000153565b6040830152620002276080860162000153565b60608301526200023a60a0860162000153565b60808301526200024d60c0860162000153565b60a08301526200026060e0860162000153565b60c08301526200027281860162000153565b60e083015250809150509250929050565b608051611112620002d060003960008181610165015281816102560152818161034b0152818161046501528181610532015281816105d80152818161067e015261072601526111126000f3fe608060405234801561001057600080fd5b50600436106100b45760003560e01c806366e741671161007157806366e74167146101bf5780637008e731146101d2578063a5658c86146101fd578063a5b13f6914610210578063b898895e14610223578063fc4399821461023657600080fd5b806309b9601c146100b9578063191e581e146100ea5780631cae9eef146100ff5780632e6edf3f146101325780634226b1bf146101605780636003a3531461019f575b600080fd5b6100cc6100c7366004610b14565b610249565b6040516001600160e01b031990911681526020015b60405180910390f35b6100fd6100f8366004610b85565b6102ef565b005b61012261010d366004610baf565b60006020819052908152604090205460ff1681565b60405190151581526020016100e1565b610152610140366004610baf565b60026020526000908152604090205481565b6040519081526020016100e1565b6101877f000000000000000000000000000000000000000000000000000000000000000081565b6040516001600160a01b0390911681526020016100e1565b6101526101ad366004610baf565b60016020526000908152604090205481565b6100cc6101cd366004610bdf565b610458565b6101526101e0366004610c87565b600360209081526000928352604080842090915290825290205481565b6100cc61020b366004610b14565b610525565b6100cc61021e366004610cbe565b6105cb565b6100cc610231366004610d09565b610671565b6100cc610244366004610d97565b610719565b6000336001600160a01b037f0000000000000000000000000000000000000000000000000000000000000000161461029457604051630d0ec32b60e31b815260040160405180910390fd5b6001600160601b038616600090815260208190526040902054869060ff166102cf57604051630d0ec32b60e31b815260040160405180910390fd5b6102dc87878787876107c3565b5063026e580760e21b9695505050505050565b6001600160601b038216600090815260208190526040902054829060ff1661032a57604051630d0ec32b60e31b815260040160405180910390fd5b604051634f17001d60e11b81526001600160601b03841660048201526000907f00000000000000000000000000000000000000000000000000000000000000006001600160a01b031690639e2e003a90602401600060405180830381865afa15801561039a573d6000803e3d6000fd5b505050506040513d6000823e601f3d908101601f191682016040526103c29190810190610e83565b50505050505050509050806001600160a01b0316336001600160a01b0316146103fe57604051630d0ec32b60e31b815260040160405180910390fd5b6001600160601b038416600081815260016020908152604091829020869055815192835282018590527fdbc2d92066ee79fd64220430986d0e862a9224763dc143bdc4809fb5d7183102910160405180910390a150505050565b6000336001600160a01b037f000000000000000000000000000000000000000000000000000000000000000016146104a357604051630d0ec32b60e31b815260040160405180910390fd5b6001600160601b03891660009081526020819052604090205460ff16156104dd576040516363d2088f60e11b815260040160405180910390fd5b6001600160601b0389166000908152602081905260409020805460ff1916600117905561051089898989898989896107dc565b506366e7416760e01b98975050505050505050565b6000336001600160a01b037f0000000000000000000000000000000000000000000000000000000000000000161461057057604051630d0ec32b60e31b815260040160405180910390fd5b6001600160601b038616600090815260208190526040902054869060ff166105ab57604051630d0ec32b60e31b815260040160405180910390fd5b6105b887878787876107c3565b506352b2c64360e11b9695505050505050565b6000336001600160a01b037f0000000000000000000000000000000000000000000000000000000000000000161461061657604051630d0ec32b60e31b815260040160405180910390fd5b6001600160601b038616600090815260208190526040902054869060ff1661065157604051630d0ec32b60e31b815260040160405180910390fd5b61065e87878787876107c3565b5063a5b13f6960e01b9695505050505050565b6000336001600160a01b037f000000000000000000000000000000000000000000000000000000000000000016146106bc57604051630d0ec32b60e31b815260040160405180910390fd5b6001600160601b038716600090815260208190526040902054879060ff166106f757604051630d0ec32b60e31b815260040160405180910390fd5b61070588888888888861085b565b50635c4c44af60e11b979650505050505050565b6000336001600160a01b037f0000000000000000000000000000000000000000000000000000000000000000161461076457604051630d0ec32b60e31b815260040160405180910390fd5b6001600160601b038816600090815260208190526040902054889060ff1661079f57604051630d0ec32b60e31b815260040160405180910390fd5b6107ae8989898989898961087d565b50637e21ccc160e11b98975050505050505050565b604051638a8cacbf60e01b815260040160405180910390fd5b6000806107eb83850185610fbc565b6001600160601b038c1660008181526001602090815260408083208690556002825291829020849055815192835282018490529294509092507fdbc2d92066ee79fd64220430986d0e862a9224763dc143bdc4809fb5d7183102910160405180910390a150505050505050505050565b610867868584846108a1565b61087586868686868661094b565b505050505050565b610889878784846108a1565b61089887878787878787610956565b50505050505050565b60006108af82840184610fde565b604080516001600160a01b03871660208201529192506000910160408051601f198184030181528282528051602091820120908301520160405160208183030381529060405280519060200120905061092e8260016000896001600160601b03166001600160601b031681526020019081526020016000205483610961565b61087557604051630d0ec32b60e31b815260040160405180910390fd5b610875868585610977565b610898878787610977565b60008261096e8584610a1d565b14949350505050565b6001600160601b038316600090815260026020908152604080832054600383528184206001600160a01b0387168552909252909120546109b890839061109a565b11156109d75760405163330d6d0160e11b815260040160405180910390fd5b6001600160601b03831660009081526003602090815260408083206001600160a01b038616845290915281208054839290610a1390849061109a565b9091555050505050565b600081815b8451811015610a6257610a4e82868381518110610a4157610a416110ad565b6020026020010151610a6c565b915080610a5a816110c3565b915050610a22565b5090505b92915050565b6000818310610a88576000828152602084905260409020610a97565b60008381526020839052604090205b9392505050565b80356001600160601b0381168114610ab557600080fd5b919050565b8015158114610ac857600080fd5b50565b60008083601f840112610add57600080fd5b50813567ffffffffffffffff811115610af557600080fd5b602083019150836020828501011115610b0d57600080fd5b9250929050565b600080600080600060808688031215610b2c57600080fd5b610b3586610a9e565b9450602086013593506040860135610b4c81610aba565b9250606086013567ffffffffffffffff811115610b6857600080fd5b610b7488828901610acb565b969995985093965092949392505050565b60008060408385031215610b9857600080fd5b610ba183610a9e565b946020939093013593505050565b600060208284031215610bc157600080fd5b610a9782610a9e565b6001600160a01b0381168114610ac857600080fd5b60008060008060008060008060e0898b031215610bfb57600080fd5b610c0489610a9e565b97506020890135610c1481610bca565b96506040890135610c2481610bca565b95506060890135610c3481610bca565b94506080890135935060a0890135610c4b81610aba565b925060c089013567ffffffffffffffff811115610c6757600080fd5b610c738b828c01610acb565b999c989b5096995094979396929594505050565b60008060408385031215610c9a57600080fd5b610ca383610a9e565b91506020830135610cb381610bca565b809150509250929050565b600080600080600060808688031215610cd657600080fd5b610cdf86610a9e565b94506020860135935060408601359250606086013567ffffffffffffffff811115610b6857600080fd5b60008060008060008060a08789031215610d2257600080fd5b610d2b87610a9e565b9550602087013567ffffffffffffffff8082168214610d4957600080fd5b909550604088013590610d5b82610bca565b9094506060880135935060808801359080821115610d7857600080fd5b50610d8589828a01610acb565b979a9699509497509295939492505050565b600080600080600080600060c0888a031215610db257600080fd5b610dbb88610a9e565b96506020880135610dcb81610bca565b955060408801359450606088013593506080880135610de981610aba565b925060a088013567ffffffffffffffff811115610e0557600080fd5b610e118a828b01610acb565b989b979a50959850939692959293505050565b80516001600160c81b031981168114610ab557600080fd5b634e487b7160e01b600052604160045260246000fd5b604051601f8201601f1916810167ffffffffffffffff81118282101715610e7b57610e7b610e3c565b604052919050565b60008060008060008060008060006101208a8c031215610ea257600080fd5b8951610ead81610bca565b809950506020808b0151610ec081610bca565b60408c0151909950610ed181610bca565b9750610edf60608c01610e24565b965060808b0151955060a08b0151610ef681610bca565b9450610f0460c08c01610e24565b935060e08b0151610f1481610aba565b6101008c015190935067ffffffffffffffff80821115610f3357600080fd5b818d0191508d601f830112610f4757600080fd5b815181811115610f5957610f59610e3c565b610f6b601f8201601f19168501610e52565b91508082528e84828501011115610f8157600080fd5b60005b81811015610f9f578381018501518382018601528401610f84565b506000848284010152508093505050509295985092959850929598565b60008060408385031215610fcf57600080fd5b50508035926020909101359150565b60006020808385031215610ff157600080fd5b823567ffffffffffffffff8082111561100957600080fd5b818501915085601f83011261101d57600080fd5b81358181111561102f5761102f610e3c565b8060051b9150611040848301610e52565b818152918301840191848101908884111561105a57600080fd5b938501935b838510156110785784358252938501939085019061105f565b98975050505050505050565b634e487b7160e01b600052601160045260246000fd5b80820180821115610a6657610a66611084565b634e487b7160e01b600052603260045260246000fd5b6000600182016110d5576110d5611084565b506001019056fea26469706673582212201ec9b1b4489ea6db14934d155acf85afbaf982947e573d8067d92533009d6de564736f6c63430008130033",
    "linkReferences": {}
  },
  "methodIdentifiers": {
    "AUCTION_HOUSE()": "4226b1bf",
    "lotBuyerLimit(uint96)": "2e6edf3f",
    "lotBuyerSpent(uint96,address)": "7008e731",
    "lotIdRegistered(uint96)": "1cae9eef",
    "lotMerkleRoot(uint96)": "6003a353",
    "onBid(uint96,uint64,address,uint256,bytes)": "b898895e",
    "onCancel(uint96,uint256,bool,bytes)": "a5658c86",
    "onCreate(uint96,address,address,address,uint256,bool,bytes)": "66e74167",
    "onCurate(uint96,uint256,bool,bytes)": "09b9601c",
    "onPurchase(uint96,address,uint256,uint256,bool,bytes)": "fc439982",
    "onSettle(uint96,uint256,uint256,bytes)": "a5b13f69",
    "setMerkleRoot(uint96,bytes32)": "191e581e"
  },
  "id": 76
}