{
  "abi": [
    {
      "type": "constructor",
      "inputs": [
        {
          "name": "auctionHouse_",
          "type": "address",
          "internalType": "address"
        },
        {
          "name": "permissions_",
          "type": "tuple",
          "internalType": "struct Callbacks.Permissions",
          "components": [
            {
              "name": "onCreate",
              "type": "bool",
              "internalType": "bool"
            },
            {
              "name": "onCancel",
              "type": "bool",
              "internalType": "bool"
            },
            {
              "name": "onCurate",
              "type": "bool",
              "internalType": "bool"
            },
            {
              "name": "onPurchase",
              "type": "bool",
              "internalType": "bool"
            },
            {
              "name": "onBid",
              "type": "bool",
              "internalType": "bool"
            },
            {
              "name": "onSettle",
              "type": "bool",
              "internalType": "bool"
            },
            {
              "name": "receiveQuoteTokens",
              "type": "bool",
              "internalType": "bool"
            },
            {
              "name": "sendBaseTokens",
              "type": "bool",
              "internalType": "bool"
            }
          ]
        }
      ],
      "stateMutability": "nonpayable"
    },
    {
      "type": "function",
      "name": "AUCTION_HOUSE",
      "inputs": [],
      "outputs": [
        {
          "name": "",
          "type": "address",
          "internalType": "address"
        }
      ],
      "stateMutability": "view"
    },
    {
      "type": "function",
      "name": "lotBuyerLimit",
      "inputs": [
        {
          "name": "",
          "type": "uint96",
          "internalType": "uint96"
        }
      ],
      "outputs": [
        {
          "name": "",
          "type": "uint256",
          "internalType": "uint256"
        }
      ],
      "stateMutability": "view"
    },
    {
      "type": "function",
      "name": "lotBuyerSpent",
      "inputs": [
        {
          "name": "",
          "type": "uint96",
          "internalType": "uint96"
        },
        {
          "name": "",
          "type": "address",
          "internalType": "address"
        }
      ],
      "outputs": [
        {
          "name": "",
          "type": "uint256",
          "internalType": "uint256"
        }
      ],
      "stateMutability": "view"
    },
    {
      "type": "function",
      "name": "lotIdRegistered",
      "inputs": [
        {
          "name": "",
          "type": "uint96",
          "internalType": "uint96"
        }
      ],
      "outputs": [
        {
          "name": "",
          "type": "bool",
          "internalType": "bool"
        }
      ],
      "stateMutability": "view"
    },
    {
      "type": "function",
      "name": "lotMerkleRoot",
      "inputs": [
        {
          "name": "",
          "type": "uint96",
          "internalType": "uint96"
        }
      ],
      "outputs": [
        {
          "name": "",
          "type": "bytes32",
          "internalType": "bytes32"
        }
      ],
      "stateMutability": "view"
    },
    {
      "type": "function",
      "name": "onBid",
      "inputs": [
        {
          "name": "lotId_",
          "type": "uint96",
          "internalType": "uint96"
        },
        {
          "name": "bidId",
          "type": "uint64",
          "internalType": "uint64"
        },
        {
          "name": "buyer_",
          "type": "address",
          "internalType": "address"
        },
        {
          "name": "amount_",
          "type": "uint256",
          "internalType": "uint256"
        },
        {
          "name": "callbackData_",
          "type": "bytes",
          "internalType": "bytes"
        }
      ],
      "outputs": [
        {
          "name": "",
          "type": "bytes4",
          "internalType": "bytes4"
        }
      ],
      "stateMutability": "nonpayable"
    },
    {
      "type": "function",
      "name": "onCancel",
      "inputs": [
        {
          "name": "lotId_",
          "type": "uint96",
          "internalType": "uint96"
        },
        {
          "name": "refund_",
          "type": "uint256",
          "internalType": "uint256"
        },
        {
          "name": "prefunded_",
          "type": "bool",
          "internalType": "bool"
        },
        {
          "name": "callbackData_",
          "type": "bytes",
          "internalType": "bytes"
        }
      ],
      "outputs": [
        {
          "name": "",
          "type": "bytes4",
          "internalType": "bytes4"
        }
      ],
      "stateMutability": "nonpayable"
    },
    {
      "type": "function",
      "name": "onCreate",
      "inputs": [
        {
          "name": "lotId_",
          "type": "uint96",
          "internalType": "uint96"
        },
        {
          "name": "seller_",
          "type": "address",
          "internalType": "address"
        },
        {
          "name": "baseToken_",
          "type": "address",
          "internalType": "address"
        },
        {
          "name": "quoteToken_",
          "type": "address",
          "internalType": "address"
        },
        {
          "name": "capacity_",
          "type": "uint256",
          "internalType": "uint256"
        },
        {
          "name": "prefund_",
          "type": "bool",
          "internalType": "bool"
        },
        {
          "name": "callbackData_",
          "type": "bytes",
          "internalType": "bytes"
        }
      ],
      "outputs": [
        {
          "name": "",
          "type": "bytes4",
          "internalType": "bytes4"
        }
      ],
      "stateMutability": "nonpayable"
    },
    {
      "type": "function",
      "name": "onCurate",
      "inputs": [
        {
          "name": "lotId_",
          "type": "uint96",
          "internalType": "uint96"
        },
        {
          "name": "curatorFee_",
          "type": "uint256",
          "internalType": "uint256"
        },
        {
          "name": "prefund_",
          "type": "bool",
          "internalType": "bool"
        },
        {
          "name": "callbackData_",
          "type": "bytes",
          "internalType": "bytes"
        }
      ],
      "outputs": [
        {
          "name": "",
          "type": "bytes4",
          "internalType": "bytes4"
        }
      ],
      "stateMutability": "nonpayable"
    },
    {
      "type": "function",
      "name": "onPurchase",
      "inputs": [
        {
          "name": "lotId_",
          "type": "uint96",
          "internalType": "uint96"
        },
        {
          "name": "buyer_",
          "type": "address",
          "internalType": "address"
        },
        {
          "name": "amount_",
          "type": "uint256",
          "internalType": "uint256"
        },
        {
          "name": "payout_",
          "type": "uint256",
          "internalType": "uint256"
        },
        {
          "name": "prefunded_",
          "type": "bool",
          "internalType": "bool"
        },
        {
          "name": "callbackData_",
          "type": "bytes",
          "internalType": "bytes"
        }
      ],
      "outputs": [
        {
          "name": "",
          "type": "bytes4",
          "internalType": "bytes4"
        }
      ],
      "stateMutability": "nonpayable"
    },
    {
      "type": "function",
      "name": "onSettle",
      "inputs": [
        {
          "name": "lotId_",
          "type": "uint96",
          "internalType": "uint96"
        },
        {
          "name": "proceeds_",
          "type": "uint256",
          "internalType": "uint256"
        },
        {
          "name": "refund_",
          "type": "uint256",
          "internalType": "uint256"
        },
        {
          "name": "callbackData_",
          "type": "bytes",
          "internalType": "bytes"
        }
      ],
      "outputs": [
        {
          "name": "",
          "type": "bytes4",
          "internalType": "bytes4"
        }
      ],
      "stateMutability": "nonpayable"
    },
    {
      "type": "error",
      "name": "Callback_ExceedsLimit",
      "inputs": []
    },
    {
      "type": "error",
      "name": "Callback_InvalidParams",
      "inputs": []
    },
    {
      "type": "error",
      "name": "Callback_NotAuthorized",
      "inputs": []
    },
    {
      "type": "error",
      "name": "Callback_NotImplemented",
      "inputs": []
    },
    {
      "type": "error",
      "name": "CallbacksAddressNotValid",
      "inputs": [
        {
          "name": "callbacks",
          "type": "address",
          "internalType": "address"
        }
      ]
    }
  ],
  "bytecode": {
    "object": "0x60a06040523480156200001157600080fd5b5060405162000fdd38038062000fdd833981016040819052620000349162000169565b818181816200004430826200005c565b506001600160a01b0316608052506200028392505050565b805115156001609f1b83161515141580620000855750602081015115156001609e1b8316151514155b806200009f5750604081015115156001609d1b8316151514155b80620000b95750606081015115156001609c1b8316151514155b80620000d35750608081015115156001609b1b8316151514155b80620000ed575060a081015115156001609a1b8316151514155b8062000107575060c08101511515600160991b8316151514155b8062000121575060e08101511515600160981b8316151514155b156200014f576040516303b556f760e01b81526001600160a01b038316600482015260240160405180910390fd5b5050565b805180151581146200016457600080fd5b919050565b6000808284036101208112156200017f57600080fd5b83516001600160a01b03811681146200019757600080fd5b9250610100601f198201811315620001ae57600080fd5b60405191508082016001600160401b0381118382101715620001e057634e487b7160e01b600052604160045260246000fd5b604052620001f16020860162000153565b8252620002016040860162000153565b6020830152620002146060860162000153565b6040830152620002276080860162000153565b60608301526200023a60a0860162000153565b60808301526200024d60c0860162000153565b60a08301526200026060e0860162000153565b60c08301526200027281860162000153565b60e083015250809150509250929050565b608051610d14620002c96000396000818161014501528181610236015281816102dc015281816103a90152818161044f015281816104f5015261059d0152610d146000f3fe608060405234801561001057600080fd5b50600436106100a95760003560e01c806366e741671161007157806366e741671461019f5780637008e731146101b2578063a5658c86146101dd578063a5b13f69146101f0578063b898895e14610203578063fc4399821461021657600080fd5b806309b9601c146100ae5780631cae9eef146100df5780632e6edf3f146101125780634226b1bf146101405780636003a3531461017f575b600080fd5b6100c16100bc3660046108e7565b610229565b6040516001600160e01b031990911681526020015b60405180910390f35b6101026100ed366004610956565b60006020819052908152604090205460ff1681565b60405190151581526020016100d6565b610132610120366004610956565b60026020526000908152604090205481565b6040519081526020016100d6565b6101677f000000000000000000000000000000000000000000000000000000000000000081565b6040516001600160a01b0390911681526020016100d6565b61013261018d366004610956565b60016020526000908152604090205481565b6100c16101ad36600461098f565b6102cf565b6101326101c0366004610a2f565b600360209081526000928352604080842090915290825290205481565b6100c16101eb3660046108e7565b61039c565b6100c16101fe366004610a62565b610442565b6100c1610211366004610aad565b6104e8565b6100c1610224366004610b38565b610590565b6000336001600160a01b037f0000000000000000000000000000000000000000000000000000000000000000161461027457604051630d0ec32b60e31b815260040160405180910390fd5b6001600160601b038616600090815260208190526040902054869060ff166102af57604051630d0ec32b60e31b815260040160405180910390fd5b6102bc878787878761063a565b5063026e580760e21b9695505050505050565b6000336001600160a01b037f0000000000000000000000000000000000000000000000000000000000000000161461031a57604051630d0ec32b60e31b815260040160405180910390fd5b6001600160601b03891660009081526020819052604090205460ff1615610354576040516363d2088f60e11b815260040160405180910390fd5b6001600160601b0389166000908152602081905260409020805460ff191660011790556103878989898989898989610653565b506366e7416760e01b98975050505050505050565b6000336001600160a01b037f000000000000000000000000000000000000000000000000000000000000000016146103e757604051630d0ec32b60e31b815260040160405180910390fd5b6001600160601b038616600090815260208190526040902054869060ff1661042257604051630d0ec32b60e31b815260040160405180910390fd5b61042f878787878761063a565b506352b2c64360e11b9695505050505050565b6000336001600160a01b037f0000000000000000000000000000000000000000000000000000000000000000161461048d57604051630d0ec32b60e31b815260040160405180910390fd5b6001600160601b038616600090815260208190526040902054869060ff166104c857604051630d0ec32b60e31b815260040160405180910390fd5b6104d5878787878761063a565b5063a5b13f6960e01b9695505050505050565b6000336001600160a01b037f0000000000000000000000000000000000000000000000000000000000000000161461053357604051630d0ec32b60e31b815260040160405180910390fd5b6001600160601b038716600090815260208190526040902054879060ff1661056e57604051630d0ec32b60e31b815260040160405180910390fd5b61057c888888888888610696565b50635c4c44af60e11b979650505050505050565b6000336001600160a01b037f000000000000000000000000000000000000000000000000000000000000000016146105db57604051630d0ec32b60e31b815260040160405180910390fd5b6001600160601b038816600090815260208190526040902054889060ff1661061657604051630d0ec32b60e31b815260040160405180910390fd5b610625898989898989896106b8565b50637e21ccc160e11b98975050505050505050565b604051638a8cacbf60e01b815260040160405180910390fd5b60008061066283850185610bc1565b6001600160601b03909b16600090815260016020908152604080832093909355600290522099909955505050505050505050565b6106a2868584846106dc565b6106b0868686868686610774565b505050505050565b6106c4878784846106dc565b6106d38787878787878761077f565b50505050505050565b60006106ea82840184610bf9565b6040516bffffffffffffffffffffffff19606087901b1660208201529091506000906034016040516020818303038152906040528051906020012090506107578260016000896001600160601b03166001600160601b03168152602001908152602001600020548361078a565b6106b057604051630d0ec32b60e31b815260040160405180910390fd5b6106b08685856107cc565b6106d38787876107cc565b60008351156107c55760208401845160051b81015b8151841160051b93845281516020948518526040600020939091019080821061079f5750505b5014919050565b6001600160601b038316600090815260026020908152604080832054600383528184206001600160a01b03871685529092529091205461080d908390610cb7565b111561082c5760405163330d6d0160e11b815260040160405180910390fd5b6001600160601b03831660009081526003602090815260408083206001600160a01b038616845290915281208054839290610868908490610cb7565b9091555050505050565b80356001600160601b038116811461088957600080fd5b919050565b8035801515811461088957600080fd5b60008083601f8401126108b057600080fd5b50813567ffffffffffffffff8111156108c857600080fd5b6020830191508360208285010111156108e057600080fd5b9250929050565b6000806000806000608086880312156108ff57600080fd5b61090886610872565b94506020860135935061091d6040870161088e565b9250606086013567ffffffffffffffff81111561093957600080fd5b6109458882890161089e565b969995985093965092949392505050565b60006020828403121561096857600080fd5b61097182610872565b9392505050565b80356001600160a01b038116811461088957600080fd5b60008060008060008060008060e0898b0312156109ab57600080fd5b6109b489610872565b97506109c260208a01610978565b96506109d060408a01610978565b95506109de60608a01610978565b9450608089013593506109f360a08a0161088e565b925060c089013567ffffffffffffffff811115610a0f57600080fd5b610a1b8b828c0161089e565b999c989b5096995094979396929594505050565b60008060408385031215610a4257600080fd5b610a4b83610872565b9150610a5960208401610978565b90509250929050565b600080600080600060808688031215610a7a57600080fd5b610a8386610872565b94506020860135935060408601359250606086013567ffffffffffffffff81111561093957600080fd5b60008060008060008060a08789031215610ac657600080fd5b610acf87610872565b9550602087013567ffffffffffffffff8082168214610aed57600080fd5b819650610afc60408a01610978565b9550606089013594506080890135915080821115610b1957600080fd5b50610b2689828a0161089e565b979a9699509497509295939492505050565b600080600080600080600060c0888a031215610b5357600080fd5b610b5c88610872565b9650610b6a60208901610978565b95506040880135945060608801359350610b866080890161088e565b925060a088013567ffffffffffffffff811115610ba257600080fd5b610bae8a828b0161089e565b989b979a50959850939692959293505050565b60008060408385031215610bd457600080fd5b50508035926020909101359150565b634e487b7160e01b600052604160045260246000fd5b60006020808385031215610c0c57600080fd5b823567ffffffffffffffff80821115610c2457600080fd5b818501915085601f830112610c3857600080fd5b813581811115610c4a57610c4a610be3565b8060051b604051601f19603f83011681018181108582111715610c6f57610c6f610be3565b604052918252848201925083810185019188831115610c8d57600080fd5b938501935b82851015610cab57843584529385019392850192610c92565b98975050505050505050565b80820180821115610cd857634e487b7160e01b600052601160045260246000fd5b9291505056fea264697066735822122069343bfa1851369a90cb418c354f9ee287c5b37643bd35b0db9147ce6dd6073164736f6c63430008130033",
    "linkReferences": {}
  },
  "methodIdentifiers": {
    "AUCTION_HOUSE()": "4226b1bf",
    "lotBuyerLimit(uint96)": "2e6edf3f",
    "lotBuyerSpent(uint96,address)": "7008e731",
    "lotIdRegistered(uint96)": "1cae9eef",
    "lotMerkleRoot(uint96)": "6003a353",
    "onBid(uint96,uint64,address,uint256,bytes)": "b898895e",
    "onCancel(uint96,uint256,bool,bytes)": "a5658c86",
    "onCreate(uint96,address,address,address,uint256,bool,bytes)": "66e74167",
    "onCurate(uint96,uint256,bool,bytes)": "09b9601c",
    "onPurchase(uint96,address,uint256,uint256,bool,bytes)": "fc439982",
    "onSettle(uint96,uint256,uint256,bytes)": "a5b13f69"
  },
  "id": 124
}