{
  "abi": [
    {
      "inputs": [
        {
          "internalType": "address",
          "name": "auctionHouse_",
          "type": "address"
        }
      ],
      "stateMutability": "nonpayable",
      "type": "constructor"
    },
    {
      "inputs": [
        {
          "internalType": "Veecode",
          "name": "veecode_",
          "type": "bytes7"
        }
      ],
      "name": "InvalidVeecode",
      "type": "error"
    },
    {
      "inputs": [],
      "name": "auctionHouse",
      "outputs": [
        {
          "internalType": "address",
          "name": "",
          "type": "address"
        }
      ],
      "stateMutability": "view",
      "type": "function"
    },
    {
      "inputs": [
        {
          "internalType": "uint96",
          "name": "lotId_",
          "type": "uint96"
        }
      ],
      "name": "getRouting",
      "outputs": [
        {
          "components": [
            {
              "internalType": "address",
              "name": "seller",
              "type": "address"
            },
            {
              "internalType": "uint96",
              "name": "funding",
              "type": "uint96"
            },
            {
              "internalType": "contract ERC20",
              "name": "baseToken",
              "type": "address"
            },
            {
              "internalType": "Veecode",
              "name": "auctionReference",
              "type": "bytes7"
            },
            {
              "internalType": "contract ERC20",
              "name": "quoteToken",
              "type": "address"
            },
            {
              "internalType": "contract ICallback",
              "name": "callbacks",
              "type": "address"
            },
            {
              "internalType": "Veecode",
              "name": "derivativeReference",
              "type": "bytes7"
            },
            {
              "internalType": "bool",
              "name": "wrapDerivative",
              "type": "bool"
            },
            {
              "internalType": "bytes",
              "name": "derivativeParams",
              "type": "bytes"
            }
          ],
          "internalType": "struct Auctioneer.Routing",
          "name": "",
          "type": "tuple"
        }
      ],
      "stateMutability": "view",
      "type": "function"
    },
    {
      "inputs": [
        {
          "internalType": "uint96",
          "name": "lotId_",
          "type": "uint96"
        }
      ],
      "name": "hasEnded",
      "outputs": [
        {
          "internalType": "bool",
          "name": "",
          "type": "bool"
        }
      ],
      "stateMutability": "view",
      "type": "function"
    },
    {
      "inputs": [
        {
          "internalType": "uint96",
          "name": "lotId_",
          "type": "uint96"
        }
      ],
      "name": "isLive",
      "outputs": [
        {
          "internalType": "bool",
          "name": "",
          "type": "bool"
        }
      ],
      "stateMutability": "view",
      "type": "function"
    },
    {
      "inputs": [
        {
          "internalType": "uint96",
          "name": "lotId_",
          "type": "uint96"
        }
      ],
      "name": "maxAmountAccepted",
      "outputs": [
        {
          "internalType": "uint256",
          "name": "",
          "type": "uint256"
        }
      ],
      "stateMutability": "view",
      "type": "function"
    },
    {
      "inputs": [
        {
          "internalType": "uint96",
          "name": "lotId_",
          "type": "uint96"
        }
      ],
      "name": "maxPayout",
      "outputs": [
        {
          "internalType": "uint256",
          "name": "",
          "type": "uint256"
        }
      ],
      "stateMutability": "view",
      "type": "function"
    },
    {
      "inputs": [
        {
          "internalType": "uint96",
          "name": "lotId_",
          "type": "uint96"
        },
        {
          "internalType": "uint96",
          "name": "amount_",
          "type": "uint96"
        }
      ],
      "name": "payoutFor",
      "outputs": [
        {
          "internalType": "uint256",
          "name": "",
          "type": "uint256"
        }
      ],
      "stateMutability": "view",
      "type": "function"
    },
    {
      "inputs": [
        {
          "internalType": "uint96",
          "name": "lotId_",
          "type": "uint96"
        },
        {
          "internalType": "uint96",
          "name": "payout_",
          "type": "uint96"
        }
      ],
      "name": "priceFor",
      "outputs": [
        {
          "internalType": "uint256",
          "name": "",
          "type": "uint256"
        }
      ],
      "stateMutability": "view",
      "type": "function"
    },
    {
      "inputs": [
        {
          "internalType": "uint96",
          "name": "lotId_",
          "type": "uint96"
        }
      ],
      "name": "remainingCapacity",
      "outputs": [
        {
          "internalType": "uint256",
          "name": "",
          "type": "uint256"
        }
      ],
      "stateMutability": "view",
      "type": "function"
    }
  ],
  "bytecode": {
    "object": "0x608060405234801561001057600080fd5b506040516112f13803806112f183398101604081905261002f91610054565b600080546001600160a01b0319166001600160a01b0392909216919091179055610084565b60006020828403121561006657600080fd5b81516001600160a01b038116811461007d57600080fd5b9392505050565b61125e806100936000396000f3fe608060405234801561001057600080fd5b50600436106100935760003560e01c8063ba4c8b7d11610066578063ba4c8b7d14610107578063d3ad2fed1461011a578063ed9152c81461012d578063eee974b914610158578063f39866b01461016b57600080fd5b806303855921146100985780631a85c634146100c0578063732efc03146100e1578063ace54da5146100f4575b600080fd5b6100ab6100a6366004610d01565b61018b565b60405190151581526020015b60405180910390f35b6100d36100ce366004610d01565b61027d565b6040519081526020016100b7565b6100ab6100ef366004610d01565b6103ad565b6100d3610102366004610d01565b61045b565b6100d3610115366004610d1e565b610556565b6100d3610128366004610d01565b610689565b600054610140906001600160a01b031681565b6040516001600160a01b0390911681526020016100b7565b6100d3610166366004610d1e565b610737565b61017e610179366004610d01565b6109a0565b6040516100b79190610da7565b6000805460405163a50076f760e01b81526001600160601b038416600482015282916001600160a01b03169063a50076f790602401602060405180830381865afa1580156101dd573d6000803e3d6000fd5b505050506040513d601f19601f820116820180604052508101906102019190610e95565b604051630385592160e01b81526001600160601b03851660048201529091506001600160a01b038216906303855921906024015b602060405180830381865afa158015610252573d6000803e3d6000fd5b505050506040513d601f19601f820116820180604052508101906102769190610ec7565b9392505050565b6000805460405163a50076f760e01b81526001600160601b038416600482015282916001600160a01b03169063a50076f790602401602060405180830381865afa1580156102cf573d6000803e3d6000fd5b505050506040513d601f19601f820116820180604052508101906102f39190610e95565b90506000610300846109a0565b6040516306a1718d60e21b81526001600160601b03861660048201529091506000906001600160a01b03841690631a85c63490602401602060405180830381865afa158015610353573d6000803e3d6000fd5b505050506040513d601f19601f820116820180604052508101906103779190610ee2565b6001600160601b0316905061039a6103928360600151610aeb565b600183610aff565b6103a49082610f15565b95945050505050565b6000805460405163a50076f760e01b81526001600160601b038416600482015282916001600160a01b03169063a50076f790602401602060405180830381865afa1580156103ff573d6000803e3d6000fd5b505050506040513d601f19601f820116820180604052508101906104239190610e95565b60405163732efc0360e01b81526001600160601b03851660048201529091506001600160a01b0382169063732efc0390602401610235565b6000805460405163a50076f760e01b81526001600160601b038416600482015282916001600160a01b03169063a50076f790602401602060405180830381865afa1580156104ad573d6000803e3d6000fd5b505050506040513d601f19601f820116820180604052508101906104d19190610e95565b60405163ace54da560e01b81526001600160601b03851660048201529091506001600160a01b0382169063ace54da5906024015b602060405180830381865afa158015610522573d6000803e3d6000fd5b505050506040513d601f19601f820116820180604052508101906105469190610ee2565b6001600160601b03169392505050565b6000805460405163a50076f760e01b81526001600160601b038516600482015282916001600160a01b03169063a50076f790602401602060405180830381865afa1580156105a8573d6000803e3d6000fd5b505050506040513d601f19601f820116820180604052508101906105cc9190610e95565b905060006105d9856109a0565b60405163ba4c8b7d60e01b81526001600160601b038088166004830152861660248201529091506000906001600160a01b0384169063ba4c8b7d90604401602060405180830381865afa158015610634573d6000803e3d6000fd5b505050506040513d601f19601f820116820180604052508101906106589190610ee2565b6001600160601b031690506106736103928360600151610aeb565b61067d9082610f15565b93505050505b92915050565b6000805460405163a50076f760e01b81526001600160601b038416600482015282916001600160a01b03169063a50076f790602401602060405180830381865afa1580156106db573d6000803e3d6000fd5b505050506040513d601f19601f820116820180604052508101906106ff9190610e95565b60405163d3ad2fed60e01b81526001600160601b03851660048201529091506001600160a01b0382169063d3ad2fed90602401610505565b6000805460405163a50076f760e01b81526001600160601b038516600482015282916001600160a01b03169063a50076f790602401602060405180830381865afa158015610789573d6000803e3d6000fd5b505050506040513d601f19601f820116820180604052508101906107ad9190610e95565b905060006107ba856109a0565b600080546060830151929350909182916001600160a01b0316906331d72d6b906107e390610aeb565b6040516001600160e01b031960e084901b1681526001600160d81b03199091166004820152602401606060405180830381865afa158015610828573d6000803e3d6000fd5b505050506040513d601f19601f8201168201806040525081019061084c9190610f3e565b5060008054604051630a3b767360e41b815265ffffffffffff808616600483015284166024820152600160448201526001600160601b038b1660648201529395509193509182916001600160a01b03169063a3b76730906084016040805180830381865afa1580156108c2573d6000803e3d6000fd5b505050506040513d601f19601f820116820180604052508101906108e69190610f81565b6001600160601b0391821693501690506001600160a01b03861663eee974b98a83610911868d610fb0565b61091b9190610fb0565b6040516001600160e01b031960e085901b1681526001600160601b03928316600482015291166024820152604401602060405180830381865afa158015610966573d6000803e3d6000fd5b505050506040513d601f19601f8201168201806040525081019061098a9190610ee2565b6001600160601b03169998505050505050505050565b604080516101208101825260008082526020820181905281830181905260608083018290526080830182905260a0830182905260c0830182905260e0830182905261010083015280549251634f17001d60e11b81526001600160601b038516600482015291929091829182918291829182918291829182916001600160a01b0390911690639e2e003a90602401600060405180830381865afa158015610a4a573d6000803e3d6000fd5b505050506040513d6000823e601f3d908101601f19168201604052610a729190810190611005565b60408051610120810182526001600160a01b039a8b1681526001600160601b0390991660208a0152968916968801969096526001600160c81b031994851660608801529287166080870152951660a0850152931660c083015291151560e08201526101008101919091529b9a5050505050505050505050565b600080610af783610bf8565b509392505050565b600080546040516331d72d6b60e01b81526001600160d81b031986166004820152829182916001600160a01b03909116906331d72d6b90602401606060405180830381865afa158015610b56573d6000803e3d6000fd5b505050506040513d601f19601f82011682018060405250810190610b7a9190610f3e565b50915091508415610b9257610b8f8183611147565b91505b6000610ba1620186a086611166565b90506000610bb284620186a061117d565b65ffffffffffff169050610bc681836111b2565b15610bd2576001610bd5565b60005b60ff16610be282846111c6565b610bec9190610f15565b98975050505050505050565b60008082600360fc1b6001600160f81b031982841a60f81b161080610c305750603960f81b8160001a60f81b6001600160f81b031916115b80610c4e5750600360fc1b8160011a60f81b6001600160f81b031916105b80610c6c5750603960f81b8160011a60f81b6001600160f81b031916115b15610c9957604051628b684360e31b81526001600160c81b03198516600482015260240160405180910390fd5b6000610ca8603083831a6111da565b610cb390600a6111f3565b9050610cc46030600184901a6111da565b610cce908261120f565b60109290921b6001600160d81b031916959194509092505050565b6001600160601b0381168114610cfe57600080fd5b50565b600060208284031215610d1357600080fd5b813561027681610ce9565b60008060408385031215610d3157600080fd5b8235610d3c81610ce9565b91506020830135610d4c81610ce9565b809150509250929050565b60005b83811015610d72578181015183820152602001610d5a565b50506000910152565b60008151808452610d93816020860160208601610d57565b601f01601f19169290920160200192915050565b60208152610dc16020820183516001600160a01b03169052565b60006020830151610ddd60408401826001600160601b03169052565b5060408301516001600160a01b03811660608401525060608301516001600160c81b0319811660808401525060808301516001600160a01b03811660a08401525060a08301516001600160a01b03811660c08401525060c08301516001600160c81b0319811660e08401525060e0830151610100610e5e8185018315159052565b840151610120848101529050610e78610140840182610d7b565b949350505050565b6001600160a01b0381168114610cfe57600080fd5b600060208284031215610ea757600080fd5b815161027681610e80565b80518015158114610ec257600080fd5b919050565b600060208284031215610ed957600080fd5b61027682610eb2565b600060208284031215610ef457600080fd5b815161027681610ce9565b634e487b7160e01b600052601160045260246000fd5b8082018082111561068357610683610eff565b805165ffffffffffff81168114610ec257600080fd5b600080600060608486031215610f5357600080fd5b610f5c84610f28565b9250610f6a60208501610f28565b9150610f7860408501610f28565b90509250925092565b60008060408385031215610f9457600080fd5b8251610f9f81610ce9565b6020840151909250610d4c81610ce9565b6001600160601b03828116828216039080821115610fd057610fd0610eff565b5092915050565b80516001600160c81b031981168114610ec257600080fd5b634e487b7160e01b600052604160045260246000fd5b60008060008060008060008060006101208a8c03121561102457600080fd5b895161102f81610e80565b60208b015190995061104081610ce9565b60408b015190985061105181610e80565b965061105f60608b01610fd7565b955060808a015161106f81610e80565b60a08b015190955061108081610e80565b935061108e60c08b01610fd7565b925061109c60e08b01610eb2565b91506101008a015167ffffffffffffffff808211156110ba57600080fd5b818c0191508c601f8301126110ce57600080fd5b8151818111156110e0576110e0610fef565b604051601f8201601f19908116603f0116810190838211818310171561110857611108610fef565b816040528281528f602084870101111561112157600080fd5b611132836020830160208801610d57565b80955050505050509295985092959850929598565b65ffffffffffff818116838216019080821115610fd057610fd0610eff565b808202811582820484141761068357610683610eff565b65ffffffffffff828116828216039080821115610fd057610fd0610eff565b634e487b7160e01b600052601260045260246000fd5b6000826111c1576111c161119c565b500690565b6000826111d5576111d561119c565b500490565b60ff828116828216039081111561068357610683610eff565b60ff8181168382160290811690818114610fd057610fd0610eff565b60ff818116838216019081111561068357610683610eff56fea2646970667358221220e857f1520ab5f47170fefcdefa2844ffb9fef6214de7d64d49e568dbcfde335b64736f6c63430008130033",
    "linkReferences": {}
  },
  "methodIdentifiers": {
    "auctionHouse()": "ed9152c8",
    "getRouting(uint96)": "f39866b0",
    "hasEnded(uint96)": "03855921",
    "isLive(uint96)": "732efc03",
    "maxAmountAccepted(uint96)": "1a85c634",
    "maxPayout(uint96)": "d3ad2fed",
    "payoutFor(uint96,uint96)": "eee974b9",
    "priceFor(uint96,uint96)": "ba4c8b7d",
    "remainingCapacity(uint96)": "ace54da5"
  },
  "id": 34
}