{
  "abi": [
    {
      "type": "constructor",
      "inputs": [
        {
          "name": "auctionHouse_",
          "type": "address",
          "internalType": "address"
        }
      ],
      "stateMutability": "nonpayable"
    },
    {
      "type": "function",
      "name": "INIT",
      "inputs": [],
      "outputs": [],
      "stateMutability": "nonpayable"
    },
    {
      "type": "function",
      "name": "PARENT",
      "inputs": [],
      "outputs": [
        {
          "name": "",
          "type": "address",
          "internalType": "address"
        }
      ],
      "stateMutability": "view"
    },
    {
      "type": "function",
      "name": "TYPE",
      "inputs": [],
      "outputs": [
        {
          "name": "",
          "type": "uint8",
          "internalType": "enum Module.Type"
        }
      ],
      "stateMutability": "pure"
    },
    {
      "type": "function",
      "name": "VEECODE",
      "inputs": [],
      "outputs": [
        {
          "name": "",
          "type": "bytes7",
          "internalType": "Veecode"
        }
      ],
      "stateMutability": "pure"
    },
    {
      "type": "function",
      "name": "abort",
      "inputs": [
        {
          "name": "lotId_",
          "type": "uint96",
          "internalType": "uint96"
        }
      ],
      "outputs": [],
      "stateMutability": "nonpayable"
    },
    {
      "type": "function",
      "name": "auction",
      "inputs": [
        {
          "name": "lotId_",
          "type": "uint96",
          "internalType": "uint96"
        },
        {
          "name": "params_",
          "type": "tuple",
          "internalType": "struct IAuction.AuctionParams",
          "components": [
            {
              "name": "start",
              "type": "uint48",
              "internalType": "uint48"
            },
            {
              "name": "duration",
              "type": "uint48",
              "internalType": "uint48"
            },
            {
              "name": "capacityInQuote",
              "type": "bool",
              "internalType": "bool"
            },
            {
              "name": "capacity",
              "type": "uint256",
              "internalType": "uint256"
            },
            {
              "name": "implParams",
              "type": "bytes",
              "internalType": "bytes"
            }
          ]
        },
        {
          "name": "quoteTokenDecimals_",
          "type": "uint8",
          "internalType": "uint8"
        },
        {
          "name": "baseTokenDecimals_",
          "type": "uint8",
          "internalType": "uint8"
        }
      ],
      "outputs": [],
      "stateMutability": "nonpayable"
    },
    {
      "type": "function",
      "name": "auctionData",
      "inputs": [
        {
          "name": "lotId",
          "type": "uint96",
          "internalType": "uint96"
        }
      ],
      "outputs": [
        {
          "name": "nextBidId",
          "type": "uint64",
          "internalType": "uint64"
        },
        {
          "name": "nextDecryptIndex",
          "type": "uint64",
          "internalType": "uint64"
        },
        {
          "name": "status",
          "type": "uint8",
          "internalType": "enum IEncryptedMarginalPrice.LotStatus"
        },
        {
          "name": "marginalBidId",
          "type": "uint64",
          "internalType": "uint64"
        },
        {
          "name": "marginalPrice",
          "type": "uint256",
          "internalType": "uint256"
        },
        {
          "name": "minPrice",
          "type": "uint256",
          "internalType": "uint256"
        },
        {
          "name": "minFilled",
          "type": "uint256",
          "internalType": "uint256"
        },
        {
          "name": "minBidSize",
          "type": "uint256",
          "internalType": "uint256"
        },
        {
          "name": "publicKey",
          "type": "tuple",
          "internalType": "struct Point",
          "components": [
            {
              "name": "x",
              "type": "uint256",
              "internalType": "uint256"
            },
            {
              "name": "y",
              "type": "uint256",
              "internalType": "uint256"
            }
          ]
        },
        {
          "name": "privateKey",
          "type": "uint256",
          "internalType": "uint256"
        }
      ],
      "stateMutability": "view"
    },
    {
      "type": "function",
      "name": "auctionType",
      "inputs": [],
      "outputs": [
        {
          "name": "",
          "type": "uint8",
          "internalType": "enum IAuction.AuctionType"
        }
      ],
      "stateMutability": "pure"
    },
    {
      "type": "function",
      "name": "bid",
      "inputs": [
        {
          "name": "lotId_",
          "type": "uint96",
          "internalType": "uint96"
        },
        {
          "name": "bidder_",
          "type": "address",
          "internalType": "address"
        },
        {
          "name": "referrer_",
          "type": "address",
          "internalType": "address"
        },
        {
          "name": "amount_",
          "type": "uint256",
          "internalType": "uint256"
        },
        {
          "name": "auctionData_",
          "type": "bytes",
          "internalType": "bytes"
        }
      ],
      "outputs": [
        {
          "name": "bidId",
          "type": "uint64",
          "internalType": "uint64"
        }
      ],
      "stateMutability": "nonpayable"
    },
    {
      "type": "function",
      "name": "bids",
      "inputs": [
        {
          "name": "lotId",
          "type": "uint96",
          "internalType": "uint96"
        },
        {
          "name": "bidId",
          "type": "uint64",
          "internalType": "uint64"
        }
      ],
      "outputs": [
        {
          "name": "bidder",
          "type": "address",
          "internalType": "address"
        },
        {
          "name": "amount",
          "type": "uint96",
          "internalType": "uint96"
        },
        {
          "name": "minAmountOut",
          "type": "uint96",
          "internalType": "uint96"
        },
        {
          "name": "referrer",
          "type": "address",
          "internalType": "address"
        },
        {
          "name": "status",
          "type": "uint8",
          "internalType": "enum IEncryptedMarginalPrice.BidStatus"
        }
      ],
      "stateMutability": "view"
    },
    {
      "type": "function",
      "name": "cancelAuction",
      "inputs": [
        {
          "name": "lotId_",
          "type": "uint96",
          "internalType": "uint96"
        }
      ],
      "outputs": [],
      "stateMutability": "nonpayable"
    },
    {
      "type": "function",
      "name": "capacityInQuote",
      "inputs": [
        {
          "name": "lotId_",
          "type": "uint96",
          "internalType": "uint96"
        }
      ],
      "outputs": [
        {
          "name": "",
          "type": "bool",
          "internalType": "bool"
        }
      ],
      "stateMutability": "view"
    },
    {
      "type": "function",
      "name": "claimBids",
      "inputs": [
        {
          "name": "lotId_",
          "type": "uint96",
          "internalType": "uint96"
        },
        {
          "name": "bidIds_",
          "type": "uint64[]",
          "internalType": "uint64[]"
        }
      ],
      "outputs": [
        {
          "name": "bidClaims",
          "type": "tuple[]",
          "internalType": "struct IBatchAuction.BidClaim[]",
          "components": [
            {
              "name": "bidder",
              "type": "address",
              "internalType": "address"
            },
            {
              "name": "referrer",
              "type": "address",
              "internalType": "address"
            },
            {
              "name": "paid",
              "type": "uint256",
              "internalType": "uint256"
            },
            {
              "name": "payout",
              "type": "uint256",
              "internalType": "uint256"
            },
            {
              "name": "refund",
              "type": "uint256",
              "internalType": "uint256"
            }
          ]
        },
        {
          "name": "auctionOutput",
          "type": "bytes",
          "internalType": "bytes"
        }
      ],
      "stateMutability": "nonpayable"
    },
    {
      "type": "function",
      "name": "decryptAndSortBids",
      "inputs": [
        {
          "name": "lotId_",
          "type": "uint96",
          "internalType": "uint96"
        },
        {
          "name": "num_",
          "type": "uint64",
          "internalType": "uint64"
        },
        {
          "name": "sortHints_",
          "type": "bytes32[]",
          "internalType": "bytes32[]"
        }
      ],
      "outputs": [],
      "stateMutability": "nonpayable"
    },
    {
      "type": "function",
      "name": "decryptBid",
      "inputs": [
        {
          "name": "lotId_",
          "type": "uint96",
          "internalType": "uint96"
        },
        {
          "name": "bidId_",
          "type": "uint64",
          "internalType": "uint64"
        }
      ],
      "outputs": [
        {
          "name": "amountOut",
          "type": "uint256",
          "internalType": "uint256"
        }
      ],
      "stateMutability": "view"
    },
    {
      "type": "function",
      "name": "decryptedBids",
      "inputs": [
        {
          "name": "lotId",
          "type": "uint96",
          "internalType": "uint96"
        }
      ],
      "outputs": [
        {
          "name": "numBids",
          "type": "uint256",
          "internalType": "uint256"
        }
      ],
      "stateMutability": "view"
    },
    {
      "type": "function",
      "name": "dedicatedSettlePeriod",
      "inputs": [],
      "outputs": [
        {
          "name": "",
          "type": "uint48",
          "internalType": "uint48"
        }
      ],
      "stateMutability": "view"
    },
    {
      "type": "function",
      "name": "encryptedBids",
      "inputs": [
        {
          "name": "lotId",
          "type": "uint96",
          "internalType": "uint96"
        },
        {
          "name": "bidId",
          "type": "uint64",
          "internalType": "uint64"
        }
      ],
      "outputs": [
        {
          "name": "encryptedAmountOut",
          "type": "uint256",
          "internalType": "uint256"
        },
        {
          "name": "bidPubKey",
          "type": "tuple",
          "internalType": "struct Point",
          "components": [
            {
              "name": "x",
              "type": "uint256",
              "internalType": "uint256"
            },
            {
              "name": "y",
              "type": "uint256",
              "internalType": "uint256"
            }
          ]
        }
      ],
      "stateMutability": "view"
    },
    {
      "type": "function",
      "name": "getAuctionData",
      "inputs": [
        {
          "name": "lotId_",
          "type": "uint96",
          "internalType": "uint96"
        }
      ],
      "outputs": [
        {
          "name": "auctionData_",
          "type": "tuple",
          "internalType": "struct IEncryptedMarginalPrice.AuctionData",
          "components": [
            {
              "name": "nextBidId",
              "type": "uint64",
              "internalType": "uint64"
            },
            {
              "name": "nextDecryptIndex",
              "type": "uint64",
              "internalType": "uint64"
            },
            {
              "name": "status",
              "type": "uint8",
              "internalType": "enum IEncryptedMarginalPrice.LotStatus"
            },
            {
              "name": "marginalBidId",
              "type": "uint64",
              "internalType": "uint64"
            },
            {
              "name": "marginalPrice",
              "type": "uint256",
              "internalType": "uint256"
            },
            {
              "name": "minPrice",
              "type": "uint256",
              "internalType": "uint256"
            },
            {
              "name": "minFilled",
              "type": "uint256",
              "internalType": "uint256"
            },
            {
              "name": "minBidSize",
              "type": "uint256",
              "internalType": "uint256"
            },
            {
              "name": "publicKey",
              "type": "tuple",
              "internalType": "struct Point",
              "components": [
                {
                  "name": "x",
                  "type": "uint256",
                  "internalType": "uint256"
                },
                {
                  "name": "y",
                  "type": "uint256",
                  "internalType": "uint256"
                }
              ]
            },
            {
              "name": "privateKey",
              "type": "uint256",
              "internalType": "uint256"
            },
            {
              "name": "bidIds",
              "type": "uint64[]",
              "internalType": "uint64[]"
            }
          ]
        }
      ],
      "stateMutability": "view"
    },
    {
      "type": "function",
      "name": "getBid",
      "inputs": [
        {
          "name": "lotId_",
          "type": "uint96",
          "internalType": "uint96"
        },
        {
          "name": "bidId_",
          "type": "uint64",
          "internalType": "uint64"
        }
      ],
      "outputs": [
        {
          "name": "bid",
          "type": "tuple",
          "internalType": "struct IEncryptedMarginalPrice.Bid",
          "components": [
            {
              "name": "bidder",
              "type": "address",
              "internalType": "address"
            },
            {
              "name": "amount",
              "type": "uint96",
              "internalType": "uint96"
            },
            {
              "name": "minAmountOut",
              "type": "uint96",
              "internalType": "uint96"
            },
            {
              "name": "referrer",
              "type": "address",
              "internalType": "address"
            },
            {
              "name": "status",
              "type": "uint8",
              "internalType": "enum IEncryptedMarginalPrice.BidStatus"
            }
          ]
        },
        {
          "name": "encryptedBid",
          "type": "tuple",
          "internalType": "struct IEncryptedMarginalPrice.EncryptedBid",
          "components": [
            {
              "name": "encryptedAmountOut",
              "type": "uint256",
              "internalType": "uint256"
            },
            {
              "name": "bidPubKey",
              "type": "tuple",
              "internalType": "struct Point",
              "components": [
                {
                  "name": "x",
                  "type": "uint256",
                  "internalType": "uint256"
                },
                {
                  "name": "y",
                  "type": "uint256",
                  "internalType": "uint256"
                }
              ]
            }
          ]
        }
      ],
      "stateMutability": "view"
    },
    {
      "type": "function",
      "name": "getBidClaim",
      "inputs": [
        {
          "name": "lotId_",
          "type": "uint96",
          "internalType": "uint96"
        },
        {
          "name": "bidId_",
          "type": "uint64",
          "internalType": "uint64"
        }
      ],
      "outputs": [
        {
          "name": "bidClaim",
          "type": "tuple",
          "internalType": "struct IBatchAuction.BidClaim",
          "components": [
            {
              "name": "bidder",
              "type": "address",
              "internalType": "address"
            },
            {
              "name": "referrer",
              "type": "address",
              "internalType": "address"
            },
            {
              "name": "paid",
              "type": "uint256",
              "internalType": "uint256"
            },
            {
              "name": "payout",
              "type": "uint256",
              "internalType": "uint256"
            },
            {
              "name": "refund",
              "type": "uint256",
              "internalType": "uint256"
            }
          ]
        }
      ],
      "stateMutability": "view"
    },
    {
      "type": "function",
      "name": "getBidIdAtIndex",
      "inputs": [
        {
          "name": "lotId_",
          "type": "uint96",
          "internalType": "uint96"
        },
        {
          "name": "index_",
          "type": "uint256",
          "internalType": "uint256"
        }
      ],
      "outputs": [
        {
          "name": "",
          "type": "uint64",
          "internalType": "uint64"
        }
      ],
      "stateMutability": "view"
    },
    {
      "type": "function",
      "name": "getBidIds",
      "inputs": [
        {
          "name": "lotId_",
          "type": "uint96",
          "internalType": "uint96"
        },
        {
          "name": "startIndex_",
          "type": "uint256",
          "internalType": "uint256"
        },
        {
          "name": "num_",
          "type": "uint256",
          "internalType": "uint256"
        }
      ],
      "outputs": [
        {
          "name": "",
          "type": "uint64[]",
          "internalType": "uint64[]"
        }
      ],
      "stateMutability": "view"
    },
    {
      "type": "function",
      "name": "getLot",
      "inputs": [
        {
          "name": "lotId_",
          "type": "uint96",
          "internalType": "uint96"
        }
      ],
      "outputs": [
        {
          "name": "",
          "type": "tuple",
          "internalType": "struct IAuction.Lot",
          "components": [
            {
              "name": "start",
              "type": "uint48",
              "internalType": "uint48"
            },
            {
              "name": "conclusion",
              "type": "uint48",
              "internalType": "uint48"
            },
            {
              "name": "quoteTokenDecimals",
              "type": "uint8",
              "internalType": "uint8"
            },
            {
              "name": "baseTokenDecimals",
              "type": "uint8",
              "internalType": "uint8"
            },
            {
              "name": "capacityInQuote",
              "type": "bool",
              "internalType": "bool"
            },
            {
              "name": "capacity",
              "type": "uint256",
              "internalType": "uint256"
            },
            {
              "name": "sold",
              "type": "uint256",
              "internalType": "uint256"
            },
            {
              "name": "purchased",
              "type": "uint256",
              "internalType": "uint256"
            }
          ]
        }
      ],
      "stateMutability": "view"
    },
    {
      "type": "function",
      "name": "getNextInQueue",
      "inputs": [
        {
          "name": "lotId_",
          "type": "uint96",
          "internalType": "uint96"
        },
        {
          "name": "key_",
          "type": "bytes32",
          "internalType": "bytes32"
        }
      ],
      "outputs": [
        {
          "name": "",
          "type": "bytes32",
          "internalType": "bytes32"
        }
      ],
      "stateMutability": "view"
    },
    {
      "type": "function",
      "name": "getNumBids",
      "inputs": [
        {
          "name": "lotId_",
          "type": "uint96",
          "internalType": "uint96"
        }
      ],
      "outputs": [
        {
          "name": "",
          "type": "uint256",
          "internalType": "uint256"
        }
      ],
      "stateMutability": "view"
    },
    {
      "type": "function",
      "name": "getNumBidsInQueue",
      "inputs": [
        {
          "name": "lotId_",
          "type": "uint96",
          "internalType": "uint96"
        }
      ],
      "outputs": [
        {
          "name": "",
          "type": "uint256",
          "internalType": "uint256"
        }
      ],
      "stateMutability": "view"
    },
    {
      "type": "function",
      "name": "getPartialFill",
      "inputs": [
        {
          "name": "lotId_",
          "type": "uint96",
          "internalType": "uint96"
        }
      ],
      "outputs": [
        {
          "name": "hasPartialFill",
          "type": "bool",
          "internalType": "bool"
        },
        {
          "name": "partialFill",
          "type": "tuple",
          "internalType": "struct IEncryptedMarginalPrice.PartialFill",
          "components": [
            {
              "name": "bidId",
              "type": "uint64",
              "internalType": "uint64"
            },
            {
              "name": "refund",
              "type": "uint96",
              "internalType": "uint96"
            },
            {
              "name": "payout",
              "type": "uint256",
              "internalType": "uint256"
            }
          ]
        }
      ],
      "stateMutability": "view"
    },
    {
      "type": "function",
      "name": "hasEnded",
      "inputs": [
        {
          "name": "lotId_",
          "type": "uint96",
          "internalType": "uint96"
        }
      ],
      "outputs": [
        {
          "name": "",
          "type": "bool",
          "internalType": "bool"
        }
      ],
      "stateMutability": "view"
    },
    {
      "type": "function",
      "name": "isLive",
      "inputs": [
        {
          "name": "lotId_",
          "type": "uint96",
          "internalType": "uint96"
        }
      ],
      "outputs": [
        {
          "name": "",
          "type": "bool",
          "internalType": "bool"
        }
      ],
      "stateMutability": "view"
    },
    {
      "type": "function",
      "name": "isUpcoming",
      "inputs": [
        {
          "name": "lotId_",
          "type": "uint96",
          "internalType": "uint96"
        }
      ],
      "outputs": [
        {
          "name": "",
          "type": "bool",
          "internalType": "bool"
        }
      ],
      "stateMutability": "view"
    },
    {
      "type": "function",
      "name": "lotAuctionOutput",
      "inputs": [
        {
          "name": "",
          "type": "uint96",
          "internalType": "uint96"
        }
      ],
      "outputs": [
        {
          "name": "",
          "type": "bytes",
          "internalType": "bytes"
        }
      ],
      "stateMutability": "view"
    },
    {
      "type": "function",
      "name": "lotData",
      "inputs": [
        {
          "name": "id",
          "type": "uint96",
          "internalType": "uint96"
        }
      ],
      "outputs": [
        {
          "name": "start",
          "type": "uint48",
          "internalType": "uint48"
        },
        {
          "name": "conclusion",
          "type": "uint48",
          "internalType": "uint48"
        },
        {
          "name": "quoteTokenDecimals",
          "type": "uint8",
          "internalType": "uint8"
        },
        {
          "name": "baseTokenDecimals",
          "type": "uint8",
          "internalType": "uint8"
        },
        {
          "name": "capacityInQuote",
          "type": "bool",
          "internalType": "bool"
        },
        {
          "name": "capacity",
          "type": "uint256",
          "internalType": "uint256"
        },
        {
          "name": "sold",
          "type": "uint256",
          "internalType": "uint256"
        },
        {
          "name": "purchased",
          "type": "uint256",
          "internalType": "uint256"
        }
      ],
      "stateMutability": "view"
    },
    {
      "type": "function",
      "name": "minAuctionDuration",
      "inputs": [],
      "outputs": [
        {
          "name": "",
          "type": "uint48",
          "internalType": "uint48"
        }
      ],
      "stateMutability": "view"
    },
    {
      "type": "function",
      "name": "refundBid",
      "inputs": [
        {
          "name": "lotId_",
          "type": "uint96",
          "internalType": "uint96"
        },
        {
          "name": "bidId_",
          "type": "uint64",
          "internalType": "uint64"
        },
        {
          "name": "index_",
          "type": "uint256",
          "internalType": "uint256"
        },
        {
          "name": "caller_",
          "type": "address",
          "internalType": "address"
        }
      ],
      "outputs": [
        {
          "name": "refund",
          "type": "uint256",
          "internalType": "uint256"
        }
      ],
      "stateMutability": "nonpayable"
    },
    {
      "type": "function",
      "name": "remainingCapacity",
      "inputs": [
        {
          "name": "lotId_",
          "type": "uint96",
          "internalType": "uint96"
        }
      ],
      "outputs": [
        {
          "name": "",
          "type": "uint256",
          "internalType": "uint256"
        }
      ],
      "stateMutability": "view"
    },
    {
      "type": "function",
      "name": "setDedicatedSettlePeriod",
      "inputs": [
        {
          "name": "period_",
          "type": "uint48",
          "internalType": "uint48"
        }
      ],
      "outputs": [],
      "stateMutability": "nonpayable"
    },
    {
      "type": "function",
      "name": "setMinAuctionDuration",
      "inputs": [
        {
          "name": "duration_",
          "type": "uint48",
          "internalType": "uint48"
        }
      ],
      "outputs": [],
      "stateMutability": "nonpayable"
    },
    {
      "type": "function",
      "name": "settle",
      "inputs": [
        {
          "name": "lotId_",
          "type": "uint96",
          "internalType": "uint96"
        },
        {
          "name": "num_",
          "type": "uint256",
          "internalType": "uint256"
        }
      ],
      "outputs": [
        {
          "name": "totalIn",
          "type": "uint256",
          "internalType": "uint256"
        },
        {
          "name": "totalOut",
          "type": "uint256",
          "internalType": "uint256"
        },
        {
          "name": "capacity",
          "type": "uint256",
          "internalType": "uint256"
        },
        {
          "name": "finished",
          "type": "bool",
          "internalType": "bool"
        },
        {
          "name": "auctionOutput",
          "type": "bytes",
          "internalType": "bytes"
        }
      ],
      "stateMutability": "nonpayable"
    },
    {
      "type": "function",
      "name": "submitPrivateKey",
      "inputs": [
        {
          "name": "lotId_",
          "type": "uint96",
          "internalType": "uint96"
        },
        {
          "name": "privateKey_",
          "type": "uint256",
          "internalType": "uint256"
        },
        {
          "name": "num_",
          "type": "uint64",
          "internalType": "uint64"
        },
        {
          "name": "sortHints_",
          "type": "bytes32[]",
          "internalType": "bytes32[]"
        }
      ],
      "outputs": [],
      "stateMutability": "nonpayable"
    },
    {
      "type": "event",
      "name": "BidDecrypted",
      "inputs": [
        {
          "name": "lotId",
          "type": "uint96",
          "indexed": true,
          "internalType": "uint96"
        },
        {
          "name": "bidId",
          "type": "uint64",
          "indexed": true,
          "internalType": "uint64"
        },
        {
          "name": "amountIn",
          "type": "uint96",
          "indexed": false,
          "internalType": "uint96"
        },
        {
          "name": "amountOut",
          "type": "uint96",
          "indexed": false,
          "internalType": "uint96"
        }
      ],
      "anonymous": false
    },
    {
      "type": "event",
      "name": "PrivateKeySubmitted",
      "inputs": [
        {
          "name": "lotId",
          "type": "uint96",
          "indexed": true,
          "internalType": "uint96"
        }
      ],
      "anonymous": false
    },
    {
      "type": "error",
      "name": "Auction_AmountLessThanMinimum",
      "inputs": []
    },
    {
      "type": "error",
      "name": "Auction_DedicatedSettlePeriod",
      "inputs": [
        {
          "name": "lotId",
          "type": "uint96",
          "internalType": "uint96"
        }
      ]
    },
    {
      "type": "error",
      "name": "Auction_InsufficientCapacity",
      "inputs": []
    },
    {
      "type": "error",
      "name": "Auction_InvalidBidId",
      "inputs": [
        {
          "name": "lotId",
          "type": "uint96",
          "internalType": "uint96"
        },
        {
          "name": "bidId",
          "type": "uint96",
          "internalType": "uint96"
        }
      ]
    },
    {
      "type": "error",
      "name": "Auction_InvalidDuration",
      "inputs": [
        {
          "name": "duration_",
          "type": "uint48",
          "internalType": "uint48"
        },
        {
          "name": "minimum_",
          "type": "uint48",
          "internalType": "uint48"
        }
      ]
    },
    {
      "type": "error",
      "name": "Auction_InvalidKey",
      "inputs": []
    },
    {
      "type": "error",
      "name": "Auction_InvalidLotId",
      "inputs": [
        {
          "name": "lotId",
          "type": "uint96",
          "internalType": "uint96"
        }
      ]
    },
    {
      "type": "error",
      "name": "Auction_InvalidParams",
      "inputs": []
    },
    {
      "type": "error",
      "name": "Auction_InvalidStart",
      "inputs": [
        {
          "name": "start_",
          "type": "uint48",
          "internalType": "uint48"
        },
        {
          "name": "minimum_",
          "type": "uint48",
          "internalType": "uint48"
        }
      ]
    },
    {
      "type": "error",
      "name": "Auction_LotActive",
      "inputs": [
        {
          "name": "lotId",
          "type": "uint96",
          "internalType": "uint96"
        }
      ]
    },
    {
      "type": "error",
      "name": "Auction_LotNotActive",
      "inputs": [
        {
          "name": "lotId",
          "type": "uint96",
          "internalType": "uint96"
        }
      ]
    },
    {
      "type": "error",
      "name": "Auction_LotNotConcluded",
      "inputs": [
        {
          "name": "lotId",
          "type": "uint96",
          "internalType": "uint96"
        }
      ]
    },
    {
      "type": "error",
      "name": "Auction_NotAuthorized",
      "inputs": []
    },
    {
      "type": "error",
      "name": "Auction_NotBidder",
      "inputs": []
    },
    {
      "type": "error",
      "name": "Auction_NotImplemented",
      "inputs": []
    },
    {
      "type": "error",
      "name": "Auction_OnlyLotOwner",
      "inputs": []
    },
    {
      "type": "error",
      "name": "Auction_WrongState",
      "inputs": [
        {
          "name": "lotId",
          "type": "uint96",
          "internalType": "uint96"
        }
      ]
    },
    {
      "type": "error",
      "name": "Bid_WrongState",
      "inputs": [
        {
          "name": "lotId",
          "type": "uint96",
          "internalType": "uint96"
        },
        {
          "name": "bidId",
          "type": "uint64",
          "internalType": "uint64"
        }
      ]
    },
    {
      "type": "error",
      "name": "Module_InvalidParent",
      "inputs": [
        {
          "name": "parent_",
          "type": "address",
          "internalType": "address"
        }
      ]
    },
    {
      "type": "error",
      "name": "Module_OnlyInternal",
      "inputs": []
    },
    {
      "type": "error",
      "name": "Module_OnlyParent",
      "inputs": [
        {
          "name": "caller_",
          "type": "address",
          "internalType": "address"
        }
      ]
    },
    {
      "type": "error",
      "name": "NotPermitted",
      "inputs": [
        {
          "name": "caller",
          "type": "address",
          "internalType": "address"
        }
      ]
    }
  ],
  "bytecode": {
    "object": "0x60a06040523480156200001157600080fd5b5060405162005601380380620056018339810160408190526200003491620000a5565b80806001600160a01b0381166200006d57604051631462ddc360e21b81526001600160a01b038216600482015260240160405180910390fd5b6001600160a01b03166080525050600080546201518065ffffffffffff199182168117909255600280549091169091179055620000d7565b600060208284031215620000b857600080fd5b81516001600160a01b0381168114620000d057600080fd5b9392505050565b6080516154976200016a6000396000818161038b01528181610b2801528181610b6f01528181610cf901528181610d6401528181610da601528181610f5d015281816112de015281816113200152818161142c0152818161146e0152818161187d015281816118bf015281816119c301528181611a0501528181611e3101528181611e730152611fe101526154976000f3fe608060405234801561001057600080fd5b50600436106102475760003560e01c80637d9234bc1161013b578063b04046df116100b8578063d61735ca1161007c578063d61735ca146107fd578063d899a33714610814578063de1d311214610827578063e2cfa6ea14610847578063ea643914146108e757600080fd5b8063b04046df14610784578063bae96bdd14610797578063bb24fe8a146107aa578063cadb3383146107b9578063cd280bdb146107d957600080fd5b8063a16f7ef7116100ff578063a16f7ef7146106c2578063a1a61ec514610711578063a85cebb614610724578063a8bf44e414610736578063ace54da51461075757600080fd5b80637d9234bc1461065a57806387698a311461066d5780638bde6109146106805780638f21c31814610693578063994595e1146106b357600080fd5b806325e34a8e116101c957806354c87c011161018d57806354c87c01146104f75780635806afc31461054e578063732efc031461060957806379fd0c1f1461061c5780637d7b68531461062f57600080fd5b806325e34a8e146103ed57806329da5abd1461040057806339792cdc146104135780634e1f42581461044657806354134876146104ce57600080fd5b80630cf5538d116102105780630cf5538d146102ec5780630fb276fc1461030d578063122b83f91461038657806312d6ef2d146103c55780631ed75f1f146103da57600080fd5b8062b332171461024c57806303855921146102755780630440ec53146102985780630a35511b146102ab5780630cd0bcf2146102cc575b600080fd5b61025f61025a3660046145c5565b6108ef565b60405161026c91906145f8565b60405180910390f35b610288610283366004614645565b610a38565b604051901515815260200161026c565b6102886102a6366004614645565b610a93565b6102be6102b93660046146a4565b610b1a565b60405161026c929190614781565b6102df6102da366004614645565b610c36565b60405161026c91906147e2565b6102ff6102fa366004614645565b610cd0565b60405190815260200161026c565b61037561031b36600461480c565b60076020908152600092835260408084209091529082529020805460018201546002909201546001600160a01b03808316936001600160601b03600160a01b909404841693811692600160601b9091049091169060ff1685565b60405161026c959493929190614865565b6103ad7f000000000000000000000000000000000000000000000000000000000000000081565b6040516001600160a01b03909116815260200161026c565b6103d86103d33660046148c3565b610cee565b005b6103d86103e8366004614645565b610d59565b6103d86103fb3660046148de565b610ea0565b6103d861040e3660046148c3565b610f52565b610288610421366004614645565b6001600160601b0316600090815260016020526040902054600160701b900460ff1690565b610459610454366004614645565b610fe9565b60405161026c919060006101008201905065ffffffffffff8084511683528060208501511660208401525060ff604084015116604083015260ff606084015116606083015260808301511515608083015260a083015160a083015260c083015160c083015260e083015160e083015292915050565b6000546104e09065ffffffffffff1681565b60405165ffffffffffff909116815260200161026c565b61054061050536600461480c565b600860209081526000928352604080842082529183529181902080548251808401909352600182015483526002909101549282019290925282565b60405161026c92919061493e565b6105bc61055c366004614645565b6001602081905260009182526040909120805491810154600282015460039092015465ffffffffffff80851694600160301b81049091169360ff600160601b8304811694600160681b8404821694600160701b9094049091169290919088565b6040805165ffffffffffff998a16815298909716602089015260ff958616968801969096529390921660608601521515608085015260a084015260c083015260e08201526101000161026c565b610288610617366004614645565b611086565b6103d861062a36600461495c565b61110e565b61064261063d3660046149ca565b611273565b6040516001600160401b03909116815260200161026c565b6102ff610668366004614a0b565b6112d1565b61064261067b366004614a58565b61141f565b6102ff61068e3660046149ca565b611549565b6106a66106a136600461480c565b611575565b60405161026c9190614b04565b600160405161026c9190614b12565b6106d56106d0366004614645565b6115a3565b60408051921515835281516001600160401b03166020808501919091528201516001600160601b0316838201520151606082015260800161026c565b6102ff61071f36600461480c565b61162a565b6002546104e09065ffffffffffff1681565b61074961074436600461480c565b611756565b60405161026c929190614b2c565b6102ff610765366004614645565b6001600160601b03166000908152600160208190526040909120015490565b6103d8610792366004614645565b611872565b6103d86107a5366004614c57565b6119b8565b600060405161026c9190614d7d565b6107cc6107c7366004614645565b611c97565b60405161026c9190614de2565b6107ec6107e73660046149ca565b611e1f565b60405161026c959493929190614eb1565b604051653031454d504160d01b815260200161026c565b6102ff610822366004614645565b611fac565b6102ff610835366004614645565b60096020526000908152604090205481565b6108d1610855366004614645565b6004602081815260009283526040928390208054600182015460028301546003840154958401548751808901909852600585015488526006850154958801959095526007909301546001600160401b0380841697600160401b850482169760ff600160801b87041697600160881b90960490921695939491928a565b60405161026c9a99989796959493929190614ede565b6103d8611fd6565b60606108fa84612023565b6001600160601b0384166000908152600460205260409020600801805480851061093757604051633350f82560e11b815260040160405180910390fd5b60006109438683614f6d565b905060008186116109545785610956565b815b90506000816001600160401b0381111561097257610972614ba8565b60405190808252806020026020018201604052801561099b578160200160208202803683370190505b50905060005b82811015610a2957856109b4828b614f80565b815481106109c4576109c4614f93565b90600052602060002090600491828204019190066008029054906101000a90046001600160401b03168282815181106109ff576109ff614f93565b6001600160401b039092166020928302919091019091015280610a2181614fa9565b9150506109a1565b509450505050505b9392505050565b6001600160601b03811660009081526001602052604081205465ffffffffffff600160301b909104811642909116101580610a8d57506001600160601b03821660009081526001602081905260409091200154155b92915050565b6001600160601b03811660009081526001602081905260408220015415801590610ae857506001600160601b03821660009081526001602052604090205465ffffffffffff600160301b909104811642909116105b8015610a8d5750506001600160601b031660009081526001602052604090205465ffffffffffff908116429091161090565b606080336001600160a01b037f00000000000000000000000000000000000000000000000000000000000000001614610b6d576040516366e069e160e01b81523360048201526024015b60405180910390fd5b7f00000000000000000000000000000000000000000000000000000000000000006001600160a01b0316635c774ed76040518163ffffffff1660e01b8152600401602060405180830381865afa158015610bcb573d6000803e3d6000fd5b505050506040513d601f19601f82011682018060405250810190610bef9190614fc2565b15610c0d5760405163115250c560e21b815260040160405180910390fd5b610c1685612023565b610c1f8561206e565b610c2a8585856120cd565b91509150935093915050565b60036020526000908152604090208054610c4f90614fdf565b80601f0160208091040260200160405190810160405280929190818152602001828054610c7b90614fdf565b8015610cc85780601f10610c9d57610100808354040283529160200191610cc8565b820191906000526020600020905b815481529060010190602001808311610cab57829003601f168201915b505050505081565b6001600160601b038116600090815260096020526040812054610a8d565b336001600160a01b037f00000000000000000000000000000000000000000000000000000000000000001614610d39576040516366e069e160e01b8152336004820152602401610b64565b6000805465ffffffffffff191665ffffffffffff92909216919091179055565b336001600160a01b037f00000000000000000000000000000000000000000000000000000000000000001614610da4576040516366e069e160e01b8152336004820152602401610b64565b7f00000000000000000000000000000000000000000000000000000000000000006001600160a01b0316635c774ed76040518163ffffffff1660e01b8152600401602060405180830381865afa158015610e02573d6000803e3d6000fd5b505050506040513d601f19601f82011682018060405250810190610e269190614fc2565b15610e445760405163115250c560e21b815260040160405180910390fd5b610e4d81612023565b610e56816121fb565b610e5f8161227a565b610e6881612306565b6001600160601b0381166000908152600460205260409020805460ff60801b1916600160811b17815560001960019091015550565b50565b610ea984612023565b610eb284612365565b610ebb846123b6565b60006001600160601b038516600090815260046020526040902054600160801b900460ff166002811115610ef157610ef161483f565b141580610f1757506001600160601b038416600090815260046020526040902060070154155b15610f4057604051636985f4c960e11b81526001600160601b0385166004820152602401610b64565b610f4c84848484612477565b50505050565b336001600160a01b037f00000000000000000000000000000000000000000000000000000000000000001614610f9d576040516366e069e160e01b8152336004820152602401610b64565b62093a808165ffffffffffff161115610fc957604051633350f82560e11b815260040160405180910390fd5b6002805465ffffffffffff191665ffffffffffff92909216919091179055565b610ff1614448565b506001600160601b0316600090815260016020818152604092839020835161010081018552815465ffffffffffff8082168352600160301b8204169382019390935260ff600160601b8404811695820195909552600160681b830485166060820152600160701b909204909316151560808201529082015460a0820152600282015460c082015260039091015460e082015290565b6001600160601b038116600090815260016020819052604082200154158015906110db57506001600160601b03821660009081526001602052604090205465ffffffffffff600160301b909104811642909116105b8015610a8d5750506001600160601b031660009081526001602052604090205465ffffffffffff90811642909116101590565b61111785612023565b611120856123b6565b61112985612365565b61113285612306565b6001600160601b0385166000908152600460205260409020600701541561117757604051636985f4c960e11b81526001600160601b0386166004820152602401610b64565b60006111996040518060400160405280600181526020016002815250866126a8565b6001600160601b0387166000908152600460209081526040918290208251808401909352600581015480845260069091015491830191909152825192935090911415806111ee57508060200151826020015114155b1561120c57604051632fd26a8f60e21b815260040160405180910390fd5b6001600160601b038716600090815260046020526040902060070186905561123687868686612477565b6040516001600160601b038816907f37f1e828c1e38ea9da24a67a77902d579e898756e628225ad14eb47b0b9b63ce90600090a250505050505050565b6001600160601b03821660009081526004602052604081206008018054839081106112a0576112a0614f93565b90600052602060002090600491828204019190066008029054906101000a90046001600160401b0316905092915050565b6000336001600160a01b037f0000000000000000000000000000000000000000000000000000000000000000161461131e576040516366e069e160e01b8152336004820152602401610b64565b7f00000000000000000000000000000000000000000000000000000000000000006001600160a01b0316635c774ed76040518163ffffffff1660e01b8152600401602060405180830381865afa15801561137c573d6000803e3d6000fd5b505050506040513d601f19601f820116820180604052508101906113a09190614fc2565b156113be5760405163115250c560e21b815260040160405180910390fd5b6113c785612023565b6113d085612365565b6113da858561278c565b6113e5858584612858565b6113ef85856128c0565b6113f88561227a565b6114018561293d565b61140a85612306565b61141685858585612982565b95945050505050565b6000336001600160a01b037f0000000000000000000000000000000000000000000000000000000000000000161461146c576040516366e069e160e01b8152336004820152602401610b64565b7f00000000000000000000000000000000000000000000000000000000000000006001600160a01b0316635c774ed76040518163ffffffff1660e01b8152600401602060405180830381865afa1580156114ca573d6000803e3d6000fd5b505050506040513d601f19601f820116820180604052508101906114ee9190614fc2565b1561150c5760405163115250c560e21b815260040160405180910390fd5b61151587612023565b61151e87612365565b61152787612b5b565b61153087612306565b61153e878787878787612bf8565b979650505050505050565b6001600160601b0382166000908152600960209081526040808320848452600101909152812054610a31565b61157d61448c565b61158683612023565b61158f8361206e565b611599838361278c565b610a318383612dfe565b604080516060810182526000808252602082018190529181018290526115c883612023565b6115d18361206e565b50506001600160601b03908116600090815260056020908152604091829020825160608101845281546001600160401b038116808352600160401b90910490951692810192909252600101549181019190915290151591565b6001600160601b03821660009081526004602052604081206007015480820361167157604051636985f4c960e11b81526001600160601b0385166004820152602401610b64565b6001600160601b03841660008181526007602090815260408083206001600160401b0388168085529083528184209484526008835281842090845282528083208054825180840184526001830154815260029092015482850152855483516001600160a01b031960a08d811b8216978301979097526001600160601b0319606084901b16602c830152600160a01b90920490951b1692840192909252611734928690604c016040516020818303038152906040528051906020012060001c61306f565b608081901c016fffffffffffffffffffffffffffffffff169695505050505050565b61175e6144cd565b6117666144fc565b61176f84612023565b611779848461278c565b6001600160601b0380851660008181526007602090815260408083206001600160401b03891680855290835281842094845260088352818420908452825291829020825160a08101845284546001600160a01b038082168352600160a01b909104871693820193909352600185015495861693810193909352600160601b9094041660608201526002808301549293928491608084019160ff16908111156118235761182361483f565b60028111156118345761183461483f565b9052506040805180820182528354815281518083019092526001840154825260029093015460208281019190915283015293509150505b9250929050565b336001600160a01b037f000000000000000000000000000000000000000000000000000000000000000016146118bd576040516366e069e160e01b8152336004820152602401610b64565b7f00000000000000000000000000000000000000000000000000000000000000006001600160a01b0316635c774ed76040518163ffffffff1660e01b8152600401602060405180830381865afa15801561191b573d6000803e3d6000fd5b505050506040513d601f19601f8201168201806040525081019061193f9190614fc2565b1561195d5760405163115250c560e21b815260040160405180910390fd5b61196681612023565b61196f81612b5b565b611978816130b4565b6001600160601b03166000908152600160208190526040822080546bffffffffffff0000000000001916600160301b4265ffffffffffff16021781550155565b336001600160a01b037f00000000000000000000000000000000000000000000000000000000000000001614611a03576040516366e069e160e01b8152336004820152602401610b64565b7f00000000000000000000000000000000000000000000000000000000000000006001600160a01b0316635c774ed76040518163ffffffff1660e01b8152600401602060405180830381865afa158015611a61573d6000803e3d6000fd5b505050506040513d601f19601f82011682018060405250810190611a859190614fc2565b15611aa35760405163115250c560e21b815260040160405180910390fd5b825165ffffffffffff1615801590611ac65750825165ffffffffffff4281169116105b15611afa578251604051639421aa8960e01b815265ffffffffffff9182166004820152429091166024820152604401610b64565b600054602084015165ffffffffffff91821691161015611b475760208301516000546040516302c1012760e21b815265ffffffffffff928316600482015291166024820152604401610b64565b611b4f614448565b835165ffffffffffff1615611b65578351611b67565b425b65ffffffffffff168082526020850151611b8091615019565b65ffffffffffff16602082015260ff8084166040808401919091529083166060808401919091529085015115156080808401919091529085015160a0830152840151611bcf90869083906130e7565b6001600160601b039490941660009081526001602081815260409283902087518154928901519489015160608a015160808b015165ffffffffffff9384166001600160601b031990961695909517600160301b93909716929092029590951761ffff60601b1916600160601b60ff9687160260ff60681b191617600160681b95909116949094029390931760ff60701b1916600160701b9115159190910217825560a08601519082015560c0850151600282015560e090940151600390940193909355505050565b611c9f61452b565b611ca882612023565b6001600160601b03821660009081526004602090815260409182902082516101608101845281546001600160401b038082168352600160401b8204169382019390935292909190830190600160801b900460ff166002811115611d0d57611d0d61483f565b6002811115611d1e57611d1e61483f565b81528154600160881b90046001600160401b031660208083019190915260018301546040808401919091526002840154606084015260038401546080840152600484015460a0840152805180820182526005850154815260068501548184015260c0840152600784015460e0840152600884018054825181850281018501909352808352610100909401939192909190830182828015611e0f57602002820191906000526020600020906000905b82829054906101000a90046001600160401b03166001600160401b031681526020019060080190602082600701049283019260010382029150808411611dcc5790505b5050505050815250509050919050565b60008080806060336001600160a01b037f00000000000000000000000000000000000000000000000000000000000000001614611e71576040516366e069e160e01b8152336004820152602401610b64565b7f00000000000000000000000000000000000000000000000000000000000000006001600160a01b0316635c774ed76040518163ffffffff1660e01b8152600401602060405180830381865afa158015611ecf573d6000803e3d6000fd5b505050506040513d601f19601f82011682018060405250810190611ef39190614fc2565b15611f115760405163115250c560e21b815260040160405180910390fd5b611f1a87612023565b611f2387612365565b611f2c876123b6565b611f3587612306565b6001600160601b0387166000908152600160205260409020611f578888613273565b6001600160601b038c16600090815260016020908152604080832060038082018990556002909101879055909152902093995091975094509250611f9b838261508d565b506001015492509295509295909350565b6000611fb782612023565b506001600160601b031660009081526004602052604090206008015490565b336001600160a01b037f00000000000000000000000000000000000000000000000000000000000000001614612021576040516366e069e160e01b8152336004820152602401610b64565b565b6001600160601b03811660009081526001602052604081205465ffffffffffff169003610e9d57604051638c54233f60e01b81526001600160601b0382166004820152602401610b64565b60026001600160601b038216600090815260046020526040902054600160801b900460ff1660028111156120a4576120a461483f565b14610e9d57604051636985f4c960e11b81526001600160601b0382166004820152602401610b64565b60608082806001600160401b038111156120e9576120e9614ba8565b60405190808252806020026020018201604052801561212257816020015b61210f61448c565b8152602001906001900390816121075790505b50925060005b818110156121f1576121608787878481811061214657612146614f93565b905060200201602081019061215b919061514c565b61278c565b6121908787878481811061217657612176614f93565b905060200201602081019061218b919061514c565b6128c0565b6121c0878787848181106121a6576121a6614f93565b90506020020160208101906121bb919061514c565b6135ed565b508482815181106121d3576121d3614f93565b602002602001018190525080806121e990614fa9565b915050612128565b5050935093915050565b6001600160601b03811660009081526001602052604090205465ffffffffffff600160301b90910481164290911610801561225157506001600160601b0381166000908152600160208190526040909120015415155b15610e9d5760405163f7babce560e01b81526001600160601b0382166004820152602401610b64565b6001600160601b03811660009081526001602052604090205465ffffffffffff600160301b909104811690421681118015906122d957506002546122c69065ffffffffffff1682615019565b65ffffffffffff164265ffffffffffff16105b1561230257604051630340ca2960e11b81526001600160601b0383166004820152602401610b64565b5050565b60026001600160601b038216600090815260046020526040902054600160801b900460ff16600281111561233c5761233c61483f565b03610e9d57604051636985f4c960e11b81526001600160601b0382166004820152602401610b64565b6001600160601b03811660009081526001602052604090205465ffffffffffff908116429091161015610e9d576040516306f6ec2760e31b81526001600160601b0382166004820152602401610b64565b60006001600160601b038216600090815260046020526040902054600160801b900460ff1660028111156123ec576123ec61483f565b14801561241b57506001600160601b0381166000908152600160205260409020544265ffffffffffff90911611155b801561244e57506001600160601b03811660009081526001602052604090205442600160301b90910465ffffffffffff16115b15610e9d57604051636985f4c960e11b81526001600160601b0382166004820152602401610b64565b6001600160601b0384166000908152600460205260409020546001600160401b03600160401b909104811690841682146124c457604051633350f82560e11b815260040160405180910390fd5b6001600160601b038516600090815260046020526040902060080180546124f5906001600160401b03841690614f6d565b856001600160401b03161115612515578054612512908390615167565b94505b6001600160601b03861660009081526001602052604081205461254390600160681b900460ff16600a61526b565b905060005b866001600160401b0316816001600160401b031610156125ed576125db8884612571848861527a565b6001600160401b03168154811061258a5761258a614f93565b90600052602060002090600491828204019190066008029054906101000a90046001600160401b03168888856001600160401b03168181106125ce576125ce614f93565b9050602002013585613648565b806125e58161529a565b915050612548565b506001600160601b03871660009081526004602052604090208054879190600890612629908490600160401b90046001600160401b031661527a565b82546101009290920a6001600160401b0381810219909316918316021790915583546001600160601b038a16600090815260046020526040902054600160401b900490911603905061269f576001600160601b0387166000908152600460205260409020805460ff60801b1916600160801b1790555b50505050505050565b60408051808201909152600080825260208201526126c5836137f3565b6127115760405162461bcd60e51b815260206004820152601860248201527f496e76616c69642067656e657261746f7220706f696e742e00000000000000006044820152606401610b64565b7f30644e72e131a029b85045b68181585d2833e84879b9709143e1f593f00000018210158061273e575081155b156127825760405162461bcd60e51b815260206004820152601460248201527324b73b30b634b210383934bb30ba329035b2bc9760611b6044820152606401610b64565b610a31838361382c565b6001600160601b0382166000908152600460205260409020546001600160401b03908116908216106127eb576040516322a16ebf60e01b81526001600160601b03831660048201526001600160401b0382166024820152604401610b64565b6001600160601b03821660009081526007602090815260408083206001600160401b03851684529091529020546001600160a01b0316612302576040516322a16ebf60e01b81526001600160601b03831660048201526001600160401b0382166024820152604401610b64565b6001600160601b03831660009081526007602090815260408083206001600160401b03861684529091529020546001600160a01b038281169116146128bb576040516319b1d90760e31b81526001600160a01b0382166004820152602401610b64565b505050565b6001600160601b03821660009081526007602090815260408083206001600160401b0385168452909152902060029081015460ff16818111156129055761290561483f565b0361230257604051631359755560e11b81526001600160601b03831660048201526001600160401b0382166024820152604401610b64565b6001600160601b03811660009081526004602052604090206007015415610e9d57604051636985f4c960e11b81526001600160601b0382166004820152602401610b64565b6001600160601b03841660008181526007602090815260408083206001600160401b038816845282528083206002908101805460ff191690911790559282526004905290812060080180548085106129ed57604051633350f82560e11b815260040160405180910390fd5b6000828681548110612a0157612a01614f93565b6000918252602090912060048204015460039091166008026101000a90046001600160401b03908116915087168114612a4d57604051633350f82560e11b815260040160405180910390fd5b82612a59600184614f6d565b81548110612a6957612a69614f93565b90600052602060002090600491828204019190066008029054906101000a90046001600160401b0316838781548110612aa457612aa4614f93565b90600052602060002090600491828204019190066008026101000a8154816001600160401b0302191690836001600160401b0316021790555082805480612aed57612aed6152c0565b6000828152602080822060046000199094019384040180546001600160401b03600860038716026101000a810219909116909155929093556001600160601b03808c168252600784526040808320938c168352929093522054600160a01b9004169350505050949350505050565b6001600160601b03811660009081526001602052604090205465ffffffffffff600160301b90910481164290911610612bb2576040516306f6ec2760e31b81526001600160601b0382166004820152602401610b64565b6001600160601b0381166000908152600160208190526040822001549003610e9d576040516306f6ec2760e31b81526001600160601b0382166004820152602401610b64565b60008080612c08848601866152d6565b90925090506001600160601b03861115612c3557604051633350f82560e11b815260040160405180910390fd5b6001600160601b03891660009081526004602081905260409091200154861015612c7257604051636aa9da6d60e01b815260040160405180910390fd5b612c7b81613932565b612c9857604051632fd26a8f60e21b815260040160405180910390fd5b6001600160601b038916600090815260046020526040812080546001600160401b031691612cc58361529a565b82546101009290920a6001600160401b038181021990931691831602179091556001600160601b038b8116600090815260076020908152604080832094861683529390529182206001600160a01b038c8116600160a01b8c85160217825560018281018054909416600160601b928e1692909202919091179092556002810180549497509093909160ff19909116908302179055505060408051808201825292835260208084019283526001600160601b039a909a1660008181526008808d528382206001600160401b03888116808552918f5285842097518855955180516001808a0191909155908f01516002909801979097559282526004808e5293822081018054968701815582529b902091840490910180546003909416909a026101000a918202199092169102179096555093949350505050565b612e0661448c565b6001600160601b0380841660009081526007602090815260408083206001600160401b03871684528252808320815160a08101835281546001600160a01b038082168352600160a01b909104871694820194909452600182015495861692810192909252600160601b909404909116606082015260028084015492939192608084019160ff90911690811115612e9e57612e9e61483f565b6002811115612eaf57612eaf61483f565b90525080516001600160a01b0390811684526060820151166020808501919091526001600160601b03861660009081526001909152604081205491925090612f0290600160681b900460ff16600a61526b565b9050600082604001516001600160601b0316600014612f4557612f4083602001516001600160601b03168385604001516001600160601b03166139ae565b612f48565b60005b6001600160601b038716600090815260046020908152604080832060010154600590925290912054919250906001600160401b03808816911603612fd3576020808501516001600160601b0390811660408089019190915289821660008181526005808652928120600181015460608c015291905292529054600160401b9004166080860152613065565b808211806130175750808214801561301757506001600160601b0387166000908152600460205260409020546001600160401b03600160881b909104811690871611155b156130465760208401516001600160601b03166040860181905261303c9084836139dd565b6060860152613065565b6020840180516001600160601b03908116604088015290511660808601525b5050505092915050565b60008061307c8585613a04565b604080516020808201939093528082019590955280518086038201815260609095019052835193019290922094909418949350505050565b6130bd816123b6565b6001600160601b03166000908152600460205260409020805460ff60801b1916600160811b179055565b6000818060200190518101906130fd9190615355565b805190915060000361312257604051633350f82560e11b815260040160405180910390fd5b620186a065ffffffffffff16816020015162ffffff16111561315757604051633350f82560e11b815260040160405180910390fd5b60408101516001600160601b03108061317257506040810151155b1561319057604051633350f82560e11b815260040160405180910390fd5b61319d8160600151613932565b6131ba57604051633350f82560e11b815260040160405180910390fd5b6001600160601b03841660009081526004602090815260409091208251600282015560a08501519183015190916131f99162ffffff16620186a0613ad7565b600382015560408281015160048301556060830151805160058401556020908101516006840155825467ffffffffffffffff1916600190811784556001600160601b0388166000908152600983528381206001600160601b03600160c01b038252909101909152206002600160c01b031990555050505050565b60008080606060016001600160601b038716600090815260046020526040902054600160801b900460ff1660028111156132af576132af61483f565b146132d857604051636985f4c960e11b81526001600160601b0387166004820152602401610b64565b60006132e48787613b05565b6001600160601b0388166000908152600160205260408120549192509061331690600160681b900460ff16600a61526b565b60c08301519091501515600003613385575060808101516001600160601b03881660009081526006602052604090819020918255606083015160018301558201516002909101805467ffffffffffffffff19166001600160401b0390921691909117905560c0015191506135e4565b6001600160601b03881660009081526001602081815260408084209092015460049091529120805460ff60801b1916600160811b1781556003015460a084015110806133ec57506001600160601b0389166000908152600460205260409020600201548351105b1561341f5750506001600160601b038716600090815260046020526040902060001960019091015560c0015191506135e4565b82516001600160601b038a166000908152600460209081526040909120600181019290925584015181546001600160401b03909116600160881b0267ffffffffffffffff60881b1990911617905560a08301518110156135b7576001600160601b03808a166000908152600760209081526040808320878301516001600160401b0316845290915281208054865191936134c492600160a01b909204169086906139dd565b90506000838660a001516134d89190614f6d565b90506000604051806060016040528088602001516001600160401b031681526020016135258660000160149054906101000a90046001600160601b03166001600160601b031685876139dd565b6001600160601b0316815260200161353d8486614f6d565b90526001600160601b03808f166000908152600560209081526040918290208451815492860151909416600160401b81026001600160a01b03199093166001600160401b03909516949094179190911781559083015160019091015560808901805192935090916135af908390614f6d565b905250505050505b82608001519650808360a00151116135d3578260a001516135d5565b805b60c09093015192955091935050505b92959194509250565b6135f561448c565b6001600160601b03831660009081526007602090815260408083206001600160401b038616845290915290206002808201805460ff1916909117905560609061363e8585612dfe565b9250509250929050565b6001600160601b03841660009081526007602090815260408083206001600160401b038716845290915281209061367f868661162a565b905060006001600160601b0382116136945750805b60028301805460ff191660011790556001600160601b0381161561378f5782546001600160601b03888116600090815260016020526040812054909261370292600160a01b90910416906136f390600160681b900460ff16600a61526b565b846001600160601b03166139ae565b90506001600160601b038110801561373557506001600160601b0388166000908152600460205260409020600201548110155b1561378d5783546001600160601b03898116600090815260096020526040902061376f92909189918b91600160a01b90910416868a613f9a565b6001840180546001600160601b0319166001600160601b0384161790555b505b8254604080516001600160601b03600160a01b9093048316815283831660208201526001600160401b038916928a16917fbfea11d19705e7c3584fa7d3fb7ef96ca3c3ed4a1995383745345aaf5d4df58b910160405180910390a350505050505050565b80516000906138169061380f9061380a818061416c565b61416c565b6003614187565b6020830151613825908061416c565b1492915050565b6040805180820190915260008082526020820152825160208085015160405160009384936007936117709361387593928a91019283526020830191909152604082015260600190565b60408051601f198184030181529082905261388f916153ce565b6000604051808303818686fa925050503d80600081146138cb576040519150601f19603f3d011682016040523d82523d6000602084013e6138d0565b606091505b50915091508115806138e157508051155b1561391e5760405162461bcd60e51b815260206004820152600d60248201526c32b1a6bab6103330b4b632b21760991b6044820152606401610b64565b8080602001905181019061141691906153ea565b600061393d826137f3565b801561395b575081516001148015613959575081602001516002145b155b80156139755750815115801561397357506020820151155b155b801561398f57508151600080516020615442833981519152115b8015610a8d575050602001516000805160206154428339815191521190565b60008260001904841183021582026139ce5763ad251c276000526004601cfd5b50910281810615159190040190565b60008260001904841183021582026139fd5763ad251c276000526004601cfd5b5091020490565b6000613a0f836137f3565b613a515760405162461bcd60e51b815260206004820152601360248201527224b73b30b634b210383ab13634b19035b2bc9760691b6044820152606401610b64565b7f30644e72e131a029b85045b68181585d2833e84879b9709143e1f593f000000182101580613a7e575081155b15613ac25760405162461bcd60e51b815260206004820152601460248201527324b73b30b634b210383934bb30ba329035b2bc9760611b6044820152606401610b64565b6000613ace848461382c565b51949350505050565b6000613ae48484846141a2565b90508183850915610a315760010180610a315763ae47f7026000526004601cfd5b613b596040518060e001604052806000815260200160006001600160401b0316815260200160006001600160401b031681526020016000815260200160008152602001600081526020016000151581525090565b6001600160601b03831660009081526001602081905260408220908101549054909190613b9190600160681b900460ff16600a61526b565b6001600160601b038616600090815260046020908152604080832081516101608101835281546001600160401b038082168352600160401b820416948201949094529495509293929190830190600160801b900460ff166002811115613bf957613bf961483f565b6002811115613c0a57613c0a61483f565b81528154600160881b90046001600160401b031660208083019190915260018301546040808401919091526002840154606084015260038401546080840152600484015460a0840152805180820182526005850154815260068501548184015260c0840152600784015460e0840152600884018054825181850281018501909352808352610100909401939192909190830182828015613cfb57602002820191906000526020600020906000905b82829054906101000a90046001600160401b03166001600160401b031681526020019060080190602082600701049283019260010382029150808411613cb85790505b505050919092525050506001600160601b03871660009081526006602052604090206001810154905460808701529091508015613d5b576001600160601b038716600090815260066020526040902054613d569084836141a2565b613d5e565b60005b60a08601526001600160601b03871660009081526009602090815260408083206006909252822060020154815491926001600160401b039091169190819003613db5575050600160c087015250610a8d9350505050565b888111801590613dc55781613dc7565b895b915060005b82811015613f8b576000806000613de3888c614249565b925092509250828d604001906001600160401b031690816001600160401b031681525050808d6060018181525050613e208d608001518c836141a2565b60a08e018190528c11613e8857613e3c8d608001518c8e613ad7565b808e528903613e59576001600160401b03871660208e0152613e61565b600060208e01525b613e748d608001518c8f600001516141a2565b60a08e01525050600160c08c015250613f8b565b809850829650818d608001818151613ea09190614f80565b90525060808d0151613eb3908c836141a2565b60a08e018190528c11613edd578c52506001600160401b031660208b0152600160c08b0152613f8b565b613ee8600187614f6d565b84148015613ef35750845b15613f755760a08a01511580613f1a57508b613f188e608001518d8d60a001516141a2565b115b15613f3557613f2e8d608001518c8e613ad7565b8d52613f3d565b60a08a01518d525b8c518103613f55576001600160401b03831660208e01525b613f688d608001518c8f600001516141a2565b60a08e0152600160c08e01525b5050508080613f8390614fa9565b915050613dcc565b50505050505050505092915050565b6000826001600160601b031611613fea5760405162461bcd60e51b81526020600482015260146024820152731a5b9d985b1a59081b5a5b905b5bdd5b9d13dd5d60621b6044820152606401610b64565b6000613ff785858561429d565b60008181526001890160205260409020549091501561404d5760405162461bcd60e51b815260206004820152601260248201527162696420616c72656164792065786973747360701b6044820152606401610b64565b60008681526001880160205260409020546140a15760405162461bcd60e51b8152602060048201526014602482015273707265764b6579206e6f7420696e20717565756560601b6044820152606401610b64565b6140ac8682846142f7565b6140f85760405162461bcd60e51b815260206004820152601760248201527f696e76616c696420696e7365727420706f736974696f6e0000000000000000006044820152606401610b64565b60008681526001880160205260409020545b6141158183856142f7565b1561413357600081815260018901602052604090205490965061410a565b60008781526001890160205260408082208490558382528120829055885490899061415d83614fa9565b91905055505050505050505050565b60006000805160206154428339815191528284099392505050565b60006000805160206154428339815191528284089392505050565b600083830260001984860981811082019003806141d757836141cc5763ae47f7026000526004601cfd5b508290049050610a31565b8084116141ec5763ae47f7026000526004601cfd5b83858709600085810386169586900495848311909303908390038390046001010292030417600383026002908118808502820302808502820302808502820302808502820302808502820302808502909103020290509392505050565b60008060008061425886614386565b9195506001600160601b039081169450909150811660000361427e575060009050614296565b6142928386836001600160601b03166139ae565b9150505b9250925092565b604080516001600160c01b031960c086901b1660208201526001600160a01b031960a085811b8216602884015284901b166034820152600091016040516020818303038152906040526142ef90615406565b949350505050565b600060c084811c90606086811c9187919087901c9087901c87866143296001600160601b03808816908b9088166139ae565b9050600061434a846001600160601b03168b856001600160601b03166139ae565b905080820361437757846001600160401b0316886001600160401b03161098505050505050505050610a31565b109650610a3195505050505050565b6001600160601b03600160c01b036000908152600182016020526040812054819081906001600160c01b0381016143f05760405162461bcd60e51b815260206004820152600e60248201526d717565756520697320656d70747960901b6044820152606401610b64565b600081815260018601602052604080822080546001600160601b03600160c01b03845291832091909155828252819055855490869061442e8361542a565b909155505060c081901c95606082901c9550909350915050565b6040805161010081018252600080825260208201819052918101829052606081018290526080810182905260a0810182905260c0810182905260e081019190915290565b6040518060a0016040528060006001600160a01b0316815260200160006001600160a01b031681526020016000815260200160008152602001600081525090565b6040805160a081018252600080825260208201819052918101829052606081018290529060808201905b905290565b6040518060400160405280600081526020016144f7604051806040016040528060008152602001600081525090565b60408051610160810182526000808252602082018190529091820190815260200160006001600160401b0316815260200160008152602001600081526020016000815260200160008152602001614595604051806040016040528060008152602001600081525090565b815260200160008152602001606081525090565b80356001600160601b03811681146145c057600080fd5b919050565b6000806000606084860312156145da57600080fd5b6145e3846145a9565b95602085013595506040909401359392505050565b6020808252825182820181905260009190848201906040850190845b818110156146395783516001600160401b031683529284019291840191600101614614565b50909695505050505050565b60006020828403121561465757600080fd5b610a31826145a9565b60008083601f84011261467257600080fd5b5081356001600160401b0381111561468957600080fd5b6020830191508360208260051b850101111561186b57600080fd5b6000806000604084860312156146b957600080fd5b6146c2846145a9565b925060208401356001600160401b038111156146dd57600080fd5b6146e986828701614660565b9497909650939450505050565b80516001600160a01b039081168352602080830151909116908301526040808201519083015260608082015190830152608090810151910152565b60005b8381101561474c578181015183820152602001614734565b50506000910152565b6000815180845261476d816020860160208601614731565b601f01601f19169290920160200192915050565b604080825283519082018190526000906020906060840190828701845b828110156147c4576147b18483516146f6565b60a093909301929084019060010161479e565b505050838103828501526147d88186614755565b9695505050505050565b602081526000610a316020830184614755565b80356001600160401b03811681146145c057600080fd5b6000806040838503121561481f57600080fd5b614828836145a9565b9150614836602084016147f5565b90509250929050565b634e487b7160e01b600052602160045260246000fd5b60038110610e9d57610e9d61483f565b6001600160a01b0386811682526001600160601b038681166020840152851660408301528316606082015260a0810161489d83614855565b8260808301529695505050505050565b803565ffffffffffff811681146145c057600080fd5b6000602082840312156148d557600080fd5b610a31826148ad565b600080600080606085870312156148f457600080fd5b6148fd856145a9565b935061490b602086016147f5565b925060408501356001600160401b0381111561492657600080fd5b61493287828801614660565b95989497509550505050565b82815260608101610a31602083018480518252602090810151910152565b60008060008060006080868803121561497457600080fd5b61497d866145a9565b945060208601359350614992604087016147f5565b925060608601356001600160401b038111156149ad57600080fd5b6149b988828901614660565b969995985093965092949392505050565b600080604083850312156149dd57600080fd5b6149e6836145a9565b946020939093013593505050565b80356001600160a01b03811681146145c057600080fd5b60008060008060808587031215614a2157600080fd5b614a2a856145a9565b9350614a38602086016147f5565b925060408501359150614a4d606086016149f4565b905092959194509250565b60008060008060008060a08789031215614a7157600080fd5b614a7a876145a9565b9550614a88602088016149f4565b9450614a96604088016149f4565b93506060870135925060808701356001600160401b0380821115614ab957600080fd5b818901915089601f830112614acd57600080fd5b813581811115614adc57600080fd5b8a6020828501011115614aee57600080fd5b6020830194508093505050509295509295509295565b60a08101610a8d82846146f6565b6020810160028310614b2657614b2661483f565b91905290565b60006101008201905060018060a01b0380855116835260208501516001600160601b0380821660208601528060408801511660408601525050806060860151166060840152506080840151614b8081614855565b6080830152825160a0830152602092830151805160c08401529092015160e090910152919050565b634e487b7160e01b600052604160045260246000fd5b60405160a081016001600160401b0381118282101715614be057614be0614ba8565b60405290565b604080519081016001600160401b0381118282101715614be057614be0614ba8565b604051601f8201601f191681016001600160401b0381118282101715614c3057614c30614ba8565b604052919050565b8015158114610e9d57600080fd5b803560ff811681146145c057600080fd5b60008060008060808587031215614c6d57600080fd5b614c76856145a9565b93506020808601356001600160401b0380821115614c9357600080fd5b9087019060a0828a031215614ca757600080fd5b614caf614bbe565b614cb8836148ad565b8152614cc58484016148ad565b848201526040830135614cd781614c38565b604082015260608381013590820152608083013582811115614cf857600080fd5b80840193505089601f840112614d0d57600080fd5b823582811115614d1f57614d1f614ba8565b614d31601f8201601f19168601614c08565b92508083528a85828601011115614d4757600080fd5b80858501868501376000908301909401939093526080830152509250614d6f60408601614c46565b9150614a4d60608601614c46565b6020810160048310614b2657614b2661483f565b614d9a81614855565b9052565b600081518084526020808501945080840160005b83811015614dd75781516001600160401b031687529582019590820190600101614db2565b509495945050505050565b60208152614dfc6020820183516001600160401b03169052565b60006020830151614e1860408401826001600160401b03169052565b506040830151614e2b6060840182614d91565b5060608301516001600160401b038116608084015250608083015160a083015260a083015160c083015260c083015160e083015260e0830151610100818185015280850151915050610120614e8c8185018380518252602090810151910152565b84015161016084015250610140830151610180808401526142ef6101a0840182614d9e565b858152846020820152836040820152821515606082015260a06080820152600061153e60a0830184614755565b6001600160401b038b811682528a81166020830152610160820190614f028b614855565b8a6040840152808a166060840152508760808301528660a08301528560c08301528460e0830152614f4161010083018580518252602090810151910152565b826101408301529b9a5050505050505050505050565b634e487b7160e01b600052601160045260246000fd5b81810381811115610a8d57610a8d614f57565b80820180821115610a8d57610a8d614f57565b634e487b7160e01b600052603260045260246000fd5b600060018201614fbb57614fbb614f57565b5060010190565b600060208284031215614fd457600080fd5b8151610a3181614c38565b600181811c90821680614ff357607f821691505b60208210810361501357634e487b7160e01b600052602260045260246000fd5b50919050565b65ffffffffffff81811683821601908082111561503857615038614f57565b5092915050565b601f8211156128bb57600081815260208120601f850160051c810160208610156150665750805b601f850160051c820191505b8181101561508557828155600101615072565b505050505050565b81516001600160401b038111156150a6576150a6614ba8565b6150ba816150b48454614fdf565b8461503f565b602080601f8311600181146150ef57600084156150d75750858301515b600019600386901b1c1916600185901b178555615085565b600085815260208120601f198616915b8281101561511e578886015182559484019460019091019084016150ff565b508582101561513c5787850151600019600388901b60f8161c191681555b5050505050600190811b01905550565b60006020828403121561515e57600080fd5b610a31826147f5565b6001600160401b0382811682821603908082111561503857615038614f57565b600181815b808511156151c25781600019048211156151a8576151a8614f57565b808516156151b557918102915b93841c939080029061518c565b509250929050565b6000826151d957506001610a8d565b816151e657506000610a8d565b81600181146151fc576002811461520657615222565b6001915050610a8d565b60ff84111561521757615217614f57565b50506001821b610a8d565b5060208310610133831016604e8410600b8410161715615245575081810a610a8d565b61524f8383615187565b806000190482111561526357615263614f57565b029392505050565b6000610a3160ff8416836151ca565b6001600160401b0381811683821601908082111561503857615038614f57565b60006001600160401b038083168181036152b6576152b6614f57565b6001019392505050565b634e487b7160e01b600052603160045260246000fd5b60008082840360608112156152ea57600080fd5b833592506040601f198201121561530057600080fd5b50615309614be6565b6020840135815260408401356020820152809150509250929050565b60006040828403121561533757600080fd5b61533f614be6565b9050815181526020820151602082015292915050565b600060a0828403121561536757600080fd5b604051608081018181106001600160401b038211171561538957615389614ba8565b60405282518152602083015162ffffff811681146153a657600080fd5b6020820152604083810151908201526153c28460608501615325565b60608201529392505050565b600082516153e0818460208701614731565b9190910192915050565b6000604082840312156153fc57600080fd5b610a318383615325565b805160208083015191908110156150135760001960209190910360031b1b16919050565b60008161543957615439614f57565b50600019019056fe30644e72e131a029b85045b68181585d97816a916871ca8d3c208c16d87cfd47a264697066735822122092c3291370052f548115f14fc1d25f2fdfa36e39efd57e452280bdbc7c305f8464736f6c63430008130033",
    "linkReferences": {}
  },
  "methodIdentifiers": {
    "INIT()": "ea643914",
    "PARENT()": "122b83f9",
    "TYPE()": "bb24fe8a",
    "VEECODE()": "d61735ca",
    "abort(uint96)": "1ed75f1f",
    "auction(uint96,(uint48,uint48,bool,uint256,bytes),uint8,uint8)": "bae96bdd",
    "auctionData(uint96)": "e2cfa6ea",
    "auctionType()": "994595e1",
    "bid(uint96,address,address,uint256,bytes)": "87698a31",
    "bids(uint96,uint64)": "0fb276fc",
    "cancelAuction(uint96)": "b04046df",
    "capacityInQuote(uint96)": "39792cdc",
    "claimBids(uint96,uint64[])": "0a35511b",
    "decryptAndSortBids(uint96,uint64,bytes32[])": "25e34a8e",
    "decryptBid(uint96,uint64)": "a1a61ec5",
    "decryptedBids(uint96)": "de1d3112",
    "dedicatedSettlePeriod()": "a85cebb6",
    "encryptedBids(uint96,uint64)": "54c87c01",
    "getAuctionData(uint96)": "cadb3383",
    "getBid(uint96,uint64)": "a8bf44e4",
    "getBidClaim(uint96,uint64)": "8f21c318",
    "getBidIdAtIndex(uint96,uint256)": "7d7b6853",
    "getBidIds(uint96,uint256,uint256)": "00b33217",
    "getLot(uint96)": "4e1f4258",
    "getNextInQueue(uint96,bytes32)": "8bde6109",
    "getNumBids(uint96)": "d899a337",
    "getNumBidsInQueue(uint96)": "0cf5538d",
    "getPartialFill(uint96)": "a16f7ef7",
    "hasEnded(uint96)": "03855921",
    "isLive(uint96)": "732efc03",
    "isUpcoming(uint96)": "0440ec53",
    "lotAuctionOutput(uint96)": "0cd0bcf2",
    "lotData(uint96)": "5806afc3",
    "minAuctionDuration()": "54134876",
    "refundBid(uint96,uint64,uint256,address)": "7d9234bc",
    "remainingCapacity(uint96)": "ace54da5",
    "setDedicatedSettlePeriod(uint48)": "29da5abd",
    "setMinAuctionDuration(uint48)": "12d6ef2d",
    "settle(uint96,uint256)": "cd280bdb",
    "submitPrivateKey(uint96,uint256,uint64,bytes32[])": "79fd0c1f"
  },
  "id": 171
}