{
  "abi": [
    {
      "type": "constructor",
      "inputs": [
        {
          "name": "auctionHouse_",
          "type": "address",
          "internalType": "address"
        }
      ],
      "stateMutability": "nonpayable"
    },
    {
      "type": "function",
      "name": "INIT",
      "inputs": [],
      "outputs": [],
      "stateMutability": "nonpayable"
    },
    {
      "type": "function",
      "name": "PARENT",
      "inputs": [],
      "outputs": [
        {
          "name": "",
          "type": "address",
          "internalType": "address"
        }
      ],
      "stateMutability": "view"
    },
    {
      "type": "function",
      "name": "TYPE",
      "inputs": [],
      "outputs": [
        {
          "name": "",
          "type": "uint8",
          "internalType": "enum Module.Type"
        }
      ],
      "stateMutability": "pure"
    },
    {
      "type": "function",
      "name": "VEECODE",
      "inputs": [],
      "outputs": [
        {
          "name": "",
          "type": "bytes7",
          "internalType": "Veecode"
        }
      ],
      "stateMutability": "pure"
    },
    {
      "type": "function",
      "name": "auction",
      "inputs": [
        {
          "name": "lotId_",
          "type": "uint96",
          "internalType": "uint96"
        },
        {
          "name": "params_",
          "type": "tuple",
          "internalType": "struct IAuction.AuctionParams",
          "components": [
            {
              "name": "start",
              "type": "uint48",
              "internalType": "uint48"
            },
            {
              "name": "duration",
              "type": "uint48",
              "internalType": "uint48"
            },
            {
              "name": "capacityInQuote",
              "type": "bool",
              "internalType": "bool"
            },
            {
              "name": "capacity",
              "type": "uint256",
              "internalType": "uint256"
            },
            {
              "name": "implParams",
              "type": "bytes",
              "internalType": "bytes"
            }
          ]
        },
        {
          "name": "quoteTokenDecimals_",
          "type": "uint8",
          "internalType": "uint8"
        },
        {
          "name": "baseTokenDecimals_",
          "type": "uint8",
          "internalType": "uint8"
        }
      ],
      "outputs": [],
      "stateMutability": "nonpayable"
    },
    {
      "type": "function",
      "name": "auctionData",
      "inputs": [
        {
          "name": "lotId",
          "type": "uint96",
          "internalType": "uint96"
        }
      ],
      "outputs": [
        {
          "name": "nextBidId",
          "type": "uint64",
          "internalType": "uint64"
        },
        {
          "name": "nextDecryptIndex",
          "type": "uint64",
          "internalType": "uint64"
        },
        {
          "name": "status",
          "type": "uint8",
          "internalType": "enum EncryptedMarginalPrice.LotStatus"
        },
        {
          "name": "marginalBidId",
          "type": "uint64",
          "internalType": "uint64"
        },
        {
          "name": "proceedsClaimed",
          "type": "bool",
          "internalType": "bool"
        },
        {
          "name": "marginalPrice",
          "type": "uint256",
          "internalType": "uint256"
        },
        {
          "name": "minPrice",
          "type": "uint256",
          "internalType": "uint256"
        },
        {
          "name": "minFilled",
          "type": "uint256",
          "internalType": "uint256"
        },
        {
          "name": "minBidSize",
          "type": "uint256",
          "internalType": "uint256"
        },
        {
          "name": "publicKey",
          "type": "tuple",
          "internalType": "struct Point",
          "components": [
            {
              "name": "x",
              "type": "uint256",
              "internalType": "uint256"
            },
            {
              "name": "y",
              "type": "uint256",
              "internalType": "uint256"
            }
          ]
        },
        {
          "name": "privateKey",
          "type": "uint256",
          "internalType": "uint256"
        }
      ],
      "stateMutability": "view"
    },
    {
      "type": "function",
      "name": "auctionType",
      "inputs": [],
      "outputs": [
        {
          "name": "",
          "type": "uint8",
          "internalType": "enum IAuction.AuctionType"
        }
      ],
      "stateMutability": "pure"
    },
    {
      "type": "function",
      "name": "bid",
      "inputs": [
        {
          "name": "lotId_",
          "type": "uint96",
          "internalType": "uint96"
        },
        {
          "name": "bidder_",
          "type": "address",
          "internalType": "address"
        },
        {
          "name": "referrer_",
          "type": "address",
          "internalType": "address"
        },
        {
          "name": "amount_",
          "type": "uint256",
          "internalType": "uint256"
        },
        {
          "name": "auctionData_",
          "type": "bytes",
          "internalType": "bytes"
        }
      ],
      "outputs": [
        {
          "name": "bidId",
          "type": "uint64",
          "internalType": "uint64"
        }
      ],
      "stateMutability": "nonpayable"
    },
    {
      "type": "function",
      "name": "bids",
      "inputs": [
        {
          "name": "lotId",
          "type": "uint96",
          "internalType": "uint96"
        },
        {
          "name": "bidId",
          "type": "uint64",
          "internalType": "uint64"
        }
      ],
      "outputs": [
        {
          "name": "bidder",
          "type": "address",
          "internalType": "address"
        },
        {
          "name": "amount",
          "type": "uint96",
          "internalType": "uint96"
        },
        {
          "name": "minAmountOut",
          "type": "uint96",
          "internalType": "uint96"
        },
        {
          "name": "referrer",
          "type": "address",
          "internalType": "address"
        },
        {
          "name": "status",
          "type": "uint8",
          "internalType": "enum EncryptedMarginalPrice.BidStatus"
        }
      ],
      "stateMutability": "view"
    },
    {
      "type": "function",
      "name": "cancelAuction",
      "inputs": [
        {
          "name": "lotId_",
          "type": "uint96",
          "internalType": "uint96"
        }
      ],
      "outputs": [],
      "stateMutability": "nonpayable"
    },
    {
      "type": "function",
      "name": "capacityInQuote",
      "inputs": [
        {
          "name": "lotId_",
          "type": "uint96",
          "internalType": "uint96"
        }
      ],
      "outputs": [
        {
          "name": "",
          "type": "bool",
          "internalType": "bool"
        }
      ],
      "stateMutability": "view"
    },
    {
      "type": "function",
      "name": "claimBids",
      "inputs": [
        {
          "name": "lotId_",
          "type": "uint96",
          "internalType": "uint96"
        },
        {
          "name": "bidIds_",
          "type": "uint64[]",
          "internalType": "uint64[]"
        }
      ],
      "outputs": [
        {
          "name": "bidClaims",
          "type": "tuple[]",
          "internalType": "struct IBatchAuction.BidClaim[]",
          "components": [
            {
              "name": "bidder",
              "type": "address",
              "internalType": "address"
            },
            {
              "name": "referrer",
              "type": "address",
              "internalType": "address"
            },
            {
              "name": "paid",
              "type": "uint256",
              "internalType": "uint256"
            },
            {
              "name": "payout",
              "type": "uint256",
              "internalType": "uint256"
            },
            {
              "name": "refund",
              "type": "uint256",
              "internalType": "uint256"
            }
          ]
        },
        {
          "name": "auctionOutput",
          "type": "bytes",
          "internalType": "bytes"
        }
      ],
      "stateMutability": "nonpayable"
    },
    {
      "type": "function",
      "name": "claimProceeds",
      "inputs": [
        {
          "name": "lotId_",
          "type": "uint96",
          "internalType": "uint96"
        }
      ],
      "outputs": [
        {
          "name": "purchased",
          "type": "uint256",
          "internalType": "uint256"
        },
        {
          "name": "sold",
          "type": "uint256",
          "internalType": "uint256"
        },
        {
          "name": "capacity",
          "type": "uint256",
          "internalType": "uint256"
        },
        {
          "name": "auctionOutput",
          "type": "bytes",
          "internalType": "bytes"
        }
      ],
      "stateMutability": "nonpayable"
    },
    {
      "type": "function",
      "name": "decryptAndSortBids",
      "inputs": [
        {
          "name": "lotId_",
          "type": "uint96",
          "internalType": "uint96"
        },
        {
          "name": "num_",
          "type": "uint64",
          "internalType": "uint64"
        },
        {
          "name": "sortHints_",
          "type": "bytes32[]",
          "internalType": "bytes32[]"
        }
      ],
      "outputs": [],
      "stateMutability": "nonpayable"
    },
    {
      "type": "function",
      "name": "decryptBid",
      "inputs": [
        {
          "name": "lotId_",
          "type": "uint96",
          "internalType": "uint96"
        },
        {
          "name": "bidId_",
          "type": "uint64",
          "internalType": "uint64"
        }
      ],
      "outputs": [
        {
          "name": "amountOut",
          "type": "uint256",
          "internalType": "uint256"
        }
      ],
      "stateMutability": "view"
    },
    {
      "type": "function",
      "name": "decryptedBids",
      "inputs": [
        {
          "name": "lotId",
          "type": "uint96",
          "internalType": "uint96"
        }
      ],
      "outputs": [
        {
          "name": "numBids",
          "type": "uint256",
          "internalType": "uint256"
        }
      ],
      "stateMutability": "view"
    },
    {
      "type": "function",
      "name": "dedicatedSettlePeriod",
      "inputs": [],
      "outputs": [
        {
          "name": "",
          "type": "uint48",
          "internalType": "uint48"
        }
      ],
      "stateMutability": "view"
    },
    {
      "type": "function",
      "name": "encryptedBids",
      "inputs": [
        {
          "name": "lotId",
          "type": "uint96",
          "internalType": "uint96"
        },
        {
          "name": "bidId",
          "type": "uint64",
          "internalType": "uint64"
        }
      ],
      "outputs": [
        {
          "name": "encryptedAmountOut",
          "type": "uint256",
          "internalType": "uint256"
        },
        {
          "name": "bidPubKey",
          "type": "tuple",
          "internalType": "struct Point",
          "components": [
            {
              "name": "x",
              "type": "uint256",
              "internalType": "uint256"
            },
            {
              "name": "y",
              "type": "uint256",
              "internalType": "uint256"
            }
          ]
        }
      ],
      "stateMutability": "view"
    },
    {
      "type": "function",
      "name": "getAuctionData",
      "inputs": [
        {
          "name": "lotId_",
          "type": "uint96",
          "internalType": "uint96"
        }
      ],
      "outputs": [
        {
          "name": "auctionData_",
          "type": "tuple",
          "internalType": "struct EncryptedMarginalPrice.AuctionData",
          "components": [
            {
              "name": "nextBidId",
              "type": "uint64",
              "internalType": "uint64"
            },
            {
              "name": "nextDecryptIndex",
              "type": "uint64",
              "internalType": "uint64"
            },
            {
              "name": "status",
              "type": "uint8",
              "internalType": "enum EncryptedMarginalPrice.LotStatus"
            },
            {
              "name": "marginalBidId",
              "type": "uint64",
              "internalType": "uint64"
            },
            {
              "name": "proceedsClaimed",
              "type": "bool",
              "internalType": "bool"
            },
            {
              "name": "marginalPrice",
              "type": "uint256",
              "internalType": "uint256"
            },
            {
              "name": "minPrice",
              "type": "uint256",
              "internalType": "uint256"
            },
            {
              "name": "minFilled",
              "type": "uint256",
              "internalType": "uint256"
            },
            {
              "name": "minBidSize",
              "type": "uint256",
              "internalType": "uint256"
            },
            {
              "name": "publicKey",
              "type": "tuple",
              "internalType": "struct Point",
              "components": [
                {
                  "name": "x",
                  "type": "uint256",
                  "internalType": "uint256"
                },
                {
                  "name": "y",
                  "type": "uint256",
                  "internalType": "uint256"
                }
              ]
            },
            {
              "name": "privateKey",
              "type": "uint256",
              "internalType": "uint256"
            },
            {
              "name": "bidIds",
              "type": "uint64[]",
              "internalType": "uint64[]"
            }
          ]
        }
      ],
      "stateMutability": "view"
    },
    {
      "type": "function",
      "name": "getBid",
      "inputs": [
        {
          "name": "lotId_",
          "type": "uint96",
          "internalType": "uint96"
        },
        {
          "name": "bidId_",
          "type": "uint64",
          "internalType": "uint64"
        }
      ],
      "outputs": [
        {
          "name": "bid",
          "type": "tuple",
          "internalType": "struct EncryptedMarginalPrice.Bid",
          "components": [
            {
              "name": "bidder",
              "type": "address",
              "internalType": "address"
            },
            {
              "name": "amount",
              "type": "uint96",
              "internalType": "uint96"
            },
            {
              "name": "minAmountOut",
              "type": "uint96",
              "internalType": "uint96"
            },
            {
              "name": "referrer",
              "type": "address",
              "internalType": "address"
            },
            {
              "name": "status",
              "type": "uint8",
              "internalType": "enum EncryptedMarginalPrice.BidStatus"
            }
          ]
        },
        {
          "name": "encryptedBid",
          "type": "tuple",
          "internalType": "struct EncryptedMarginalPrice.EncryptedBid",
          "components": [
            {
              "name": "encryptedAmountOut",
              "type": "uint256",
              "internalType": "uint256"
            },
            {
              "name": "bidPubKey",
              "type": "tuple",
              "internalType": "struct Point",
              "components": [
                {
                  "name": "x",
                  "type": "uint256",
                  "internalType": "uint256"
                },
                {
                  "name": "y",
                  "type": "uint256",
                  "internalType": "uint256"
                }
              ]
            }
          ]
        }
      ],
      "stateMutability": "view"
    },
    {
      "type": "function",
      "name": "getBidIdAtIndex",
      "inputs": [
        {
          "name": "lotId_",
          "type": "uint96",
          "internalType": "uint96"
        },
        {
          "name": "index_",
          "type": "uint256",
          "internalType": "uint256"
        }
      ],
      "outputs": [
        {
          "name": "",
          "type": "uint64",
          "internalType": "uint64"
        }
      ],
      "stateMutability": "view"
    },
    {
      "type": "function",
      "name": "getBidIds",
      "inputs": [
        {
          "name": "lotId_",
          "type": "uint96",
          "internalType": "uint96"
        },
        {
          "name": "startIndex_",
          "type": "uint256",
          "internalType": "uint256"
        },
        {
          "name": "num_",
          "type": "uint256",
          "internalType": "uint256"
        }
      ],
      "outputs": [
        {
          "name": "",
          "type": "uint64[]",
          "internalType": "uint64[]"
        }
      ],
      "stateMutability": "view"
    },
    {
      "type": "function",
      "name": "getLot",
      "inputs": [
        {
          "name": "lotId_",
          "type": "uint96",
          "internalType": "uint96"
        }
      ],
      "outputs": [
        {
          "name": "",
          "type": "tuple",
          "internalType": "struct IAuction.Lot",
          "components": [
            {
              "name": "start",
              "type": "uint48",
              "internalType": "uint48"
            },
            {
              "name": "conclusion",
              "type": "uint48",
              "internalType": "uint48"
            },
            {
              "name": "quoteTokenDecimals",
              "type": "uint8",
              "internalType": "uint8"
            },
            {
              "name": "baseTokenDecimals",
              "type": "uint8",
              "internalType": "uint8"
            },
            {
              "name": "capacityInQuote",
              "type": "bool",
              "internalType": "bool"
            },
            {
              "name": "capacity",
              "type": "uint256",
              "internalType": "uint256"
            },
            {
              "name": "sold",
              "type": "uint256",
              "internalType": "uint256"
            },
            {
              "name": "purchased",
              "type": "uint256",
              "internalType": "uint256"
            }
          ]
        }
      ],
      "stateMutability": "view"
    },
    {
      "type": "function",
      "name": "getNextInQueue",
      "inputs": [
        {
          "name": "lotId_",
          "type": "uint96",
          "internalType": "uint96"
        },
        {
          "name": "key_",
          "type": "bytes32",
          "internalType": "bytes32"
        }
      ],
      "outputs": [
        {
          "name": "",
          "type": "bytes32",
          "internalType": "bytes32"
        }
      ],
      "stateMutability": "view"
    },
    {
      "type": "function",
      "name": "getNumBids",
      "inputs": [
        {
          "name": "lotId_",
          "type": "uint96",
          "internalType": "uint96"
        }
      ],
      "outputs": [
        {
          "name": "",
          "type": "uint256",
          "internalType": "uint256"
        }
      ],
      "stateMutability": "view"
    },
    {
      "type": "function",
      "name": "getNumBidsInQueue",
      "inputs": [
        {
          "name": "lotId_",
          "type": "uint96",
          "internalType": "uint96"
        }
      ],
      "outputs": [
        {
          "name": "",
          "type": "uint256",
          "internalType": "uint256"
        }
      ],
      "stateMutability": "view"
    },
    {
      "type": "function",
      "name": "getPartialFill",
      "inputs": [
        {
          "name": "lotId_",
          "type": "uint96",
          "internalType": "uint96"
        }
      ],
      "outputs": [
        {
          "name": "",
          "type": "tuple",
          "internalType": "struct EncryptedMarginalPrice.PartialFill",
          "components": [
            {
              "name": "bidId",
              "type": "uint64",
              "internalType": "uint64"
            },
            {
              "name": "refund",
              "type": "uint96",
              "internalType": "uint96"
            },
            {
              "name": "payout",
              "type": "uint256",
              "internalType": "uint256"
            }
          ]
        }
      ],
      "stateMutability": "view"
    },
    {
      "type": "function",
      "name": "hasEnded",
      "inputs": [
        {
          "name": "lotId_",
          "type": "uint96",
          "internalType": "uint96"
        }
      ],
      "outputs": [
        {
          "name": "",
          "type": "bool",
          "internalType": "bool"
        }
      ],
      "stateMutability": "view"
    },
    {
      "type": "function",
      "name": "isLive",
      "inputs": [
        {
          "name": "lotId_",
          "type": "uint96",
          "internalType": "uint96"
        }
      ],
      "outputs": [
        {
          "name": "",
          "type": "bool",
          "internalType": "bool"
        }
      ],
      "stateMutability": "view"
    },
    {
      "type": "function",
      "name": "lotAuctionOutput",
      "inputs": [
        {
          "name": "",
          "type": "uint96",
          "internalType": "uint96"
        }
      ],
      "outputs": [
        {
          "name": "",
          "type": "bytes",
          "internalType": "bytes"
        }
      ],
      "stateMutability": "view"
    },
    {
      "type": "function",
      "name": "lotData",
      "inputs": [
        {
          "name": "id",
          "type": "uint96",
          "internalType": "uint96"
        }
      ],
      "outputs": [
        {
          "name": "start",
          "type": "uint48",
          "internalType": "uint48"
        },
        {
          "name": "conclusion",
          "type": "uint48",
          "internalType": "uint48"
        },
        {
          "name": "quoteTokenDecimals",
          "type": "uint8",
          "internalType": "uint8"
        },
        {
          "name": "baseTokenDecimals",
          "type": "uint8",
          "internalType": "uint8"
        },
        {
          "name": "capacityInQuote",
          "type": "bool",
          "internalType": "bool"
        },
        {
          "name": "capacity",
          "type": "uint256",
          "internalType": "uint256"
        },
        {
          "name": "sold",
          "type": "uint256",
          "internalType": "uint256"
        },
        {
          "name": "purchased",
          "type": "uint256",
          "internalType": "uint256"
        }
      ],
      "stateMutability": "view"
    },
    {
      "type": "function",
      "name": "minAuctionDuration",
      "inputs": [],
      "outputs": [
        {
          "name": "",
          "type": "uint48",
          "internalType": "uint48"
        }
      ],
      "stateMutability": "view"
    },
    {
      "type": "function",
      "name": "refundBid",
      "inputs": [
        {
          "name": "lotId_",
          "type": "uint96",
          "internalType": "uint96"
        },
        {
          "name": "bidId_",
          "type": "uint64",
          "internalType": "uint64"
        },
        {
          "name": "index_",
          "type": "uint256",
          "internalType": "uint256"
        },
        {
          "name": "caller_",
          "type": "address",
          "internalType": "address"
        }
      ],
      "outputs": [
        {
          "name": "refund",
          "type": "uint256",
          "internalType": "uint256"
        }
      ],
      "stateMutability": "nonpayable"
    },
    {
      "type": "function",
      "name": "remainingCapacity",
      "inputs": [
        {
          "name": "lotId_",
          "type": "uint96",
          "internalType": "uint96"
        }
      ],
      "outputs": [
        {
          "name": "",
          "type": "uint256",
          "internalType": "uint256"
        }
      ],
      "stateMutability": "view"
    },
    {
      "type": "function",
      "name": "setDedicatedSettlePeriod",
      "inputs": [
        {
          "name": "period_",
          "type": "uint48",
          "internalType": "uint48"
        }
      ],
      "outputs": [],
      "stateMutability": "nonpayable"
    },
    {
      "type": "function",
      "name": "setMinAuctionDuration",
      "inputs": [
        {
          "name": "duration_",
          "type": "uint48",
          "internalType": "uint48"
        }
      ],
      "outputs": [],
      "stateMutability": "nonpayable"
    },
    {
      "type": "function",
      "name": "settle",
      "inputs": [
        {
          "name": "lotId_",
          "type": "uint96",
          "internalType": "uint96"
        }
      ],
      "outputs": [
        {
          "name": "totalIn",
          "type": "uint256",
          "internalType": "uint256"
        },
        {
          "name": "totalOut",
          "type": "uint256",
          "internalType": "uint256"
        },
        {
          "name": "auctionOutput",
          "type": "bytes",
          "internalType": "bytes"
        }
      ],
      "stateMutability": "nonpayable"
    },
    {
      "type": "function",
      "name": "submitPrivateKey",
      "inputs": [
        {
          "name": "lotId_",
          "type": "uint96",
          "internalType": "uint96"
        },
        {
          "name": "privateKey_",
          "type": "uint256",
          "internalType": "uint256"
        },
        {
          "name": "num_",
          "type": "uint64",
          "internalType": "uint64"
        },
        {
          "name": "sortHints_",
          "type": "bytes32[]",
          "internalType": "bytes32[]"
        }
      ],
      "outputs": [],
      "stateMutability": "nonpayable"
    },
    {
      "type": "event",
      "name": "BidDecrypted",
      "inputs": [
        {
          "name": "lotId",
          "type": "uint96",
          "indexed": true,
          "internalType": "uint96"
        },
        {
          "name": "bidId",
          "type": "uint64",
          "indexed": true,
          "internalType": "uint64"
        },
        {
          "name": "amountIn",
          "type": "uint96",
          "indexed": false,
          "internalType": "uint96"
        },
        {
          "name": "amountOut",
          "type": "uint96",
          "indexed": false,
          "internalType": "uint96"
        }
      ],
      "anonymous": false
    },
    {
      "type": "error",
      "name": "Auction_AmountLessThanMinimum",
      "inputs": []
    },
    {
      "type": "error",
      "name": "Auction_InsufficientCapacity",
      "inputs": []
    },
    {
      "type": "error",
      "name": "Auction_InvalidBidId",
      "inputs": [
        {
          "name": "lotId",
          "type": "uint96",
          "internalType": "uint96"
        },
        {
          "name": "bidId",
          "type": "uint96",
          "internalType": "uint96"
        }
      ]
    },
    {
      "type": "error",
      "name": "Auction_InvalidDuration",
      "inputs": [
        {
          "name": "duration_",
          "type": "uint48",
          "internalType": "uint48"
        },
        {
          "name": "minimum_",
          "type": "uint48",
          "internalType": "uint48"
        }
      ]
    },
    {
      "type": "error",
      "name": "Auction_InvalidKey",
      "inputs": []
    },
    {
      "type": "error",
      "name": "Auction_InvalidLotId",
      "inputs": [
        {
          "name": "lotId",
          "type": "uint96",
          "internalType": "uint96"
        }
      ]
    },
    {
      "type": "error",
      "name": "Auction_InvalidParams",
      "inputs": []
    },
    {
      "type": "error",
      "name": "Auction_InvalidStart",
      "inputs": [
        {
          "name": "start_",
          "type": "uint48",
          "internalType": "uint48"
        },
        {
          "name": "minimum_",
          "type": "uint48",
          "internalType": "uint48"
        }
      ]
    },
    {
      "type": "error",
      "name": "Auction_MarketActive",
      "inputs": [
        {
          "name": "lotId",
          "type": "uint96",
          "internalType": "uint96"
        }
      ]
    },
    {
      "type": "error",
      "name": "Auction_MarketNotActive",
      "inputs": [
        {
          "name": "lotId",
          "type": "uint96",
          "internalType": "uint96"
        }
      ]
    },
    {
      "type": "error",
      "name": "Auction_NotAuthorized",
      "inputs": []
    },
    {
      "type": "error",
      "name": "Auction_NotBidder",
      "inputs": []
    },
    {
      "type": "error",
      "name": "Auction_NotImplemented",
      "inputs": []
    },
    {
      "type": "error",
      "name": "Auction_OnlyMarketOwner",
      "inputs": []
    },
    {
      "type": "error",
      "name": "Auction_WrongState",
      "inputs": [
        {
          "name": "lotId",
          "type": "uint96",
          "internalType": "uint96"
        }
      ]
    },
    {
      "type": "error",
      "name": "Bid_WrongState",
      "inputs": [
        {
          "name": "lotId",
          "type": "uint96",
          "internalType": "uint96"
        },
        {
          "name": "bidId",
          "type": "uint64",
          "internalType": "uint64"
        }
      ]
    },
    {
      "type": "error",
      "name": "Module_InvalidParent",
      "inputs": [
        {
          "name": "parent_",
          "type": "address",
          "internalType": "address"
        }
      ]
    },
    {
      "type": "error",
      "name": "Module_OnlyInternal",
      "inputs": []
    },
    {
      "type": "error",
      "name": "Module_OnlyParent",
      "inputs": [
        {
          "name": "caller_",
          "type": "address",
          "internalType": "address"
        }
      ]
    },
    {
      "type": "error",
      "name": "NotPermitted",
      "inputs": [
        {
          "name": "caller",
          "type": "address",
          "internalType": "address"
        }
      ]
    }
  ],
  "bytecode": {
    "object": "0x60a06040523480156200001157600080fd5b5060405162005637380380620056378339810160408190526200003491620000a5565b80806001600160a01b0381166200006d57604051631462ddc360e21b81526001600160a01b038216600482015260240160405180910390fd5b6001600160a01b031660805250506000805465ffffffffffff19908116620151801790915560038054909116615460179055620000d7565b600060208284031215620000b857600080fd5b81516001600160a01b0381168114620000d057600080fd5b9392505050565b6080516154cd6200016a6000396000818161036201528181610a6a01528181610ab101528181610c3b01528181610cac01528181610cee01528181610fcb0152818161130f015281816113510152818161145d0152818161149f01528181611878015281816118ba015281816119be01528181611a0001528181611e6201528181611eb40152611ef601526154cd6000f3fe608060405234801561001057600080fd5b50600436106102315760003560e01c80637d9234bc11610130578063b04046df116100b8578063d899a3371161007c578063d899a337146107af578063de1d3112146107c2578063e2cfa6ea146107e2578063ea6439141461088e578063fb9d3cb61461089657600080fd5b8063b04046df14610743578063bae96bdd14610756578063bb24fe8a14610769578063cadb338314610778578063d61735ca1461079857600080fd5b8063a16f7ef7116100ff578063a16f7ef714610689578063a1a61ec5146106d0578063a85cebb6146106e3578063a8bf44e4146106f5578063ace54da51461071657600080fd5b80637d9234bc1461064157806387698a31146106545780638bde610914610667578063994595e11461067a57600080fd5b806325e34a8e116101be57806354c87c011161018257806354c87c01146104de5780635806afc314610535578063732efc03146105f057806379fd0c1f146106035780637d7b68531461061657600080fd5b806325e34a8e146103d457806329da5abd146103e757806339792cdc146103fa5780634e1f42581461042d57806354134876146104b557600080fd5b80630cf5538d116102055780630cf5538d146102c35780630fb276fc146102e4578063122b83f91461035d57806312d6ef2d1461039c57806324546b2d146103b157600080fd5b8062b3321714610236578063038559211461025f5780630a35511b146102825780630cd0bcf2146102a3575b600080fd5b6102496102443660046145d6565b6108b8565b6040516102569190614609565b60405180910390f35b61027261026d366004614656565b610a01565b6040519015158152602001610256565b6102956102903660046146b5565b610a5c565b604051610256929190614757565b6102b66102b1366004614656565b610b78565b60405161025691906147d8565b6102d66102d1366004614656565b610c12565b604051908152602001610256565b61034c6102f2366004614802565b60066020908152600092835260408084209091529082529020805460018201546002909201546001600160a01b03808316936001600160601b03600160a01b909404841693811692600160601b9091049091169060ff1685565b60405161025695949392919061485b565b6103847f000000000000000000000000000000000000000000000000000000000000000081565b6040516001600160a01b039091168152602001610256565b6103af6103aa3660046148b9565b610c30565b005b6103c46103bf366004614656565b610c9b565b60405161025694939291906148d4565b6103af6103e2366004614903565b610f0e565b6103af6103f53660046148b9565b610fc0565b610272610408366004614656565b6001600160601b0316600090815260016020526040902054600160701b900460ff1690565b61044061043b366004614656565b611057565b604051610256919060006101008201905065ffffffffffff8084511683528060208501511660208401525060ff604084015116604083015260ff606084015116606083015260808301511515608083015260a083015160a083015260c083015160c083015260e083015160e083015292915050565b6000546104c79065ffffffffffff1681565b60405165ffffffffffff9091168152602001610256565b6105276104ec366004614802565b600760209081526000928352604080842082529183529181902080548251808401909352600182015483526002909101549282019290925282565b604051610256929190614963565b6105a3610543366004614656565b6001602081905260009182526040909120805491810154600282015460039092015465ffffffffffff80851694600160301b81049091169360ff600160601b8304811694600160681b8404821694600160701b9094049091169290919088565b6040805165ffffffffffff998a16815298909716602089015260ff958616968801969096529390921660608601521515608085015260a084015260c083015260e082015261010001610256565b6102726105fe366004614656565b6110f4565b6103af610611366004614981565b61117c565b6106296106243660046149ef565b6112a4565b6040516001600160401b039091168152602001610256565b6102d661064f366004614a30565b611302565b610629610662366004614a7d565b611450565b6102d66106753660046149ef565b61157a565b60016040516102569190614b29565b61069c610697366004614656565b6115a6565b6040805182516001600160401b031681526020808401516001600160601b0316908201529181015190820152606001610256565b6102d66106de366004614802565b611625565b6003546104c79065ffffffffffff1681565b610708610703366004614802565b611751565b604051610256929190614b43565b6102d6610724366004614656565b6001600160601b03166000908152600160208190526040909120015490565b6103af610751366004614656565b61186d565b6103af610764366004614c6e565b6119b3565b60006040516102569190614d94565b61078b610786366004614656565b611c92565b6040516102569190614df9565b604051653031454d504160d01b8152602001610256565b6102d66107bd366004614656565b611e2d565b6102d66107d0366004614656565b60086020526000908152604090205481565b6108776107f0366004614656565b6004602081815260009283526040928390208054600182015460028301546003840154958401548751808901909852600585015488526006850154958801959095526007909301546001600160401b0380841697600160401b850482169760ff600160801b8704811698600160881b880490941697600160c81b909704169593909291908b565b6040516102569b9a99989796959493929190614edb565b6103af611e57565b6108a96108a4366004614656565b611ea4565b60405161025693929190614f5e565b60606108c38461200a565b6001600160601b0384166000908152600460205260409020600801805480851061090057604051633350f82560e11b815260040160405180910390fd5b600061090c8683614f93565b9050600081861161091d578561091f565b815b90506000816001600160401b0381111561093b5761093b614bbf565b604051908082528060200260200182016040528015610964578160200160208202803683370190505b50905060005b828110156109f2578561097d828b614fa6565b8154811061098d5761098d614fb9565b90600052602060002090600491828204019190066008029054906101000a90046001600160401b03168282815181106109c8576109c8614fb9565b6001600160401b0390921660209283029190910190910152806109ea81614fcf565b91505061096a565b509450505050505b9392505050565b6001600160601b03811660009081526001602052604081205465ffffffffffff600160301b909104811642909116101580610a5657506001600160601b03821660009081526001602081905260409091200154155b92915050565b606080336001600160a01b037f00000000000000000000000000000000000000000000000000000000000000001614610aaf576040516366e069e160e01b81523360048201526024015b60405180910390fd5b7f00000000000000000000000000000000000000000000000000000000000000006001600160a01b0316635c774ed76040518163ffffffff1660e01b8152600401602060405180830381865afa158015610b0d573d6000803e3d6000fd5b505050506040513d601f19601f82011682018060405250810190610b319190614fe8565b15610b4f5760405163115250c560e21b815260040160405180910390fd5b610b588561200a565b610b6185612058565b610b6c8585856120b7565b91509150935093915050565b60026020526000908152604090208054610b9190615005565b80601f0160208091040260200160405190810160405280929190818152602001828054610bbd90615005565b8015610c0a5780601f10610bdf57610100808354040283529160200191610c0a565b820191906000526020600020905b815481529060010190602001808311610bed57829003601f168201915b505050505081565b6001600160601b038116600090815260086020526040812054610a56565b336001600160a01b037f00000000000000000000000000000000000000000000000000000000000000001614610c7b576040516366e069e160e01b8152336004820152602401610aa6565b6000805465ffffffffffff191665ffffffffffff92909216919091179055565b600080806060336001600160a01b037f00000000000000000000000000000000000000000000000000000000000000001614610cec576040516366e069e160e01b8152336004820152602401610aa6565b7f00000000000000000000000000000000000000000000000000000000000000006001600160a01b0316635c774ed76040518163ffffffff1660e01b8152600401602060405180830381865afa158015610d4a573d6000803e3d6000fd5b505050506040513d601f19601f82011682018060405250810190610d6e9190614fe8565b15610d8c5760405163115250c560e21b815260040160405180910390fd5b610d958561200a565b610d9e856121e5565b610da785612058565b610dd5856001600160601b03166000908152600460205260409020805460ff60c81b1916600160c81b179055565b6001600160601b0385166000818152600160208181526040808420815161010081018352815465ffffffffffff8082168352600160301b8204168286015260ff600160601b8204811683860152600160681b820481166060840152600160701b90910416151560808201529381015460a0850181905260028083015460c0870181905260039093015460e0870181905297875290935293208054929493928190610e7e90615005565b80601f0160208091040260200160405190810160405280929190818152602001828054610eaa90615005565b8015610ef75780601f10610ecc57610100808354040283529160200191610ef7565b820191906000526020600020905b815481529060010190602001808311610eda57829003601f168201915b505050505090509450945094509450509193509193565b610f178461200a565b610f2084612231565b610f2984612282565b60006001600160601b038516600090815260046020526040902054600160801b900460ff166002811115610f5f57610f5f614835565b141580610f8557506001600160601b038416600090815260046020526040902060070154155b15610fae57604051636985f4c960e11b81526001600160601b0385166004820152602401610aa6565b610fba84848484612343565b50505050565b336001600160a01b037f0000000000000000000000000000000000000000000000000000000000000000161461100b576040516366e069e160e01b8152336004820152602401610aa6565b62093a808165ffffffffffff16111561103757604051633350f82560e11b815260040160405180910390fd5b6003805465ffffffffffff191665ffffffffffff92909216919091179055565b61105f614450565b506001600160601b0316600090815260016020818152604092839020835161010081018552815465ffffffffffff8082168352600160301b8204169382019390935260ff600160601b8404811695820195909552600160681b830485166060820152600160701b909204909316151560808201529082015460a0820152600282015460c082015260039091015460e082015290565b6001600160601b0381166000908152600160208190526040822001541580159061114957506001600160601b03821660009081526001602052604090205465ffffffffffff600160301b909104811642909116105b8015610a565750506001600160601b031660009081526001602052604090205465ffffffffffff90811642909116101590565b6111858561200a565b61118e85612282565b61119785612231565b6001600160601b038516600090815260046020526040902060070154156111dc57604051636985f4c960e11b81526001600160601b0386166004820152602401610aa6565b60006111fe604051806040016040528060018152602001600281525086612574565b6001600160601b03871660009081526004602090815260409182902082518084019093526005810154808452600690910154918301919091528251929350909114158061125357508060200151826020015114155b1561127157604051632fd26a8f60e21b815260040160405180910390fd5b6001600160601b038716600090815260046020526040902060070186905561129b87868686612343565b50505050505050565b6001600160601b03821660009081526004602052604081206008018054839081106112d1576112d1614fb9565b90600052602060002090600491828204019190066008029054906101000a90046001600160401b0316905092915050565b6000336001600160a01b037f0000000000000000000000000000000000000000000000000000000000000000161461134f576040516366e069e160e01b8152336004820152602401610aa6565b7f00000000000000000000000000000000000000000000000000000000000000006001600160a01b0316635c774ed76040518163ffffffff1660e01b8152600401602060405180830381865afa1580156113ad573d6000803e3d6000fd5b505050506040513d601f19601f820116820180604052508101906113d19190614fe8565b156113ef5760405163115250c560e21b815260040160405180910390fd5b6113f88561200a565b61140185612231565b61140b8585612658565b611416858584612728565b6114208585612790565b6114298561280d565b61143285612895565b61143b856128da565b61144785858585612939565b95945050505050565b6000336001600160a01b037f0000000000000000000000000000000000000000000000000000000000000000161461149d576040516366e069e160e01b8152336004820152602401610aa6565b7f00000000000000000000000000000000000000000000000000000000000000006001600160a01b0316635c774ed76040518163ffffffff1660e01b8152600401602060405180830381865afa1580156114fb573d6000803e3d6000fd5b505050506040513d601f19601f8201168201806040525081019061151f9190614fe8565b1561153d5760405163115250c560e21b815260040160405180910390fd5b6115468761200a565b61154f87612231565b61155887612b12565b611561876128da565b61156f878787878787612baf565b979650505050505050565b6001600160601b03821660009081526008602090815260408083208484526001019091528120546109fa565b60408051606081018252600080825260208201819052918101919091526115cc8261200a565b6115d582612058565b506001600160601b03908116600090815260056020908152604091829020825160608101845281546001600160401b0381168252600160401b900490941691840191909152600101549082015290565b6001600160601b03821660009081526004602052604081206007015480820361166c57604051636985f4c960e11b81526001600160601b0385166004820152602401610aa6565b6001600160601b03841660008181526006602090815260408083206001600160401b0388168085529083528184209484526007835281842090845282528083208054825180840184526001830154815260029092015482850152855483516001600160a01b031960a08d811b8216978301979097526001600160601b0319606084901b16602c830152600160a01b90920490951b169284019290925261172f928690604c016040516020818303038152906040528051906020012060001c612dec565b608081901c016fffffffffffffffffffffffffffffffff169695505050505050565b611759614494565b6117616144c3565b61176a8461200a565b6117748484612658565b6001600160601b0380851660008181526006602090815260408083206001600160401b03891680855290835281842094845260078352818420908452825291829020825160a08101845284546001600160a01b038082168352600160a01b909104871693820193909352600185015495861693810193909352600160601b9094041660608201526002808301549293928491608084019160ff169081111561181e5761181e614835565b600281111561182f5761182f614835565b9052506040805180820182528354815281518083019092526001840154825260029093015460208281019190915283015293509150505b9250929050565b336001600160a01b037f000000000000000000000000000000000000000000000000000000000000000016146118b8576040516366e069e160e01b8152336004820152602401610aa6565b7f00000000000000000000000000000000000000000000000000000000000000006001600160a01b0316635c774ed76040518163ffffffff1660e01b8152600401602060405180830381865afa158015611916573d6000803e3d6000fd5b505050506040513d601f19601f8201168201806040525081019061193a9190614fe8565b156119585760405163115250c560e21b815260040160405180910390fd5b6119618161200a565b61196a81612b12565b61197381612e31565b6001600160601b03166000908152600160208190526040822080546bffffffffffff0000000000001916600160301b4265ffffffffffff16021781550155565b336001600160a01b037f000000000000000000000000000000000000000000000000000000000000000016146119fe576040516366e069e160e01b8152336004820152602401610aa6565b7f00000000000000000000000000000000000000000000000000000000000000006001600160a01b0316635c774ed76040518163ffffffff1660e01b8152600401602060405180830381865afa158015611a5c573d6000803e3d6000fd5b505050506040513d601f19601f82011682018060405250810190611a809190614fe8565b15611a9e5760405163115250c560e21b815260040160405180910390fd5b825165ffffffffffff1615801590611ac15750825165ffffffffffff4281169116105b15611af5578251604051639421aa8960e01b815265ffffffffffff9182166004820152429091166024820152604401610aa6565b600054602084015165ffffffffffff91821691161015611b425760208301516000546040516302c1012760e21b815265ffffffffffff928316600482015291166024820152604401610aa6565b611b4a614450565b835165ffffffffffff1615611b60578351611b62565b425b65ffffffffffff168082526020850151611b7b9161503f565b65ffffffffffff16602082015260ff8084166040808401919091529083166060808401919091529085015115156080808401919091529085015160a0830152840151611bca9086908390612e75565b6001600160601b039490941660009081526001602081815260409283902087518154928901519489015160608a015160808b015165ffffffffffff9384166001600160601b031990961695909517600160301b93909716929092029590951761ffff60601b1916600160601b60ff9687160260ff60681b191617600160681b95909116949094029390931760ff60701b1916600160701b9115159190910217825560a08601519082015560c0850151600282015560e090940151600390940193909355505050565b611c9a6144f2565b611ca38261200a565b6001600160601b03821660009081526004602090815260409182902082516101808101845281546001600160401b038082168352600160401b8204169382019390935292909190830190600160801b900460ff166002811115611d0857611d08614835565b6002811115611d1957611d19614835565b81528154600160881b81046001600160401b0316602080840191909152600160c81b90910460ff1615156040808401919091526001840154606084015260028401546080840152600384015460a0840152600484015460c0840152805180820182526005850154815260068501548184015260e08401526007840154610100840152600884018054825181850281018501909352808352610120909401939192909190830182828015611e1d57602002820191906000526020600020906000905b82829054906101000a90046001600160401b03166001600160401b031681526020019060080190602082600701049283019260010382029150808411611dda5790505b5050505050815250509050919050565b6000611e388261200a565b506001600160601b031660009081526004602052604090206008015490565b336001600160a01b037f00000000000000000000000000000000000000000000000000000000000000001614611ea2576040516366e069e160e01b8152336004820152602401610aa6565b565b6000806060336001600160a01b037f00000000000000000000000000000000000000000000000000000000000000001614611ef4576040516366e069e160e01b8152336004820152602401610aa6565b7f00000000000000000000000000000000000000000000000000000000000000006001600160a01b0316635c774ed76040518163ffffffff1660e01b8152600401602060405180830381865afa158015611f52573d6000803e3d6000fd5b505050506040513d601f19601f82011682018060405250810190611f769190614fe8565b15611f945760405163115250c560e21b815260040160405180910390fd5b611f9d8461200a565b611fa684612231565b611faf84612282565b611fb8846128da565b611fc184613030565b6001600160601b03871660009081526001602090815260408083206003810187905560029081018690559091529020929550909350915061200282826150b3565b509193909250565b6001600160601b03811660009081526001602052604081205465ffffffffffff16900361205557604051638c54233f60e01b81526001600160601b0382166004820152602401610aa6565b50565b60026001600160601b038216600090815260046020526040902054600160801b900460ff16600281111561208e5761208e614835565b1461205557604051636985f4c960e11b81526001600160601b0382166004820152602401610aa6565b60608082806001600160401b038111156120d3576120d3614bbf565b60405190808252806020026020018201604052801561210c57816020015b6120f9614579565b8152602001906001900390816120f15790505b50925060005b818110156121db5761214a8787878481811061213057612130614fb9565b90506020020160208101906121459190615172565b612658565b61217a8787878481811061216057612160614fb9565b90506020020160208101906121759190615172565b612790565b6121aa8787878481811061219057612190614fb9565b90506020020160208101906121a59190615172565b613494565b508482815181106121bd576121bd614fb9565b602002602001018190525080806121d390614fcf565b915050612112565b5050935093915050565b6001600160601b038116600090815260046020526040902054600160c81b900460ff161561205557604051636985f4c960e11b81526001600160601b0382166004820152602401610aa6565b6001600160601b03811660009081526001602052604090205465ffffffffffff90811642909116101561205557604051633ccc2fdb60e01b81526001600160601b0382166004820152602401610aa6565b60006001600160601b038216600090815260046020526040902054600160801b900460ff1660028111156122b8576122b8614835565b1480156122e757506001600160601b0381166000908152600160205260409020544265ffffffffffff90911611155b801561231a57506001600160601b03811660009081526001602052604090205442600160301b90910465ffffffffffff16115b1561205557604051636985f4c960e11b81526001600160601b0382166004820152602401610aa6565b6001600160601b0384166000908152600460205260409020546001600160401b03600160401b9091048116908416821461239057604051633350f82560e11b815260040160405180910390fd5b6001600160601b038516600090815260046020526040902060080180546123c1906001600160401b03841690614f93565b856001600160401b031611156123e15780546123de90839061518d565b94505b6001600160601b03861660009081526001602052604081205461240f90600160681b900460ff16600a615291565b905060005b866001600160401b0316816001600160401b031610156124b9576124a7888461243d84886152a0565b6001600160401b03168154811061245657612456614fb9565b90600052602060002090600491828204019190066008029054906101000a90046001600160401b03168888856001600160401b031681811061249a5761249a614fb9565b9050602002013585613698565b806124b1816152c0565b915050612414565b506001600160601b038716600090815260046020526040902080548791906008906124f5908490600160401b90046001600160401b03166152a0565b82546101009290920a6001600160401b0381810219909316918316021790915583546001600160601b038a16600090815260046020526040902054600160401b900490911603905061129b57505050506001600160601b03929092166000908152600460205260409020805460ff60801b1916600160801b1790555050565b604080518082019091526000808252602082015261259183613870565b6125dd5760405162461bcd60e51b815260206004820152601860248201527f496e76616c69642067656e657261746f7220706f696e742e00000000000000006044820152606401610aa6565b7f30644e72e131a029b85045b68181585d2833e84879b9709143e1f593f00000018210158061260a575081155b1561264e5760405162461bcd60e51b815260206004820152601460248201527324b73b30b634b210383934bb30ba329035b2bc9760611b6044820152606401610aa6565b6109fa83836138a9565b6001600160601b0382166000908152600460205260409020546001600160401b03908116908216106126b7576040516322a16ebf60e01b81526001600160601b03831660048201526001600160401b0382166024820152604401610aa6565b6001600160601b03821660009081526006602090815260408083206001600160401b03851684529091529020546001600160a01b0316612724576040516322a16ebf60e01b81526001600160601b03831660048201526001600160401b0382166024820152604401610aa6565b5050565b6001600160601b03831660009081526006602090815260408083206001600160401b03861684529091529020546001600160a01b0382811691161461278b576040516319b1d90760e31b81526001600160a01b0382166004820152602401610aa6565b505050565b6001600160601b03821660009081526006602090815260408083206001600160401b0385168452909152902060029081015460ff16818111156127d5576127d5614835565b0361272457604051631359755560e11b81526001600160601b03831660048201526001600160401b0382166024820152604401610aa6565b6001600160601b03811660009081526001602052604090205465ffffffffffff600160301b9091048116904216811180159061286c57506003546128599065ffffffffffff168261503f565b65ffffffffffff164265ffffffffffff16105b1561272457604051636985f4c960e11b81526001600160601b0383166004820152602401610aa6565b6001600160601b0381166000908152600460205260409020600701541561205557604051636985f4c960e11b81526001600160601b0382166004820152602401610aa6565b60026001600160601b038216600090815260046020526040902054600160801b900460ff16600281111561291057612910614835565b0361205557604051636985f4c960e11b81526001600160601b0382166004820152602401610aa6565b6001600160601b03841660008181526006602090815260408083206001600160401b038816845282528083206002908101805460ff191690911790559282526004905290812060080180548085106129a457604051633350f82560e11b815260040160405180910390fd5b60008286815481106129b8576129b8614fb9565b6000918252602090912060048204015460039091166008026101000a90046001600160401b03908116915087168114612a0457604051633350f82560e11b815260040160405180910390fd5b82612a10600184614f93565b81548110612a2057612a20614fb9565b90600052602060002090600491828204019190066008029054906101000a90046001600160401b0316838781548110612a5b57612a5b614fb9565b90600052602060002090600491828204019190066008026101000a8154816001600160401b0302191690836001600160401b0316021790555082805480612aa457612aa46152e6565b6000828152602080822060046000199094019384040180546001600160401b03600860038716026101000a810219909116909155929093556001600160601b03808c168252600684526040808320938c168352929093522054600160a01b9004169350505050949350505050565b6001600160601b03811660009081526001602052604090205465ffffffffffff600160301b90910481164290911610612b6957604051633ccc2fdb60e01b81526001600160601b0382166004820152602401610aa6565b6001600160601b038116600090815260016020819052604082200154900361205557604051633ccc2fdb60e01b81526001600160601b0382166004820152602401610aa6565b60008080612bbf848601866152fc565b90925090506001600160601b03861115612bec57604051633350f82560e11b815260040160405180910390fd5b6001600160601b0389166000908152600460208181526040808420928301546002909301546001909252832054612c39929190612c3490600160681b900460ff16600a615291565b6139af565b905080871015612c5c57604051636aa9da6d60e01b815260040160405180910390fd5b612c65826139d6565b612c8257604051632fd26a8f60e21b815260040160405180910390fd5b6001600160601b038a16600090815260046020526040812080546001600160401b031691612caf836152c0565b82546101009290920a6001600160401b038181021990931691831602179091556001600160601b038c8116600090815260066020908152604080832094861683529390529182206001600160a01b038d8116600160a01b8d85160217825560018281018054909416600160601b928f1692909202919091179092556002810180549498509093909160ff19909116908302179055505060408051808201825293845260208085019384526001600160601b039b909b16600081815260078d528281206001600160401b03888116808452918f5284832097518855955180516001808a0191909155908f01516002909801979097559181526004808e5292812060089081018054978801815582529c902091850490910180546003909516909b026101000a9283021990931691909202179097559695505050505050565b600080612df98585613a52565b604080516020808201939093528082019590955280518086038201815260609095019052835193019290922094909418949350505050565b612e3a81612282565b6001600160601b03166000908152600460205260409020805469ff0000000000000000ff60801b19166880000000000000000160811b179055565b600081806020019051810190612e8b919061538e565b8051909150600003612eb057604051633350f82560e11b815260040160405180910390fd5b620186a065ffffffffffff16816020015162ffffff161115612ee557604051633350f82560e11b815260040160405180910390fd5b602862ffffff16816040015162ffffff161080612f155750620186a065ffffffffffff16816040015162ffffff16115b15612f3357604051633350f82560e11b815260040160405180910390fd5b612f4081606001516139d6565b612f5d57604051633350f82560e11b815260040160405180910390fd5b6001600160601b03841660009081526004602090815260409091208251600282015560a0850151918301519091612f9c9162ffffff16620186a0613b25565b600382015560a08401516040830151612fbe919062ffffff16620186a0613b25565b60048201556060820151805160058301556020908101516006830155815467ffffffffffffffff1916600190811783556001600160601b03871660009081526008835260408082206001600160601b03600160c01b03835290920190925290206002600160c01b031990555050505050565b600080606060016001600160601b038516600090815260046020526040902054600160801b900460ff16600281111561306b5761306b614835565b1461309457604051636985f4c960e11b81526001600160601b0385166004820152602401610aa6565b600061309f85613b53565b6001600160601b03861660009081526001602081905260408220908101549054929350916130d890600160681b900460ff16600a615291565b6001600160601b038816600090815260046020908152604080832081516101808101835281546001600160401b038082168352600160401b820416948201949094529495509293929190830190600160801b900460ff16600281111561314057613140614835565b600281111561315157613151614835565b81528154600160881b81046001600160401b0316602080840191909152600160c81b90910460ff1615156040808401919091526001840154606084015260028401546080840152600384015460a0840152600484015460c0840152805180820182526005850154815260068501548184015260e0840152600784015461010084015260088401805482518185028101850190935280835261012090940193919290919083018282801561325557602002820191906000526020600020906000905b82829054906101000a90046001600160401b03166001600160401b0316815260200190600801906020826007010492830192600103820291508084116132125790505b505050919092525050506001600160601b0389166000908152600460205260409020805460ff60801b1916600160811b178155600301546060860151919250118015906132a7575060c0810151845110155b156134675783516001600160601b0389166000908152600460209081526040909120600181019290925585015181546001600160401b03909116600160881b0267ffffffffffffffff60881b199091161790556060840151831015613442576001600160601b038089166000908152600660209081526040808320888301516001600160401b03168452909152812080548751919361335192600160a01b909204169086906139af565b905060008587606001516133659190614f93565b90506000604051806060016040528089602001516001600160401b031681526020016133b28660000160149054906101000a90046001600160601b03166001600160601b031685876139af565b6001600160601b031681526020016133ca8486614f93565b90526001600160601b03808e166000908152600560209081526040918290208451815492860151909416600160401b81026001600160a01b03199093166001600160401b0390951694909417919091178155818401516001909101558a018051929350909161343a908390614f93565b905250505050505b836040015196508284606001511161345e578360600151613460565b825b9550613489565b6001600160601b03881660009081526004602052604090206000196001909101555b505050509193909250565b61349c614579565b6001600160601b03831660008181526006602090815260408083206001600160401b038716845282528083206002808201805460ff1916909117905580546001600160a01b039081168752600180830154600160601b90049091168785015294845293909152812054606092919061351f90600160681b900460ff16600a615291565b60018301549091506000906001600160601b031615613563578254600184015461355e916001600160601b03600160a01b909104811691859116613f73565b613566565b60005b6001600160601b038816600090815260046020908152604080832060010154600590925290912054919250906001600160401b038089169116036135f75783546001600160601b03600160a01b9091048116604080890191909152898216600081815260056020818152938220600181015460608d01529290915290915254600160401b900416608087015261368d565b8082118061363b5750808214801561363b57506001600160601b0388166000908152600460205260409020546001600160401b03600160881b909104811690881611155b1561366e578354600160a01b90046001600160601b0316604087018190526136649084836139af565b606087015261368d565b8354600160a01b90046001600160601b03166040870181905260808701525b505050509250929050565b6001600160601b03841660009081526006602090815260408083206001600160401b03871684529091528120906136cf8686611625565b905060006001600160601b0382116136e45750805b60028301805460ff191660011790556001600160601b0381161580159061372a57506001600160601b038088166000908152600460208190526040909120015490821610155b1561380c5782546001600160601b03888116600090815260016020526040812054909261377f92600160a01b909104169061377090600160681b900460ff16600a615291565b846001600160601b0316613f73565b90506001600160601b03811080156137b257506001600160601b0388166000908152600460205260409020600201548110155b1561380a5783546001600160601b0389811660009081526008602052604090206137ec92909189918b91600160a01b90910416868a613fa2565b6001840180546001600160601b0319166001600160601b0384161790555b505b8254604080516001600160601b03600160a01b9093048316815283831660208201526001600160401b038916928a16917fbfea11d19705e7c3584fa7d3fb7ef96ca3c3ed4a1995383745345aaf5d4df58b910160405180910390a350505050505050565b80516000906138939061388c906138878180614174565b614174565b600361418f565b60208301516138a29080614174565b1492915050565b604080518082019091526000808252602082015282516020808501516040516000938493600793611770936138f293928a91019283526020830191909152604082015260600190565b60408051601f198184030181529082905261390c91615404565b6000604051808303818686fa925050503d8060008114613948576040519150601f19603f3d011682016040523d82523d6000602084013e61394d565b606091505b509150915081158061395e57508051155b1561399b5760405162461bcd60e51b815260206004820152600d60248201526c32b1a6bab6103330b4b632b21760991b6044820152606401610aa6565b808060200190518101906114479190615420565b60008260001904841183021582026139cf5763ad251c276000526004601cfd5b5091020490565b60006139e182613870565b80156139ff5750815160011480156139fd575081602001516002145b155b8015613a1957508151158015613a1757506020820151155b155b8015613a3357508151600080516020615478833981519152115b8015610a56575050602001516000805160206154788339815191521190565b6000613a5d83613870565b613a9f5760405162461bcd60e51b815260206004820152601360248201527224b73b30b634b210383ab13634b19035b2bc9760691b6044820152606401610aa6565b7f30644e72e131a029b85045b68181585d2833e84879b9709143e1f593f000000182101580613acc575081155b15613b105760405162461bcd60e51b815260206004820152601460248201527324b73b30b634b210383934bb30ba329035b2bc9760611b6044820152606401610aa6565b6000613b1c84846138a9565b51949350505050565b6000613b328484846141aa565b905081838509156109fa57600101806109fa5763ae47f7026000526004601cfd5b613b8760405180608001604052806000815260200160006001600160401b0316815260200160008152602001600081525090565b6001600160601b03821660009081526001602081905260408220908101549054909190613bbf90600160681b900460ff16600a615291565b6001600160601b038516600090815260046020908152604080832081516101808101835281546001600160401b038082168352600160401b820416948201949094529495509293929190830190600160801b900460ff166002811115613c2757613c27614835565b6002811115613c3857613c38614835565b81528154600160881b81046001600160401b0316602080840191909152600160c81b90910460ff1615156040808401919091526001840154606084015260028401546080840152600384015460a0840152600484015460c0840152805180820182526005850154815260068501548184015260e08401526007840154610100840152600884018054825181850281018501909352808352610120909401939192909190830182828015613d3c57602002820191906000526020600020906000905b82829054906101000a90046001600160401b03166001600160401b031681526020019060080190602082600701049283019260010382029150808411613cf95790505b505050919092525050506001600160601b03861660009081526008602052604081209192508080613d6b845490565b905060005b81811015613f66576000806000613d87888b614251565b9250925092508860c00151811015613e185760c08901511580613dbc57508a613db98d604001518c8c60c001516141aa565b10155b15613dd757613dd08c604001518b8d613b25565b8c52613ddf565b60c08901518c525b8b518703613df7576001600160401b03861660208d01525b613e0a8c604001518b8e600001516141aa565b60608d015250613f66915050565b613e278c604001518b836141aa565b60608d018190528b11613e7a57613e438c604001518b8d613b25565b808d528703613e60576001600160401b03861660208d0152613df7565b600060208d0152613e0a8c604001518b8e600001516141aa565b809650829550818c604001818151613e929190614fa6565b90525060408c0151613ea5908b836141aa565b60608d018190528b11613ec8578b52506001600160401b031660208a0152613f66565b613ed3600186614f93565b8403613f505760c08901511580613efc57508a613ef98d604001518c8c60c001516139af565b10155b15613f1757613f108c604001518b8d613f73565b8c52613f1f565b60c08901518c525b8b518103613f37576001600160401b03831660208d01525b613f4a8c604001518b8e600001516141aa565b60608d01525b5050508080613f5e90614fcf565b915050613d70565b5050505050505050919050565b6000826000190484118302158202613f935763ad251c276000526004601cfd5b50910281810615159190040190565b6000826001600160601b031611613ff25760405162461bcd60e51b81526020600482015260146024820152731a5b9d985b1a59081b5a5b905b5bdd5b9d13dd5d60621b6044820152606401610aa6565b6000613fff8585856142a5565b6000818152600189016020526040902054909150156140555760405162461bcd60e51b815260206004820152601260248201527162696420616c72656164792065786973747360701b6044820152606401610aa6565b60008681526001880160205260409020546140a95760405162461bcd60e51b8152602060048201526014602482015273707265764b6579206e6f7420696e20717565756560601b6044820152606401610aa6565b6140b48682846142ff565b6141005760405162461bcd60e51b815260206004820152601760248201527f696e76616c696420696e7365727420706f736974696f6e0000000000000000006044820152606401610aa6565b60008681526001880160205260409020545b61411d8183856142ff565b1561413b576000818152600189016020526040902054909650614112565b60008781526001890160205260408082208490558382528120829055885490899061416583614fcf565b91905055505050505050505050565b60006000805160206154788339815191528284099392505050565b60006000805160206154788339815191528284089392505050565b600083830260001984860981811082019003806141df57836141d45763ae47f7026000526004601cfd5b5082900490506109fa565b8084116141f45763ae47f7026000526004601cfd5b83858709600085810386169586900495848311909303908390038390046001010292030417600383026002908118808502820302808502820302808502820302808502820302808502820302808502909103020290509392505050565b6000806000806142608661438e565b9195506001600160601b039081169450909150811660000361428657506000905061429e565b61429a8386836001600160601b0316613f73565b9150505b9250925092565b604080516001600160c01b031960c086901b1660208201526001600160a01b031960a085811b8216602884015284901b166034820152600091016040516020818303038152906040526142f79061543c565b949350505050565b600060c084811c90606086811c9187919087901c9087901c87866143316001600160601b03808816908b908816613f73565b90506000614352846001600160601b03168b856001600160601b0316613f73565b905080820361437f57846001600160401b0316886001600160401b031610985050505050505050506109fa565b1096506109fa95505050505050565b6001600160601b03600160c01b036000908152600182016020526040812054819081906001600160c01b0381016143f85760405162461bcd60e51b815260206004820152600e60248201526d717565756520697320656d70747960901b6044820152606401610aa6565b600081815260018601602052604080822080546001600160601b03600160c01b03845291832091909155828252819055855490869061443683615460565b909155505060c081901c95606082901c9550909350915050565b6040805161010081018252600080825260208201819052918101829052606081018290526080810182905260a0810182905260c0810182905260e081019190915290565b6040805160a081018252600080825260208201819052918101829052606081018290529060808201905b905290565b6040518060400160405280600081526020016144be604051806040016040528060008152602001600081525090565b60408051610180810182526000808252602082018190529091820190815260200160006001600160401b0316815260200160001515815260200160008152602001600081526020016000815260200160008152602001614565604051806040016040528060008152602001600081525090565b815260200160008152602001606081525090565b6040518060a0016040528060006001600160a01b0316815260200160006001600160a01b031681526020016000815260200160008152602001600081525090565b80356001600160601b03811681146145d157600080fd5b919050565b6000806000606084860312156145eb57600080fd5b6145f4846145ba565b95602085013595506040909401359392505050565b6020808252825182820181905260009190848201906040850190845b8181101561464a5783516001600160401b031683529284019291840191600101614625565b50909695505050505050565b60006020828403121561466857600080fd5b6109fa826145ba565b60008083601f84011261468357600080fd5b5081356001600160401b0381111561469a57600080fd5b6020830191508360208260051b850101111561186657600080fd5b6000806000604084860312156146ca57600080fd5b6146d3846145ba565b925060208401356001600160401b038111156146ee57600080fd5b6146fa86828701614671565b9497909650939450505050565b60005b8381101561472257818101518382015260200161470a565b50506000910152565b60008151808452614743816020860160208601614707565b601f01601f19169290920160200192915050565b6040808252835182820181905260009190606090818501906020808901865b838110156147c457815180516001600160a01b039081168752848201511684870152878101518887015286810151878701526080908101519086015260a09094019390820190600101614776565b5050868303908701525061156f818761472b565b6020815260006109fa602083018461472b565b80356001600160401b03811681146145d157600080fd5b6000806040838503121561481557600080fd5b61481e836145ba565b915061482c602084016147eb565b90509250929050565b634e487b7160e01b600052602160045260246000fd5b6003811061205557612055614835565b6001600160a01b0386811682526001600160601b038681166020840152851660408301528316606082015260a081016148938361484b565b8260808301529695505050505050565b803565ffffffffffff811681146145d157600080fd5b6000602082840312156148cb57600080fd5b6109fa826148a3565b8481528360208201528260408201526080606082015260006148f9608083018461472b565b9695505050505050565b6000806000806060858703121561491957600080fd5b614922856145ba565b9350614930602086016147eb565b925060408501356001600160401b0381111561494b57600080fd5b61495787828801614671565b95989497509550505050565b828152606081016109fa602083018480518252602090810151910152565b60008060008060006080868803121561499957600080fd5b6149a2866145ba565b9450602086013593506149b7604087016147eb565b925060608601356001600160401b038111156149d257600080fd5b6149de88828901614671565b969995985093965092949392505050565b60008060408385031215614a0257600080fd5b614a0b836145ba565b946020939093013593505050565b80356001600160a01b03811681146145d157600080fd5b60008060008060808587031215614a4657600080fd5b614a4f856145ba565b9350614a5d602086016147eb565b925060408501359150614a7260608601614a19565b905092959194509250565b60008060008060008060a08789031215614a9657600080fd5b614a9f876145ba565b9550614aad60208801614a19565b9450614abb60408801614a19565b93506060870135925060808701356001600160401b0380821115614ade57600080fd5b818901915089601f830112614af257600080fd5b813581811115614b0157600080fd5b8a6020828501011115614b1357600080fd5b6020830194508093505050509295509295509295565b6020810160028310614b3d57614b3d614835565b91905290565b60006101008201905060018060a01b0380855116835260208501516001600160601b0380821660208601528060408801511660408601525050806060860151166060840152506080840151614b978161484b565b6080830152825160a0830152602092830151805160c08401529092015160e090910152919050565b634e487b7160e01b600052604160045260246000fd5b60405160a081016001600160401b0381118282101715614bf757614bf7614bbf565b60405290565b604080519081016001600160401b0381118282101715614bf757614bf7614bbf565b604051601f8201601f191681016001600160401b0381118282101715614c4757614c47614bbf565b604052919050565b801515811461205557600080fd5b803560ff811681146145d157600080fd5b60008060008060808587031215614c8457600080fd5b614c8d856145ba565b93506020808601356001600160401b0380821115614caa57600080fd5b9087019060a0828a031215614cbe57600080fd5b614cc6614bd5565b614ccf836148a3565b8152614cdc8484016148a3565b848201526040830135614cee81614c4f565b604082015260608381013590820152608083013582811115614d0f57600080fd5b80840193505089601f840112614d2457600080fd5b823582811115614d3657614d36614bbf565b614d48601f8201601f19168601614c1f565b92508083528a85828601011115614d5e57600080fd5b80858501868501376000908301909401939093526080830152509250614d8660408601614c5d565b9150614a7260608601614c5d565b6020810160048310614b3d57614b3d614835565b614db18161484b565b9052565b600081518084526020808501945080840160005b83811015614dee5781516001600160401b031687529582019590820190600101614dc9565b509495945050505050565b60208152614e136020820183516001600160401b03169052565b60006020830151614e2f60408401826001600160401b03169052565b506040830151614e426060840182614da8565b5060608301516001600160401b038116608084015250608083015180151560a08401525060a083015160c083015260c083015160e083015260e0830151610100818185015280850151915050610120818185015280850151915050610140614eb68185018380518252602090810151910152565b840151610180840152506101608301516101a0808401526142f76101c0840182614db5565b6001600160401b038c811682528b81166020830152610180820190614eff8c61484b565b8b6040840152808b1660608401525088151560808301528760a08301528660c08301528560e083015284610100830152614f4761012083018580518252602090810151910152565b826101608301529c9b505050505050505050505050565b838152826020820152606060408201526000611447606083018461472b565b634e487b7160e01b600052601160045260246000fd5b81810381811115610a5657610a56614f7d565b80820180821115610a5657610a56614f7d565b634e487b7160e01b600052603260045260246000fd5b600060018201614fe157614fe1614f7d565b5060010190565b600060208284031215614ffa57600080fd5b81516109fa81614c4f565b600181811c9082168061501957607f821691505b60208210810361503957634e487b7160e01b600052602260045260246000fd5b50919050565b65ffffffffffff81811683821601908082111561505e5761505e614f7d565b5092915050565b601f82111561278b57600081815260208120601f850160051c8101602086101561508c5750805b601f850160051c820191505b818110156150ab57828155600101615098565b505050505050565b81516001600160401b038111156150cc576150cc614bbf565b6150e0816150da8454615005565b84615065565b602080601f83116001811461511557600084156150fd5750858301515b600019600386901b1c1916600185901b1785556150ab565b600085815260208120601f198616915b8281101561514457888601518255948401946001909101908401615125565b50858210156151625787850151600019600388901b60f8161c191681555b5050505050600190811b01905550565b60006020828403121561518457600080fd5b6109fa826147eb565b6001600160401b0382811682821603908082111561505e5761505e614f7d565b600181815b808511156151e85781600019048211156151ce576151ce614f7d565b808516156151db57918102915b93841c93908002906151b2565b509250929050565b6000826151ff57506001610a56565b8161520c57506000610a56565b8160018114615222576002811461522c57615248565b6001915050610a56565b60ff84111561523d5761523d614f7d565b50506001821b610a56565b5060208310610133831016604e8410600b841016171561526b575081810a610a56565b61527583836151ad565b806000190482111561528957615289614f7d565b029392505050565b60006109fa60ff8416836151f0565b6001600160401b0381811683821601908082111561505e5761505e614f7d565b60006001600160401b038083168181036152dc576152dc614f7d565b6001019392505050565b634e487b7160e01b600052603160045260246000fd5b600080828403606081121561531057600080fd5b833592506040601f198201121561532657600080fd5b5061532f614bfd565b6020840135815260408401356020820152809150509250929050565b805162ffffff811681146145d157600080fd5b60006040828403121561537057600080fd5b615378614bfd565b9050815181526020820151602082015292915050565b600060a082840312156153a057600080fd5b604051608081018181106001600160401b03821117156153c2576153c2614bbf565b604052825181526153d56020840161534b565b60208201526153e66040840161534b565b60408201526153f8846060850161535e565b60608201529392505050565b60008251615416818460208701614707565b9190910192915050565b60006040828403121561543257600080fd5b6109fa838361535e565b805160208083015191908110156150395760001960209190910360031b1b16919050565b60008161546f5761546f614f7d565b50600019019056fe30644e72e131a029b85045b68181585d97816a916871ca8d3c208c16d87cfd47a264697066735822122097ebc52a0c3e5d1bddc824eac155020ccfac4f53f98b5c38d57e3a2e4d44f0df64736f6c63430008130033",
    "linkReferences": {}
  },
  "methodIdentifiers": {
    "INIT()": "ea643914",
    "PARENT()": "122b83f9",
    "TYPE()": "bb24fe8a",
    "VEECODE()": "d61735ca",
    "auction(uint96,(uint48,uint48,bool,uint256,bytes),uint8,uint8)": "bae96bdd",
    "auctionData(uint96)": "e2cfa6ea",
    "auctionType()": "994595e1",
    "bid(uint96,address,address,uint256,bytes)": "87698a31",
    "bids(uint96,uint64)": "0fb276fc",
    "cancelAuction(uint96)": "b04046df",
    "capacityInQuote(uint96)": "39792cdc",
    "claimBids(uint96,uint64[])": "0a35511b",
    "claimProceeds(uint96)": "24546b2d",
    "decryptAndSortBids(uint96,uint64,bytes32[])": "25e34a8e",
    "decryptBid(uint96,uint64)": "a1a61ec5",
    "decryptedBids(uint96)": "de1d3112",
    "dedicatedSettlePeriod()": "a85cebb6",
    "encryptedBids(uint96,uint64)": "54c87c01",
    "getAuctionData(uint96)": "cadb3383",
    "getBid(uint96,uint64)": "a8bf44e4",
    "getBidIdAtIndex(uint96,uint256)": "7d7b6853",
    "getBidIds(uint96,uint256,uint256)": "00b33217",
    "getLot(uint96)": "4e1f4258",
    "getNextInQueue(uint96,bytes32)": "8bde6109",
    "getNumBids(uint96)": "d899a337",
    "getNumBidsInQueue(uint96)": "0cf5538d",
    "getPartialFill(uint96)": "a16f7ef7",
    "hasEnded(uint96)": "03855921",
    "isLive(uint96)": "732efc03",
    "lotAuctionOutput(uint96)": "0cd0bcf2",
    "lotData(uint96)": "5806afc3",
    "minAuctionDuration()": "54134876",
    "refundBid(uint96,uint64,uint256,address)": "7d9234bc",
    "remainingCapacity(uint96)": "ace54da5",
    "setDedicatedSettlePeriod(uint48)": "29da5abd",
    "setMinAuctionDuration(uint48)": "12d6ef2d",
    "settle(uint96)": "fb9d3cb6",
    "submitPrivateKey(uint96,uint256,uint64,bytes32[])": "79fd0c1f"
  },
  "id": 88
}