{
  "abi": [
    {
      "type": "constructor",
      "inputs": [
        {
          "name": "auctionHouse_",
          "type": "address",
          "internalType": "address"
        }
      ],
      "stateMutability": "nonpayable"
    },
    {
      "type": "function",
      "name": "INIT",
      "inputs": [],
      "outputs": [],
      "stateMutability": "nonpayable"
    },
    {
      "type": "function",
      "name": "PARENT",
      "inputs": [],
      "outputs": [
        {
          "name": "",
          "type": "address",
          "internalType": "address"
        }
      ],
      "stateMutability": "view"
    },
    {
      "type": "function",
      "name": "TYPE",
      "inputs": [],
      "outputs": [
        {
          "name": "",
          "type": "uint8",
          "internalType": "enum Module.Type"
        }
      ],
      "stateMutability": "pure"
    },
    {
      "type": "function",
      "name": "VEECODE",
      "inputs": [],
      "outputs": [
        {
          "name": "",
          "type": "bytes7",
          "internalType": "Veecode"
        }
      ],
      "stateMutability": "pure"
    },
    {
      "type": "function",
      "name": "abort",
      "inputs": [
        {
          "name": "lotId_",
          "type": "uint96",
          "internalType": "uint96"
        }
      ],
      "outputs": [],
      "stateMutability": "nonpayable"
    },
    {
      "type": "function",
      "name": "auction",
      "inputs": [
        {
          "name": "lotId_",
          "type": "uint96",
          "internalType": "uint96"
        },
        {
          "name": "params_",
          "type": "tuple",
          "internalType": "struct IAuction.AuctionParams",
          "components": [
            {
              "name": "start",
              "type": "uint48",
              "internalType": "uint48"
            },
            {
              "name": "duration",
              "type": "uint48",
              "internalType": "uint48"
            },
            {
              "name": "capacityInQuote",
              "type": "bool",
              "internalType": "bool"
            },
            {
              "name": "capacity",
              "type": "uint256",
              "internalType": "uint256"
            },
            {
              "name": "implParams",
              "type": "bytes",
              "internalType": "bytes"
            }
          ]
        },
        {
          "name": "quoteTokenDecimals_",
          "type": "uint8",
          "internalType": "uint8"
        },
        {
          "name": "baseTokenDecimals_",
          "type": "uint8",
          "internalType": "uint8"
        }
      ],
      "outputs": [],
      "stateMutability": "nonpayable"
    },
    {
      "type": "function",
      "name": "auctionData",
      "inputs": [
        {
          "name": "lotId",
          "type": "uint96",
          "internalType": "uint96"
        }
      ],
      "outputs": [
        {
          "name": "nextBidId",
          "type": "uint64",
          "internalType": "uint64"
        },
        {
          "name": "nextDecryptIndex",
          "type": "uint64",
          "internalType": "uint64"
        },
        {
          "name": "status",
          "type": "uint8",
          "internalType": "enum EncryptedMarginalPrice.LotStatus"
        },
        {
          "name": "marginalBidId",
          "type": "uint64",
          "internalType": "uint64"
        },
        {
          "name": "marginalPrice",
          "type": "uint256",
          "internalType": "uint256"
        },
        {
          "name": "minPrice",
          "type": "uint256",
          "internalType": "uint256"
        },
        {
          "name": "minFilled",
          "type": "uint256",
          "internalType": "uint256"
        },
        {
          "name": "minBidSize",
          "type": "uint256",
          "internalType": "uint256"
        },
        {
          "name": "publicKey",
          "type": "tuple",
          "internalType": "struct Point",
          "components": [
            {
              "name": "x",
              "type": "uint256",
              "internalType": "uint256"
            },
            {
              "name": "y",
              "type": "uint256",
              "internalType": "uint256"
            }
          ]
        },
        {
          "name": "privateKey",
          "type": "uint256",
          "internalType": "uint256"
        }
      ],
      "stateMutability": "view"
    },
    {
      "type": "function",
      "name": "auctionType",
      "inputs": [],
      "outputs": [
        {
          "name": "",
          "type": "uint8",
          "internalType": "enum IAuction.AuctionType"
        }
      ],
      "stateMutability": "pure"
    },
    {
      "type": "function",
      "name": "bid",
      "inputs": [
        {
          "name": "lotId_",
          "type": "uint96",
          "internalType": "uint96"
        },
        {
          "name": "bidder_",
          "type": "address",
          "internalType": "address"
        },
        {
          "name": "referrer_",
          "type": "address",
          "internalType": "address"
        },
        {
          "name": "amount_",
          "type": "uint256",
          "internalType": "uint256"
        },
        {
          "name": "auctionData_",
          "type": "bytes",
          "internalType": "bytes"
        }
      ],
      "outputs": [
        {
          "name": "bidId",
          "type": "uint64",
          "internalType": "uint64"
        }
      ],
      "stateMutability": "nonpayable"
    },
    {
      "type": "function",
      "name": "bids",
      "inputs": [
        {
          "name": "lotId",
          "type": "uint96",
          "internalType": "uint96"
        },
        {
          "name": "bidId",
          "type": "uint64",
          "internalType": "uint64"
        }
      ],
      "outputs": [
        {
          "name": "bidder",
          "type": "address",
          "internalType": "address"
        },
        {
          "name": "amount",
          "type": "uint96",
          "internalType": "uint96"
        },
        {
          "name": "minAmountOut",
          "type": "uint96",
          "internalType": "uint96"
        },
        {
          "name": "referrer",
          "type": "address",
          "internalType": "address"
        },
        {
          "name": "status",
          "type": "uint8",
          "internalType": "enum EncryptedMarginalPrice.BidStatus"
        }
      ],
      "stateMutability": "view"
    },
    {
      "type": "function",
      "name": "cancelAuction",
      "inputs": [
        {
          "name": "lotId_",
          "type": "uint96",
          "internalType": "uint96"
        }
      ],
      "outputs": [],
      "stateMutability": "nonpayable"
    },
    {
      "type": "function",
      "name": "capacityInQuote",
      "inputs": [
        {
          "name": "lotId_",
          "type": "uint96",
          "internalType": "uint96"
        }
      ],
      "outputs": [
        {
          "name": "",
          "type": "bool",
          "internalType": "bool"
        }
      ],
      "stateMutability": "view"
    },
    {
      "type": "function",
      "name": "claimBids",
      "inputs": [
        {
          "name": "lotId_",
          "type": "uint96",
          "internalType": "uint96"
        },
        {
          "name": "bidIds_",
          "type": "uint64[]",
          "internalType": "uint64[]"
        }
      ],
      "outputs": [
        {
          "name": "bidClaims",
          "type": "tuple[]",
          "internalType": "struct IBatchAuction.BidClaim[]",
          "components": [
            {
              "name": "bidder",
              "type": "address",
              "internalType": "address"
            },
            {
              "name": "referrer",
              "type": "address",
              "internalType": "address"
            },
            {
              "name": "paid",
              "type": "uint256",
              "internalType": "uint256"
            },
            {
              "name": "payout",
              "type": "uint256",
              "internalType": "uint256"
            },
            {
              "name": "refund",
              "type": "uint256",
              "internalType": "uint256"
            }
          ]
        },
        {
          "name": "auctionOutput",
          "type": "bytes",
          "internalType": "bytes"
        }
      ],
      "stateMutability": "nonpayable"
    },
    {
      "type": "function",
      "name": "decryptAndSortBids",
      "inputs": [
        {
          "name": "lotId_",
          "type": "uint96",
          "internalType": "uint96"
        },
        {
          "name": "num_",
          "type": "uint64",
          "internalType": "uint64"
        },
        {
          "name": "sortHints_",
          "type": "bytes32[]",
          "internalType": "bytes32[]"
        }
      ],
      "outputs": [],
      "stateMutability": "nonpayable"
    },
    {
      "type": "function",
      "name": "decryptBid",
      "inputs": [
        {
          "name": "lotId_",
          "type": "uint96",
          "internalType": "uint96"
        },
        {
          "name": "bidId_",
          "type": "uint64",
          "internalType": "uint64"
        }
      ],
      "outputs": [
        {
          "name": "amountOut",
          "type": "uint256",
          "internalType": "uint256"
        }
      ],
      "stateMutability": "view"
    },
    {
      "type": "function",
      "name": "decryptedBids",
      "inputs": [
        {
          "name": "lotId",
          "type": "uint96",
          "internalType": "uint96"
        }
      ],
      "outputs": [
        {
          "name": "numBids",
          "type": "uint256",
          "internalType": "uint256"
        }
      ],
      "stateMutability": "view"
    },
    {
      "type": "function",
      "name": "dedicatedSettlePeriod",
      "inputs": [],
      "outputs": [
        {
          "name": "",
          "type": "uint48",
          "internalType": "uint48"
        }
      ],
      "stateMutability": "view"
    },
    {
      "type": "function",
      "name": "encryptedBids",
      "inputs": [
        {
          "name": "lotId",
          "type": "uint96",
          "internalType": "uint96"
        },
        {
          "name": "bidId",
          "type": "uint64",
          "internalType": "uint64"
        }
      ],
      "outputs": [
        {
          "name": "encryptedAmountOut",
          "type": "uint256",
          "internalType": "uint256"
        },
        {
          "name": "bidPubKey",
          "type": "tuple",
          "internalType": "struct Point",
          "components": [
            {
              "name": "x",
              "type": "uint256",
              "internalType": "uint256"
            },
            {
              "name": "y",
              "type": "uint256",
              "internalType": "uint256"
            }
          ]
        }
      ],
      "stateMutability": "view"
    },
    {
      "type": "function",
      "name": "getAuctionData",
      "inputs": [
        {
          "name": "lotId_",
          "type": "uint96",
          "internalType": "uint96"
        }
      ],
      "outputs": [
        {
          "name": "auctionData_",
          "type": "tuple",
          "internalType": "struct EncryptedMarginalPrice.AuctionData",
          "components": [
            {
              "name": "nextBidId",
              "type": "uint64",
              "internalType": "uint64"
            },
            {
              "name": "nextDecryptIndex",
              "type": "uint64",
              "internalType": "uint64"
            },
            {
              "name": "status",
              "type": "uint8",
              "internalType": "enum EncryptedMarginalPrice.LotStatus"
            },
            {
              "name": "marginalBidId",
              "type": "uint64",
              "internalType": "uint64"
            },
            {
              "name": "marginalPrice",
              "type": "uint256",
              "internalType": "uint256"
            },
            {
              "name": "minPrice",
              "type": "uint256",
              "internalType": "uint256"
            },
            {
              "name": "minFilled",
              "type": "uint256",
              "internalType": "uint256"
            },
            {
              "name": "minBidSize",
              "type": "uint256",
              "internalType": "uint256"
            },
            {
              "name": "publicKey",
              "type": "tuple",
              "internalType": "struct Point",
              "components": [
                {
                  "name": "x",
                  "type": "uint256",
                  "internalType": "uint256"
                },
                {
                  "name": "y",
                  "type": "uint256",
                  "internalType": "uint256"
                }
              ]
            },
            {
              "name": "privateKey",
              "type": "uint256",
              "internalType": "uint256"
            },
            {
              "name": "bidIds",
              "type": "uint64[]",
              "internalType": "uint64[]"
            }
          ]
        }
      ],
      "stateMutability": "view"
    },
    {
      "type": "function",
      "name": "getBid",
      "inputs": [
        {
          "name": "lotId_",
          "type": "uint96",
          "internalType": "uint96"
        },
        {
          "name": "bidId_",
          "type": "uint64",
          "internalType": "uint64"
        }
      ],
      "outputs": [
        {
          "name": "bid",
          "type": "tuple",
          "internalType": "struct EncryptedMarginalPrice.Bid",
          "components": [
            {
              "name": "bidder",
              "type": "address",
              "internalType": "address"
            },
            {
              "name": "amount",
              "type": "uint96",
              "internalType": "uint96"
            },
            {
              "name": "minAmountOut",
              "type": "uint96",
              "internalType": "uint96"
            },
            {
              "name": "referrer",
              "type": "address",
              "internalType": "address"
            },
            {
              "name": "status",
              "type": "uint8",
              "internalType": "enum EncryptedMarginalPrice.BidStatus"
            }
          ]
        },
        {
          "name": "encryptedBid",
          "type": "tuple",
          "internalType": "struct EncryptedMarginalPrice.EncryptedBid",
          "components": [
            {
              "name": "encryptedAmountOut",
              "type": "uint256",
              "internalType": "uint256"
            },
            {
              "name": "bidPubKey",
              "type": "tuple",
              "internalType": "struct Point",
              "components": [
                {
                  "name": "x",
                  "type": "uint256",
                  "internalType": "uint256"
                },
                {
                  "name": "y",
                  "type": "uint256",
                  "internalType": "uint256"
                }
              ]
            }
          ]
        }
      ],
      "stateMutability": "view"
    },
    {
      "type": "function",
      "name": "getBidIdAtIndex",
      "inputs": [
        {
          "name": "lotId_",
          "type": "uint96",
          "internalType": "uint96"
        },
        {
          "name": "index_",
          "type": "uint256",
          "internalType": "uint256"
        }
      ],
      "outputs": [
        {
          "name": "",
          "type": "uint64",
          "internalType": "uint64"
        }
      ],
      "stateMutability": "view"
    },
    {
      "type": "function",
      "name": "getBidIds",
      "inputs": [
        {
          "name": "lotId_",
          "type": "uint96",
          "internalType": "uint96"
        },
        {
          "name": "startIndex_",
          "type": "uint256",
          "internalType": "uint256"
        },
        {
          "name": "num_",
          "type": "uint256",
          "internalType": "uint256"
        }
      ],
      "outputs": [
        {
          "name": "",
          "type": "uint64[]",
          "internalType": "uint64[]"
        }
      ],
      "stateMutability": "view"
    },
    {
      "type": "function",
      "name": "getLot",
      "inputs": [
        {
          "name": "lotId_",
          "type": "uint96",
          "internalType": "uint96"
        }
      ],
      "outputs": [
        {
          "name": "",
          "type": "tuple",
          "internalType": "struct IAuction.Lot",
          "components": [
            {
              "name": "start",
              "type": "uint48",
              "internalType": "uint48"
            },
            {
              "name": "conclusion",
              "type": "uint48",
              "internalType": "uint48"
            },
            {
              "name": "quoteTokenDecimals",
              "type": "uint8",
              "internalType": "uint8"
            },
            {
              "name": "baseTokenDecimals",
              "type": "uint8",
              "internalType": "uint8"
            },
            {
              "name": "capacityInQuote",
              "type": "bool",
              "internalType": "bool"
            },
            {
              "name": "capacity",
              "type": "uint256",
              "internalType": "uint256"
            },
            {
              "name": "sold",
              "type": "uint256",
              "internalType": "uint256"
            },
            {
              "name": "purchased",
              "type": "uint256",
              "internalType": "uint256"
            }
          ]
        }
      ],
      "stateMutability": "view"
    },
    {
      "type": "function",
      "name": "getNextInQueue",
      "inputs": [
        {
          "name": "lotId_",
          "type": "uint96",
          "internalType": "uint96"
        },
        {
          "name": "key_",
          "type": "bytes32",
          "internalType": "bytes32"
        }
      ],
      "outputs": [
        {
          "name": "",
          "type": "bytes32",
          "internalType": "bytes32"
        }
      ],
      "stateMutability": "view"
    },
    {
      "type": "function",
      "name": "getNumBids",
      "inputs": [
        {
          "name": "lotId_",
          "type": "uint96",
          "internalType": "uint96"
        }
      ],
      "outputs": [
        {
          "name": "",
          "type": "uint256",
          "internalType": "uint256"
        }
      ],
      "stateMutability": "view"
    },
    {
      "type": "function",
      "name": "getNumBidsInQueue",
      "inputs": [
        {
          "name": "lotId_",
          "type": "uint96",
          "internalType": "uint96"
        }
      ],
      "outputs": [
        {
          "name": "",
          "type": "uint256",
          "internalType": "uint256"
        }
      ],
      "stateMutability": "view"
    },
    {
      "type": "function",
      "name": "getPartialFill",
      "inputs": [
        {
          "name": "lotId_",
          "type": "uint96",
          "internalType": "uint96"
        }
      ],
      "outputs": [
        {
          "name": "",
          "type": "tuple",
          "internalType": "struct EncryptedMarginalPrice.PartialFill",
          "components": [
            {
              "name": "bidId",
              "type": "uint64",
              "internalType": "uint64"
            },
            {
              "name": "refund",
              "type": "uint96",
              "internalType": "uint96"
            },
            {
              "name": "payout",
              "type": "uint256",
              "internalType": "uint256"
            }
          ]
        }
      ],
      "stateMutability": "view"
    },
    {
      "type": "function",
      "name": "hasEnded",
      "inputs": [
        {
          "name": "lotId_",
          "type": "uint96",
          "internalType": "uint96"
        }
      ],
      "outputs": [
        {
          "name": "",
          "type": "bool",
          "internalType": "bool"
        }
      ],
      "stateMutability": "view"
    },
    {
      "type": "function",
      "name": "isLive",
      "inputs": [
        {
          "name": "lotId_",
          "type": "uint96",
          "internalType": "uint96"
        }
      ],
      "outputs": [
        {
          "name": "",
          "type": "bool",
          "internalType": "bool"
        }
      ],
      "stateMutability": "view"
    },
    {
      "type": "function",
      "name": "lotAuctionOutput",
      "inputs": [
        {
          "name": "",
          "type": "uint96",
          "internalType": "uint96"
        }
      ],
      "outputs": [
        {
          "name": "",
          "type": "bytes",
          "internalType": "bytes"
        }
      ],
      "stateMutability": "view"
    },
    {
      "type": "function",
      "name": "lotData",
      "inputs": [
        {
          "name": "id",
          "type": "uint96",
          "internalType": "uint96"
        }
      ],
      "outputs": [
        {
          "name": "start",
          "type": "uint48",
          "internalType": "uint48"
        },
        {
          "name": "conclusion",
          "type": "uint48",
          "internalType": "uint48"
        },
        {
          "name": "quoteTokenDecimals",
          "type": "uint8",
          "internalType": "uint8"
        },
        {
          "name": "baseTokenDecimals",
          "type": "uint8",
          "internalType": "uint8"
        },
        {
          "name": "capacityInQuote",
          "type": "bool",
          "internalType": "bool"
        },
        {
          "name": "capacity",
          "type": "uint256",
          "internalType": "uint256"
        },
        {
          "name": "sold",
          "type": "uint256",
          "internalType": "uint256"
        },
        {
          "name": "purchased",
          "type": "uint256",
          "internalType": "uint256"
        }
      ],
      "stateMutability": "view"
    },
    {
      "type": "function",
      "name": "minAuctionDuration",
      "inputs": [],
      "outputs": [
        {
          "name": "",
          "type": "uint48",
          "internalType": "uint48"
        }
      ],
      "stateMutability": "view"
    },
    {
      "type": "function",
      "name": "refundBid",
      "inputs": [
        {
          "name": "lotId_",
          "type": "uint96",
          "internalType": "uint96"
        },
        {
          "name": "bidId_",
          "type": "uint64",
          "internalType": "uint64"
        },
        {
          "name": "index_",
          "type": "uint256",
          "internalType": "uint256"
        },
        {
          "name": "caller_",
          "type": "address",
          "internalType": "address"
        }
      ],
      "outputs": [
        {
          "name": "refund",
          "type": "uint256",
          "internalType": "uint256"
        }
      ],
      "stateMutability": "nonpayable"
    },
    {
      "type": "function",
      "name": "remainingCapacity",
      "inputs": [
        {
          "name": "lotId_",
          "type": "uint96",
          "internalType": "uint96"
        }
      ],
      "outputs": [
        {
          "name": "",
          "type": "uint256",
          "internalType": "uint256"
        }
      ],
      "stateMutability": "view"
    },
    {
      "type": "function",
      "name": "setDedicatedSettlePeriod",
      "inputs": [
        {
          "name": "period_",
          "type": "uint48",
          "internalType": "uint48"
        }
      ],
      "outputs": [],
      "stateMutability": "nonpayable"
    },
    {
      "type": "function",
      "name": "setMinAuctionDuration",
      "inputs": [
        {
          "name": "duration_",
          "type": "uint48",
          "internalType": "uint48"
        }
      ],
      "outputs": [],
      "stateMutability": "nonpayable"
    },
    {
      "type": "function",
      "name": "settle",
      "inputs": [
        {
          "name": "lotId_",
          "type": "uint96",
          "internalType": "uint96"
        },
        {
          "name": "num_",
          "type": "uint256",
          "internalType": "uint256"
        }
      ],
      "outputs": [
        {
          "name": "totalIn",
          "type": "uint256",
          "internalType": "uint256"
        },
        {
          "name": "totalOut",
          "type": "uint256",
          "internalType": "uint256"
        },
        {
          "name": "capacity",
          "type": "uint256",
          "internalType": "uint256"
        },
        {
          "name": "finished",
          "type": "bool",
          "internalType": "bool"
        },
        {
          "name": "auctionOutput",
          "type": "bytes",
          "internalType": "bytes"
        }
      ],
      "stateMutability": "nonpayable"
    },
    {
      "type": "function",
      "name": "submitPrivateKey",
      "inputs": [
        {
          "name": "lotId_",
          "type": "uint96",
          "internalType": "uint96"
        },
        {
          "name": "privateKey_",
          "type": "uint256",
          "internalType": "uint256"
        },
        {
          "name": "num_",
          "type": "uint64",
          "internalType": "uint64"
        },
        {
          "name": "sortHints_",
          "type": "bytes32[]",
          "internalType": "bytes32[]"
        }
      ],
      "outputs": [],
      "stateMutability": "nonpayable"
    },
    {
      "type": "event",
      "name": "BidDecrypted",
      "inputs": [
        {
          "name": "lotId",
          "type": "uint96",
          "indexed": true,
          "internalType": "uint96"
        },
        {
          "name": "bidId",
          "type": "uint64",
          "indexed": true,
          "internalType": "uint64"
        },
        {
          "name": "amountIn",
          "type": "uint96",
          "indexed": false,
          "internalType": "uint96"
        },
        {
          "name": "amountOut",
          "type": "uint96",
          "indexed": false,
          "internalType": "uint96"
        }
      ],
      "anonymous": false
    },
    {
      "type": "error",
      "name": "Auction_AmountLessThanMinimum",
      "inputs": []
    },
    {
      "type": "error",
      "name": "Auction_DedicatedSettlePeriod",
      "inputs": [
        {
          "name": "lotId",
          "type": "uint96",
          "internalType": "uint96"
        }
      ]
    },
    {
      "type": "error",
      "name": "Auction_InsufficientCapacity",
      "inputs": []
    },
    {
      "type": "error",
      "name": "Auction_InvalidBidId",
      "inputs": [
        {
          "name": "lotId",
          "type": "uint96",
          "internalType": "uint96"
        },
        {
          "name": "bidId",
          "type": "uint96",
          "internalType": "uint96"
        }
      ]
    },
    {
      "type": "error",
      "name": "Auction_InvalidDuration",
      "inputs": [
        {
          "name": "duration_",
          "type": "uint48",
          "internalType": "uint48"
        },
        {
          "name": "minimum_",
          "type": "uint48",
          "internalType": "uint48"
        }
      ]
    },
    {
      "type": "error",
      "name": "Auction_InvalidKey",
      "inputs": []
    },
    {
      "type": "error",
      "name": "Auction_InvalidLotId",
      "inputs": [
        {
          "name": "lotId",
          "type": "uint96",
          "internalType": "uint96"
        }
      ]
    },
    {
      "type": "error",
      "name": "Auction_InvalidParams",
      "inputs": []
    },
    {
      "type": "error",
      "name": "Auction_InvalidStart",
      "inputs": [
        {
          "name": "start_",
          "type": "uint48",
          "internalType": "uint48"
        },
        {
          "name": "minimum_",
          "type": "uint48",
          "internalType": "uint48"
        }
      ]
    },
    {
      "type": "error",
      "name": "Auction_LotActive",
      "inputs": [
        {
          "name": "lotId",
          "type": "uint96",
          "internalType": "uint96"
        }
      ]
    },
    {
      "type": "error",
      "name": "Auction_LotNotActive",
      "inputs": [
        {
          "name": "lotId",
          "type": "uint96",
          "internalType": "uint96"
        }
      ]
    },
    {
      "type": "error",
      "name": "Auction_LotNotConcluded",
      "inputs": [
        {
          "name": "lotId",
          "type": "uint96",
          "internalType": "uint96"
        }
      ]
    },
    {
      "type": "error",
      "name": "Auction_NotAuthorized",
      "inputs": []
    },
    {
      "type": "error",
      "name": "Auction_NotBidder",
      "inputs": []
    },
    {
      "type": "error",
      "name": "Auction_NotImplemented",
      "inputs": []
    },
    {
      "type": "error",
      "name": "Auction_OnlyLotOwner",
      "inputs": []
    },
    {
      "type": "error",
      "name": "Auction_WrongState",
      "inputs": [
        {
          "name": "lotId",
          "type": "uint96",
          "internalType": "uint96"
        }
      ]
    },
    {
      "type": "error",
      "name": "Bid_WrongState",
      "inputs": [
        {
          "name": "lotId",
          "type": "uint96",
          "internalType": "uint96"
        },
        {
          "name": "bidId",
          "type": "uint64",
          "internalType": "uint64"
        }
      ]
    },
    {
      "type": "error",
      "name": "Module_InvalidParent",
      "inputs": [
        {
          "name": "parent_",
          "type": "address",
          "internalType": "address"
        }
      ]
    },
    {
      "type": "error",
      "name": "Module_OnlyInternal",
      "inputs": []
    },
    {
      "type": "error",
      "name": "Module_OnlyParent",
      "inputs": [
        {
          "name": "caller_",
          "type": "address",
          "internalType": "address"
        }
      ]
    },
    {
      "type": "error",
      "name": "NotPermitted",
      "inputs": [
        {
          "name": "caller",
          "type": "address",
          "internalType": "address"
        }
      ]
    }
  ],
  "bytecode": {
    "object": "0x60a06040523480156200001157600080fd5b50604051620053ce380380620053ce8339810160408190526200003491620000a5565b80806001600160a01b0381166200006d57604051631462ddc360e21b81526001600160a01b038216600482015260240160405180910390fd5b6001600160a01b03166080525050600080546201518065ffffffffffff199182168117909255600280549091169091179055620000d7565b600060208284031215620000b857600080fd5b81516001600160a01b0381168114620000d057600080fd5b9392505050565b6080516152646200016a6000396000818161036201528181610a5001528181610a9701528181610c2101528181610c8c01528181610cce01528181610e85015281816111d20152818161121401528181611320015281816113620152818161173b0152818161177d01528181611881015281816118c301528181611cef01528181611d310152611e9f01526152646000f3fe608060405234801561001057600080fd5b50600436106102315760003560e01c80637d9234bc11610130578063b04046df116100b8578063d61735ca1161007c578063d61735ca146107ac578063d899a337146107c3578063de1d3112146107d6578063e2cfa6ea146107f6578063ea6439141461089657600080fd5b8063b04046df14610733578063bae96bdd14610746578063bb24fe8a14610759578063cadb338314610768578063cd280bdb1461078857600080fd5b8063a16f7ef7116100ff578063a16f7ef714610679578063a1a61ec5146106c0578063a85cebb6146106d3578063a8bf44e4146106e5578063ace54da51461070657600080fd5b80637d9234bc1461063157806387698a31146106445780638bde610914610657578063994595e11461066a57600080fd5b806325e34a8e116101be57806354c87c011161018257806354c87c01146104ce5780635806afc314610525578063732efc03146105e057806379fd0c1f146105f35780637d7b68531461060657600080fd5b806325e34a8e146103c457806329da5abd146103d757806339792cdc146103ea5780634e1f42581461041d57806354134876146104a557600080fd5b80630cf5538d116102055780630cf5538d146102c35780630fb276fc146102e4578063122b83f91461035d57806312d6ef2d1461039c5780631ed75f1f146103b157600080fd5b8062b3321714610236578063038559211461025f5780630a35511b146102825780630cd0bcf2146102a3575b600080fd5b6102496102443660046143bb565b61089e565b60405161025691906143ee565b60405180910390f35b61027261026d36600461443b565b6109e7565b6040519015158152602001610256565b61029561029036600461449a565b610a42565b60405161025692919061453c565b6102b66102b136600461443b565b610b5e565b60405161025691906145bd565b6102d66102d136600461443b565b610bf8565b604051908152602001610256565b61034c6102f23660046145e7565b60076020908152600092835260408084209091529082529020805460018201546002909201546001600160a01b03808316936001600160601b03600160a01b909404841693811692600160601b9091049091169060ff1685565b604051610256959493929190614640565b6103847f000000000000000000000000000000000000000000000000000000000000000081565b6040516001600160a01b039091168152602001610256565b6103af6103aa36600461469e565b610c16565b005b6103af6103bf36600461443b565b610c81565b6103af6103d23660046146b9565b610dc8565b6103af6103e536600461469e565b610e7a565b6102726103f836600461443b565b6001600160601b0316600090815260016020526040902054600160701b900460ff1690565b61043061042b36600461443b565b610f11565b604051610256919060006101008201905065ffffffffffff8084511683528060208501511660208401525060ff604084015116604083015260ff606084015116606083015260808301511515608083015260a083015160a083015260c083015160c083015260e083015160e083015292915050565b6000546104b79065ffffffffffff1681565b60405165ffffffffffff9091168152602001610256565b6105176104dc3660046145e7565b600860209081526000928352604080842082529183529181902080548251808401909352600182015483526002909101549282019290925282565b604051610256929190614719565b61059361053336600461443b565b6001602081905260009182526040909120805491810154600282015460039092015465ffffffffffff80851694600160301b81049091169360ff600160601b8304811694600160681b8404821694600160701b9094049091169290919088565b6040805165ffffffffffff998a16815298909716602089015260ff958616968801969096529390921660608601521515608085015260a084015260c083015260e082015261010001610256565b6102726105ee36600461443b565b610fae565b6103af610601366004614737565b611036565b6106196106143660046147a5565b611167565b6040516001600160401b039091168152602001610256565b6102d661063f3660046147e6565b6111c5565b610619610652366004614833565b611313565b6102d66106653660046147a5565b61143d565b600160405161025691906148df565b61068c61068736600461443b565b611469565b6040805182516001600160401b031681526020808401516001600160601b0316908201529181015190820152606001610256565b6102d66106ce3660046145e7565b6114e8565b6002546104b79065ffffffffffff1681565b6106f86106f33660046145e7565b611614565b6040516102569291906148f9565b6102d661071436600461443b565b6001600160601b03166000908152600160208190526040909120015490565b6103af61074136600461443b565b611730565b6103af610754366004614a24565b611876565b60006040516102569190614b4a565b61077b61077636600461443b565b611b55565b6040516102569190614baf565b61079b6107963660046147a5565b611cdd565b604051610256959493929190614c7e565b604051653031454d504160d01b8152602001610256565b6102d66107d136600461443b565b611e6a565b6102d66107e436600461443b565b60096020526000908152604090205481565b61088061080436600461443b565b6004602081815260009283526040928390208054600182015460028301546003840154958401548751808901909852600585015488526006850154958801959095526007909301546001600160401b0380841697600160401b850482169760ff600160801b87041697600160881b90960490921695939491928a565b6040516102569a99989796959493929190614cab565b6103af611e94565b60606108a984611ee1565b6001600160601b038416600090815260046020526040902060080180548085106108e657604051633350f82560e11b815260040160405180910390fd5b60006108f28683614d3a565b905060008186116109035785610905565b815b90506000816001600160401b0381111561092157610921614975565b60405190808252806020026020018201604052801561094a578160200160208202803683370190505b50905060005b828110156109d85785610963828b614d4d565b8154811061097357610973614d60565b90600052602060002090600491828204019190066008029054906101000a90046001600160401b03168282815181106109ae576109ae614d60565b6001600160401b0390921660209283029190910190910152806109d081614d76565b915050610950565b509450505050505b9392505050565b6001600160601b03811660009081526001602052604081205465ffffffffffff600160301b909104811642909116101580610a3c57506001600160601b03821660009081526001602081905260409091200154155b92915050565b606080336001600160a01b037f00000000000000000000000000000000000000000000000000000000000000001614610a95576040516366e069e160e01b81523360048201526024015b60405180910390fd5b7f00000000000000000000000000000000000000000000000000000000000000006001600160a01b0316635c774ed76040518163ffffffff1660e01b8152600401602060405180830381865afa158015610af3573d6000803e3d6000fd5b505050506040513d601f19601f82011682018060405250810190610b179190614d8f565b15610b355760405163115250c560e21b815260040160405180910390fd5b610b3e85611ee1565b610b4785611f2c565b610b52858585611f8b565b91509150935093915050565b60036020526000908152604090208054610b7790614dac565b80601f0160208091040260200160405190810160405280929190818152602001828054610ba390614dac565b8015610bf05780601f10610bc557610100808354040283529160200191610bf0565b820191906000526020600020905b815481529060010190602001808311610bd357829003601f168201915b505050505081565b6001600160601b038116600090815260096020526040812054610a3c565b336001600160a01b037f00000000000000000000000000000000000000000000000000000000000000001614610c61576040516366e069e160e01b8152336004820152602401610a8c565b6000805465ffffffffffff191665ffffffffffff92909216919091179055565b336001600160a01b037f00000000000000000000000000000000000000000000000000000000000000001614610ccc576040516366e069e160e01b8152336004820152602401610a8c565b7f00000000000000000000000000000000000000000000000000000000000000006001600160a01b0316635c774ed76040518163ffffffff1660e01b8152600401602060405180830381865afa158015610d2a573d6000803e3d6000fd5b505050506040513d601f19601f82011682018060405250810190610d4e9190614d8f565b15610d6c5760405163115250c560e21b815260040160405180910390fd5b610d7581611ee1565b610d7e816120b9565b610d8781612138565b610d90816121c4565b6001600160601b0381166000908152600460205260409020805460ff60801b1916600160811b17815560001960019091015550565b50565b610dd184611ee1565b610dda84612223565b610de384612274565b60006001600160601b038516600090815260046020526040902054600160801b900460ff166002811115610e1957610e1961461a565b141580610e3f57506001600160601b038416600090815260046020526040902060070154155b15610e6857604051636985f4c960e11b81526001600160601b0385166004820152602401610a8c565b610e7484848484612335565b50505050565b336001600160a01b037f00000000000000000000000000000000000000000000000000000000000000001614610ec5576040516366e069e160e01b8152336004820152602401610a8c565b62093a808165ffffffffffff161115610ef157604051633350f82560e11b815260040160405180910390fd5b6002805465ffffffffffff191665ffffffffffff92909216919091179055565b610f1961423e565b506001600160601b0316600090815260016020818152604092839020835161010081018552815465ffffffffffff8082168352600160301b8204169382019390935260ff600160601b8404811695820195909552600160681b830485166060820152600160701b909204909316151560808201529082015460a0820152600282015460c082015260039091015460e082015290565b6001600160601b0381166000908152600160208190526040822001541580159061100357506001600160601b03821660009081526001602052604090205465ffffffffffff600160301b909104811642909116105b8015610a3c5750506001600160601b031660009081526001602052604090205465ffffffffffff90811642909116101590565b61103f85611ee1565b61104885612274565b61105185612223565b61105a856121c4565b6001600160601b0385166000908152600460205260409020600701541561109f57604051636985f4c960e11b81526001600160601b0386166004820152602401610a8c565b60006110c1604051806040016040528060018152602001600281525086612566565b6001600160601b03871660009081526004602090815260409182902082518084019093526005810154808452600690910154918301919091528251929350909114158061111657508060200151826020015114155b1561113457604051632fd26a8f60e21b815260040160405180910390fd5b6001600160601b038716600090815260046020526040902060070186905561115e87868686612335565b50505050505050565b6001600160601b038216600090815260046020526040812060080180548390811061119457611194614d60565b90600052602060002090600491828204019190066008029054906101000a90046001600160401b0316905092915050565b6000336001600160a01b037f00000000000000000000000000000000000000000000000000000000000000001614611212576040516366e069e160e01b8152336004820152602401610a8c565b7f00000000000000000000000000000000000000000000000000000000000000006001600160a01b0316635c774ed76040518163ffffffff1660e01b8152600401602060405180830381865afa158015611270573d6000803e3d6000fd5b505050506040513d601f19601f820116820180604052508101906112949190614d8f565b156112b25760405163115250c560e21b815260040160405180910390fd5b6112bb85611ee1565b6112c485612223565b6112ce858561264a565b6112d9858584612716565b6112e3858561277e565b6112ec85612138565b6112f5856127fb565b6112fe856121c4565b61130a85858585612840565b95945050505050565b6000336001600160a01b037f00000000000000000000000000000000000000000000000000000000000000001614611360576040516366e069e160e01b8152336004820152602401610a8c565b7f00000000000000000000000000000000000000000000000000000000000000006001600160a01b0316635c774ed76040518163ffffffff1660e01b8152600401602060405180830381865afa1580156113be573d6000803e3d6000fd5b505050506040513d601f19601f820116820180604052508101906113e29190614d8f565b156114005760405163115250c560e21b815260040160405180910390fd5b61140987611ee1565b61141287612223565b61141b87612a19565b611424876121c4565b611432878787878787612ab6565b979650505050505050565b6001600160601b03821660009081526009602090815260408083208484526001019091528120546109e0565b604080516060810182526000808252602082018190529181019190915261148f82611ee1565b61149882611f2c565b506001600160601b03908116600090815260056020908152604091829020825160608101845281546001600160401b0381168252600160401b900490941691840191909152600101549082015290565b6001600160601b03821660009081526004602052604081206007015480820361152f57604051636985f4c960e11b81526001600160601b0385166004820152602401610a8c565b6001600160601b03841660008181526007602090815260408083206001600160401b0388168085529083528184209484526008835281842090845282528083208054825180840184526001830154815260029092015482850152855483516001600160a01b031960a08d811b8216978301979097526001600160601b0319606084901b16602c830152600160a01b90920490951b16928401929092526115f2928690604c016040516020818303038152906040528051906020012060001c612cbc565b608081901c016fffffffffffffffffffffffffffffffff169695505050505050565b61161c614282565b6116246142b1565b61162d84611ee1565b611637848461264a565b6001600160601b0380851660008181526007602090815260408083206001600160401b03891680855290835281842094845260088352818420908452825291829020825160a08101845284546001600160a01b038082168352600160a01b909104871693820193909352600185015495861693810193909352600160601b9094041660608201526002808301549293928491608084019160ff16908111156116e1576116e161461a565b60028111156116f2576116f261461a565b9052506040805180820182528354815281518083019092526001840154825260029093015460208281019190915283015293509150505b9250929050565b336001600160a01b037f0000000000000000000000000000000000000000000000000000000000000000161461177b576040516366e069e160e01b8152336004820152602401610a8c565b7f00000000000000000000000000000000000000000000000000000000000000006001600160a01b0316635c774ed76040518163ffffffff1660e01b8152600401602060405180830381865afa1580156117d9573d6000803e3d6000fd5b505050506040513d601f19601f820116820180604052508101906117fd9190614d8f565b1561181b5760405163115250c560e21b815260040160405180910390fd5b61182481611ee1565b61182d81612a19565b61183681612d01565b6001600160601b03166000908152600160208190526040822080546bffffffffffff0000000000001916600160301b4265ffffffffffff16021781550155565b336001600160a01b037f000000000000000000000000000000000000000000000000000000000000000016146118c1576040516366e069e160e01b8152336004820152602401610a8c565b7f00000000000000000000000000000000000000000000000000000000000000006001600160a01b0316635c774ed76040518163ffffffff1660e01b8152600401602060405180830381865afa15801561191f573d6000803e3d6000fd5b505050506040513d601f19601f820116820180604052508101906119439190614d8f565b156119615760405163115250c560e21b815260040160405180910390fd5b825165ffffffffffff16158015906119845750825165ffffffffffff4281169116105b156119b8578251604051639421aa8960e01b815265ffffffffffff9182166004820152429091166024820152604401610a8c565b600054602084015165ffffffffffff91821691161015611a055760208301516000546040516302c1012760e21b815265ffffffffffff928316600482015291166024820152604401610a8c565b611a0d61423e565b835165ffffffffffff1615611a23578351611a25565b425b65ffffffffffff168082526020850151611a3e91614de6565b65ffffffffffff16602082015260ff8084166040808401919091529083166060808401919091529085015115156080808401919091529085015160a0830152840151611a8d9086908390612d34565b6001600160601b039490941660009081526001602081815260409283902087518154928901519489015160608a015160808b015165ffffffffffff9384166001600160601b031990961695909517600160301b93909716929092029590951761ffff60601b1916600160601b60ff9687160260ff60681b191617600160681b95909116949094029390931760ff60701b1916600160701b9115159190910217825560a08601519082015560c0850151600282015560e090940151600390940193909355505050565b611b5d6142e0565b611b6682611ee1565b6001600160601b03821660009081526004602090815260409182902082516101608101845281546001600160401b038082168352600160401b8204169382019390935292909190830190600160801b900460ff166002811115611bcb57611bcb61461a565b6002811115611bdc57611bdc61461a565b81528154600160881b90046001600160401b031660208083019190915260018301546040808401919091526002840154606084015260038401546080840152600484015460a0840152805180820182526005850154815260068501548184015260c0840152600784015460e0840152600884018054825181850281018501909352808352610100909401939192909190830182828015611ccd57602002820191906000526020600020906000905b82829054906101000a90046001600160401b03166001600160401b031681526020019060080190602082600701049283019260010382029150808411611c8a5790505b5050505050815250509050919050565b60008080806060336001600160a01b037f00000000000000000000000000000000000000000000000000000000000000001614611d2f576040516366e069e160e01b8152336004820152602401610a8c565b7f00000000000000000000000000000000000000000000000000000000000000006001600160a01b0316635c774ed76040518163ffffffff1660e01b8152600401602060405180830381865afa158015611d8d573d6000803e3d6000fd5b505050506040513d601f19601f82011682018060405250810190611db19190614d8f565b15611dcf5760405163115250c560e21b815260040160405180910390fd5b611dd887611ee1565b611de187612223565b611dea87612274565b611df3876121c4565b6001600160601b0387166000908152600160205260409020611e158888612ec0565b6001600160601b038c16600090815260016020908152604080832060038082018990556002909101879055909152902093995091975094509250611e598382614e5a565b506001015492509295509295909350565b6000611e7582611ee1565b506001600160601b031660009081526004602052604090206008015490565b336001600160a01b037f00000000000000000000000000000000000000000000000000000000000000001614611edf576040516366e069e160e01b8152336004820152602401610a8c565b565b6001600160601b03811660009081526001602052604081205465ffffffffffff169003610dc557604051638c54233f60e01b81526001600160601b0382166004820152602401610a8c565b60026001600160601b038216600090815260046020526040902054600160801b900460ff166002811115611f6257611f6261461a565b14610dc557604051636985f4c960e11b81526001600160601b0382166004820152602401610a8c565b60608082806001600160401b03811115611fa757611fa7614975565b604051908082528060200260200182016040528015611fe057816020015b611fcd61435e565b815260200190600190039081611fc55790505b50925060005b818110156120af5761201e8787878481811061200457612004614d60565b90506020020160208101906120199190614f19565b61264a565b61204e8787878481811061203457612034614d60565b90506020020160208101906120499190614f19565b61277e565b61207e8787878481811061206457612064614d60565b90506020020160208101906120799190614f19565b61323a565b5084828151811061209157612091614d60565b602002602001018190525080806120a790614d76565b915050611fe6565b5050935093915050565b6001600160601b03811660009081526001602052604090205465ffffffffffff600160301b90910481164290911610801561210f57506001600160601b0381166000908152600160208190526040909120015415155b15610dc55760405163f7babce560e01b81526001600160601b0382166004820152602401610a8c565b6001600160601b03811660009081526001602052604090205465ffffffffffff600160301b9091048116904216811180159061219757506002546121849065ffffffffffff1682614de6565b65ffffffffffff164265ffffffffffff16105b156121c057604051630340ca2960e11b81526001600160601b0383166004820152602401610a8c565b5050565b60026001600160601b038216600090815260046020526040902054600160801b900460ff1660028111156121fa576121fa61461a565b03610dc557604051636985f4c960e11b81526001600160601b0382166004820152602401610a8c565b6001600160601b03811660009081526001602052604090205465ffffffffffff908116429091161015610dc5576040516306f6ec2760e31b81526001600160601b0382166004820152602401610a8c565b60006001600160601b038216600090815260046020526040902054600160801b900460ff1660028111156122aa576122aa61461a565b1480156122d957506001600160601b0381166000908152600160205260409020544265ffffffffffff90911611155b801561230c57506001600160601b03811660009081526001602052604090205442600160301b90910465ffffffffffff16115b15610dc557604051636985f4c960e11b81526001600160601b0382166004820152602401610a8c565b6001600160601b0384166000908152600460205260409020546001600160401b03600160401b9091048116908416821461238257604051633350f82560e11b815260040160405180910390fd5b6001600160601b038516600090815260046020526040902060080180546123b3906001600160401b03841690614d3a565b856001600160401b031611156123d35780546123d0908390614f34565b94505b6001600160601b03861660009081526001602052604081205461240190600160681b900460ff16600a615038565b905060005b866001600160401b0316816001600160401b031610156124ab57612499888461242f8488615047565b6001600160401b03168154811061244857612448614d60565b90600052602060002090600491828204019190066008029054906101000a90046001600160401b03168888856001600160401b031681811061248c5761248c614d60565b905060200201358561343e565b806124a381615067565b915050612406565b506001600160601b038716600090815260046020526040902080548791906008906124e7908490600160401b90046001600160401b0316615047565b82546101009290920a6001600160401b0381810219909316918316021790915583546001600160601b038a16600090815260046020526040902054600160401b900490911603905061115e57505050506001600160601b03929092166000908152600460205260409020805460ff60801b1916600160801b1790555050565b6040805180820190915260008082526020820152612583836135e9565b6125cf5760405162461bcd60e51b815260206004820152601860248201527f496e76616c69642067656e657261746f7220706f696e742e00000000000000006044820152606401610a8c565b7f30644e72e131a029b85045b68181585d2833e84879b9709143e1f593f0000001821015806125fc575081155b156126405760405162461bcd60e51b815260206004820152601460248201527324b73b30b634b210383934bb30ba329035b2bc9760611b6044820152606401610a8c565b6109e08383613622565b6001600160601b0382166000908152600460205260409020546001600160401b03908116908216106126a9576040516322a16ebf60e01b81526001600160601b03831660048201526001600160401b0382166024820152604401610a8c565b6001600160601b03821660009081526007602090815260408083206001600160401b03851684529091529020546001600160a01b03166121c0576040516322a16ebf60e01b81526001600160601b03831660048201526001600160401b0382166024820152604401610a8c565b6001600160601b03831660009081526007602090815260408083206001600160401b03861684529091529020546001600160a01b03828116911614612779576040516319b1d90760e31b81526001600160a01b0382166004820152602401610a8c565b505050565b6001600160601b03821660009081526007602090815260408083206001600160401b0385168452909152902060029081015460ff16818111156127c3576127c361461a565b036121c057604051631359755560e11b81526001600160601b03831660048201526001600160401b0382166024820152604401610a8c565b6001600160601b03811660009081526004602052604090206007015415610dc557604051636985f4c960e11b81526001600160601b0382166004820152602401610a8c565b6001600160601b03841660008181526007602090815260408083206001600160401b038816845282528083206002908101805460ff191690911790559282526004905290812060080180548085106128ab57604051633350f82560e11b815260040160405180910390fd5b60008286815481106128bf576128bf614d60565b6000918252602090912060048204015460039091166008026101000a90046001600160401b0390811691508716811461290b57604051633350f82560e11b815260040160405180910390fd5b82612917600184614d3a565b8154811061292757612927614d60565b90600052602060002090600491828204019190066008029054906101000a90046001600160401b031683878154811061296257612962614d60565b90600052602060002090600491828204019190066008026101000a8154816001600160401b0302191690836001600160401b03160217905550828054806129ab576129ab61508d565b6000828152602080822060046000199094019384040180546001600160401b03600860038716026101000a810219909116909155929093556001600160601b03808c168252600784526040808320938c168352929093522054600160a01b9004169350505050949350505050565b6001600160601b03811660009081526001602052604090205465ffffffffffff600160301b90910481164290911610612a70576040516306f6ec2760e31b81526001600160601b0382166004820152602401610a8c565b6001600160601b0381166000908152600160208190526040822001549003610dc5576040516306f6ec2760e31b81526001600160601b0382166004820152602401610a8c565b60008080612ac6848601866150a3565b90925090506001600160601b03861115612af357604051633350f82560e11b815260040160405180910390fd5b6001600160601b03891660009081526004602081905260409091200154861015612b3057604051636aa9da6d60e01b815260040160405180910390fd5b612b3981613728565b612b5657604051632fd26a8f60e21b815260040160405180910390fd5b6001600160601b038916600090815260046020526040812080546001600160401b031691612b8383615067565b82546101009290920a6001600160401b038181021990931691831602179091556001600160601b038b8116600090815260076020908152604080832094861683529390529182206001600160a01b038c8116600160a01b8c85160217825560018281018054909416600160601b928e1692909202919091179092556002810180549497509093909160ff19909116908302179055505060408051808201825292835260208084019283526001600160601b039a909a1660008181526008808d528382206001600160401b03888116808552918f5285842097518855955180516001808a0191909155908f01516002909801979097559282526004808e5293822081018054968701815582529b902091840490910180546003909416909a026101000a918202199092169102179096555093949350505050565b600080612cc985856137a4565b604080516020808201939093528082019590955280518086038201815260609095019052835193019290922094909418949350505050565b612d0a81612274565b6001600160601b03166000908152600460205260409020805460ff60801b1916600160811b179055565b600081806020019051810190612d4a9190615122565b8051909150600003612d6f57604051633350f82560e11b815260040160405180910390fd5b620186a065ffffffffffff16816020015162ffffff161115612da457604051633350f82560e11b815260040160405180910390fd5b60408101516001600160601b031080612dbf57506040810151155b15612ddd57604051633350f82560e11b815260040160405180910390fd5b612dea8160600151613728565b612e0757604051633350f82560e11b815260040160405180910390fd5b6001600160601b03841660009081526004602090815260409091208251600282015560a0850151918301519091612e469162ffffff16620186a0613877565b600382015560408281015160048301556060830151805160058401556020908101516006840155825467ffffffffffffffff1916600190811784556001600160601b0388166000908152600983528381206001600160601b03600160c01b038252909101909152206002600160c01b031990555050505050565b60008080606060016001600160601b038716600090815260046020526040902054600160801b900460ff166002811115612efc57612efc61461a565b14612f2557604051636985f4c960e11b81526001600160601b0387166004820152602401610a8c565b6000612f3187876138a5565b6001600160601b03881660009081526001602052604081205491925090612f6390600160681b900460ff16600a615038565b60c08301519091501515600003612fd2575060808101516001600160601b03881660009081526006602052604090819020918255606083015160018301558201516002909101805467ffffffffffffffff19166001600160401b0390921691909117905560c001519150613231565b6001600160601b03881660009081526001602081815260408084209092015460049091529120805460ff60801b1916600160811b1781556003015460a0840151108061303957506001600160601b0389166000908152600460205260409020600201548351105b1561306c5750506001600160601b038716600090815260046020526040902060001960019091015560c001519150613231565b82516001600160601b038a166000908152600460209081526040909120600181019290925584015181546001600160401b03909116600160881b0267ffffffffffffffff60881b1990911617905560a0830151811015613204576001600160601b03808a166000908152600760209081526040808320878301516001600160401b03168452909152812080548651919361311192600160a01b90920416908690613d3a565b90506000838660a001516131259190614d3a565b90506000604051806060016040528088602001516001600160401b031681526020016131728660000160149054906101000a90046001600160601b03166001600160601b03168587613d3a565b6001600160601b0316815260200161318a8486614d3a565b90526001600160601b03808f166000908152600560209081526040918290208451815492860151909416600160401b81026001600160a01b03199093166001600160401b03909516949094179190911781559083015160019091015560808901805192935090916131fc908390614d3a565b905250505050505b82608001519650808360a0015111613220578260a00151613222565b805b60c09093015192955091935050505b92959194509250565b61324261435e565b6001600160601b03831660008181526007602090815260408083206001600160401b038716845282528083206002808201805460ff1916909117905580546001600160a01b039081168752600180830154600160601b9004909116878501529484529390915281205460609291906132c590600160681b900460ff16600a615038565b60018301549091506000906001600160601b0316156133095782546001840154613304916001600160601b03600160a01b909104811691859116613d61565b61330c565b60005b6001600160601b038816600090815260046020908152604080832060010154600590925290912054919250906001600160401b0380891691160361339d5783546001600160601b03600160a01b9091048116604080890191909152898216600081815260056020818152938220600181015460608d01529290915290915254600160401b9004166080870152613433565b808211806133e1575080821480156133e157506001600160601b0388166000908152600460205260409020546001600160401b03600160881b909104811690881611155b15613414578354600160a01b90046001600160601b03166040870181905261340a908483613d3a565b6060870152613433565b8354600160a01b90046001600160601b03166040870181905260808701525b505050509250929050565b6001600160601b03841660009081526007602090815260408083206001600160401b038716845290915281209061347586866114e8565b905060006001600160601b03821161348a5750805b60028301805460ff191660011790556001600160601b038116156135855782546001600160601b0388811660009081526001602052604081205490926134f892600160a01b90910416906134e990600160681b900460ff16600a615038565b846001600160601b0316613d61565b90506001600160601b038110801561352b57506001600160601b0388166000908152600460205260409020600201548110155b156135835783546001600160601b03898116600090815260096020526040902061356592909189918b91600160a01b90910416868a613d90565b6001840180546001600160601b0319166001600160601b0384161790555b505b8254604080516001600160601b03600160a01b9093048316815283831660208201526001600160401b038916928a16917fbfea11d19705e7c3584fa7d3fb7ef96ca3c3ed4a1995383745345aaf5d4df58b910160405180910390a350505050505050565b805160009061360c90613605906136008180613f62565b613f62565b6003613f7d565b602083015161361b9080613f62565b1492915050565b6040805180820190915260008082526020820152825160208085015160405160009384936007936117709361366b93928a91019283526020830191909152604082015260600190565b60408051601f19818403018152908290526136859161519b565b6000604051808303818686fa925050503d80600081146136c1576040519150601f19603f3d011682016040523d82523d6000602084013e6136c6565b606091505b50915091508115806136d757508051155b156137145760405162461bcd60e51b815260206004820152600d60248201526c32b1a6bab6103330b4b632b21760991b6044820152606401610a8c565b8080602001905181019061130a91906151b7565b6000613733826135e9565b801561375157508151600114801561374f575081602001516002145b155b801561376b5750815115801561376957506020820151155b155b80156137855750815160008051602061520f833981519152115b8015610a3c5750506020015160008051602061520f8339815191521190565b60006137af836135e9565b6137f15760405162461bcd60e51b815260206004820152601360248201527224b73b30b634b210383ab13634b19035b2bc9760691b6044820152606401610a8c565b7f30644e72e131a029b85045b68181585d2833e84879b9709143e1f593f00000018210158061381e575081155b156138625760405162461bcd60e51b815260206004820152601460248201527324b73b30b634b210383934bb30ba329035b2bc9760611b6044820152606401610a8c565b600061386e8484613622565b51949350505050565b6000613884848484613f98565b905081838509156109e057600101806109e05763ae47f7026000526004601cfd5b6138f96040518060e001604052806000815260200160006001600160401b0316815260200160006001600160401b031681526020016000815260200160008152602001600081526020016000151581525090565b6001600160601b0383166000908152600160208190526040822090810154905490919061393190600160681b900460ff16600a615038565b6001600160601b038616600090815260046020908152604080832081516101608101835281546001600160401b038082168352600160401b820416948201949094529495509293929190830190600160801b900460ff1660028111156139995761399961461a565b60028111156139aa576139aa61461a565b81528154600160881b90046001600160401b031660208083019190915260018301546040808401919091526002840154606084015260038401546080840152600484015460a0840152805180820182526005850154815260068501548184015260c0840152600784015460e0840152600884018054825181850281018501909352808352610100909401939192909190830182828015613a9b57602002820191906000526020600020906000905b82829054906101000a90046001600160401b03166001600160401b031681526020019060080190602082600701049283019260010382029150808411613a585790505b505050919092525050506001600160601b03871660009081526006602052604090206001810154905460808701529091508015613afb576001600160601b038716600090815260066020526040902054613af6908483613f98565b613afe565b60005b60a08601526001600160601b03871660009081526009602090815260408083206006909252822060020154815491926001600160401b039091169190819003613b55575050600160c087015250610a3c9350505050565b888111801590613b655781613b67565b895b915060005b82811015613d2b576000806000613b83888c61403f565b925092509250828d604001906001600160401b031690816001600160401b031681525050808d6060018181525050613bc08d608001518c83613f98565b60a08e018190528c11613c2857613bdc8d608001518c8e613877565b808e528903613bf9576001600160401b03871660208e0152613c01565b600060208e01525b613c148d608001518c8f60000151613f98565b60a08e01525050600160c08c015250613d2b565b809850829650818d608001818151613c409190614d4d565b90525060808d0151613c53908c83613f98565b60a08e018190528c11613c7d578c52506001600160401b031660208b0152600160c08b0152613d2b565b613c88600187614d3a565b84148015613c935750845b15613d155760a08a01511580613cba57508b613cb88e608001518d8d60a00151613f98565b115b15613cd557613cce8d608001518c8e613877565b8d52613cdd565b60a08a01518d525b8c518103613cf5576001600160401b03831660208e01525b613d088d608001518c8f60000151613f98565b60a08e0152600160c08e01525b5050508080613d2390614d76565b915050613b6c565b50505050505050505092915050565b6000826000190484118302158202613d5a5763ad251c276000526004601cfd5b5091020490565b6000826000190484118302158202613d815763ad251c276000526004601cfd5b50910281810615159190040190565b6000826001600160601b031611613de05760405162461bcd60e51b81526020600482015260146024820152731a5b9d985b1a59081b5a5b905b5bdd5b9d13dd5d60621b6044820152606401610a8c565b6000613ded858585614093565b600081815260018901602052604090205490915015613e435760405162461bcd60e51b815260206004820152601260248201527162696420616c72656164792065786973747360701b6044820152606401610a8c565b6000868152600188016020526040902054613e975760405162461bcd60e51b8152602060048201526014602482015273707265764b6579206e6f7420696e20717565756560601b6044820152606401610a8c565b613ea28682846140ed565b613eee5760405162461bcd60e51b815260206004820152601760248201527f696e76616c696420696e7365727420706f736974696f6e0000000000000000006044820152606401610a8c565b60008681526001880160205260409020545b613f0b8183856140ed565b15613f29576000818152600189016020526040902054909650613f00565b600087815260018901602052604080822084905583825281208290558854908990613f5383614d76565b91905055505050505050505050565b600060008051602061520f8339815191528284099392505050565b600060008051602061520f8339815191528284089392505050565b60008383026000198486098181108201900380613fcd5783613fc25763ae47f7026000526004601cfd5b5082900490506109e0565b808411613fe25763ae47f7026000526004601cfd5b83858709600085810386169586900495848311909303908390038390046001010292030417600383026002908118808502820302808502820302808502820302808502820302808502820302808502909103020290509392505050565b60008060008061404e8661417c565b9195506001600160601b039081169450909150811660000361407457506000905061408c565b6140888386836001600160601b0316613d61565b9150505b9250925092565b604080516001600160c01b031960c086901b1660208201526001600160a01b031960a085811b8216602884015284901b166034820152600091016040516020818303038152906040526140e5906151d3565b949350505050565b600060c084811c90606086811c9187919087901c9087901c878661411f6001600160601b03808816908b908816613d61565b90506000614140846001600160601b03168b856001600160601b0316613d61565b905080820361416d57846001600160401b0316886001600160401b031610985050505050505050506109e0565b1096506109e095505050505050565b6001600160601b03600160c01b036000908152600182016020526040812054819081906001600160c01b0381016141e65760405162461bcd60e51b815260206004820152600e60248201526d717565756520697320656d70747960901b6044820152606401610a8c565b600081815260018601602052604080822080546001600160601b03600160c01b038452918320919091558282528190558554908690614224836151f7565b909155505060c081901c95606082901c9550909350915050565b6040805161010081018252600080825260208201819052918101829052606081018290526080810182905260a0810182905260c0810182905260e081019190915290565b6040805160a081018252600080825260208201819052918101829052606081018290529060808201905b905290565b6040518060400160405280600081526020016142ac604051806040016040528060008152602001600081525090565b60408051610160810182526000808252602082018190529091820190815260200160006001600160401b031681526020016000815260200160008152602001600081526020016000815260200161434a604051806040016040528060008152602001600081525090565b815260200160008152602001606081525090565b6040518060a0016040528060006001600160a01b0316815260200160006001600160a01b031681526020016000815260200160008152602001600081525090565b80356001600160601b03811681146143b657600080fd5b919050565b6000806000606084860312156143d057600080fd5b6143d98461439f565b95602085013595506040909401359392505050565b6020808252825182820181905260009190848201906040850190845b8181101561442f5783516001600160401b03168352928401929184019160010161440a565b50909695505050505050565b60006020828403121561444d57600080fd5b6109e08261439f565b60008083601f84011261446857600080fd5b5081356001600160401b0381111561447f57600080fd5b6020830191508360208260051b850101111561172957600080fd5b6000806000604084860312156144af57600080fd5b6144b88461439f565b925060208401356001600160401b038111156144d357600080fd5b6144df86828701614456565b9497909650939450505050565b60005b838110156145075781810151838201526020016144ef565b50506000910152565b600081518084526145288160208601602086016144ec565b601f01601f19169290920160200192915050565b6040808252835182820181905260009190606090818501906020808901865b838110156145a957815180516001600160a01b039081168752848201511684870152878101518887015286810151878701526080908101519086015260a0909401939082019060010161455b565b505086830390870152506114328187614510565b6020815260006109e06020830184614510565b80356001600160401b03811681146143b657600080fd5b600080604083850312156145fa57600080fd5b6146038361439f565b9150614611602084016145d0565b90509250929050565b634e487b7160e01b600052602160045260246000fd5b60038110610dc557610dc561461a565b6001600160a01b0386811682526001600160601b038681166020840152851660408301528316606082015260a0810161467883614630565b8260808301529695505050505050565b803565ffffffffffff811681146143b657600080fd5b6000602082840312156146b057600080fd5b6109e082614688565b600080600080606085870312156146cf57600080fd5b6146d88561439f565b93506146e6602086016145d0565b925060408501356001600160401b0381111561470157600080fd5b61470d87828801614456565b95989497509550505050565b828152606081016109e0602083018480518252602090810151910152565b60008060008060006080868803121561474f57600080fd5b6147588661439f565b94506020860135935061476d604087016145d0565b925060608601356001600160401b0381111561478857600080fd5b61479488828901614456565b969995985093965092949392505050565b600080604083850312156147b857600080fd5b6147c18361439f565b946020939093013593505050565b80356001600160a01b03811681146143b657600080fd5b600080600080608085870312156147fc57600080fd5b6148058561439f565b9350614813602086016145d0565b925060408501359150614828606086016147cf565b905092959194509250565b60008060008060008060a0878903121561484c57600080fd5b6148558761439f565b9550614863602088016147cf565b9450614871604088016147cf565b93506060870135925060808701356001600160401b038082111561489457600080fd5b818901915089601f8301126148a857600080fd5b8135818111156148b757600080fd5b8a60208285010111156148c957600080fd5b6020830194508093505050509295509295509295565b60208101600283106148f3576148f361461a565b91905290565b60006101008201905060018060a01b0380855116835260208501516001600160601b038082166020860152806040880151166040860152505080606086015116606084015250608084015161494d81614630565b6080830152825160a0830152602092830151805160c08401529092015160e090910152919050565b634e487b7160e01b600052604160045260246000fd5b60405160a081016001600160401b03811182821017156149ad576149ad614975565b60405290565b604080519081016001600160401b03811182821017156149ad576149ad614975565b604051601f8201601f191681016001600160401b03811182821017156149fd576149fd614975565b604052919050565b8015158114610dc557600080fd5b803560ff811681146143b657600080fd5b60008060008060808587031215614a3a57600080fd5b614a438561439f565b93506020808601356001600160401b0380821115614a6057600080fd5b9087019060a0828a031215614a7457600080fd5b614a7c61498b565b614a8583614688565b8152614a92848401614688565b848201526040830135614aa481614a05565b604082015260608381013590820152608083013582811115614ac557600080fd5b80840193505089601f840112614ada57600080fd5b823582811115614aec57614aec614975565b614afe601f8201601f191686016149d5565b92508083528a85828601011115614b1457600080fd5b80858501868501376000908301909401939093526080830152509250614b3c60408601614a13565b915061482860608601614a13565b60208101600483106148f3576148f361461a565b614b6781614630565b9052565b600081518084526020808501945080840160005b83811015614ba45781516001600160401b031687529582019590820190600101614b7f565b509495945050505050565b60208152614bc96020820183516001600160401b03169052565b60006020830151614be560408401826001600160401b03169052565b506040830151614bf86060840182614b5e565b5060608301516001600160401b038116608084015250608083015160a083015260a083015160c083015260c083015160e083015260e0830151610100818185015280850151915050610120614c598185018380518252602090810151910152565b84015161016084015250610140830151610180808401526140e56101a0840182614b6b565b858152846020820152836040820152821515606082015260a06080820152600061143260a0830184614510565b6001600160401b038b811682528a81166020830152610160820190614ccf8b614630565b8a6040840152808a166060840152508760808301528660a08301528560c08301528460e0830152614d0e61010083018580518252602090810151910152565b826101408301529b9a5050505050505050505050565b634e487b7160e01b600052601160045260246000fd5b81810381811115610a3c57610a3c614d24565b80820180821115610a3c57610a3c614d24565b634e487b7160e01b600052603260045260246000fd5b600060018201614d8857614d88614d24565b5060010190565b600060208284031215614da157600080fd5b81516109e081614a05565b600181811c90821680614dc057607f821691505b602082108103614de057634e487b7160e01b600052602260045260246000fd5b50919050565b65ffffffffffff818116838216019080821115614e0557614e05614d24565b5092915050565b601f82111561277957600081815260208120601f850160051c81016020861015614e335750805b601f850160051c820191505b81811015614e5257828155600101614e3f565b505050505050565b81516001600160401b03811115614e7357614e73614975565b614e8781614e818454614dac565b84614e0c565b602080601f831160018114614ebc5760008415614ea45750858301515b600019600386901b1c1916600185901b178555614e52565b600085815260208120601f198616915b82811015614eeb57888601518255948401946001909101908401614ecc565b5085821015614f095787850151600019600388901b60f8161c191681555b5050505050600190811b01905550565b600060208284031215614f2b57600080fd5b6109e0826145d0565b6001600160401b03828116828216039080821115614e0557614e05614d24565b600181815b80851115614f8f578160001904821115614f7557614f75614d24565b80851615614f8257918102915b93841c9390800290614f59565b509250929050565b600082614fa657506001610a3c565b81614fb357506000610a3c565b8160018114614fc95760028114614fd357614fef565b6001915050610a3c565b60ff841115614fe457614fe4614d24565b50506001821b610a3c565b5060208310610133831016604e8410600b8410161715615012575081810a610a3c565b61501c8383614f54565b806000190482111561503057615030614d24565b029392505050565b60006109e060ff841683614f97565b6001600160401b03818116838216019080821115614e0557614e05614d24565b60006001600160401b0380831681810361508357615083614d24565b6001019392505050565b634e487b7160e01b600052603160045260246000fd5b60008082840360608112156150b757600080fd5b833592506040601f19820112156150cd57600080fd5b506150d66149b3565b6020840135815260408401356020820152809150509250929050565b60006040828403121561510457600080fd5b61510c6149b3565b9050815181526020820151602082015292915050565b600060a0828403121561513457600080fd5b604051608081018181106001600160401b038211171561515657615156614975565b60405282518152602083015162ffffff8116811461517357600080fd5b60208201526040838101519082015261518f84606085016150f2565b60608201529392505050565b600082516151ad8184602087016144ec565b9190910192915050565b6000604082840312156151c957600080fd5b6109e083836150f2565b80516020808301519190811015614de05760001960209190910360031b1b16919050565b60008161520657615206614d24565b50600019019056fe30644e72e131a029b85045b68181585d97816a916871ca8d3c208c16d87cfd47a26469706673582212206d21d080427cd8861037374b52efe72dcba1ca23ddcfd1d89bd69c6845a3d9b564736f6c63430008130033",
    "linkReferences": {}
  },
  "methodIdentifiers": {
    "INIT()": "ea643914",
    "PARENT()": "122b83f9",
    "TYPE()": "bb24fe8a",
    "VEECODE()": "d61735ca",
    "abort(uint96)": "1ed75f1f",
    "auction(uint96,(uint48,uint48,bool,uint256,bytes),uint8,uint8)": "bae96bdd",
    "auctionData(uint96)": "e2cfa6ea",
    "auctionType()": "994595e1",
    "bid(uint96,address,address,uint256,bytes)": "87698a31",
    "bids(uint96,uint64)": "0fb276fc",
    "cancelAuction(uint96)": "b04046df",
    "capacityInQuote(uint96)": "39792cdc",
    "claimBids(uint96,uint64[])": "0a35511b",
    "decryptAndSortBids(uint96,uint64,bytes32[])": "25e34a8e",
    "decryptBid(uint96,uint64)": "a1a61ec5",
    "decryptedBids(uint96)": "de1d3112",
    "dedicatedSettlePeriod()": "a85cebb6",
    "encryptedBids(uint96,uint64)": "54c87c01",
    "getAuctionData(uint96)": "cadb3383",
    "getBid(uint96,uint64)": "a8bf44e4",
    "getBidIdAtIndex(uint96,uint256)": "7d7b6853",
    "getBidIds(uint96,uint256,uint256)": "00b33217",
    "getLot(uint96)": "4e1f4258",
    "getNextInQueue(uint96,bytes32)": "8bde6109",
    "getNumBids(uint96)": "d899a337",
    "getNumBidsInQueue(uint96)": "0cf5538d",
    "getPartialFill(uint96)": "a16f7ef7",
    "hasEnded(uint96)": "03855921",
    "isLive(uint96)": "732efc03",
    "lotAuctionOutput(uint96)": "0cd0bcf2",
    "lotData(uint96)": "5806afc3",
    "minAuctionDuration()": "54134876",
    "refundBid(uint96,uint64,uint256,address)": "7d9234bc",
    "remainingCapacity(uint96)": "ace54da5",
    "setDedicatedSettlePeriod(uint48)": "29da5abd",
    "setMinAuctionDuration(uint48)": "12d6ef2d",
    "settle(uint96,uint256)": "cd280bdb",
    "submitPrivateKey(uint96,uint256,uint64,bytes32[])": "79fd0c1f"
  },
  "id": 161
}