{
  "abi": [
    {
      "type": "constructor",
      "inputs": [
        {
          "name": "auctionHouse_",
          "type": "address",
          "internalType": "address"
        }
      ],
      "stateMutability": "nonpayable"
    },
    {
      "type": "function",
      "name": "INIT",
      "inputs": [],
      "outputs": [],
      "stateMutability": "nonpayable"
    },
    {
      "type": "function",
      "name": "PARENT",
      "inputs": [],
      "outputs": [
        {
          "name": "",
          "type": "address",
          "internalType": "address"
        }
      ],
      "stateMutability": "view"
    },
    {
      "type": "function",
      "name": "TYPE",
      "inputs": [],
      "outputs": [
        {
          "name": "",
          "type": "uint8",
          "internalType": "enum Module.Type"
        }
      ],
      "stateMutability": "pure"
    },
    {
      "type": "function",
      "name": "VEECODE",
      "inputs": [],
      "outputs": [
        {
          "name": "",
          "type": "bytes7",
          "internalType": "Veecode"
        }
      ],
      "stateMutability": "pure"
    },
    {
      "type": "function",
      "name": "abort",
      "inputs": [
        {
          "name": "lotId_",
          "type": "uint96",
          "internalType": "uint96"
        }
      ],
      "outputs": [],
      "stateMutability": "nonpayable"
    },
    {
      "type": "function",
      "name": "auction",
      "inputs": [
        {
          "name": "lotId_",
          "type": "uint96",
          "internalType": "uint96"
        },
        {
          "name": "params_",
          "type": "tuple",
          "internalType": "struct IAuction.AuctionParams",
          "components": [
            {
              "name": "start",
              "type": "uint48",
              "internalType": "uint48"
            },
            {
              "name": "duration",
              "type": "uint48",
              "internalType": "uint48"
            },
            {
              "name": "capacityInQuote",
              "type": "bool",
              "internalType": "bool"
            },
            {
              "name": "capacity",
              "type": "uint256",
              "internalType": "uint256"
            },
            {
              "name": "implParams",
              "type": "bytes",
              "internalType": "bytes"
            }
          ]
        },
        {
          "name": "quoteTokenDecimals_",
          "type": "uint8",
          "internalType": "uint8"
        },
        {
          "name": "baseTokenDecimals_",
          "type": "uint8",
          "internalType": "uint8"
        }
      ],
      "outputs": [],
      "stateMutability": "nonpayable"
    },
    {
      "type": "function",
      "name": "auctionType",
      "inputs": [],
      "outputs": [
        {
          "name": "",
          "type": "uint8",
          "internalType": "enum IAuction.AuctionType"
        }
      ],
      "stateMutability": "pure"
    },
    {
      "type": "function",
      "name": "bid",
      "inputs": [
        {
          "name": "lotId_",
          "type": "uint96",
          "internalType": "uint96"
        },
        {
          "name": "bidder_",
          "type": "address",
          "internalType": "address"
        },
        {
          "name": "referrer_",
          "type": "address",
          "internalType": "address"
        },
        {
          "name": "amount_",
          "type": "uint256",
          "internalType": "uint256"
        },
        {
          "name": "auctionData_",
          "type": "bytes",
          "internalType": "bytes"
        }
      ],
      "outputs": [
        {
          "name": "bidId",
          "type": "uint64",
          "internalType": "uint64"
        }
      ],
      "stateMutability": "nonpayable"
    },
    {
      "type": "function",
      "name": "cancelAuction",
      "inputs": [
        {
          "name": "lotId_",
          "type": "uint96",
          "internalType": "uint96"
        }
      ],
      "outputs": [],
      "stateMutability": "nonpayable"
    },
    {
      "type": "function",
      "name": "capacityInQuote",
      "inputs": [
        {
          "name": "lotId_",
          "type": "uint96",
          "internalType": "uint96"
        }
      ],
      "outputs": [
        {
          "name": "",
          "type": "bool",
          "internalType": "bool"
        }
      ],
      "stateMutability": "view"
    },
    {
      "type": "function",
      "name": "claimBids",
      "inputs": [
        {
          "name": "lotId_",
          "type": "uint96",
          "internalType": "uint96"
        },
        {
          "name": "bidIds_",
          "type": "uint64[]",
          "internalType": "uint64[]"
        }
      ],
      "outputs": [
        {
          "name": "bidClaims",
          "type": "tuple[]",
          "internalType": "struct IBatchAuction.BidClaim[]",
          "components": [
            {
              "name": "bidder",
              "type": "address",
              "internalType": "address"
            },
            {
              "name": "referrer",
              "type": "address",
              "internalType": "address"
            },
            {
              "name": "paid",
              "type": "uint256",
              "internalType": "uint256"
            },
            {
              "name": "payout",
              "type": "uint256",
              "internalType": "uint256"
            },
            {
              "name": "refund",
              "type": "uint256",
              "internalType": "uint256"
            }
          ]
        },
        {
          "name": "auctionOutput",
          "type": "bytes",
          "internalType": "bytes"
        }
      ],
      "stateMutability": "nonpayable"
    },
    {
      "type": "function",
      "name": "dedicatedSettlePeriod",
      "inputs": [],
      "outputs": [
        {
          "name": "",
          "type": "uint48",
          "internalType": "uint48"
        }
      ],
      "stateMutability": "view"
    },
    {
      "type": "function",
      "name": "getAuctionData",
      "inputs": [
        {
          "name": "lotId_",
          "type": "uint96",
          "internalType": "uint96"
        }
      ],
      "outputs": [
        {
          "name": "auctionData_",
          "type": "tuple",
          "internalType": "struct IFixedPriceBatch.AuctionData",
          "components": [
            {
              "name": "price",
              "type": "uint256",
              "internalType": "uint256"
            },
            {
              "name": "status",
              "type": "uint8",
              "internalType": "enum IFixedPriceBatch.LotStatus"
            },
            {
              "name": "nextBidId",
              "type": "uint64",
              "internalType": "uint64"
            },
            {
              "name": "settlementCleared",
              "type": "bool",
              "internalType": "bool"
            },
            {
              "name": "totalBidAmount",
              "type": "uint256",
              "internalType": "uint256"
            },
            {
              "name": "minFilled",
              "type": "uint256",
              "internalType": "uint256"
            }
          ]
        }
      ],
      "stateMutability": "view"
    },
    {
      "type": "function",
      "name": "getBid",
      "inputs": [
        {
          "name": "lotId_",
          "type": "uint96",
          "internalType": "uint96"
        },
        {
          "name": "bidId_",
          "type": "uint64",
          "internalType": "uint64"
        }
      ],
      "outputs": [
        {
          "name": "bid",
          "type": "tuple",
          "internalType": "struct IFixedPriceBatch.Bid",
          "components": [
            {
              "name": "bidder",
              "type": "address",
              "internalType": "address"
            },
            {
              "name": "amount",
              "type": "uint96",
              "internalType": "uint96"
            },
            {
              "name": "referrer",
              "type": "address",
              "internalType": "address"
            },
            {
              "name": "status",
              "type": "uint8",
              "internalType": "enum IFixedPriceBatch.BidStatus"
            }
          ]
        }
      ],
      "stateMutability": "view"
    },
    {
      "type": "function",
      "name": "getBidClaim",
      "inputs": [
        {
          "name": "lotId_",
          "type": "uint96",
          "internalType": "uint96"
        },
        {
          "name": "bidId_",
          "type": "uint64",
          "internalType": "uint64"
        }
      ],
      "outputs": [
        {
          "name": "bidClaim",
          "type": "tuple",
          "internalType": "struct IBatchAuction.BidClaim",
          "components": [
            {
              "name": "bidder",
              "type": "address",
              "internalType": "address"
            },
            {
              "name": "referrer",
              "type": "address",
              "internalType": "address"
            },
            {
              "name": "paid",
              "type": "uint256",
              "internalType": "uint256"
            },
            {
              "name": "payout",
              "type": "uint256",
              "internalType": "uint256"
            },
            {
              "name": "refund",
              "type": "uint256",
              "internalType": "uint256"
            }
          ]
        }
      ],
      "stateMutability": "view"
    },
    {
      "type": "function",
      "name": "getBidIdAtIndex",
      "inputs": [
        {
          "name": "",
          "type": "uint96",
          "internalType": "uint96"
        },
        {
          "name": "",
          "type": "uint256",
          "internalType": "uint256"
        }
      ],
      "outputs": [
        {
          "name": "",
          "type": "uint64",
          "internalType": "uint64"
        }
      ],
      "stateMutability": "view"
    },
    {
      "type": "function",
      "name": "getBidIds",
      "inputs": [
        {
          "name": "",
          "type": "uint96",
          "internalType": "uint96"
        },
        {
          "name": "",
          "type": "uint256",
          "internalType": "uint256"
        },
        {
          "name": "",
          "type": "uint256",
          "internalType": "uint256"
        }
      ],
      "outputs": [
        {
          "name": "",
          "type": "uint64[]",
          "internalType": "uint64[]"
        }
      ],
      "stateMutability": "view"
    },
    {
      "type": "function",
      "name": "getLot",
      "inputs": [
        {
          "name": "lotId_",
          "type": "uint96",
          "internalType": "uint96"
        }
      ],
      "outputs": [
        {
          "name": "",
          "type": "tuple",
          "internalType": "struct IAuction.Lot",
          "components": [
            {
              "name": "start",
              "type": "uint48",
              "internalType": "uint48"
            },
            {
              "name": "conclusion",
              "type": "uint48",
              "internalType": "uint48"
            },
            {
              "name": "quoteTokenDecimals",
              "type": "uint8",
              "internalType": "uint8"
            },
            {
              "name": "baseTokenDecimals",
              "type": "uint8",
              "internalType": "uint8"
            },
            {
              "name": "capacityInQuote",
              "type": "bool",
              "internalType": "bool"
            },
            {
              "name": "capacity",
              "type": "uint256",
              "internalType": "uint256"
            },
            {
              "name": "sold",
              "type": "uint256",
              "internalType": "uint256"
            },
            {
              "name": "purchased",
              "type": "uint256",
              "internalType": "uint256"
            }
          ]
        }
      ],
      "stateMutability": "view"
    },
    {
      "type": "function",
      "name": "getNumBids",
      "inputs": [
        {
          "name": "",
          "type": "uint96",
          "internalType": "uint96"
        }
      ],
      "outputs": [
        {
          "name": "",
          "type": "uint256",
          "internalType": "uint256"
        }
      ],
      "stateMutability": "view"
    },
    {
      "type": "function",
      "name": "getPartialFill",
      "inputs": [
        {
          "name": "lotId_",
          "type": "uint96",
          "internalType": "uint96"
        }
      ],
      "outputs": [
        {
          "name": "hasPartialFill",
          "type": "bool",
          "internalType": "bool"
        },
        {
          "name": "partialFill",
          "type": "tuple",
          "internalType": "struct IFixedPriceBatch.PartialFill",
          "components": [
            {
              "name": "bidId",
              "type": "uint64",
              "internalType": "uint64"
            },
            {
              "name": "refund",
              "type": "uint96",
              "internalType": "uint96"
            },
            {
              "name": "payout",
              "type": "uint256",
              "internalType": "uint256"
            }
          ]
        }
      ],
      "stateMutability": "view"
    },
    {
      "type": "function",
      "name": "hasEnded",
      "inputs": [
        {
          "name": "lotId_",
          "type": "uint96",
          "internalType": "uint96"
        }
      ],
      "outputs": [
        {
          "name": "",
          "type": "bool",
          "internalType": "bool"
        }
      ],
      "stateMutability": "view"
    },
    {
      "type": "function",
      "name": "isLive",
      "inputs": [
        {
          "name": "lotId_",
          "type": "uint96",
          "internalType": "uint96"
        }
      ],
      "outputs": [
        {
          "name": "",
          "type": "bool",
          "internalType": "bool"
        }
      ],
      "stateMutability": "view"
    },
    {
      "type": "function",
      "name": "isUpcoming",
      "inputs": [
        {
          "name": "lotId_",
          "type": "uint96",
          "internalType": "uint96"
        }
      ],
      "outputs": [
        {
          "name": "",
          "type": "bool",
          "internalType": "bool"
        }
      ],
      "stateMutability": "view"
    },
    {
      "type": "function",
      "name": "lotAuctionOutput",
      "inputs": [
        {
          "name": "",
          "type": "uint96",
          "internalType": "uint96"
        }
      ],
      "outputs": [
        {
          "name": "",
          "type": "bytes",
          "internalType": "bytes"
        }
      ],
      "stateMutability": "view"
    },
    {
      "type": "function",
      "name": "lotData",
      "inputs": [
        {
          "name": "id",
          "type": "uint96",
          "internalType": "uint96"
        }
      ],
      "outputs": [
        {
          "name": "start",
          "type": "uint48",
          "internalType": "uint48"
        },
        {
          "name": "conclusion",
          "type": "uint48",
          "internalType": "uint48"
        },
        {
          "name": "quoteTokenDecimals",
          "type": "uint8",
          "internalType": "uint8"
        },
        {
          "name": "baseTokenDecimals",
          "type": "uint8",
          "internalType": "uint8"
        },
        {
          "name": "capacityInQuote",
          "type": "bool",
          "internalType": "bool"
        },
        {
          "name": "capacity",
          "type": "uint256",
          "internalType": "uint256"
        },
        {
          "name": "sold",
          "type": "uint256",
          "internalType": "uint256"
        },
        {
          "name": "purchased",
          "type": "uint256",
          "internalType": "uint256"
        }
      ],
      "stateMutability": "view"
    },
    {
      "type": "function",
      "name": "minAuctionDuration",
      "inputs": [],
      "outputs": [
        {
          "name": "",
          "type": "uint48",
          "internalType": "uint48"
        }
      ],
      "stateMutability": "view"
    },
    {
      "type": "function",
      "name": "refundBid",
      "inputs": [
        {
          "name": "lotId_",
          "type": "uint96",
          "internalType": "uint96"
        },
        {
          "name": "bidId_",
          "type": "uint64",
          "internalType": "uint64"
        },
        {
          "name": "index_",
          "type": "uint256",
          "internalType": "uint256"
        },
        {
          "name": "caller_",
          "type": "address",
          "internalType": "address"
        }
      ],
      "outputs": [
        {
          "name": "refund",
          "type": "uint256",
          "internalType": "uint256"
        }
      ],
      "stateMutability": "nonpayable"
    },
    {
      "type": "function",
      "name": "remainingCapacity",
      "inputs": [
        {
          "name": "lotId_",
          "type": "uint96",
          "internalType": "uint96"
        }
      ],
      "outputs": [
        {
          "name": "",
          "type": "uint256",
          "internalType": "uint256"
        }
      ],
      "stateMutability": "view"
    },
    {
      "type": "function",
      "name": "setDedicatedSettlePeriod",
      "inputs": [
        {
          "name": "period_",
          "type": "uint48",
          "internalType": "uint48"
        }
      ],
      "outputs": [],
      "stateMutability": "nonpayable"
    },
    {
      "type": "function",
      "name": "setMinAuctionDuration",
      "inputs": [
        {
          "name": "duration_",
          "type": "uint48",
          "internalType": "uint48"
        }
      ],
      "outputs": [],
      "stateMutability": "nonpayable"
    },
    {
      "type": "function",
      "name": "settle",
      "inputs": [
        {
          "name": "lotId_",
          "type": "uint96",
          "internalType": "uint96"
        },
        {
          "name": "num_",
          "type": "uint256",
          "internalType": "uint256"
        }
      ],
      "outputs": [
        {
          "name": "totalIn",
          "type": "uint256",
          "internalType": "uint256"
        },
        {
          "name": "totalOut",
          "type": "uint256",
          "internalType": "uint256"
        },
        {
          "name": "capacity",
          "type": "uint256",
          "internalType": "uint256"
        },
        {
          "name": "finished",
          "type": "bool",
          "internalType": "bool"
        },
        {
          "name": "auctionOutput",
          "type": "bytes",
          "internalType": "bytes"
        }
      ],
      "stateMutability": "nonpayable"
    },
    {
      "type": "error",
      "name": "Auction_AmountLessThanMinimum",
      "inputs": []
    },
    {
      "type": "error",
      "name": "Auction_DedicatedSettlePeriod",
      "inputs": [
        {
          "name": "lotId",
          "type": "uint96",
          "internalType": "uint96"
        }
      ]
    },
    {
      "type": "error",
      "name": "Auction_InsufficientCapacity",
      "inputs": []
    },
    {
      "type": "error",
      "name": "Auction_InvalidBidId",
      "inputs": [
        {
          "name": "lotId",
          "type": "uint96",
          "internalType": "uint96"
        },
        {
          "name": "bidId",
          "type": "uint96",
          "internalType": "uint96"
        }
      ]
    },
    {
      "type": "error",
      "name": "Auction_InvalidDuration",
      "inputs": [
        {
          "name": "duration_",
          "type": "uint48",
          "internalType": "uint48"
        },
        {
          "name": "minimum_",
          "type": "uint48",
          "internalType": "uint48"
        }
      ]
    },
    {
      "type": "error",
      "name": "Auction_InvalidLotId",
      "inputs": [
        {
          "name": "lotId",
          "type": "uint96",
          "internalType": "uint96"
        }
      ]
    },
    {
      "type": "error",
      "name": "Auction_InvalidParams",
      "inputs": []
    },
    {
      "type": "error",
      "name": "Auction_InvalidStart",
      "inputs": [
        {
          "name": "start_",
          "type": "uint48",
          "internalType": "uint48"
        },
        {
          "name": "minimum_",
          "type": "uint48",
          "internalType": "uint48"
        }
      ]
    },
    {
      "type": "error",
      "name": "Auction_LotActive",
      "inputs": [
        {
          "name": "lotId",
          "type": "uint96",
          "internalType": "uint96"
        }
      ]
    },
    {
      "type": "error",
      "name": "Auction_LotNotActive",
      "inputs": [
        {
          "name": "lotId",
          "type": "uint96",
          "internalType": "uint96"
        }
      ]
    },
    {
      "type": "error",
      "name": "Auction_LotNotConcluded",
      "inputs": [
        {
          "name": "lotId",
          "type": "uint96",
          "internalType": "uint96"
        }
      ]
    },
    {
      "type": "error",
      "name": "Auction_NotAuthorized",
      "inputs": []
    },
    {
      "type": "error",
      "name": "Auction_NotBidder",
      "inputs": []
    },
    {
      "type": "error",
      "name": "Auction_NotImplemented",
      "inputs": []
    },
    {
      "type": "error",
      "name": "Auction_OnlyLotOwner",
      "inputs": []
    },
    {
      "type": "error",
      "name": "Auction_WrongState",
      "inputs": [
        {
          "name": "lotId",
          "type": "uint96",
          "internalType": "uint96"
        }
      ]
    },
    {
      "type": "error",
      "name": "Bid_WrongState",
      "inputs": [
        {
          "name": "lotId",
          "type": "uint96",
          "internalType": "uint96"
        },
        {
          "name": "bidId",
          "type": "uint64",
          "internalType": "uint64"
        }
      ]
    },
    {
      "type": "error",
      "name": "Module_InvalidParent",
      "inputs": [
        {
          "name": "parent_",
          "type": "address",
          "internalType": "address"
        }
      ]
    },
    {
      "type": "error",
      "name": "Module_OnlyInternal",
      "inputs": []
    },
    {
      "type": "error",
      "name": "Module_OnlyParent",
      "inputs": [
        {
          "name": "caller_",
          "type": "address",
          "internalType": "address"
        }
      ]
    },
    {
      "type": "error",
      "name": "NotPermitted",
      "inputs": [
        {
          "name": "caller",
          "type": "address",
          "internalType": "address"
        }
      ]
    }
  ],
  "bytecode": {
    "object": "0x60a06040523480156200001157600080fd5b50604051620033d3380380620033d38339810160408190526200003491620000a5565b80806001600160a01b0381166200006d57604051631462ddc360e21b81526001600160a01b038216600482015260240160405180910390fd5b6001600160a01b03166080525050600080546201518065ffffffffffff199182168117909255600280549091169091179055620000d7565b600060208284031215620000b857600080fd5b81516001600160a01b0381168114620000d057600080fd5b9392505050565b6080516132696200016a6000396000818161029201528181610794015281816107db01528181610947015281816109b2015281816109f401528181610acd01528181610c8b01528181610ccd01528181610dc701528181610e0901528181611089015281816110cb015281816111cf0152818161121101528181611594015281816115d6015261171a01526132696000f3fe608060405234801561001057600080fd5b50600436106101e45760003560e01c80637d9234bc1161010f578063b04046df116100a2578063cd280bdb11610071578063cd280bdb1461064d578063d61735ca14610671578063d899a33714610688578063ea6439141461069c57600080fd5b8063b04046df146105f8578063bae96bdd1461060b578063bb24fe8a1461061e578063cadb33831461062d57600080fd5b8063a16f7ef7116100de578063a16f7ef71461054a578063a85cebb614610599578063a8bf44e4146105ab578063ace54da5146105cb57600080fd5b80637d9234bc146104e757806387698a31146105085780638f21c3181461051b578063994595e11461053b57600080fd5b80631ed75f1f11610187578063541348761161015657806354134876146103c25780635806afc3146103eb578063732efc03146104a65780637d7b6853146104b957600080fd5b80631ed75f1f146102e157806329da5abd146102f457806339792cdc146103075780634e1f42581461033a57600080fd5b80630a35511b116101c35780630a35511b1461024c5780630cd0bcf21461026d578063122b83f91461028d57806312d6ef2d146102cc57600080fd5b8062b33217146101e957806303855921146102165780630440ec5314610239575b600080fd5b6102006101f7366004612813565b60609392505050565b60405161020d9190612846565b60405180910390f35b610229610224366004612893565b6106a4565b604051901515815260200161020d565b610229610247366004612893565b6106ff565b61025f61025a3660046128ae565b610786565b60405161020d9291906129b4565b61028061027b366004612893565b6108a2565b60405161020d9190612a0b565b6102b47f000000000000000000000000000000000000000000000000000000000000000081565b6040516001600160a01b03909116815260200161020d565b6102df6102da366004612a34565b61093c565b005b6102df6102ef366004612893565b6109a7565b6102df610302366004612a34565b610ac2565b610229610315366004612893565b6001600160601b0316600090815260016020526040902054600160701b900460ff1690565b61034d610348366004612893565b610b59565b60405161020d919060006101008201905065ffffffffffff8084511683528060208501511660208401525060ff604084015116604083015260ff606084015116606083015260808301511515608083015260a083015160a083015260c083015160c083015260e083015160e083015292915050565b6000546103d49065ffffffffffff1681565b60405165ffffffffffff909116815260200161020d565b6104596103f9366004612893565b6001602081905260009182526040909120805491810154600282015460039092015465ffffffffffff80851694600160301b81049091169360ff600160601b8304811694600160681b8404821694600160701b9094049091169290919088565b6040805165ffffffffffff998a16815298909716602089015260ff958616968801969096529390921660608601521515608085015260a084015260c083015260e08201526101000161020d565b6102296104b4366004612893565b610bf6565b6104cf6104c7366004612a4f565b600092915050565b6040516001600160401b03909116815260200161020d565b6104fa6104f5366004612aa7565b610c7e565b60405190815260200161020d565b6104cf610516366004612af4565b610dba565b61052e610529366004612ba0565b610ee6565b60405161020d9190612bd3565b600160405161020d9190612c07565b61055d610558366004612893565b610f1b565b60408051921515835281516001600160401b03166020808501919091528201516001600160601b0316838201520151606082015260800161020d565b6002546103d49065ffffffffffff1681565b6105be6105b9366004612ba0565b610fa2565b60405161020d9190612c1a565b6104fa6105d9366004612893565b6001600160601b03166000908152600160208190526040909120015490565b6102df610606366004612893565b61107e565b6102df610619366004612cf6565b6111c4565b600060405161020d9190612e1c565b61064061063b366004612893565b6114a8565b60405161020d9190612e30565b61066061065b366004612a4f565b611582565b60405161020d959493929190612e87565b6040516530314650424160d01b815260200161020d565b6104fa610696366004612893565b50600090565b6102df61170f565b6001600160601b03811660009081526001602052604081205465ffffffffffff600160301b9091048116429091161015806106f957506001600160601b03821660009081526001602081905260409091200154155b92915050565b6001600160601b0381166000908152600160208190526040822001541580159061075457506001600160601b03821660009081526001602052604090205465ffffffffffff600160301b909104811642909116105b80156106f95750506001600160601b031660009081526001602052604090205465ffffffffffff908116429091161090565b606080336001600160a01b037f000000000000000000000000000000000000000000000000000000000000000016146107d9576040516366e069e160e01b81523360048201526024015b60405180910390fd5b7f00000000000000000000000000000000000000000000000000000000000000006001600160a01b0316635c774ed76040518163ffffffff1660e01b8152600401602060405180830381865afa158015610837573d6000803e3d6000fd5b505050506040513d601f19601f8201168201806040525081019061085b9190612eb4565b156108795760405163115250c560e21b815260040160405180910390fd5b6108828561175c565b61088b856117a7565b610896858585611801565b91509150935093915050565b600360205260009081526040902080546108bb90612ed1565b80601f01602080910402602001604051908101604052809291908181526020018280546108e790612ed1565b80156109345780601f1061090957610100808354040283529160200191610934565b820191906000526020600020905b81548152906001019060200180831161091757829003601f168201915b505050505081565b336001600160a01b037f00000000000000000000000000000000000000000000000000000000000000001614610987576040516366e069e160e01b81523360048201526024016107d0565b6000805465ffffffffffff191665ffffffffffff92909216919091179055565b336001600160a01b037f000000000000000000000000000000000000000000000000000000000000000016146109f2576040516366e069e160e01b81523360048201526024016107d0565b7f00000000000000000000000000000000000000000000000000000000000000006001600160a01b0316635c774ed76040518163ffffffff1660e01b8152600401602060405180830381865afa158015610a50573d6000803e3d6000fd5b505050506040513d601f19601f82011682018060405250810190610a749190612eb4565b15610a925760405163115250c560e21b815260040160405180910390fd5b610a9b8161175c565b610aa4816119b9565b610aad81611a38565b610ab681611ac4565b610abf81611b1e565b50565b336001600160a01b037f00000000000000000000000000000000000000000000000000000000000000001614610b0d576040516366e069e160e01b81523360048201526024016107d0565b62093a808165ffffffffffff161115610b3957604051633350f82560e11b815260040160405180910390fd5b6002805465ffffffffffff191665ffffffffffff92909216919091179055565b610b61612772565b506001600160601b0316600090815260016020818152604092839020835161010081018552815465ffffffffffff8082168352600160301b8204169382019390935260ff600160601b8404811695820195909552600160681b830485166060820152600160701b909204909316151560808201529082015460a0820152600282015460c082015260039091015460e082015290565b6001600160601b03811660009081526001602081905260408220015415801590610c4b57506001600160601b03821660009081526001602052604090205465ffffffffffff600160301b909104811642909116105b80156106f95750506001600160601b031660009081526001602052604090205465ffffffffffff90811642909116101590565b6000336001600160a01b037f00000000000000000000000000000000000000000000000000000000000000001614610ccb576040516366e069e160e01b81523360048201526024016107d0565b7f00000000000000000000000000000000000000000000000000000000000000006001600160a01b0316635c774ed76040518163ffffffff1660e01b8152600401602060405180830381865afa158015610d29573d6000803e3d6000fd5b505050506040513d601f19601f82011682018060405250810190610d4d9190612eb4565b15610d6b5760405163115250c560e21b815260040160405180910390fd5b610d748561175c565b610d7d85611b47565b610d878585611b98565b610d92858584611c6c565b610d9c8585611cd4565b610da585611d5a565b610db185858585611df7565b95945050505050565b6000336001600160a01b037f00000000000000000000000000000000000000000000000000000000000000001614610e07576040516366e069e160e01b81523360048201526024016107d0565b7f00000000000000000000000000000000000000000000000000000000000000006001600160a01b0316635c774ed76040518163ffffffff1660e01b8152600401602060405180830381865afa158015610e65573d6000803e3d6000fd5b505050506040513d601f19601f82011682018060405250810190610e899190612eb4565b15610ea75760405163115250c560e21b815260040160405180910390fd5b610eb08761175c565b610eb987611b47565b610ec287611d5a565b610ecb87611ac4565b610ed9878787878787611e8b565b90505b9695505050505050565b610eee6127b6565b610ef78361175c565b610f00836117a7565b610f0a8383611b98565b610f14838361216c565b9392505050565b60408051606081018252600080825260208201819052918101829052610f408361175c565b610f49836117a7565b50506001600160601b03908116600090815260066020908152604091829020825160608101845281546001600160401b038116808352600160401b90910490951692810192909252600101549181019190915290151591565b610fca6040805160808101825260008082526020820181905291810182905290606082015290565b610fd38361175c565b610fdd8383611b98565b6001600160601b0383811660009081526005602090815260408083206001600160401b0387168452825291829020825160808101845281546001600160a01b038082168352600160a01b918290049096169382019390935260018083015495861694820194909452939092606085019290910460ff169081111561106357611063612be1565b600181111561107457611074612be1565b9052509392505050565b336001600160a01b037f000000000000000000000000000000000000000000000000000000000000000016146110c9576040516366e069e160e01b81523360048201526024016107d0565b7f00000000000000000000000000000000000000000000000000000000000000006001600160a01b0316635c774ed76040518163ffffffff1660e01b8152600401602060405180830381865afa158015611127573d6000803e3d6000fd5b505050506040513d601f19601f8201168201806040525081019061114b9190612eb4565b156111695760405163115250c560e21b815260040160405180910390fd5b6111728161175c565b61117b81611d5a565b6111848161237a565b6001600160601b03166000908152600160208190526040822080546bffffffffffff0000000000001916600160301b4265ffffffffffff16021781550155565b336001600160a01b037f0000000000000000000000000000000000000000000000000000000000000000161461120f576040516366e069e160e01b81523360048201526024016107d0565b7f00000000000000000000000000000000000000000000000000000000000000006001600160a01b0316635c774ed76040518163ffffffff1660e01b8152600401602060405180830381865afa15801561126d573d6000803e3d6000fd5b505050506040513d601f19601f820116820180604052508101906112919190612eb4565b156112af5760405163115250c560e21b815260040160405180910390fd5b825165ffffffffffff16158015906112d25750825165ffffffffffff4281169116105b15611306578251604051639421aa8960e01b815265ffffffffffff91821660048201524290911660248201526044016107d0565b600054602084015165ffffffffffff918216911610156113535760208301516000546040516302c1012760e21b815265ffffffffffff9283166004820152911660248201526044016107d0565b61135b612772565b835165ffffffffffff1615611371578351611373565b425b65ffffffffffff16808252602085015161138c91612f21565b65ffffffffffff16602082015260ff8084166040808401919091529083166060808401919091529085015115156080808401919091529085015160a08301528401516113db9086908390612383565b6001600160601b039490941660009081526001602081815260409283902087518154928901519489015160608a015160808b015165ffffffffffff9384166bffffffffffffffffffffffff1990961695909517600160301b93909716929092029590951761ffff60601b1916600160601b60ff9687160260ff60681b191617600160681b95909116949094029390931760ff60701b1916600160701b9115159190910217825560a08601519082015560c0850151600282015560e090940151600390940193909355505050565b6040805160c081018252600080825260208201819052918101829052606081018290526080810182905260a08101919091526114e38261175c565b6001600160601b038216600090815260046020908152604091829020825160c0810190935280548352600180820154919284019160ff169081111561152a5761152a612be1565b600181111561153b5761153b612be1565b8152600182015461010081046001600160401b03166020830152600160481b900460ff16151560408201526002820154606082015260039091015460809091015292915050565b60008080806060336001600160a01b037f000000000000000000000000000000000000000000000000000000000000000016146115d4576040516366e069e160e01b81523360048201526024016107d0565b7f00000000000000000000000000000000000000000000000000000000000000006001600160a01b0316635c774ed76040518163ffffffff1660e01b8152600401602060405180830381865afa158015611632573d6000803e3d6000fd5b505050506040513d601f19601f820116820180604052508101906116569190612eb4565b156116745760405163115250c560e21b815260040160405180910390fd5b61167d8761175c565b61168687611b47565b61168f87612453565b61169887611ac4565b6001600160601b03871660009081526001602052604090206116ba888861250f565b6001600160601b038c166000908152600160209081526040808320600380820189905560029091018790559091529020939950919750945092506116fe8382612f8e565b506001015492509295509295909350565b336001600160a01b037f0000000000000000000000000000000000000000000000000000000000000000161461175a576040516366e069e160e01b81523360048201526024016107d0565b565b6001600160601b03811660009081526001602052604081205465ffffffffffff169003610abf57604051638c54233f60e01b81526001600160601b03821660048201526024016107d0565b6001600160601b038116600090815260046020526040902060019081015460ff16818111156117d8576117d8612be1565b14610abf57604051636985f4c960e11b81526001600160601b03821660048201526024016107d0565b60608082806001600160401b0381111561181d5761181d612c69565b60405190808252806020026020018201604052801561185657816020015b6118436127b6565b81526020019060019003908161183b5790505b50925060005b818110156119af576118948787878481811061187a5761187a61304d565b905060200201602081019061188f9190613063565b611b98565b6118c4878787848181106118aa576118aa61304d565b90506020020160208101906118bf9190613063565b611cd4565b6001600160601b03871660009081526005602052604081206001918888858181106118f1576118f161304d565b90506020020160208101906119069190613063565b6001600160401b03166001600160401b0316815260200190815260200160002060010160146101000a81548160ff0219169083600181111561194a5761194a612be1565b021790555061197f878787848181106119655761196561304d565b905060200201602081019061197a9190613063565b61216c565b8482815181106119915761199161304d565b602002602001018190525080806119a79061307e565b91505061185c565b5050935093915050565b6001600160601b03811660009081526001602052604090205465ffffffffffff600160301b909104811642909116108015611a0f57506001600160601b0381166000908152600160208190526040909120015415155b15610abf5760405163f7babce560e01b81526001600160601b03821660048201526024016107d0565b6001600160601b03811660009081526001602052604090205465ffffffffffff600160301b90910481169042168111801590611a975750600254611a849065ffffffffffff1682612f21565b65ffffffffffff164265ffffffffffff16105b15611ac057604051630340ca2960e11b81526001600160601b03831660048201526024016107d0565b5050565b6001600160601b038116600090815260046020526040902060019081015460ff1681811115611af557611af5612be1565b03610abf57604051636985f4c960e11b81526001600160601b03821660048201526024016107d0565b6001600160601b031660009081526004602052604090206001908101805460ff19169091179055565b6001600160601b03811660009081526001602052604090205465ffffffffffff908116429091161015610abf576040516306f6ec2760e31b81526001600160601b03821660048201526024016107d0565b6001600160601b0382166000908152600460205260409020600101546001600160401b03610100909104811690821610611bff576040516322a16ebf60e01b81526001600160601b03831660048201526001600160401b03821660248201526044016107d0565b6001600160601b03821660009081526005602090815260408083206001600160401b03851684529091529020546001600160a01b0316611ac0576040516322a16ebf60e01b81526001600160601b03831660048201526001600160401b03821660248201526044016107d0565b6001600160601b03831660009081526005602090815260408083206001600160401b03861684529091529020546001600160a01b03828116911614611ccf576040516319b1d90760e31b81526001600160a01b03821660048201526024016107d0565b505050565b60016001600160601b03831660009081526005602090815260408083206001600160401b03861684529091529020600190810154600160a01b900460ff1690811115611d2257611d22612be1565b03611ac057604051631359755560e11b81526001600160601b03831660048201526001600160401b03821660248201526044016107d0565b6001600160601b03811660009081526001602052604090205465ffffffffffff600160301b90910481164290911610611db1576040516306f6ec2760e31b81526001600160601b03821660048201526024016107d0565b6001600160601b0381166000908152600160208190526040822001549003610abf576040516306f6ec2760e31b81526001600160601b03821660048201526024016107d0565b6001600160601b0384166000908152600460209081526040808320600583528184206001600160401b038816855290925282206001808201805460ff60a01b1916600160a01b8302179055508054600283018054600160a01b9092046001600160601b031691600090611e6b908490613097565b909155505054600160a01b90046001600160601b03169695505050505050565b6000831580611ea057506001600160601b0384115b15611ebe57604051633350f82560e11b815260040160405180910390fd5b6001600160601b038716600090815260016020818152604080842083015460049092528320808301805492949193919261010090046001600160401b031691611f06836130aa565b91906101000a8154816001600160401b0302191690836001600160401b031602179055509050600087905060405180608001604052808b6001600160a01b03168152602001826001600160601b031681526020018a6001600160a01b0316815260200160006001811115611f7c57611f7c612be1565b90526001600160601b03808d1660009081526005602090815260408083206001600160401b0388168452825291829020845191850151909316600160a01b9081026001600160a01b039283161784559184015160018085018054929093166001600160a01b03198316811784556060870151946001600160a81b0319909316179190849081111561200f5761200f612be1565b02179055509050508783600201600082825461202b91906130d0565b90915550506001600160601b038b1660009081526001602052604081205461205e90600160681b900460ff16600a6131c7565b905060006120758560020154838760000154612600565b90508581101561208d57839650505050505050610edc565b8581111561211f576120a784878386868a600001546126a7565b6001600160601b038e8116600090815260066020908152604080832085518154938701516001600160401b039091166001600160a01b031990941693909317600160401b9386168402178082559590910151600190910155600289018054919094049092169291612119908490613097565b90915550505b5050506001600160601b0399909916600090815260016020526040902080546bffffffffffff0000000000001916600160301b4265ffffffffffff16021790555096979650505050505050565b6121746127b6565b6001600160601b0383811660009081526005602090815260408083206001600160401b03871684528252808320815160808101835281546001600160a01b038082168352600160a01b918290049097169482019490945260018083015496871693820193909352939490926060850192910460ff16908111156121f9576121f9612be1565b600181111561220a5761220a612be1565b90525080516001600160a01b0390811684526040808301519091166020808601919091526001600160601b038716600090815260049091522060010154909150600160481b900460ff161561234d576001600160601b0384166000908152600660205260409020546001600160401b038085169116036122d1576020808201516001600160601b03908116604080860191909152868216600081815260068086529281206001810154606089015291905292529054600160401b9004166080830152612373565b602081810180516001600160601b03908116604086810191909152915187821660009081526001909452919092205461233c92919091169061231e90600160681b900460ff16600a6131c7565b6001600160601b038716600090815260046020526040902054612600565b606083015260006080830152612373565b6020810180516001600160601b0390811660408501526000606085015290511660808301525b5092915050565b611b1e81612453565b60008180602001905181019061239991906131d6565b80519091506000036123be57604051633350f82560e11b815260040160405180910390fd5b620186a065ffffffffffff16816020015162ffffff1611156123f357604051633350f82560e11b815260040160405180910390fd5b6001600160601b03841660009081526004602090815260409091208251815560018101805468ffffffffffffffff00191661010017905560a08501519183015190916124479162ffffff16620186a0612744565b60039091015550505050565b6001600160601b038116600090815260046020526040812060019081015460ff169081111561248457612484612be1565b1480156124b357506001600160601b0381166000908152600160205260409020544265ffffffffffff90911611155b80156124e657506001600160601b03811660009081526001602052604090205442600160301b90910465ffffffffffff16115b15610abf57604051636985f4c960e11b81526001600160601b03821660048201526024016107d0565b6001600160601b03821660009081526004602090815260408083206001808201805460ff1916821790556002909101549252822054829182916060918391612585919061256790600160681b900460ff16600a6131c7565b6001600160601b038a16600090815260046020526040902054612600565b6001600160601b0388166000908152600460205260409020600301549091508110156125b55750600191506125f7565b6001600160601b03871660009081526004602052604090206001818101805469ff0000000000000000001916600160481b179055600290910154955090935091505b92959194509250565b60008383026000198486098181108201900380612635578361262a5763ae47f7026000526004601cfd5b508290049050610f14565b80841161264a5763ae47f7026000526004601cfd5b83858709600085810386169586900495848311909303908390038390046001010292030417600383026002908118808502820302808502820302808502820302808502820302808502820302808502909103020290509392505050565b60408051606081018252600080825260208201819052918101829052906126d86001600160601b0386168585612600565b905060006126e68888613097565b905060006126fe876001600160601b03168385612600565b9050600061270c8385613097565b604080516060810182526001600160401b038e1681526001600160601b03909416602085015283015250925050509695505050505050565b6000612751848484612600565b90508183850915610f145760010180610f145763ae47f7026000526004601cfd5b6040805161010081018252600080825260208201819052918101829052606081018290526080810182905260a0810182905260c0810182905260e081019190915290565b6040518060a0016040528060006001600160a01b0316815260200160006001600160a01b031681526020016000815260200160008152602001600081525090565b80356001600160601b038116811461280e57600080fd5b919050565b60008060006060848603121561282857600080fd5b612831846127f7565b95602085013595506040909401359392505050565b6020808252825182820181905260009190848201906040850190845b818110156128875783516001600160401b031683529284019291840191600101612862565b50909695505050505050565b6000602082840312156128a557600080fd5b610f14826127f7565b6000806000604084860312156128c357600080fd5b6128cc846127f7565b925060208401356001600160401b03808211156128e857600080fd5b818601915086601f8301126128fc57600080fd5b81358181111561290b57600080fd5b8760208260051b850101111561292057600080fd5b6020830194508093505050509250925092565b80516001600160a01b039081168352602080830151909116908301526040808201519083015260608082015190830152608090810151910152565b6000815180845260005b8181101561299457602081850181015186830182015201612978565b506000602082860101526020601f19601f83011685010191505092915050565b604080825283519082018190526000906020906060840190828701845b828110156129f7576129e4848351612933565b60a09390930192908401906001016129d1565b50505083810382850152610edc818661296e565b602081526000610f14602083018461296e565b803565ffffffffffff8116811461280e57600080fd5b600060208284031215612a4657600080fd5b610f1482612a1e565b60008060408385031215612a6257600080fd5b612a6b836127f7565b946020939093013593505050565b80356001600160401b038116811461280e57600080fd5b80356001600160a01b038116811461280e57600080fd5b60008060008060808587031215612abd57600080fd5b612ac6856127f7565b9350612ad460208601612a79565b925060408501359150612ae960608601612a90565b905092959194509250565b60008060008060008060a08789031215612b0d57600080fd5b612b16876127f7565b9550612b2460208801612a90565b9450612b3260408801612a90565b93506060870135925060808701356001600160401b0380821115612b5557600080fd5b818901915089601f830112612b6957600080fd5b813581811115612b7857600080fd5b8a6020828501011115612b8a57600080fd5b6020830194508093505050509295509295509295565b60008060408385031215612bb357600080fd5b612bbc836127f7565b9150612bca60208401612a79565b90509250929050565b60a081016106f98284612933565b634e487b7160e01b600052602160045260246000fd5b60028110610abf57610abf612be1565b60208101612c1483612bf7565b91905290565b81516001600160a01b0390811682526020808401516001600160601b0316908301526040808401519091169082015260608201516080820190612c5c81612bf7565b8060608401525092915050565b634e487b7160e01b600052604160045260246000fd5b60405160a081016001600160401b0381118282101715612ca157612ca1612c69565b60405290565b604051601f8201601f191681016001600160401b0381118282101715612ccf57612ccf612c69565b604052919050565b8015158114610abf57600080fd5b803560ff8116811461280e57600080fd5b60008060008060808587031215612d0c57600080fd5b612d15856127f7565b93506020808601356001600160401b0380821115612d3257600080fd5b9087019060a0828a031215612d4657600080fd5b612d4e612c7f565b612d5783612a1e565b8152612d64848401612a1e565b848201526040830135612d7681612cd7565b604082015260608381013590820152608083013582811115612d9757600080fd5b80840193505089601f840112612dac57600080fd5b823582811115612dbe57612dbe612c69565b612dd0601f8201601f19168601612ca7565b92508083528a85828601011115612de657600080fd5b80858501868501376000908301909401939093526080830152509250612e0e60408601612ce5565b9150612ae960608601612ce5565b6020810160048310612c1457612c14612be1565b81518152602082015160c0820190612e4781612bf7565b806020840152506001600160401b0360408401511660408301526060830151151560608301526080830151608083015260a083015160a083015292915050565b858152846020820152836040820152821515606082015260a060808201526000610ed960a083018461296e565b600060208284031215612ec657600080fd5b8151610f1481612cd7565b600181811c90821680612ee557607f821691505b602082108103612f0557634e487b7160e01b600052602260045260246000fd5b50919050565b634e487b7160e01b600052601160045260246000fd5b65ffffffffffff81811683821601908082111561237357612373612f0b565b601f821115611ccf57600081815260208120601f850160051c81016020861015612f675750805b601f850160051c820191505b81811015612f8657828155600101612f73565b505050505050565b81516001600160401b03811115612fa757612fa7612c69565b612fbb81612fb58454612ed1565b84612f40565b602080601f831160018114612ff05760008415612fd85750858301515b600019600386901b1c1916600185901b178555612f86565b600085815260208120601f198616915b8281101561301f57888601518255948401946001909101908401613000565b508582101561303d5787850151600019600388901b60f8161c191681555b5050505050600190811b01905550565b634e487b7160e01b600052603260045260246000fd5b60006020828403121561307557600080fd5b610f1482612a79565b60006001820161309057613090612f0b565b5060010190565b818103818111156106f9576106f9612f0b565b60006001600160401b038083168181036130c6576130c6612f0b565b6001019392505050565b808201808211156106f9576106f9612f0b565b600181815b8085111561311e57816000190482111561310457613104612f0b565b8085161561311157918102915b93841c93908002906130e8565b509250929050565b600082613135575060016106f9565b81613142575060006106f9565b816001811461315857600281146131625761317e565b60019150506106f9565b60ff84111561317357613173612f0b565b50506001821b6106f9565b5060208310610133831016604e8410600b84101617156131a1575081810a6106f9565b6131ab83836130e3565b80600019048211156131bf576131bf612f0b565b029392505050565b6000610f1460ff841683613126565b6000604082840312156131e857600080fd5b604051604081018181106001600160401b038211171561320a5761320a612c69565b60405282518152602083015162ffffff8116811461322757600080fd5b6020820152939250505056fea2646970667358221220d18fabbfa3ab8aa4cb7850c8e09b1407862f7a77a39ca744997725f5a573f91a64736f6c63430008130033",
    "linkReferences": {}
  },
  "methodIdentifiers": {
    "INIT()": "ea643914",
    "PARENT()": "122b83f9",
    "TYPE()": "bb24fe8a",
    "VEECODE()": "d61735ca",
    "abort(uint96)": "1ed75f1f",
    "auction(uint96,(uint48,uint48,bool,uint256,bytes),uint8,uint8)": "bae96bdd",
    "auctionType()": "994595e1",
    "bid(uint96,address,address,uint256,bytes)": "87698a31",
    "cancelAuction(uint96)": "b04046df",
    "capacityInQuote(uint96)": "39792cdc",
    "claimBids(uint96,uint64[])": "0a35511b",
    "dedicatedSettlePeriod()": "a85cebb6",
    "getAuctionData(uint96)": "cadb3383",
    "getBid(uint96,uint64)": "a8bf44e4",
    "getBidClaim(uint96,uint64)": "8f21c318",
    "getBidIdAtIndex(uint96,uint256)": "7d7b6853",
    "getBidIds(uint96,uint256,uint256)": "00b33217",
    "getLot(uint96)": "4e1f4258",
    "getNumBids(uint96)": "d899a337",
    "getPartialFill(uint96)": "a16f7ef7",
    "hasEnded(uint96)": "03855921",
    "isLive(uint96)": "732efc03",
    "isUpcoming(uint96)": "0440ec53",
    "lotAuctionOutput(uint96)": "0cd0bcf2",
    "lotData(uint96)": "5806afc3",
    "minAuctionDuration()": "54134876",
    "refundBid(uint96,uint64,uint256,address)": "7d9234bc",
    "remainingCapacity(uint96)": "ace54da5",
    "setDedicatedSettlePeriod(uint48)": "29da5abd",
    "setMinAuctionDuration(uint48)": "12d6ef2d",
    "settle(uint96,uint256)": "cd280bdb"
  },
  "id": 182
}