{
  "abi": [
    {
      "inputs": [
        {
          "internalType": "address",
          "name": "auctionHouse_",
          "type": "address"
        }
      ],
      "stateMutability": "nonpayable",
      "type": "constructor"
    },
    {
      "inputs": [],
      "name": "Auction_AmountLessThanMinimum",
      "type": "error"
    },
    {
      "inputs": [],
      "name": "Auction_InsufficientCapacity",
      "type": "error"
    },
    {
      "inputs": [],
      "name": "Auction_InsufficientPayout",
      "type": "error"
    },
    {
      "inputs": [
        {
          "internalType": "uint96",
          "name": "lotId",
          "type": "uint96"
        },
        {
          "internalType": "uint96",
          "name": "bidId",
          "type": "uint96"
        }
      ],
      "name": "Auction_InvalidBidId",
      "type": "error"
    },
    {
      "inputs": [
        {
          "internalType": "uint48",
          "name": "duration_",
          "type": "uint48"
        },
        {
          "internalType": "uint48",
          "name": "minimum_",
          "type": "uint48"
        }
      ],
      "name": "Auction_InvalidDuration",
      "type": "error"
    },
    {
      "inputs": [
        {
          "internalType": "uint96",
          "name": "lotId",
          "type": "uint96"
        }
      ],
      "name": "Auction_InvalidLotId",
      "type": "error"
    },
    {
      "inputs": [],
      "name": "Auction_InvalidParams",
      "type": "error"
    },
    {
      "inputs": [
        {
          "internalType": "uint48",
          "name": "start_",
          "type": "uint48"
        },
        {
          "internalType": "uint48",
          "name": "minimum_",
          "type": "uint48"
        }
      ],
      "name": "Auction_InvalidStart",
      "type": "error"
    },
    {
      "inputs": [
        {
          "internalType": "uint96",
          "name": "lotId",
          "type": "uint96"
        }
      ],
      "name": "Auction_MarketActive",
      "type": "error"
    },
    {
      "inputs": [
        {
          "internalType": "uint96",
          "name": "lotId",
          "type": "uint96"
        }
      ],
      "name": "Auction_MarketNotActive",
      "type": "error"
    },
    {
      "inputs": [],
      "name": "Auction_NotAuthorized",
      "type": "error"
    },
    {
      "inputs": [],
      "name": "Auction_NotBidder",
      "type": "error"
    },
    {
      "inputs": [],
      "name": "Auction_NotEnoughCapacity",
      "type": "error"
    },
    {
      "inputs": [],
      "name": "Auction_NotImplemented",
      "type": "error"
    },
    {
      "inputs": [],
      "name": "Auction_OnlyMarketOwner",
      "type": "error"
    },
    {
      "inputs": [],
      "name": "Auction_PayoutGreaterThanMax",
      "type": "error"
    },
    {
      "inputs": [
        {
          "internalType": "address",
          "name": "parent_",
          "type": "address"
        }
      ],
      "name": "Module_InvalidParent",
      "type": "error"
    },
    {
      "inputs": [],
      "name": "Module_OnlyInternal",
      "type": "error"
    },
    {
      "inputs": [
        {
          "internalType": "address",
          "name": "caller_",
          "type": "address"
        }
      ],
      "name": "Module_OnlyParent",
      "type": "error"
    },
    {
      "inputs": [],
      "name": "INIT",
      "outputs": [],
      "stateMutability": "nonpayable",
      "type": "function"
    },
    {
      "inputs": [],
      "name": "PARENT",
      "outputs": [
        {
          "internalType": "address",
          "name": "",
          "type": "address"
        }
      ],
      "stateMutability": "view",
      "type": "function"
    },
    {
      "inputs": [],
      "name": "TYPE",
      "outputs": [
        {
          "internalType": "enum Module.Type",
          "name": "",
          "type": "uint8"
        }
      ],
      "stateMutability": "pure",
      "type": "function"
    },
    {
      "inputs": [],
      "name": "VEECODE",
      "outputs": [
        {
          "internalType": "Veecode",
          "name": "",
          "type": "bytes7"
        }
      ],
      "stateMutability": "pure",
      "type": "function"
    },
    {
      "inputs": [
        {
          "internalType": "uint96",
          "name": "lotId_",
          "type": "uint96"
        },
        {
          "components": [
            {
              "internalType": "uint48",
              "name": "start",
              "type": "uint48"
            },
            {
              "internalType": "uint48",
              "name": "duration",
              "type": "uint48"
            },
            {
              "internalType": "bool",
              "name": "capacityInQuote",
              "type": "bool"
            },
            {
              "internalType": "uint96",
              "name": "capacity",
              "type": "uint96"
            },
            {
              "internalType": "bytes",
              "name": "implParams",
              "type": "bytes"
            }
          ],
          "internalType": "struct Auction.AuctionParams",
          "name": "params_",
          "type": "tuple"
        },
        {
          "internalType": "uint8",
          "name": "quoteTokenDecimals_",
          "type": "uint8"
        },
        {
          "internalType": "uint8",
          "name": "baseTokenDecimals_",
          "type": "uint8"
        }
      ],
      "name": "auction",
      "outputs": [
        {
          "internalType": "uint96",
          "name": "capacity",
          "type": "uint96"
        }
      ],
      "stateMutability": "nonpayable",
      "type": "function"
    },
    {
      "inputs": [
        {
          "internalType": "uint96",
          "name": "lotId",
          "type": "uint96"
        }
      ],
      "name": "auctionData",
      "outputs": [
        {
          "internalType": "uint96",
          "name": "price",
          "type": "uint96"
        },
        {
          "internalType": "uint96",
          "name": "maxPayout",
          "type": "uint96"
        }
      ],
      "stateMutability": "view",
      "type": "function"
    },
    {
      "inputs": [],
      "name": "auctionType",
      "outputs": [
        {
          "internalType": "enum Auction.AuctionType",
          "name": "",
          "type": "uint8"
        }
      ],
      "stateMutability": "pure",
      "type": "function"
    },
    {
      "inputs": [
        {
          "internalType": "uint96",
          "name": "lotId_",
          "type": "uint96"
        },
        {
          "internalType": "address",
          "name": "bidder_",
          "type": "address"
        },
        {
          "internalType": "address",
          "name": "referrer_",
          "type": "address"
        },
        {
          "internalType": "uint96",
          "name": "amount_",
          "type": "uint96"
        },
        {
          "internalType": "bytes",
          "name": "auctionData_",
          "type": "bytes"
        }
      ],
      "name": "bid",
      "outputs": [
        {
          "internalType": "uint64",
          "name": "bidId",
          "type": "uint64"
        }
      ],
      "stateMutability": "nonpayable",
      "type": "function"
    },
    {
      "inputs": [
        {
          "internalType": "uint96",
          "name": "lotId_",
          "type": "uint96"
        }
      ],
      "name": "cancelAuction",
      "outputs": [],
      "stateMutability": "nonpayable",
      "type": "function"
    },
    {
      "inputs": [
        {
          "internalType": "uint96",
          "name": "lotId_",
          "type": "uint96"
        }
      ],
      "name": "capacityInQuote",
      "outputs": [
        {
          "internalType": "bool",
          "name": "",
          "type": "bool"
        }
      ],
      "stateMutability": "view",
      "type": "function"
    },
    {
      "inputs": [
        {
          "internalType": "uint96",
          "name": "lotId_",
          "type": "uint96"
        },
        {
          "internalType": "uint64[]",
          "name": "bidIds_",
          "type": "uint64[]"
        }
      ],
      "name": "claimBids",
      "outputs": [
        {
          "components": [
            {
              "internalType": "address",
              "name": "bidder",
              "type": "address"
            },
            {
              "internalType": "address",
              "name": "referrer",
              "type": "address"
            },
            {
              "internalType": "uint96",
              "name": "paid",
              "type": "uint96"
            },
            {
              "internalType": "uint96",
              "name": "payout",
              "type": "uint96"
            }
          ],
          "internalType": "struct Auction.BidClaim[]",
          "name": "bidClaims",
          "type": "tuple[]"
        },
        {
          "internalType": "bytes",
          "name": "auctionOutput",
          "type": "bytes"
        }
      ],
      "stateMutability": "nonpayable",
      "type": "function"
    },
    {
      "inputs": [
        {
          "internalType": "uint96",
          "name": "lotId_",
          "type": "uint96"
        }
      ],
      "name": "claimProceeds",
      "outputs": [
        {
          "internalType": "uint96",
          "name": "purchased",
          "type": "uint96"
        },
        {
          "internalType": "uint96",
          "name": "sold",
          "type": "uint96"
        },
        {
          "internalType": "uint96",
          "name": "payoutSent",
          "type": "uint96"
        }
      ],
      "stateMutability": "nonpayable",
      "type": "function"
    },
    {
      "inputs": [
        {
          "internalType": "uint96",
          "name": "lotId_",
          "type": "uint96"
        }
      ],
      "name": "getLot",
      "outputs": [
        {
          "components": [
            {
              "internalType": "uint48",
              "name": "start",
              "type": "uint48"
            },
            {
              "internalType": "uint48",
              "name": "conclusion",
              "type": "uint48"
            },
            {
              "internalType": "uint8",
              "name": "quoteTokenDecimals",
              "type": "uint8"
            },
            {
              "internalType": "uint8",
              "name": "baseTokenDecimals",
              "type": "uint8"
            },
            {
              "internalType": "bool",
              "name": "capacityInQuote",
              "type": "bool"
            },
            {
              "internalType": "uint96",
              "name": "capacity",
              "type": "uint96"
            },
            {
              "internalType": "uint96",
              "name": "sold",
              "type": "uint96"
            },
            {
              "internalType": "uint96",
              "name": "purchased",
              "type": "uint96"
            },
            {
              "internalType": "uint96",
              "name": "partialPayout",
              "type": "uint96"
            }
          ],
          "internalType": "struct Auction.Lot",
          "name": "",
          "type": "tuple"
        }
      ],
      "stateMutability": "view",
      "type": "function"
    },
    {
      "inputs": [
        {
          "internalType": "uint96",
          "name": "lotId_",
          "type": "uint96"
        }
      ],
      "name": "hasEnded",
      "outputs": [
        {
          "internalType": "bool",
          "name": "",
          "type": "bool"
        }
      ],
      "stateMutability": "view",
      "type": "function"
    },
    {
      "inputs": [
        {
          "internalType": "uint96",
          "name": "lotId_",
          "type": "uint96"
        }
      ],
      "name": "isLive",
      "outputs": [
        {
          "internalType": "bool",
          "name": "",
          "type": "bool"
        }
      ],
      "stateMutability": "view",
      "type": "function"
    },
    {
      "inputs": [
        {
          "internalType": "uint96",
          "name": "id",
          "type": "uint96"
        }
      ],
      "name": "lotData",
      "outputs": [
        {
          "internalType": "uint48",
          "name": "start",
          "type": "uint48"
        },
        {
          "internalType": "uint48",
          "name": "conclusion",
          "type": "uint48"
        },
        {
          "internalType": "uint8",
          "name": "quoteTokenDecimals",
          "type": "uint8"
        },
        {
          "internalType": "uint8",
          "name": "baseTokenDecimals",
          "type": "uint8"
        },
        {
          "internalType": "bool",
          "name": "capacityInQuote",
          "type": "bool"
        },
        {
          "internalType": "uint96",
          "name": "capacity",
          "type": "uint96"
        },
        {
          "internalType": "uint96",
          "name": "sold",
          "type": "uint96"
        },
        {
          "internalType": "uint96",
          "name": "purchased",
          "type": "uint96"
        },
        {
          "internalType": "uint96",
          "name": "partialPayout",
          "type": "uint96"
        }
      ],
      "stateMutability": "view",
      "type": "function"
    },
    {
      "inputs": [
        {
          "internalType": "uint96",
          "name": "lotId_",
          "type": "uint96"
        }
      ],
      "name": "maxAmountAccepted",
      "outputs": [
        {
          "internalType": "uint96",
          "name": "",
          "type": "uint96"
        }
      ],
      "stateMutability": "view",
      "type": "function"
    },
    {
      "inputs": [
        {
          "internalType": "uint96",
          "name": "lotId_",
          "type": "uint96"
        }
      ],
      "name": "maxPayout",
      "outputs": [
        {
          "internalType": "uint96",
          "name": "",
          "type": "uint96"
        }
      ],
      "stateMutability": "view",
      "type": "function"
    },
    {
      "inputs": [],
      "name": "minAuctionDuration",
      "outputs": [
        {
          "internalType": "uint48",
          "name": "",
          "type": "uint48"
        }
      ],
      "stateMutability": "view",
      "type": "function"
    },
    {
      "inputs": [
        {
          "internalType": "uint96",
          "name": "lotId_",
          "type": "uint96"
        },
        {
          "internalType": "uint96",
          "name": "amount_",
          "type": "uint96"
        }
      ],
      "name": "payoutFor",
      "outputs": [
        {
          "internalType": "uint96",
          "name": "",
          "type": "uint96"
        }
      ],
      "stateMutability": "view",
      "type": "function"
    },
    {
      "inputs": [
        {
          "internalType": "uint96",
          "name": "lotId_",
          "type": "uint96"
        },
        {
          "internalType": "uint96",
          "name": "payout_",
          "type": "uint96"
        }
      ],
      "name": "priceFor",
      "outputs": [
        {
          "internalType": "uint96",
          "name": "",
          "type": "uint96"
        }
      ],
      "stateMutability": "view",
      "type": "function"
    },
    {
      "inputs": [
        {
          "internalType": "uint96",
          "name": "lotId_",
          "type": "uint96"
        },
        {
          "internalType": "uint96",
          "name": "amount_",
          "type": "uint96"
        },
        {
          "internalType": "bytes",
          "name": "auctionData_",
          "type": "bytes"
        }
      ],
      "name": "purchase",
      "outputs": [
        {
          "internalType": "uint96",
          "name": "payout",
          "type": "uint96"
        },
        {
          "internalType": "bytes",
          "name": "auctionOutput",
          "type": "bytes"
        }
      ],
      "stateMutability": "nonpayable",
      "type": "function"
    },
    {
      "inputs": [
        {
          "internalType": "uint96",
          "name": "lotId_",
          "type": "uint96"
        },
        {
          "internalType": "uint64",
          "name": "bidId_",
          "type": "uint64"
        },
        {
          "internalType": "address",
          "name": "caller_",
          "type": "address"
        }
      ],
      "name": "refundBid",
      "outputs": [
        {
          "internalType": "uint96",
          "name": "refund",
          "type": "uint96"
        }
      ],
      "stateMutability": "nonpayable",
      "type": "function"
    },
    {
      "inputs": [
        {
          "internalType": "uint96",
          "name": "lotId_",
          "type": "uint96"
        }
      ],
      "name": "remainingCapacity",
      "outputs": [
        {
          "internalType": "uint96",
          "name": "",
          "type": "uint96"
        }
      ],
      "stateMutability": "view",
      "type": "function"
    },
    {
      "inputs": [
        {
          "internalType": "uint96",
          "name": "lotId_",
          "type": "uint96"
        }
      ],
      "name": "settle",
      "outputs": [
        {
          "components": [
            {
              "internalType": "uint96",
              "name": "totalIn",
              "type": "uint96"
            },
            {
              "internalType": "uint96",
              "name": "totalOut",
              "type": "uint96"
            },
            {
              "internalType": "address",
              "name": "pfBidder",
              "type": "address"
            },
            {
              "internalType": "address",
              "name": "pfReferrer",
              "type": "address"
            },
            {
              "internalType": "uint96",
              "name": "pfRefund",
              "type": "uint96"
            },
            {
              "internalType": "uint96",
              "name": "pfPayout",
              "type": "uint96"
            },
            {
              "internalType": "bytes",
              "name": "auctionOutput",
              "type": "bytes"
            }
          ],
          "internalType": "struct Auction.Settlement",
          "name": "settlement",
          "type": "tuple"
        },
        {
          "internalType": "bytes",
          "name": "auctionOutput",
          "type": "bytes"
        }
      ],
      "stateMutability": "nonpayable",
      "type": "function"
    }
  ],
  "bytecode": {
    "object": "0x60a06040523480156200001157600080fd5b506040516200246538038062002465833981016040819052620000349162000095565b80806001600160a01b0381166200006d57604051631462ddc360e21b81526001600160a01b038216600482015260240160405180910390fd5b6001600160a01b031660805250506000805465ffffffffffff191662015180179055620000c7565b600060208284031215620000a857600080fd5b81516001600160a01b0381168114620000c057600080fd5b9392505050565b60805161230b6200015a600039600081816101c6015281816105d001528181610617015281816106eb0152818161072d0152818161081701528181610859015281816109e701528181610a2901528181610bae01528181610bf001528181610eed01528181610f2f0152818161115601528181611198015281816112ab0152818161132a0152611375015261230b6000f3fe608060405234801561001057600080fd5b50600436106101735760003560e01c8063803c90fd116100de578063bb24fe8a11610097578063e2cfa6ea11610071578063e2cfa6ea146104e8578063ea6439141461053c578063eee974b9146104ac578063fb9d3cb61461054457600080fd5b8063bb24fe8a146104c2578063d3ad2fed14610200578063d61735ca146104d157600080fd5b8063803c90fd14610421578063994595e114610434578063a8ee70be14610443578063ace54da514610464578063b04046df14610497578063ba4c8b7d146104ac57600080fd5b806339792cdc1161013057806339792cdc146102955780634e1f4258146102c857806353708796146102e857806354134876146102fb5780635806afc314610324578063732efc031461040e57600080fd5b806303855921146101785780630a35511b146101a0578063122b83f9146101c15780631a85c6341461020057806323464a601461022c57806324546b2d14610258575b600080fd5b61018b6101863660046119e7565b610565565b60405190151581526020015b60405180910390f35b6101b36101ae366004611a0b565b6105c2565b604051610197929190611ad9565b6101e87f000000000000000000000000000000000000000000000000000000000000000081565b6040516001600160a01b039091168152602001610197565b61021461020e3660046119e7565b50600090565b6040516001600160601b039091168152602001610197565b61023f61023a366004611bc1565b6106de565b60405167ffffffffffffffff9091168152602001610197565b61026b6102663660046119e7565b610808565b604080516001600160601b0394851681529284166020840152921691810191909152606001610197565b61018b6102a33660046119e7565b6001600160601b0316600090815260016020526040902054600160701b900460ff1690565b6102db6102d63660046119e7565b610928565b6040516101979190611c4b565b6102146102f6366004611d15565b6109da565b60005461030d9065ffffffffffff1681565b60405165ffffffffffff9091168152602001610197565b6103a86103323660046119e7565b600160208190526000918252604090912080549181015460029091015465ffffffffffff80841693600160301b81049091169260ff600160601b808404821694600160681b8504831694600160701b8104909316936001600160601b03600160781b909404841693818116939091048116911689565b6040805165ffffffffffff9a8b1681529990981660208a015260ff9687169789019790975294909316606087015290151560808601526001600160601b0390811660a086015290811660c085015290811660e08401521661010082015261012001610197565b61018b61041c3660046119e7565b610b14565b61021461042f366004611e0e565b610ba1565b60006040516101979190611f61565b610456610451366004611f7b565b610ede565b604051610197929190611fe0565b6102146104723660046119e7565b6001600160601b03908116600090815260016020526040902054600160781b90041690565b6104aa6104a53660046119e7565b61114b565b005b6102146104ba366004612002565b600092915050565b6000604051610197919061203b565b6040516530314650414d60d01b8152602001610197565b61051c6104f63660046119e7565b6002602052600090815260409020546001600160601b0380821691600160601b90041682565b604080516001600160601b03938416815292909116602083015201610197565b6104aa6112a0565b6105576105523660046119e7565b6112ed565b60405161019792919061204f565b6001600160601b03811660009081526001602052604081205465ffffffffffff428116600160301b9092041610806105bc57506001600160601b03808316600090815260016020526040902054600160781b900416155b92915050565b606080336001600160a01b037f00000000000000000000000000000000000000000000000000000000000000001614610615576040516366e069e160e01b81523360048201526024015b60405180910390fd5b7f00000000000000000000000000000000000000000000000000000000000000006001600160a01b0316635c774ed76040518163ffffffff1660e01b8152600401602060405180830381865afa158015610673573d6000803e3d6000fd5b505050506040513d601f19601f820116820180604052508101906106979190612102565b156106b55760405163115250c560e21b815260040160405180910390fd5b6106be856114c6565b6106c785611514565b6106d285858561152d565b91509150935093915050565b6000336001600160a01b037f0000000000000000000000000000000000000000000000000000000000000000161461072b576040516366e069e160e01b815233600482015260240161060c565b7f00000000000000000000000000000000000000000000000000000000000000006001600160a01b0316635c774ed76040518163ffffffff1660e01b8152600401602060405180830381865afa158015610789573d6000803e3d6000fd5b505050506040513d601f19601f820116820180604052508101906107ad9190612102565b156107cb5760405163115250c560e21b815260040160405180910390fd5b6107d4876114c6565b6107dd87611549565b6107e687611598565b6107ef87611514565b6107fd87878787878761163c565b979650505050505050565b60008080336001600160a01b037f00000000000000000000000000000000000000000000000000000000000000001614610857576040516366e069e160e01b815233600482015260240161060c565b7f00000000000000000000000000000000000000000000000000000000000000006001600160a01b0316635c774ed76040518163ffffffff1660e01b8152600401602060405180830381865afa1580156108b5573d6000803e3d6000fd5b505050506040513d601f19601f820116820180604052508101906108d99190612102565b156108f75760405163115250c560e21b815260040160405180910390fd5b610900846114c6565b61090984611514565b61091284611514565b61091b84611657565b9250925092509193909250565b610930611986565b506001600160601b03908116600090815260016020818152604092839020835161012081018552815465ffffffffffff8082168352600160301b8204169382019390935260ff600160601b808504821696830196909652600160681b840481166060830152600160701b84041615156080820152600160781b909204851660a08301529182015480851660c083015292909204831660e08301526002015490911661010082015290565b6000336001600160a01b037f00000000000000000000000000000000000000000000000000000000000000001614610a27576040516366e069e160e01b815233600482015260240161060c565b7f00000000000000000000000000000000000000000000000000000000000000006001600160a01b0316635c774ed76040518163ffffffff1660e01b8152600401602060405180830381865afa158015610a85573d6000803e3d6000fd5b505050506040513d601f19601f82011682018060405250810190610aa99190612102565b15610ac75760405163115250c560e21b815260040160405180910390fd5b610ad0846114c6565b610ad984611549565b610ae38484611514565b610aee848484611514565b610af88484611514565b610b0184611598565b610b0c84848461163c565b949350505050565b6001600160601b038082166000908152600160205260408120549091600160781b9091041615801590610b7057506001600160601b03821660009081526001602052604090205465ffffffffffff428116600160301b90920416115b80156105bc5750506001600160601b031660009081526001602052604090205465ffffffffffff4281169116111590565b6000336001600160a01b037f00000000000000000000000000000000000000000000000000000000000000001614610bee576040516366e069e160e01b815233600482015260240161060c565b7f00000000000000000000000000000000000000000000000000000000000000006001600160a01b0316635c774ed76040518163ffffffff1660e01b8152600401602060405180830381865afa158015610c4c573d6000803e3d6000fd5b505050506040513d601f19601f82011682018060405250810190610c709190612102565b15610c8e5760405163115250c560e21b815260040160405180910390fd5b835165ffffffffffff1615801590610cb15750835165ffffffffffff4281169116105b15610ce5578351604051639421aa8960e01b815265ffffffffffff918216600482015242909116602482015260440161060c565b600054602085015165ffffffffffff91821691161015610d325760208401516000546040516302c1012760e21b815265ffffffffffff92831660048201529116602482015260440161060c565b610d3a611986565b845165ffffffffffff1615610d50578451610d52565b425b65ffffffffffff168082526020860151610d6b91612135565b65ffffffffffff16602082015260ff808516604080840191909152908416606080840191909152908601511515608080840191909152908601516001600160601b031660a0830152850151610dc39087908390611675565b6001600160601b039586166000908152600160208181526040928390208451815492860151948601516060870151608088015160a089015165ffffffffffff9485166bffffffffffffffffffffffff1997881617600160301b95909916949094029790971761ffff60601b1916600160601b60ff938416810260ff60681b191691909117600160681b9390921692909202176cffffffffffffffffffffffffff60701b1916600160701b96151596909602600160781b600160d81b03191695909517600160781b828d160217825560c0860151938201805460e0880151958d166001600160c01b031990911617948c169095029390931790935561010090930151600290920180549093169190971617905550929392505050565b60006060336001600160a01b037f00000000000000000000000000000000000000000000000000000000000000001614610f2d576040516366e069e160e01b815233600482015260240161060c565b7f00000000000000000000000000000000000000000000000000000000000000006001600160a01b0316635c774ed76040518163ffffffff1660e01b8152600401602060405180830381865afa158015610f8b573d6000803e3d6000fd5b505050506040513d601f19601f82011682018060405250810190610faf9190612102565b15610fcd5760405163115250c560e21b815260040160405180910390fd5b610fd6866114c6565b610fdf866117b0565b610feb868686866117e1565b6001600160601b0388166000908152600160205260409020805492945090925090600160701b900460ff166110375780546001600160601b03600160781b909104811690841611611050565b80546001600160601b03600160781b9091048116908716115b1561106e576040516384add39d60e01b815260040160405180910390fd5b8054600160701b900460ff166110845782611086565b855b81546001600160601b03600160781b8083048216939093038116909202600160781b600160d81b03199091161782556001820180548892600c916110d3918591600160601b90041661215b565b92506101000a8154816001600160601b0302191690836001600160601b03160217905550828160010160008282829054906101000a90046001600160601b031661111d919061215b565b92506101000a8154816001600160601b0302191690836001600160601b031602179055505094509492505050565b336001600160a01b037f00000000000000000000000000000000000000000000000000000000000000001614611196576040516366e069e160e01b815233600482015260240161060c565b7f00000000000000000000000000000000000000000000000000000000000000006001600160a01b0316635c774ed76040518163ffffffff1660e01b8152600401602060405180830381865afa1580156111f4573d6000803e3d6000fd5b505050506040513d601f19601f820116820180604052508101906112189190612102565b156112365760405163115250c560e21b815260040160405180910390fd5b61123f816114c6565b61124881611598565b6001600160601b0316600090815260016020526040902080547affffffffffffffffffffffff000000ffffffffffff0000000000001916600160301b4265ffffffffffff1602600160781b600160d81b031916179055565b336001600160a01b037f000000000000000000000000000000000000000000000000000000000000000016146112eb576040516366e069e160e01b815233600482015260240161060c565b565b6040805160e08101825260008082526020820181905291810182905260608082018390526080820183905260a082019290925260c08101829052907f00000000000000000000000000000000000000000000000000000000000000006001600160a01b03163314611373576040516366e069e160e01b815233600482015260240161060c565b7f00000000000000000000000000000000000000000000000000000000000000006001600160a01b0316635c774ed76040518163ffffffff1660e01b8152600401602060405180830381865afa1580156113d1573d6000803e3d6000fd5b505050506040513d601f19601f820116820180604052508101906113f59190612102565b156114135760405163115250c560e21b815260040160405180910390fd5b61141c836114c6565b61142583611549565b61142e836118e0565b61143783611514565b61144083611912565b6001600160601b0394851660009081526001602081815260409092208054600160781b600160d81b0319168155845191810180549386015189166bffffffffffffffffffffffff19938a16600160601b0284166001600160c01b0319909516949094179390931790925560a0840151600290920180549290971691161790945593915050565b6001600160601b03811660009081526001602052604081205465ffffffffffff16900361151157604051638c54233f60e01b81526001600160601b038216600482015260240161060c565b50565b60405163260cd52960e11b815260040160405180910390fd5b60608060405163260cd52960e11b815260040160405180910390fd5b6001600160601b03811660009081526001602052604090205465ffffffffffff4281169116111561151157604051633ccc2fdb60e01b81526001600160601b038216600482015260240161060c565b6001600160601b03811660009081526001602052604090205465ffffffffffff428116600160301b9092041610156115ee57604051633ccc2fdb60e01b81526001600160601b038216600482015260240161060c565b6001600160601b03808216600090815260016020526040812054600160781b9004909116900361151157604051633ccc2fdb60e01b81526001600160601b038216600482015260240161060c565b600060405163260cd52960e11b815260040160405180910390fd5b600080600060405163260cd52960e11b815260040160405180910390fd5b60008180602001905181019061168b919061217b565b80519091506001600160601b03166000036116b957604051633350f82560e11b815260040160405180910390fd5b6103e8816020015162ffffff1610806116e55750620186a065ffffffffffff16816020015162ffffff16115b1561170357604051633350f82560e11b815260040160405180910390fd5b60006117318460a001516001600160601b0316836020015162ffffff16620186a065ffffffffffff16611968565b905083608001511561176e5761176b816001600160601b03168560600151600a61175b91906122c6565b84516001600160601b0316611968565b90505b6001600160601b039485166000908152600260205260409020915182549086166001600160c01b031990911617600160601b9190951602939093179092555050565b6117b981610b14565b61151157604051633ccc2fdb60e01b81526001600160601b038216600482015260240161060c565b60006060816117f2848601866119e7565b6001600160601b0388811660009081526001602052604090205491925061184c919088169061182c90600160681b900460ff16600a6122c6565b6001600160601b03808b1660009081526002602052604090205416611968565b9250806001600160601b0316836001600160601b03161015611881576040516305b12f6760e11b815260040160405180910390fd5b6001600160601b03808816600090815260026020526040902054600160601b9004811690841611156118c657604051635decabdb60e01b815260040160405180910390fd5b505060408051602081019091526000815294509492505050565b6118e981610b14565b156115115760405163542262e160e11b81526001600160601b038216600482015260240161060c565b6040805160e08101825260008082526020820181905291810182905260608082018390526080820183905260a082019290925260c0810191909152606060405163260cd52960e11b815260040160405180910390fd5b600082600019048411830215820261197f57600080fd5b5091020490565b6040805161012081018252600080825260208201819052918101829052606081018290526080810182905260a0810182905260c0810182905260e0810182905261010081019190915290565b6001600160601b038116811461151157600080fd5b6000602082840312156119f957600080fd5b8135611a04816119d2565b9392505050565b600080600060408486031215611a2057600080fd5b8335611a2b816119d2565b9250602084013567ffffffffffffffff80821115611a4857600080fd5b818601915086601f830112611a5c57600080fd5b813581811115611a6b57600080fd5b8760208260051b8501011115611a8057600080fd5b6020830194508093505050509250925092565b6000815180845260005b81811015611ab957602081850181015186830182015201611a9d565b506000602082860101526020601f19601f83011685010191505092915050565b6040808252835182820181905260009190606090818501906020808901865b83811015611b4857815180516001600160a01b039081168752848201511684870152878101516001600160601b039081168988015290870151168686015260809094019390820190600101611af8565b505086830390870152506107fd8187611a93565b80356001600160a01b0381168114611b7357600080fd5b919050565b60008083601f840112611b8a57600080fd5b50813567ffffffffffffffff811115611ba257600080fd5b602083019150836020828501011115611bba57600080fd5b9250929050565b60008060008060008060a08789031215611bda57600080fd5b8635611be5816119d2565b9550611bf360208801611b5c565b9450611c0160408801611b5c565b93506060870135611c11816119d2565b9250608087013567ffffffffffffffff811115611c2d57600080fd5b611c3989828a01611b78565b979a9699509497509295939492505050565b60006101208201905065ffffffffffff808451168352806020850151166020840152506040830151611c82604084018260ff169052565b506060830151611c97606084018260ff169052565b506080830151611cab608084018215159052565b5060a0830151611cc660a08401826001600160601b03169052565b5060c0830151611ce160c08401826001600160601b03169052565b5060e0830151611cfc60e08401826001600160601b03169052565b50610100928301516001600160601b0316919092015290565b600080600060608486031215611d2a57600080fd5b8335611d35816119d2565b9250602084013567ffffffffffffffff81168114611d5257600080fd5b9150611d6060408501611b5c565b90509250925092565b634e487b7160e01b600052604160045260246000fd5b60405160a0810167ffffffffffffffff81118282101715611da257611da2611d69565b60405290565b604051601f8201601f1916810167ffffffffffffffff81118282101715611dd157611dd1611d69565b604052919050565b803565ffffffffffff81168114611b7357600080fd5b801515811461151157600080fd5b803560ff81168114611b7357600080fd5b60008060008060808587031215611e2457600080fd5b8435611e2f816119d2565b935060208581013567ffffffffffffffff80821115611e4d57600080fd5b9087019060a0828a031215611e6157600080fd5b611e69611d7f565b611e7283611dd9565b8152611e7f848401611dd9565b848201526040830135611e9181611def565b60408201526060830135611ea4816119d2565b6060820152608083013582811115611ebb57600080fd5b80840193505089601f840112611ed057600080fd5b823582811115611ee257611ee2611d69565b611ef4601f8201601f19168601611da8565b92508083528a85828601011115611f0a57600080fd5b80858501868501376000908301909401939093526080830152509250611f3260408601611dfd565b9150611f4060608601611dfd565b905092959194509250565b634e487b7160e01b600052602160045260246000fd5b6020810160028310611f7557611f75611f4b565b91905290565b60008060008060608587031215611f9157600080fd5b8435611f9c816119d2565b93506020850135611fac816119d2565b9250604085013567ffffffffffffffff811115611fc857600080fd5b611fd487828801611b78565b95989497509550505050565b6001600160601b0383168152604060208201526000610b0c6040830184611a93565b6000806040838503121561201557600080fd5b8235612020816119d2565b91506020830135612030816119d2565b809150509250929050565b6020810160048310611f7557611f75611f4b565b6040815260006001600160601b038085511660408401528060208601511660608401525060018060a01b036040850151166080830152606084015161209f60a08401826001600160a01b03169052565b5060808401516001600160601b03811660c08401525060a08401516001600160601b03811660e08401525060c084015160e06101008401526120e5610120840182611a93565b905082810360208401526120f98185611a93565b95945050505050565b60006020828403121561211457600080fd5b8151611a0481611def565b634e487b7160e01b600052601160045260246000fd5b65ffffffffffff8181168382160190808211156121545761215461211f565b5092915050565b6001600160601b038181168382160190808211156121545761215461211f565b60006040828403121561218d57600080fd5b6040516040810181811067ffffffffffffffff821117156121b0576121b0611d69565b60405282516121be816119d2565b8152602083015162ffffff811681146121d657600080fd5b60208201529392505050565b600181815b8085111561221d5781600019048211156122035761220361211f565b8085161561221057918102915b93841c93908002906121e7565b509250929050565b600082612234575060016105bc565b81612241575060006105bc565b816001811461225757600281146122615761227d565b60019150506105bc565b60ff8411156122725761227261211f565b50506001821b6105bc565b5060208310610133831016604e8410600b84101617156122a0575081810a6105bc565b6122aa83836121e2565b80600019048211156122be576122be61211f565b029392505050565b6000611a0460ff84168361222556fea26469706673582212205f3d19bd486b2204eddcf4bc5d0bcd115bbf63d98b3a4096c0224e1b1d08a66c64736f6c63430008130033",
    "linkReferences": {}
  },
  "methodIdentifiers": {
    "INIT()": "ea643914",
    "PARENT()": "122b83f9",
    "TYPE()": "bb24fe8a",
    "VEECODE()": "d61735ca",
    "auction(uint96,(uint48,uint48,bool,uint96,bytes),uint8,uint8)": "803c90fd",
    "auctionData(uint96)": "e2cfa6ea",
    "auctionType()": "994595e1",
    "bid(uint96,address,address,uint96,bytes)": "23464a60",
    "cancelAuction(uint96)": "b04046df",
    "capacityInQuote(uint96)": "39792cdc",
    "claimBids(uint96,uint64[])": "0a35511b",
    "claimProceeds(uint96)": "24546b2d",
    "getLot(uint96)": "4e1f4258",
    "hasEnded(uint96)": "03855921",
    "isLive(uint96)": "732efc03",
    "lotData(uint96)": "5806afc3",
    "maxAmountAccepted(uint96)": "1a85c634",
    "maxPayout(uint96)": "d3ad2fed",
    "minAuctionDuration()": "54134876",
    "payoutFor(uint96,uint96)": "eee974b9",
    "priceFor(uint96,uint96)": "ba4c8b7d",
    "purchase(uint96,uint96,bytes)": "a8ee70be",
    "refundBid(uint96,uint64,address)": "53708796",
    "remainingCapacity(uint96)": "ace54da5",
    "settle(uint96)": "fb9d3cb6"
  },
  "id": 64
}