{
  "abi": [
    {
      "type": "constructor",
      "inputs": [
        {
          "name": "auctionHouse_",
          "type": "address",
          "internalType": "address"
        }
      ],
      "stateMutability": "nonpayable"
    },
    {
      "type": "function",
      "name": "INIT",
      "inputs": [],
      "outputs": [],
      "stateMutability": "nonpayable"
    },
    {
      "type": "function",
      "name": "PARENT",
      "inputs": [],
      "outputs": [
        {
          "name": "",
          "type": "address",
          "internalType": "address"
        }
      ],
      "stateMutability": "view"
    },
    {
      "type": "function",
      "name": "TYPE",
      "inputs": [],
      "outputs": [
        {
          "name": "",
          "type": "uint8",
          "internalType": "enum Module.Type"
        }
      ],
      "stateMutability": "pure"
    },
    {
      "type": "function",
      "name": "VEECODE",
      "inputs": [],
      "outputs": [
        {
          "name": "",
          "type": "bytes7",
          "internalType": "Veecode"
        }
      ],
      "stateMutability": "pure"
    },
    {
      "type": "function",
      "name": "auction",
      "inputs": [
        {
          "name": "lotId_",
          "type": "uint96",
          "internalType": "uint96"
        },
        {
          "name": "params_",
          "type": "tuple",
          "internalType": "struct IAuction.AuctionParams",
          "components": [
            {
              "name": "start",
              "type": "uint48",
              "internalType": "uint48"
            },
            {
              "name": "duration",
              "type": "uint48",
              "internalType": "uint48"
            },
            {
              "name": "capacityInQuote",
              "type": "bool",
              "internalType": "bool"
            },
            {
              "name": "capacity",
              "type": "uint256",
              "internalType": "uint256"
            },
            {
              "name": "implParams",
              "type": "bytes",
              "internalType": "bytes"
            }
          ]
        },
        {
          "name": "quoteTokenDecimals_",
          "type": "uint8",
          "internalType": "uint8"
        },
        {
          "name": "baseTokenDecimals_",
          "type": "uint8",
          "internalType": "uint8"
        }
      ],
      "outputs": [],
      "stateMutability": "nonpayable"
    },
    {
      "type": "function",
      "name": "auctionData",
      "inputs": [
        {
          "name": "lotId",
          "type": "uint96",
          "internalType": "uint96"
        }
      ],
      "outputs": [
        {
          "name": "price",
          "type": "uint256",
          "internalType": "uint256"
        },
        {
          "name": "maxPayout",
          "type": "uint256",
          "internalType": "uint256"
        }
      ],
      "stateMutability": "view"
    },
    {
      "type": "function",
      "name": "auctionType",
      "inputs": [],
      "outputs": [
        {
          "name": "",
          "type": "uint8",
          "internalType": "enum IAuction.AuctionType"
        }
      ],
      "stateMutability": "pure"
    },
    {
      "type": "function",
      "name": "cancelAuction",
      "inputs": [
        {
          "name": "lotId_",
          "type": "uint96",
          "internalType": "uint96"
        }
      ],
      "outputs": [],
      "stateMutability": "nonpayable"
    },
    {
      "type": "function",
      "name": "capacityInQuote",
      "inputs": [
        {
          "name": "lotId_",
          "type": "uint96",
          "internalType": "uint96"
        }
      ],
      "outputs": [
        {
          "name": "",
          "type": "bool",
          "internalType": "bool"
        }
      ],
      "stateMutability": "view"
    },
    {
      "type": "function",
      "name": "getLot",
      "inputs": [
        {
          "name": "lotId_",
          "type": "uint96",
          "internalType": "uint96"
        }
      ],
      "outputs": [
        {
          "name": "",
          "type": "tuple",
          "internalType": "struct IAuction.Lot",
          "components": [
            {
              "name": "start",
              "type": "uint48",
              "internalType": "uint48"
            },
            {
              "name": "conclusion",
              "type": "uint48",
              "internalType": "uint48"
            },
            {
              "name": "quoteTokenDecimals",
              "type": "uint8",
              "internalType": "uint8"
            },
            {
              "name": "baseTokenDecimals",
              "type": "uint8",
              "internalType": "uint8"
            },
            {
              "name": "capacityInQuote",
              "type": "bool",
              "internalType": "bool"
            },
            {
              "name": "capacity",
              "type": "uint256",
              "internalType": "uint256"
            },
            {
              "name": "sold",
              "type": "uint256",
              "internalType": "uint256"
            },
            {
              "name": "purchased",
              "type": "uint256",
              "internalType": "uint256"
            }
          ]
        }
      ],
      "stateMutability": "view"
    },
    {
      "type": "function",
      "name": "hasEnded",
      "inputs": [
        {
          "name": "lotId_",
          "type": "uint96",
          "internalType": "uint96"
        }
      ],
      "outputs": [
        {
          "name": "",
          "type": "bool",
          "internalType": "bool"
        }
      ],
      "stateMutability": "view"
    },
    {
      "type": "function",
      "name": "isLive",
      "inputs": [
        {
          "name": "lotId_",
          "type": "uint96",
          "internalType": "uint96"
        }
      ],
      "outputs": [
        {
          "name": "",
          "type": "bool",
          "internalType": "bool"
        }
      ],
      "stateMutability": "view"
    },
    {
      "type": "function",
      "name": "lotData",
      "inputs": [
        {
          "name": "id",
          "type": "uint96",
          "internalType": "uint96"
        }
      ],
      "outputs": [
        {
          "name": "start",
          "type": "uint48",
          "internalType": "uint48"
        },
        {
          "name": "conclusion",
          "type": "uint48",
          "internalType": "uint48"
        },
        {
          "name": "quoteTokenDecimals",
          "type": "uint8",
          "internalType": "uint8"
        },
        {
          "name": "baseTokenDecimals",
          "type": "uint8",
          "internalType": "uint8"
        },
        {
          "name": "capacityInQuote",
          "type": "bool",
          "internalType": "bool"
        },
        {
          "name": "capacity",
          "type": "uint256",
          "internalType": "uint256"
        },
        {
          "name": "sold",
          "type": "uint256",
          "internalType": "uint256"
        },
        {
          "name": "purchased",
          "type": "uint256",
          "internalType": "uint256"
        }
      ],
      "stateMutability": "view"
    },
    {
      "type": "function",
      "name": "maxAmountAccepted",
      "inputs": [
        {
          "name": "lotId_",
          "type": "uint96",
          "internalType": "uint96"
        }
      ],
      "outputs": [
        {
          "name": "",
          "type": "uint256",
          "internalType": "uint256"
        }
      ],
      "stateMutability": "view"
    },
    {
      "type": "function",
      "name": "maxPayout",
      "inputs": [
        {
          "name": "lotId_",
          "type": "uint96",
          "internalType": "uint96"
        }
      ],
      "outputs": [
        {
          "name": "",
          "type": "uint256",
          "internalType": "uint256"
        }
      ],
      "stateMutability": "view"
    },
    {
      "type": "function",
      "name": "minAuctionDuration",
      "inputs": [],
      "outputs": [
        {
          "name": "",
          "type": "uint48",
          "internalType": "uint48"
        }
      ],
      "stateMutability": "view"
    },
    {
      "type": "function",
      "name": "payoutFor",
      "inputs": [
        {
          "name": "lotId_",
          "type": "uint96",
          "internalType": "uint96"
        },
        {
          "name": "amount_",
          "type": "uint256",
          "internalType": "uint256"
        }
      ],
      "outputs": [
        {
          "name": "",
          "type": "uint256",
          "internalType": "uint256"
        }
      ],
      "stateMutability": "view"
    },
    {
      "type": "function",
      "name": "priceFor",
      "inputs": [
        {
          "name": "lotId_",
          "type": "uint96",
          "internalType": "uint96"
        },
        {
          "name": "payout_",
          "type": "uint256",
          "internalType": "uint256"
        }
      ],
      "outputs": [
        {
          "name": "",
          "type": "uint256",
          "internalType": "uint256"
        }
      ],
      "stateMutability": "view"
    },
    {
      "type": "function",
      "name": "purchase",
      "inputs": [
        {
          "name": "lotId_",
          "type": "uint96",
          "internalType": "uint96"
        },
        {
          "name": "amount_",
          "type": "uint256",
          "internalType": "uint256"
        },
        {
          "name": "auctionData_",
          "type": "bytes",
          "internalType": "bytes"
        }
      ],
      "outputs": [
        {
          "name": "payout",
          "type": "uint256",
          "internalType": "uint256"
        },
        {
          "name": "auctionOutput",
          "type": "bytes",
          "internalType": "bytes"
        }
      ],
      "stateMutability": "nonpayable"
    },
    {
      "type": "function",
      "name": "remainingCapacity",
      "inputs": [
        {
          "name": "lotId_",
          "type": "uint96",
          "internalType": "uint96"
        }
      ],
      "outputs": [
        {
          "name": "",
          "type": "uint256",
          "internalType": "uint256"
        }
      ],
      "stateMutability": "view"
    },
    {
      "type": "function",
      "name": "setMinAuctionDuration",
      "inputs": [
        {
          "name": "duration_",
          "type": "uint48",
          "internalType": "uint48"
        }
      ],
      "outputs": [],
      "stateMutability": "nonpayable"
    },
    {
      "type": "error",
      "name": "Auction_AmountLessThanMinimum",
      "inputs": []
    },
    {
      "type": "error",
      "name": "Auction_InsufficientCapacity",
      "inputs": []
    },
    {
      "type": "error",
      "name": "Auction_InsufficientPayout",
      "inputs": []
    },
    {
      "type": "error",
      "name": "Auction_InvalidDuration",
      "inputs": [
        {
          "name": "duration_",
          "type": "uint48",
          "internalType": "uint48"
        },
        {
          "name": "minimum_",
          "type": "uint48",
          "internalType": "uint48"
        }
      ]
    },
    {
      "type": "error",
      "name": "Auction_InvalidLotId",
      "inputs": [
        {
          "name": "lotId",
          "type": "uint96",
          "internalType": "uint96"
        }
      ]
    },
    {
      "type": "error",
      "name": "Auction_InvalidParams",
      "inputs": []
    },
    {
      "type": "error",
      "name": "Auction_InvalidStart",
      "inputs": [
        {
          "name": "start_",
          "type": "uint48",
          "internalType": "uint48"
        },
        {
          "name": "minimum_",
          "type": "uint48",
          "internalType": "uint48"
        }
      ]
    },
    {
      "type": "error",
      "name": "Auction_MarketActive",
      "inputs": [
        {
          "name": "lotId",
          "type": "uint96",
          "internalType": "uint96"
        }
      ]
    },
    {
      "type": "error",
      "name": "Auction_MarketNotActive",
      "inputs": [
        {
          "name": "lotId",
          "type": "uint96",
          "internalType": "uint96"
        }
      ]
    },
    {
      "type": "error",
      "name": "Auction_NotAuthorized",
      "inputs": []
    },
    {
      "type": "error",
      "name": "Auction_NotImplemented",
      "inputs": []
    },
    {
      "type": "error",
      "name": "Auction_OnlyMarketOwner",
      "inputs": []
    },
    {
      "type": "error",
      "name": "Auction_PayoutGreaterThanMax",
      "inputs": []
    },
    {
      "type": "error",
      "name": "Module_InvalidParent",
      "inputs": [
        {
          "name": "parent_",
          "type": "address",
          "internalType": "address"
        }
      ]
    },
    {
      "type": "error",
      "name": "Module_OnlyInternal",
      "inputs": []
    },
    {
      "type": "error",
      "name": "Module_OnlyParent",
      "inputs": [
        {
          "name": "caller_",
          "type": "address",
          "internalType": "address"
        }
      ]
    }
  ],
  "bytecode": {
    "object": "0x60a060405234801561001057600080fd5b506040516117ee3803806117ee83398101604081905261002f9161008e565b80806001600160a01b03811661006757604051631462ddc360e21b81526001600160a01b038216600482015260240160405180910390fd5b6001600160a01b031660805250506000805465ffffffffffff1916620151801790556100be565b6000602082840312156100a057600080fd5b81516001600160a01b03811681146100b757600080fd5b9392505050565b6080516116dd61011160003960008181610169015281816105300152818161075701528181610799015281816109280152818161096a01528181610a6501528181610aa70152610d9b01526116dd6000f3fe608060405234801561001057600080fd5b50600436106101375760003560e01c806376103c8f116100b8578063bb24fe8a1161007c578063bb24fe8a14610421578063bd8dd0fd14610430578063d3ad2fed14610443578063d61735ca1461046f578063e2cfa6ea14610486578063ea643914146104c257600080fd5b806376103c8f1461039e578063994595e1146103bf578063ace54da5146103ce578063b04046df146103fb578063bae96bdd1461040e57600080fd5b80634dc1a12f116100ff5780634dc1a12f1461020c5780634e1f42581461021f57806354134876146102a75780635806afc3146102d0578063732efc031461038b57600080fd5b8063038559211461013c578063122b83f91461016457806312d6ef2d146101a35780631a85c634146101b857806339792cdc146101d9575b600080fd5b61014f61014a366004611179565b6104ca565b60405190151581526020015b60405180910390f35b61018b7f000000000000000000000000000000000000000000000000000000000000000081565b6040516001600160a01b03909116815260200161015b565b6101b66101b13660046111aa565b610525565b005b6101cb6101c6366004611179565b610595565b60405190815260200161015b565b61014f6101e7366004611179565b6001600160601b0316600090815260016020526040902054600160701b900460ff1690565b6101cb61021a3660046111c5565b6105dd565b61023261022d366004611179565b610623565b60405161015b919060006101008201905065ffffffffffff8084511683528060208501511660208401525060ff604084015116604083015260ff606084015116606083015260808301511515608083015260a083015160a083015260c083015160c083015260e083015160e083015292915050565b6000546102b99065ffffffffffff1681565b60405165ffffffffffff909116815260200161015b565b61033e6102de366004611179565b6001602081905260009182526040909120805491810154600282015460039092015465ffffffffffff80851694600160301b81049091169360ff600160601b8304811694600160681b8404821694600160701b9094049091169290919088565b6040805165ffffffffffff998a16815298909716602089015260ff958616968801969096529390921660608601521515608085015260a084015260c083015260e08201526101000161015b565b61014f610399366004611179565b6106c0565b6103b16103ac3660046111ef565b610748565b60405161015b929190611276565b600060405161015b91906112e2565b6101cb6103dc366004611179565b6001600160601b03166000908152600160208190526040909120015490565b6101b6610409366004611179565b61091d565b6101b661041c36600461138b565b610a5a565b600060405161015b91906114bd565b6101cb61043e3660046111c5565b610d3e565b6101cb610451366004611179565b6001600160601b031660009081526002602052604090206001015490565b6040516530314650534160d01b815260200161015b565b6104ad610494366004611179565b6002602052600090815260409020805460019091015482565b6040805192835260208301919091520161015b565b6101b6610d90565b6001600160601b03811660009081526001602052604081205465ffffffffffff600160301b90910481164290911610158061051f57506001600160601b03821660009081526001602081905260409091200154155b92915050565b336001600160a01b037f00000000000000000000000000000000000000000000000000000000000000001614610575576040516366e069e160e01b81523360048201526024015b60405180910390fd5b6000805465ffffffffffff191665ffffffffffff92909216919091179055565b6001600160601b0381166000908152600260209081526040808320600180820154915493529083205461051f92906105d890600160681b900460ff16600a6115cb565b610ddd565b6001600160601b038216600090815260026020908152604080832054600190925282205461061c9184916105d890600160681b900460ff16600a6115cb565b9392505050565b61062b611119565b506001600160601b0316600090815260016020818152604092839020835161010081018552815465ffffffffffff8082168352600160301b8204169382019390935260ff600160601b8404811695820195909552600160681b830485166060820152600160701b909204909316151560808201529082015460a0820152600282015460c082015260039091015460e082015290565b6001600160601b0381166000908152600160208190526040822001541580159061071557506001600160601b03821660009081526001602052604090205465ffffffffffff600160301b909104811642909116105b801561051f5750506001600160601b031660009081526001602052604090205465ffffffffffff90811642909116101590565b60006060336001600160a01b037f00000000000000000000000000000000000000000000000000000000000000001614610797576040516366e069e160e01b815233600482015260240161056c565b7f00000000000000000000000000000000000000000000000000000000000000006001600160a01b0316635c774ed76040518163ffffffff1660e01b8152600401602060405180830381865afa1580156107f5573d6000803e3d6000fd5b505050506040513d601f19601f8201168201806040525081019061081991906115da565b156108375760405163115250c560e21b815260040160405180910390fd5b61084086610e03565b61084986610e51565b61085586868686610e82565b6001600160601b0388166000908152600160205260409020805492945090925090600160701b900460ff166108905780600101548311610898565b806001015486115b156108b6576040516384add39d60e01b815260040160405180910390fd5b8054600160701b900460ff166108cc57826108ce565b855b6001820180549190910390556003810180548791906000906108f19084906115f7565b925050819055508281600201600082825461090c91906115f7565b925050819055505094509492505050565b336001600160a01b037f00000000000000000000000000000000000000000000000000000000000000001614610968576040516366e069e160e01b815233600482015260240161056c565b7f00000000000000000000000000000000000000000000000000000000000000006001600160a01b0316635c774ed76040518163ffffffff1660e01b8152600401602060405180830381865afa1580156109c6573d6000803e3d6000fd5b505050506040513d601f19601f820116820180604052508101906109ea91906115da565b15610a085760405163115250c560e21b815260040160405180910390fd5b610a1181610e03565b610a1a81610f61565b6001600160601b03166000908152600160208190526040822080546bffffffffffff0000000000001916600160301b4265ffffffffffff16021781550155565b336001600160a01b037f00000000000000000000000000000000000000000000000000000000000000001614610aa5576040516366e069e160e01b815233600482015260240161056c565b7f00000000000000000000000000000000000000000000000000000000000000006001600160a01b0316635c774ed76040518163ffffffff1660e01b8152600401602060405180830381865afa158015610b03573d6000803e3d6000fd5b505050506040513d601f19601f82011682018060405250810190610b2791906115da565b15610b455760405163115250c560e21b815260040160405180910390fd5b825165ffffffffffff1615801590610b685750825165ffffffffffff4281169116105b15610b9c578251604051639421aa8960e01b815265ffffffffffff918216600482015242909116602482015260440161056c565b600054602084015165ffffffffffff91821691161015610be95760208301516000546040516302c1012760e21b815265ffffffffffff92831660048201529116602482015260440161056c565b610bf1611119565b835165ffffffffffff1615610c07578351610c09565b425b65ffffffffffff168082526020850151610c229161160a565b65ffffffffffff16602082015260ff8084166040808401919091529083166060808401919091529085015115156080808401919091529085015160a0830152840151610c719086908390610ffe565b6001600160601b039490941660009081526001602081815260409283902087518154928901519489015160608a015160808b015165ffffffffffff9384166bffffffffffffffffffffffff1990961695909517600160301b93909716929092029590951761ffff60601b1916600160601b60ff9687160260ff60681b191617600160681b95909116949094029390931760ff60701b1916600160701b9115159190910217825560a08601519082015560c0850151600282015560e090940151600390940193909355505050565b6001600160601b03821660009081526001602052604081205461061c908390610d7290600160681b900460ff16600a6115cb565b6001600160601b0386166000908152600260205260409020546110fb565b336001600160a01b037f00000000000000000000000000000000000000000000000000000000000000001614610ddb576040516366e069e160e01b815233600482015260240161056c565b565b6000826000190484118302158202610df457600080fd5b50910281810615159190040190565b6001600160601b03811660009081526001602052604081205465ffffffffffff169003610e4e57604051638c54233f60e01b81526001600160601b038216600482015260240161056c565b50565b610e5a816106c0565b610e4e57604051633ccc2fdb60e01b81526001600160601b038216600482015260240161056c565b6000606081610e9384860186611630565b6001600160601b038816600090815260016020526040902054909150610ee8908790610eca90600160681b900460ff16600a6115cb565b6001600160601b038a166000908152600260205260409020546110fb565b925080831015610f0b576040516305b12f6760e11b815260040160405180910390fd5b6001600160601b038716600090815260026020526040902060010154831115610f4757604051635decabdb60e01b815260040160405180910390fd5b505060408051602081019091526000815294509492505050565b6001600160601b03811660009081526001602052604090205465ffffffffffff600160301b90910481164290911610610fb857604051633ccc2fdb60e01b81526001600160601b038216600482015260240161056c565b6001600160601b0381166000908152600160208190526040822001549003610e4e57604051633ccc2fdb60e01b81526001600160601b038216600482015260240161056c565b6000818060200190518101906110149190611649565b805190915060000361103957604051633350f82560e11b815260040160405180910390fd5b6103e8816020015162ffffff1610806110655750620186a065ffffffffffff16816020015162ffffff16115b1561108357604051633350f82560e11b815260040160405180910390fd5b60006110a88460a00151836020015162ffffff16620186a065ffffffffffff166110fb565b90508360800151156110d3576110d0818560600151600a6110c991906115cb565b84516110fb565b90505b6001600160601b03909416600090815260026020526040902090518155600101929092555050565b600082600019048411830215820261111257600080fd5b5091020490565b6040805161010081018252600080825260208201819052918101829052606081018290526080810182905260a0810182905260c0810182905260e081019190915290565b80356001600160601b038116811461117457600080fd5b919050565b60006020828403121561118b57600080fd5b61061c8261115d565b803565ffffffffffff8116811461117457600080fd5b6000602082840312156111bc57600080fd5b61061c82611194565b600080604083850312156111d857600080fd5b6111e18361115d565b946020939093013593505050565b6000806000806060858703121561120557600080fd5b61120e8561115d565b935060208501359250604085013567ffffffffffffffff8082111561123257600080fd5b818701915087601f83011261124657600080fd5b81358181111561125557600080fd5b88602082850101111561126757600080fd5b95989497505060200194505050565b82815260006020604081840152835180604085015260005b818110156112aa5785810183015185820160600152820161128e565b506000606082860101526060601f19601f830116850101925050509392505050565b634e487b7160e01b600052602160045260246000fd5b60208101600283106112f6576112f66112cc565b91905290565b634e487b7160e01b600052604160045260246000fd5b60405160a0810167ffffffffffffffff81118282101715611335576113356112fc565b60405290565b604051601f8201601f1916810167ffffffffffffffff81118282101715611364576113646112fc565b604052919050565b8015158114610e4e57600080fd5b803560ff8116811461117457600080fd5b600080600080608085870312156113a157600080fd5b6113aa8561115d565b935060208086013567ffffffffffffffff808211156113c857600080fd5b9087019060a0828a0312156113dc57600080fd5b6113e4611312565b6113ed83611194565b81526113fa848401611194565b84820152604083013561140c8161136c565b60408201526060838101359082015260808301358281111561142d57600080fd5b80840193505089601f84011261144257600080fd5b823582811115611454576114546112fc565b611466601f8201601f1916860161133b565b92508083528a8582860101111561147c57600080fd5b808585018685013760009083019094019390935260808301525092506114a46040860161137a565b91506114b26060860161137a565b905092959194509250565b60208101600483106112f6576112f66112cc565b634e487b7160e01b600052601160045260246000fd5b600181815b80851115611522578160001904821115611508576115086114d1565b8085161561151557918102915b93841c93908002906114ec565b509250929050565b6000826115395750600161051f565b816115465750600061051f565b816001811461155c576002811461156657611582565b600191505061051f565b60ff841115611577576115776114d1565b50506001821b61051f565b5060208310610133831016604e8410600b84101617156115a5575081810a61051f565b6115af83836114e7565b80600019048211156115c3576115c36114d1565b029392505050565b600061061c60ff84168361152a565b6000602082840312156115ec57600080fd5b815161061c8161136c565b8082018082111561051f5761051f6114d1565b65ffffffffffff818116838216019080821115611629576116296114d1565b5092915050565b60006020828403121561164257600080fd5b5035919050565b60006040828403121561165b57600080fd5b6040516040810181811067ffffffffffffffff8211171561167e5761167e6112fc565b60405282518152602083015162ffffff8116811461169b57600080fd5b6020820152939250505056fea2646970667358221220fab01d2c589fc05098af23956014ccd3b9b9a7ae0d4d3eb12c45a4e2765d035764736f6c63430008130033",
    "linkReferences": {}
  },
  "methodIdentifiers": {
    "INIT()": "ea643914",
    "PARENT()": "122b83f9",
    "TYPE()": "bb24fe8a",
    "VEECODE()": "d61735ca",
    "auction(uint96,(uint48,uint48,bool,uint256,bytes),uint8,uint8)": "bae96bdd",
    "auctionData(uint96)": "e2cfa6ea",
    "auctionType()": "994595e1",
    "cancelAuction(uint96)": "b04046df",
    "capacityInQuote(uint96)": "39792cdc",
    "getLot(uint96)": "4e1f4258",
    "hasEnded(uint96)": "03855921",
    "isLive(uint96)": "732efc03",
    "lotData(uint96)": "5806afc3",
    "maxAmountAccepted(uint96)": "1a85c634",
    "maxPayout(uint96)": "d3ad2fed",
    "minAuctionDuration()": "54134876",
    "payoutFor(uint96,uint256)": "bd8dd0fd",
    "priceFor(uint96,uint256)": "4dc1a12f",
    "purchase(uint96,uint256,bytes)": "76103c8f",
    "remainingCapacity(uint96)": "ace54da5",
    "setMinAuctionDuration(uint48)": "12d6ef2d"
  },
  "id": 89
}