{
  "abi": [
    {
      "type": "constructor",
      "inputs": [
        {
          "name": "parent_",
          "type": "address",
          "internalType": "address"
        }
      ],
      "stateMutability": "nonpayable"
    },
    {
      "type": "function",
      "name": "INIT",
      "inputs": [],
      "outputs": [],
      "stateMutability": "nonpayable"
    },
    {
      "type": "function",
      "name": "PARENT",
      "inputs": [],
      "outputs": [
        {
          "name": "",
          "type": "address",
          "internalType": "address"
        }
      ],
      "stateMutability": "view"
    },
    {
      "type": "function",
      "name": "TYPE",
      "inputs": [],
      "outputs": [
        {
          "name": "",
          "type": "uint8",
          "internalType": "enum Module.Type"
        }
      ],
      "stateMutability": "pure"
    },
    {
      "type": "function",
      "name": "VEECODE",
      "inputs": [],
      "outputs": [
        {
          "name": "",
          "type": "bytes7",
          "internalType": "Veecode"
        }
      ],
      "stateMutability": "pure"
    },
    {
      "type": "function",
      "name": "allowance",
      "inputs": [
        {
          "name": "",
          "type": "address",
          "internalType": "address"
        },
        {
          "name": "",
          "type": "address",
          "internalType": "address"
        },
        {
          "name": "",
          "type": "uint256",
          "internalType": "uint256"
        }
      ],
      "outputs": [
        {
          "name": "",
          "type": "uint256",
          "internalType": "uint256"
        }
      ],
      "stateMutability": "view"
    },
    {
      "type": "function",
      "name": "approve",
      "inputs": [
        {
          "name": "",
          "type": "address",
          "internalType": "address"
        },
        {
          "name": "",
          "type": "uint256",
          "internalType": "uint256"
        },
        {
          "name": "",
          "type": "uint256",
          "internalType": "uint256"
        }
      ],
      "outputs": [
        {
          "name": "",
          "type": "bool",
          "internalType": "bool"
        }
      ],
      "stateMutability": "nonpayable"
    },
    {
      "type": "function",
      "name": "balanceOf",
      "inputs": [
        {
          "name": "",
          "type": "address",
          "internalType": "address"
        },
        {
          "name": "",
          "type": "uint256",
          "internalType": "uint256"
        }
      ],
      "outputs": [
        {
          "name": "",
          "type": "uint256",
          "internalType": "uint256"
        }
      ],
      "stateMutability": "view"
    },
    {
      "type": "function",
      "name": "computeId",
      "inputs": [
        {
          "name": "underlyingToken_",
          "type": "address",
          "internalType": "address"
        },
        {
          "name": "params_",
          "type": "bytes",
          "internalType": "bytes"
        }
      ],
      "outputs": [
        {
          "name": "",
          "type": "uint256",
          "internalType": "uint256"
        }
      ],
      "stateMutability": "pure"
    },
    {
      "type": "function",
      "name": "decimals",
      "inputs": [
        {
          "name": "tokenId_",
          "type": "uint256",
          "internalType": "uint256"
        }
      ],
      "outputs": [
        {
          "name": "",
          "type": "uint8",
          "internalType": "uint8"
        }
      ],
      "stateMutability": "view"
    },
    {
      "type": "function",
      "name": "deploy",
      "inputs": [
        {
          "name": "underlyingToken_",
          "type": "address",
          "internalType": "address"
        },
        {
          "name": "params_",
          "type": "bytes",
          "internalType": "bytes"
        },
        {
          "name": "wrapped_",
          "type": "bool",
          "internalType": "bool"
        }
      ],
      "outputs": [
        {
          "name": "tokenId_",
          "type": "uint256",
          "internalType": "uint256"
        },
        {
          "name": "wrappedAddress_",
          "type": "address",
          "internalType": "address"
        }
      ],
      "stateMutability": "nonpayable"
    },
    {
      "type": "function",
      "name": "exercise",
      "inputs": [
        {
          "name": "",
          "type": "uint256",
          "internalType": "uint256"
        },
        {
          "name": "",
          "type": "uint256",
          "internalType": "uint256"
        }
      ],
      "outputs": [],
      "stateMutability": "nonpayable"
    },
    {
      "type": "function",
      "name": "exerciseCost",
      "inputs": [
        {
          "name": "",
          "type": "uint256",
          "internalType": "uint256"
        },
        {
          "name": "",
          "type": "uint256",
          "internalType": "uint256"
        }
      ],
      "outputs": [
        {
          "name": "",
          "type": "uint256",
          "internalType": "uint256"
        }
      ],
      "stateMutability": "view"
    },
    {
      "type": "function",
      "name": "getTokenMetadata",
      "inputs": [
        {
          "name": "tokenId",
          "type": "uint256",
          "internalType": "uint256"
        }
      ],
      "outputs": [
        {
          "name": "",
          "type": "tuple",
          "internalType": "struct IDerivative.Token",
          "components": [
            {
              "name": "exists",
              "type": "bool",
              "internalType": "bool"
            },
            {
              "name": "wrapped",
              "type": "address",
              "internalType": "address"
            },
            {
              "name": "underlyingToken",
              "type": "address",
              "internalType": "address"
            },
            {
              "name": "data",
              "type": "bytes",
              "internalType": "bytes"
            }
          ]
        }
      ],
      "stateMutability": "view"
    },
    {
      "type": "function",
      "name": "getTokenVestingParams",
      "inputs": [
        {
          "name": "tokenId_",
          "type": "uint256",
          "internalType": "uint256"
        }
      ],
      "outputs": [
        {
          "name": "",
          "type": "tuple",
          "internalType": "struct ILinearVesting.VestingParams",
          "components": [
            {
              "name": "start",
              "type": "uint48",
              "internalType": "uint48"
            },
            {
              "name": "expiry",
              "type": "uint48",
              "internalType": "uint48"
            }
          ]
        }
      ],
      "stateMutability": "view"
    },
    {
      "type": "function",
      "name": "isOperator",
      "inputs": [
        {
          "name": "",
          "type": "address",
          "internalType": "address"
        },
        {
          "name": "",
          "type": "address",
          "internalType": "address"
        }
      ],
      "outputs": [
        {
          "name": "",
          "type": "bool",
          "internalType": "bool"
        }
      ],
      "stateMutability": "view"
    },
    {
      "type": "function",
      "name": "mint",
      "inputs": [
        {
          "name": "to_",
          "type": "address",
          "internalType": "address"
        },
        {
          "name": "tokenId_",
          "type": "uint256",
          "internalType": "uint256"
        },
        {
          "name": "amount_",
          "type": "uint256",
          "internalType": "uint256"
        },
        {
          "name": "wrapped_",
          "type": "bool",
          "internalType": "bool"
        }
      ],
      "outputs": [
        {
          "name": "",
          "type": "uint256",
          "internalType": "uint256"
        },
        {
          "name": "",
          "type": "address",
          "internalType": "address"
        },
        {
          "name": "",
          "type": "uint256",
          "internalType": "uint256"
        }
      ],
      "stateMutability": "nonpayable"
    },
    {
      "type": "function",
      "name": "mint",
      "inputs": [
        {
          "name": "to_",
          "type": "address",
          "internalType": "address"
        },
        {
          "name": "underlyingToken_",
          "type": "address",
          "internalType": "address"
        },
        {
          "name": "params_",
          "type": "bytes",
          "internalType": "bytes"
        },
        {
          "name": "amount_",
          "type": "uint256",
          "internalType": "uint256"
        },
        {
          "name": "wrapped_",
          "type": "bool",
          "internalType": "bool"
        }
      ],
      "outputs": [
        {
          "name": "tokenId_",
          "type": "uint256",
          "internalType": "uint256"
        },
        {
          "name": "wrappedAddress_",
          "type": "address",
          "internalType": "address"
        },
        {
          "name": "amountCreated_",
          "type": "uint256",
          "internalType": "uint256"
        }
      ],
      "stateMutability": "nonpayable"
    },
    {
      "type": "function",
      "name": "name",
      "inputs": [
        {
          "name": "tokenId_",
          "type": "uint256",
          "internalType": "uint256"
        }
      ],
      "outputs": [
        {
          "name": "",
          "type": "string",
          "internalType": "string"
        }
      ],
      "stateMutability": "view"
    },
    {
      "type": "function",
      "name": "reclaim",
      "inputs": [
        {
          "name": "",
          "type": "uint256",
          "internalType": "uint256"
        }
      ],
      "outputs": [],
      "stateMutability": "nonpayable"
    },
    {
      "type": "function",
      "name": "redeem",
      "inputs": [
        {
          "name": "tokenId_",
          "type": "uint256",
          "internalType": "uint256"
        },
        {
          "name": "amount_",
          "type": "uint256",
          "internalType": "uint256"
        }
      ],
      "outputs": [],
      "stateMutability": "nonpayable"
    },
    {
      "type": "function",
      "name": "redeemMax",
      "inputs": [
        {
          "name": "tokenId_",
          "type": "uint256",
          "internalType": "uint256"
        }
      ],
      "outputs": [],
      "stateMutability": "nonpayable"
    },
    {
      "type": "function",
      "name": "redeemable",
      "inputs": [
        {
          "name": "owner_",
          "type": "address",
          "internalType": "address"
        },
        {
          "name": "tokenId_",
          "type": "uint256",
          "internalType": "uint256"
        }
      ],
      "outputs": [
        {
          "name": "",
          "type": "uint256",
          "internalType": "uint256"
        }
      ],
      "stateMutability": "view"
    },
    {
      "type": "function",
      "name": "setOperator",
      "inputs": [
        {
          "name": "operator",
          "type": "address",
          "internalType": "address"
        },
        {
          "name": "approved",
          "type": "bool",
          "internalType": "bool"
        }
      ],
      "outputs": [
        {
          "name": "",
          "type": "bool",
          "internalType": "bool"
        }
      ],
      "stateMutability": "nonpayable"
    },
    {
      "type": "function",
      "name": "supportsInterface",
      "inputs": [
        {
          "name": "interfaceId",
          "type": "bytes4",
          "internalType": "bytes4"
        }
      ],
      "outputs": [
        {
          "name": "",
          "type": "bool",
          "internalType": "bool"
        }
      ],
      "stateMutability": "view"
    },
    {
      "type": "function",
      "name": "symbol",
      "inputs": [
        {
          "name": "tokenId_",
          "type": "uint256",
          "internalType": "uint256"
        }
      ],
      "outputs": [
        {
          "name": "",
          "type": "string",
          "internalType": "string"
        }
      ],
      "stateMutability": "view"
    },
    {
      "type": "function",
      "name": "tokenMetadata",
      "inputs": [
        {
          "name": "tokenId",
          "type": "uint256",
          "internalType": "uint256"
        }
      ],
      "outputs": [
        {
          "name": "exists",
          "type": "bool",
          "internalType": "bool"
        },
        {
          "name": "wrapped",
          "type": "address",
          "internalType": "address"
        },
        {
          "name": "underlyingToken",
          "type": "address",
          "internalType": "address"
        },
        {
          "name": "data",
          "type": "bytes",
          "internalType": "bytes"
        }
      ],
      "stateMutability": "view"
    },
    {
      "type": "function",
      "name": "transfer",
      "inputs": [
        {
          "name": "",
          "type": "address",
          "internalType": "address"
        },
        {
          "name": "",
          "type": "uint256",
          "internalType": "uint256"
        },
        {
          "name": "",
          "type": "uint256",
          "internalType": "uint256"
        }
      ],
      "outputs": [
        {
          "name": "",
          "type": "bool",
          "internalType": "bool"
        }
      ],
      "stateMutability": "nonpayable"
    },
    {
      "type": "function",
      "name": "transferFrom",
      "inputs": [
        {
          "name": "",
          "type": "address",
          "internalType": "address"
        },
        {
          "name": "",
          "type": "address",
          "internalType": "address"
        },
        {
          "name": "",
          "type": "uint256",
          "internalType": "uint256"
        },
        {
          "name": "",
          "type": "uint256",
          "internalType": "uint256"
        }
      ],
      "outputs": [
        {
          "name": "",
          "type": "bool",
          "internalType": "bool"
        }
      ],
      "stateMutability": "nonpayable"
    },
    {
      "type": "function",
      "name": "transform",
      "inputs": [
        {
          "name": "",
          "type": "uint256",
          "internalType": "uint256"
        },
        {
          "name": "",
          "type": "address",
          "internalType": "address"
        },
        {
          "name": "",
          "type": "uint256",
          "internalType": "uint256"
        }
      ],
      "outputs": [],
      "stateMutability": "nonpayable"
    },
    {
      "type": "function",
      "name": "unwrap",
      "inputs": [
        {
          "name": "tokenId_",
          "type": "uint256",
          "internalType": "uint256"
        },
        {
          "name": "amount_",
          "type": "uint256",
          "internalType": "uint256"
        }
      ],
      "outputs": [],
      "stateMutability": "nonpayable"
    },
    {
      "type": "function",
      "name": "userClaimed",
      "inputs": [
        {
          "name": "owner_",
          "type": "address",
          "internalType": "address"
        },
        {
          "name": "tokenId_",
          "type": "uint256",
          "internalType": "uint256"
        }
      ],
      "outputs": [
        {
          "name": "claimed_",
          "type": "uint256",
          "internalType": "uint256"
        }
      ],
      "stateMutability": "view"
    },
    {
      "type": "function",
      "name": "validate",
      "inputs": [
        {
          "name": "underlyingToken_",
          "type": "address",
          "internalType": "address"
        },
        {
          "name": "params_",
          "type": "bytes",
          "internalType": "bytes"
        }
      ],
      "outputs": [
        {
          "name": "",
          "type": "bool",
          "internalType": "bool"
        }
      ],
      "stateMutability": "pure"
    },
    {
      "type": "function",
      "name": "wrap",
      "inputs": [
        {
          "name": "tokenId_",
          "type": "uint256",
          "internalType": "uint256"
        },
        {
          "name": "amount_",
          "type": "uint256",
          "internalType": "uint256"
        }
      ],
      "outputs": [],
      "stateMutability": "nonpayable"
    },
    {
      "type": "event",
      "name": "Approval",
      "inputs": [
        {
          "name": "owner",
          "type": "address",
          "indexed": true,
          "internalType": "address"
        },
        {
          "name": "spender",
          "type": "address",
          "indexed": true,
          "internalType": "address"
        },
        {
          "name": "id",
          "type": "uint256",
          "indexed": true,
          "internalType": "uint256"
        },
        {
          "name": "amount",
          "type": "uint256",
          "indexed": false,
          "internalType": "uint256"
        }
      ],
      "anonymous": false
    },
    {
      "type": "event",
      "name": "DerivativeCreated",
      "inputs": [
        {
          "name": "tokenId",
          "type": "uint256",
          "indexed": true,
          "internalType": "uint256"
        },
        {
          "name": "start",
          "type": "uint48",
          "indexed": false,
          "internalType": "uint48"
        },
        {
          "name": "expiry",
          "type": "uint48",
          "indexed": false,
          "internalType": "uint48"
        },
        {
          "name": "baseToken",
          "type": "address",
          "indexed": false,
          "internalType": "address"
        }
      ],
      "anonymous": false
    },
    {
      "type": "event",
      "name": "OperatorSet",
      "inputs": [
        {
          "name": "owner",
          "type": "address",
          "indexed": true,
          "internalType": "address"
        },
        {
          "name": "operator",
          "type": "address",
          "indexed": true,
          "internalType": "address"
        },
        {
          "name": "approved",
          "type": "bool",
          "indexed": false,
          "internalType": "bool"
        }
      ],
      "anonymous": false
    },
    {
      "type": "event",
      "name": "Redeemed",
      "inputs": [
        {
          "name": "tokenId",
          "type": "uint256",
          "indexed": true,
          "internalType": "uint256"
        },
        {
          "name": "owner",
          "type": "address",
          "indexed": true,
          "internalType": "address"
        },
        {
          "name": "amount",
          "type": "uint256",
          "indexed": false,
          "internalType": "uint256"
        }
      ],
      "anonymous": false
    },
    {
      "type": "event",
      "name": "Transfer",
      "inputs": [
        {
          "name": "caller",
          "type": "address",
          "indexed": false,
          "internalType": "address"
        },
        {
          "name": "from",
          "type": "address",
          "indexed": true,
          "internalType": "address"
        },
        {
          "name": "to",
          "type": "address",
          "indexed": true,
          "internalType": "address"
        },
        {
          "name": "id",
          "type": "uint256",
          "indexed": true,
          "internalType": "uint256"
        },
        {
          "name": "amount",
          "type": "uint256",
          "indexed": false,
          "internalType": "uint256"
        }
      ],
      "anonymous": false
    },
    {
      "type": "event",
      "name": "Unwrapped",
      "inputs": [
        {
          "name": "tokenId",
          "type": "uint256",
          "indexed": true,
          "internalType": "uint256"
        },
        {
          "name": "owner",
          "type": "address",
          "indexed": true,
          "internalType": "address"
        },
        {
          "name": "amount",
          "type": "uint256",
          "indexed": false,
          "internalType": "uint256"
        },
        {
          "name": "wrappedToken",
          "type": "address",
          "indexed": false,
          "internalType": "address"
        }
      ],
      "anonymous": false
    },
    {
      "type": "event",
      "name": "Wrapped",
      "inputs": [
        {
          "name": "tokenId",
          "type": "uint256",
          "indexed": true,
          "internalType": "uint256"
        },
        {
          "name": "owner",
          "type": "address",
          "indexed": true,
          "internalType": "address"
        },
        {
          "name": "amount",
          "type": "uint256",
          "indexed": false,
          "internalType": "uint256"
        },
        {
          "name": "wrappedToken",
          "type": "address",
          "indexed": false,
          "internalType": "address"
        }
      ],
      "anonymous": false
    },
    {
      "type": "event",
      "name": "WrappedDerivativeCreated",
      "inputs": [
        {
          "name": "tokenId",
          "type": "uint256",
          "indexed": true,
          "internalType": "uint256"
        },
        {
          "name": "wrappedToken",
          "type": "address",
          "indexed": false,
          "internalType": "address"
        }
      ],
      "anonymous": false
    },
    {
      "type": "error",
      "name": "BrokenInvariant",
      "inputs": []
    },
    {
      "type": "error",
      "name": "Derivative_NotImplemented",
      "inputs": []
    },
    {
      "type": "error",
      "name": "InsufficientBalance",
      "inputs": []
    },
    {
      "type": "error",
      "name": "InvalidParams",
      "inputs": []
    },
    {
      "type": "error",
      "name": "Module_InvalidParent",
      "inputs": [
        {
          "name": "parent_",
          "type": "address",
          "internalType": "address"
        }
      ]
    },
    {
      "type": "error",
      "name": "Module_OnlyInternal",
      "inputs": []
    },
    {
      "type": "error",
      "name": "Module_OnlyParent",
      "inputs": [
        {
          "name": "caller_",
          "type": "address",
          "internalType": "address"
        }
      ]
    },
    {
      "type": "error",
      "name": "NotPermitted",
      "inputs": []
    },
    {
      "type": "error",
      "name": "UnsupportedToken",
      "inputs": [
        {
          "name": "token_",
          "type": "address",
          "internalType": "address"
        }
      ]
    }
  ],
  "bytecode": {
    "object": "0x60e0604090815260a0523480156200001657600080fd5b5060405162003d0238038062003d028339810160408190526200003991620000ca565b806001600160a01b0381166200007157604051631462ddc360e21b81526001600160a01b038216600482015260240160405180910390fd5b6001600160a01b03166080526040516200008b90620000bc565b604051809103906000f080158015620000a8573d6000803e3d6000fd5b506001600160a01b031660c05250620000fc565b61075d80620035a583390190565b600060208284031215620000dd57600080fd5b81516001600160a01b0381168114620000f557600080fd5b9392505050565b60805160a05160c05161346b6200013a60003960008181611a480152611c79015260006116e701526000818161029b01526114d1015261346b6000f3fe608060405234801561001057600080fd5b50600436106101f95760003560e01c80636aacff4e1161011a578063d61735ca116100ad578063ea6439141161007c578063ea64391414610549578063f6e9936a14610551578063f904eed81461055f578063fcbf8b2414610572578063fe99049a1461059d57600080fd5b8063d61735ca146104cc578063dbad2d9a146104ed578063dbf110a714610500578063e40d88f81461053657600080fd5b8063b2416661116100e9578063b241666114610446578063b6363cf21461047f578063bb24fe8a146104aa578063caf92785146104b957600080fd5b80636aacff4e146103ff5780636e286671146104125780637cbc237314610425578063a86265bb1461043857600080fd5b80633f47e66211610192578063598af9e711610161578063598af9e71461037857806360316801146103a957806367627b62146103c95780636914db60146103dc57600080fd5b80633f47e6621461032d578063426a8493146102835780634e41a1fb14610352578063558a72971461036557600080fd5b8063122b83f9116101ce578063122b83f9146102965780631f54245b146102d557806325ded586146103055780632dabbeed1461031a57600080fd5b8062ad800c146101fe578062fdd58e1461022757806301ffc9a714610260578063095bcdb614610283575b600080fd5b61021161020c3660046128b5565b6105ab565b60405161021e919061291e565b60405180910390f35b61025261023536600461294d565b600160209081526000928352604080842090915290825290205481565b60405190815260200161021e565b61027361026e366004612977565b6106c4565b604051901515815260200161021e565b6102736102913660046129a1565b6106fb565b6102bd7f000000000000000000000000000000000000000000000000000000000000000081565b6040516001600160a01b03909116815260200161021e565b6102e86102e3366004612aa9565b610716565b604080519283526001600160a01b0390911660208301520161021e565b610318610313366004612b07565b61076f565b005b6103186103283660046128b5565b6108df565b61034061033b3660046128b5565b6108f8565b60405160ff909116815260200161021e565b6102116103603660046128b5565b6109b1565b610273610373366004612b29565b610ac8565b610252610386366004612b5c565b600260209081526000938452604080852082529284528284209052825290205481565b6103bc6103b73660046128b5565b610b36565b60405161021e9190612b98565b6102526103d736600461294d565b610c3e565b6103ef6103ea3660046128b5565b610ec4565b60405161021e9493929190612be1565b61025261040d366004612b07565b610f87565b610318610420366004612b07565b610fa2565b610318610433366004612b07565b611197565b610318610328366004612b07565b6104596104543660046128b5565b61122f565b60408051825165ffffffffffff908116825260209384015116928101929092520161021e565b61027361048d366004612c1f565b600060208181529281526040808220909352908152205460ff1681565b600160405161021e9190612c49565b6102736104c7366004612c71565b61132e565b6104d4611346565b6040516001600160c81b0319909116815260200161021e565b6102526104fb366004612c71565b61135e565b61051361050e366004612cbf565b61138a565b604080519384526001600160a01b0390921660208401529082015260600161021e565b610513610544366004612d05565b61141d565b6103186114c6565b610318610328366004612d7e565b61031861056d3660046128b5565b611518565b61025261058036600461294d565b600460209081526000928352604080842090915290825290205481565b610273610291366004612da3565b600081815260036020526040812054606091839160ff16151590036105e357604051635435b28960e11b815260040160405180910390fd5b600083815260036020526040812060028101805491929161060390612de5565b80601f016020809104026020016040519081016040528092919081815260200182805461062f90612de5565b801561067c5780601f106106515761010080835404028352916020019161067c565b820191906000526020600020905b81548152906001019060200180831161065f57829003601f168201915b50505050508060200190518101906106949190612e2f565b600183015460208201519192506000916106b7916001600160a01b03169061158e565b5094505050505b50919050565b60006301ffc9a760e01b6001600160e01b0319831614806106f55750630f632fb360e01b6001600160e01b03198316145b92915050565b60006040516339218f3b60e01b815260040160405180910390fd5b6000806000610724856116d1565b9050610730868261173a565b151560000361075257604051635435b28960e11b815260040160405180910390fd5b6000806107608884886117d7565b90999098509650505050505050565b600082815260036020526040812054839160ff909116151590036107a657604051635435b28960e11b815260040160405180910390fd5b816000036107c757604051635435b28960e11b815260040160405180910390fd5b33600090815260016020908152604080832086845290915290205482111561080257604051631e9acf1760e31b815260040160405180910390fd5b61080d3384846119a8565b60008381526003602052604090206108258482611a2f565b5080546040516340c10f1960e01b8152336004820152602481018590526101009091046001600160a01b0316906340c10f1990604401600060405180830381600087803b15801561087557600080fd5b505af1158015610889573d6000803e3d6000fd5b50508254604080518781526101009092046001600160a01b031660208301523393508792507fed8f3f6d485df7980ffa03dd0323e0e62decf810572edd79af06baf0f74efe06910160405180910390a350505050565b60405163cb93550d60e01b815260040160405180910390fd5b600081815260036020526040812054829060ff161515820361092d57604051635435b28960e11b815260040160405180910390fd5b6000838152600360209081526040918290206001810154835163313ce56760e01b8152935191936001600160a01b039091169263313ce567926004808401938290030181865afa158015610985573d6000803e3d6000fd5b505050506040513d601f19601f820116820180604052508101906109a99190612e8a565b949350505050565b600081815260036020526040812054606091839160ff16151590036109e957604051635435b28960e11b815260040160405180910390fd5b6000838152600360205260408120600281018054919291610a0990612de5565b80601f0160208091040260200160405190810160405280929190818152602001828054610a3590612de5565b8015610a825780601f10610a5757610100808354040283529160200191610a82565b820191906000526020600020905b815481529060010190602001808311610a6557829003601f168201915b5050505050806020019051810190610a9a9190612e2f565b60018301546020820151919250600091610abd916001600160a01b03169061158e565b979650505050505050565b336000818152602081815260408083206001600160a01b038716808552908352818420805460ff191687151590811790915591519182529293917fceb576d9f15e4e200fdb5096d64d5dfd667e16def20c1eefd14256d8e3faa267910160405180910390a350600192915050565b6040805160808082018352600080835260208084018290528385018290526060808501819052868352600382529185902085519384018652805460ff81161515855261010090046001600160a01b03908116928501929092526001810154909116948301949094526002840180549394929391840191610bb590612de5565b80601f0160208091040260200160405190810160405280929190818152602001828054610be190612de5565b8015610c2e5780601f10610c0357610100808354040283529160200191610c2e565b820191906000526020600020905b815481529060010190602001808311610c1157829003601f168201915b5050505050815250509050919050565b600081815260036020526040812054829060ff1615158203610c7357604051635435b28960e11b815260040160405180910390fd5b6000838152600360205260408120600281018054919291610c9390612de5565b80601f0160208091040260200160405190810160405280929190818152602001828054610cbf90612de5565b8015610d0c5780601f10610ce157610100808354040283529160200191610d0c565b820191906000526020600020905b815481529060010190602001808311610cef57829003601f168201915b5050505050806020019051810190610d249190612e2f565b805190915065ffffffffffff164211610d4257600093505050610ebd565b6001600160a01b038087166000908152600160209081526040808320898452909152812054845490926101009091041615610def5783546040516370a0823160e01b81526001600160a01b038a81166004830152610100909204909116906370a0823190602401602060405180830381865afa158015610dc6573d6000803e3d6000fd5b505050506040513d601f19601f82011682018060405250810190610dea9190612ead565b610df2565b60005b6001600160a01b03891660009081526004602090815260408083208b845290915281205491925081610e248486612edc565b610e2e9190612edc565b90506000856020015165ffffffffffff164210610e4c575080610e88565b8551610e8590610e649065ffffffffffff1642612eef565b87516020890151610e759190612f02565b84919065ffffffffffff16611d19565b90505b82811015610ea95760405163efbc9a9760e01b815260040160405180910390fd5b610eb38382612eef565b9850505050505050505b5092915050565b60036020526000908152604090208054600182015460028301805460ff8416946101009094046001600160a01b03908116949316929190610f0490612de5565b80601f0160208091040260200160405190810160405280929190818152602001828054610f3090612de5565b8015610f7d5780601f10610f5257610100808354040283529160200191610f7d565b820191906000526020600020905b815481529060010190602001808311610f6057829003601f168201915b5050505050905084565b600060405163cb93550d60e01b815260040160405180910390fd5b600082815260036020526040812054839160ff90911615159003610fd957604051635435b28960e11b815260040160405180910390fd5b600083815260036020526040902054839061010090046001600160a01b031661101557604051635435b28960e11b815260040160405180910390fd5b8260000361103657604051635435b28960e11b815260040160405180910390fd5b60008481526003602052604090819020805491516370a0823160e01b8152336004820152909161010090046001600160a01b031690859082906370a0823190602401602060405180830381865afa158015611095573d6000803e3d6000fd5b505050506040513d601f19601f820116820180604052508101906110b99190612ead565b10156110d857604051631e9acf1760e31b815260040160405180910390fd5b604051632770a7eb60e21b8152336004820152602481018690526001600160a01b03821690639dc29fac90604401600060405180830381600087803b15801561112057600080fd5b505af1158015611134573d6000803e3d6000fd5b50505050611143338787611d37565b8154604080518781526101009092046001600160a01b03166020830152339188917f171711504f91229e77cb6057e65ba3567d9072edd7152eb5f11cc13152407da3910160405180910390a3505050505050565b600082815260036020526040812054839160ff909116151590036111ce57604051635435b28960e11b815260040160405180910390fd5b816000036111ef57604051635435b28960e11b815260040160405180910390fd5b60006111fb3385610c3e565b90508281101561121e57604051631e9acf1760e31b815260040160405180910390fd5b611229843385611db5565b50505050565b6040805180820190915260008082526020820152600082815260036020526040812054839160ff9091161515900361127a57604051635435b28960e11b815260040160405180910390fd5b6000838152600360205260409020600201805461129690612de5565b80601f01602080910402602001604051908101604052809291908181526020018280546112c290612de5565b801561130f5780601f106112e45761010080835404028352916020019161130f565b820191906000526020600020905b8154815290600101906020018083116112f257829003601f168201915b50505050508060200190518101906113279190612e2f565b9392505050565b60008061133a836116d1565b90506109a9848261173a565b6000611359622624ab60e91b6001611fd8565b905090565b60008061136a836116d1565b80516020820151919250859161138191839161205e565b95945050505050565b60008381526003602052604081205481908190869060ff16151582036113c357604051635435b28960e11b815260040160405180910390fd5b856000036113e457604051635435b28960e11b815260040160405180910390fd5b60008781526003602052604090206113ff898989848a6120eb565b5496986101009097046001600160a01b031697509495945050505050565b60008060008460000361144357604051635435b28960e11b815260040160405180910390fd5b600061144e876116d1565b905061145a888261173a565b151560000361147c57604051635435b28960e11b815260040160405180910390fd5b6114878882876117d7565b5060008181526003602052604090209094506114a68a8689848a6120eb565b5493996101009094046001600160a01b0316985094965091945050505050565b336001600160a01b037f00000000000000000000000000000000000000000000000000000000000000001614611516576040516366e069e160e01b81523360048201526024015b60405180910390fd5b565b600081815260036020526040812054829160ff9091161515900361154f57604051635435b28960e11b815260040160405180910390fd5b600061155b3384610c3e565b90508060000361157e57604051631e9acf1760e31b815260040160405180910390fd5b611589833383611db5565b505050565b60608060008060006115a78665ffffffffffff166122e3565b925092509250866001600160a01b03166306fdde036040518163ffffffff1660e01b8152600401600060405180830381865afa1580156115eb573d6000803e3d6000fd5b505050506040513d6000823e601f3d908101601f191682016040526116139190810190612f21565b8383836040516020016116299493929190612f8f565b604051602081830303815290604052876001600160a01b03166395d89b416040518163ffffffff1660e01b8152600401600060405180830381865afa158015611676573d6000803e3d6000fd5b505050506040513d6000823e601f3d908101601f1916820160405261169e9190810190612f21565b8484846040516020016116b49493929190612f8f565b604051602081830303815290604052945094505050509250929050565b60408051808201909152600080825260208201527f000000000000000000000000000000000000000000000000000000000000000082511461172657604051635435b28960e11b815260040160405180910390fd5b818060200190518101906106f59190612e2f565b805160009065ffffffffffff16158061175d5750602082015165ffffffffffff16155b1561176a575060006106f5565b816020015165ffffffffffff16826000015165ffffffffffff1603611791575060006106f5565b816020015165ffffffffffff16826000015165ffffffffffff16106117b8575060006106f5565b6001600160a01b0383166117ce575060006106f5565b50600192915050565b60008060008590506117f2818660000151876020015161205e565b600081815260036020526040812080549295509160ff161515900361197b578054600160ff1990911681178255810180546001600160a01b0319166001600160a01b038916179055604080518082018252875165ffffffffffff9081168083526020808b015183169381019384528451908101919091529151168183015281518082038301815260609091019091526002820190611890908261305a565b5060008481526003602052604090208154815460ff909116151560ff1982168117835583546001600160a01b03610100918290048116909102610100600160a81b03199092166001600160a81b03199093169290921717825560018084015490830180546001600160a01b0319169190921617905581906002808201906119199084018261311a565b505086516020808901516040805165ffffffffffff948516815293909116918301919091526001600160a01b038a1682820152518692507f4ab4dadc5d33a7b415be92bf51b712368ca8cae2ed2024779d3748a0dd229be49181900360600190a25b841561198d5761198b8482611a2f565b505b546001600160a01b0361010090910416915050935093915050565b6001600160a01b0383166000908152600160209081526040808320858452909152812080548392906119db908490612eef565b9091555050604080513381526020810183905283916000916001600160a01b038716917f1b3d7edb2e9c0b0e7c525b20aaaef0f5940d2ed71663c7d39266ecafac72885991015b60405180910390a4505050565b805460009061010090046001600160a01b0316611d04577f00000000000000000000000000000000000000000000000000000000000000006001600160a01b0316611a8d57604051635435b28960e11b815260040160405180910390fd5b6000826002018054611a9e90612de5565b80601f0160208091040260200160405190810160405280929190818152602001828054611aca90612de5565b8015611b175780601f10611aec57610100808354040283529160200191611b17565b820191906000526020600020905b815481529060010190602001808311611afa57829003601f168201915b5050505050806020019051810190611b2f9190612e2f565b600184015460208201519192506001600160a01b0316906000908190611b5690849061158e565b91509150600082611b66906131ed565b611b6f836131ed565b856001600160a01b031663313ce5676040518163ffffffff1660e01b8152600401602060405180830381865afa158015611bad573d6000803e3d6000fd5b505050506040513d601f19601f82011682018060405250810190611bd19190612e8a565b60208089015160018c0154604051611c5a9695949365ffffffffffff9093169230926001600160a01b03169101958652602086019490945260f89290921b6001600160f81b031916604085015260c01b6001600160c01b0319166041840152606090811b6bffffffffffffffffffffffff19908116604985015291901b16605d82015260710190565b60408051601f198184030181529190529050611ca06001600160a01b037f000000000000000000000000000000000000000000000000000000000000000016828a61251a565b8754610100600160a81b0319166101006001600160a01b03928316810291909117808a55604051919004909116815288907fc687cf6c60d91b1f6be3b5e820ae9a808dc51f7b3bf4aab1967232b2f71c97d49060200160405180910390a250505050505b505461010090046001600160a01b0316919050565b6000826000190484118302158202611d3057600080fd5b5091020490565b6001600160a01b038316600090815260016020908152604080832085845290915281208054839290611d6a908490612edc565b9091555050604080513381526020810183905283916001600160a01b038616916000917f1b3d7edb2e9c0b0e7c525b20aaaef0f5940d2ed71663c7d39266ecafac7288599101611a22565b60008381526003602090815260408083206001600160a01b0380871685526001845282852088865290935290832054815491939092909161010090041615611e6f5782546040516370a0823160e01b81526001600160a01b038781166004830152610100909204909116906370a0823190602401602060405180830381865afa158015611e46573d6000803e3d6000fd5b505050506040513d601f19601f82011682018060405250810190611e6a9190612ead565b611e72565b60005b90506000828511611e835784611e85565b825b90506000611e938287612eef565b905082811115611eb657604051631e9acf1760e31b815260040160405180910390fd5b6001600160a01b03871660009081526004602090815260408083208b845290915281208054889290611ee9908490612edc565b90915550508115611eff57611eff8789846119a8565b8015611f71578454604051632770a7eb60e21b81526001600160a01b0389811660048301526024820184905261010090920490911690639dc29fac90604401600060405180830381600087803b158015611f5857600080fd5b505af1158015611f6c573d6000803e3d6000fd5b505050505b6001850154611f8a906001600160a01b03168888612673565b866001600160a01b0316887fa18626381edd3d7a115c4a09f678bb79665034a541affcdba9fe65a1d3d107ee88604051611fc691815260200190565b60405180910390a35050505050505050565b600080611fe6600a84613227565b611ff1906030613249565b60f81b90506000612003600a85613262565b61200e906030613249565b6040516001600160f81b0319808516602083015260f89290921b91821660218201526001600160d81b03198716602282015290915060270160405160208183030381529060405261138190613284565b6000612068611346565b604080516001600160a01b038716602082015265ffffffffffff80871692820192909252908416606082015260800160408051601f198184030181529082905280516020918201206001600160c81b031990931690820152602781019190915260470160408051601f198184030181529190528051602090910120949350505050565b80156120fd576120fb8483611a2f565b505b60018201546040516370a0823160e01b81523060048201526001600160a01b039091169060009082906370a0823190602401602060405180830381865afa15801561214c573d6000803e3d6000fd5b505050506040513d601f19601f820116820180604052508101906121709190612ead565b90506121876001600160a01b0383163330886126f4565b6121918582612edc565b6040516370a0823160e01b81523060048201526001600160a01b038416906370a0823190602401602060405180830381865afa1580156121d5573d6000803e3d6000fd5b505050506040513d601f19601f820116820180604052508101906121f99190612ead565b1015612229576001840154604051635f8b555b60e11b81526001600160a01b03909116600482015260240161150d565b505080156122d157815461010090046001600160a01b031661225e57604051635435b28960e11b815260040160405180910390fd5b81546040516340c10f1960e01b81526001600160a01b038781166004830152602482018690526101009092049091169081906340c10f1990604401600060405180830381600087803b1580156122b357600080fd5b505af11580156122c7573d6000803e3d6000fd5b50505050506122dc565b6122dc858585611d37565b5050505050565b6060808060008080806122f962015180896132bb565b60050b9050600061230d8262010bd96132f8565b61231a9062253d8c6132f8565b9050600062023ab161232d836004613320565b6123379190613350565b905060046123488262023ab1613320565b6123539060036132f8565b61235d9190613350565b612367908361337e565b9150600062164b0961237a8460016132f8565b61238690610fa0613320565b6123909190613350565b905060046123a0826105b5613320565b6123aa9190613350565b6123b4908461337e565b6123bf90601f6132f8565b9250600061098f6123d1856050613320565b6123db9190613350565b9050600060506123ed8361098f613320565b6123f79190613350565b612401908661337e565b905061240e600b83613350565b945061241b85600c613320565b6124268360026132f8565b612430919061337e565b9150848361243f60318761337e565b61244a906064613320565b61245491906132f8565b61245e91906132f8565b9850909650945060009350612483925061247e915061271090508661339e565b612789565b90506000600a841061249d5761249884612789565b6124c6565b6124a684612789565b6040516020016124b691906133b2565b6040516020818303038152906040525b90506000600a84106124e0576124db84612789565b612509565b6124e984612789565b6040516020016124f991906133b2565b6040516020818303038152906040525b929a91995091975095505050505050565b8151604051613d6160f01b8152603a820160f090811b6002838101919091526680600b3d3981f360c81b600484015264363d3d376160d81b600b8401528301901b6010820181905268603836393d3d3d366160b81b6012830152601b82015262013d7360e81b601d820152606085901b6020808301919091526e5af43d82803e903d91603657fd5bf360881b60348301526000929160458301918390604383019088015b602083106125dd5780518252601f1990920191602091820191016125be565b60006001846020036101000a0319905080825116835283830192508660f01b83526f67363d3d37363d34f03d5260086018f3600052886010806000f58061262c5763ebfef1886000526004601cfd5b8060145261d69460005260016034536017601e20985060008088886000855af115893b15171561266457638f86d2f16000526004601cfd5b50505050505050509392505050565b600060405163a9059cbb60e01b81526001600160a01b0384166004820152826024820152602060006044836000895af13d15601f3d11600160005114161716915050806112295760405162461bcd60e51b815260206004820152600f60248201526e1514905394d1915497d19052531151608a1b604482015260640161150d565b60006040516323b872dd60e01b81526001600160a01b03851660048201526001600160a01b03841660248201528260448201526020600060648360008a5af13d15601f3d11600160005114161716915050806122dc5760405162461bcd60e51b81526020600482015260146024820152731514905394d1915497d19493d357d1905253115160621b604482015260640161150d565b6060816000036127b05750506040805180820190915260018152600360fc1b602082015290565b8160005b81156127da57806127c4816133db565b91506127d39050600a836133f4565b91506127b4565b60008167ffffffffffffffff8111156127f5576127f56129d4565b6040519080825280601f01601f19166020018201604052801561281f576020820181803683370190505b509050815b85156128ac57612835600182612eef565b90506000612844600a886133f4565b61284f90600a613408565b6128599088612eef565b612864906030613249565b905060008160f81b9050808484815181106128815761288161341f565b60200101906001600160f81b031916908160001a9053506128a3600a896133f4565b97505050612824565b50949350505050565b6000602082840312156128c757600080fd5b5035919050565b60005b838110156128e95781810151838201526020016128d1565b50506000910152565b6000815180845261290a8160208601602086016128ce565b601f01601f19169290920160200192915050565b60208152600061132760208301846128f2565b80356001600160a01b038116811461294857600080fd5b919050565b6000806040838503121561296057600080fd5b61296983612931565b946020939093013593505050565b60006020828403121561298957600080fd5b81356001600160e01b03198116811461132757600080fd5b6000806000606084860312156129b657600080fd5b6129bf84612931565b95602085013595506040909401359392505050565b634e487b7160e01b600052604160045260246000fd5b604051601f8201601f1916810167ffffffffffffffff81118282101715612a1357612a136129d4565b604052919050565b600067ffffffffffffffff821115612a3557612a356129d4565b50601f01601f191660200190565b600082601f830112612a5457600080fd5b8135612a67612a6282612a1b565b6129ea565b818152846020838601011115612a7c57600080fd5b816020850160208301376000918101602001919091529392505050565b8035801515811461294857600080fd5b600080600060608486031215612abe57600080fd5b612ac784612931565b9250602084013567ffffffffffffffff811115612ae357600080fd5b612aef86828701612a43565b925050612afe60408501612a99565b90509250925092565b60008060408385031215612b1a57600080fd5b50508035926020909101359150565b60008060408385031215612b3c57600080fd5b612b4583612931565b9150612b5360208401612a99565b90509250929050565b600080600060608486031215612b7157600080fd5b612b7a84612931565b9250612b8860208501612931565b9150604084013590509250925092565b602081528151151560208201526000602083015160018060a01b038082166040850152806040860151166060850152505060608301516080808401526109a960a08401826128f2565b84151581526001600160a01b03848116602083015283166040820152608060608201819052600090612c15908301846128f2565b9695505050505050565b60008060408385031215612c3257600080fd5b612c3b83612931565b9150612b5360208401612931565b6020810160048310612c6b57634e487b7160e01b600052602160045260246000fd5b91905290565b60008060408385031215612c8457600080fd5b612c8d83612931565b9150602083013567ffffffffffffffff811115612ca957600080fd5b612cb585828601612a43565b9150509250929050565b60008060008060808587031215612cd557600080fd5b612cde85612931565b93506020850135925060408501359150612cfa60608601612a99565b905092959194509250565b600080600080600060a08688031215612d1d57600080fd5b612d2686612931565b9450612d3460208701612931565b9350604086013567ffffffffffffffff811115612d5057600080fd5b612d5c88828901612a43565b93505060608601359150612d7260808701612a99565b90509295509295909350565b600080600060608486031215612d9357600080fd5b83359250612b8860208501612931565b60008060008060808587031215612db957600080fd5b612dc285612931565b9350612dd060208601612931565b93969395505050506040820135916060013590565b600181811c90821680612df957607f821691505b6020821081036106be57634e487b7160e01b600052602260045260246000fd5b805165ffffffffffff8116811461294857600080fd5b600060408284031215612e4157600080fd5b6040516040810181811067ffffffffffffffff82111715612e6457612e646129d4565b604052612e7083612e19565b8152612e7e60208401612e19565b60208201529392505050565b600060208284031215612e9c57600080fd5b815160ff8116811461132757600080fd5b600060208284031215612ebf57600080fd5b5051919050565b634e487b7160e01b600052601160045260246000fd5b808201808211156106f5576106f5612ec6565b818103818111156106f5576106f5612ec6565b65ffffffffffff828116828216039080821115610ebd57610ebd612ec6565b600060208284031215612f3357600080fd5b815167ffffffffffffffff811115612f4a57600080fd5b8201601f81018413612f5b57600080fd5b8051612f69612a6282612a1b565b818152856020838501011115612f7e57600080fd5b6113818260208301602086016128ce565b60008551612fa1818460208a016128ce565b600160fd1b9083019081528551612fbf816001840160208a016128ce565b808201915050602d60f81b8060018301528551612fe3816002850160208a016128ce565b60029201918201528351612ffe8160038401602088016128ce565b016003019695505050505050565b601f82111561158957600081815260208120601f850160051c810160208610156130335750805b601f850160051c820191505b818110156130525782815560010161303f565b505050505050565b815167ffffffffffffffff811115613074576130746129d4565b613088816130828454612de5565b8461300c565b602080601f8311600181146130bd57600084156130a55750858301515b600019600386901b1c1916600185901b178555613052565b600085815260208120601f198616915b828110156130ec578886015182559484019460019091019084016130cd565b508582101561310a5787850151600019600388901b60f8161c191681555b5050505050600190811b01905550565b818103613125575050565b61312f8254612de5565b67ffffffffffffffff811115613147576131476129d4565b613155816130828454612de5565b6000601f82116001811461318957600083156131715750848201545b600019600385901b1c1916600184901b1784556122dc565b600085815260209020601f19841690600086815260209020845b838110156131c357828601548255600195860195909101906020016131a3565b508583101561310a5793015460001960f8600387901b161c19169092555050600190811b01905550565b805160208083015191908110156106be5760001960209190910360031b1b16919050565b634e487b7160e01b600052601260045260246000fd5b600060ff83168061323a5761323a613211565b8060ff84160491505092915050565b60ff81811683821601908111156106f5576106f5612ec6565b600060ff83168061327557613275613211565b8060ff84160691505092915050565b805160208201516001600160c81b031980821692919060078310156132b35780818460070360031b1b83161693505b505050919050565b60008160050b8360050b806132d2576132d2613211565b657fffffffffff198214600019821416156132ef576132ef612ec6565b90059392505050565b808201828112600083128015821682158216171561331857613318612ec6565b505092915050565b80820260008212600160ff1b8414161561333c5761333c612ec6565b81810583148215176106f5576106f5612ec6565b60008261335f5761335f613211565b600160ff1b82146000198414161561337957613379612ec6565b500590565b8181036000831280158383131683831282161715610ebd57610ebd612ec6565b6000826133ad576133ad613211565b500690565b600360fc1b8152600082516133ce8160018501602087016128ce565b9190910160010192915050565b6000600182016133ed576133ed612ec6565b5060010190565b60008261340357613403613211565b500490565b80820281158282048414176106f5576106f5612ec6565b634e487b7160e01b600052603260045260246000fdfea2646970667358221220382361c93d41fe02b13a3a0e725cb4e5b254beeb3d8d25775229b7f3955de3ac64736f6c63430008130033608060405234801561001057600080fd5b5061073d806100206000396000f3fe608060405234801561001057600080fd5b50600436106101005760003560e01c806370a0823111610097578063a457c2d711610066578063a457c2d714610210578063a9059cbb14610123578063dd62ed3e14610223578063e184c9be1461024e57600080fd5b806370a08231146101cd5780638da5cb5b146101ed57806395d89b41146101f55780639dc29fac146101fd57600080fd5b8063313ce567116100d3578063313ce5671461016b578063395093511461018557806340c10f19146101985780636f307dc3146101ad57600080fd5b806306fdde0314610105578063095ea7b31461012357806318160ddd1461014657806323b872dd1461015d575b600080fd5b61010d61026d565b60405161011a91906105a6565b60405180910390f35b610136610131366004610610565b61029f565b604051901515815260200161011a565b61014f60005481565b60405190815260200161011a565b61013661013136600461063a565b6101736102ba565b60405160ff909116815260200161011a565b610136610193366004610610565b6102cb565b6101ab6101a6366004610610565b610369565b005b6101b56103b0565b6040516001600160a01b03909116815260200161011a565b61014f6101db366004610676565b60016020526000908152604090205481565b6101b56103bc565b61010d6103c8565b6101ab61020b366004610610565b6103d4565b61013661021e366004610610565b610417565b61014f610231366004610698565b600260209081526000928352604080842090915290825290205481565b61025661044c565b60405165ffffffffffff909116815260200161011a565b60606102796000610458565b60405160200161028b91815260200190565b604051602081830303815290604052905090565b60006040516339218f3b60e01b815260040160405180910390fd5b60006102c6604061046e565b905090565b3360009081526002602090815260408083206001600160a01b03861684529091528120805483919083906103009084906106e1565b90915550503360008181526002602090815260408083206001600160a01b038816808552908352928190205490519081529192917f8c5be1e5ebec7d5bd14f71427d1e84f3dd0314c0f7b2291e5b200ac8c7c3b925910160405180910390a35060015b92915050565b6103716103bc565b6001600160a01b0316336001600160a01b0316146103a2576040516339218f3b60e01b815260040160405180910390fd5b6103ac8282610487565b5050565b60006102c6605d6104f2565b60006102c660496104f2565b60606102796020610458565b6103dc6103bc565b6001600160a01b0316336001600160a01b03161461040d576040516339218f3b60e01b815260040160405180910390fd5b6103ac828261050b565b3360009081526002602090815260408083206001600160a01b03861684529091528120805483919083906103009084906106f4565b60006102c6604161057c565b600080610463610595565b929092013592915050565b600080610479610595565b929092013560f81c92915050565b8060008082825461049891906106e1565b90915550506001600160a01b0382166000818152600160209081526040808320805486019055518481527fddf252ad1be2c89b69c2b068fc378daa952ba7f163c4a11628f55a4df523b3ef91015b60405180910390a35050565b6000806104fd610595565b929092013560601c92915050565b6001600160a01b038216600090815260016020526040812080548392906105339084906106f4565b90915550506000805482900381556040518281526001600160a01b038416907fddf252ad1be2c89b69c2b068fc378daa952ba7f163c4a11628f55a4df523b3ef906020016104e6565b600080610587610595565b929092013560c01c92915050565b600119368181013560f01c90030190565b600060208083528351808285015260005b818110156105d3578581018301518582016040015282016105b7565b506000604082860101526040601f19601f8301168501019250505092915050565b80356001600160a01b038116811461060b57600080fd5b919050565b6000806040838503121561062357600080fd5b61062c836105f4565b946020939093013593505050565b60008060006060848603121561064f57600080fd5b610658846105f4565b9250610666602085016105f4565b9150604084013590509250925092565b60006020828403121561068857600080fd5b610691826105f4565b9392505050565b600080604083850312156106ab57600080fd5b6106b4836105f4565b91506106c2602084016105f4565b90509250929050565b634e487b7160e01b600052601160045260246000fd5b80820180821115610363576103636106cb565b81810381811115610363576103636106cb56fea2646970667358221220f96ebe14d120adb4f609067d5c9b8bf301c6f1eea043ccd06c9b7f8023d8380564736f6c63430008130033",
    "linkReferences": {}
  },
  "methodIdentifiers": {
    "INIT()": "ea643914",
    "PARENT()": "122b83f9",
    "TYPE()": "bb24fe8a",
    "VEECODE()": "d61735ca",
    "allowance(address,address,uint256)": "598af9e7",
    "approve(address,uint256,uint256)": "426a8493",
    "balanceOf(address,uint256)": "00fdd58e",
    "computeId(address,bytes)": "dbad2d9a",
    "decimals(uint256)": "3f47e662",
    "deploy(address,bytes,bool)": "1f54245b",
    "exercise(uint256,uint256)": "a86265bb",
    "exerciseCost(uint256,uint256)": "6aacff4e",
    "getTokenMetadata(uint256)": "60316801",
    "getTokenVestingParams(uint256)": "b2416661",
    "isOperator(address,address)": "b6363cf2",
    "mint(address,address,bytes,uint256,bool)": "e40d88f8",
    "mint(address,uint256,uint256,bool)": "dbf110a7",
    "name(uint256)": "00ad800c",
    "reclaim(uint256)": "2dabbeed",
    "redeem(uint256,uint256)": "7cbc2373",
    "redeemMax(uint256)": "f904eed8",
    "redeemable(address,uint256)": "67627b62",
    "setOperator(address,bool)": "558a7297",
    "supportsInterface(bytes4)": "01ffc9a7",
    "symbol(uint256)": "4e41a1fb",
    "tokenMetadata(uint256)": "6914db60",
    "transfer(address,uint256,uint256)": "095bcdb6",
    "transferFrom(address,address,uint256,uint256)": "fe99049a",
    "transform(uint256,address,uint256)": "f6e9936a",
    "unwrap(uint256,uint256)": "6e286671",
    "userClaimed(address,uint256)": "fcbf8b24",
    "validate(address,bytes)": "caf92785",
    "wrap(uint256,uint256)": "25ded586"
  },
  "id": 174
}