{
  "abi": [
    {
      "type": "constructor",
      "inputs": [
        {
          "name": "auctionHouse_",
          "type": "address",
          "internalType": "address"
        },
        {
          "name": "permissions_",
          "type": "tuple",
          "internalType": "struct Callbacks.Permissions",
          "components": [
            {
              "name": "onCreate",
              "type": "bool",
              "internalType": "bool"
            },
            {
              "name": "onCancel",
              "type": "bool",
              "internalType": "bool"
            },
            {
              "name": "onCurate",
              "type": "bool",
              "internalType": "bool"
            },
            {
              "name": "onPurchase",
              "type": "bool",
              "internalType": "bool"
            },
            {
              "name": "onBid",
              "type": "bool",
              "internalType": "bool"
            },
            {
              "name": "onSettle",
              "type": "bool",
              "internalType": "bool"
            },
            {
              "name": "receiveQuoteTokens",
              "type": "bool",
              "internalType": "bool"
            },
            {
              "name": "sendBaseTokens",
              "type": "bool",
              "internalType": "bool"
            }
          ]
        }
      ],
      "stateMutability": "nonpayable"
    },
    {
      "type": "function",
      "name": "AUCTION_HOUSE",
      "inputs": [],
      "outputs": [
        {
          "name": "",
          "type": "address",
          "internalType": "address"
        }
      ],
      "stateMutability": "view"
    },
    {
      "type": "function",
      "name": "lotIdRegistered",
      "inputs": [
        {
          "name": "",
          "type": "uint96",
          "internalType": "uint96"
        }
      ],
      "outputs": [
        {
          "name": "",
          "type": "bool",
          "internalType": "bool"
        }
      ],
      "stateMutability": "view"
    },
    {
      "type": "function",
      "name": "lotMerkleRoot",
      "inputs": [
        {
          "name": "",
          "type": "uint96",
          "internalType": "uint96"
        }
      ],
      "outputs": [
        {
          "name": "",
          "type": "bytes32",
          "internalType": "bytes32"
        }
      ],
      "stateMutability": "view"
    },
    {
      "type": "function",
      "name": "onBid",
      "inputs": [
        {
          "name": "lotId_",
          "type": "uint96",
          "internalType": "uint96"
        },
        {
          "name": "bidId",
          "type": "uint64",
          "internalType": "uint64"
        },
        {
          "name": "buyer_",
          "type": "address",
          "internalType": "address"
        },
        {
          "name": "amount_",
          "type": "uint256",
          "internalType": "uint256"
        },
        {
          "name": "callbackData_",
          "type": "bytes",
          "internalType": "bytes"
        }
      ],
      "outputs": [
        {
          "name": "",
          "type": "bytes4",
          "internalType": "bytes4"
        }
      ],
      "stateMutability": "nonpayable"
    },
    {
      "type": "function",
      "name": "onCancel",
      "inputs": [
        {
          "name": "lotId_",
          "type": "uint96",
          "internalType": "uint96"
        },
        {
          "name": "refund_",
          "type": "uint256",
          "internalType": "uint256"
        },
        {
          "name": "prefunded_",
          "type": "bool",
          "internalType": "bool"
        },
        {
          "name": "callbackData_",
          "type": "bytes",
          "internalType": "bytes"
        }
      ],
      "outputs": [
        {
          "name": "",
          "type": "bytes4",
          "internalType": "bytes4"
        }
      ],
      "stateMutability": "nonpayable"
    },
    {
      "type": "function",
      "name": "onCreate",
      "inputs": [
        {
          "name": "lotId_",
          "type": "uint96",
          "internalType": "uint96"
        },
        {
          "name": "seller_",
          "type": "address",
          "internalType": "address"
        },
        {
          "name": "baseToken_",
          "type": "address",
          "internalType": "address"
        },
        {
          "name": "quoteToken_",
          "type": "address",
          "internalType": "address"
        },
        {
          "name": "capacity_",
          "type": "uint256",
          "internalType": "uint256"
        },
        {
          "name": "prefund_",
          "type": "bool",
          "internalType": "bool"
        },
        {
          "name": "callbackData_",
          "type": "bytes",
          "internalType": "bytes"
        }
      ],
      "outputs": [
        {
          "name": "",
          "type": "bytes4",
          "internalType": "bytes4"
        }
      ],
      "stateMutability": "nonpayable"
    },
    {
      "type": "function",
      "name": "onCurate",
      "inputs": [
        {
          "name": "lotId_",
          "type": "uint96",
          "internalType": "uint96"
        },
        {
          "name": "curatorFee_",
          "type": "uint256",
          "internalType": "uint256"
        },
        {
          "name": "prefund_",
          "type": "bool",
          "internalType": "bool"
        },
        {
          "name": "callbackData_",
          "type": "bytes",
          "internalType": "bytes"
        }
      ],
      "outputs": [
        {
          "name": "",
          "type": "bytes4",
          "internalType": "bytes4"
        }
      ],
      "stateMutability": "nonpayable"
    },
    {
      "type": "function",
      "name": "onPurchase",
      "inputs": [
        {
          "name": "lotId_",
          "type": "uint96",
          "internalType": "uint96"
        },
        {
          "name": "buyer_",
          "type": "address",
          "internalType": "address"
        },
        {
          "name": "amount_",
          "type": "uint256",
          "internalType": "uint256"
        },
        {
          "name": "payout_",
          "type": "uint256",
          "internalType": "uint256"
        },
        {
          "name": "prefunded_",
          "type": "bool",
          "internalType": "bool"
        },
        {
          "name": "callbackData_",
          "type": "bytes",
          "internalType": "bytes"
        }
      ],
      "outputs": [
        {
          "name": "",
          "type": "bytes4",
          "internalType": "bytes4"
        }
      ],
      "stateMutability": "nonpayable"
    },
    {
      "type": "function",
      "name": "onSettle",
      "inputs": [
        {
          "name": "lotId_",
          "type": "uint96",
          "internalType": "uint96"
        },
        {
          "name": "proceeds_",
          "type": "uint256",
          "internalType": "uint256"
        },
        {
          "name": "refund_",
          "type": "uint256",
          "internalType": "uint256"
        },
        {
          "name": "callbackData_",
          "type": "bytes",
          "internalType": "bytes"
        }
      ],
      "outputs": [
        {
          "name": "",
          "type": "bytes4",
          "internalType": "bytes4"
        }
      ],
      "stateMutability": "nonpayable"
    },
    {
      "type": "error",
      "name": "Callback_InvalidParams",
      "inputs": []
    },
    {
      "type": "error",
      "name": "Callback_NotAuthorized",
      "inputs": []
    },
    {
      "type": "error",
      "name": "Callback_NotImplemented",
      "inputs": []
    },
    {
      "type": "error",
      "name": "CallbacksAddressNotValid",
      "inputs": [
        {
          "name": "callbacks",
          "type": "address",
          "internalType": "address"
        }
      ]
    }
  ],
  "bytecode": {
    "object": "0x60a06040523480156200001157600080fd5b5060405162000e2e38038062000e2e833981016040819052620000349162000165565b818162000042308262000058565b506001600160a01b0316608052506200027f9050565b805115156001609f1b83161515141580620000815750602081015115156001609e1b8316151514155b806200009b5750604081015115156001609d1b8316151514155b80620000b55750606081015115156001609c1b8316151514155b80620000cf5750608081015115156001609b1b8316151514155b80620000e9575060a081015115156001609a1b8316151514155b8062000103575060c08101511515600160991b8316151514155b806200011d575060e08101511515600160981b8316151514155b156200014b576040516303b556f760e01b81526001600160a01b038316600482015260240160405180910390fd5b5050565b805180151581146200016057600080fd5b919050565b6000808284036101208112156200017b57600080fd5b83516001600160a01b03811681146200019357600080fd5b9250610100601f198201811315620001aa57600080fd5b60405191508082016001600160401b0381118382101715620001dc57634e487b7160e01b600052604160045260246000fd5b604052620001ed602086016200014f565b8252620001fd604086016200014f565b602083015262000210606086016200014f565b604083015262000223608086016200014f565b60608301526200023660a086016200014f565b60808301526200024960c086016200014f565b60a08301526200025c60e086016200014f565b60c08301526200026e8186016200014f565b60e083015250809150509250929050565b608051610b69620002c560003960008181610101015281816101d50152818161027b01528181610348015281816103ee01528181610494015261053c0152610b696000f3fe608060405234801561001057600080fd5b50600436106100935760003560e01c806366e741671161006657806366e7416714610169578063a5658c861461017c578063a5b13f691461018f578063b898895e146101a2578063fc439982146101b557600080fd5b806309b9601c146100985780631cae9eef146100c95780634226b1bf146100fc5780636003a3531461013b575b600080fd5b6100ab6100a636600461079f565b6101c8565b6040516001600160e01b031990911681526020015b60405180910390f35b6100ec6100d736600461080e565b60006020819052908152604090205460ff1681565b60405190151581526020016100c0565b6101237f000000000000000000000000000000000000000000000000000000000000000081565b6040516001600160a01b0390911681526020016100c0565b61015b61014936600461080e565b60016020526000908152604090205481565b6040519081526020016100c0565b6100ab610177366004610847565b61026e565b6100ab61018a36600461079f565b61033b565b6100ab61019d3660046108e7565b6103e1565b6100ab6101b0366004610932565b610487565b6100ab6101c33660046109bd565b61052f565b6000336001600160a01b037f0000000000000000000000000000000000000000000000000000000000000000161461021357604051630d0ec32b60e31b815260040160405180910390fd5b6001600160601b038616600090815260208190526040902054869060ff1661024e57604051630d0ec32b60e31b815260040160405180910390fd5b61025b87878787876105d9565b5063026e580760e21b9695505050505050565b6000336001600160a01b037f000000000000000000000000000000000000000000000000000000000000000016146102b957604051630d0ec32b60e31b815260040160405180910390fd5b6001600160601b03891660009081526020819052604090205460ff16156102f3576040516363d2088f60e11b815260040160405180910390fd5b6001600160601b0389166000908152602081905260409020805460ff1916600117905561032689898989898989896105f2565b506366e7416760e01b98975050505050505050565b6000336001600160a01b037f0000000000000000000000000000000000000000000000000000000000000000161461038657604051630d0ec32b60e31b815260040160405180910390fd5b6001600160601b038616600090815260208190526040902054869060ff166103c157604051630d0ec32b60e31b815260040160405180910390fd5b6103ce87878787876105d9565b506352b2c64360e11b9695505050505050565b6000336001600160a01b037f0000000000000000000000000000000000000000000000000000000000000000161461042c57604051630d0ec32b60e31b815260040160405180910390fd5b6001600160601b038616600090815260208190526040902054869060ff1661046757604051630d0ec32b60e31b815260040160405180910390fd5b61047487878787876105d9565b5063a5b13f6960e01b9695505050505050565b6000336001600160a01b037f000000000000000000000000000000000000000000000000000000000000000016146104d257604051630d0ec32b60e31b815260040160405180910390fd5b6001600160601b038716600090815260208190526040902054879060ff1661050d57604051630d0ec32b60e31b815260040160405180910390fd5b61051b888888888888610627565b50635c4c44af60e11b979650505050505050565b6000336001600160a01b037f0000000000000000000000000000000000000000000000000000000000000000161461057a57604051630d0ec32b60e31b815260040160405180910390fd5b6001600160601b038816600090815260208190526040902054889060ff166105b557604051630d0ec32b60e31b815260040160405180910390fd5b6105c48989898989898961063b565b50637e21ccc160e11b98975050505050505050565b604051638a8cacbf60e01b815260040160405180910390fd5b600061060082840184610a46565b6001600160601b039099166000908152600160205260409020989098555050505050505050565b61063386858484610650565b505050505050565b61064787878484610650565b50505050505050565b600061065e82840184610a75565b6040516bffffffffffffffffffffffff19606087901b1660208201529091506000906034016040516020818303038152906040528051906020012090506106cb8260016000896001600160601b03166001600160601b0316815260200190815260200160002054836106e8565b61063357604051630d0ec32b60e31b815260040160405180910390fd5b60008351156107235760208401845160051b81015b8151841160051b9384528151602094851852604060002093909101908082106106fd5750505b5014919050565b80356001600160601b038116811461074157600080fd5b919050565b8035801515811461074157600080fd5b60008083601f84011261076857600080fd5b50813567ffffffffffffffff81111561078057600080fd5b60208301915083602082850101111561079857600080fd5b9250929050565b6000806000806000608086880312156107b757600080fd5b6107c08661072a565b9450602086013593506107d560408701610746565b9250606086013567ffffffffffffffff8111156107f157600080fd5b6107fd88828901610756565b969995985093965092949392505050565b60006020828403121561082057600080fd5b6108298261072a565b9392505050565b80356001600160a01b038116811461074157600080fd5b60008060008060008060008060e0898b03121561086357600080fd5b61086c8961072a565b975061087a60208a01610830565b965061088860408a01610830565b955061089660608a01610830565b9450608089013593506108ab60a08a01610746565b925060c089013567ffffffffffffffff8111156108c757600080fd5b6108d38b828c01610756565b999c989b5096995094979396929594505050565b6000806000806000608086880312156108ff57600080fd5b6109088661072a565b94506020860135935060408601359250606086013567ffffffffffffffff8111156107f157600080fd5b60008060008060008060a0878903121561094b57600080fd5b6109548761072a565b9550602087013567ffffffffffffffff808216821461097257600080fd5b81965061098160408a01610830565b955060608901359450608089013591508082111561099e57600080fd5b506109ab89828a01610756565b979a9699509497509295939492505050565b600080600080600080600060c0888a0312156109d857600080fd5b6109e18861072a565b96506109ef60208901610830565b95506040880135945060608801359350610a0b60808901610746565b925060a088013567ffffffffffffffff811115610a2757600080fd5b610a338a828b01610756565b989b979a50959850939692959293505050565b600060208284031215610a5857600080fd5b5035919050565b634e487b7160e01b600052604160045260246000fd5b60006020808385031215610a8857600080fd5b823567ffffffffffffffff80821115610aa057600080fd5b818501915085601f830112610ab457600080fd5b813581811115610ac657610ac6610a5f565b8060051b604051601f19603f83011681018181108582111715610aeb57610aeb610a5f565b604052918252848201925083810185019188831115610b0957600080fd5b938501935b82851015610b2757843584529385019392850192610b0e565b9897505050505050505056fea2646970667358221220018897cea409fc6f302d4d9bacb026920bd54d9c92c13736bbb12e7b30da83e064736f6c63430008130033",
    "linkReferences": {}
  },
  "methodIdentifiers": {
    "AUCTION_HOUSE()": "4226b1bf",
    "lotIdRegistered(uint96)": "1cae9eef",
    "lotMerkleRoot(uint96)": "6003a353",
    "onBid(uint96,uint64,address,uint256,bytes)": "b898895e",
    "onCancel(uint96,uint256,bool,bytes)": "a5658c86",
    "onCreate(uint96,address,address,address,uint256,bool,bytes)": "66e74167",
    "onCurate(uint96,uint256,bool,bytes)": "09b9601c",
    "onPurchase(uint96,address,uint256,uint256,bool,bytes)": "fc439982",
    "onSettle(uint96,uint256,uint256,bytes)": "a5b13f69"
  },
  "id": 125
}