{
  "abi": [
    {
      "type": "constructor",
      "inputs": [
        {
          "name": "auctionHouse_",
          "type": "address",
          "internalType": "address"
        },
        {
          "name": "uniswapV2Factory_",
          "type": "address",
          "internalType": "address"
        },
        {
          "name": "uniswapV2Router_",
          "type": "address",
          "internalType": "address"
        }
      ],
      "stateMutability": "nonpayable"
    },
    {
      "type": "function",
      "name": "AUCTION_HOUSE",
      "inputs": [],
      "outputs": [
        {
          "name": "",
          "type": "address",
          "internalType": "address"
        }
      ],
      "stateMutability": "view"
    },
    {
      "type": "function",
      "name": "LINEAR_VESTING_KEYCODE",
      "inputs": [],
      "outputs": [
        {
          "name": "",
          "type": "bytes5",
          "internalType": "bytes5"
        }
      ],
      "stateMutability": "view"
    },
    {
      "type": "function",
      "name": "MAX_PERCENT",
      "inputs": [],
      "outputs": [
        {
          "name": "",
          "type": "uint24",
          "internalType": "uint24"
        }
      ],
      "stateMutability": "view"
    },
    {
      "type": "function",
      "name": "lotConfiguration",
      "inputs": [
        {
          "name": "lotId",
          "type": "uint96",
          "internalType": "uint96"
        }
      ],
      "outputs": [
        {
          "name": "recipient",
          "type": "address",
          "internalType": "address"
        },
        {
          "name": "lotCapacity",
          "type": "uint256",
          "internalType": "uint256"
        },
        {
          "name": "lotCuratorPayout",
          "type": "uint256",
          "internalType": "uint256"
        },
        {
          "name": "proceedsUtilisationPercent",
          "type": "uint24",
          "internalType": "uint24"
        },
        {
          "name": "vestingStart",
          "type": "uint48",
          "internalType": "uint48"
        },
        {
          "name": "vestingExpiry",
          "type": "uint48",
          "internalType": "uint48"
        },
        {
          "name": "linearVestingModule",
          "type": "address",
          "internalType": "contract LinearVesting"
        },
        {
          "name": "active",
          "type": "bool",
          "internalType": "bool"
        },
        {
          "name": "implParams",
          "type": "bytes",
          "internalType": "bytes"
        }
      ],
      "stateMutability": "view"
    },
    {
      "type": "function",
      "name": "lotIdRegistered",
      "inputs": [
        {
          "name": "",
          "type": "uint96",
          "internalType": "uint96"
        }
      ],
      "outputs": [
        {
          "name": "",
          "type": "bool",
          "internalType": "bool"
        }
      ],
      "stateMutability": "view"
    },
    {
      "type": "function",
      "name": "onBid",
      "inputs": [
        {
          "name": "lotId_",
          "type": "uint96",
          "internalType": "uint96"
        },
        {
          "name": "bidId",
          "type": "uint64",
          "internalType": "uint64"
        },
        {
          "name": "buyer_",
          "type": "address",
          "internalType": "address"
        },
        {
          "name": "amount_",
          "type": "uint256",
          "internalType": "uint256"
        },
        {
          "name": "callbackData_",
          "type": "bytes",
          "internalType": "bytes"
        }
      ],
      "outputs": [
        {
          "name": "",
          "type": "bytes4",
          "internalType": "bytes4"
        }
      ],
      "stateMutability": "nonpayable"
    },
    {
      "type": "function",
      "name": "onCancel",
      "inputs": [
        {
          "name": "lotId_",
          "type": "uint96",
          "internalType": "uint96"
        },
        {
          "name": "refund_",
          "type": "uint256",
          "internalType": "uint256"
        },
        {
          "name": "prefunded_",
          "type": "bool",
          "internalType": "bool"
        },
        {
          "name": "callbackData_",
          "type": "bytes",
          "internalType": "bytes"
        }
      ],
      "outputs": [
        {
          "name": "",
          "type": "bytes4",
          "internalType": "bytes4"
        }
      ],
      "stateMutability": "nonpayable"
    },
    {
      "type": "function",
      "name": "onCreate",
      "inputs": [
        {
          "name": "lotId_",
          "type": "uint96",
          "internalType": "uint96"
        },
        {
          "name": "seller_",
          "type": "address",
          "internalType": "address"
        },
        {
          "name": "baseToken_",
          "type": "address",
          "internalType": "address"
        },
        {
          "name": "quoteToken_",
          "type": "address",
          "internalType": "address"
        },
        {
          "name": "capacity_",
          "type": "uint256",
          "internalType": "uint256"
        },
        {
          "name": "prefund_",
          "type": "bool",
          "internalType": "bool"
        },
        {
          "name": "callbackData_",
          "type": "bytes",
          "internalType": "bytes"
        }
      ],
      "outputs": [
        {
          "name": "",
          "type": "bytes4",
          "internalType": "bytes4"
        }
      ],
      "stateMutability": "nonpayable"
    },
    {
      "type": "function",
      "name": "onCurate",
      "inputs": [
        {
          "name": "lotId_",
          "type": "uint96",
          "internalType": "uint96"
        },
        {
          "name": "curatorFee_",
          "type": "uint256",
          "internalType": "uint256"
        },
        {
          "name": "prefund_",
          "type": "bool",
          "internalType": "bool"
        },
        {
          "name": "callbackData_",
          "type": "bytes",
          "internalType": "bytes"
        }
      ],
      "outputs": [
        {
          "name": "",
          "type": "bytes4",
          "internalType": "bytes4"
        }
      ],
      "stateMutability": "nonpayable"
    },
    {
      "type": "function",
      "name": "onPurchase",
      "inputs": [
        {
          "name": "lotId_",
          "type": "uint96",
          "internalType": "uint96"
        },
        {
          "name": "buyer_",
          "type": "address",
          "internalType": "address"
        },
        {
          "name": "amount_",
          "type": "uint256",
          "internalType": "uint256"
        },
        {
          "name": "payout_",
          "type": "uint256",
          "internalType": "uint256"
        },
        {
          "name": "prefunded_",
          "type": "bool",
          "internalType": "bool"
        },
        {
          "name": "callbackData_",
          "type": "bytes",
          "internalType": "bytes"
        }
      ],
      "outputs": [
        {
          "name": "",
          "type": "bytes4",
          "internalType": "bytes4"
        }
      ],
      "stateMutability": "nonpayable"
    },
    {
      "type": "function",
      "name": "onSettle",
      "inputs": [
        {
          "name": "lotId_",
          "type": "uint96",
          "internalType": "uint96"
        },
        {
          "name": "proceeds_",
          "type": "uint256",
          "internalType": "uint256"
        },
        {
          "name": "refund_",
          "type": "uint256",
          "internalType": "uint256"
        },
        {
          "name": "callbackData_",
          "type": "bytes",
          "internalType": "bytes"
        }
      ],
      "outputs": [
        {
          "name": "",
          "type": "bytes4",
          "internalType": "bytes4"
        }
      ],
      "stateMutability": "nonpayable"
    },
    {
      "type": "function",
      "name": "uniV2Factory",
      "inputs": [],
      "outputs": [
        {
          "name": "",
          "type": "address",
          "internalType": "contract IUniswapV2Factory"
        }
      ],
      "stateMutability": "view"
    },
    {
      "type": "function",
      "name": "uniV2Router",
      "inputs": [],
      "outputs": [
        {
          "name": "",
          "type": "address",
          "internalType": "contract IUniswapV2Router02"
        }
      ],
      "stateMutability": "view"
    },
    {
      "type": "error",
      "name": "Callback_InsufficientBalance",
      "inputs": [
        {
          "name": "token_",
          "type": "address",
          "internalType": "address"
        },
        {
          "name": "account_",
          "type": "address",
          "internalType": "address"
        },
        {
          "name": "balance_",
          "type": "uint256",
          "internalType": "uint256"
        },
        {
          "name": "required_",
          "type": "uint256",
          "internalType": "uint256"
        }
      ]
    },
    {
      "type": "error",
      "name": "Callback_InvalidParams",
      "inputs": []
    },
    {
      "type": "error",
      "name": "Callback_LinearVestingModuleNotFound",
      "inputs": []
    },
    {
      "type": "error",
      "name": "Callback_NotAuthorized",
      "inputs": []
    },
    {
      "type": "error",
      "name": "Callback_NotImplemented",
      "inputs": []
    },
    {
      "type": "error",
      "name": "Callback_Params_InvalidAddress",
      "inputs": []
    },
    {
      "type": "error",
      "name": "Callback_Params_InvalidVestingParams",
      "inputs": []
    },
    {
      "type": "error",
      "name": "Callback_Params_PercentOutOfBounds",
      "inputs": [
        {
          "name": "actual_",
          "type": "uint24",
          "internalType": "uint24"
        },
        {
          "name": "min_",
          "type": "uint24",
          "internalType": "uint24"
        },
        {
          "name": "max_",
          "type": "uint24",
          "internalType": "uint24"
        }
      ]
    },
    {
      "type": "error",
      "name": "Callback_Params_PoolExists",
      "inputs": []
    },
    {
      "type": "error",
      "name": "CallbacksAddressNotValid",
      "inputs": [
        {
          "name": "callbacks",
          "type": "address",
          "internalType": "address"
        }
      ]
    }
  ],
  "bytecode": {
    "object": "0x60a06040523480156200001157600080fd5b506040516200279038038062002790833981016040819052620000349162000236565b60408051610100810182526001808252602082018190529181018290526000606082018190526080820181905260a0820183905260c082019290925260e08101919091528390819062000088308262000122565b506001600160a01b0390811660805283169050620000b9576040516302180d7960e51b815260040160405180910390fd5b600280546001600160a01b0319166001600160a01b03848116919091179091558116620000f9576040516302180d7960e51b815260040160405180910390fd5b600380546001600160a01b0319166001600160a01b039290921691909117905550620002809050565b805115156001609f1b831615151415806200014b5750602081015115156001609e1b8316151514155b80620001655750604081015115156001609d1b8316151514155b806200017f5750606081015115156001609c1b8316151514155b80620001995750608081015115156001609b1b8316151514155b80620001b3575060a081015115156001609a1b8316151514155b80620001cd575060c08101511515600160991b8316151514155b80620001e7575060e08101511515600160981b8316151514155b1562000215576040516303b556f760e01b81526001600160a01b038316600482015260240160405180910390fd5b5050565b80516001600160a01b03811681146200023157600080fd5b919050565b6000806000606084860312156200024c57600080fd5b620002578462000219565b9250620002676020850162000219565b9150620002776040850162000219565b90509250925092565b6080516124bc620002d4600039600081816101860152818161027501528181610329015281816103f6015281816104b50152818161055b0152818161070001528181610c54015261117001526124bc6000f3fe608060405234801561001057600080fd5b50600436106100cf5760003560e01c8063958c2e521161008c578063a5b13f6911610066578063a5b13f6914610207578063b898895e1461021a578063d52812191461022d578063fc4399821461025557600080fd5b8063958c2e52146101bb57806395fd2ef2146101ce578063a5658c86146101f457600080fd5b806309b9601c146100d45780631036bbe2146101055780631cae9eef146101235780633da04b87146101565780634226b1bf1461018157806366e74167146101a8575b600080fd5b6100e76100e2366004611a13565b610268565b6040516001600160e01b031990911681526020015b60405180910390f35b61010f620186a081565b60405162ffffff90911681526020016100fc565b610146610131366004611a83565b60006020819052908152604090205460ff1681565b60405190151581526020016100fc565b600254610169906001600160a01b031681565b6040516001600160a01b0390911681526020016100fc565b6101697f000000000000000000000000000000000000000000000000000000000000000081565b6100e76101b6366004611ab3565b61031c565b600354610169906001600160a01b031681565b6101db622624ab60e91b81565b6040516001600160d81b031990911681526020016100fc565b6100e7610202366004611a13565b6103e9565b6100e7610215366004611b5a565b6104a8565b6100e7610228366004611ba4565b61054e565b61024061023b366004611a83565b6105f6565b6040516100fc99989796959493929190611c81565b6100e7610263366004611cf6565b6106f3565b6000336001600160a01b037f000000000000000000000000000000000000000000000000000000000000000016146102b357604051630d0ec32b60e31b815260040160405180910390fd5b6001600160601b038616600090815260208190526040902054869060ff166102ee57604051630d0ec32b60e31b815260040160405180910390fd5b505050506001600160601b03929092166000908152600160205260409020600201555063026e580760e21b90565b6000336001600160a01b037f0000000000000000000000000000000000000000000000000000000000000000161461036757604051630d0ec32b60e31b815260040160405180910390fd5b6001600160601b03891660009081526020819052604090205460ff16156103a1576040516363d2088f60e11b815260040160405180910390fd5b6001600160601b0389166000908152602081905260409020805460ff191660011790556103d4898989898989898961079d565b506366e7416760e01b98975050505050505050565b6000336001600160a01b037f0000000000000000000000000000000000000000000000000000000000000000161461043457604051630d0ec32b60e31b815260040160405180910390fd5b6001600160601b038616600090815260208190526040902054869060ff1661046f57604051630d0ec32b60e31b815260040160405180910390fd5b6001600160601b0387166000908152600160205260409020600401805460ff60a01b19169055506352b2c64360e11b9695505050505050565b6000336001600160a01b037f000000000000000000000000000000000000000000000000000000000000000016146104f357604051630d0ec32b60e31b815260040160405180910390fd5b6001600160601b038616600090815260208190526040902054869060ff1661052e57604051630d0ec32b60e31b815260040160405180910390fd5b61053b8787878787610aeb565b5063a5b13f6960e01b9695505050505050565b6000336001600160a01b037f0000000000000000000000000000000000000000000000000000000000000000161461059957604051630d0ec32b60e31b815260040160405180910390fd5b6001600160601b038716600090815260208190526040902054879060ff166105d457604051630d0ec32b60e31b815260040160405180910390fd5b6105e2888888888888611137565b50635c4c44af60e11b979650505050505050565b60016020819052600091825260409091208054918101546002820154600383015460048401546005850180546001600160a01b03978816979596949562ffffff8516956301000000860465ffffffffffff90811696600160481b9004169491821693600160a01b90920460ff169290919061067090611d82565b80601f016020809104026020016040519081016040528092919081815260200182805461069c90611d82565b80156106e95780601f106106be576101008083540402835291602001916106e9565b820191906000526020600020905b8154815290600101906020018083116106cc57829003601f168201915b5050505050905089565b6000336001600160a01b037f0000000000000000000000000000000000000000000000000000000000000000161461073e57604051630d0ec32b60e31b815260040160405180910390fd5b6001600160601b038816600090815260208190526040902054889060ff1661077957604051630d0ec32b60e31b815260040160405180910390fd5b61078889898989898989611137565b50637e21ccc160e11b98975050505050505050565b60006107ab82840184611e78565b805190915062ffffff1615806107cb57508051620186a062ffffff909116115b1561080857805160405163440e0f3160e01b815262ffffff909116600482015260016024820152620186a060448201526064015b60405180910390fd5b6000816020015165ffffffffffff1660001415806108315750604082015165ffffffffffff1615155b156108dd5761083e611150565b9050806001600160a01b031663caf9278589610862856020015186604001516112a3565b6040518363ffffffff1660e01b815260040161087f929190611f72565b602060405180830381865afa15801561089c573d6000803e3d6000fd5b505050506040513d601f19601f820116820180604052508101906108c09190611f9e565b6108dd576040516328db098b60e01b815260040160405180910390fd5b60608201516001600160a01b0316610908576040516302180d7960e51b815260040160405180910390fd5b60405180610120016040528083606001516001600160a01b0316815260200187815260200160008152602001836000015162ffffff168152602001836020015165ffffffffffff168152602001836040015165ffffffffffff168152602001826001600160a01b031681526020016001151581526020018360800151815250600160008c6001600160601b03166001600160601b0316815260200190815260200160002060008201518160000160006101000a8154816001600160a01b0302191690836001600160a01b03160217905550602082015181600101556040820151816002015560608201518160030160006101000a81548162ffffff021916908362ffffff16021790555060808201518160030160036101000a81548165ffffffffffff021916908365ffffffffffff16021790555060a08201518160030160096101000a81548165ffffffffffff021916908365ffffffffffff16021790555060c08201518160040160006101000a8154816001600160a01b0302191690836001600160a01b0316021790555060e08201518160040160146101000a81548160ff021916908315150217905550610100820151816005019081610acb919061200a565b50905050610adf8a8a8a8a8a8a8a8a6112eb565b50505050505050505050565b6001600160601b038516600090815260016020818152604080842081516101208101835281546001600160a01b0390811682529482015493810193909352600281015491830191909152600381015462ffffff811660608401526301000000810465ffffffffffff9081166080850152600160481b9091041660a0830152600481015492831660c0830152600160a01b90920460ff16151560e082015260058201805491929161010084019190610ba190611d82565b80601f0160208091040260200160405190810160405280929190818152602001828054610bcd90611d82565b8015610c1a5780601f10610bef57610100808354040283529160200191610c1a565b820191906000526020600020905b815481529060010190602001808311610bfd57829003601f168201915b505050919092525050604051634f17001d60e11b81526001600160601b038916600482015291925060009182915081906001600160a01b037f00000000000000000000000000000000000000000000000000000000000000001690639e2e003a90602401600060405180830381865afa158015610c9b573d6000803e3d6000fd5b505050506040513d6000823e601f3d908101601f19168201604052610cc391908101906120e1565b50505050604089015160208a01519598509396509194506000938493849350839250610cee916121fb565b610cfb8c620186a061220e565b610d05919061223b565b610d1290620186a061224f565b9050620186a062ffffff16818960200151610d2d919061220e565b610d37919061223b565b915050610d48818860600151611393565b9250610d588b8860600151611393565b6040516370a0823160e01b81526001600160a01b03888116600483015291935060009250908616906370a0823190602401602060405180830381865afa158015610da6573d6000803e3d6000fd5b505050506040513d601f19601f82011682018060405250810190610dca9190612262565b905082811015610e0e5760405163141b7cb560e21b81526001600160a01b0380871660048301528716602482015260448101849052606481018290526084016107ff565b610e236001600160a01b0386168730866113b9565b506000610e6a8c858488878e8e8080601f01602080910402602001604051908101604052809392919081815260200183838082843760009201919091525061145592505050565b6040516370a0823160e01b81523060048201529091506000906001600160a01b038316906370a0823190602401602060405180830381865afa158015610eb4573d6000803e3d6000fd5b505050506040513d601f19601f82011682018060405250810190610ed89190612262565b60c08901519091506001600160a01b0316156110015760c088015160405163095ea7b360e01b81526001600160a01b039182166004820152602481018390529083169063095ea7b3906044016020604051808303816000875af1158015610f43573d6000803e3d6000fd5b505050506040513d601f19601f82011682018060405250810190610f679190611f9e565b508760c001516001600160a01b031663e40d88f8896000015184610f938c608001518d60a001516112a3565b8560016040518663ffffffff1660e01b8152600401610fb695949392919061227b565b6060604051808303816000875af1158015610fd5573d6000803e3d6000fd5b505050506040513d601f19601f82011682018060405250810190610ff991906122c0565b505050611018565b8751611018906001600160a01b0384169083611829565b6040516370a0823160e01b81523060048201526000906001600160a01b038716906370a0823190602401602060405180830381865afa15801561105f573d6000803e3d6000fd5b505050506040513d601f19601f820116820180604052508101906110839190612262565b9050801561109f5761109f6001600160a01b0387168983611829565b506040516370a0823160e01b81523060048201526000906001600160a01b038816906370a0823190602401602060405180830381865afa1580156110e7573d6000803e3d6000fd5b505050506040513d601f19601f8201168201806040525081019061110b9190612262565b90508015611127576111276001600160a01b0388168983611829565b5050505050505050505050505050565b604051638a8cacbf60e01b815260040160405180910390fd5b604051635bb27aab60e01b8152622624ab60e91b600482018190526000917f00000000000000000000000000000000000000000000000000000000000000009190839081906001600160a01b03851690635bb27aab906024016040805180830381865afa1580156111c5573d6000803e3d6000fd5b505050506040513d601f19601f820116820180604052508101906111e991906122f9565b9150915080806111fa575060ff8216155b1561121857604051633d495ecd60e11b815260040160405180910390fd5b836001600160a01b0316639e55cba361123185856118b0565b6040516001600160e01b031960e084901b1681526001600160c81b03199091166004820152602401602060405180830381865afa158015611276573d6000803e3d6000fd5b505050506040513d601f19601f8201168201806040525081019061129a9190612339565b94505050505090565b60408051808201825265ffffffffffff848116808352848216602093840190815284519384019190915251168183015281518082038301815260609091019091525b92915050565b60025460405163e6a4390560e01b81526001600160a01b0388811660048301528781166024830152600092169063e6a4390590604401602060405180830381865afa15801561133e573d6000803e3d6000fd5b505050506040513d601f19601f820116820180604052508101906113629190612339565b6001600160a01b03161461138957604051635c4b439f60e01b815260040160405180910390fd5b5050505050505050565b6000620186a06113a862ffffff84168561220e565b6113b2919061223b565b9392505050565b60006040516323b872dd60e01b81526001600160a01b03851660048201526001600160a01b03841660248201528260448201526020600060648360008a5af13d15601f3d116001600051141617169150508061144e5760405162461bcd60e51b81526020600482015260146024820152731514905394d1915497d19493d357d1905253115160621b60448201526064016107ff565b5050505050565b6000808280602001905181019061146c9190612356565b60025460405163e6a4390560e01b81526001600160a01b0388811660048301528a811660248301529293506000929091169063e6a4390590604401602060405180830381865afa1580156114c4573d6000803e3d6000fd5b505050506040513d601f19601f820116820180604052508101906114e89190612339565b90506001600160a01b038116611573576002546040516364e329cb60e11b81526001600160a01b0388811660048301528a811660248301529091169063c9c65396906044016020604051808303816000875af115801561154c573d6000803e3d6000fd5b505050506040513d601f19601f820116820180604052508101906115709190612339565b90505b600061158388846000015161193f565b9050600061159587856000015161193f565b60035460405163095ea7b360e01b81526001600160a01b039182166004820152602481018c90529192508b169063095ea7b3906044016020604051808303816000875af11580156115ea573d6000803e3d6000fd5b505050506040513d601f19601f8201168201806040525081019061160e9190611f9e565b5060035460405163095ea7b360e01b81526001600160a01b039182166004820152602481018990529089169063095ea7b3906044016020604051808303816000875af1158015611662573d6000803e3d6000fd5b505050506040513d601f19601f820116820180604052508101906116869190611f9e565b5060035460405162e8e33760e81b81526001600160a01b038c811660048301528a81166024830152604482018c9052606482018a90526084820185905260a482018490523060c48301524260e48301529091169063e8e3370090610104016060604051808303816000875af1158015611703573d6000803e3d6000fd5b505050506040513d601f19601f8201168201806040525081019061172791906123a1565b505060035460405163095ea7b360e01b81526001600160a01b03918216600482015260006024820152908c16915063095ea7b3906044016020604051808303816000875af115801561177d573d6000803e3d6000fd5b505050506040513d601f19601f820116820180604052508101906117a19190611f9e565b5060035460405163095ea7b360e01b81526001600160a01b039182166004820152600060248201529089169063095ea7b3906044016020604051808303816000875af11580156117f5573d6000803e3d6000fd5b505050506040513d601f19601f820116820180604052508101906118199190611f9e565b50919a9950505050505050505050565b600060405163a9059cbb60e01b81526001600160a01b0384166004820152826024820152602060006044836000895af13d15601f3d11600160005114161716915050806118aa5760405162461bcd60e51b815260206004820152600f60248201526e1514905394d1915497d19052531151608a1b60448201526064016107ff565b50505050565b6000806118be600a846123cf565b6118c99060306123f1565b60f81b905060006118db600a8561240a565b6118e69060306123f1565b6040516001600160f81b0319808516602083015260f89290921b91821660218201526001600160d81b0319871660228201529091506027016040516020818303038152906040526119369061242c565b95945050505050565b6000620186a062ffffff831611156119815760405163440e0f3160e01b815262ffffff8316600482015260006024820152620186a060448201526064016107ff565b620186a061198f8382612463565b6113a89062ffffff168561220e565b80356001600160601b03811681146119b557600080fd5b919050565b80151581146119c857600080fd5b50565b60008083601f8401126119dd57600080fd5b5081356001600160401b038111156119f457600080fd5b602083019150836020828501011115611a0c57600080fd5b9250929050565b600080600080600060808688031215611a2b57600080fd5b611a348661199e565b9450602086013593506040860135611a4b816119ba565b925060608601356001600160401b03811115611a6657600080fd5b611a72888289016119cb565b969995985093965092949392505050565b600060208284031215611a9557600080fd5b6113b28261199e565b6001600160a01b03811681146119c857600080fd5b60008060008060008060008060e0898b031215611acf57600080fd5b611ad88961199e565b97506020890135611ae881611a9e565b96506040890135611af881611a9e565b95506060890135611b0881611a9e565b94506080890135935060a0890135611b1f816119ba565b925060c08901356001600160401b03811115611b3a57600080fd5b611b468b828c016119cb565b999c989b5096995094979396929594505050565b600080600080600060808688031215611b7257600080fd5b611b7b8661199e565b9450602086013593506040860135925060608601356001600160401b03811115611a6657600080fd5b60008060008060008060a08789031215611bbd57600080fd5b611bc68761199e565b955060208701356001600160401b038082168214611be357600080fd5b909550604088013590611bf582611a9e565b9094506060880135935060808801359080821115611c1257600080fd5b50611c1f89828a016119cb565b979a9699509497509295939492505050565b60005b83811015611c4c578181015183820152602001611c34565b50506000910152565b60008151808452611c6d816020860160208601611c31565b601f01601f19169290920160200192915050565b6001600160a01b038a81168252602082018a90526040820189905262ffffff8816606083015265ffffffffffff8781166080840152861660a0830152841660c082015282151560e08201526101206101008201819052600090611ce683820185611c55565b9c9b505050505050505050505050565b600080600080600080600060c0888a031215611d1157600080fd5b611d1a8861199e565b96506020880135611d2a81611a9e565b955060408801359450606088013593506080880135611d48816119ba565b925060a08801356001600160401b03811115611d6357600080fd5b611d6f8a828b016119cb565b989b979a50959850939692959293505050565b600181811c90821680611d9657607f821691505b602082108103611db657634e487b7160e01b600052602260045260246000fd5b50919050565b634e487b7160e01b600052604160045260246000fd5b60405160a081016001600160401b0381118282101715611df457611df4611dbc565b60405290565b604051601f8201601f191681016001600160401b0381118282101715611e2257611e22611dbc565b604052919050565b62ffffff811681146119c857600080fd5b803565ffffffffffff811681146119b557600080fd5b60006001600160401b03821115611e6a57611e6a611dbc565b50601f01601f191660200190565b60006020808385031215611e8b57600080fd5b82356001600160401b0380821115611ea257600080fd5b9084019060a08287031215611eb657600080fd5b611ebe611dd2565b8235611ec981611e2a565b8152611ed6838501611e3b565b84820152611ee660408401611e3b565b60408201526060830135611ef981611a9e565b6060820152608083013582811115611f1057600080fd5b80840193505086601f840112611f2557600080fd5b82359150611f3a611f3583611e51565b611dfa565b8281528785848601011115611f4e57600080fd5b82858501868301376000858483010152806080830152508094505050505092915050565b6001600160a01b0383168152604060208201819052600090611f9690830184611c55565b949350505050565b600060208284031215611fb057600080fd5b81516113b2816119ba565b601f82111561200557600081815260208120601f850160051c81016020861015611fe25750805b601f850160051c820191505b8181101561200157828155600101611fee565b5050505b505050565b81516001600160401b0381111561202357612023611dbc565b612037816120318454611d82565b84611fbb565b602080601f83116001811461206c57600084156120545750858301515b600019600386901b1c1916600185901b178555612001565b600085815260208120601f198616915b8281101561209b5788860151825594840194600190910190840161207c565b50858210156120b95787850151600019600388901b60f8161c191681555b5050505050600190811b01905550565b80516001600160c81b0319811681146119b557600080fd5b60008060008060008060008060006101208a8c03121561210057600080fd5b895161210b81611a9e565b60208b015190995061211c81611a9e565b60408b015190985061212d81611a9e565b965061213b60608b016120c9565b955060808a0151945060a08a015161215281611a9e565b935061216060c08b016120c9565b925060e08a0151612170816119ba565b6101008b01519092506001600160401b0381111561218d57600080fd5b8a01601f81018c1361219e57600080fd5b80516121ac611f3582611e51565b8181528d60208385010111156121c157600080fd5b6121d2826020830160208601611c31565b8093505050509295985092959850929598565b634e487b7160e01b600052601160045260246000fd5b808201808211156112e5576112e56121e5565b80820281158282048414176112e5576112e56121e5565b634e487b7160e01b600052601260045260246000fd5b60008261224a5761224a612225565b500490565b818103818111156112e5576112e56121e5565b60006020828403121561227457600080fd5b5051919050565b6001600160a01b0386811682528516602082015260a0604082018190526000906122a790830186611c55565b6060830194909452509015156080909101529392505050565b6000806000606084860312156122d557600080fd5b8351925060208401516122e781611a9e565b80925050604084015190509250925092565b6000806040838503121561230c57600080fd5b825160ff8116811461231d57600080fd5b602084015190925061232e816119ba565b809150509250929050565b60006020828403121561234b57600080fd5b81516113b281611a9e565b60006020828403121561236857600080fd5b604051602081018181106001600160401b038211171561238a5761238a611dbc565b604052825161239881611e2a565b81529392505050565b6000806000606084860312156123b657600080fd5b8351925060208401519150604084015190509250925092565b600060ff8316806123e2576123e2612225565b8060ff84160491505092915050565b60ff81811683821601908111156112e5576112e56121e5565b600060ff83168061241d5761241d612225565b8060ff84160691505092915050565b805160208201516001600160c81b0319808216929190600783101561245b5780818460070360031b1b83161693505b505050919050565b62ffffff82811682821603908082111561247f5761247f6121e5565b509291505056fea2646970667358221220cdb139c68593b1533deadc1cbf932fd6f298e7424b7ba93f09ce5a14ab47cf9364736f6c63430008130033",
    "linkReferences": {}
  },
  "methodIdentifiers": {
    "AUCTION_HOUSE()": "4226b1bf",
    "LINEAR_VESTING_KEYCODE()": "95fd2ef2",
    "MAX_PERCENT()": "1036bbe2",
    "lotConfiguration(uint96)": "d5281219",
    "lotIdRegistered(uint96)": "1cae9eef",
    "onBid(uint96,uint64,address,uint256,bytes)": "b898895e",
    "onCancel(uint96,uint256,bool,bytes)": "a5658c86",
    "onCreate(uint96,address,address,address,uint256,bool,bytes)": "66e74167",
    "onCurate(uint96,uint256,bool,bytes)": "09b9601c",
    "onPurchase(uint96,address,uint256,uint256,bool,bytes)": "fc439982",
    "onSettle(uint96,uint256,uint256,bytes)": "a5b13f69",
    "uniV2Factory()": "3da04b87",
    "uniV2Router()": "958c2e52"
  },
  "id": 129
}