{
  "abi": [
    {
      "type": "constructor",
      "inputs": [
        {
          "name": "auctionHouse_",
          "type": "address",
          "internalType": "address"
        },
        {
          "name": "uniV3Factory_",
          "type": "address",
          "internalType": "address"
        },
        {
          "name": "gUniFactory_",
          "type": "address",
          "internalType": "address"
        }
      ],
      "stateMutability": "nonpayable"
    },
    {
      "type": "function",
      "name": "AUCTION_HOUSE",
      "inputs": [],
      "outputs": [
        {
          "name": "",
          "type": "address",
          "internalType": "address"
        }
      ],
      "stateMutability": "view"
    },
    {
      "type": "function",
      "name": "LINEAR_VESTING_KEYCODE",
      "inputs": [],
      "outputs": [
        {
          "name": "",
          "type": "bytes5",
          "internalType": "bytes5"
        }
      ],
      "stateMutability": "view"
    },
    {
      "type": "function",
      "name": "MAX_PERCENT",
      "inputs": [],
      "outputs": [
        {
          "name": "",
          "type": "uint24",
          "internalType": "uint24"
        }
      ],
      "stateMutability": "view"
    },
    {
      "type": "function",
      "name": "gUniFactory",
      "inputs": [],
      "outputs": [
        {
          "name": "",
          "type": "address",
          "internalType": "contract IGUniFactory"
        }
      ],
      "stateMutability": "view"
    },
    {
      "type": "function",
      "name": "lotConfiguration",
      "inputs": [
        {
          "name": "lotId",
          "type": "uint96",
          "internalType": "uint96"
        }
      ],
      "outputs": [
        {
          "name": "recipient",
          "type": "address",
          "internalType": "address"
        },
        {
          "name": "lotCapacity",
          "type": "uint256",
          "internalType": "uint256"
        },
        {
          "name": "lotCuratorPayout",
          "type": "uint256",
          "internalType": "uint256"
        },
        {
          "name": "proceedsUtilisationPercent",
          "type": "uint24",
          "internalType": "uint24"
        },
        {
          "name": "vestingStart",
          "type": "uint48",
          "internalType": "uint48"
        },
        {
          "name": "vestingExpiry",
          "type": "uint48",
          "internalType": "uint48"
        },
        {
          "name": "linearVestingModule",
          "type": "address",
          "internalType": "contract LinearVesting"
        },
        {
          "name": "active",
          "type": "bool",
          "internalType": "bool"
        },
        {
          "name": "implParams",
          "type": "bytes",
          "internalType": "bytes"
        }
      ],
      "stateMutability": "view"
    },
    {
      "type": "function",
      "name": "lotIdRegistered",
      "inputs": [
        {
          "name": "",
          "type": "uint96",
          "internalType": "uint96"
        }
      ],
      "outputs": [
        {
          "name": "",
          "type": "bool",
          "internalType": "bool"
        }
      ],
      "stateMutability": "view"
    },
    {
      "type": "function",
      "name": "onBid",
      "inputs": [
        {
          "name": "lotId_",
          "type": "uint96",
          "internalType": "uint96"
        },
        {
          "name": "bidId",
          "type": "uint64",
          "internalType": "uint64"
        },
        {
          "name": "buyer_",
          "type": "address",
          "internalType": "address"
        },
        {
          "name": "amount_",
          "type": "uint256",
          "internalType": "uint256"
        },
        {
          "name": "callbackData_",
          "type": "bytes",
          "internalType": "bytes"
        }
      ],
      "outputs": [
        {
          "name": "",
          "type": "bytes4",
          "internalType": "bytes4"
        }
      ],
      "stateMutability": "nonpayable"
    },
    {
      "type": "function",
      "name": "onCancel",
      "inputs": [
        {
          "name": "lotId_",
          "type": "uint96",
          "internalType": "uint96"
        },
        {
          "name": "refund_",
          "type": "uint256",
          "internalType": "uint256"
        },
        {
          "name": "prefunded_",
          "type": "bool",
          "internalType": "bool"
        },
        {
          "name": "callbackData_",
          "type": "bytes",
          "internalType": "bytes"
        }
      ],
      "outputs": [
        {
          "name": "",
          "type": "bytes4",
          "internalType": "bytes4"
        }
      ],
      "stateMutability": "nonpayable"
    },
    {
      "type": "function",
      "name": "onCreate",
      "inputs": [
        {
          "name": "lotId_",
          "type": "uint96",
          "internalType": "uint96"
        },
        {
          "name": "seller_",
          "type": "address",
          "internalType": "address"
        },
        {
          "name": "baseToken_",
          "type": "address",
          "internalType": "address"
        },
        {
          "name": "quoteToken_",
          "type": "address",
          "internalType": "address"
        },
        {
          "name": "capacity_",
          "type": "uint256",
          "internalType": "uint256"
        },
        {
          "name": "prefund_",
          "type": "bool",
          "internalType": "bool"
        },
        {
          "name": "callbackData_",
          "type": "bytes",
          "internalType": "bytes"
        }
      ],
      "outputs": [
        {
          "name": "",
          "type": "bytes4",
          "internalType": "bytes4"
        }
      ],
      "stateMutability": "nonpayable"
    },
    {
      "type": "function",
      "name": "onCurate",
      "inputs": [
        {
          "name": "lotId_",
          "type": "uint96",
          "internalType": "uint96"
        },
        {
          "name": "curatorFee_",
          "type": "uint256",
          "internalType": "uint256"
        },
        {
          "name": "prefund_",
          "type": "bool",
          "internalType": "bool"
        },
        {
          "name": "callbackData_",
          "type": "bytes",
          "internalType": "bytes"
        }
      ],
      "outputs": [
        {
          "name": "",
          "type": "bytes4",
          "internalType": "bytes4"
        }
      ],
      "stateMutability": "nonpayable"
    },
    {
      "type": "function",
      "name": "onPurchase",
      "inputs": [
        {
          "name": "lotId_",
          "type": "uint96",
          "internalType": "uint96"
        },
        {
          "name": "buyer_",
          "type": "address",
          "internalType": "address"
        },
        {
          "name": "amount_",
          "type": "uint256",
          "internalType": "uint256"
        },
        {
          "name": "payout_",
          "type": "uint256",
          "internalType": "uint256"
        },
        {
          "name": "prefunded_",
          "type": "bool",
          "internalType": "bool"
        },
        {
          "name": "callbackData_",
          "type": "bytes",
          "internalType": "bytes"
        }
      ],
      "outputs": [
        {
          "name": "",
          "type": "bytes4",
          "internalType": "bytes4"
        }
      ],
      "stateMutability": "nonpayable"
    },
    {
      "type": "function",
      "name": "onSettle",
      "inputs": [
        {
          "name": "lotId_",
          "type": "uint96",
          "internalType": "uint96"
        },
        {
          "name": "proceeds_",
          "type": "uint256",
          "internalType": "uint256"
        },
        {
          "name": "refund_",
          "type": "uint256",
          "internalType": "uint256"
        },
        {
          "name": "callbackData_",
          "type": "bytes",
          "internalType": "bytes"
        }
      ],
      "outputs": [
        {
          "name": "",
          "type": "bytes4",
          "internalType": "bytes4"
        }
      ],
      "stateMutability": "nonpayable"
    },
    {
      "type": "function",
      "name": "uniV3Factory",
      "inputs": [],
      "outputs": [
        {
          "name": "",
          "type": "address",
          "internalType": "contract IUniswapV3Factory"
        }
      ],
      "stateMutability": "view"
    },
    {
      "type": "error",
      "name": "Callback_InsufficientBalance",
      "inputs": [
        {
          "name": "token_",
          "type": "address",
          "internalType": "address"
        },
        {
          "name": "account_",
          "type": "address",
          "internalType": "address"
        },
        {
          "name": "balance_",
          "type": "uint256",
          "internalType": "uint256"
        },
        {
          "name": "required_",
          "type": "uint256",
          "internalType": "uint256"
        }
      ]
    },
    {
      "type": "error",
      "name": "Callback_InvalidParams",
      "inputs": []
    },
    {
      "type": "error",
      "name": "Callback_LinearVestingModuleNotFound",
      "inputs": []
    },
    {
      "type": "error",
      "name": "Callback_NotAuthorized",
      "inputs": []
    },
    {
      "type": "error",
      "name": "Callback_NotImplemented",
      "inputs": []
    },
    {
      "type": "error",
      "name": "Callback_Params_InvalidAddress",
      "inputs": []
    },
    {
      "type": "error",
      "name": "Callback_Params_InvalidVestingParams",
      "inputs": []
    },
    {
      "type": "error",
      "name": "Callback_Params_PercentOutOfBounds",
      "inputs": [
        {
          "name": "actual_",
          "type": "uint24",
          "internalType": "uint24"
        },
        {
          "name": "min_",
          "type": "uint24",
          "internalType": "uint24"
        },
        {
          "name": "max_",
          "type": "uint24",
          "internalType": "uint24"
        }
      ]
    },
    {
      "type": "error",
      "name": "Callback_Params_PoolExists",
      "inputs": []
    },
    {
      "type": "error",
      "name": "Callback_Params_PoolFeeNotEnabled",
      "inputs": []
    },
    {
      "type": "error",
      "name": "Callback_Slippage",
      "inputs": [
        {
          "name": "token_",
          "type": "address",
          "internalType": "address"
        },
        {
          "name": "amountActual_",
          "type": "uint256",
          "internalType": "uint256"
        },
        {
          "name": "amountMin_",
          "type": "uint256",
          "internalType": "uint256"
        }
      ]
    },
    {
      "type": "error",
      "name": "CallbacksAddressNotValid",
      "inputs": [
        {
          "name": "callbacks",
          "type": "address",
          "internalType": "address"
        }
      ]
    }
  ],
  "bytecode": {
    "object": "0x60a06040523480156200001157600080fd5b506040516200315138038062003151833981016040819052620000349162000236565b60408051610100810182526001808252602082018190529181018290526000606082018190526080820181905260a0820183905260c082019290925260e08101919091528390819062000088308262000122565b506001600160a01b0390811660805283169050620000b9576040516302180d7960e51b815260040160405180910390fd5b600280546001600160a01b0319166001600160a01b03848116919091179091558116620000f9576040516302180d7960e51b815260040160405180910390fd5b600380546001600160a01b0319166001600160a01b039290921691909117905550620002809050565b805115156001609f1b831615151415806200014b5750602081015115156001609e1b8316151514155b80620001655750604081015115156001609d1b8316151514155b806200017f5750606081015115156001609c1b8316151514155b80620001995750608081015115156001609b1b8316151514155b80620001b3575060a081015115156001609a1b8316151514155b80620001cd575060c08101511515600160991b8316151514155b80620001e7575060e08101511515600160981b8316151514155b1562000215576040516303b556f760e01b81526001600160a01b038316600482015260240160405180910390fd5b5050565b80516001600160a01b03811681146200023157600080fd5b919050565b6000806000606084860312156200024c57600080fd5b620002578462000219565b9250620002676020850162000219565b9150620002776040850162000219565b90509250925092565b608051612e7d620002d460003960008181610186015281816102750152818161031b015281816103e80152818161048e01528181610534015281816106d901528181610d9001526112ad0152612e7d6000f3fe608060405234801561001057600080fd5b50600436106100cf5760003560e01c8063705e474b1161008c578063a5b13f6911610066578063a5b13f6914610207578063b898895e1461021a578063d52812191461022d578063fc4399821461025557600080fd5b8063705e474b146101bb57806395fd2ef2146101ce578063a5658c86146101f457600080fd5b806309b9601c146100d45780631036bbe2146101055780631cae9eef14610123578063258f8931146101565780634226b1bf1461018157806366e74167146101a8575b600080fd5b6100e76100e23660046121fa565b610268565b6040516001600160e01b031990911681526020015b60405180910390f35b61010f620186a081565b60405162ffffff90911681526020016100fc565b61014661013136600461226a565b60006020819052908152604090205460ff1681565b60405190151581526020016100fc565b600354610169906001600160a01b031681565b6040516001600160a01b0390911681526020016100fc565b6101697f000000000000000000000000000000000000000000000000000000000000000081565b6100e76101b636600461229a565b61030e565b600254610169906001600160a01b031681565b6101db622624ab60e91b81565b6040516001600160d81b031990911681526020016100fc565b6100e76102023660046121fa565b6103db565b6100e7610215366004612341565b610481565b6100e761022836600461238b565b610527565b61024061023b36600461226a565b6105cf565b6040516100fc99989796959493929190612468565b6100e76102633660046124dd565b6106cc565b6000336001600160a01b037f000000000000000000000000000000000000000000000000000000000000000016146102b357604051630d0ec32b60e31b815260040160405180910390fd5b6001600160601b038616600090815260208190526040902054869060ff166102ee57604051630d0ec32b60e31b815260040160405180910390fd5b6102fb8787878787610776565b5063026e580760e21b9695505050505050565b6000336001600160a01b037f0000000000000000000000000000000000000000000000000000000000000000161461035957604051630d0ec32b60e31b815260040160405180910390fd5b6001600160601b03891660009081526020819052604090205460ff1615610393576040516363d2088f60e11b815260040160405180910390fd5b6001600160601b0389166000908152602081905260409020805460ff191660011790556103c689898989898989896107de565b506366e7416760e01b98975050505050505050565b6000336001600160a01b037f0000000000000000000000000000000000000000000000000000000000000000161461042657604051630d0ec32b60e31b815260040160405180910390fd5b6001600160601b038616600090815260208190526040902054869060ff1661046157604051630d0ec32b60e31b815260040160405180910390fd5b61046e8787878787610b6f565b506352b2c64360e11b9695505050505050565b6000336001600160a01b037f000000000000000000000000000000000000000000000000000000000000000016146104cc57604051630d0ec32b60e31b815260040160405180910390fd5b6001600160601b038616600090815260208190526040902054869060ff1661050757604051630d0ec32b60e31b815260040160405180910390fd5b6105148787878787610be2565b5063a5b13f6960e01b9695505050505050565b6000336001600160a01b037f0000000000000000000000000000000000000000000000000000000000000000161461057257604051630d0ec32b60e31b815260040160405180910390fd5b6001600160601b038716600090815260208190526040902054879060ff166105ad57604051630d0ec32b60e31b815260040160405180910390fd5b6105bb888888888888611274565b50635c4c44af60e11b979650505050505050565b60016020819052600091825260409091208054918101546002820154600383015460048401546005850180546001600160a01b03978816979596949562ffffff8516956301000000860465ffffffffffff90811696600160481b9004169491821693600160a01b90920460ff169290919061064990612569565b80601f016020809104026020016040519081016040528092919081815260200182805461067590612569565b80156106c25780601f10610697576101008083540402835291602001916106c2565b820191906000526020600020905b8154815290600101906020018083116106a557829003601f168201915b5050505050905089565b6000336001600160a01b037f0000000000000000000000000000000000000000000000000000000000000000161461071757604051630d0ec32b60e31b815260040160405180910390fd5b6001600160601b038816600090815260208190526040902054889060ff1661075257604051630d0ec32b60e31b815260040160405180910390fd5b61076189898989898989611274565b50637e21ccc160e11b98975050505050505050565b6001600160601b0385166000908152600160205260409020600401548590600160a01b900460ff166107bb576040516363d2088f60e11b815260040160405180910390fd5b5050506001600160601b0390921660009081526001602052604090206002015550565b6001600160601b03881660009081526001602052604090205488906001600160a01b031615610820576040516363d2088f60e11b815260040160405180910390fd5b600061082e8385018561265f565b805190915062ffffff16158061084e57508051620186a062ffffff909116115b1561088b57805160405163440e0f3160e01b815262ffffff909116600482015260016024820152620186a060448201526064015b60405180910390fd5b6000816020015165ffffffffffff1660001415806108b45750604082015165ffffffffffff1615155b15610960576108c161128d565b9050806001600160a01b031663caf927858a6108e5856020015186604001516113e0565b6040518363ffffffff1660e01b8152600401610902929190612759565b602060405180830381865afa15801561091f573d6000803e3d6000fd5b505050506040513d601f19601f82011682018060405250810190610943919061277d565b610960576040516328db098b60e01b815260040160405180910390fd5b60608201516001600160a01b031661098b576040516302180d7960e51b815260040160405180910390fd5b60405180610120016040528083606001516001600160a01b0316815260200188815260200160008152602001836000015162ffffff168152602001836020015165ffffffffffff168152602001836040015165ffffffffffff168152602001826001600160a01b031681526020016001151581526020018360800151815250600160008d6001600160601b03166001600160601b0316815260200190815260200160002060008201518160000160006101000a8154816001600160a01b0302191690836001600160a01b03160217905550602082015181600101556040820151816002015560608201518160030160006101000a81548162ffffff021916908362ffffff16021790555060808201518160030160036101000a81548165ffffffffffff021916908365ffffffffffff16021790555060a08201518160030160096101000a81548165ffffffffffff021916908365ffffffffffff16021790555060c08201518160040160006101000a8154816001600160a01b0302191690836001600160a01b0316021790555060e08201518160040160146101000a81548160ff021916908315150217905550610100820151816005019081610b4e91906127e9565b50905050610b628b8b8b8b8b8b8b8b611428565b5050505050505050505050565b6001600160601b0385166000908152600160205260409020600401548590600160a01b900460ff16610bb4576040516363d2088f60e11b815260040160405180910390fd5b5050506001600160601b039092166000908152600160205260409020600401805460ff60a01b191690555050565b6001600160601b0385166000908152600160205260409020600401548590600160a01b900460ff16610c27576040516363d2088f60e11b815260040160405180910390fd5b6001600160601b038616600090815260016020818152604080842081516101208101835281546001600160a01b0390811682529482015493810193909352600281015491830191909152600381015462ffffff811660608401526301000000810465ffffffffffff9081166080850152600160481b9091041660a0830152600481015492831660c0830152600160a01b90920460ff16151560e082015260058201805491929161010084019190610cdd90612569565b80601f0160208091040260200160405190810160405280929190818152602001828054610d0990612569565b8015610d565780601f10610d2b57610100808354040283529160200191610d56565b820191906000526020600020905b815481529060010190602001808311610d3957829003601f168201915b505050919092525050604051634f17001d60e11b81526001600160601b038a16600482015291925060009182915081906001600160a01b037f00000000000000000000000000000000000000000000000000000000000000001690639e2e003a90602401600060405180830381865afa158015610dd7573d6000803e3d6000fd5b505050506040513d6000823e601f3d908101601f19168201604052610dff91908101906128c0565b50505050604089015160208a01519598509396509194506000938493849350839250610e2a916129da565b610e378d620186a06129ed565b610e419190612a1a565b610e4e90620186a0612a2e565b9050620186a062ffffff16818960200151610e6991906129ed565b610e739190612a1a565b915050610e84818860600151611590565b9250610e948c8860600151611590565b6040516370a0823160e01b81526001600160a01b03888116600483015291935060009250908616906370a0823190602401602060405180830381865afa158015610ee2573d6000803e3d6000fd5b505050506040513d601f19601f82011682018060405250810190610f069190612a41565b905082811015610f4a5760405163141b7cb560e21b81526001600160a01b038087166004830152871660248201526044810184905260648101829052608401610882565b610f5f6001600160a01b0386168730866115b6565b506000610fa68d858488878f8f8080601f01602080910402602001604051908101604052809392919081815260200183838082843760009201919091525061165292505050565b6040516370a0823160e01b81523060048201529091506000906001600160a01b038316906370a0823190602401602060405180830381865afa158015610ff0573d6000803e3d6000fd5b505050506040513d601f19601f820116820180604052508101906110149190612a41565b60c08901519091506001600160a01b03161561113d5760c088015160405163095ea7b360e01b81526001600160a01b039182166004820152602481018390529083169063095ea7b3906044016020604051808303816000875af115801561107f573d6000803e3d6000fd5b505050506040513d601f19601f820116820180604052508101906110a3919061277d565b508760c001516001600160a01b031663e40d88f88960000151846110cf8c608001518d60a001516113e0565b8560016040518663ffffffff1660e01b81526004016110f2959493929190612a5a565b6060604051808303816000875af1158015611111573d6000803e3d6000fd5b505050506040513d601f19601f820116820180604052508101906111359190612a9f565b505050611154565b8751611154906001600160a01b0384169083611bc3565b6040516370a0823160e01b81523060048201526000906001600160a01b038716906370a0823190602401602060405180830381865afa15801561119b573d6000803e3d6000fd5b505050506040513d601f19601f820116820180604052508101906111bf9190612a41565b905080156111db576111db6001600160a01b0387168983611bc3565b506040516370a0823160e01b81523060048201526000906001600160a01b038816906370a0823190602401602060405180830381865afa158015611223573d6000803e3d6000fd5b505050506040513d601f19601f820116820180604052508101906112479190612a41565b90508015611263576112636001600160a01b0388168983611bc3565b505050505050505050505050505050565b604051638a8cacbf60e01b815260040160405180910390fd5b604051635bb27aab60e01b8152622624ab60e91b600482018190526000917f00000000000000000000000000000000000000000000000000000000000000009190839081906001600160a01b03851690635bb27aab906024016040805180830381865afa158015611302573d6000803e3d6000fd5b505050506040513d601f19601f820116820180604052508101906113269190612ae9565b915091508080611337575060ff8216155b1561135557604051633d495ecd60e11b815260040160405180910390fd5b836001600160a01b0316639e55cba361136e8585611c4a565b6040516001600160e01b031960e084901b1681526001600160c81b03199091166004820152602401602060405180830381865afa1580156113b3573d6000803e3d6000fd5b505050506040513d601f19601f820116820180604052508101906113d79190612b20565b94505050505090565b60408051808201825265ffffffffffff848116808352848216602093840190815284519384019190915251168183015281518082038301815260609091019091525b92915050565b60006114368284018461265f565b9050600081608001518060200190518101906114529190612b3d565b6002546040516322afcccb60e01b815262ffffff831660048201529192506001600160a01b0316906322afcccb90602401602060405180830381865afa1580156114a0573d6000803e3d6000fd5b505050506040513d601f19601f820116820180604052508101906114c49190612b6c565b60020b6000036114e757604051635a60fc9d60e01b815260040160405180910390fd5b600254604051630b4c774160e11b81526000916001600160a01b031690631698ee829061151c908c908c908790600401612b87565b602060405180830381865afa158015611539573d6000803e3d6000fd5b505050506040513d601f19601f8201168201806040525081019061155d9190612b20565b6001600160a01b03161461158457604051635c4b439f60e01b815260040160405180910390fd5b50505050505050505050565b6000620186a06115a562ffffff8416856129ed565b6115af9190612a1a565b9392505050565b60006040516323b872dd60e01b81526001600160a01b03851660048201526001600160a01b03841660248201528260448201526020600060648360008a5af13d15601f3d116001600051141617169150508061164b5760405162461bcd60e51b81526020600482015260146024820152731514905394d1915497d19493d357d1905253115160621b6044820152606401610882565b5050505050565b600080828060200190518101906116699190612baf565b6001600160601b03891660009081526001602052604081206005018054929350909161169490612569565b80601f01602080910402602001604051908101604052809291908181526020018280546116c090612569565b801561170d5780601f106116e25761010080835404028352916020019161170d565b820191906000526020600020905b8154815290600101906020018083116116f057829003601f168201915b50505050508060200190518101906117259190612b3d565b90506001600160a01b038087169089161060006117448a898b8a611cd9565b905061176a826117545788611756565b8a5b83611761578b611763565b895b8584611d73565b50506002546040516322afcccb60e01b815262ffffff8416600482015260009182916001600160a01b03909116906322afcccb90602401602060405180830381865afa1580156117be573d6000803e3d6000fd5b505050506040513d601f19601f820116820180604052508101906117e29190612b6c565b6003549091506001600160a01b031663a958b89584611801578a611803565b8c5b8561180e578d611810565b8b5b878561182081620d89e719612bfa565b61182a9190612c34565b8680611839620d89e719612c5b565b6118439190612bfa565b61184d9190612c34565b6040516001600160e01b031960e088901b1681526001600160a01b03958616600482015294909316602485015262ffffff9091166044840152600290810b60648401520b608482015260a4016020604051808303816000875af11580156118b8573d6000803e3d6000fd5b505050506040513d601f19601f820116820180604052508101906118dc9190612b20565b9150819050600080806001600160a01b038416639894f21a876118ff578c611901565b8e5b8861190c578f61190e565b8d5b6040516001600160e01b031960e085901b16815260048101929092526024820152604401606060405180830381865afa15801561194f573d6000803e3d6000fd5b505050506040513d601f19601f820116820180604052508101906119739190612c7d565b9250925092506000866119865782611988565b835b9050600061199a8f8b60000151611fd6565b9050808210156119df578f8282604051636ad6fa4b60e01b8152600401610882939291906001600160a01b039390931683526020830191909152604082015260600190565b8f6001600160a01b031663095ea7b388846040518363ffffffff1660e01b8152600401611a219291906001600160a01b03929092168252602082015260400190565b6020604051808303816000875af1158015611a40573d6000803e3d6000fd5b505050506040513d601f19601f82011682018060405250810190611a64919061277d565b505050600086611a745783611a76565b825b90506000611a888d8b60000151611fd6565b905080821015611ac457604051636ad6fa4b60e01b81526001600160a01b038f1660048201526024810183905260448101829052606401610882565b60405163095ea7b360e01b81526001600160a01b038881166004830152602482018490528f169063095ea7b3906044016020604051808303816000875af1158015611b13573d6000803e3d6000fd5b505050506040513d601f19601f82011682018060405250810190611b37919061277d565b50506040516394bf804d60e01b8152600481018390523060248201526001600160a01b03861691506394bf804d906044016060604051808303816000875af1158015611b87573d6000803e3d6000fd5b505050506040513d601f19601f82011682018060405250810190611bab9190612cab565b50505050505050809450505050509695505050505050565b600060405163a9059cbb60e01b81526001600160a01b0384166004820152826024820152602060006044836000895af13d15601f3d1160016000511416171691505080611c445760405162461bcd60e51b815260206004820152600f60248201526e1514905394d1915497d19052531151608a1b6044820152606401610882565b50505050565b600080611c58600a84612cf9565b611c63906030612d1b565b60f81b90506000611c75600a85612d34565b611c80906030612d1b565b6040516001600160f81b0319808516602083015260f89290921b91821660218201526001600160d81b031987166022820152909150602701604051602081830303815290604052611cd090612d56565b95945050505050565b6000806000856001600160a01b0316876001600160a01b031610611cfe578385611d01565b84845b915091506000611d1682600160c01b85612035565b90506000611d23826120e7565b90506001600160a01b03811115611d675760405162461bcd60e51b81526020600482015260086024820152676f766572666c6f7760c01b6044820152606401610882565b98975050505050505050565b6000836001600160a01b0316856001600160a01b031610611d9357600080fd5b600254604051630b4c774160e11b81526001600160a01b0390911690631698ee8290611dc790889088908890600401612b87565b602060405180830381865afa158015611de4573d6000803e3d6000fd5b505050506040513d601f19601f82011682018060405250810190611e089190612b20565b90506001600160a01b038116611ef35760025460405163a167129560e01b81526001600160a01b039091169063a167129590611e4c90889088908890600401612b87565b6020604051808303816000875af1158015611e6b573d6000803e3d6000fd5b505050506040513d601f19601f82011682018060405250810190611e8f9190612b20565b60405163f637731d60e01b81526001600160a01b0384811660048301529192509082169063f637731d90602401600060405180830381600087803b158015611ed657600080fd5b505af1158015611eea573d6000803e3d6000fd5b50505050611fce565b6000816001600160a01b0316633850c7bd6040518163ffffffff1660e01b815260040160e060405180830381865afa158015611f33573d6000803e3d6000fd5b505050506040513d601f19601f82011682018060405250810190611f579190612d9f565b5050505050509050806001600160a01b0316600003611fcc5760405163f637731d60e01b81526001600160a01b03848116600483015283169063f637731d90602401600060405180830381600087803b158015611fb357600080fd5b505af1158015611fc7573d6000803e3d6000fd5b505050505b505b949350505050565b6000620186a062ffffff831611156120185760405163440e0f3160e01b815262ffffff8316600482015260006024820152620186a06044820152606401610882565b620186a06120268382612e2b565b6115a59062ffffff16856129ed565b600080806000198587098587029250828110838203039150508060000361206e576000841161206357600080fd5b5082900490506115af565b80841161207a57600080fd5b6000848688096000868103871696879004966002600389028118808a02820302808a02820302808a02820302808a02820302808a02820302808a02909103029181900381900460010186841190950394909402919094039290920491909117919091029150509392505050565b60b581600160881b81106121005760409190911b9060801c5b600160481b81106121165760209190911b9060401c5b65010000000000811061212e5760109190911b9060201c5b630100000081106121445760089190911b9060101c5b62010000010260121c80820401600190811c80830401811c80830401811c80830401811c80830401811c80830401811c80830401901c908190048111900390565b80356001600160601b038116811461219c57600080fd5b919050565b80151581146121af57600080fd5b50565b60008083601f8401126121c457600080fd5b5081356001600160401b038111156121db57600080fd5b6020830191508360208285010111156121f357600080fd5b9250929050565b60008060008060006080868803121561221257600080fd5b61221b86612185565b9450602086013593506040860135612232816121a1565b925060608601356001600160401b0381111561224d57600080fd5b612259888289016121b2565b969995985093965092949392505050565b60006020828403121561227c57600080fd5b6115af82612185565b6001600160a01b03811681146121af57600080fd5b60008060008060008060008060e0898b0312156122b657600080fd5b6122bf89612185565b975060208901356122cf81612285565b965060408901356122df81612285565b955060608901356122ef81612285565b94506080890135935060a0890135612306816121a1565b925060c08901356001600160401b0381111561232157600080fd5b61232d8b828c016121b2565b999c989b5096995094979396929594505050565b60008060008060006080868803121561235957600080fd5b61236286612185565b9450602086013593506040860135925060608601356001600160401b0381111561224d57600080fd5b60008060008060008060a087890312156123a457600080fd5b6123ad87612185565b955060208701356001600160401b0380821682146123ca57600080fd5b9095506040880135906123dc82612285565b90945060608801359350608088013590808211156123f957600080fd5b5061240689828a016121b2565b979a9699509497509295939492505050565b60005b8381101561243357818101518382015260200161241b565b50506000910152565b60008151808452612454816020860160208601612418565b601f01601f19169290920160200192915050565b6001600160a01b038a81168252602082018a90526040820189905262ffffff8816606083015265ffffffffffff8781166080840152861660a0830152841660c082015282151560e082015261012061010082018190526000906124cd8382018561243c565b9c9b505050505050505050505050565b600080600080600080600060c0888a0312156124f857600080fd5b61250188612185565b9650602088013561251181612285565b95506040880135945060608801359350608088013561252f816121a1565b925060a08801356001600160401b0381111561254a57600080fd5b6125568a828b016121b2565b989b979a50959850939692959293505050565b600181811c9082168061257d57607f821691505b60208210810361259d57634e487b7160e01b600052602260045260246000fd5b50919050565b634e487b7160e01b600052604160045260246000fd5b60405160a081016001600160401b03811182821017156125db576125db6125a3565b60405290565b604051601f8201601f191681016001600160401b0381118282101715612609576126096125a3565b604052919050565b62ffffff811681146121af57600080fd5b803565ffffffffffff8116811461219c57600080fd5b60006001600160401b03821115612651576126516125a3565b50601f01601f191660200190565b6000602080838503121561267257600080fd5b82356001600160401b038082111561268957600080fd5b9084019060a0828703121561269d57600080fd5b6126a56125b9565b82356126b081612611565b81526126bd838501612622565b848201526126cd60408401612622565b604082015260608301356126e081612285565b60608201526080830135828111156126f757600080fd5b80840193505086601f84011261270c57600080fd5b8235915061272161271c83612638565b6125e1565b828152878584860101111561273557600080fd5b82858501868301376000858483010152806080830152508094505050505092915050565b6001600160a01b0383168152604060208201819052600090611fce9083018461243c565b60006020828403121561278f57600080fd5b81516115af816121a1565b601f8211156127e457600081815260208120601f850160051c810160208610156127c15750805b601f850160051c820191505b818110156127e0578281556001016127cd565b5050505b505050565b81516001600160401b03811115612802576128026125a3565b612816816128108454612569565b8461279a565b602080601f83116001811461284b57600084156128335750858301515b600019600386901b1c1916600185901b1785556127e0565b600085815260208120601f198616915b8281101561287a5788860151825594840194600190910190840161285b565b50858210156128985787850151600019600388901b60f8161c191681555b5050505050600190811b01905550565b80516001600160c81b03198116811461219c57600080fd5b60008060008060008060008060006101208a8c0312156128df57600080fd5b89516128ea81612285565b60208b01519099506128fb81612285565b60408b015190985061290c81612285565b965061291a60608b016128a8565b955060808a0151945060a08a015161293181612285565b935061293f60c08b016128a8565b925060e08a015161294f816121a1565b6101008b01519092506001600160401b0381111561296c57600080fd5b8a01601f81018c1361297d57600080fd5b805161298b61271c82612638565b8181528d60208385010111156129a057600080fd5b6129b1826020830160208601612418565b8093505050509295985092959850929598565b634e487b7160e01b600052601160045260246000fd5b80820180821115611422576114226129c4565b8082028115828204841417611422576114226129c4565b634e487b7160e01b600052601260045260246000fd5b600082612a2957612a29612a04565b500490565b81810381811115611422576114226129c4565b600060208284031215612a5357600080fd5b5051919050565b6001600160a01b0386811682528516602082015260a060408201819052600090612a869083018661243c565b6060830194909452509015156080909101529392505050565b600080600060608486031215612ab457600080fd5b835192506020840151612ac681612285565b80925050604084015190509250925092565b805160ff8116811461219c57600080fd5b60008060408385031215612afc57600080fd5b612b0583612ad8565b91506020830151612b15816121a1565b809150509250929050565b600060208284031215612b3257600080fd5b81516115af81612285565b600060208284031215612b4f57600080fd5b81516115af81612611565b8051600281900b811461219c57600080fd5b600060208284031215612b7e57600080fd5b6115af82612b5a565b6001600160a01b03938416815291909216602082015262ffffff909116604082015260600190565b600060208284031215612bc157600080fd5b604051602081018181106001600160401b0382111715612be357612be36125a3565b6040528251612bf181612611565b81529392505050565b60008160020b8360020b80612c1157612c11612a04565b627fffff19821460001982141615612c2b57612c2b6129c4565b90059392505050565b60008260020b8260020b028060020b9150808214612c5457612c546129c4565b5092915050565b60008160020b627fffff198103612c7457612c746129c4565b60000392915050565b600080600060608486031215612c9257600080fd5b8351925060208401519150604084015190509250925092565b600080600060608486031215612cc057600080fd5b835192506020840151915060408401516fffffffffffffffffffffffffffffffff81168114612cee57600080fd5b809150509250925092565b600060ff831680612d0c57612d0c612a04565b8060ff84160491505092915050565b60ff8181168382160190811115611422576114226129c4565b600060ff831680612d4757612d47612a04565b8060ff84160691505092915050565b805160208201516001600160c81b03198082169291906007831015612d855780818460070360031b1b83161693505b505050919050565b805161ffff8116811461219c57600080fd5b600080600080600080600060e0888a031215612dba57600080fd5b8751612dc581612285565b9650612dd360208901612b5a565b9550612de160408901612d8d565b9450612def60608901612d8d565b9350612dfd60808901612d8d565b9250612e0b60a08901612ad8565b915060c0880151612e1b816121a1565b8091505092959891949750929550565b62ffffff828116828216039080821115612c5457612c546129c456fea26469706673582212205e6bcb169063dceecbcc2c95db552b2eadbe439e437db26914a72785cfccdbe464736f6c63430008130033",
    "linkReferences": {}
  },
  "methodIdentifiers": {
    "AUCTION_HOUSE()": "4226b1bf",
    "LINEAR_VESTING_KEYCODE()": "95fd2ef2",
    "MAX_PERCENT()": "1036bbe2",
    "gUniFactory()": "258f8931",
    "lotConfiguration(uint96)": "d5281219",
    "lotIdRegistered(uint96)": "1cae9eef",
    "onBid(uint96,uint64,address,uint256,bytes)": "b898895e",
    "onCancel(uint96,uint256,bool,bytes)": "a5658c86",
    "onCreate(uint96,address,address,address,uint256,bool,bytes)": "66e74167",
    "onCurate(uint96,uint256,bool,bytes)": "09b9601c",
    "onPurchase(uint96,address,uint256,uint256,bool,bytes)": "fc439982",
    "onSettle(uint96,uint256,uint256,bytes)": "a5b13f69",
    "uniV3Factory()": "705e474b"
  },
  "id": 132
}