{
  "abi": [
    {
      "type": "constructor",
      "inputs": [
        {
          "name": "auctionHouse_",
          "type": "address",
          "internalType": "address"
        },
        {
          "name": "uniswapV2Factory_",
          "type": "address",
          "internalType": "address"
        },
        {
          "name": "uniswapV2Router_",
          "type": "address",
          "internalType": "address"
        }
      ],
      "stateMutability": "nonpayable"
    },
    {
      "type": "function",
      "name": "AUCTION_HOUSE",
      "inputs": [],
      "outputs": [
        {
          "name": "",
          "type": "address",
          "internalType": "address"
        }
      ],
      "stateMutability": "view"
    },
    {
      "type": "function",
      "name": "LINEAR_VESTING_KEYCODE",
      "inputs": [],
      "outputs": [
        {
          "name": "",
          "type": "bytes5",
          "internalType": "bytes5"
        }
      ],
      "stateMutability": "view"
    },
    {
      "type": "function",
      "name": "MAX_PERCENT",
      "inputs": [],
      "outputs": [
        {
          "name": "",
          "type": "uint24",
          "internalType": "uint24"
        }
      ],
      "stateMutability": "view"
    },
    {
      "type": "function",
      "name": "lotConfiguration",
      "inputs": [
        {
          "name": "lotId",
          "type": "uint96",
          "internalType": "uint96"
        }
      ],
      "outputs": [
        {
          "name": "recipient",
          "type": "address",
          "internalType": "address"
        },
        {
          "name": "lotCapacity",
          "type": "uint256",
          "internalType": "uint256"
        },
        {
          "name": "lotCuratorPayout",
          "type": "uint256",
          "internalType": "uint256"
        },
        {
          "name": "proceedsUtilisationPercent",
          "type": "uint24",
          "internalType": "uint24"
        },
        {
          "name": "vestingStart",
          "type": "uint48",
          "internalType": "uint48"
        },
        {
          "name": "vestingExpiry",
          "type": "uint48",
          "internalType": "uint48"
        },
        {
          "name": "linearVestingModule",
          "type": "address",
          "internalType": "contract LinearVesting"
        },
        {
          "name": "active",
          "type": "bool",
          "internalType": "bool"
        },
        {
          "name": "implParams",
          "type": "bytes",
          "internalType": "bytes"
        }
      ],
      "stateMutability": "view"
    },
    {
      "type": "function",
      "name": "lotIdRegistered",
      "inputs": [
        {
          "name": "",
          "type": "uint96",
          "internalType": "uint96"
        }
      ],
      "outputs": [
        {
          "name": "",
          "type": "bool",
          "internalType": "bool"
        }
      ],
      "stateMutability": "view"
    },
    {
      "type": "function",
      "name": "onBid",
      "inputs": [
        {
          "name": "lotId_",
          "type": "uint96",
          "internalType": "uint96"
        },
        {
          "name": "bidId",
          "type": "uint64",
          "internalType": "uint64"
        },
        {
          "name": "buyer_",
          "type": "address",
          "internalType": "address"
        },
        {
          "name": "amount_",
          "type": "uint256",
          "internalType": "uint256"
        },
        {
          "name": "callbackData_",
          "type": "bytes",
          "internalType": "bytes"
        }
      ],
      "outputs": [
        {
          "name": "",
          "type": "bytes4",
          "internalType": "bytes4"
        }
      ],
      "stateMutability": "nonpayable"
    },
    {
      "type": "function",
      "name": "onCancel",
      "inputs": [
        {
          "name": "lotId_",
          "type": "uint96",
          "internalType": "uint96"
        },
        {
          "name": "refund_",
          "type": "uint256",
          "internalType": "uint256"
        },
        {
          "name": "prefunded_",
          "type": "bool",
          "internalType": "bool"
        },
        {
          "name": "callbackData_",
          "type": "bytes",
          "internalType": "bytes"
        }
      ],
      "outputs": [
        {
          "name": "",
          "type": "bytes4",
          "internalType": "bytes4"
        }
      ],
      "stateMutability": "nonpayable"
    },
    {
      "type": "function",
      "name": "onCreate",
      "inputs": [
        {
          "name": "lotId_",
          "type": "uint96",
          "internalType": "uint96"
        },
        {
          "name": "seller_",
          "type": "address",
          "internalType": "address"
        },
        {
          "name": "baseToken_",
          "type": "address",
          "internalType": "address"
        },
        {
          "name": "quoteToken_",
          "type": "address",
          "internalType": "address"
        },
        {
          "name": "capacity_",
          "type": "uint256",
          "internalType": "uint256"
        },
        {
          "name": "prefund_",
          "type": "bool",
          "internalType": "bool"
        },
        {
          "name": "callbackData_",
          "type": "bytes",
          "internalType": "bytes"
        }
      ],
      "outputs": [
        {
          "name": "",
          "type": "bytes4",
          "internalType": "bytes4"
        }
      ],
      "stateMutability": "nonpayable"
    },
    {
      "type": "function",
      "name": "onCurate",
      "inputs": [
        {
          "name": "lotId_",
          "type": "uint96",
          "internalType": "uint96"
        },
        {
          "name": "curatorFee_",
          "type": "uint256",
          "internalType": "uint256"
        },
        {
          "name": "prefund_",
          "type": "bool",
          "internalType": "bool"
        },
        {
          "name": "callbackData_",
          "type": "bytes",
          "internalType": "bytes"
        }
      ],
      "outputs": [
        {
          "name": "",
          "type": "bytes4",
          "internalType": "bytes4"
        }
      ],
      "stateMutability": "nonpayable"
    },
    {
      "type": "function",
      "name": "onPurchase",
      "inputs": [
        {
          "name": "lotId_",
          "type": "uint96",
          "internalType": "uint96"
        },
        {
          "name": "buyer_",
          "type": "address",
          "internalType": "address"
        },
        {
          "name": "amount_",
          "type": "uint256",
          "internalType": "uint256"
        },
        {
          "name": "payout_",
          "type": "uint256",
          "internalType": "uint256"
        },
        {
          "name": "prefunded_",
          "type": "bool",
          "internalType": "bool"
        },
        {
          "name": "callbackData_",
          "type": "bytes",
          "internalType": "bytes"
        }
      ],
      "outputs": [
        {
          "name": "",
          "type": "bytes4",
          "internalType": "bytes4"
        }
      ],
      "stateMutability": "nonpayable"
    },
    {
      "type": "function",
      "name": "onSettle",
      "inputs": [
        {
          "name": "lotId_",
          "type": "uint96",
          "internalType": "uint96"
        },
        {
          "name": "proceeds_",
          "type": "uint256",
          "internalType": "uint256"
        },
        {
          "name": "refund_",
          "type": "uint256",
          "internalType": "uint256"
        },
        {
          "name": "callbackData_",
          "type": "bytes",
          "internalType": "bytes"
        }
      ],
      "outputs": [
        {
          "name": "",
          "type": "bytes4",
          "internalType": "bytes4"
        }
      ],
      "stateMutability": "nonpayable"
    },
    {
      "type": "function",
      "name": "uniV2Factory",
      "inputs": [],
      "outputs": [
        {
          "name": "",
          "type": "address",
          "internalType": "contract IUniswapV2Factory"
        }
      ],
      "stateMutability": "view"
    },
    {
      "type": "function",
      "name": "uniV2Router",
      "inputs": [],
      "outputs": [
        {
          "name": "",
          "type": "address",
          "internalType": "contract IUniswapV2Router02"
        }
      ],
      "stateMutability": "view"
    },
    {
      "type": "error",
      "name": "Callback_InsufficientBalance",
      "inputs": [
        {
          "name": "token_",
          "type": "address",
          "internalType": "address"
        },
        {
          "name": "account_",
          "type": "address",
          "internalType": "address"
        },
        {
          "name": "balance_",
          "type": "uint256",
          "internalType": "uint256"
        },
        {
          "name": "required_",
          "type": "uint256",
          "internalType": "uint256"
        }
      ]
    },
    {
      "type": "error",
      "name": "Callback_InvalidParams",
      "inputs": []
    },
    {
      "type": "error",
      "name": "Callback_LinearVestingModuleNotFound",
      "inputs": []
    },
    {
      "type": "error",
      "name": "Callback_NotAuthorized",
      "inputs": []
    },
    {
      "type": "error",
      "name": "Callback_NotImplemented",
      "inputs": []
    },
    {
      "type": "error",
      "name": "Callback_Params_InvalidAddress",
      "inputs": []
    },
    {
      "type": "error",
      "name": "Callback_Params_InvalidVestingParams",
      "inputs": []
    },
    {
      "type": "error",
      "name": "Callback_Params_PercentOutOfBounds",
      "inputs": [
        {
          "name": "actual_",
          "type": "uint24",
          "internalType": "uint24"
        },
        {
          "name": "min_",
          "type": "uint24",
          "internalType": "uint24"
        },
        {
          "name": "max_",
          "type": "uint24",
          "internalType": "uint24"
        }
      ]
    },
    {
      "type": "error",
      "name": "Callback_Params_PoolExists",
      "inputs": []
    },
    {
      "type": "error",
      "name": "CallbacksAddressNotValid",
      "inputs": [
        {
          "name": "callbacks",
          "type": "address",
          "internalType": "address"
        }
      ]
    }
  ],
  "bytecode": {
    "object": "0x60a06040523480156200001157600080fd5b50604051620028cd380380620028cd833981016040819052620000349162000236565b60408051610100810182526001808252602082018190529181018290526000606082018190526080820181905260a0820183905260c082019290925260e08101919091528390819062000088308262000122565b506001600160a01b0390811660805283169050620000b9576040516302180d7960e51b815260040160405180910390fd5b600280546001600160a01b0319166001600160a01b03848116919091179091558116620000f9576040516302180d7960e51b815260040160405180910390fd5b600380546001600160a01b0319166001600160a01b039290921691909117905550620002809050565b805115156001609f1b831615151415806200014b5750602081015115156001609e1b8316151514155b80620001655750604081015115156001609d1b8316151514155b806200017f5750606081015115156001609c1b8316151514155b80620001995750608081015115156001609b1b8316151514155b80620001b3575060a081015115156001609a1b8316151514155b80620001cd575060c08101511515600160991b8316151514155b80620001e7575060e08101511515600160981b8316151514155b1562000215576040516303b556f760e01b81526001600160a01b038316600482015260240160405180910390fd5b5050565b80516001600160a01b03811681146200023157600080fd5b919050565b6000806000606084860312156200024c57600080fd5b620002578462000219565b9250620002676020850162000219565b9150620002776040850162000219565b90509250925092565b6080516125f9620002d460003960008181610186015281816102750152818161031b015281816103e80152818161048e01528181610534015281816106d901528181610d9001526112ad01526125f96000f3fe608060405234801561001057600080fd5b50600436106100cf5760003560e01c8063958c2e521161008c578063a5b13f6911610066578063a5b13f6914610207578063b898895e1461021a578063d52812191461022d578063fc4399821461025557600080fd5b8063958c2e52146101bb57806395fd2ef2146101ce578063a5658c86146101f457600080fd5b806309b9601c146100d45780631036bbe2146101055780631cae9eef146101235780633da04b87146101565780634226b1bf1461018157806366e74167146101a8575b600080fd5b6100e76100e2366004611b50565b610268565b6040516001600160e01b031990911681526020015b60405180910390f35b61010f620186a081565b60405162ffffff90911681526020016100fc565b610146610131366004611bc0565b60006020819052908152604090205460ff1681565b60405190151581526020016100fc565b600254610169906001600160a01b031681565b6040516001600160a01b0390911681526020016100fc565b6101697f000000000000000000000000000000000000000000000000000000000000000081565b6100e76101b6366004611bf0565b61030e565b600354610169906001600160a01b031681565b6101db622624ab60e91b81565b6040516001600160d81b031990911681526020016100fc565b6100e7610202366004611b50565b6103db565b6100e7610215366004611c97565b610481565b6100e7610228366004611ce1565b610527565b61024061023b366004611bc0565b6105cf565b6040516100fc99989796959493929190611dbe565b6100e7610263366004611e33565b6106cc565b6000336001600160a01b037f000000000000000000000000000000000000000000000000000000000000000016146102b357604051630d0ec32b60e31b815260040160405180910390fd5b6001600160601b038616600090815260208190526040902054869060ff166102ee57604051630d0ec32b60e31b815260040160405180910390fd5b6102fb8787878787610776565b5063026e580760e21b9695505050505050565b6000336001600160a01b037f0000000000000000000000000000000000000000000000000000000000000000161461035957604051630d0ec32b60e31b815260040160405180910390fd5b6001600160601b03891660009081526020819052604090205460ff1615610393576040516363d2088f60e11b815260040160405180910390fd5b6001600160601b0389166000908152602081905260409020805460ff191660011790556103c689898989898989896107de565b506366e7416760e01b98975050505050505050565b6000336001600160a01b037f0000000000000000000000000000000000000000000000000000000000000000161461042657604051630d0ec32b60e31b815260040160405180910390fd5b6001600160601b038616600090815260208190526040902054869060ff1661046157604051630d0ec32b60e31b815260040160405180910390fd5b61046e8787878787610b6f565b506352b2c64360e11b9695505050505050565b6000336001600160a01b037f000000000000000000000000000000000000000000000000000000000000000016146104cc57604051630d0ec32b60e31b815260040160405180910390fd5b6001600160601b038616600090815260208190526040902054869060ff1661050757604051630d0ec32b60e31b815260040160405180910390fd5b6105148787878787610be2565b5063a5b13f6960e01b9695505050505050565b6000336001600160a01b037f0000000000000000000000000000000000000000000000000000000000000000161461057257604051630d0ec32b60e31b815260040160405180910390fd5b6001600160601b038716600090815260208190526040902054879060ff166105ad57604051630d0ec32b60e31b815260040160405180910390fd5b6105bb888888888888611274565b50635c4c44af60e11b979650505050505050565b60016020819052600091825260409091208054918101546002820154600383015460048401546005850180546001600160a01b03978816979596949562ffffff8516956301000000860465ffffffffffff90811696600160481b9004169491821693600160a01b90920460ff169290919061064990611ebf565b80601f016020809104026020016040519081016040528092919081815260200182805461067590611ebf565b80156106c25780601f10610697576101008083540402835291602001916106c2565b820191906000526020600020905b8154815290600101906020018083116106a557829003601f168201915b5050505050905089565b6000336001600160a01b037f0000000000000000000000000000000000000000000000000000000000000000161461071757604051630d0ec32b60e31b815260040160405180910390fd5b6001600160601b038816600090815260208190526040902054889060ff1661075257604051630d0ec32b60e31b815260040160405180910390fd5b61076189898989898989611274565b50637e21ccc160e11b98975050505050505050565b6001600160601b0385166000908152600160205260409020600401548590600160a01b900460ff166107bb576040516363d2088f60e11b815260040160405180910390fd5b5050506001600160601b0390921660009081526001602052604090206002015550565b6001600160601b03881660009081526001602052604090205488906001600160a01b031615610820576040516363d2088f60e11b815260040160405180910390fd5b600061082e83850185611fb5565b805190915062ffffff16158061084e57508051620186a062ffffff909116115b1561088b57805160405163440e0f3160e01b815262ffffff909116600482015260016024820152620186a060448201526064015b60405180910390fd5b6000816020015165ffffffffffff1660001415806108b45750604082015165ffffffffffff1615155b15610960576108c161128d565b9050806001600160a01b031663caf927858a6108e5856020015186604001516113e0565b6040518363ffffffff1660e01b81526004016109029291906120af565b602060405180830381865afa15801561091f573d6000803e3d6000fd5b505050506040513d601f19601f8201168201806040525081019061094391906120db565b610960576040516328db098b60e01b815260040160405180910390fd5b60608201516001600160a01b031661098b576040516302180d7960e51b815260040160405180910390fd5b60405180610120016040528083606001516001600160a01b0316815260200188815260200160008152602001836000015162ffffff168152602001836020015165ffffffffffff168152602001836040015165ffffffffffff168152602001826001600160a01b031681526020016001151581526020018360800151815250600160008d6001600160601b03166001600160601b0316815260200190815260200160002060008201518160000160006101000a8154816001600160a01b0302191690836001600160a01b03160217905550602082015181600101556040820151816002015560608201518160030160006101000a81548162ffffff021916908362ffffff16021790555060808201518160030160036101000a81548165ffffffffffff021916908365ffffffffffff16021790555060a08201518160030160096101000a81548165ffffffffffff021916908365ffffffffffff16021790555060c08201518160040160006101000a8154816001600160a01b0302191690836001600160a01b0316021790555060e08201518160040160146101000a81548160ff021916908315150217905550610100820151816005019081610b4e9190612147565b50905050610b628b8b8b8b8b8b8b8b611428565b5050505050505050505050565b6001600160601b0385166000908152600160205260409020600401548590600160a01b900460ff16610bb4576040516363d2088f60e11b815260040160405180910390fd5b5050506001600160601b039092166000908152600160205260409020600401805460ff60a01b191690555050565b6001600160601b0385166000908152600160205260409020600401548590600160a01b900460ff16610c27576040516363d2088f60e11b815260040160405180910390fd5b6001600160601b038616600090815260016020818152604080842081516101208101835281546001600160a01b0390811682529482015493810193909352600281015491830191909152600381015462ffffff811660608401526301000000810465ffffffffffff9081166080850152600160481b9091041660a0830152600481015492831660c0830152600160a01b90920460ff16151560e082015260058201805491929161010084019190610cdd90611ebf565b80601f0160208091040260200160405190810160405280929190818152602001828054610d0990611ebf565b8015610d565780601f10610d2b57610100808354040283529160200191610d56565b820191906000526020600020905b815481529060010190602001808311610d3957829003601f168201915b505050919092525050604051634f17001d60e11b81526001600160601b038a16600482015291925060009182915081906001600160a01b037f00000000000000000000000000000000000000000000000000000000000000001690639e2e003a90602401600060405180830381865afa158015610dd7573d6000803e3d6000fd5b505050506040513d6000823e601f3d908101601f19168201604052610dff919081019061221e565b50505050604089015160208a01519598509396509194506000938493849350839250610e2a91612338565b610e378d620186a061234b565b610e419190612378565b610e4e90620186a061238c565b9050620186a062ffffff16818960200151610e69919061234b565b610e739190612378565b915050610e848188606001516114d0565b9250610e948c88606001516114d0565b6040516370a0823160e01b81526001600160a01b03888116600483015291935060009250908616906370a0823190602401602060405180830381865afa158015610ee2573d6000803e3d6000fd5b505050506040513d601f19601f82011682018060405250810190610f06919061239f565b905082811015610f4a5760405163141b7cb560e21b81526001600160a01b038087166004830152871660248201526044810184905260648101829052608401610882565b610f5f6001600160a01b0386168730866114f6565b506000610fa68d858488878f8f8080601f01602080910402602001604051908101604052809392919081815260200183838082843760009201919091525061159292505050565b6040516370a0823160e01b81523060048201529091506000906001600160a01b038316906370a0823190602401602060405180830381865afa158015610ff0573d6000803e3d6000fd5b505050506040513d601f19601f82011682018060405250810190611014919061239f565b60c08901519091506001600160a01b03161561113d5760c088015160405163095ea7b360e01b81526001600160a01b039182166004820152602481018390529083169063095ea7b3906044016020604051808303816000875af115801561107f573d6000803e3d6000fd5b505050506040513d601f19601f820116820180604052508101906110a391906120db565b508760c001516001600160a01b031663e40d88f88960000151846110cf8c608001518d60a001516113e0565b8560016040518663ffffffff1660e01b81526004016110f29594939291906123b8565b6060604051808303816000875af1158015611111573d6000803e3d6000fd5b505050506040513d601f19601f8201168201806040525081019061113591906123fd565b505050611154565b8751611154906001600160a01b0384169083611966565b6040516370a0823160e01b81523060048201526000906001600160a01b038716906370a0823190602401602060405180830381865afa15801561119b573d6000803e3d6000fd5b505050506040513d601f19601f820116820180604052508101906111bf919061239f565b905080156111db576111db6001600160a01b0387168983611966565b506040516370a0823160e01b81523060048201526000906001600160a01b038816906370a0823190602401602060405180830381865afa158015611223573d6000803e3d6000fd5b505050506040513d601f19601f82011682018060405250810190611247919061239f565b90508015611263576112636001600160a01b0388168983611966565b505050505050505050505050505050565b604051638a8cacbf60e01b815260040160405180910390fd5b604051635bb27aab60e01b8152622624ab60e91b600482018190526000917f00000000000000000000000000000000000000000000000000000000000000009190839081906001600160a01b03851690635bb27aab906024016040805180830381865afa158015611302573d6000803e3d6000fd5b505050506040513d601f19601f820116820180604052508101906113269190612436565b915091508080611337575060ff8216155b1561135557604051633d495ecd60e11b815260040160405180910390fd5b836001600160a01b0316639e55cba361136e85856119ed565b6040516001600160e01b031960e084901b1681526001600160c81b03199091166004820152602401602060405180830381865afa1580156113b3573d6000803e3d6000fd5b505050506040513d601f19601f820116820180604052508101906113d79190612476565b94505050505090565b60408051808201825265ffffffffffff848116808352848216602093840190815284519384019190915251168183015281518082038301815260609091019091525b92915050565b60025460405163e6a4390560e01b81526001600160a01b0388811660048301528781166024830152600092169063e6a4390590604401602060405180830381865afa15801561147b573d6000803e3d6000fd5b505050506040513d601f19601f8201168201806040525081019061149f9190612476565b6001600160a01b0316146114c657604051635c4b439f60e01b815260040160405180910390fd5b5050505050505050565b6000620186a06114e562ffffff84168561234b565b6114ef9190612378565b9392505050565b60006040516323b872dd60e01b81526001600160a01b03851660048201526001600160a01b03841660248201528260448201526020600060648360008a5af13d15601f3d116001600051141617169150508061158b5760405162461bcd60e51b81526020600482015260146024820152731514905394d1915497d19493d357d1905253115160621b6044820152606401610882565b5050505050565b600080828060200190518101906115a99190612493565b60025460405163e6a4390560e01b81526001600160a01b0388811660048301528a811660248301529293506000929091169063e6a4390590604401602060405180830381865afa158015611601573d6000803e3d6000fd5b505050506040513d601f19601f820116820180604052508101906116259190612476565b90506001600160a01b0381166116b0576002546040516364e329cb60e11b81526001600160a01b0388811660048301528a811660248301529091169063c9c65396906044016020604051808303816000875af1158015611689573d6000803e3d6000fd5b505050506040513d601f19601f820116820180604052508101906116ad9190612476565b90505b60006116c0888460000151611a7c565b905060006116d2878560000151611a7c565b60035460405163095ea7b360e01b81526001600160a01b039182166004820152602481018c90529192508b169063095ea7b3906044016020604051808303816000875af1158015611727573d6000803e3d6000fd5b505050506040513d601f19601f8201168201806040525081019061174b91906120db565b5060035460405163095ea7b360e01b81526001600160a01b039182166004820152602481018990529089169063095ea7b3906044016020604051808303816000875af115801561179f573d6000803e3d6000fd5b505050506040513d601f19601f820116820180604052508101906117c391906120db565b5060035460405162e8e33760e81b81526001600160a01b038c811660048301528a81166024830152604482018c9052606482018a90526084820185905260a482018490523060c48301524260e48301529091169063e8e3370090610104016060604051808303816000875af1158015611840573d6000803e3d6000fd5b505050506040513d601f19601f8201168201806040525081019061186491906124de565b505060035460405163095ea7b360e01b81526001600160a01b03918216600482015260006024820152908c16915063095ea7b3906044016020604051808303816000875af11580156118ba573d6000803e3d6000fd5b505050506040513d601f19601f820116820180604052508101906118de91906120db565b5060035460405163095ea7b360e01b81526001600160a01b039182166004820152600060248201529089169063095ea7b3906044016020604051808303816000875af1158015611932573d6000803e3d6000fd5b505050506040513d601f19601f8201168201806040525081019061195691906120db565b50919a9950505050505050505050565b600060405163a9059cbb60e01b81526001600160a01b0384166004820152826024820152602060006044836000895af13d15601f3d11600160005114161716915050806119e75760405162461bcd60e51b815260206004820152600f60248201526e1514905394d1915497d19052531151608a1b6044820152606401610882565b50505050565b6000806119fb600a8461250c565b611a0690603061252e565b60f81b90506000611a18600a85612547565b611a2390603061252e565b6040516001600160f81b0319808516602083015260f89290921b91821660218201526001600160d81b031987166022820152909150602701604051602081830303815290604052611a7390612569565b95945050505050565b6000620186a062ffffff83161115611abe5760405163440e0f3160e01b815262ffffff8316600482015260006024820152620186a06044820152606401610882565b620186a0611acc83826125a0565b6114e59062ffffff168561234b565b80356001600160601b0381168114611af257600080fd5b919050565b8015158114611b0557600080fd5b50565b60008083601f840112611b1a57600080fd5b5081356001600160401b03811115611b3157600080fd5b602083019150836020828501011115611b4957600080fd5b9250929050565b600080600080600060808688031215611b6857600080fd5b611b7186611adb565b9450602086013593506040860135611b8881611af7565b925060608601356001600160401b03811115611ba357600080fd5b611baf88828901611b08565b969995985093965092949392505050565b600060208284031215611bd257600080fd5b6114ef82611adb565b6001600160a01b0381168114611b0557600080fd5b60008060008060008060008060e0898b031215611c0c57600080fd5b611c1589611adb565b97506020890135611c2581611bdb565b96506040890135611c3581611bdb565b95506060890135611c4581611bdb565b94506080890135935060a0890135611c5c81611af7565b925060c08901356001600160401b03811115611c7757600080fd5b611c838b828c01611b08565b999c989b5096995094979396929594505050565b600080600080600060808688031215611caf57600080fd5b611cb886611adb565b9450602086013593506040860135925060608601356001600160401b03811115611ba357600080fd5b60008060008060008060a08789031215611cfa57600080fd5b611d0387611adb565b955060208701356001600160401b038082168214611d2057600080fd5b909550604088013590611d3282611bdb565b9094506060880135935060808801359080821115611d4f57600080fd5b50611d5c89828a01611b08565b979a9699509497509295939492505050565b60005b83811015611d89578181015183820152602001611d71565b50506000910152565b60008151808452611daa816020860160208601611d6e565b601f01601f19169290920160200192915050565b6001600160a01b038a81168252602082018a90526040820189905262ffffff8816606083015265ffffffffffff8781166080840152861660a0830152841660c082015282151560e08201526101206101008201819052600090611e2383820185611d92565b9c9b505050505050505050505050565b600080600080600080600060c0888a031215611e4e57600080fd5b611e5788611adb565b96506020880135611e6781611bdb565b955060408801359450606088013593506080880135611e8581611af7565b925060a08801356001600160401b03811115611ea057600080fd5b611eac8a828b01611b08565b989b979a50959850939692959293505050565b600181811c90821680611ed357607f821691505b602082108103611ef357634e487b7160e01b600052602260045260246000fd5b50919050565b634e487b7160e01b600052604160045260246000fd5b60405160a081016001600160401b0381118282101715611f3157611f31611ef9565b60405290565b604051601f8201601f191681016001600160401b0381118282101715611f5f57611f5f611ef9565b604052919050565b62ffffff81168114611b0557600080fd5b803565ffffffffffff81168114611af257600080fd5b60006001600160401b03821115611fa757611fa7611ef9565b50601f01601f191660200190565b60006020808385031215611fc857600080fd5b82356001600160401b0380821115611fdf57600080fd5b9084019060a08287031215611ff357600080fd5b611ffb611f0f565b823561200681611f67565b8152612013838501611f78565b8482015261202360408401611f78565b6040820152606083013561203681611bdb565b606082015260808301358281111561204d57600080fd5b80840193505086601f84011261206257600080fd5b8235915061207761207283611f8e565b611f37565b828152878584860101111561208b57600080fd5b82858501868301376000858483010152806080830152508094505050505092915050565b6001600160a01b03831681526040602082018190526000906120d390830184611d92565b949350505050565b6000602082840312156120ed57600080fd5b81516114ef81611af7565b601f82111561214257600081815260208120601f850160051c8101602086101561211f5750805b601f850160051c820191505b8181101561213e5782815560010161212b565b5050505b505050565b81516001600160401b0381111561216057612160611ef9565b6121748161216e8454611ebf565b846120f8565b602080601f8311600181146121a957600084156121915750858301515b600019600386901b1c1916600185901b17855561213e565b600085815260208120601f198616915b828110156121d8578886015182559484019460019091019084016121b9565b50858210156121f65787850151600019600388901b60f8161c191681555b5050505050600190811b01905550565b80516001600160c81b031981168114611af257600080fd5b60008060008060008060008060006101208a8c03121561223d57600080fd5b895161224881611bdb565b60208b015190995061225981611bdb565b60408b015190985061226a81611bdb565b965061227860608b01612206565b955060808a0151945060a08a015161228f81611bdb565b935061229d60c08b01612206565b925060e08a01516122ad81611af7565b6101008b01519092506001600160401b038111156122ca57600080fd5b8a01601f81018c136122db57600080fd5b80516122e961207282611f8e565b8181528d60208385010111156122fe57600080fd5b61230f826020830160208601611d6e565b8093505050509295985092959850929598565b634e487b7160e01b600052601160045260246000fd5b8082018082111561142257611422612322565b808202811582820484141761142257611422612322565b634e487b7160e01b600052601260045260246000fd5b60008261238757612387612362565b500490565b8181038181111561142257611422612322565b6000602082840312156123b157600080fd5b5051919050565b6001600160a01b0386811682528516602082015260a0604082018190526000906123e490830186611d92565b6060830194909452509015156080909101529392505050565b60008060006060848603121561241257600080fd5b83519250602084015161242481611bdb565b80925050604084015190509250925092565b6000806040838503121561244957600080fd5b825160ff8116811461245a57600080fd5b602084015190925061246b81611af7565b809150509250929050565b60006020828403121561248857600080fd5b81516114ef81611bdb565b6000602082840312156124a557600080fd5b604051602081018181106001600160401b03821117156124c7576124c7611ef9565b60405282516124d581611f67565b81529392505050565b6000806000606084860312156124f357600080fd5b8351925060208401519150604084015190509250925092565b600060ff83168061251f5761251f612362565b8060ff84160491505092915050565b60ff818116838216019081111561142257611422612322565b600060ff83168061255a5761255a612362565b8060ff84160691505092915050565b805160208201516001600160c81b031980821692919060078310156125985780818460070360031b1b83161693505b505050919050565b62ffffff8281168282160390808211156125bc576125bc612322565b509291505056fea2646970667358221220fd021278a06118e0bc3f0b2a6a79c1d2d1756e81c4924a60f140cd3cebe054ca64736f6c63430008130033",
    "linkReferences": {}
  },
  "methodIdentifiers": {
    "AUCTION_HOUSE()": "4226b1bf",
    "LINEAR_VESTING_KEYCODE()": "95fd2ef2",
    "MAX_PERCENT()": "1036bbe2",
    "lotConfiguration(uint96)": "d5281219",
    "lotIdRegistered(uint96)": "1cae9eef",
    "onBid(uint96,uint64,address,uint256,bytes)": "b898895e",
    "onCancel(uint96,uint256,bool,bytes)": "a5658c86",
    "onCreate(uint96,address,address,address,uint256,bool,bytes)": "66e74167",
    "onCurate(uint96,uint256,bool,bytes)": "09b9601c",
    "onPurchase(uint96,address,uint256,uint256,bool,bytes)": "fc439982",
    "onSettle(uint96,uint256,uint256,bytes)": "a5b13f69",
    "uniV2Factory()": "3da04b87",
    "uniV2Router()": "958c2e52"
  },
  "id": 131
}