{
  "abi": [
    {
      "type": "constructor",
      "inputs": [
        {
          "name": "auctionHouse_",
          "type": "address",
          "internalType": "address"
        },
        {
          "name": "uniV3Factory_",
          "type": "address",
          "internalType": "address"
        },
        {
          "name": "gUniFactory_",
          "type": "address",
          "internalType": "address"
        }
      ],
      "stateMutability": "nonpayable"
    },
    {
      "type": "function",
      "name": "AUCTION_HOUSE",
      "inputs": [],
      "outputs": [
        {
          "name": "",
          "type": "address",
          "internalType": "address"
        }
      ],
      "stateMutability": "view"
    },
    {
      "type": "function",
      "name": "LINEAR_VESTING_KEYCODE",
      "inputs": [],
      "outputs": [
        {
          "name": "",
          "type": "bytes5",
          "internalType": "bytes5"
        }
      ],
      "stateMutability": "view"
    },
    {
      "type": "function",
      "name": "MAX_PERCENT",
      "inputs": [],
      "outputs": [
        {
          "name": "",
          "type": "uint24",
          "internalType": "uint24"
        }
      ],
      "stateMutability": "view"
    },
    {
      "type": "function",
      "name": "gUniFactory",
      "inputs": [],
      "outputs": [
        {
          "name": "",
          "type": "address",
          "internalType": "contract IGUniFactory"
        }
      ],
      "stateMutability": "view"
    },
    {
      "type": "function",
      "name": "lotConfiguration",
      "inputs": [
        {
          "name": "lotId",
          "type": "uint96",
          "internalType": "uint96"
        }
      ],
      "outputs": [
        {
          "name": "recipient",
          "type": "address",
          "internalType": "address"
        },
        {
          "name": "lotCapacity",
          "type": "uint256",
          "internalType": "uint256"
        },
        {
          "name": "lotCuratorPayout",
          "type": "uint256",
          "internalType": "uint256"
        },
        {
          "name": "proceedsUtilisationPercent",
          "type": "uint24",
          "internalType": "uint24"
        },
        {
          "name": "vestingStart",
          "type": "uint48",
          "internalType": "uint48"
        },
        {
          "name": "vestingExpiry",
          "type": "uint48",
          "internalType": "uint48"
        },
        {
          "name": "linearVestingModule",
          "type": "address",
          "internalType": "contract LinearVesting"
        },
        {
          "name": "active",
          "type": "bool",
          "internalType": "bool"
        },
        {
          "name": "implParams",
          "type": "bytes",
          "internalType": "bytes"
        }
      ],
      "stateMutability": "view"
    },
    {
      "type": "function",
      "name": "lotIdRegistered",
      "inputs": [
        {
          "name": "",
          "type": "uint96",
          "internalType": "uint96"
        }
      ],
      "outputs": [
        {
          "name": "",
          "type": "bool",
          "internalType": "bool"
        }
      ],
      "stateMutability": "view"
    },
    {
      "type": "function",
      "name": "onBid",
      "inputs": [
        {
          "name": "lotId_",
          "type": "uint96",
          "internalType": "uint96"
        },
        {
          "name": "bidId",
          "type": "uint64",
          "internalType": "uint64"
        },
        {
          "name": "buyer_",
          "type": "address",
          "internalType": "address"
        },
        {
          "name": "amount_",
          "type": "uint256",
          "internalType": "uint256"
        },
        {
          "name": "callbackData_",
          "type": "bytes",
          "internalType": "bytes"
        }
      ],
      "outputs": [
        {
          "name": "",
          "type": "bytes4",
          "internalType": "bytes4"
        }
      ],
      "stateMutability": "nonpayable"
    },
    {
      "type": "function",
      "name": "onCancel",
      "inputs": [
        {
          "name": "lotId_",
          "type": "uint96",
          "internalType": "uint96"
        },
        {
          "name": "refund_",
          "type": "uint256",
          "internalType": "uint256"
        },
        {
          "name": "prefunded_",
          "type": "bool",
          "internalType": "bool"
        },
        {
          "name": "callbackData_",
          "type": "bytes",
          "internalType": "bytes"
        }
      ],
      "outputs": [
        {
          "name": "",
          "type": "bytes4",
          "internalType": "bytes4"
        }
      ],
      "stateMutability": "nonpayable"
    },
    {
      "type": "function",
      "name": "onCreate",
      "inputs": [
        {
          "name": "lotId_",
          "type": "uint96",
          "internalType": "uint96"
        },
        {
          "name": "seller_",
          "type": "address",
          "internalType": "address"
        },
        {
          "name": "baseToken_",
          "type": "address",
          "internalType": "address"
        },
        {
          "name": "quoteToken_",
          "type": "address",
          "internalType": "address"
        },
        {
          "name": "capacity_",
          "type": "uint256",
          "internalType": "uint256"
        },
        {
          "name": "prefund_",
          "type": "bool",
          "internalType": "bool"
        },
        {
          "name": "callbackData_",
          "type": "bytes",
          "internalType": "bytes"
        }
      ],
      "outputs": [
        {
          "name": "",
          "type": "bytes4",
          "internalType": "bytes4"
        }
      ],
      "stateMutability": "nonpayable"
    },
    {
      "type": "function",
      "name": "onCurate",
      "inputs": [
        {
          "name": "lotId_",
          "type": "uint96",
          "internalType": "uint96"
        },
        {
          "name": "curatorFee_",
          "type": "uint256",
          "internalType": "uint256"
        },
        {
          "name": "prefund_",
          "type": "bool",
          "internalType": "bool"
        },
        {
          "name": "callbackData_",
          "type": "bytes",
          "internalType": "bytes"
        }
      ],
      "outputs": [
        {
          "name": "",
          "type": "bytes4",
          "internalType": "bytes4"
        }
      ],
      "stateMutability": "nonpayable"
    },
    {
      "type": "function",
      "name": "onPurchase",
      "inputs": [
        {
          "name": "lotId_",
          "type": "uint96",
          "internalType": "uint96"
        },
        {
          "name": "buyer_",
          "type": "address",
          "internalType": "address"
        },
        {
          "name": "amount_",
          "type": "uint256",
          "internalType": "uint256"
        },
        {
          "name": "payout_",
          "type": "uint256",
          "internalType": "uint256"
        },
        {
          "name": "prefunded_",
          "type": "bool",
          "internalType": "bool"
        },
        {
          "name": "callbackData_",
          "type": "bytes",
          "internalType": "bytes"
        }
      ],
      "outputs": [
        {
          "name": "",
          "type": "bytes4",
          "internalType": "bytes4"
        }
      ],
      "stateMutability": "nonpayable"
    },
    {
      "type": "function",
      "name": "onSettle",
      "inputs": [
        {
          "name": "lotId_",
          "type": "uint96",
          "internalType": "uint96"
        },
        {
          "name": "proceeds_",
          "type": "uint256",
          "internalType": "uint256"
        },
        {
          "name": "refund_",
          "type": "uint256",
          "internalType": "uint256"
        },
        {
          "name": "callbackData_",
          "type": "bytes",
          "internalType": "bytes"
        }
      ],
      "outputs": [
        {
          "name": "",
          "type": "bytes4",
          "internalType": "bytes4"
        }
      ],
      "stateMutability": "nonpayable"
    },
    {
      "type": "function",
      "name": "uniV3Factory",
      "inputs": [],
      "outputs": [
        {
          "name": "",
          "type": "address",
          "internalType": "contract IUniswapV3Factory"
        }
      ],
      "stateMutability": "view"
    },
    {
      "type": "error",
      "name": "Callback_InsufficientBalance",
      "inputs": [
        {
          "name": "token_",
          "type": "address",
          "internalType": "address"
        },
        {
          "name": "account_",
          "type": "address",
          "internalType": "address"
        },
        {
          "name": "balance_",
          "type": "uint256",
          "internalType": "uint256"
        },
        {
          "name": "required_",
          "type": "uint256",
          "internalType": "uint256"
        }
      ]
    },
    {
      "type": "error",
      "name": "Callback_InvalidParams",
      "inputs": []
    },
    {
      "type": "error",
      "name": "Callback_LinearVestingModuleNotFound",
      "inputs": []
    },
    {
      "type": "error",
      "name": "Callback_NotAuthorized",
      "inputs": []
    },
    {
      "type": "error",
      "name": "Callback_NotImplemented",
      "inputs": []
    },
    {
      "type": "error",
      "name": "Callback_Params_InvalidAddress",
      "inputs": []
    },
    {
      "type": "error",
      "name": "Callback_Params_InvalidVestingParams",
      "inputs": []
    },
    {
      "type": "error",
      "name": "Callback_Params_PercentOutOfBounds",
      "inputs": [
        {
          "name": "actual_",
          "type": "uint24",
          "internalType": "uint24"
        },
        {
          "name": "min_",
          "type": "uint24",
          "internalType": "uint24"
        },
        {
          "name": "max_",
          "type": "uint24",
          "internalType": "uint24"
        }
      ]
    },
    {
      "type": "error",
      "name": "Callback_Params_PoolExists",
      "inputs": []
    },
    {
      "type": "error",
      "name": "Callback_Params_PoolFeeNotEnabled",
      "inputs": []
    },
    {
      "type": "error",
      "name": "Callback_Slippage",
      "inputs": [
        {
          "name": "token_",
          "type": "address",
          "internalType": "address"
        },
        {
          "name": "amountActual_",
          "type": "uint256",
          "internalType": "uint256"
        },
        {
          "name": "amountMin_",
          "type": "uint256",
          "internalType": "uint256"
        }
      ]
    },
    {
      "type": "error",
      "name": "CallbacksAddressNotValid",
      "inputs": [
        {
          "name": "callbacks",
          "type": "address",
          "internalType": "address"
        }
      ]
    }
  ],
  "bytecode": {
    "object": "0x60a06040523480156200001157600080fd5b506040516200300838038062003008833981016040819052620000349162000236565b60408051610100810182526001808252602082018190529181018290526000606082018190526080820181905260a0820183905260c082019290925260e08101919091528390819062000088308262000122565b506001600160a01b0390811660805283169050620000b9576040516302180d7960e51b815260040160405180910390fd5b600280546001600160a01b0319166001600160a01b03848116919091179091558116620000f9576040516302180d7960e51b815260040160405180910390fd5b600380546001600160a01b0319166001600160a01b039290921691909117905550620002809050565b805115156001609f1b831615151415806200014b5750602081015115156001609e1b8316151514155b80620001655750604081015115156001609d1b8316151514155b806200017f5750606081015115156001609c1b8316151514155b80620001995750608081015115156001609b1b8316151514155b80620001b3575060a081015115156001609a1b8316151514155b80620001cd575060c08101511515600160991b8316151514155b80620001e7575060e08101511515600160981b8316151514155b1562000215576040516303b556f760e01b81526001600160a01b038316600482015260240160405180910390fd5b5050565b80516001600160a01b03811681146200023157600080fd5b919050565b6000806000606084860312156200024c57600080fd5b620002578462000219565b9250620002676020850162000219565b9150620002776040850162000219565b90509250925092565b608051612d34620002d4600039600081816101860152818161027501528181610329015281816103f6015281816104b50152818161055b0152818161070001528181610c5401526111700152612d346000f3fe608060405234801561001057600080fd5b50600436106100cf5760003560e01c8063705e474b1161008c578063a5b13f6911610066578063a5b13f6914610207578063b898895e1461021a578063d52812191461022d578063fc4399821461025557600080fd5b8063705e474b146101bb57806395fd2ef2146101ce578063a5658c86146101f457600080fd5b806309b9601c146100d45780631036bbe2146101055780631cae9eef14610123578063258f8931146101565780634226b1bf1461018157806366e74167146101a8575b600080fd5b6100e76100e23660046120b1565b610268565b6040516001600160e01b031990911681526020015b60405180910390f35b61010f620186a081565b60405162ffffff90911681526020016100fc565b610146610131366004612121565b60006020819052908152604090205460ff1681565b60405190151581526020016100fc565b600354610169906001600160a01b031681565b6040516001600160a01b0390911681526020016100fc565b6101697f000000000000000000000000000000000000000000000000000000000000000081565b6100e76101b6366004612151565b61031c565b600254610169906001600160a01b031681565b6101db622624ab60e91b81565b6040516001600160d81b031990911681526020016100fc565b6100e76102023660046120b1565b6103e9565b6100e76102153660046121f8565b6104a8565b6100e7610228366004612242565b61054e565b61024061023b366004612121565b6105f6565b6040516100fc9998979695949392919061231f565b6100e7610263366004612394565b6106f3565b6000336001600160a01b037f000000000000000000000000000000000000000000000000000000000000000016146102b357604051630d0ec32b60e31b815260040160405180910390fd5b6001600160601b038616600090815260208190526040902054869060ff166102ee57604051630d0ec32b60e31b815260040160405180910390fd5b505050506001600160601b03929092166000908152600160205260409020600201555063026e580760e21b90565b6000336001600160a01b037f0000000000000000000000000000000000000000000000000000000000000000161461036757604051630d0ec32b60e31b815260040160405180910390fd5b6001600160601b03891660009081526020819052604090205460ff16156103a1576040516363d2088f60e11b815260040160405180910390fd5b6001600160601b0389166000908152602081905260409020805460ff191660011790556103d4898989898989898961079d565b506366e7416760e01b98975050505050505050565b6000336001600160a01b037f0000000000000000000000000000000000000000000000000000000000000000161461043457604051630d0ec32b60e31b815260040160405180910390fd5b6001600160601b038616600090815260208190526040902054869060ff1661046f57604051630d0ec32b60e31b815260040160405180910390fd5b6001600160601b0387166000908152600160205260409020600401805460ff60a01b19169055506352b2c64360e11b9695505050505050565b6000336001600160a01b037f000000000000000000000000000000000000000000000000000000000000000016146104f357604051630d0ec32b60e31b815260040160405180910390fd5b6001600160601b038616600090815260208190526040902054869060ff1661052e57604051630d0ec32b60e31b815260040160405180910390fd5b61053b8787878787610aeb565b5063a5b13f6960e01b9695505050505050565b6000336001600160a01b037f0000000000000000000000000000000000000000000000000000000000000000161461059957604051630d0ec32b60e31b815260040160405180910390fd5b6001600160601b038716600090815260208190526040902054879060ff166105d457604051630d0ec32b60e31b815260040160405180910390fd5b6105e2888888888888611137565b50635c4c44af60e11b979650505050505050565b60016020819052600091825260409091208054918101546002820154600383015460048401546005850180546001600160a01b03978816979596949562ffffff8516956301000000860465ffffffffffff90811696600160481b9004169491821693600160a01b90920460ff169290919061067090612420565b80601f016020809104026020016040519081016040528092919081815260200182805461069c90612420565b80156106e95780601f106106be576101008083540402835291602001916106e9565b820191906000526020600020905b8154815290600101906020018083116106cc57829003601f168201915b5050505050905089565b6000336001600160a01b037f0000000000000000000000000000000000000000000000000000000000000000161461073e57604051630d0ec32b60e31b815260040160405180910390fd5b6001600160601b038816600090815260208190526040902054889060ff1661077957604051630d0ec32b60e31b815260040160405180910390fd5b61078889898989898989611137565b50637e21ccc160e11b98975050505050505050565b60006107ab82840184612516565b805190915062ffffff1615806107cb57508051620186a062ffffff909116115b1561080857805160405163440e0f3160e01b815262ffffff909116600482015260016024820152620186a060448201526064015b60405180910390fd5b6000816020015165ffffffffffff1660001415806108315750604082015165ffffffffffff1615155b156108dd5761083e611150565b9050806001600160a01b031663caf9278589610862856020015186604001516112a3565b6040518363ffffffff1660e01b815260040161087f929190612610565b602060405180830381865afa15801561089c573d6000803e3d6000fd5b505050506040513d601f19601f820116820180604052508101906108c09190612634565b6108dd576040516328db098b60e01b815260040160405180910390fd5b60608201516001600160a01b0316610908576040516302180d7960e51b815260040160405180910390fd5b60405180610120016040528083606001516001600160a01b0316815260200187815260200160008152602001836000015162ffffff168152602001836020015165ffffffffffff168152602001836040015165ffffffffffff168152602001826001600160a01b031681526020016001151581526020018360800151815250600160008c6001600160601b03166001600160601b0316815260200190815260200160002060008201518160000160006101000a8154816001600160a01b0302191690836001600160a01b03160217905550602082015181600101556040820151816002015560608201518160030160006101000a81548162ffffff021916908362ffffff16021790555060808201518160030160036101000a81548165ffffffffffff021916908365ffffffffffff16021790555060a08201518160030160096101000a81548165ffffffffffff021916908365ffffffffffff16021790555060c08201518160040160006101000a8154816001600160a01b0302191690836001600160a01b0316021790555060e08201518160040160146101000a81548160ff021916908315150217905550610100820151816005019081610acb91906126a0565b50905050610adf8a8a8a8a8a8a8a8a6112eb565b50505050505050505050565b6001600160601b038516600090815260016020818152604080842081516101208101835281546001600160a01b0390811682529482015493810193909352600281015491830191909152600381015462ffffff811660608401526301000000810465ffffffffffff9081166080850152600160481b9091041660a0830152600481015492831660c0830152600160a01b90920460ff16151560e082015260058201805491929161010084019190610ba190612420565b80601f0160208091040260200160405190810160405280929190818152602001828054610bcd90612420565b8015610c1a5780601f10610bef57610100808354040283529160200191610c1a565b820191906000526020600020905b815481529060010190602001808311610bfd57829003601f168201915b505050919092525050604051634f17001d60e11b81526001600160601b038916600482015291925060009182915081906001600160a01b037f00000000000000000000000000000000000000000000000000000000000000001690639e2e003a90602401600060405180830381865afa158015610c9b573d6000803e3d6000fd5b505050506040513d6000823e601f3d908101601f19168201604052610cc39190810190612777565b50505050604089015160208a01519598509396509194506000938493849350839250610cee91612891565b610cfb8c620186a06128a4565b610d0591906128d1565b610d1290620186a06128e5565b9050620186a062ffffff16818960200151610d2d91906128a4565b610d3791906128d1565b915050610d48818860600151611447565b9250610d588b8860600151611447565b6040516370a0823160e01b81526001600160a01b03888116600483015291935060009250908616906370a0823190602401602060405180830381865afa158015610da6573d6000803e3d6000fd5b505050506040513d601f19601f82011682018060405250810190610dca91906128f8565b905082811015610e0e5760405163141b7cb560e21b81526001600160a01b0380871660048301528716602482015260448101849052606481018290526084016107ff565b610e236001600160a01b03861687308661146d565b506000610e6a8c858488878e8e8080601f01602080910402602001604051908101604052809392919081815260200183838082843760009201919091525061150992505050565b6040516370a0823160e01b81523060048201529091506000906001600160a01b038316906370a0823190602401602060405180830381865afa158015610eb4573d6000803e3d6000fd5b505050506040513d601f19601f82011682018060405250810190610ed891906128f8565b60c08901519091506001600160a01b0316156110015760c088015160405163095ea7b360e01b81526001600160a01b039182166004820152602481018390529083169063095ea7b3906044016020604051808303816000875af1158015610f43573d6000803e3d6000fd5b505050506040513d601f19601f82011682018060405250810190610f679190612634565b508760c001516001600160a01b031663e40d88f8896000015184610f938c608001518d60a001516112a3565b8560016040518663ffffffff1660e01b8152600401610fb6959493929190612911565b6060604051808303816000875af1158015610fd5573d6000803e3d6000fd5b505050506040513d601f19601f82011682018060405250810190610ff99190612956565b505050611018565b8751611018906001600160a01b0384169083611a7a565b6040516370a0823160e01b81523060048201526000906001600160a01b038716906370a0823190602401602060405180830381865afa15801561105f573d6000803e3d6000fd5b505050506040513d601f19601f8201168201806040525081019061108391906128f8565b9050801561109f5761109f6001600160a01b0387168983611a7a565b506040516370a0823160e01b81523060048201526000906001600160a01b038816906370a0823190602401602060405180830381865afa1580156110e7573d6000803e3d6000fd5b505050506040513d601f19601f8201168201806040525081019061110b91906128f8565b90508015611127576111276001600160a01b0388168983611a7a565b5050505050505050505050505050565b604051638a8cacbf60e01b815260040160405180910390fd5b604051635bb27aab60e01b8152622624ab60e91b600482018190526000917f00000000000000000000000000000000000000000000000000000000000000009190839081906001600160a01b03851690635bb27aab906024016040805180830381865afa1580156111c5573d6000803e3d6000fd5b505050506040513d601f19601f820116820180604052508101906111e991906129a0565b9150915080806111fa575060ff8216155b1561121857604051633d495ecd60e11b815260040160405180910390fd5b836001600160a01b0316639e55cba36112318585611b01565b6040516001600160e01b031960e084901b1681526001600160c81b03199091166004820152602401602060405180830381865afa158015611276573d6000803e3d6000fd5b505050506040513d601f19601f8201168201806040525081019061129a91906129d7565b94505050505090565b60408051808201825265ffffffffffff848116808352848216602093840190815284519384019190915251168183015281518082038301815260609091019091525b92915050565b60006112f982840184612516565b90506000816080015180602001905181019061131591906129f4565b6002546040516322afcccb60e01b815262ffffff831660048201529192506001600160a01b0316906322afcccb90602401602060405180830381865afa158015611363573d6000803e3d6000fd5b505050506040513d601f19601f820116820180604052508101906113879190612a23565b60020b6000036113aa57604051635a60fc9d60e01b815260040160405180910390fd5b600254604051630b4c774160e11b81526000916001600160a01b031690631698ee82906113df908c908c908790600401612a3e565b602060405180830381865afa1580156113fc573d6000803e3d6000fd5b505050506040513d601f19601f8201168201806040525081019061142091906129d7565b6001600160a01b031614610adf57604051635c4b439f60e01b815260040160405180910390fd5b6000620186a061145c62ffffff8416856128a4565b61146691906128d1565b9392505050565b60006040516323b872dd60e01b81526001600160a01b03851660048201526001600160a01b03841660248201528260448201526020600060648360008a5af13d15601f3d11600160005114161716915050806115025760405162461bcd60e51b81526020600482015260146024820152731514905394d1915497d19493d357d1905253115160621b60448201526064016107ff565b5050505050565b600080828060200190518101906115209190612a66565b6001600160601b03891660009081526001602052604081206005018054929350909161154b90612420565b80601f016020809104026020016040519081016040528092919081815260200182805461157790612420565b80156115c45780601f10611599576101008083540402835291602001916115c4565b820191906000526020600020905b8154815290600101906020018083116115a757829003601f168201915b50505050508060200190518101906115dc91906129f4565b90506001600160a01b038087169089161060006115fb8a898b8a611b90565b90506116218261160b578861160d565b8a5b83611618578b61161a565b895b8584611c2a565b50506002546040516322afcccb60e01b815262ffffff8416600482015260009182916001600160a01b03909116906322afcccb90602401602060405180830381865afa158015611675573d6000803e3d6000fd5b505050506040513d601f19601f820116820180604052508101906116999190612a23565b6003549091506001600160a01b031663a958b895846116b8578a6116ba565b8c5b856116c5578d6116c7565b8b5b87856116d781620d89e719612ab1565b6116e19190612aeb565b86806116f0620d89e719612b12565b6116fa9190612ab1565b6117049190612aeb565b6040516001600160e01b031960e088901b1681526001600160a01b03958616600482015294909316602485015262ffffff9091166044840152600290810b60648401520b608482015260a4016020604051808303816000875af115801561176f573d6000803e3d6000fd5b505050506040513d601f19601f8201168201806040525081019061179391906129d7565b9150819050600080806001600160a01b038416639894f21a876117b6578c6117b8565b8e5b886117c3578f6117c5565b8d5b6040516001600160e01b031960e085901b16815260048101929092526024820152604401606060405180830381865afa158015611806573d6000803e3d6000fd5b505050506040513d601f19601f8201168201806040525081019061182a9190612b34565b92509250925060008661183d578261183f565b835b905060006118518f8b60000151611e8d565b905080821015611896578f8282604051636ad6fa4b60e01b81526004016107ff939291906001600160a01b039390931683526020830191909152604082015260600190565b8f6001600160a01b031663095ea7b388846040518363ffffffff1660e01b81526004016118d89291906001600160a01b03929092168252602082015260400190565b6020604051808303816000875af11580156118f7573d6000803e3d6000fd5b505050506040513d601f19601f8201168201806040525081019061191b9190612634565b50505060008661192b578361192d565b825b9050600061193f8d8b60000151611e8d565b90508082101561197b57604051636ad6fa4b60e01b81526001600160a01b038f16600482015260248101839052604481018290526064016107ff565b60405163095ea7b360e01b81526001600160a01b038881166004830152602482018490528f169063095ea7b3906044016020604051808303816000875af11580156119ca573d6000803e3d6000fd5b505050506040513d601f19601f820116820180604052508101906119ee9190612634565b50506040516394bf804d60e01b8152600481018390523060248201526001600160a01b03861691506394bf804d906044016060604051808303816000875af1158015611a3e573d6000803e3d6000fd5b505050506040513d601f19601f82011682018060405250810190611a629190612b62565b50505050505050809450505050509695505050505050565b600060405163a9059cbb60e01b81526001600160a01b0384166004820152826024820152602060006044836000895af13d15601f3d1160016000511416171691505080611afb5760405162461bcd60e51b815260206004820152600f60248201526e1514905394d1915497d19052531151608a1b60448201526064016107ff565b50505050565b600080611b0f600a84612bb0565b611b1a906030612bd2565b60f81b90506000611b2c600a85612beb565b611b37906030612bd2565b6040516001600160f81b0319808516602083015260f89290921b91821660218201526001600160d81b031987166022820152909150602701604051602081830303815290604052611b8790612c0d565b95945050505050565b6000806000856001600160a01b0316876001600160a01b031610611bb5578385611bb8565b84845b915091506000611bcd82600160c01b85611eec565b90506000611bda82611f9e565b90506001600160a01b03811115611c1e5760405162461bcd60e51b81526020600482015260086024820152676f766572666c6f7760c01b60448201526064016107ff565b98975050505050505050565b6000836001600160a01b0316856001600160a01b031610611c4a57600080fd5b600254604051630b4c774160e11b81526001600160a01b0390911690631698ee8290611c7e90889088908890600401612a3e565b602060405180830381865afa158015611c9b573d6000803e3d6000fd5b505050506040513d601f19601f82011682018060405250810190611cbf91906129d7565b90506001600160a01b038116611daa5760025460405163a167129560e01b81526001600160a01b039091169063a167129590611d0390889088908890600401612a3e565b6020604051808303816000875af1158015611d22573d6000803e3d6000fd5b505050506040513d601f19601f82011682018060405250810190611d4691906129d7565b60405163f637731d60e01b81526001600160a01b0384811660048301529192509082169063f637731d90602401600060405180830381600087803b158015611d8d57600080fd5b505af1158015611da1573d6000803e3d6000fd5b50505050611e85565b6000816001600160a01b0316633850c7bd6040518163ffffffff1660e01b815260040160e060405180830381865afa158015611dea573d6000803e3d6000fd5b505050506040513d601f19601f82011682018060405250810190611e0e9190612c56565b5050505050509050806001600160a01b0316600003611e835760405163f637731d60e01b81526001600160a01b03848116600483015283169063f637731d90602401600060405180830381600087803b158015611e6a57600080fd5b505af1158015611e7e573d6000803e3d6000fd5b505050505b505b949350505050565b6000620186a062ffffff83161115611ecf5760405163440e0f3160e01b815262ffffff8316600482015260006024820152620186a060448201526064016107ff565b620186a0611edd8382612ce2565b61145c9062ffffff16856128a4565b6000808060001985870985870292508281108382030391505080600003611f255760008411611f1a57600080fd5b508290049050611466565b808411611f3157600080fd5b6000848688096000868103871696879004966002600389028118808a02820302808a02820302808a02820302808a02820302808a02820302808a02909103029181900381900460010186841190950394909402919094039290920491909117919091029150509392505050565b60b581600160881b8110611fb75760409190911b9060801c5b600160481b8110611fcd5760209190911b9060401c5b650100000000008110611fe55760109190911b9060201c5b63010000008110611ffb5760089190911b9060101c5b62010000010260121c80820401600190811c80830401811c80830401811c80830401811c80830401811c80830401811c80830401901c908190048111900390565b80356001600160601b038116811461205357600080fd5b919050565b801515811461206657600080fd5b50565b60008083601f84011261207b57600080fd5b5081356001600160401b0381111561209257600080fd5b6020830191508360208285010111156120aa57600080fd5b9250929050565b6000806000806000608086880312156120c957600080fd5b6120d28661203c565b94506020860135935060408601356120e981612058565b925060608601356001600160401b0381111561210457600080fd5b61211088828901612069565b969995985093965092949392505050565b60006020828403121561213357600080fd5b6114668261203c565b6001600160a01b038116811461206657600080fd5b60008060008060008060008060e0898b03121561216d57600080fd5b6121768961203c565b975060208901356121868161213c565b965060408901356121968161213c565b955060608901356121a68161213c565b94506080890135935060a08901356121bd81612058565b925060c08901356001600160401b038111156121d857600080fd5b6121e48b828c01612069565b999c989b5096995094979396929594505050565b60008060008060006080868803121561221057600080fd5b6122198661203c565b9450602086013593506040860135925060608601356001600160401b0381111561210457600080fd5b60008060008060008060a0878903121561225b57600080fd5b6122648761203c565b955060208701356001600160401b03808216821461228157600080fd5b9095506040880135906122938261213c565b90945060608801359350608088013590808211156122b057600080fd5b506122bd89828a01612069565b979a9699509497509295939492505050565b60005b838110156122ea5781810151838201526020016122d2565b50506000910152565b6000815180845261230b8160208601602086016122cf565b601f01601f19169290920160200192915050565b6001600160a01b038a81168252602082018a90526040820189905262ffffff8816606083015265ffffffffffff8781166080840152861660a0830152841660c082015282151560e08201526101206101008201819052600090612384838201856122f3565b9c9b505050505050505050505050565b600080600080600080600060c0888a0312156123af57600080fd5b6123b88861203c565b965060208801356123c88161213c565b9550604088013594506060880135935060808801356123e681612058565b925060a08801356001600160401b0381111561240157600080fd5b61240d8a828b01612069565b989b979a50959850939692959293505050565b600181811c9082168061243457607f821691505b60208210810361245457634e487b7160e01b600052602260045260246000fd5b50919050565b634e487b7160e01b600052604160045260246000fd5b60405160a081016001600160401b03811182821017156124925761249261245a565b60405290565b604051601f8201601f191681016001600160401b03811182821017156124c0576124c061245a565b604052919050565b62ffffff8116811461206657600080fd5b803565ffffffffffff8116811461205357600080fd5b60006001600160401b038211156125085761250861245a565b50601f01601f191660200190565b6000602080838503121561252957600080fd5b82356001600160401b038082111561254057600080fd5b9084019060a0828703121561255457600080fd5b61255c612470565b8235612567816124c8565b81526125748385016124d9565b84820152612584604084016124d9565b604082015260608301356125978161213c565b60608201526080830135828111156125ae57600080fd5b80840193505086601f8401126125c357600080fd5b823591506125d86125d3836124ef565b612498565b82815287858486010111156125ec57600080fd5b82858501868301376000858483010152806080830152508094505050505092915050565b6001600160a01b0383168152604060208201819052600090611e85908301846122f3565b60006020828403121561264657600080fd5b815161146681612058565b601f82111561269b57600081815260208120601f850160051c810160208610156126785750805b601f850160051c820191505b8181101561269757828155600101612684565b5050505b505050565b81516001600160401b038111156126b9576126b961245a565b6126cd816126c78454612420565b84612651565b602080601f83116001811461270257600084156126ea5750858301515b600019600386901b1c1916600185901b178555612697565b600085815260208120601f198616915b8281101561273157888601518255948401946001909101908401612712565b508582101561274f5787850151600019600388901b60f8161c191681555b5050505050600190811b01905550565b80516001600160c81b03198116811461205357600080fd5b60008060008060008060008060006101208a8c03121561279657600080fd5b89516127a18161213c565b60208b01519099506127b28161213c565b60408b01519098506127c38161213c565b96506127d160608b0161275f565b955060808a0151945060a08a01516127e88161213c565b93506127f660c08b0161275f565b925060e08a015161280681612058565b6101008b01519092506001600160401b0381111561282357600080fd5b8a01601f81018c1361283457600080fd5b80516128426125d3826124ef565b8181528d602083850101111561285757600080fd5b6128688260208301602086016122cf565b8093505050509295985092959850929598565b634e487b7160e01b600052601160045260246000fd5b808201808211156112e5576112e561287b565b80820281158282048414176112e5576112e561287b565b634e487b7160e01b600052601260045260246000fd5b6000826128e0576128e06128bb565b500490565b818103818111156112e5576112e561287b565b60006020828403121561290a57600080fd5b5051919050565b6001600160a01b0386811682528516602082015260a06040820181905260009061293d908301866122f3565b6060830194909452509015156080909101529392505050565b60008060006060848603121561296b57600080fd5b83519250602084015161297d8161213c565b80925050604084015190509250925092565b805160ff8116811461205357600080fd5b600080604083850312156129b357600080fd5b6129bc8361298f565b915060208301516129cc81612058565b809150509250929050565b6000602082840312156129e957600080fd5b81516114668161213c565b600060208284031215612a0657600080fd5b8151611466816124c8565b8051600281900b811461205357600080fd5b600060208284031215612a3557600080fd5b61146682612a11565b6001600160a01b03938416815291909216602082015262ffffff909116604082015260600190565b600060208284031215612a7857600080fd5b604051602081018181106001600160401b0382111715612a9a57612a9a61245a565b6040528251612aa8816124c8565b81529392505050565b60008160020b8360020b80612ac857612ac86128bb565b627fffff19821460001982141615612ae257612ae261287b565b90059392505050565b60008260020b8260020b028060020b9150808214612b0b57612b0b61287b565b5092915050565b60008160020b627fffff198103612b2b57612b2b61287b565b60000392915050565b600080600060608486031215612b4957600080fd5b8351925060208401519150604084015190509250925092565b600080600060608486031215612b7757600080fd5b835192506020840151915060408401516fffffffffffffffffffffffffffffffff81168114612ba557600080fd5b809150509250925092565b600060ff831680612bc357612bc36128bb565b8060ff84160491505092915050565b60ff81811683821601908111156112e5576112e561287b565b600060ff831680612bfe57612bfe6128bb565b8060ff84160691505092915050565b805160208201516001600160c81b03198082169291906007831015612c3c5780818460070360031b1b83161693505b505050919050565b805161ffff8116811461205357600080fd5b600080600080600080600060e0888a031215612c7157600080fd5b8751612c7c8161213c565b9650612c8a60208901612a11565b9550612c9860408901612c44565b9450612ca660608901612c44565b9350612cb460808901612c44565b9250612cc260a0890161298f565b915060c0880151612cd281612058565b8091505092959891949750929550565b62ffffff828116828216039080821115612b0b57612b0b61287b56fea2646970667358221220e34b9413cff9c08e0930b32c80d5c4a260f993a4d898cef0b80a614ddb31e06364736f6c63430008130033",
    "linkReferences": {}
  },
  "methodIdentifiers": {
    "AUCTION_HOUSE()": "4226b1bf",
    "LINEAR_VESTING_KEYCODE()": "95fd2ef2",
    "MAX_PERCENT()": "1036bbe2",
    "gUniFactory()": "258f8931",
    "lotConfiguration(uint96)": "d5281219",
    "lotIdRegistered(uint96)": "1cae9eef",
    "onBid(uint96,uint64,address,uint256,bytes)": "b898895e",
    "onCancel(uint96,uint256,bool,bytes)": "a5658c86",
    "onCreate(uint96,address,address,address,uint256,bool,bytes)": "66e74167",
    "onCurate(uint96,uint256,bool,bytes)": "09b9601c",
    "onPurchase(uint96,address,uint256,uint256,bool,bytes)": "fc439982",
    "onSettle(uint96,uint256,uint256,bytes)": "a5b13f69",
    "uniV3Factory()": "705e474b"
  },
  "id": 130
}