{
  "abi": [
    {
      "type": "constructor",
      "inputs": [
        {
          "name": "owner_",
          "type": "address",
          "internalType": "address"
        },
        {
          "name": "permit2_",
          "type": "address",
          "internalType": "address"
        }
      ],
      "stateMutability": "nonpayable"
    },
    {
      "type": "function",
      "name": "auction",
      "inputs": [
        {
          "name": "routing_",
          "type": "tuple",
          "internalType": "struct Auctioneer.RoutingParams",
          "components": [
            {
              "name": "auctionType",
              "type": "bytes5",
              "internalType": "Keycode"
            },
            {
              "name": "baseToken",
              "type": "address",
              "internalType": "contract ERC20"
            },
            {
              "name": "quoteToken",
              "type": "address",
              "internalType": "contract ERC20"
            },
            {
              "name": "curator",
              "type": "address",
              "internalType": "address"
            },
            {
              "name": "hooks",
              "type": "address",
              "internalType": "contract IHooks"
            },
            {
              "name": "allowlist",
              "type": "address",
              "internalType": "contract IAllowlist"
            },
            {
              "name": "allowlistParams",
              "type": "bytes",
              "internalType": "bytes"
            },
            {
              "name": "payoutData",
              "type": "bytes",
              "internalType": "bytes"
            },
            {
              "name": "derivativeType",
              "type": "bytes5",
              "internalType": "Keycode"
            },
            {
              "name": "derivativeParams",
              "type": "bytes",
              "internalType": "bytes"
            }
          ]
        },
        {
          "name": "params_",
          "type": "tuple",
          "internalType": "struct Auction.AuctionParams",
          "components": [
            {
              "name": "start",
              "type": "uint48",
              "internalType": "uint48"
            },
            {
              "name": "duration",
              "type": "uint48",
              "internalType": "uint48"
            },
            {
              "name": "capacityInQuote",
              "type": "bool",
              "internalType": "bool"
            },
            {
              "name": "capacity",
              "type": "uint256",
              "internalType": "uint256"
            },
            {
              "name": "implParams",
              "type": "bytes",
              "internalType": "bytes"
            }
          ]
        }
      ],
      "outputs": [
        {
          "name": "lotId",
          "type": "uint96",
          "internalType": "uint96"
        }
      ],
      "stateMutability": "nonpayable"
    },
    {
      "type": "function",
      "name": "bid",
      "inputs": [
        {
          "name": "params_",
          "type": "tuple",
          "internalType": "struct Router.BidParams",
          "components": [
            {
              "name": "lotId",
              "type": "uint96",
              "internalType": "uint96"
            },
            {
              "name": "recipient",
              "type": "address",
              "internalType": "address"
            },
            {
              "name": "referrer",
              "type": "address",
              "internalType": "address"
            },
            {
              "name": "amount",
              "type": "uint256",
              "internalType": "uint256"
            },
            {
              "name": "auctionData",
              "type": "bytes",
              "internalType": "bytes"
            },
            {
              "name": "allowlistProof",
              "type": "bytes",
              "internalType": "bytes"
            },
            {
              "name": "permit2Data",
              "type": "bytes",
              "internalType": "bytes"
            }
          ]
        }
      ],
      "outputs": [
        {
          "name": "",
          "type": "uint96",
          "internalType": "uint96"
        }
      ],
      "stateMutability": "nonpayable"
    },
    {
      "type": "function",
      "name": "calculateQuoteFees",
      "inputs": [
        {
          "name": "auctionType_",
          "type": "bytes5",
          "internalType": "Keycode"
        },
        {
          "name": "hasReferrer_",
          "type": "bool",
          "internalType": "bool"
        },
        {
          "name": "amount_",
          "type": "uint256",
          "internalType": "uint256"
        }
      ],
      "outputs": [
        {
          "name": "toReferrer",
          "type": "uint256",
          "internalType": "uint256"
        },
        {
          "name": "toProtocol",
          "type": "uint256",
          "internalType": "uint256"
        }
      ],
      "stateMutability": "view"
    },
    {
      "type": "function",
      "name": "cancel",
      "inputs": [
        {
          "name": "lotId_",
          "type": "uint96",
          "internalType": "uint96"
        }
      ],
      "outputs": [],
      "stateMutability": "nonpayable"
    },
    {
      "type": "function",
      "name": "cancelBid",
      "inputs": [
        {
          "name": "lotId_",
          "type": "uint96",
          "internalType": "uint96"
        },
        {
          "name": "bidId_",
          "type": "uint96",
          "internalType": "uint96"
        }
      ],
      "outputs": [],
      "stateMutability": "nonpayable"
    },
    {
      "type": "function",
      "name": "claimModuleGas",
      "inputs": [
        {
          "name": "reference_",
          "type": "bytes7",
          "internalType": "Veecode"
        }
      ],
      "outputs": [],
      "stateMutability": "nonpayable"
    },
    {
      "type": "function",
      "name": "claimRewards",
      "inputs": [
        {
          "name": "token_",
          "type": "address",
          "internalType": "address"
        }
      ],
      "outputs": [],
      "stateMutability": "nonpayable"
    },
    {
      "type": "function",
      "name": "claimYieldAndGas",
      "inputs": [],
      "outputs": [],
      "stateMutability": "nonpayable"
    },
    {
      "type": "function",
      "name": "condensers",
      "inputs": [
        {
          "name": "auctionRef",
          "type": "bytes7",
          "internalType": "Veecode"
        },
        {
          "name": "derivativeRef",
          "type": "bytes7",
          "internalType": "Veecode"
        }
      ],
      "outputs": [
        {
          "name": "condenserRef",
          "type": "bytes7",
          "internalType": "Veecode"
        }
      ],
      "stateMutability": "view"
    },
    {
      "type": "function",
      "name": "curate",
      "inputs": [
        {
          "name": "lotId_",
          "type": "uint96",
          "internalType": "uint96"
        }
      ],
      "outputs": [],
      "stateMutability": "nonpayable"
    },
    {
      "type": "function",
      "name": "execOnModule",
      "inputs": [
        {
          "name": "veecode_",
          "type": "bytes7",
          "internalType": "Veecode"
        },
        {
          "name": "callData_",
          "type": "bytes",
          "internalType": "bytes"
        }
      ],
      "outputs": [
        {
          "name": "",
          "type": "bytes",
          "internalType": "bytes"
        }
      ],
      "stateMutability": "nonpayable"
    },
    {
      "type": "function",
      "name": "fees",
      "inputs": [
        {
          "name": "",
          "type": "bytes5",
          "internalType": "Keycode"
        }
      ],
      "outputs": [
        {
          "name": "protocol",
          "type": "uint48",
          "internalType": "uint48"
        },
        {
          "name": "referrer",
          "type": "uint48",
          "internalType": "uint48"
        },
        {
          "name": "maxCuratorFee",
          "type": "uint48",
          "internalType": "uint48"
        }
      ],
      "stateMutability": "view"
    },
    {
      "type": "function",
      "name": "getModuleForId",
      "inputs": [
        {
          "name": "lotId_",
          "type": "uint96",
          "internalType": "uint96"
        }
      ],
      "outputs": [
        {
          "name": "",
          "type": "address",
          "internalType": "contract AuctionModule"
        }
      ],
      "stateMutability": "view"
    },
    {
      "type": "function",
      "name": "getModuleForVeecode",
      "inputs": [
        {
          "name": "",
          "type": "bytes7",
          "internalType": "Veecode"
        }
      ],
      "outputs": [
        {
          "name": "",
          "type": "address",
          "internalType": "contract Module"
        }
      ],
      "stateMutability": "view"
    },
    {
      "type": "function",
      "name": "getModuleStatus",
      "inputs": [
        {
          "name": "",
          "type": "bytes5",
          "internalType": "Keycode"
        }
      ],
      "outputs": [
        {
          "name": "latestVersion",
          "type": "uint8",
          "internalType": "uint8"
        },
        {
          "name": "sunset",
          "type": "bool",
          "internalType": "bool"
        }
      ],
      "stateMutability": "view"
    },
    {
      "type": "function",
      "name": "installModule",
      "inputs": [
        {
          "name": "newModule_",
          "type": "address",
          "internalType": "contract Module"
        }
      ],
      "outputs": [],
      "stateMutability": "nonpayable"
    },
    {
      "type": "function",
      "name": "isExecOnModule",
      "inputs": [],
      "outputs": [
        {
          "name": "",
          "type": "bool",
          "internalType": "bool"
        }
      ],
      "stateMutability": "view"
    },
    {
      "type": "function",
      "name": "lotCounter",
      "inputs": [],
      "outputs": [
        {
          "name": "",
          "type": "uint96",
          "internalType": "uint96"
        }
      ],
      "stateMutability": "view"
    },
    {
      "type": "function",
      "name": "lotCuration",
      "inputs": [
        {
          "name": "lotId",
          "type": "uint96",
          "internalType": "uint96"
        }
      ],
      "outputs": [
        {
          "name": "curator",
          "type": "address",
          "internalType": "address"
        },
        {
          "name": "curated",
          "type": "bool",
          "internalType": "bool"
        }
      ],
      "stateMutability": "view"
    },
    {
      "type": "function",
      "name": "lotRouting",
      "inputs": [
        {
          "name": "lotId",
          "type": "uint96",
          "internalType": "uint96"
        }
      ],
      "outputs": [
        {
          "name": "auctionReference",
          "type": "bytes7",
          "internalType": "Veecode"
        },
        {
          "name": "owner",
          "type": "address",
          "internalType": "address"
        },
        {
          "name": "baseToken",
          "type": "address",
          "internalType": "contract ERC20"
        },
        {
          "name": "quoteToken",
          "type": "address",
          "internalType": "contract ERC20"
        },
        {
          "name": "hooks",
          "type": "address",
          "internalType": "contract IHooks"
        },
        {
          "name": "allowlist",
          "type": "address",
          "internalType": "contract IAllowlist"
        },
        {
          "name": "derivativeReference",
          "type": "bytes7",
          "internalType": "Veecode"
        },
        {
          "name": "derivativeParams",
          "type": "bytes",
          "internalType": "bytes"
        },
        {
          "name": "wrapDerivative",
          "type": "bool",
          "internalType": "bool"
        },
        {
          "name": "prefunding",
          "type": "uint256",
          "internalType": "uint256"
        }
      ],
      "stateMutability": "view"
    },
    {
      "type": "function",
      "name": "modules",
      "inputs": [
        {
          "name": "",
          "type": "uint256",
          "internalType": "uint256"
        }
      ],
      "outputs": [
        {
          "name": "",
          "type": "bytes5",
          "internalType": "Keycode"
        }
      ],
      "stateMutability": "view"
    },
    {
      "type": "function",
      "name": "modulesCount",
      "inputs": [],
      "outputs": [
        {
          "name": "",
          "type": "uint256",
          "internalType": "uint256"
        }
      ],
      "stateMutability": "view"
    },
    {
      "type": "function",
      "name": "owner",
      "inputs": [],
      "outputs": [
        {
          "name": "",
          "type": "address",
          "internalType": "address"
        }
      ],
      "stateMutability": "view"
    },
    {
      "type": "function",
      "name": "purchase",
      "inputs": [
        {
          "name": "params_",
          "type": "tuple",
          "internalType": "struct Router.PurchaseParams",
          "components": [
            {
              "name": "recipient",
              "type": "address",
              "internalType": "address"
            },
            {
              "name": "referrer",
              "type": "address",
              "internalType": "address"
            },
            {
              "name": "lotId",
              "type": "uint96",
              "internalType": "uint96"
            },
            {
              "name": "amount",
              "type": "uint256",
              "internalType": "uint256"
            },
            {
              "name": "minAmountOut",
              "type": "uint256",
              "internalType": "uint256"
            },
            {
              "name": "auctionData",
              "type": "bytes",
              "internalType": "bytes"
            },
            {
              "name": "allowlistProof",
              "type": "bytes",
              "internalType": "bytes"
            },
            {
              "name": "permit2Data",
              "type": "bytes",
              "internalType": "bytes"
            }
          ]
        }
      ],
      "outputs": [
        {
          "name": "payoutAmount",
          "type": "uint256",
          "internalType": "uint256"
        }
      ],
      "stateMutability": "nonpayable"
    },
    {
      "type": "function",
      "name": "rewards",
      "inputs": [
        {
          "name": "",
          "type": "address",
          "internalType": "address"
        },
        {
          "name": "",
          "type": "address",
          "internalType": "contract ERC20"
        }
      ],
      "outputs": [
        {
          "name": "",
          "type": "uint256",
          "internalType": "uint256"
        }
      ],
      "stateMutability": "view"
    },
    {
      "type": "function",
      "name": "setCondenser",
      "inputs": [
        {
          "name": "auctionRef_",
          "type": "bytes7",
          "internalType": "Veecode"
        },
        {
          "name": "derivativeRef_",
          "type": "bytes7",
          "internalType": "Veecode"
        },
        {
          "name": "condenserRef_",
          "type": "bytes7",
          "internalType": "Veecode"
        }
      ],
      "outputs": [],
      "stateMutability": "nonpayable"
    },
    {
      "type": "function",
      "name": "setCuratorFee",
      "inputs": [
        {
          "name": "auctionType_",
          "type": "bytes5",
          "internalType": "Keycode"
        },
        {
          "name": "fee_",
          "type": "uint48",
          "internalType": "uint48"
        }
      ],
      "outputs": [],
      "stateMutability": "nonpayable"
    },
    {
      "type": "function",
      "name": "setFee",
      "inputs": [
        {
          "name": "auctionType_",
          "type": "bytes5",
          "internalType": "Keycode"
        },
        {
          "name": "type_",
          "type": "uint8",
          "internalType": "enum FeeManager.FeeType"
        },
        {
          "name": "fee_",
          "type": "uint48",
          "internalType": "uint48"
        }
      ],
      "outputs": [],
      "stateMutability": "nonpayable"
    },
    {
      "type": "function",
      "name": "setProtocol",
      "inputs": [
        {
          "name": "protocol_",
          "type": "address",
          "internalType": "address"
        }
      ],
      "outputs": [],
      "stateMutability": "nonpayable"
    },
    {
      "type": "function",
      "name": "settle",
      "inputs": [
        {
          "name": "lotId_",
          "type": "uint96",
          "internalType": "uint96"
        }
      ],
      "outputs": [],
      "stateMutability": "nonpayable"
    },
    {
      "type": "function",
      "name": "sunsetModule",
      "inputs": [
        {
          "name": "keycode_",
          "type": "bytes5",
          "internalType": "Keycode"
        }
      ],
      "outputs": [],
      "stateMutability": "nonpayable"
    },
    {
      "type": "function",
      "name": "transferOwnership",
      "inputs": [
        {
          "name": "newOwner",
          "type": "address",
          "internalType": "address"
        }
      ],
      "outputs": [],
      "stateMutability": "nonpayable"
    },
    {
      "type": "event",
      "name": "AuctionCancelled",
      "inputs": [
        {
          "name": "lotId",
          "type": "uint96",
          "indexed": true,
          "internalType": "uint96"
        },
        {
          "name": "auctionRef",
          "type": "bytes7",
          "indexed": true,
          "internalType": "Veecode"
        }
      ],
      "anonymous": false
    },
    {
      "type": "event",
      "name": "AuctionCreated",
      "inputs": [
        {
          "name": "lotId",
          "type": "uint96",
          "indexed": true,
          "internalType": "uint96"
        },
        {
          "name": "auctionRef",
          "type": "bytes7",
          "indexed": true,
          "internalType": "Veecode"
        },
        {
          "name": "baseToken",
          "type": "address",
          "indexed": false,
          "internalType": "address"
        },
        {
          "name": "quoteToken",
          "type": "address",
          "indexed": false,
          "internalType": "address"
        }
      ],
      "anonymous": false
    },
    {
      "type": "event",
      "name": "Bid",
      "inputs": [
        {
          "name": "lotId",
          "type": "uint96",
          "indexed": true,
          "internalType": "uint96"
        },
        {
          "name": "bidId",
          "type": "uint96",
          "indexed": true,
          "internalType": "uint96"
        },
        {
          "name": "bidder",
          "type": "address",
          "indexed": true,
          "internalType": "address"
        },
        {
          "name": "amount",
          "type": "uint256",
          "indexed": false,
          "internalType": "uint256"
        }
      ],
      "anonymous": false
    },
    {
      "type": "event",
      "name": "CancelBid",
      "inputs": [
        {
          "name": "lotId",
          "type": "uint96",
          "indexed": true,
          "internalType": "uint96"
        },
        {
          "name": "bidId",
          "type": "uint96",
          "indexed": true,
          "internalType": "uint96"
        },
        {
          "name": "bidder",
          "type": "address",
          "indexed": true,
          "internalType": "address"
        }
      ],
      "anonymous": false
    },
    {
      "type": "event",
      "name": "Curated",
      "inputs": [
        {
          "name": "lotId",
          "type": "uint96",
          "indexed": true,
          "internalType": "uint96"
        },
        {
          "name": "curator",
          "type": "address",
          "indexed": true,
          "internalType": "address"
        }
      ],
      "anonymous": false
    },
    {
      "type": "event",
      "name": "ModuleInstalled",
      "inputs": [
        {
          "name": "keycode",
          "type": "bytes5",
          "indexed": true,
          "internalType": "Keycode"
        },
        {
          "name": "version",
          "type": "uint8",
          "indexed": true,
          "internalType": "uint8"
        },
        {
          "name": "location",
          "type": "address",
          "indexed": true,
          "internalType": "address"
        }
      ],
      "anonymous": false
    },
    {
      "type": "event",
      "name": "ModuleSunset",
      "inputs": [
        {
          "name": "keycode",
          "type": "bytes5",
          "indexed": true,
          "internalType": "Keycode"
        }
      ],
      "anonymous": false
    },
    {
      "type": "event",
      "name": "OwnershipTransferred",
      "inputs": [
        {
          "name": "user",
          "type": "address",
          "indexed": true,
          "internalType": "address"
        },
        {
          "name": "newOwner",
          "type": "address",
          "indexed": true,
          "internalType": "address"
        }
      ],
      "anonymous": false
    },
    {
      "type": "event",
      "name": "Purchase",
      "inputs": [
        {
          "name": "lotId",
          "type": "uint96",
          "indexed": true,
          "internalType": "uint96"
        },
        {
          "name": "buyer",
          "type": "address",
          "indexed": true,
          "internalType": "address"
        },
        {
          "name": "referrer",
          "type": "address",
          "indexed": false,
          "internalType": "address"
        },
        {
          "name": "amount",
          "type": "uint256",
          "indexed": false,
          "internalType": "uint256"
        },
        {
          "name": "payout",
          "type": "uint256",
          "indexed": false,
          "internalType": "uint256"
        }
      ],
      "anonymous": false
    },
    {
      "type": "event",
      "name": "Settle",
      "inputs": [
        {
          "name": "lotId",
          "type": "uint96",
          "indexed": true,
          "internalType": "uint96"
        }
      ],
      "anonymous": false
    },
    {
      "type": "error",
      "name": "AmountLessThanMinimum",
      "inputs": []
    },
    {
      "type": "error",
      "name": "Broken_Invariant",
      "inputs": []
    },
    {
      "type": "error",
      "name": "InvalidBidder",
      "inputs": [
        {
          "name": "bidder_",
          "type": "address",
          "internalType": "address"
        }
      ]
    },
    {
      "type": "error",
      "name": "InvalidFee",
      "inputs": []
    },
    {
      "type": "error",
      "name": "InvalidHook",
      "inputs": []
    },
    {
      "type": "error",
      "name": "InvalidLotId",
      "inputs": [
        {
          "name": "id_",
          "type": "uint96",
          "internalType": "uint96"
        }
      ]
    },
    {
      "type": "error",
      "name": "InvalidModuleInstall",
      "inputs": [
        {
          "name": "keycode_",
          "type": "bytes5",
          "internalType": "Keycode"
        },
        {
          "name": "version_",
          "type": "uint8",
          "internalType": "uint8"
        }
      ]
    },
    {
      "type": "error",
      "name": "InvalidParams",
      "inputs": []
    },
    {
      "type": "error",
      "name": "InvalidState",
      "inputs": []
    },
    {
      "type": "error",
      "name": "InvalidVeecode",
      "inputs": [
        {
          "name": "veecode_",
          "type": "bytes7",
          "internalType": "Veecode"
        }
      ]
    },
    {
      "type": "error",
      "name": "ModuleAlreadySunset",
      "inputs": [
        {
          "name": "keycode_",
          "type": "bytes5",
          "internalType": "Keycode"
        }
      ]
    },
    {
      "type": "error",
      "name": "ModuleExecutionReverted",
      "inputs": [
        {
          "name": "error_",
          "type": "bytes",
          "internalType": "bytes"
        }
      ]
    },
    {
      "type": "error",
      "name": "ModuleFunctionInvalid",
      "inputs": [
        {
          "name": "function_",
          "type": "bytes4",
          "internalType": "bytes4"
        }
      ]
    },
    {
      "type": "error",
      "name": "ModuleIsSunset",
      "inputs": [
        {
          "name": "keycode_",
          "type": "bytes5",
          "internalType": "Keycode"
        }
      ]
    },
    {
      "type": "error",
      "name": "ModuleNotInstalled",
      "inputs": [
        {
          "name": "keycode_",
          "type": "bytes5",
          "internalType": "Keycode"
        },
        {
          "name": "version_",
          "type": "uint8",
          "internalType": "uint8"
        }
      ]
    },
    {
      "type": "error",
      "name": "NotPermitted",
      "inputs": [
        {
          "name": "caller_",
          "type": "address",
          "internalType": "address"
        }
      ]
    },
    {
      "type": "error",
      "name": "TargetNotAContract",
      "inputs": [
        {
          "name": "target_",
          "type": "address",
          "internalType": "address"
        }
      ]
    }
  ],
  "bytecode": {
    "object": "0x60a060405260016006553480156200001657600080fd5b50604051620062a9380380620062a9833981016040819052620000399162000235565b600080546001600160a01b031916339081178255604051849284928492909182918291907f8be0079c531659141344cd1fd0a4f28419497f9722a3daafe3b4186f6b6457e0908290a35050600b80546001600160a01b0319166001600160a01b039283161790551660805250604051631a33757d60e01b815273420000000000000000000000000000000000002390631a33757d90620000df906002906004016200026d565b6020604051808303816000875af1158015620000ff573d6000803e3d6000fd5b505050506040513d601f19601f8201168201806040525081019062000125919062000296565b50604051631a33757d60e01b815273420000000000000000000000000000000000002290631a33757d9062000160906002906004016200026d565b6020604051808303816000875af115801562000180573d6000803e3d6000fd5b505050506040513d601f19601f82011682018060405250810190620001a6919062000296565b507343000000000000000000000000000000000000026001600160a01b0316634e606c476040518163ffffffff1660e01b8152600401600060405180830381600087803b158015620001f757600080fd5b505af11580156200020c573d6000803e3d6000fd5b505050505050620002b0565b80516001600160a01b03811681146200023057600080fd5b919050565b600080604083850312156200024957600080fd5b620002548362000218565b9150620002646020840162000218565b90509250929050565b60208101600383106200029057634e487b7160e01b600052602160045260246000fd5b91905290565b600060208284031215620002a957600080fd5b5051919050565b608051615fdd620002cc60003960006141560152615fdd6000f3fe608060405234801561001057600080fd5b50600436106101f05760003560e01c80639e2e003a1161010f578063c74c149b116100a2578063f2fde38b11610071578063f2fde38b14610593578063f315aafe146105a6578063f4b26181146105af578063fb9d3cb6146105ea57600080fd5b8063c74c149b1461052f578063c75519ba14610542578063e70b9e2714610555578063ef5cfb8c1461058057600080fd5b8063a782e524116100de578063a782e524146104d5578063bc17699c146104e8578063c1cf8c7f146104fb578063c4ce88fd1461051c57600080fd5b80639e2e003a1461041c5780639e55cba314610445578063a249a5091461046e578063a50076f7146104c257600080fd5b8063528c410d116101875780637eb1e761116101565780637eb1e7611461039f57806381b2248a146103b25780638da5cb5b146103de5780638eae82351461040957600080fd5b8063528c410d146103175780635bb27aab1461032a5780635c774ed71461036f5780637249c0d51461038c57600080fd5b806338ec8b42116101c357806338ec8b421461029c5780633eee0963146102a45780634bcbd88b146102cf57806350ab0489146102f757600080fd5b80630a9d793d146101f557806320b15fe41461020a5780632e7cf7561461021d57806331d72d6b14610230575b600080fd5b610208610203366004614cfa565b6105fd565b005b610208610218366004614d34565b610652565b61020861022b366004614d9f565b61087d565b61026e61023e366004614df0565b600c6020526000908152604090205465ffffffffffff80821691600160301b8104821691600160601b9091041683565b6040805165ffffffffffff948516815292841660208401529216918101919091526060015b60405180910390f35b610208610a11565b6102b76102b2366004614e0b565b610c69565b6040516001600160601b039091168152602001610293565b6102e26102dd366004614e81565b6118e8565b60408051928352602083019190915201610293565b61030a610305366004614ec0565b6119be565b6040516102939190614f94565b6102b76103253660046150d7565b611a9d565b610356610338366004614df0565b60046020526000908152604090205460ff8082169161010090041682565b6040805160ff9093168352901515602083015201610293565b60055461037c9060ff1681565b6040519015158152602001610293565b61020861039a3660046151dc565b611df8565b6102086103ad366004614cfa565b611e8b565b6103c56103c0366004615208565b612108565b6040516001600160d81b03199091168152602001610293565b6000546103f1906001600160a01b031681565b6040516001600160a01b039091168152602001610293565b610208610417366004615221565b61213f565b61042f61042a366004615221565b61232d565b6040516102939a9998979695949392919061523e565b6103f16104533660046152b7565b6003602052600090815260409020546001600160a01b031681565b6104a361047c366004615221565b6009602052600090815260409020546001600160a01b03811690600160a01b900460ff1682565b604080516001600160a01b039093168352901515602083015201610293565b6103f16104d0366004615221565b612428565b6102086104e3366004615221565b61245e565b6102086104f63660046152b7565b612791565b61050e6105093660046152d4565b61281f565b604051908152602001610293565b6007546102b7906001600160601b031681565b61020861053d3660046153d0565b612ed8565b610208610550366004614df0565b61302e565b61050e610563366004615412565b600d60209081526000928352604080842090915290825290205481565b61020861058e366004614cfa565b61312a565b6102086105a1366004614cfa565b6131f3565b61050e60025481565b6105dd6105bd366004615440565b600a60209081526000928352604080842090915290825290205460c81b81565b604051610293919061546e565b6102086105f8366004615221565b613268565b6000546001600160a01b031633146106305760405162461bcd60e51b815260040161062790615483565b60405180910390fd5b600b80546001600160a01b0319166001600160a01b0392909216919091179055565b6000546001600160a01b0316331461067c5760405162461bcd60e51b815260040161062790615483565b600061068784613e5c565b6001600160a01b031663bb24fe8a6040518163ffffffff1660e01b8152600401602060405180830381865afa1580156106c4573d6000803e3d6000fd5b505050506040513d601f19601f820116820180604052508101906106e891906154bf565b60038111156106f9576106f96154a9565b1415806107815750600161070c83613e5c565b6001600160a01b031663bb24fe8a6040518163ffffffff1660e01b8152600401602060405180830381865afa158015610749573d6000803e3d6000fd5b505050506040513d601f19601f8201168201806040525081019061076d91906154bf565b600381111561077e5761077e6154a9565b14155b8061081b57506001600160c81b031981161580159061081b575060026107a682613e5c565b6001600160a01b031663bb24fe8a6040518163ffffffff1660e01b8152600401602060405180830381865afa1580156107e3573d6000803e3d6000fd5b505050506040513d601f19601f8201168201806040525081019061080791906154bf565b6003811115610818576108186154a9565b14155b1561083957604051635435b28960e11b815260040160405180910390fd5b6001600160c81b03199283166000908152600a6020908152604080832094909516825292909252919020805466ffffffffffffff191660c89290921c919091179055565b60065460011461089f5760405162461bcd60e51b8152600401610627906154e0565b60026006556108ad82613eb1565b60006108b883612428565b604051631c444d1160e01b81526001600160601b038086166004830152841660248201523360448201526001600160a01b039190911690631c444d11906064016020604051808303816000875af1158015610917573d6000803e3d6000fd5b505050506040513d601f19601f8201168201806040525081019061093b9190615504565b6001600160601b03841660009081526008602052604080822060020154905163636c380360e01b815292935073__$edb40677ae687b89a8312a1af66086cd07$__9263636c38039261099d926001600160a01b0316913391879160040161551d565b60006040518083038186803b1580156109b557600080fd5b505af41580156109c9573d6000803e3d6000fd5b50506040513392506001600160601b0380861692508616907fff02eebda35c8729d8a31e22ba8f3123968ce835b27f7ea8e9c42de48ec6f28e90600090a45050600160065550565b600b5460405163e12f3a6160e01b81523060048201526023602160991b019163aad3ec96916001600160a01b0390911690839063e12f3a6190602401602060405180830381865afa158015610a6a573d6000803e3d6000fd5b505050506040513d601f19601f82011682018060405250810190610a8e9190615504565b6040516001600160e01b031960e085901b1681526001600160a01b03909216600483015260248201526044016020604051808303816000875af1158015610ad9573d6000803e3d6000fd5b505050506040513d601f19601f82011682018060405250810190610afd9190615504565b50600b5460405163e12f3a6160e01b81523060048201526022602160991b019163aad3ec96916001600160a01b0390911690839063e12f3a6190602401602060405180830381865afa158015610b57573d6000803e3d6000fd5b505050506040513d601f19601f82011682018060405250810190610b7b9190615504565b6040516001600160e01b031960e085901b1681526001600160a01b03909216600483015260248201526044016020604051808303816000875af1158015610bc6573d6000803e3d6000fd5b505050506040513d601f19601f82011682018060405250810190610bea9190615504565b50600b5460405163662aa11d60e01b81523060048201526001600160a01b0390911660248201526002604360981b019063662aa11d906044016020604051808303816000875af1158015610c42573d6000803e3d6000fd5b505050506040513d601f19601f82011682018060405250810190610c669190615504565b50565b6000600654600114610c8d5760405162461bcd60e51b8152600401610627906154e0565b60026006556000610ca9610ca46020860186614df0565b613f3c565b90506000816001600160a01b031663d61735ca6040518163ffffffff1660e01b8152600401602060405180830381865afa158015610ceb573d6000803e3d6000fd5b505050506040513d601f19601f82011682018060405250810190610d0f9190615546565b90506000826001600160a01b031663bb24fe8a6040518163ffffffff1660e01b8152600401602060405180830381865afa158015610d51573d6000803e3d6000fd5b505050506040513d601f19601f82011682018060405250810190610d7591906154bf565b6003811115610d8657610d866154a9565b14610da457604051635435b28960e11b815260040160405180910390fd5b6000610db66040870160208801614cfa565b6001600160a01b03161480610de357506000610dd86060870160408801614cfa565b6001600160a01b0316145b15610e0157604051635435b28960e11b815260040160405180910390fd5b6000610e136040870160208801614cfa565b6001600160a01b031663313ce5676040518163ffffffff1660e01b8152600401602060405180830381865afa158015610e50573d6000803e3d6000fd5b505050506040513d601f19601f82011682018060405250810190610e749190615563565b90506000610e886060880160408901614cfa565b6001600160a01b031663313ce5676040518163ffffffff1660e01b8152600401602060405180830381865afa158015610ec5573d6000803e3d6000fd5b505050506040513d601f19601f82011682018060405250810190610ee99190615563565b905060068260ff161080610f00575060128260ff16115b80610f0e575060068160ff16105b80610f1c575060128160ff16115b15610f3a57604051635435b28960e11b815260040160405180910390fd5b600780546001600160601b0316906000610f538361559c565b91906101000a8154816001600160601b0302191690836001600160601b031602179055509450600080856001600160a01b031663bae96bdd888a86886040518563ffffffff1660e01b8152600401610fae94939291906155eb565b60408051808303816000875af1158015610fcc573d6000803e3d6000fd5b505050506040513d601f19601f82011682018060405250810190610ff091906156c9565b6001600160601b0389166000908152600860209081526040918290208054600160381b33026001600160d81b031990911660c88c901c1717815593955091935061103f91908c01908c01614cfa565b6001820180546001600160a01b0319166001600160a01b039290921691909117905561107160608b0160408c01614cfa565b6002820180546001600160a01b0319166001600160a01b03929092169190911790556001600160601b03881660009081526009602052604090206110bb60808c0160608d01614cfa565b81546001600160a81b0319166001600160a01b039190911617905560006110f06110ed6101208d016101008e01614df0565b90565b6001600160d81b03191614611308576000611116610ca46101208d016101008e01614df0565b90506000816001600160a01b031663d61735ca6040518163ffffffff1660e01b8152600401602060405180830381865afa158015611158573d6000803e3d6000fd5b505050506040513d601f19601f8201168201806040525081019061117c9190615546565b90506001826001600160a01b031663bb24fe8a6040518163ffffffff1660e01b8152600401602060405180830381865afa1580156111be573d6000803e3d6000fd5b505050506040513d601f19601f820116820180604052508101906111e291906154bf565b60038111156111f3576111f36154a9565b1461121157604051635435b28960e11b815260040160405180910390fd5b816001600160a01b031663caf927858460010160009054906101000a90046001600160a01b03168e80610120019061124991906156f7565b6040518463ffffffff1660e01b815260040161126793929190615744565b602060405180830381865afa158015611284573d6000803e3d6000fd5b505050506040513d601f19601f820116820180604052508101906112a89190615769565b6112c557604051635435b28960e11b815260040160405180910390fd5b60048301805466ffffffffffffff60a01b1916600160a01b60c884901c021790556112f46101208d018d6156f7565b600585019161130491908361580e565b5050505b6001600160c81b03198681166000908152600a602090815260408083206004860154600160a01b900460c890811b86168552925290912054901b9081161561144557600261135582613e5c565b6001600160a01b031663bb24fe8a6040518163ffffffff1660e01b8152600401602060405180830381865afa158015611392573d6000803e3d6000fd5b505050506040513d601f19601f820116820180604052508101906113b691906154bf565b60038111156113c7576113c76154a9565b146113e557604051635435b28960e11b815260040160405180910390fd5b60006113f082614005565b6001600160d81b03198116600090815260046020526040902054909150610100900460ff1615156001036114435760405163ae05d58960e01b81526001600160d81b031982166004820152602401610627565b505b50600061145860c08c0160a08d01614cfa565b6001600160a01b0316146115505761147660c08b0160a08c01614cfa565b6001600160a01b03163b6000036114a057604051635435b28960e11b815260040160405180910390fd5b6114b060c08b0160a08c01614cfa565b6001600160a01b03166344d799f3896114cc60c08e018e6156f7565b6040518463ffffffff1660e01b81526004016114ea939291906158cd565b600060405180830381600087803b15801561150457600080fd5b505af1158015611518573d6000803e3d6000fd5b5061152d9250505060c08b0160a08c01614cfa565b6004820180546001600160a01b0319166001600160a01b03929092169190911790555b600061156260a08c0160808d01614cfa565b6001600160a01b0316146115dd5761158060a08b0160808c01614cfa565b6001600160a01b03163b6000036115aa57604051635435b28960e11b815260040160405180910390fd5b6115ba60a08b0160808c01614cfa565b6003820180546001600160a01b0319166001600160a01b03929092169190911790555b821515600103611859576115f760608a0160408b016158f0565b1561161557604051635435b28960e11b815260040160405180910390fd5b60078101829055600061162e60a08c0160808d01614cfa565b6001600160a01b0316146117d957600061164e60408c0160208d01614cfa565b6040516370a0823160e01b81523060048201526001600160a01b0391909116906370a0823190602401602060405180830381865afa158015611694573d6000803e3d6000fd5b505050506040513d601f19601f820116820180604052508101906116b89190615504565b90506116ca60a08c0160808d01614cfa565b60405163e5e3f46560e01b81526001600160601b038b1660048201526001600160a01b03919091169063e5e3f46590602401600060405180830381600087803b15801561171657600080fd5b505af115801561172a573d6000803e3d6000fd5b50505050828161173a919061590d565b61174a60408d0160208e01614cfa565b6040516370a0823160e01b81523060048201526001600160a01b0391909116906370a0823190602401602060405180830381865afa158015611790573d6000803e3d6000fd5b505050506040513d601f19601f820116820180604052508101906117b49190615504565b10156117d357604051639c9d882360e01b815260040160405180910390fd5b50611859565b73__$edb40677ae687b89a8312a1af66086cd07$__63bc0dbc9961180360408d0160208e01614cfa565b33308660016040518663ffffffff1660e01b8152600401611828959493929190615920565b60006040518083038186803b15801561184057600080fd5b505af4158015611854573d6000803e3d6000fd5b505050505b6001600160c81b031986166001600160601b0389167f84b880d9e409391876717d471eb2c3cc52c3b2272ce9171f3a1340f2eba7b97961189f60408e0160208f01614cfa565b8d60400160208101906118b29190614cfa565b604080516001600160a01b0393841681529290911660208301520160405180910390a35050600160065550939695505050505050565b6001600160d81b031983166000908152600c6020526040812054819065ffffffffffff168415611992576001600160d81b031986166000908152600c6020526040902054600160301b900465ffffffffffff16620186a06119498287615954565b6119539190615981565b935083620186a06119648385615995565b6119769065ffffffffffff1688615954565b6119809190615981565b61198a91906159bb565b9250506119b5565b620186a06119a865ffffffffffff831686615954565b6119b29190615981565b91505b50935093915050565b6000546060906001600160a01b031633146119eb5760405162461bcd60e51b815260040161062790615483565b6005805460ff191660011790556000611a0385613e5c565b9050600080826001600160a01b03168686604051611a229291906159ce565b6000604051808303816000865af19150503d8060008114611a5f576040519150601f19603f3d011682016040523d82523d6000602084013e611a64565b606091505b509150915081611a895780604051635d94b9cd60e01b81526004016106279190614f94565b6005805460ff191690559695505050505050565b6000600654600114611ac15760405162461bcd60e51b8152600401610627906154e0565b60026006558151611ad190613eb1565b81516001600160601b0316600090815260086020908152604080832081516101408101835281546001600160c81b031960c882811b821684526001600160a01b03600160381b9093048316968401969096526001840154821694830194909452600283015481166060830152600383015481166080830152600483015490811660a0830152600160a01b900490931b90911660c083015260058101805460e084019190611b7d90615786565b80601f0160208091040260200160405190810160405280929190818152602001828054611ba990615786565b8015611bf65780601f10611bcb57610100808354040283529160200191611bf6565b820191906000526020600020905b815481529060010190602001808311611bd957829003601f168201915b5050509183525050600682015460ff161515602082015260079091015460409091015260a080820151855191860151929350611c36929091903390614019565b611c5557604051632aaf132360e11b8152336004820152602401610627565b6000611c648460000151612428565b6001600160a01b03166356ab110b8560000151338760200151886040015189606001518a608001516040518763ffffffff1660e01b8152600401611cad969594939291906159de565b6020604051808303816000875af1158015611ccc573d6000803e3d6000fd5b505050506040513d601f19601f82011682018060405250810190611cf09190615a34565b845160608087015190850151608086015160c0890151604051635c2fc75360e01b8152959650611d8d9573__$edb40677ae687b89a8312a1af66086cd07$__91635c2fc75391611d439190600401614f94565b600060405180830381865af4158015611d60573d6000803e3d6000fd5b505050506040513d6000823e601f3d908101601f19168201604052611d889190810190615a96565b6140ad565b336001600160a01b0316816001600160601b031685600001516001600160601b03167fa2e7ed6065b3a19c5ea6dce1c2f7a8933195d54aa91cee19103be6655cc3bcf88760600151604051611de491815260200190565b60405180910390a460016006559392505050565b6001600160d81b031982166000908152600c602052604090205465ffffffffffff600160601b90910481169082161115611e45576040516358d620b360e01b815260040160405180910390fd5b6001600160d81b0319919091166000908152600c602090815260408083203384526001019091529020805465ffffffffffff191665ffffffffffff909216919091179055565b6000546001600160a01b03163314611eb55760405162461bcd60e51b815260040161062790615483565b611ebe816141c0565b6000816001600160a01b031663d61735ca6040518163ffffffff1660e01b8152600401602060405180830381865afa158015611efe573d6000803e3d6000fd5b505050506040513d601f19601f82011682018060405250810190611f229190615546565b9050611f2d816141f6565b600080611f398361435c565b6001600160d81b031982166000908152600460205260409020805492945090925090611f699060ff166001615b35565b60ff168260ff1614611f92578282604051635820a91160e01b8152600401610627929190615b4e565b805460ff191660ff8381169190911780835561010090041615611fb957805461ff00191681555b6001600160c81b03198416600090815260036020526040902080546001600160a01b0319166001600160a01b03871617905560ff8216600019016120695760018054808201825560009182527fb10e2d527612073b26eecdfd717e6a320cf44b4afac2b0732d9fcbe2b7fa0cf6600680830491909101805464ffffffffff929093066005026101000a9182021990921660d887901c91909102179055600280549161206383615b6b565b91905055505b846001600160a01b031663ea6439146040518163ffffffff1660e01b8152600401600060405180830381600087803b1580156120a457600080fd5b505af11580156120b8573d6000803e3d6000fd5b50506040516001600160a01b038816925060ff851691506001600160d81b03198616907f9d59a7f92873a37532afecac87d9ae2e0571c04f7cfe13ace6f38209dd1acd1c90600090a45050505050565b6001818154811061211857600080fd5b9060005260206000209060069182820401919006600502915054906101000a900460d81b81565b6006546001146121615760405162461bcd60e51b8152600401610627906154e0565b600260065561216f81613eb1565b6001600160601b03811660009081526008602052604090208054600160381b90046001600160a01b031633146121ba576040516319b1d90760e31b8152336004820152602401610627565b6121c382612428565b60405163b04046df60e01b81526001600160601b03841660048201526001600160a01b03919091169063b04046df90602401600060405180830381600087803b15801561220f57600080fd5b505af1158015612223573d6000803e3d6000fd5b505050506007810154156122dd576007808201546001600160601b03841660009081526008602052604080822090930181905560018401548454935163636c380360e01b8152929373__$edb40677ae687b89a8312a1af66086cd07$__9363636c3803936122ab936001600160a01b0390811693600160381b9004169187919060040161551d565b60006040518083038186803b1580156122c357600080fd5b505af41580156122d7573d6000803e3d6000fd5b50505050505b805460405160c89190911b6001600160c81b031916906001600160601b038416907f2c784826e62ed5cac07a5ebe66734ece0cdc7ee0559b21b59d1434a64e07ec8290600090a350506001600655565b60086020526000908152604090208054600182015460028301546003840154600485015460058601805460c887811b986001600160a01b03600160381b909904891698978816979687169695861695851694600160a01b900490911b92909161239590615786565b80601f01602080910402602001604051908101604052809291908181526020018280546123c190615786565b801561240e5780601f106123e35761010080835404028352916020019161240e565b820191906000526020600020905b8154815290600101906020018083116123f157829003601f168201915b505050506006830154600790930154919260ff169190508a565b600061243382613eb1565b6001600160601b0382166000908152600860205260409020546124589060c81b613e5c565b92915050565b6006546001146124805760405162461bcd60e51b8152600401610627906154e0565b600260065561248e81613eb1565b6001600160601b0381166000908152600860209081526040808320600990925282208154919290916124c29060c81b614005565b82549091506001600160a01b031633146124f1576040516319b1d90760e31b8152336004820152602401610627565b8154600160a01b900460ff161561251b5760405163baf3f0f760e01b815260040160405180910390fd5b600061252685612428565b604051630385592160e01b81526001600160601b03871660048201529091506001600160a01b03821690630385592190602401602060405180830381865afa158015612576573d6000803e3d6000fd5b505050506040513d601f19601f8201168201806040525081019061259a9190615769565b15156001036125bc5760405163baf3f0f760e01b815260040160405180910390fd5b6001600160d81b031982166000908152600c6020908152604080832033845260010190915281205465ffffffffffff16900361260b576040516358d620b360e01b815260040160405180910390fd5b825460ff60a01b1916600160a01b17835560078401541561274f5760405163ace54da560e01b81526001600160601b03861660048201526000906126a790849033906001600160a01b0386169063ace54da590602401602060405180830381865afa15801561267e573d6000803e3d6000fd5b505050506040513d601f19601f820116820180604052508101906126a29190615504565b61443f565b9050808560070160008282546126bd919061590d565b90915550506001850154855460405163bc0dbc9960e01b815273__$edb40677ae687b89a8312a1af66086cd07$__9263bc0dbc999261271d926001600160a01b0392831692600160381b9092049091169030908790600090600401615920565b60006040518083038186803b15801561273557600080fd5b505af4158015612749573d6000803e3d6000fd5b50505050505b60405133906001600160601b038716907f0cbe7341c5c56a21e107668323c3c414bcd506f3615ea1115f86dd4df173691490600090a350506001600655505050565b6002604360981b0163662aa11d6127a783613e5c565b600b5460405160e084901b6001600160e01b03191681526001600160a01b039283166004820152911660248201526044016020604051808303816000875af11580156127f7573d6000803e3d6000fd5b505050506040513d601f19601f8201168201806040525081019061281b9190615504565b5050565b60006006546001146128435760405162461bcd60e51b8152600401610627906154e0565b6002600655604082015161285690613eb1565b604080830180516001600160601b031660009081526008602052919091206004810154915160c0850151919261289a926001600160a01b0390911691903390614019565b6128b957604051632aaf132360e11b8152336004820152602401610627565b80546000906128fb906128ce9060c81b614005565b6020860151845460028601546060890151600160381b9092046001600160a01b0390811692911690614491565b846060015161290a91906159bb565b9050606061291b8560400151612428565b6001600160a01b03166376103c8f8660400151848860a001516040518463ffffffff1660e01b815260040161295293929190615b84565b6000604051808303816000875af1158015612971573d6000803e3d6000fd5b505050506040513d6000823e601f3d908101601f191682016040526129999190810190615bac565b608087015191955091508410156129c35760405163758342a760e01b815260040160405180910390fd5b60408581015160608701516002860154600387015460e08a01519451635c2fc75360e01b8152612a25956001600160a01b03938416939092169173__$edb40677ae687b89a8312a1af66086cd07$__91635c2fc75391611d4391600401614f94565b825460028401546003850154612a54926001600160a01b03600160381b9091048116928692908216911661456f565b6040858101516001600160601b0316600090815260096020529081208054909190600160a01b900460ff1615612aaa578454612aa790612a969060c81b614005565b83546001600160a01b03168861443f565b90505b6040870151612bf19085612abe848a61590d565b60408051610140810182528a546001600160c81b031960c882811b821684526001600160a01b03600160381b9093048316602085015260018e015483169484019490945260028d01548216606084015260038d01548216608084015260048d015491821660a0840152600160a01b90910490921b90911660c082015260058a0180548b9160e0840191612b5090615786565b80601f0160208091040260200160405190810160405280929190818152602001828054612b7c90615786565b8015612bc95780601f10612b9e57610100808354040283529160200191612bc9565b820191906000526020600020905b815481529060010190602001808311612bac57829003601f168201915b5050509183525050600682015460ff16151560208201526007909101546040909101526145f9565b600785015415612c2c578585600701541015612c2057604051633a196e0960e21b815260040160405180910390fd5b60078501805487900390555b604080880151885182516101408101845288546001600160c81b031960c882811b821684526001600160a01b03600160381b9093048316602085015260018c015483169684019690965260028b01548216606084015260038b01548216608084015260048b015491821660a0840152600160a01b90910490941b90931660c0840152600588018054612d6e948b9290918b9160e0840191612ccc90615786565b80601f0160208091040260200160405190810160405280929190818152602001828054612cf890615786565b8015612d455780601f10612d1a57610100808354040283529160200191612d45565b820191906000526020600020905b815481529060010190602001808311612d2857829003601f168201915b5050509183525050600682015460ff1615156020820152600790910154604090910152876147e4565b8015612e5157600785015415612daf578085600701541015612da357604051633a196e0960e21b815260040160405180910390fd5b60078501805482900390555b604080880151835482516101408101845288546001600160c81b031960c882811b82168452600160381b9092046001600160a01b03908116602085015260018c015481169684019690965260028b01548616606084015260038b01548616608084015260048b015480871660a0850152600160a01b900490911b1660c0820152600589018054612e5195909316928692918b9160e084019190612ccc90615786565b336001600160a01b031687604001516001600160601b03167f5c53cd94df0c7e2bcd10a80f475d04aef0e489425aff9687e49f92454b40401489602001518a606001518a604051612ec0939291906001600160a01b039390931683526020830191909152604082015260600190565b60405180910390a35050600160065550919392505050565b6000546001600160a01b03163314612f025760405162461bcd60e51b815260040161062790615483565b620186a065ffffffffffff82161115612f2e576040516358d620b360e01b815260040160405180910390fd5b6000826002811115612f4257612f426154a9565b03612f7c576001600160d81b031983166000908152600c60205260409020805465ffffffffffff191665ffffffffffff8316179055505050565b6001826002811115612f9057612f906154a9565b03612fd6576001600160d81b031983166000908152600c6020526040902080546bffffffffffff0000000000001916600160301b65ffffffffffff841602179055505050565b6002826002811115612fea57612fea6154a9565b03613029576001600160d81b031983166000908152600c60205260409020805465ffffffffffff60601b1916600160601b65ffffffffffff8416021790555b505050565b6000546001600160a01b031633146130585760405162461bcd60e51b815260040161062790615483565b6001600160d81b0319811660009081526004602052604090205460ff166130975780600060405163def1560160e01b8152600401610627929190615b4e565b6001600160d81b0319811660009081526004602052604090208054610100900460ff16156130e45760405163271614df60e21b81526001600160d81b031983166004820152602401610627565b805461ff0019166101001781556040516001600160d81b03198316907fa967d5160f4efeca6ce587658357cfe54cbe547c6945ddf21a06ac712216942a90600090a25050565b60065460011461314c5760405162461bcd60e51b8152600401610627906154e0565b6002600655336000818152600d602090815260408083206001600160a01b0386168452909152808220805490839055905163636c380360e01b81528493919273__$edb40677ae687b89a8312a1af66086cd07$__9263636c3803926131b99287929187919060040161551d565b60006040518083038186803b1580156131d157600080fd5b505af41580156131e5573d6000803e3d6000fd5b505060016006555050505050565b6000546001600160a01b0316331461321d5760405162461bcd60e51b815260040161062790615483565b600080546001600160a01b0319166001600160a01b0383169081178255604051909133917f8be0079c531659141344cd1fd0a4f28419497f9722a3daafe3b4186f6b6457e09190a350565b60065460011461328a5760405162461bcd60e51b8152600401610627906154e0565b600260065561329881613eb1565b60006132a382612428565b60405163ace54da560e01b81526001600160601b03841660048201529091506000906001600160a01b0383169063ace54da590602401602060405180830381865afa1580156132f6573d6000803e3d6000fd5b505050506040513d601f19601f8201168201806040525081019061331a9190615504565b604051637dce9e5b60e11b81526001600160601b038516600482015290915060009081906001600160a01b0385169063fb9d3cb6906024016000604051808303816000875af1158015613371573d6000803e3d6000fd5b505050506040513d6000823e601f3d908101601f191682016040526133999190810190615bf2565b6001600160601b0387166000908152600860205260408120835193955091935090918190869081835b8281101561356d5760008982815181106133de576133de615d57565b60200260200101516080015190506001846133f991906159bb565b8214801561340657508281115b1561353657828a838151811061341e5761341e615d57565b60209081029190910101516080015260008161344285670de0b6b3a7640000615954565b61344c9190615981565b61345e90670de0b6b3a76400006159bb565b90506000670de0b6b3a7640000828d868151811061347e5761347e615d57565b6020026020010151606001516134949190615954565b61349e9190615981565b90508098508b84815181106134b5576134b5615d57565b60200260200101516000015197508b84815181106134d5576134d5615d57565b60200260200101516060015181111561350157604051633a196e0960e21b815260040160405180910390fd5b808c858151811061351457613514615d57565b602002602001015160600181815103915081815250506000945050505061356d565b8281111561355757604051633a196e0960e21b815260040160405180910390fd5b909103908061356581615b6b565b9150506133c2565b5080156135815761357e81846159bb565b92505b505083546000906135ba906135989060c81b614005565b865460028801548a916001600160a01b03600160381b90910481169116614ac7565b6001600160601b038d166000908152600960205260408120805492955093509150600160a01b900460ff161561361057865461360d906135fc9060c81b614005565b83546001600160a01b03168661443f565b90505b61377d8c8461361f848861590d565b8a604051806101400160405290816000820160009054906101000a900460c81b6001600160c81b0319166001600160c81b03191681526020016000820160079054906101000a90046001600160a01b03166001600160a01b03166001600160a01b031681526020016001820160009054906101000a90046001600160a01b03166001600160a01b03166001600160a01b031681526020016002820160009054906101000a90046001600160a01b03166001600160a01b03166001600160a01b031681526020016003820160009054906101000a90046001600160a01b03166001600160a01b03166001600160a01b031681526020016004820160009054906101000a90046001600160a01b03166001600160a01b03166001600160a01b031681526020016004820160149054906101000a900460c81b6001600160c81b0319166001600160c81b0319168152602001600582018054612b5090615786565b80156139db576007870154156137be5780876007015410156137b257604051633a196e0960e21b815260040160405180910390fd5b60078701805482900390555b6139db8c8360000160009054906101000a90046001600160a01b0316838a604051806101400160405290816000820160009054906101000a900460c81b6001600160c81b0319166001600160c81b03191681526020016000820160079054906101000a90046001600160a01b03166001600160a01b03166001600160a01b031681526020016001820160009054906101000a90046001600160a01b03166001600160a01b03166001600160a01b031681526020016002820160009054906101000a90046001600160a01b03166001600160a01b03166001600160a01b031681526020016003820160009054906101000a90046001600160a01b03166001600160a01b03166001600160a01b031681526020016004820160009054906101000a90046001600160a01b03166001600160a01b03166001600160a01b031681526020016004820160149054906101000a900460c81b6001600160c81b0319166001600160c81b031916815260200160058201805461393990615786565b80601f016020809104026020016040519081016040528092919081815260200182805461396590615786565b80156139b25780601f10613987576101008083540402835291602001916139b2565b820191906000526020600020905b81548152906001019060200180831161399557829003601f168201915b5050509183525050600682015460ff16151560208201526007909101546040909101528c6147e4565b505060078501548751899060005b81811015613ca05760008b8281518110613a0557613a05615d57565b6020026020010151608001519050613c368f8d8481518110613a2957613a29615d57565b602002602001015160200151838d604051806101400160405290816000820160009054906101000a900460c81b6001600160c81b0319166001600160c81b03191681526020016000820160079054906101000a90046001600160a01b03166001600160a01b03166001600160a01b031681526020016001820160009054906101000a90046001600160a01b03166001600160a01b03166001600160a01b031681526020016002820160009054906101000a90046001600160a01b03166001600160a01b03166001600160a01b031681526020016003820160009054906101000a90046001600160a01b03166001600160a01b03166001600160a01b031681526020016004820160009054906101000a90046001600160a01b03166001600160a01b03166001600160a01b031681526020016004820160149054906101000a900460c81b6001600160c81b0319166001600160c81b0319168152602001600582018054613b9490615786565b80601f0160208091040260200160405190810160405280929190818152602001828054613bc090615786565b8015613c0d5780601f10613be257610100808354040283529160200191613c0d565b820191906000526020600020905b815481529060010190602001808311613bf057829003601f168201915b5050509183525050600682015460ff16151560208201526007909101546040909101528f6147e4565b80841015613c5757604051633a196e0960e21b815260040160405180910390fd5b60078a0154938190039315613c8d5780851015613c8757604051633a196e0960e21b815260040160405180910390fd5b80850394505b5080613c9881615b6b565b9150506139e9565b508215613d3b576000600789018190556001890154895460405163636c380360e01b815273__$edb40677ae687b89a8312a1af66086cd07$__9363636c380393613d06936001600160a01b0391821693600160381b90910490911691899160040161551d565b60006040518083038186803b158015613d1e57600080fd5b505af4158015613d32573d6000803e3d6000fd5b50505050613d4d565b600788015415613d4d57600060078901555b5050855460028701546003880154613d7e93506001600160a01b03600160381b90930483169285928116911661456f565b600084118015613d9657506001600160a01b03831615155b15613e1757600285015460405163636c380360e01b815273__$edb40677ae687b89a8312a1af66086cd07$__9163636c380391613de6916001600160a01b0316908790899060009060040161551d565b60006040518083038186803b158015613dfe57600080fd5b505af4158015613e12573d6000803e3d6000fd5b505050505b6040516001600160601b038b16907f5d4a6ac2287eaf5f22deb24e842c4668fd11d8f478a18cf2a37faa0bcebd31c690600090a2505060016006555050505050505050565b6001600160c81b031981166000908152600360205260408120546001600160a01b03168061245857600080613e908561435c565b91509150818160405163def1560160e01b8152600401610627929190615b4e565b6007546001600160601b0390811690821610613eeb57604051630d55bc2360e41b81526001600160601b0382166004820152602401610627565b6001600160601b038116600090815260086020526040902054600160381b90046001600160a01b0316610c6657604051630d55bc2360e41b81526001600160601b0382166004820152602401610627565b6001600160d81b03198116600090815260046020908152604080832081518083019092525460ff8082168084526101009092041615159282019290925290613f9c5782600060405163def1560160e01b8152600401610627929190615b4e565b806020015115613fcb5760405163ae05d58960e01b81526001600160d81b031984166004820152602401610627565b6000613fdb848360000151614c4f565b6001600160c81b0319166000908152600360205260409020546001600160a01b0316949350505050565b6000806140118361435c565b509392505050565b60006001600160a01b038516614031575060016140a5565b6040516324aad2b360e21b81526001600160a01b038616906392ab4acc9061406190879087908790600401615d6d565b602060405180830381865afa15801561407e573d6000803e3d6000fd5b505050506040513d601f19601f820116820180604052508101906140a29190615769565b90505b949350505050565b6001600160a01b03821615614126576040516315750d0560e31b81526001600160601b0386166004820152602481018590526001600160a01b0383169063aba8682890604401600060405180830381600087803b15801561410d57600080fd5b505af1158015614121573d6000803e3d6000fd5b505050505b604051628f1c9d60e61b815273__$edb40677ae687b89a8312a1af66086cd07$__906323c72740906141899086907f000000000000000000000000000000000000000000000000000000000000000090339030908b908990600190600401615da0565b60006040518083038186803b1580156141a157600080fd5b505af41580156141b5573d6000803e3d6000fd5b505050505050505050565b806001600160a01b03163b600003610c6657604051631bd1ba9d60e21b81526001600160a01b0382166004820152602401610627565b8060005b600781101561432857600082826007811061421757614217615d57565b1a60f81b9050600282101561427357600360fc1b6001600160f81b03198216108061424f5750603960f81b6001600160f81b03198216115b1561426e5783604051628b684360e31b8152600401610627919061546e565b61431f565b60058210156142c357604160f81b6001600160f81b03198216108061424f5750602d60f91b6001600160f81b03198216111561426e5783604051628b684360e31b8152600401610627919061546e565b6001600160f81b03198116158015906143005750604160f81b6001600160f81b0319821610806143005750602d60f91b6001600160f81b03198216115b1561431f5783604051628b684360e31b8152600401610627919061546e565b506001016141fa565b5060006143348361435c565b9150508060ff166000036130295782604051628b684360e31b8152600401610627919061546e565b60008082600360fc1b6001600160f81b031982841a60f81b1610806143945750603960f81b8160001a60f81b6001600160f81b031916115b806143b25750600360fc1b8160011a60f81b6001600160f81b031916105b806143d05750603960f81b8160011a60f81b6001600160f81b031916115b156143ef5783604051628b684360e31b8152600401610627919061546e565b60006143fe603083831a615e20565b61440990600a615e39565b905061441a6030600184901a615e20565b6144249082615b35565b60109290921b6001600160d81b031916959194509092505050565b6001600160d81b031983166000908152600c602090815260408083206001600160a01b0386168452600101909152812054620186a0906144879065ffffffffffff1684615954565b6140a59190615981565b600080806144c9886001600160a01b038916158015906144c35750876001600160a01b0316896001600160a01b031614155b866118e8565b90925090508115614511576001600160a01b038088166000908152600d602090815260408083209389168352929052908120805484929061450b90849061590d565b90915550505b801561455757600b546001600160a01b039081166000908152600d602090815260408083209389168352929052908120805483929061455190849061590d565b90915550505b614561818361590d565b925050505b95945050505050565b73__$edb40677ae687b89a8312a1af66086cd07$__63636c3803836001600160a01b0384161561459f57836145a1565b865b8660006040518563ffffffff1660e01b81526004016145c3949392919061551d565b60006040518083038186803b1580156145db57600080fd5b505af41580156145ef573d6000803e3d6000fd5b5050505050505050565b6000816101200151116147de57604081015160808201516001600160a01b031615614799576040516370a0823160e01b81523060048201526000906001600160a01b038316906370a0823190602401602060405180830381865afa158015614665573d6000803e3d6000fd5b505050506040513d601f19601f820116820180604052508101906146899190615504565b6080840151604051637c41fdaf60e11b81526001600160601b038916600482015260248101889052604481018790529192506001600160a01b03169063f883fb5e90606401600060405180830381600087803b1580156146e857600080fd5b505af11580156146fc573d6000803e3d6000fd5b50505050838161470c919061590d565b6040516370a0823160e01b81523060048201526001600160a01b038416906370a0823190602401602060405180830381865afa158015614750573d6000803e3d6000fd5b505050506040513d601f19601f820116820180604052508101906147749190615504565b101561479357604051639c9d882360e01b815260040160405180910390fd5b506147dc565b602082015160405163bc0dbc9960e01b815273__$edb40677ae687b89a8312a1af66086cd07$__9163bc0dbc999161418991859130908990600190600401615920565b505b50505050565b60c082015160408301516001600160c81b031982166148705760405163636c380360e01b815273__$edb40677ae687b89a8312a1af66086cd07$__9063636c38039061483b9084908a908a9060019060040161551d565b60006040518083038186803b15801561485357600080fd5b505af4158015614867573d6000803e3d6000fd5b50505050614a3b565b600061487b83613e5c565b60e086015186516001600160c81b03199081166000908152600a602090815260408083208985168452909152902054929350909160c81b9081161561493f5760006148c582613e5c565b6040516333f1a81560e11b81529091506001600160a01b038216906367e3502a906148f6908a908790600401615e55565b600060405180830381865afa158015614913573d6000803e3d6000fd5b505050506040513d6000823e601f3d908101601f1916820160405261493b9190810190615e7a565b9250505b60405163bd35547360e01b81526001600160a01b038086166004830152841660248201526044810189905273__$edb40677ae687b89a8312a1af66086cd07$__9063bd3554739060640160006040518083038186803b1580156149a157600080fd5b505af41580156149b5573d6000803e3d6000fd5b505050610100880151604051631c81b11f60e31b81526001600160a01b038616925063e40d88f8916149f1918d91899188918f91600401615eae565b6060604051808303816000875af1158015614a10573d6000803e3d6000fd5b505050506040513d601f19601f82011682018060405250810190614a349190615ef3565b5050505050505b60808401516001600160a01b031615614abe576080840151604051634d420d8560e01b81526001600160601b0389166004820152602481018790526001600160a01b0390911690634d420d8590604401600060405180830381600087803b158015614aa557600080fd5b505af1158015614ab9573d6000803e3d6000fd5b505050505b50505050505050565b600080600080865190506000805b82811015614bf0576000898281518110614af157614af1615d57565b602002602001015160400151905060008a8381518110614b1357614b13615d57565b6020026020010151606001519050600080614b638e60006001600160a01b0316866001600160a01b031614158015614b5d57508d6001600160a01b0316866001600160a01b031614155b856118e8565b90925090508115614bab576001600160a01b038085166000908152600d60209081526040808320938f1683529290529081208054849290614ba590849061590d565b90915550505b614bb5818761590d565b9550614bc1818361590d565b614bcb908a61590d565b9850614bd7838b61590d565b9950505050508080614be890615b6b565b915050614ad5565b508015614c3757600b546001600160a01b039081166000908152600d60209081526040808320938a1683529290529081208054839290614c3190849061590d565b90915550505b614c4184866159bb565b925050509450945094915050565b600080614c5d600a84615f2c565b614c68906030615b35565b60f81b90506000614c7a600a85615f4e565b614c85906030615b35565b6040516001600160f81b0319808516602083015260f89290921b91821660218201526001600160d81b03198716602282015290915060270160405160208183030381529060405261456690615f70565b6001600160a01b0381168114610c6657600080fd5b8035614cf581614cd5565b919050565b600060208284031215614d0c57600080fd5b8135614d1781614cd5565b9392505050565b6001600160c81b031981168114610c6657600080fd5b600080600060608486031215614d4957600080fd5b8335614d5481614d1e565b92506020840135614d6481614d1e565b91506040840135614d7481614d1e565b809150509250925092565b6001600160601b0381168114610c6657600080fd5b8035614cf581614d7f565b60008060408385031215614db257600080fd5b8235614dbd81614d7f565b91506020830135614dcd81614d7f565b809150509250929050565b80356001600160d81b031981168114614cf557600080fd5b600060208284031215614e0257600080fd5b614d1782614dd8565b60008060408385031215614e1e57600080fd5b82356001600160401b0380821115614e3557600080fd5b908401906101408287031215614e4a57600080fd5b90925060208401359080821115614e6057600080fd5b50830160a08186031215614dcd57600080fd5b8015158114610c6657600080fd5b600080600060608486031215614e9657600080fd5b614e9f84614dd8565b92506020840135614eaf81614e73565b929592945050506040919091013590565b600080600060408486031215614ed557600080fd5b8335614ee081614d1e565b925060208401356001600160401b0380821115614efc57600080fd5b818601915086601f830112614f1057600080fd5b813581811115614f1f57600080fd5b876020828501011115614f3157600080fd5b6020830194508093505050509250925092565b60005b83811015614f5f578181015183820152602001614f47565b50506000910152565b60008151808452614f80816020860160208601614f44565b601f01601f19169290920160200192915050565b602081526000614d176020830184614f68565b634e487b7160e01b600052604160045260246000fd5b60405160e081016001600160401b0381118282101715614fdf57614fdf614fa7565b60405290565b60405161010081016001600160401b0381118282101715614fdf57614fdf614fa7565b60405160c081016001600160401b0381118282101715614fdf57614fdf614fa7565b604051601f8201601f191681016001600160401b038111828210171561505257615052614fa7565b604052919050565b60006001600160401b0382111561507357615073614fa7565b50601f01601f191660200190565b600082601f83011261509257600080fd5b81356150a56150a08261505a565b61502a565b8181528460208386010111156150ba57600080fd5b816020850160208301376000918101602001919091529392505050565b6000602082840312156150e957600080fd5b81356001600160401b038082111561510057600080fd5b9083019060e0828603121561511457600080fd5b61511c614fbd565b61512583614d94565b815261513360208401614cea565b602082015261514460408401614cea565b60408201526060830135606082015260808301358281111561516557600080fd5b61517187828601615081565b60808301525060a08301358281111561518957600080fd5b61519587828601615081565b60a08301525060c0830135828111156151ad57600080fd5b6151b987828601615081565b60c08301525095945050505050565b65ffffffffffff81168114610c6657600080fd5b600080604083850312156151ef57600080fd5b6151f883614dd8565b91506020830135614dcd816151c8565b60006020828403121561521a57600080fd5b5035919050565b60006020828403121561523357600080fd5b8135614d1781614d7f565b6001600160c81b03198b811682526001600160a01b038b811660208401528a8116604084015289811660608401528881166080840152871660a0830152851660c082015261014060e0820181905260009061529b83820187614f68565b9415156101008401525050610120015298975050505050505050565b6000602082840312156152c957600080fd5b8135614d1781614d1e565b6000602082840312156152e657600080fd5b81356001600160401b03808211156152fd57600080fd5b90830190610100828603121561531257600080fd5b61531a614fe5565b61532383614cea565b815261533160208401614cea565b602082015261534260408401614d94565b6040820152606083013560608201526080830135608082015260a08301358281111561536d57600080fd5b61537987828601615081565b60a08301525060c08301358281111561539157600080fd5b61539d87828601615081565b60c08301525060e0830135828111156153b557600080fd5b6153c187828601615081565b60e08301525095945050505050565b6000806000606084860312156153e557600080fd5b6153ee84614dd8565b925060208401356003811061540257600080fd5b91506040840135614d74816151c8565b6000806040838503121561542557600080fd5b823561543081614cd5565b91506020830135614dcd81614cd5565b6000806040838503121561545357600080fd5b823561545e81614d1e565b91506020830135614dcd81614d1e565b6001600160c81b031991909116815260200190565b6020808252600c908201526b15539055551213d49256915160a21b604082015260600190565b634e487b7160e01b600052602160045260246000fd5b6000602082840312156154d157600080fd5b815160048110614d1757600080fd5b6020808252600a90820152695245454e5452414e435960b01b604082015260600190565b60006020828403121561551657600080fd5b5051919050565b6001600160a01b0394851681529290931660208301526040820152901515606082015260800190565b60006020828403121561555857600080fd5b8151614d1781614d1e565b60006020828403121561557557600080fd5b815160ff81168114614d1757600080fd5b634e487b7160e01b600052601160045260246000fd5b60006001600160601b038083168181036155b8576155b8615586565b6001019392505050565b81835281816020850137506000828201602090810191909152601f909101601f19169091010190565b6001600160601b0385168152608060208201526000843561560b816151c8565b65ffffffffffff9081166080840152602086013590615629826151c8565b1660a0830152604085013561563d81614e73565b151560c0830152606085013560e0830152608085013536869003601e1901811261566657600080fd5b85016020810190356001600160401b0381111561568257600080fd5b80360382131561569157600080fd5b60a06101008501526156a8610120850182846155c2565b925050506156bb604083018560ff169052565b60ff83166060830152614566565b600080604083850312156156dc57600080fd5b82516156e781614e73565b6020939093015192949293505050565b6000808335601e1984360301811261570e57600080fd5b8301803591506001600160401b0382111561572857600080fd5b60200191503681900382131561573d57600080fd5b9250929050565b6001600160a01b038416815260406020820181905260009061456690830184866155c2565b60006020828403121561577b57600080fd5b8151614d1781614e73565b600181811c9082168061579a57607f821691505b6020821081036157ba57634e487b7160e01b600052602260045260246000fd5b50919050565b601f82111561302957600081815260208120601f850160051c810160208610156157e75750805b601f850160051c820191505b81811015615806578281556001016157f3565b505050505050565b6001600160401b0383111561582557615825614fa7565b615839836158338354615786565b836157c0565b6000601f84116001811461586d57600085156158555750838201355b600019600387901b1c1916600186901b1783556147dc565b600083815260209020601f19861690835b8281101561589e578685013582556020948501946001909201910161587e565b50868210156158bb5760001960f88860031b161c19848701351681555b505060018560011b0183555050505050565b6001600160601b03841681526040602082015260006145666040830184866155c2565b60006020828403121561590257600080fd5b8135614d1781614e73565b8082018082111561245857612458615586565b6001600160a01b03958616815293851660208501529190931660408301526060820192909252901515608082015260a00190565b808202811582820484141761245857612458615586565b634e487b7160e01b600052601260045260246000fd5b6000826159905761599061596b565b500490565b65ffffffffffff8181168382160190808211156159b4576159b4615586565b5092915050565b8181038181111561245857612458615586565b8183823760009101908152919050565b6001600160601b03871681526001600160a01b0386811660208301528581166040830152841660608201526080810183905260c060a08201819052600090615a2890830184614f68565b98975050505050505050565b600060208284031215615a4657600080fd5b8151614d1781614d7f565b600082601f830112615a6257600080fd5b8151615a706150a08261505a565b818152846020838601011115615a8557600080fd5b6140a5826020830160208701614f44565b600060208284031215615aa857600080fd5b81516001600160401b0380821115615abf57600080fd5b9083019060608286031215615ad357600080fd5b604051606081018181108382111715615aee57615aee614fa7565b6040528251615afc816151c8565b815260208381015190820152604083015182811115615b1a57600080fd5b615b2687828601615a51565b60408301525095945050505050565b60ff818116838216019081111561245857612458615586565b6001600160d81b031992909216825260ff16602082015260400190565b600060018201615b7d57615b7d615586565b5060010190565b6001600160601b03841681528260208201526060604082015260006145666060830184614f68565b60008060408385031215615bbf57600080fd5b8251915060208301516001600160401b03811115615bdc57600080fd5b615be885828601615a51565b9150509250929050565b60008060408385031215615c0557600080fd5b82516001600160401b0380821115615c1c57600080fd5b818501915085601f830112615c3057600080fd5b8151602082821115615c4457615c44614fa7565b8160051b615c5382820161502a565b928352848101820192828101908a851115615c6d57600080fd5b83870192505b84831015615d3057825186811115615c8b5760008081fd5b870160c0818d03601f1901811315615ca35760008081fd5b615cab615008565b86830151615cb881614cd5565b81526040830151615cc881614cd5565b81880152606083810151615cdb81614cd5565b806040840152506080808501518284015260a0915081850151818401525082840151925089831115615d0d5760008081fd5b615d1b8f8985870101615a51565b90820152845250509183019190830190615c73565b9289015192975091945050505080821115615d4a57600080fd5b50615be885828601615a51565b634e487b7160e01b600052603260045260246000fd5b6001600160601b03841681526001600160a01b038316602082015260606040820181905260009061456690830184614f68565b600060018060a01b03808a1683528089166020840152808816604084015280871660608401525084608083015260e060a083015265ffffffffffff84511660e0830152602084015161010083015260408401516060610120840152615e09610140840182614f68565b91505082151560c083015298975050505050505050565b60ff828116828216039081111561245857612458615586565b60ff81811683821602908116908181146159b4576159b4615586565b604081526000615e686040830185614f68565b82810360208401526145668185614f68565b600060208284031215615e8c57600080fd5b81516001600160401b03811115615ea257600080fd5b6140a584828501615a51565b6001600160a01b0386811682528516602082015260a060408201819052600090615eda90830186614f68565b6060830194909452509015156080909101529392505050565b600080600060608486031215615f0857600080fd5b835192506020840151615f1a81614cd5565b80925050604084015190509250925092565b600060ff831680615f3f57615f3f61596b565b8060ff84160491505092915050565b600060ff831680615f6157615f6161596b565b8060ff84160691505092915050565b805160208201516001600160c81b03198082169291906007831015615f9f5780818460070360031b1b83161693505b50505091905056fea26469706673582212201b26b5539d02911a40f00bcc2cf896385d0b70cdc667876c8966198bac0d6cae64736f6c63430008130033",
    "linkReferences": {
      "src/lib/Transfer.sol": {
        "Transfer": [
          {
            "start": 3125,
            "length": 20
          },
          {
            "start": 6823,
            "length": 20
          },
          {
            "start": 8168,
            "length": 20
          },
          {
            "start": 9529,
            "length": 20
          },
          {
            "start": 10660,
            "length": 20
          },
          {
            "start": 11467,
            "length": 20
          },
          {
            "start": 13401,
            "length": 20
          },
          {
            "start": 16274,
            "length": 20
          },
          {
            "start": 16507,
            "length": 20
          },
          {
            "start": 17408,
            "length": 20
          },
          {
            "start": 18493,
            "length": 20
          },
          {
            "start": 19065,
            "length": 20
          },
          {
            "start": 19160,
            "length": 20
          },
          {
            "start": 19512,
            "length": 20
          }
        ]
      }
    }
  },
  "methodIdentifiers": {
    "auction((bytes5,address,address,address,address,address,bytes,bytes,bytes5,bytes),(uint48,uint48,bool,uint256,bytes))": "3eee0963",
    "bid((uint96,address,address,uint256,bytes,bytes,bytes))": "528c410d",
    "calculateQuoteFees(bytes5,bool,uint256)": "4bcbd88b",
    "cancel(uint96)": "8eae8235",
    "cancelBid(uint96,uint96)": "2e7cf756",
    "claimModuleGas(bytes7)": "bc17699c",
    "claimRewards(address)": "ef5cfb8c",
    "claimYieldAndGas()": "38ec8b42",
    "condensers(bytes7,bytes7)": "f4b26181",
    "curate(uint96)": "a782e524",
    "execOnModule(bytes7,bytes)": "50ab0489",
    "fees(bytes5)": "31d72d6b",
    "getModuleForId(uint96)": "a50076f7",
    "getModuleForVeecode(bytes7)": "9e55cba3",
    "getModuleStatus(bytes5)": "5bb27aab",
    "installModule(address)": "7eb1e761",
    "isExecOnModule()": "5c774ed7",
    "lotCounter()": "c4ce88fd",
    "lotCuration(uint96)": "a249a509",
    "lotRouting(uint96)": "9e2e003a",
    "modules(uint256)": "81b2248a",
    "modulesCount()": "f315aafe",
    "owner()": "8da5cb5b",
    "purchase((address,address,uint96,uint256,uint256,bytes,bytes,bytes))": "c1cf8c7f",
    "rewards(address,address)": "e70b9e27",
    "setCondenser(bytes7,bytes7,bytes7)": "20b15fe4",
    "setCuratorFee(bytes5,uint48)": "7249c0d5",
    "setFee(bytes5,uint8,uint48)": "c74c149b",
    "setProtocol(address)": "0a9d793d",
    "settle(uint96)": "fb9d3cb6",
    "sunsetModule(bytes5)": "c75519ba",
    "transferOwnership(address)": "f2fde38b"
  },
  "id": 34
}