{
  "abi": [
    {
      "type": "constructor",
      "inputs": [
        {
          "name": "auctionHouse_",
          "type": "address",
          "internalType": "address"
        }
      ],
      "stateMutability": "nonpayable"
    },
    {
      "type": "function",
      "name": "INIT",
      "inputs": [],
      "outputs": [],
      "stateMutability": "nonpayable"
    },
    {
      "type": "function",
      "name": "PARENT",
      "inputs": [],
      "outputs": [
        {
          "name": "",
          "type": "address",
          "internalType": "address"
        }
      ],
      "stateMutability": "view"
    },
    {
      "type": "function",
      "name": "TYPE",
      "inputs": [],
      "outputs": [
        {
          "name": "",
          "type": "uint8",
          "internalType": "enum Module.Type"
        }
      ],
      "stateMutability": "pure"
    },
    {
      "type": "function",
      "name": "VEECODE",
      "inputs": [],
      "outputs": [
        {
          "name": "",
          "type": "bytes7",
          "internalType": "Veecode"
        }
      ],
      "stateMutability": "pure"
    },
    {
      "type": "function",
      "name": "auction",
      "inputs": [
        {
          "name": "lotId_",
          "type": "uint96",
          "internalType": "uint96"
        },
        {
          "name": "params_",
          "type": "tuple",
          "internalType": "struct Auction.AuctionParams",
          "components": [
            {
              "name": "start",
              "type": "uint48",
              "internalType": "uint48"
            },
            {
              "name": "duration",
              "type": "uint48",
              "internalType": "uint48"
            },
            {
              "name": "capacityInQuote",
              "type": "bool",
              "internalType": "bool"
            },
            {
              "name": "capacity",
              "type": "uint256",
              "internalType": "uint256"
            },
            {
              "name": "implParams",
              "type": "bytes",
              "internalType": "bytes"
            }
          ]
        },
        {
          "name": "quoteTokenDecimals_",
          "type": "uint8",
          "internalType": "uint8"
        },
        {
          "name": "baseTokenDecimals_",
          "type": "uint8",
          "internalType": "uint8"
        }
      ],
      "outputs": [
        {
          "name": "prefundingRequired",
          "type": "bool",
          "internalType": "bool"
        },
        {
          "name": "capacity",
          "type": "uint256",
          "internalType": "uint256"
        }
      ],
      "stateMutability": "nonpayable"
    },
    {
      "type": "function",
      "name": "auctionData",
      "inputs": [
        {
          "name": "lotId",
          "type": "uint96",
          "internalType": "uint96"
        }
      ],
      "outputs": [
        {
          "name": "status",
          "type": "uint8",
          "internalType": "enum LocalSealedBidBatchAuction.AuctionStatus"
        },
        {
          "name": "nextDecryptIndex",
          "type": "uint96",
          "internalType": "uint96"
        },
        {
          "name": "nextBidId",
          "type": "uint96",
          "internalType": "uint96"
        },
        {
          "name": "minimumPrice",
          "type": "uint256",
          "internalType": "uint256"
        },
        {
          "name": "minFilled",
          "type": "uint256",
          "internalType": "uint256"
        },
        {
          "name": "minBidSize",
          "type": "uint256",
          "internalType": "uint256"
        },
        {
          "name": "publicKeyModulus",
          "type": "bytes",
          "internalType": "bytes"
        }
      ],
      "stateMutability": "view"
    },
    {
      "type": "function",
      "name": "bid",
      "inputs": [
        {
          "name": "lotId_",
          "type": "uint96",
          "internalType": "uint96"
        },
        {
          "name": "bidder_",
          "type": "address",
          "internalType": "address"
        },
        {
          "name": "recipient_",
          "type": "address",
          "internalType": "address"
        },
        {
          "name": "referrer_",
          "type": "address",
          "internalType": "address"
        },
        {
          "name": "amount_",
          "type": "uint256",
          "internalType": "uint256"
        },
        {
          "name": "auctionData_",
          "type": "bytes",
          "internalType": "bytes"
        }
      ],
      "outputs": [
        {
          "name": "bidId",
          "type": "uint96",
          "internalType": "uint96"
        }
      ],
      "stateMutability": "nonpayable"
    },
    {
      "type": "function",
      "name": "cancelAuction",
      "inputs": [
        {
          "name": "lotId_",
          "type": "uint96",
          "internalType": "uint96"
        }
      ],
      "outputs": [],
      "stateMutability": "nonpayable"
    },
    {
      "type": "function",
      "name": "cancelBid",
      "inputs": [
        {
          "name": "lotId_",
          "type": "uint96",
          "internalType": "uint96"
        },
        {
          "name": "bidId_",
          "type": "uint96",
          "internalType": "uint96"
        },
        {
          "name": "caller_",
          "type": "address",
          "internalType": "address"
        }
      ],
      "outputs": [
        {
          "name": "bidAmount",
          "type": "uint256",
          "internalType": "uint256"
        }
      ],
      "stateMutability": "nonpayable"
    },
    {
      "type": "function",
      "name": "capacityInQuote",
      "inputs": [
        {
          "name": "lotId_",
          "type": "uint96",
          "internalType": "uint96"
        }
      ],
      "outputs": [
        {
          "name": "",
          "type": "bool",
          "internalType": "bool"
        }
      ],
      "stateMutability": "view"
    },
    {
      "type": "function",
      "name": "decryptAndSortBids",
      "inputs": [
        {
          "name": "lotId_",
          "type": "uint96",
          "internalType": "uint96"
        },
        {
          "name": "decrypts_",
          "type": "tuple[]",
          "internalType": "struct LocalSealedBidBatchAuction.Decrypt[]",
          "components": [
            {
              "name": "amountOut",
              "type": "uint256",
              "internalType": "uint256"
            },
            {
              "name": "seed",
              "type": "bytes32",
              "internalType": "bytes32"
            }
          ]
        }
      ],
      "outputs": [],
      "stateMutability": "nonpayable"
    },
    {
      "type": "function",
      "name": "getBidData",
      "inputs": [
        {
          "name": "lotId_",
          "type": "uint96",
          "internalType": "uint96"
        },
        {
          "name": "bidId_",
          "type": "uint96",
          "internalType": "uint96"
        }
      ],
      "outputs": [
        {
          "name": "",
          "type": "tuple",
          "internalType": "struct LocalSealedBidBatchAuction.EncryptedBid",
          "components": [
            {
              "name": "status",
              "type": "uint8",
              "internalType": "enum LocalSealedBidBatchAuction.BidStatus"
            },
            {
              "name": "bidder",
              "type": "address",
              "internalType": "address"
            },
            {
              "name": "recipient",
              "type": "address",
              "internalType": "address"
            },
            {
              "name": "referrer",
              "type": "address",
              "internalType": "address"
            },
            {
              "name": "amount",
              "type": "uint256",
              "internalType": "uint256"
            },
            {
              "name": "encryptedAmountOut",
              "type": "bytes",
              "internalType": "bytes"
            }
          ]
        }
      ],
      "stateMutability": "view"
    },
    {
      "type": "function",
      "name": "getDecryptData",
      "inputs": [
        {
          "name": "lotId_",
          "type": "uint96",
          "internalType": "uint96"
        }
      ],
      "outputs": [
        {
          "name": "status_",
          "type": "uint8",
          "internalType": "enum LocalSealedBidBatchAuction.AuctionStatus"
        },
        {
          "name": "activeBids_",
          "type": "uint96",
          "internalType": "uint96"
        },
        {
          "name": "nextDecryptIndex_",
          "type": "uint96",
          "internalType": "uint96"
        },
        {
          "name": "publicKeyModulus_",
          "type": "bytes",
          "internalType": "bytes"
        }
      ],
      "stateMutability": "view"
    },
    {
      "type": "function",
      "name": "getLot",
      "inputs": [
        {
          "name": "lotId_",
          "type": "uint96",
          "internalType": "uint96"
        }
      ],
      "outputs": [
        {
          "name": "",
          "type": "tuple",
          "internalType": "struct Auction.Lot",
          "components": [
            {
              "name": "start",
              "type": "uint48",
              "internalType": "uint48"
            },
            {
              "name": "conclusion",
              "type": "uint48",
              "internalType": "uint48"
            },
            {
              "name": "quoteTokenDecimals",
              "type": "uint8",
              "internalType": "uint8"
            },
            {
              "name": "baseTokenDecimals",
              "type": "uint8",
              "internalType": "uint8"
            },
            {
              "name": "capacityInQuote",
              "type": "bool",
              "internalType": "bool"
            },
            {
              "name": "capacity",
              "type": "uint256",
              "internalType": "uint256"
            },
            {
              "name": "sold",
              "type": "uint256",
              "internalType": "uint256"
            },
            {
              "name": "purchased",
              "type": "uint256",
              "internalType": "uint256"
            }
          ]
        }
      ],
      "stateMutability": "view"
    },
    {
      "type": "function",
      "name": "getLotData",
      "inputs": [
        {
          "name": "lotId_",
          "type": "uint96",
          "internalType": "uint96"
        }
      ],
      "outputs": [
        {
          "name": "",
          "type": "tuple",
          "internalType": "struct LocalSealedBidBatchAuction.AuctionData",
          "components": [
            {
              "name": "status",
              "type": "uint8",
              "internalType": "enum LocalSealedBidBatchAuction.AuctionStatus"
            },
            {
              "name": "nextDecryptIndex",
              "type": "uint96",
              "internalType": "uint96"
            },
            {
              "name": "nextBidId",
              "type": "uint96",
              "internalType": "uint96"
            },
            {
              "name": "minimumPrice",
              "type": "uint256",
              "internalType": "uint256"
            },
            {
              "name": "minFilled",
              "type": "uint256",
              "internalType": "uint256"
            },
            {
              "name": "minBidSize",
              "type": "uint256",
              "internalType": "uint256"
            },
            {
              "name": "publicKeyModulus",
              "type": "bytes",
              "internalType": "bytes"
            },
            {
              "name": "bidIds",
              "type": "uint96[]",
              "internalType": "uint96[]"
            }
          ]
        }
      ],
      "stateMutability": "view"
    },
    {
      "type": "function",
      "name": "getNextBidsToDecrypt",
      "inputs": [
        {
          "name": "lotId_",
          "type": "uint96",
          "internalType": "uint96"
        },
        {
          "name": "number_",
          "type": "uint256",
          "internalType": "uint256"
        }
      ],
      "outputs": [
        {
          "name": "",
          "type": "tuple[]",
          "internalType": "struct LocalSealedBidBatchAuction.EncryptedBid[]",
          "components": [
            {
              "name": "status",
              "type": "uint8",
              "internalType": "enum LocalSealedBidBatchAuction.BidStatus"
            },
            {
              "name": "bidder",
              "type": "address",
              "internalType": "address"
            },
            {
              "name": "recipient",
              "type": "address",
              "internalType": "address"
            },
            {
              "name": "referrer",
              "type": "address",
              "internalType": "address"
            },
            {
              "name": "amount",
              "type": "uint256",
              "internalType": "uint256"
            },
            {
              "name": "encryptedAmountOut",
              "type": "bytes",
              "internalType": "bytes"
            }
          ]
        }
      ],
      "stateMutability": "view"
    },
    {
      "type": "function",
      "name": "getSortedBidCount",
      "inputs": [
        {
          "name": "lotId_",
          "type": "uint96",
          "internalType": "uint96"
        }
      ],
      "outputs": [
        {
          "name": "",
          "type": "uint256",
          "internalType": "uint256"
        }
      ],
      "stateMutability": "view"
    },
    {
      "type": "function",
      "name": "getSortedBidData",
      "inputs": [
        {
          "name": "lotId_",
          "type": "uint96",
          "internalType": "uint96"
        },
        {
          "name": "index_",
          "type": "uint96",
          "internalType": "uint96"
        }
      ],
      "outputs": [
        {
          "name": "",
          "type": "tuple",
          "internalType": "struct Bid",
          "components": [
            {
              "name": "bidId",
              "type": "uint96",
              "internalType": "uint96"
            },
            {
              "name": "amountIn",
              "type": "uint256",
              "internalType": "uint256"
            },
            {
              "name": "minAmountOut",
              "type": "uint256",
              "internalType": "uint256"
            }
          ]
        }
      ],
      "stateMutability": "view"
    },
    {
      "type": "function",
      "name": "hasEnded",
      "inputs": [
        {
          "name": "lotId_",
          "type": "uint96",
          "internalType": "uint96"
        }
      ],
      "outputs": [
        {
          "name": "",
          "type": "bool",
          "internalType": "bool"
        }
      ],
      "stateMutability": "view"
    },
    {
      "type": "function",
      "name": "isLive",
      "inputs": [
        {
          "name": "lotId_",
          "type": "uint96",
          "internalType": "uint96"
        }
      ],
      "outputs": [
        {
          "name": "",
          "type": "bool",
          "internalType": "bool"
        }
      ],
      "stateMutability": "view"
    },
    {
      "type": "function",
      "name": "lotData",
      "inputs": [
        {
          "name": "id",
          "type": "uint96",
          "internalType": "uint96"
        }
      ],
      "outputs": [
        {
          "name": "start",
          "type": "uint48",
          "internalType": "uint48"
        },
        {
          "name": "conclusion",
          "type": "uint48",
          "internalType": "uint48"
        },
        {
          "name": "quoteTokenDecimals",
          "type": "uint8",
          "internalType": "uint8"
        },
        {
          "name": "baseTokenDecimals",
          "type": "uint8",
          "internalType": "uint8"
        },
        {
          "name": "capacityInQuote",
          "type": "bool",
          "internalType": "bool"
        },
        {
          "name": "capacity",
          "type": "uint256",
          "internalType": "uint256"
        },
        {
          "name": "sold",
          "type": "uint256",
          "internalType": "uint256"
        },
        {
          "name": "purchased",
          "type": "uint256",
          "internalType": "uint256"
        }
      ],
      "stateMutability": "view"
    },
    {
      "type": "function",
      "name": "lotEncryptedBids",
      "inputs": [
        {
          "name": "lotId",
          "type": "uint96",
          "internalType": "uint96"
        },
        {
          "name": "bidId",
          "type": "uint96",
          "internalType": "uint96"
        }
      ],
      "outputs": [
        {
          "name": "status",
          "type": "uint8",
          "internalType": "enum LocalSealedBidBatchAuction.BidStatus"
        },
        {
          "name": "bidder",
          "type": "address",
          "internalType": "address"
        },
        {
          "name": "recipient",
          "type": "address",
          "internalType": "address"
        },
        {
          "name": "referrer",
          "type": "address",
          "internalType": "address"
        },
        {
          "name": "amount",
          "type": "uint256",
          "internalType": "uint256"
        },
        {
          "name": "encryptedAmountOut",
          "type": "bytes",
          "internalType": "bytes"
        }
      ],
      "stateMutability": "view"
    },
    {
      "type": "function",
      "name": "lotSortedBids",
      "inputs": [
        {
          "name": "lotId",
          "type": "uint96",
          "internalType": "uint96"
        }
      ],
      "outputs": [
        {
          "name": "flag",
          "type": "bool",
          "internalType": "bool"
        }
      ],
      "stateMutability": "view"
    },
    {
      "type": "function",
      "name": "maxAmountAccepted",
      "inputs": [
        {
          "name": "lotId_",
          "type": "uint96",
          "internalType": "uint96"
        }
      ],
      "outputs": [
        {
          "name": "",
          "type": "uint256",
          "internalType": "uint256"
        }
      ],
      "stateMutability": "view"
    },
    {
      "type": "function",
      "name": "maxPayout",
      "inputs": [
        {
          "name": "lotId_",
          "type": "uint96",
          "internalType": "uint96"
        }
      ],
      "outputs": [
        {
          "name": "",
          "type": "uint256",
          "internalType": "uint256"
        }
      ],
      "stateMutability": "view"
    },
    {
      "type": "function",
      "name": "minAuctionDuration",
      "inputs": [],
      "outputs": [
        {
          "name": "",
          "type": "uint48",
          "internalType": "uint48"
        }
      ],
      "stateMutability": "view"
    },
    {
      "type": "function",
      "name": "payoutFor",
      "inputs": [
        {
          "name": "lotId_",
          "type": "uint96",
          "internalType": "uint96"
        },
        {
          "name": "amount_",
          "type": "uint256",
          "internalType": "uint256"
        }
      ],
      "outputs": [
        {
          "name": "",
          "type": "uint256",
          "internalType": "uint256"
        }
      ],
      "stateMutability": "view"
    },
    {
      "type": "function",
      "name": "priceFor",
      "inputs": [
        {
          "name": "lotId_",
          "type": "uint96",
          "internalType": "uint96"
        },
        {
          "name": "payout_",
          "type": "uint256",
          "internalType": "uint256"
        }
      ],
      "outputs": [
        {
          "name": "",
          "type": "uint256",
          "internalType": "uint256"
        }
      ],
      "stateMutability": "view"
    },
    {
      "type": "function",
      "name": "purchase",
      "inputs": [
        {
          "name": "lotId_",
          "type": "uint96",
          "internalType": "uint96"
        },
        {
          "name": "amount_",
          "type": "uint256",
          "internalType": "uint256"
        },
        {
          "name": "auctionData_",
          "type": "bytes",
          "internalType": "bytes"
        }
      ],
      "outputs": [
        {
          "name": "payout",
          "type": "uint256",
          "internalType": "uint256"
        },
        {
          "name": "auctionOutput",
          "type": "bytes",
          "internalType": "bytes"
        }
      ],
      "stateMutability": "nonpayable"
    },
    {
      "type": "function",
      "name": "remainingCapacity",
      "inputs": [
        {
          "name": "lotId_",
          "type": "uint96",
          "internalType": "uint96"
        }
      ],
      "outputs": [
        {
          "name": "",
          "type": "uint256",
          "internalType": "uint256"
        }
      ],
      "stateMutability": "view"
    },
    {
      "type": "function",
      "name": "settle",
      "inputs": [
        {
          "name": "lotId_",
          "type": "uint96",
          "internalType": "uint96"
        }
      ],
      "outputs": [
        {
          "name": "winningBids_",
          "type": "tuple[]",
          "internalType": "struct Auction.Bid[]",
          "components": [
            {
              "name": "bidder",
              "type": "address",
              "internalType": "address"
            },
            {
              "name": "recipient",
              "type": "address",
              "internalType": "address"
            },
            {
              "name": "referrer",
              "type": "address",
              "internalType": "address"
            },
            {
              "name": "amount",
              "type": "uint256",
              "internalType": "uint256"
            },
            {
              "name": "minAmountOut",
              "type": "uint256",
              "internalType": "uint256"
            },
            {
              "name": "auctionParam",
              "type": "bytes",
              "internalType": "bytes"
            }
          ]
        },
        {
          "name": "auctionOutput_",
          "type": "bytes",
          "internalType": "bytes"
        }
      ],
      "stateMutability": "nonpayable"
    },
    {
      "type": "event",
      "name": "BidDecrypted",
      "inputs": [
        {
          "name": "lotId",
          "type": "uint96",
          "indexed": true,
          "internalType": "uint96"
        },
        {
          "name": "bidId",
          "type": "uint96",
          "indexed": true,
          "internalType": "uint96"
        },
        {
          "name": "amountIn",
          "type": "uint256",
          "indexed": false,
          "internalType": "uint256"
        },
        {
          "name": "amountOut",
          "type": "uint256",
          "indexed": false,
          "internalType": "uint256"
        }
      ],
      "anonymous": false
    },
    {
      "type": "error",
      "name": "Auction_AlreadyCancelled",
      "inputs": []
    },
    {
      "type": "error",
      "name": "Auction_AmountLessThanMinimum",
      "inputs": []
    },
    {
      "type": "error",
      "name": "Auction_BidDoesNotExist",
      "inputs": []
    },
    {
      "type": "error",
      "name": "Auction_InvalidBidId",
      "inputs": [
        {
          "name": "lotId",
          "type": "uint96",
          "internalType": "uint96"
        },
        {
          "name": "bidId",
          "type": "uint96",
          "internalType": "uint96"
        }
      ]
    },
    {
      "type": "error",
      "name": "Auction_InvalidDecrypt",
      "inputs": []
    },
    {
      "type": "error",
      "name": "Auction_InvalidDuration",
      "inputs": [
        {
          "name": "duration_",
          "type": "uint48",
          "internalType": "uint48"
        },
        {
          "name": "minimum_",
          "type": "uint48",
          "internalType": "uint48"
        }
      ]
    },
    {
      "type": "error",
      "name": "Auction_InvalidLotId",
      "inputs": [
        {
          "name": "lotId",
          "type": "uint96",
          "internalType": "uint96"
        }
      ]
    },
    {
      "type": "error",
      "name": "Auction_InvalidParams",
      "inputs": []
    },
    {
      "type": "error",
      "name": "Auction_InvalidStart",
      "inputs": [
        {
          "name": "start_",
          "type": "uint48",
          "internalType": "uint48"
        },
        {
          "name": "minimum_",
          "type": "uint48",
          "internalType": "uint48"
        }
      ]
    },
    {
      "type": "error",
      "name": "Auction_MarketActive",
      "inputs": [
        {
          "name": "lotId",
          "type": "uint96",
          "internalType": "uint96"
        }
      ]
    },
    {
      "type": "error",
      "name": "Auction_MarketNotActive",
      "inputs": [
        {
          "name": "lotId",
          "type": "uint96",
          "internalType": "uint96"
        }
      ]
    },
    {
      "type": "error",
      "name": "Auction_NotAuthorized",
      "inputs": []
    },
    {
      "type": "error",
      "name": "Auction_NotBidder",
      "inputs": []
    },
    {
      "type": "error",
      "name": "Auction_NotConcluded",
      "inputs": []
    },
    {
      "type": "error",
      "name": "Auction_NotEnoughCapacity",
      "inputs": []
    },
    {
      "type": "error",
      "name": "Auction_NotImplemented",
      "inputs": []
    },
    {
      "type": "error",
      "name": "Auction_NotLive",
      "inputs": []
    },
    {
      "type": "error",
      "name": "Auction_OnlyMarketOwner",
      "inputs": []
    },
    {
      "type": "error",
      "name": "Auction_WrongState",
      "inputs": []
    },
    {
      "type": "error",
      "name": "Module_InvalidParent",
      "inputs": [
        {
          "name": "parent_",
          "type": "address",
          "internalType": "address"
        }
      ]
    },
    {
      "type": "error",
      "name": "Module_OnlyInternal",
      "inputs": []
    },
    {
      "type": "error",
      "name": "Module_OnlyParent",
      "inputs": [
        {
          "name": "caller_",
          "type": "address",
          "internalType": "address"
        }
      ]
    }
  ],
  "bytecode": {
    "object": "0x60a06040523480156200001157600080fd5b506040516200496138038062004961833981016040819052620000349162000103565b808080806001600160a01b0381166200006f57604051631462ddc360e21b81526001600160a01b038216600482015260240160405180910390fd5b6001600160a01b039081166080526000805465ffffffffffff191662015180179055604051631d70c8d360e31b81529084166004820152734300000000000000000000000000000000000002925063eb8646989150602401600060405180830381600087803b158015620000e257600080fd5b505af1158015620000f7573d6000803e3d6000fd5b50505050505062000135565b6000602082840312156200011657600080fd5b81516001600160a01b03811681146200012e57600080fd5b9392505050565b6080516147b5620001ac60003960008181610237015281816109270152818161096e01528181610cc201528181610d0401528181610e7401528181610eb60152818161123e0152818161128001528181611387015281816113c901528181611d8e01528181611e690152611eab01526147b56000f3fe608060405234801561001057600080fd5b50600436106101e55760003560e01c80639369d8301161010f578063d61735ca116100a2578063e2cfa6ea11610071578063e2cfa6ea14610649578063ea6439141461066f578063f6dac88614610677578063fb9d3cb61461068a57600080fd5b8063d61735ca146105c0578063d756ff97146105d8578063dcfab7a6146105f8578063e0eb89511461060b57600080fd5b8063bae96bdd116100de578063bae96bdd14610587578063bb24fe8a146105b1578063bd8dd0fd14610321578063d3ad2fed1461027157600080fd5b80639369d830146105025780639dffb4d014610525578063ace54da514610545578063b04046df1461057257600080fd5b806339792cdc1161018757806356ab110b1161015657806356ab110b146103e85780635806afc314610413578063732efc03146104ce57806376103c8f146104e157600080fd5b806339792cdc146102ee5780634dc1a12f146103215780634e1f42581461033757806354134876146103bf57600080fd5b80631a85c634116101c35780631a85c634146102715780631c444d111461029357806320cff4e0146102a65780632c7634ab146102cb57600080fd5b806303855921146101ea5780630f613f1514610212578063122b83f914610232575b600080fd5b6101fd6101f836600461373c565b6106ab565b60405190151581526020015b60405180910390f35b61022561022036600461373c565b610703565b6040516102099190613817565b6102597f000000000000000000000000000000000000000000000000000000000000000081565b6040516001600160a01b039091168152602001610209565b61028561027f36600461373c565b50600090565b604051908152602001610209565b6102856102a13660046138d5565b61091a565b6102b96102b436600461391c565b610a62565b60405161020996959493929190613965565b6102de6102d936600461373c565b610b3b565b60405161020994939291906139ad565b6101fd6102fc36600461373c565b6001600160601b0316600090815260016020526040902054600160701b900460ff1690565b61028561032f3660046139e6565b600092915050565b61034a61034536600461373c565b610c18565b604051610209919060006101008201905065ffffffffffff8084511683528060208501511660208401525060ff604084015116604083015260ff606084015116606083015260808301511515608083015260a083015160a083015260c083015160c083015260e083015160e083015292915050565b6000546103d19065ffffffffffff1681565b60405165ffffffffffff9091168152602001610209565b6103fb6103f6366004613a5a565b610cb5565b6040516001600160601b039091168152602001610209565b61048161042136600461373c565b6001602081905260009182526040909120805491810154600282015460039092015465ffffffffffff80851694600160301b81049091169360ff600160601b8304811694600160681b8404821694600160701b9094049091169290919088565b6040805165ffffffffffff998a16815298909716602089015260ff958616968801969096529390921660608601521515608085015260a084015260c083015260e082015261010001610209565b6101fd6104dc36600461373c565b610de1565b6104f46104ef366004613aeb565b610e65565b604051610209929190613b46565b6101fd61051036600461373c565b60046020526000908152604090205460ff1681565b6105386105333660046139e6565b610f7f565b6040516102099190613bbd565b61028561055336600461373c565b6001600160601b03166000908152600160208190526040909120015490565b61058561058036600461373c565b611233565b005b61059a610595366004613d2d565b611379565b604080519215158352602083019190915201610209565b60006040516102099190613e51565b6040516630314c5342424160c81b8152602001610209565b6105eb6105e636600461391c565b611664565b6040516102099190613e6b565b610585610606366004613e7e565b61179e565b61061e61061936600461391c565b611ba9565b6040805182516001600160601b03168152602080840151908201529181015190820152606001610209565b61065c61065736600461373c565b611cab565b6040516102099796959493929190613f5e565b610585611d83565b61028561068536600461373c565b611dd0565b61069d61069836600461373c565b611e5b565b604051610209929190613fb6565b6001600160601b03811660009081526001602052604081205465ffffffffffff428116600160301b9092041610806106fd57506001600160601b03821660009081526001602081905260409091200154155b92915050565b61075e604080516101008101909152806000815260200160006001600160601b0316815260200160006001600160601b0316815260200160008152602001600081526020016000815260200160608152602001606081525090565b6001600160601b0382166000908152600260208190526040918290208251610100810190935280549091839160ff169081111561079d5761079d613759565b60028111156107ae576107ae613759565b815281546001600160601b03610100820481166020840152600160681b9091041660408201526001820154606082015260028201546080820152600382015460a082015260048201805460c09092019161080790614068565b80601f016020809104026020016040519081016040528092919081815260200182805461083390614068565b80156108805780601f1061085557610100808354040283529160200191610880565b820191906000526020600020905b81548152906001019060200180831161086357829003601f168201915b505050505081526020016005820180548060200260200160405190810160405280929190818152602001828054801561090a57602002820191906000526020600020906000905b82829054906101000a90046001600160601b03166001600160601b0316815260200190600c0190602082600b010492830192600103820291508084116108c75790505b5050505050815250509050919050565b6000336001600160a01b037f0000000000000000000000000000000000000000000000000000000000000000161461096c576040516366e069e160e01b81523360048201526024015b60405180910390fd5b7f00000000000000000000000000000000000000000000000000000000000000006001600160a01b0316635c774ed76040518163ffffffff1660e01b8152600401602060405180830381865afa1580156109ca573d6000803e3d6000fd5b505050506040513d601f19601f820116820180604052508101906109ee91906140a2565b15610a0c5760405163115250c560e21b815260040160405180910390fd5b610a1584611f76565b610a1e84611fc4565b610a2784612013565b610a30846120af565b610a3a84846120ff565b610a4584848461215a565b610a4f84846121b5565b610a5a84848461220f565b949350505050565b600360208181526000938452604080852090915291835291208054600182015460028301549383015460048401805460ff8516966001600160a01b036101009096048616969486169516939190610ab890614068565b80601f0160208091040260200160405190810160405280929190818152602001828054610ae490614068565b8015610b315780601f10610b0657610100808354040283529160200191610b31565b820191906000526020600020905b815481529060010190602001808311610b1457829003601f168201915b5050505050905086565b6001600160601b03808216600090815260026020526040812080546005820154600483018054949586958695606095909460ff8216949093610100909204909116918190610b8890614068565b80601f0160208091040260200160405190810160405280929190818152602001828054610bb490614068565b8015610c015780601f10610bd657610100808354040283529160200191610c01565b820191906000526020600020905b815481529060010190602001808311610be457829003601f168201915b505050505090509450945094509450509193509193565b610c20613640565b506001600160601b0316600090815260016020818152604092839020835161010081018552815465ffffffffffff8082168352600160301b8204169382019390935260ff600160601b8404811695820195909552600160681b830485166060820152600160701b909204909316151560808201529082015460a0820152600282015460c082015260039091015460e082015290565b6000336001600160a01b037f00000000000000000000000000000000000000000000000000000000000000001614610d02576040516366e069e160e01b8152336004820152602401610963565b7f00000000000000000000000000000000000000000000000000000000000000006001600160a01b0316635c774ed76040518163ffffffff1660e01b8152600401602060405180830381865afa158015610d60573d6000803e3d6000fd5b505050506040513d601f19601f82011682018060405250810190610d8491906140a2565b15610da25760405163115250c560e21b815260040160405180910390fd5b610dab88611f76565b610db488611fc4565b610dbd88612013565b610dc6886120af565b610dd588888888888888612468565b98975050505050505050565b6001600160601b03811660009081526001602081905260408220015415801590610e3457506001600160601b03821660009081526001602052604090205465ffffffffffff428116600160301b90920416115b80156106fd5750506001600160601b031660009081526001602052604090205465ffffffffffff4281169116111590565b60006060336001600160a01b037f00000000000000000000000000000000000000000000000000000000000000001614610eb4576040516366e069e160e01b8152336004820152602401610963565b7f00000000000000000000000000000000000000000000000000000000000000006001600160a01b0316635c774ed76040518163ffffffff1660e01b8152600401602060405180830381865afa158015610f12573d6000803e3d6000fd5b505050506040513d601f19601f82011682018060405250810190610f3691906140a2565b15610f545760405163115250c560e21b815260040160405180910390fd5b610f5d86611f76565b610f6686612663565b610f728686868661270d565b9150915094509492505050565b6060610f8a83611f76565b610f938361272a565b610f9c8361275c565b610fa5836120af565b6001600160601b0380841660009081526002602052604090208054600590910180546101009092049092169190610fdd9083906140d5565b841115610ffd5760405163646bb80960e01b815260040160405180910390fd5b8054600090611016906001600160601b038516906140d5565b9050808510156110235750835b6000816001600160401b0381111561103d5761103d613c1f565b60405190808252806020026020018201604052801561107657816020015b611063613684565b81526020019060019003908161105b5790505b50905060005b82811015611228576001600160601b0380891660009081526003602052604081209186906110ad9085908a166140e8565b815481106110bd576110bd6140fb565b600091825260208083206002830401546001909216600c026101000a9091046001600160601b031683528201929092526040908101909120815160c081019092528054829060ff16600481111561111657611116613759565b600481111561112757611127613759565b815281546001600160a01b036101009091048116602083015260018301548116604083015260028301541660608201526003820154608082015260048201805460a09092019161117690614068565b80601f01602080910402602001604051908101604052809291908181526020018280546111a290614068565b80156111ef5780601f106111c4576101008083540402835291602001916111ef565b820191906000526020600020905b8154815290600101906020018083116111d257829003601f168201915b50505050508152505082828151811061120a5761120a6140fb565b6020026020010181905250808061122090614111565b91505061107c565b509695505050505050565b336001600160a01b037f0000000000000000000000000000000000000000000000000000000000000000161461127e576040516366e069e160e01b8152336004820152602401610963565b7f00000000000000000000000000000000000000000000000000000000000000006001600160a01b0316635c774ed76040518163ffffffff1660e01b8152600401602060405180830381865afa1580156112dc573d6000803e3d6000fd5b505050506040513d601f19601f8201168201806040525081019061130091906140a2565b1561131e5760405163115250c560e21b815260040160405180910390fd5b61132781611f76565b61133081612013565b61133981612763565b6001600160601b03166000908152600160208190526040822080546bffffffffffff0000000000001916600160301b4265ffffffffffff16021781550155565b600080336001600160a01b037f000000000000000000000000000000000000000000000000000000000000000016146113c7576040516366e069e160e01b8152336004820152602401610963565b7f00000000000000000000000000000000000000000000000000000000000000006001600160a01b0316635c774ed76040518163ffffffff1660e01b8152600401602060405180830381865afa158015611425573d6000803e3d6000fd5b505050506040513d601f19601f8201168201806040525081019061144991906140a2565b156114675760405163115250c560e21b815260040160405180910390fd5b845165ffffffffffff161580159061148a5750845165ffffffffffff4281169116105b156114be578451604051639421aa8960e01b815265ffffffffffff9182166004820152429091166024820152604401610963565b600054602086015165ffffffffffff9182169116101561150b5760208501516000546040516302c1012760e21b815265ffffffffffff928316600482015291166024820152604401610963565b611513613640565b855165ffffffffffff161561152957855161152b565b425b65ffffffffffff1680825260208701516115449161412a565b65ffffffffffff16602082015260ff8086166040808401919091529085166060808401919091529087015115156080808401919091529087015160a0830152860151611593908890839061279c565b6001600160601b03979097166000908152600160208181526040928390208451815492860151948601516060870151608088015165ffffffffffff9384166bffffffffffffffffffffffff1990961695909517600160301b93909716929092029590951761ffff60601b1916600160601b60ff9687160260ff60681b191617600160681b95909116949094029390931760ff60701b1916600160701b9115159190910217825560a083015190820181905560c0830151600283015560e0909201516003909101559596945050505050565b61166c613684565b6001600160601b0380841660009081526003602090815260408083209386168352929052819020815160c081019092528054829060ff1660048111156116b4576116b4613759565b60048111156116c5576116c5613759565b815281546001600160a01b036101009091048116602083015260018301548116604083015260028301541660608201526003820154608082015260048201805460a09092019161171490614068565b80601f016020809104026020016040519081016040528092919081815260200182805461174090614068565b801561178d5780601f106117625761010080835404028352916020019161178d565b820191906000526020600020905b81548152906001019060200180831161177057829003601f168201915b505050505081525050905092915050565b6117a782611f76565b6001600160601b038216600090815260026020819052604082205460ff16908111156117d5576117d5613759565b14158061180857506001600160601b038216600090815260016020526040902054600160301b900465ffffffffffff1642105b156118265760405163e75ec27760e01b815260040160405180910390fd5b6001600160601b038083166000908152600260205260409020805483516005909201805461010090920490931692906118609084906140d5565b826001600160601b031611156118895760405163646bb80960e01b815260040160405180910390fd5b60005b826001600160601b0316816001600160601b03161015611b095760006118d48787846001600160601b0316815181106118c7576118c76140fb565b60200260200101516128f6565b90506000836118e38488614150565b6001600160601b0316815481106118fc576118fc6140fb565b600091825260208083206002830401546001600160601b038c811685526003835260408086206001909516600c026101000a9092041680855292909152918290209151909250611950906004830190614170565b604051809103902083805190602001201461197e5760405163646bb80960e01b815260040160405180910390fd5b6000815460ff16600481111561199657611996613759565b146119a357505050611af7565b600460008a6001600160601b03166001600160601b0316815260200190815260200160002073__$77034020f3ec449d7563df6928dee62441$__63cc41934790918484600301548c896001600160601b031681518110611a0557611a056140fb565b6020908102919091010151516040516001600160e01b031960e087901b16815260048101949094526001600160601b0390921660248401526044830152606482015260840160006040518083038186803b158015611a6257600080fd5b505af4158015611a76573d6000803e3d6000fd5b5050825460ff191660021783555050600381015488516001600160601b03808516928c8216927f4db578d92c48bdcc8294c0103dac8ba2678d679b73a7200bd4d4210f56391796928d91908a16908110611ad257611ad26140fb565b6020908102919091018101515160408051938452918301520160405180910390a35050505b80611b01816141e6565b91505061188c565b506001600160601b03808616600090815260026020526040902080548492600191611b3b918591610100900416614150565b82546001600160601b0391821661010093840a9081029083021990911617909255835488831660009081526002602052604090205491909104909116039050611ba2576001600160601b0385166000908152600260205260409020805460ff191660011790555b5050505050565b611bd6604051806060016040528060006001600160601b0316815260200160008152602001600081525090565b6001600160601b0383166000908152600460208190526040918290209151636fae84f760e11b815273__$77034020f3ec449d7563df6928dee62441$__9263df5d09ee92611c38928791019182526001600160601b0316602082015260400190565b602060405180830381865af4158015611c55573d6000803e3d6000fd5b505050506040513d601f19601f82011682018060405250810190611c79919061420c565b6040805160608101825282546001600160601b0316815260018301546020820152600290920154908201529392505050565b60026020819052600091825260409091208054600182015492820154600383015460048401805460ff8516966001600160601b036101008704811697600160681b9097041695909493929091611d0090614068565b80601f0160208091040260200160405190810160405280929190818152602001828054611d2c90614068565b8015611d795780601f10611d4e57610100808354040283529160200191611d79565b820191906000526020600020905b815481529060010190602001808311611d5c57829003601f168201915b5050505050905087565b336001600160a01b037f00000000000000000000000000000000000000000000000000000000000000001614611dce576040516366e069e160e01b8152336004820152602401610963565b565b6001600160601b03811660009081526004602081905260408083209051635a9db8df60e01b81529182015273__$77034020f3ec449d7563df6928dee62441$__90635a9db8df90602401602060405180830381865af4158015611e37573d6000803e3d6000fd5b505050506040513d601f19601f820116820180604052508101906106fd919061420c565b606080336001600160a01b037f00000000000000000000000000000000000000000000000000000000000000001614611ea9576040516366e069e160e01b8152336004820152602401610963565b7f00000000000000000000000000000000000000000000000000000000000000006001600160a01b0316635c774ed76040518163ffffffff1660e01b8152600401602060405180830381865afa158015611f07573d6000803e3d6000fd5b505050506040513d601f19601f82011682018060405250810190611f2b91906140a2565b15611f495760405163115250c560e21b815260040160405180910390fd5b611f5283611f76565b611f5b8361272a565b611f64836120af565b611f6d83612a26565b91509150915091565b6001600160601b03811660009081526001602052604081205465ffffffffffff169003611fc157604051638c54233f60e01b81526001600160601b0382166004820152602401610963565b50565b6001600160601b03811660009081526001602052604090205465ffffffffffff42811691161115611fc157604051633ccc2fdb60e01b81526001600160601b0382166004820152602401610963565b6001600160601b03811660009081526001602052604090205465ffffffffffff428116600160301b90920416101561206957604051633ccc2fdb60e01b81526001600160601b0382166004820152602401610963565b6001600160601b0381166000908152600160208190526040822001549003611fc157604051633ccc2fdb60e01b81526001600160601b0382166004820152602401610963565b60025b6001600160601b03821660009081526002602081905260409091205460ff16908111156120e1576120e1613759565b03611fc15760405163e75ec27760e01b815260040160405180910390fd5b6001600160601b03808316600090815260026020526040902054600160681b9004811690821610612156576040516322a16ebf60e01b81526001600160601b03808416600483015282166024820152604401610963565b5050565b6001600160601b038084166000908152600360209081526040808320938616835292905220546001600160a01b0382811661010090920416146121b057604051633a27034560e01b815260040160405180910390fd5b505050565b60016001600160601b0380841660009081526003602090815260408083209386168352929052205460ff1660048111156121f1576121f1613759565b036121565760405163a53f524f60e01b815260040160405180910390fd5b6000806001600160601b0380861660009081526003602090815260408083209388168352929052205460ff16600481111561224c5761224c613759565b1461226a5760405163e75ec27760e01b815260040160405180910390fd5b6001600160601b038416600090815260026020819052604082205460ff169081111561229857612298613759565b146122b65760405163e75ec27760e01b815260040160405180910390fd5b6001600160601b0384811660008181526003602090815260408083209488168352938152838220805460ff191660011790559181526002909152908120600501805490915b8181101561243357856001600160601b031683828154811061231f5761231f6140fb565b600091825260209091206002820401546001909116600c026101000a90046001600160601b03160361242157826123576001846140d5565b81548110612367576123676140fb565b9060005260206000209060029182820401919006600c029054906101000a90046001600160601b03168382815481106123a2576123a26140fb565b9060005260206000209060029182820401919006600c026101000a8154816001600160601b0302191690836001600160601b03160217905550828054806123eb576123eb614225565b60008281526020902060026000199092019182040180546001600160601b03600c60018516026101000a02191690559055612433565b8061242b81614111565b9150506122fb565b5050506001600160601b0380851660009081526003602081815260408084209488168452939052919020015490509392505050565b6000612472613684565b6001600160a01b038089166020808401919091528882166040808501919091529188166060840152608083018790528151601f86018290048202810182019092528482528590859081908401838280828437600092018290525060a086019490945250839291506124e09050565b908160048111156124f3576124f3613759565b9052506001600160601b03808a1660009081526002602052604090208054600160681b900490911690600d612527836141e6565b82546101009290920a6001600160601b038181021990931691831602179091558a81166000908152600360209081526040808320938516835292905220825181549294508392829060ff1916600183600481111561258757612587613759565b0217905550602082015181546001600160a01b0391821661010002610100600160a81b031990911617825560408301516001830180549183166001600160a01b031992831617905560608401516002840180549190931691161790556080820151600382015560a082015160048201906126019082614289565b5050506001600160601b03808a1660009081526002602081815260408320600501805460018181018355918552919093209181049091018054868516600c93909416929092026101000a92830292909302191617905550979650505050505050565b6001600160601b038116600090815260026020819052604082205460ff169081111561269157612691613759565b1415806126bd57506001600160601b03811660009081526001602052604090205465ffffffffffff1642105b806126ef57506001600160601b038116600090815260016020526040902054600160301b900465ffffffffffff164210155b15611fc15760405163590a661160e01b815260040160405180910390fd5b6000606060405163260cd52960e11b815260040160405180910390fd5b61273381610de1565b15611fc15760405163542262e160e11b81526001600160601b0382166004820152602401610963565b60016120b2565b61276c8161272a565b61277581612013565b6001600160601b03166000908152600260208190526040909120805460ff19169091179055565b600080828060200190518101906127b3919061435b565b8051909150620186a062ffffff90911611156127e257604051633350f82560e11b815260040160405180910390fd5b6103e862ffffff16816020015162ffffff1610806128135750620186a065ffffffffffff16816020015162ffffff16115b1561283157604051633350f82560e11b815260040160405180910390fd5b80606001515160801461285757604051633350f82560e11b815260040160405180910390fd5b6001600160601b03851660009081526002602052604090819020908201516001820155815160a0860151620186a0916128979162ffffff9091169061442e565b6128a1919061445b565b6002820155602082015160a0860151620186a0916128c69162ffffff9091169061442e565b6128d0919061445b565b6003820155606082015160048201906128e99082614289565b5060019695505050505050565b6060612a1f826000015160405160200161291291815260200190565b604051602081830303815290604052612933856001600160601b0316612d32565b604051602001612943919061446f565b60408051601f19818403018152908290526201000160e81b60208301529060230160408051601f198184030181529181526001600160601b0388166000908152600260205220600401805461299790614068565b80601f01602080910402602001604051908101604052809291908181526020018280546129c390614068565b8015612a105780601f106129e557610100808354040283529160200191612a10565b820191906000526020600020905b8154815290600101906020018083116129f357829003601f168201915b50505050508660200151612e5d565b9392505050565b60608060016001600160601b03841660009081526002602081905260409091205460ff1690811115612a5a57612a5a613759565b14612a785760405163e75ec27760e01b815260040160405180910390fd5b600080612a848561308e565b9150915081600003612ad7575050506001600160601b03919091166000908152600260208181526040808420805460ff191690931790925560018082528284200183905581519081019091529081529091565b6001600160601b03851660009081526004602090815260408083206001909252822054909190612b1290600160681b900460ff16600a61456f565b9050826001600160401b03811115612b2c57612b2c613c1f565b604051908082528060200260200182016040528015612b6557816020015b612b526136d6565b815260200190600190039081612b4a5790505b50955060008060005b85811015612cd85760405163f6722be160e01b81526004810186905260009073__$77034020f3ec449d7563df6928dee62441$__9063f6722be190602401606060405180830381865af4158015612bc9573d6000803e3d6000fd5b505050506040513d601f19601f82011682018060405250810190612bed919061457e565b9050600088868360200151612c02919061442e565b612c0c919061445b565b6001600160601b03808e1660009081526003602090815260408083208751909416835292905220909150612c3e6136d6565b81546001600160a01b0361010090910481168252600183015481166020830152600283015416604082015260038201546060820181905260808201849052612c8690886140e8565b9650612c9283876140e8565b825460ff191660031783558d5190965081908e9087908110612cb657612cb66140fb565b6020026020010181905250505050508080612cd090614111565b915050612b6e565b506001600160601b03989098166000908152600260208181526040808420805460ff191684179055600180835281852090810185905560038101959095559390910199909955815198890190915287525093959350505050565b606081600003612d595750506040805180820190915260018152600360fc1b602082015290565b8160005b8115612d835780612d6d81614111565b9150612d7c9050600a8361445b565b9150612d5d565b6000816001600160401b03811115612d9d57612d9d613c1f565b6040519080825280601f01601f191660200182016040528015612dc7576020820181803683370190505b509050815b8515612e5457612ddd6001826140d5565b90506000612dec600a8861445b565b612df790600a61442e565b612e0190886140d5565b612e0c9060306145df565b905060008160f81b905080848481518110612e2957612e296140fb565b60200101906001600160f81b031916908160001a905350612e4b600a8961445b565b97505050612dcc565b50949350505050565b6060612e7160086001600160401b036145f8565b6001600160401b031685511115612ebb5760405162461bcd60e51b815260206004820152600e60248201526d6c6162656c20746f6f206c6f6e6760901b6044820152606401610963565b85518351612eca6042826140d5565b821115612f0c5760405162461bcd60e51b815260206004820152601060248201526f6d65737361676520746f6f206c6f6e6760801b6044820152606401610963565b6000600288604051612f1e919061446f565b602060405180830381855afa158015612f3b573d6000803e3d6000fd5b5050506040513d601f19601f82011682018060405250810190612f5e919061420c565b9050600083612f6e6042856140d5565b612f7891906140d5565b6001600160401b03811115612f8f57612f8f613c1f565b6040519080825280601f01601f191660200182016040528015612fb9576020820181803683370190505b50905060008282600160f81b8d604051602001612fd9949392919061461e565b60408051601f19818403018152828252602083018a9052925060009161301a910160408051601f198184030181529190526130156021886140d5565b613301565b905060006130288383613473565b9050600080613038836020613301565b61304190614668565b604051908c1892506000915061305f9082908490869060200161468c565b604051602081830303815290604052905061307b818e8e61356c565b9f9e505050505050505050505050505050565b6001600160601b0381166000908152600160208190526040822090810154905482919082906130c890600160681b900460ff16600a61456f565b6001600160601b03861660009081526004602081905260408083209051635a9db8df60e01b815291820181905292935073__$77034020f3ec449d7563df6928dee62441$__90635a9db8df90602401602060405180830381865af4158015613134573d6000803e3d6000fd5b505050506040513d601f19601f82011682018060405250810190613158919061420c565b90506000805b828110156132c357604051636fae84f760e11b8152600481018590526001600160601b038216602482015260009073__$77034020f3ec449d7563df6928dee62441$__9063df5d09ee90604401602060405180830381865af41580156131c8573d6000803e3d6000fd5b505050506040513d601f19601f820116820180604052508101906131ec919061420c565b905060008160020154878360010154613205919061442e565b61320f919061445b565b905081600101548461322191906140e8565b9350600081613230898761442e565b61323a919061445b565b905088811061325d57819a5083600161325391906140e8565b99505050506132c3565b6132686001876140d5565b84036132ad576001600160601b038c16600090815260026020819052604090912001548110156132a6575060009b8c9b509950505050505050505050565b819a508599505b50505080806132bb90614111565b91505061315e565b506001600160601b0388166000908152600260205260409020600101548710156132f7575060009788975095505050505050565b5050505050915091565b60606420000000008211156133485760405162461bcd60e51b815260206004820152600d60248201526c6d61736b20746f6f206c6f6e6760981b6044820152606401610963565b6000826001600160401b0381111561336257613362613c1f565b6040519080825280601f01601f19166020018201604052801561338c576020820181803683370190505b509050600061339c6020856146bf565b156133a85760016133ab565b60005b60ff166133b960208661445b565b6133c391906140e8565b905060005b8163ffffffff168163ffffffff161015613469576000600287836040516020016133f39291906146d3565b60408051601f198184030181529082905261340d9161446f565b602060405180830381855afa15801561342a573d6000803e3d6000fd5b5050506040513d601f19601f8201168201806040525081019061344d919061420c565b602083810286010152508061346181614705565b9150506133c8565b5090949350505050565b81518151606091908082146134c35760405162461bcd60e51b8152602060048201526016602482015275786f723a20646966666572656e74206c656e6774687360501b6044820152606401610963565b60006134d06020846146bf565b156134dc5760016134df565b60005b60ff166134ed60208561445b565b6134f791906140e8565b90506000836001600160401b0381111561351357613513613c1f565b6040519080825280601f01601f19166020018201604052801561353d576020820181803683370190505b50905060005b828110156112285760208181028981018201518982018301511890840190910152600101613543565b606060008060056001600160a01b031686518651865189898960405160200161359a9695949392919061471e565b60408051601f19818403018152908290526135b49161446f565b600060405180830381855afa9150503d80600081146135ef576040519150601f19603f3d011682016040523d82523d6000602084013e6135f4565b606091505b5091509150816136375760405162461bcd60e51b815260206004820152600e60248201526d36b7b232bc38103330b4b632b21760911b6044820152606401610963565b95945050505050565b6040805161010081018252600080825260208201819052918101829052606081018290526080810182905260a0810182905260c0810182905260e081019190915290565b6040805160c08101909152806000815260200160006001600160a01b0316815260200160006001600160a01b0316815260200160006001600160a01b0316815260200160008152602001606081525090565b6040518060c0016040528060006001600160a01b0316815260200160006001600160a01b0316815260200160006001600160a01b031681526020016000815260200160008152602001606081525090565b6001600160601b0381168114611fc157600080fd5b60006020828403121561374e57600080fd5b8135612a1f81613727565b634e487b7160e01b600052602160045260246000fd5b6003811061377f5761377f613759565b9052565b60005b8381101561379e578181015183820152602001613786565b50506000910152565b600081518084526137bf816020860160208601613783565b601f01601f19169290920160200192915050565b600081518084526020808501945080840160005b8381101561380c5781516001600160601b0316875295820195908201906001016137e7565b509495945050505050565b6020815261382960208201835161376f565b6001600160601b0360208301511660408201526000604083015161385860608401826001600160601b03169052565b5060608301516080830152608083015160a083015260a083015160c083015260c08301516101008060e08501526138936101208501836137a7565b915060e0850151601f1985840301828601526138af83826137d3565b9695505050505050565b80356001600160a01b03811681146138d057600080fd5b919050565b6000806000606084860312156138ea57600080fd5b83356138f581613727565b9250602084013561390581613727565b9150613913604085016138b9565b90509250925092565b6000806040838503121561392f57600080fd5b823561393a81613727565b9150602083013561394a81613727565b809150509250929050565b6005811061377f5761377f613759565b61396f8188613955565b6001600160a01b0386811660208301528581166040830152841660608201526080810183905260c060a08201819052600090610dd5908301846137a7565b6139b7818661376f565b60006001600160601b038086166020840152808516604084015250608060608301526138af60808301846137a7565b600080604083850312156139f957600080fd5b8235613a0481613727565b946020939093013593505050565b60008083601f840112613a2457600080fd5b5081356001600160401b03811115613a3b57600080fd5b602083019150836020828501011115613a5357600080fd5b9250929050565b600080600080600080600060c0888a031215613a7557600080fd5b8735613a8081613727565b9650613a8e602089016138b9565b9550613a9c604089016138b9565b9450613aaa606089016138b9565b93506080880135925060a08801356001600160401b03811115613acc57600080fd5b613ad88a828b01613a12565b989b979a50959850939692959293505050565b60008060008060608587031215613b0157600080fd5b8435613b0c81613727565b93506020850135925060408501356001600160401b03811115613b2e57600080fd5b613b3a87828801613a12565b95989497509550505050565b828152604060208201526000610a5a60408301846137a7565b613b6a828251613955565b6000602082015160018060a01b03808216602086015280604085015116604086015280606085015116606086015250506080820151608084015260a082015160c060a0850152610a5a60c08501826137a7565b6000602080830181845280855180835260408601915060408160051b870101925083870160005b82811015613c1257603f19888603018452613c00858351613b5f565b94509285019290850190600101613be4565b5092979650505050505050565b634e487b7160e01b600052604160045260246000fd5b60405160a081016001600160401b0381118282101715613c5757613c57613c1f565b60405290565b604080519081016001600160401b0381118282101715613c5757613c57613c1f565b604051608081016001600160401b0381118282101715613c5757613c57613c1f565b604051601f8201601f191681016001600160401b0381118282101715613cc957613cc9613c1f565b604052919050565b803565ffffffffffff811681146138d057600080fd5b8015158114611fc157600080fd5b60006001600160401b03821115613d0e57613d0e613c1f565b50601f01601f191660200190565b803560ff811681146138d057600080fd5b60008060008060808587031215613d4357600080fd5b8435613d4e81613727565b93506020858101356001600160401b0380821115613d6b57600080fd5b9087019060a0828a031215613d7f57600080fd5b613d87613c35565b613d9083613cd1565b8152613d9d848401613cd1565b848201526040830135613daf81613ce7565b604082015260608381013590820152608083013582811115613dd057600080fd5b80840193505089601f840112613de557600080fd5b82359150613dfa613df583613cf5565b613ca1565b8281528a85848601011115613e0e57600080fd5b828585018683013760008584830101528060808301525080965050505050613e3860408601613d1c565b9150613e4660608601613d1c565b905092959194509250565b6020810160048310613e6557613e65613759565b91905290565b602081526000612a1f6020830184613b5f565b6000806040808486031215613e9257600080fd5b8335613e9d81613727565b92506020848101356001600160401b0380821115613eba57600080fd5b818701915087601f830112613ece57600080fd5b813581811115613ee057613ee0613c1f565b613eee848260051b01613ca1565b818152848101925060069190911b830184019089821115613f0e57600080fd5b928401925b81841015613f4e5785848b031215613f2b5760008081fd5b613f33613c5d565b84358152858501358682015283529285019291840191613f13565b8096505050505050509250929050565b613f68818961376f565b60006001600160601b0380891660208401528088166040840152508560608301528460808301528360a083015260e060c0830152613fa960e08301846137a7565b9998505050505050505050565b60006040808301818452808651808352606092508286019150828160051b8701016020808a0160005b8481101561405557898403605f19018652815180516001600160a01b0390811686528482015181168587015289820151168986015287810151888601526080808201519086015260a09081015160c091860182905290614041818701836137a7565b978501979550505090820190600101613fdf565b505087820390880152613fa981896137a7565b600181811c9082168061407c57607f821691505b60208210810361409c57634e487b7160e01b600052602260045260246000fd5b50919050565b6000602082840312156140b457600080fd5b8151612a1f81613ce7565b634e487b7160e01b600052601160045260246000fd5b818103818111156106fd576106fd6140bf565b808201808211156106fd576106fd6140bf565b634e487b7160e01b600052603260045260246000fd5b600060018201614123576141236140bf565b5060010190565b65ffffffffffff818116838216019080821115614149576141496140bf565b5092915050565b6001600160601b03818116838216019080821115614149576141496140bf565b600080835461417e81614068565b6001828116801561419657600181146141ab576141da565b60ff19841687528215158302870194506141da565b8760005260208060002060005b858110156141d15781548a8201529084019082016141b8565b50505082870194505b50929695505050505050565b60006001600160601b03808316818103614202576142026140bf565b6001019392505050565b60006020828403121561421e57600080fd5b5051919050565b634e487b7160e01b600052603160045260246000fd5b601f8211156121b057600081815260208120601f850160051c810160208610156142625750805b601f850160051c820191505b818110156142815782815560010161426e565b505050505050565b81516001600160401b038111156142a2576142a2613c1f565b6142b6816142b08454614068565b8461423b565b602080601f8311600181146142eb57600084156142d35750858301515b600019600386901b1c1916600185901b178555614281565b600085815260208120601f198616915b8281101561431a578886015182559484019460019091019084016142fb565b50858210156143385787850151600019600388901b60f8161c191681555b5050505050600190811b01905550565b805162ffffff811681146138d057600080fd5b6000602080838503121561436e57600080fd5b82516001600160401b038082111561438557600080fd5b908401906080828703121561439957600080fd5b6143a1613c7f565b6143aa83614348565b81526143b7848401614348565b84820152604083015160408201526060830151828111156143d757600080fd5b80840193505086601f8401126143ec57600080fd5b825191506143fc613df583613cf5565b828152878584860101111561441057600080fd5b61441f83868301878701613783565b60608201529695505050505050565b80820281158282048414176106fd576106fd6140bf565b634e487b7160e01b600052601260045260246000fd5b60008261446a5761446a614445565b500490565b60008251614481818460208701613783565b9190910192915050565b600181815b808511156144c65781600019048211156144ac576144ac6140bf565b808516156144b957918102915b93841c9390800290614490565b509250929050565b6000826144dd575060016106fd565b816144ea575060006106fd565b8160018114614500576002811461450a57614526565b60019150506106fd565b60ff84111561451b5761451b6140bf565b50506001821b6106fd565b5060208310610133831016604e8410600b8410161715614549575081810a6106fd565b614553838361448b565b8060001904821115614567576145676140bf565b029392505050565b6000612a1f60ff8416836144ce565b60006060828403121561459057600080fd5b604051606081018181106001600160401b03821117156145b2576145b2613c1f565b60405282516145c081613727565b8152602083810151908201526040928301519281019290925250919050565b60ff81811683821601908111156106fd576106fd6140bf565b60006001600160401b038084168061461257614612614445565b92169190910492915050565b84815260008451614636816020850160208901613783565b808301905060ff60f81b85166020820152835161465a816021840160208801613783565b016021019695505050505050565b8051602080830151919081101561409c5760001960209190910360031b1b16919050565b60ff60f81b84168152826001820152600082516146b0816021850160208701613783565b91909101602101949350505050565b6000826146ce576146ce614445565b500690565b600083516146e5818460208801613783565b60e09390931b6001600160e01b0319169190920190815260040192915050565b600063ffffffff808316818103614202576142026140bf565b86815285602082015284604082015260008451614742816060850160208901613783565b845190830190614759816060840160208901613783565b845191019061476f816060840160208801613783565b016060019897505050505050505056fea2646970667358221220ee5f61e0ca865aa036db4e259ae0535d92eb2d28eca240a2b93de1f9b53f782b64736f6c63430008130033",
    "linkReferences": {
      "src/modules/auctions/LSBBA/MaxPriorityQueue.sol": {
        "MaxPriorityQueue": [
          {
            "start": 7030,
            "length": 20
          },
          {
            "start": 7596,
            "length": 20
          },
          {
            "start": 8105,
            "length": 20
          },
          {
            "start": 11579,
            "length": 20
          },
          {
            "start": 12966,
            "length": 20
          },
          {
            "start": 13114,
            "length": 20
          }
        ]
      }
    }
  },
  "methodIdentifiers": {
    "INIT()": "ea643914",
    "PARENT()": "122b83f9",
    "TYPE()": "bb24fe8a",
    "VEECODE()": "d61735ca",
    "auction(uint96,(uint48,uint48,bool,uint256,bytes),uint8,uint8)": "bae96bdd",
    "auctionData(uint96)": "e2cfa6ea",
    "bid(uint96,address,address,address,uint256,bytes)": "56ab110b",
    "cancelAuction(uint96)": "b04046df",
    "cancelBid(uint96,uint96,address)": "1c444d11",
    "capacityInQuote(uint96)": "39792cdc",
    "decryptAndSortBids(uint96,(uint256,bytes32)[])": "dcfab7a6",
    "getBidData(uint96,uint96)": "d756ff97",
    "getDecryptData(uint96)": "2c7634ab",
    "getLot(uint96)": "4e1f4258",
    "getLotData(uint96)": "0f613f15",
    "getNextBidsToDecrypt(uint96,uint256)": "9dffb4d0",
    "getSortedBidCount(uint96)": "f6dac886",
    "getSortedBidData(uint96,uint96)": "e0eb8951",
    "hasEnded(uint96)": "03855921",
    "isLive(uint96)": "732efc03",
    "lotData(uint96)": "5806afc3",
    "lotEncryptedBids(uint96,uint96)": "20cff4e0",
    "lotSortedBids(uint96)": "9369d830",
    "maxAmountAccepted(uint96)": "1a85c634",
    "maxPayout(uint96)": "d3ad2fed",
    "minAuctionDuration()": "54134876",
    "payoutFor(uint96,uint256)": "bd8dd0fd",
    "priceFor(uint96,uint256)": "4dc1a12f",
    "purchase(uint96,uint256,bytes)": "76103c8f",
    "remainingCapacity(uint96)": "ace54da5",
    "settle(uint96)": "fb9d3cb6"
  },
  "id": 36
}