{
  "abi": [
    {
      "type": "constructor",
      "inputs": [
        {
          "name": "owner_",
          "type": "address",
          "internalType": "address"
        },
        {
          "name": "protocol_",
          "type": "address",
          "internalType": "address"
        },
        {
          "name": "permit2_",
          "type": "address",
          "internalType": "address"
        }
      ],
      "stateMutability": "nonpayable"
    },
    {
      "type": "function",
      "name": "auction",
      "inputs": [
        {
          "name": "routing_",
          "type": "tuple",
          "internalType": "struct Auctioneer.RoutingParams",
          "components": [
            {
              "name": "auctionType",
              "type": "bytes5",
              "internalType": "Keycode"
            },
            {
              "name": "baseToken",
              "type": "address",
              "internalType": "contract ERC20"
            },
            {
              "name": "quoteToken",
              "type": "address",
              "internalType": "contract ERC20"
            },
            {
              "name": "curator",
              "type": "address",
              "internalType": "address"
            },
            {
              "name": "hooks",
              "type": "address",
              "internalType": "contract IHooks"
            },
            {
              "name": "allowlist",
              "type": "address",
              "internalType": "contract IAllowlist"
            },
            {
              "name": "allowlistParams",
              "type": "bytes",
              "internalType": "bytes"
            },
            {
              "name": "derivativeType",
              "type": "bytes5",
              "internalType": "Keycode"
            },
            {
              "name": "derivativeParams",
              "type": "bytes",
              "internalType": "bytes"
            }
          ]
        },
        {
          "name": "params_",
          "type": "tuple",
          "internalType": "struct Auction.AuctionParams",
          "components": [
            {
              "name": "start",
              "type": "uint48",
              "internalType": "uint48"
            },
            {
              "name": "duration",
              "type": "uint48",
              "internalType": "uint48"
            },
            {
              "name": "capacityInQuote",
              "type": "bool",
              "internalType": "bool"
            },
            {
              "name": "capacity",
              "type": "uint256",
              "internalType": "uint256"
            },
            {
              "name": "implParams",
              "type": "bytes",
              "internalType": "bytes"
            }
          ]
        }
      ],
      "outputs": [
        {
          "name": "lotId",
          "type": "uint96",
          "internalType": "uint96"
        }
      ],
      "stateMutability": "nonpayable"
    },
    {
      "type": "function",
      "name": "bid",
      "inputs": [
        {
          "name": "params_",
          "type": "tuple",
          "internalType": "struct Router.BidParams",
          "components": [
            {
              "name": "lotId",
              "type": "uint96",
              "internalType": "uint96"
            },
            {
              "name": "recipient",
              "type": "address",
              "internalType": "address"
            },
            {
              "name": "referrer",
              "type": "address",
              "internalType": "address"
            },
            {
              "name": "amount",
              "type": "uint256",
              "internalType": "uint256"
            },
            {
              "name": "auctionData",
              "type": "bytes",
              "internalType": "bytes"
            },
            {
              "name": "allowlistProof",
              "type": "bytes",
              "internalType": "bytes"
            },
            {
              "name": "permit2Data",
              "type": "bytes",
              "internalType": "bytes"
            }
          ]
        }
      ],
      "outputs": [
        {
          "name": "",
          "type": "uint96",
          "internalType": "uint96"
        }
      ],
      "stateMutability": "nonpayable"
    },
    {
      "type": "function",
      "name": "calculateQuoteFees",
      "inputs": [
        {
          "name": "auctionType_",
          "type": "bytes5",
          "internalType": "Keycode"
        },
        {
          "name": "hasReferrer_",
          "type": "bool",
          "internalType": "bool"
        },
        {
          "name": "amount_",
          "type": "uint256",
          "internalType": "uint256"
        }
      ],
      "outputs": [
        {
          "name": "toReferrer",
          "type": "uint256",
          "internalType": "uint256"
        },
        {
          "name": "toProtocol",
          "type": "uint256",
          "internalType": "uint256"
        }
      ],
      "stateMutability": "view"
    },
    {
      "type": "function",
      "name": "cancel",
      "inputs": [
        {
          "name": "lotId_",
          "type": "uint96",
          "internalType": "uint96"
        }
      ],
      "outputs": [],
      "stateMutability": "nonpayable"
    },
    {
      "type": "function",
      "name": "claimModuleGas",
      "inputs": [
        {
          "name": "reference_",
          "type": "bytes7",
          "internalType": "Veecode"
        }
      ],
      "outputs": [],
      "stateMutability": "nonpayable"
    },
    {
      "type": "function",
      "name": "claimRewards",
      "inputs": [
        {
          "name": "token_",
          "type": "address",
          "internalType": "address"
        }
      ],
      "outputs": [],
      "stateMutability": "nonpayable"
    },
    {
      "type": "function",
      "name": "claimYieldAndGas",
      "inputs": [],
      "outputs": [],
      "stateMutability": "nonpayable"
    },
    {
      "type": "function",
      "name": "condensers",
      "inputs": [
        {
          "name": "auctionRef",
          "type": "bytes7",
          "internalType": "Veecode"
        },
        {
          "name": "derivativeRef",
          "type": "bytes7",
          "internalType": "Veecode"
        }
      ],
      "outputs": [
        {
          "name": "condenserRef",
          "type": "bytes7",
          "internalType": "Veecode"
        }
      ],
      "stateMutability": "view"
    },
    {
      "type": "function",
      "name": "curate",
      "inputs": [
        {
          "name": "lotId_",
          "type": "uint96",
          "internalType": "uint96"
        }
      ],
      "outputs": [],
      "stateMutability": "nonpayable"
    },
    {
      "type": "function",
      "name": "execOnModule",
      "inputs": [
        {
          "name": "veecode_",
          "type": "bytes7",
          "internalType": "Veecode"
        },
        {
          "name": "callData_",
          "type": "bytes",
          "internalType": "bytes"
        }
      ],
      "outputs": [
        {
          "name": "",
          "type": "bytes",
          "internalType": "bytes"
        }
      ],
      "stateMutability": "nonpayable"
    },
    {
      "type": "function",
      "name": "fees",
      "inputs": [
        {
          "name": "",
          "type": "bytes5",
          "internalType": "Keycode"
        }
      ],
      "outputs": [
        {
          "name": "protocol",
          "type": "uint48",
          "internalType": "uint48"
        },
        {
          "name": "referrer",
          "type": "uint48",
          "internalType": "uint48"
        },
        {
          "name": "maxCuratorFee",
          "type": "uint48",
          "internalType": "uint48"
        }
      ],
      "stateMutability": "view"
    },
    {
      "type": "function",
      "name": "getModuleForId",
      "inputs": [
        {
          "name": "lotId_",
          "type": "uint96",
          "internalType": "uint96"
        }
      ],
      "outputs": [
        {
          "name": "",
          "type": "address",
          "internalType": "contract AuctionModule"
        }
      ],
      "stateMutability": "view"
    },
    {
      "type": "function",
      "name": "getModuleForVeecode",
      "inputs": [
        {
          "name": "",
          "type": "bytes7",
          "internalType": "Veecode"
        }
      ],
      "outputs": [
        {
          "name": "",
          "type": "address",
          "internalType": "contract Module"
        }
      ],
      "stateMutability": "view"
    },
    {
      "type": "function",
      "name": "getModuleStatus",
      "inputs": [
        {
          "name": "",
          "type": "bytes5",
          "internalType": "Keycode"
        }
      ],
      "outputs": [
        {
          "name": "latestVersion",
          "type": "uint8",
          "internalType": "uint8"
        },
        {
          "name": "sunset",
          "type": "bool",
          "internalType": "bool"
        }
      ],
      "stateMutability": "view"
    },
    {
      "type": "function",
      "name": "installModule",
      "inputs": [
        {
          "name": "newModule_",
          "type": "address",
          "internalType": "contract Module"
        }
      ],
      "outputs": [],
      "stateMutability": "nonpayable"
    },
    {
      "type": "function",
      "name": "isExecOnModule",
      "inputs": [],
      "outputs": [
        {
          "name": "",
          "type": "bool",
          "internalType": "bool"
        }
      ],
      "stateMutability": "view"
    },
    {
      "type": "function",
      "name": "lotCounter",
      "inputs": [],
      "outputs": [
        {
          "name": "",
          "type": "uint96",
          "internalType": "uint96"
        }
      ],
      "stateMutability": "view"
    },
    {
      "type": "function",
      "name": "lotCuration",
      "inputs": [
        {
          "name": "lotId",
          "type": "uint96",
          "internalType": "uint96"
        }
      ],
      "outputs": [
        {
          "name": "curator",
          "type": "address",
          "internalType": "address"
        },
        {
          "name": "curated",
          "type": "bool",
          "internalType": "bool"
        }
      ],
      "stateMutability": "view"
    },
    {
      "type": "function",
      "name": "lotRouting",
      "inputs": [
        {
          "name": "lotId",
          "type": "uint96",
          "internalType": "uint96"
        }
      ],
      "outputs": [
        {
          "name": "auctionReference",
          "type": "bytes7",
          "internalType": "Veecode"
        },
        {
          "name": "owner",
          "type": "address",
          "internalType": "address"
        },
        {
          "name": "baseToken",
          "type": "address",
          "internalType": "contract ERC20"
        },
        {
          "name": "quoteToken",
          "type": "address",
          "internalType": "contract ERC20"
        },
        {
          "name": "hooks",
          "type": "address",
          "internalType": "contract IHooks"
        },
        {
          "name": "allowlist",
          "type": "address",
          "internalType": "contract IAllowlist"
        },
        {
          "name": "derivativeReference",
          "type": "bytes7",
          "internalType": "Veecode"
        },
        {
          "name": "derivativeParams",
          "type": "bytes",
          "internalType": "bytes"
        },
        {
          "name": "wrapDerivative",
          "type": "bool",
          "internalType": "bool"
        },
        {
          "name": "prefunding",
          "type": "uint256",
          "internalType": "uint256"
        }
      ],
      "stateMutability": "view"
    },
    {
      "type": "function",
      "name": "modules",
      "inputs": [
        {
          "name": "",
          "type": "uint256",
          "internalType": "uint256"
        }
      ],
      "outputs": [
        {
          "name": "",
          "type": "bytes5",
          "internalType": "Keycode"
        }
      ],
      "stateMutability": "view"
    },
    {
      "type": "function",
      "name": "modulesCount",
      "inputs": [],
      "outputs": [
        {
          "name": "",
          "type": "uint256",
          "internalType": "uint256"
        }
      ],
      "stateMutability": "view"
    },
    {
      "type": "function",
      "name": "owner",
      "inputs": [],
      "outputs": [
        {
          "name": "",
          "type": "address",
          "internalType": "address"
        }
      ],
      "stateMutability": "view"
    },
    {
      "type": "function",
      "name": "purchase",
      "inputs": [
        {
          "name": "params_",
          "type": "tuple",
          "internalType": "struct Router.PurchaseParams",
          "components": [
            {
              "name": "recipient",
              "type": "address",
              "internalType": "address"
            },
            {
              "name": "referrer",
              "type": "address",
              "internalType": "address"
            },
            {
              "name": "lotId",
              "type": "uint96",
              "internalType": "uint96"
            },
            {
              "name": "amount",
              "type": "uint256",
              "internalType": "uint256"
            },
            {
              "name": "minAmountOut",
              "type": "uint256",
              "internalType": "uint256"
            },
            {
              "name": "auctionData",
              "type": "bytes",
              "internalType": "bytes"
            },
            {
              "name": "allowlistProof",
              "type": "bytes",
              "internalType": "bytes"
            },
            {
              "name": "permit2Data",
              "type": "bytes",
              "internalType": "bytes"
            }
          ]
        }
      ],
      "outputs": [
        {
          "name": "payoutAmount",
          "type": "uint256",
          "internalType": "uint256"
        }
      ],
      "stateMutability": "nonpayable"
    },
    {
      "type": "function",
      "name": "refundBid",
      "inputs": [
        {
          "name": "lotId_",
          "type": "uint96",
          "internalType": "uint96"
        },
        {
          "name": "bidId_",
          "type": "uint96",
          "internalType": "uint96"
        }
      ],
      "outputs": [],
      "stateMutability": "nonpayable"
    },
    {
      "type": "function",
      "name": "rewards",
      "inputs": [
        {
          "name": "",
          "type": "address",
          "internalType": "address"
        },
        {
          "name": "",
          "type": "address",
          "internalType": "contract ERC20"
        }
      ],
      "outputs": [
        {
          "name": "",
          "type": "uint256",
          "internalType": "uint256"
        }
      ],
      "stateMutability": "view"
    },
    {
      "type": "function",
      "name": "setCondenser",
      "inputs": [
        {
          "name": "auctionRef_",
          "type": "bytes7",
          "internalType": "Veecode"
        },
        {
          "name": "derivativeRef_",
          "type": "bytes7",
          "internalType": "Veecode"
        },
        {
          "name": "condenserRef_",
          "type": "bytes7",
          "internalType": "Veecode"
        }
      ],
      "outputs": [],
      "stateMutability": "nonpayable"
    },
    {
      "type": "function",
      "name": "setCuratorFee",
      "inputs": [
        {
          "name": "auctionType_",
          "type": "bytes5",
          "internalType": "Keycode"
        },
        {
          "name": "fee_",
          "type": "uint48",
          "internalType": "uint48"
        }
      ],
      "outputs": [],
      "stateMutability": "nonpayable"
    },
    {
      "type": "function",
      "name": "setFee",
      "inputs": [
        {
          "name": "auctionType_",
          "type": "bytes5",
          "internalType": "Keycode"
        },
        {
          "name": "type_",
          "type": "uint8",
          "internalType": "enum FeeManager.FeeType"
        },
        {
          "name": "fee_",
          "type": "uint48",
          "internalType": "uint48"
        }
      ],
      "outputs": [],
      "stateMutability": "nonpayable"
    },
    {
      "type": "function",
      "name": "setProtocol",
      "inputs": [
        {
          "name": "protocol_",
          "type": "address",
          "internalType": "address"
        }
      ],
      "outputs": [],
      "stateMutability": "nonpayable"
    },
    {
      "type": "function",
      "name": "settle",
      "inputs": [
        {
          "name": "lotId_",
          "type": "uint96",
          "internalType": "uint96"
        }
      ],
      "outputs": [],
      "stateMutability": "nonpayable"
    },
    {
      "type": "function",
      "name": "sunsetModule",
      "inputs": [
        {
          "name": "keycode_",
          "type": "bytes5",
          "internalType": "Keycode"
        }
      ],
      "outputs": [],
      "stateMutability": "nonpayable"
    },
    {
      "type": "function",
      "name": "transferOwnership",
      "inputs": [
        {
          "name": "newOwner",
          "type": "address",
          "internalType": "address"
        }
      ],
      "outputs": [],
      "stateMutability": "nonpayable"
    },
    {
      "type": "event",
      "name": "AuctionCancelled",
      "inputs": [
        {
          "name": "lotId",
          "type": "uint96",
          "indexed": true,
          "internalType": "uint96"
        },
        {
          "name": "auctionRef",
          "type": "bytes7",
          "indexed": true,
          "internalType": "Veecode"
        }
      ],
      "anonymous": false
    },
    {
      "type": "event",
      "name": "AuctionCreated",
      "inputs": [
        {
          "name": "lotId",
          "type": "uint96",
          "indexed": true,
          "internalType": "uint96"
        },
        {
          "name": "auctionRef",
          "type": "bytes7",
          "indexed": true,
          "internalType": "Veecode"
        },
        {
          "name": "baseToken",
          "type": "address",
          "indexed": false,
          "internalType": "address"
        },
        {
          "name": "quoteToken",
          "type": "address",
          "indexed": false,
          "internalType": "address"
        }
      ],
      "anonymous": false
    },
    {
      "type": "event",
      "name": "Bid",
      "inputs": [
        {
          "name": "lotId",
          "type": "uint96",
          "indexed": true,
          "internalType": "uint96"
        },
        {
          "name": "bidId",
          "type": "uint96",
          "indexed": true,
          "internalType": "uint96"
        },
        {
          "name": "bidder",
          "type": "address",
          "indexed": true,
          "internalType": "address"
        },
        {
          "name": "amount",
          "type": "uint256",
          "indexed": false,
          "internalType": "uint256"
        }
      ],
      "anonymous": false
    },
    {
      "type": "event",
      "name": "Curated",
      "inputs": [
        {
          "name": "lotId",
          "type": "uint96",
          "indexed": true,
          "internalType": "uint96"
        },
        {
          "name": "curator",
          "type": "address",
          "indexed": true,
          "internalType": "address"
        }
      ],
      "anonymous": false
    },
    {
      "type": "event",
      "name": "ModuleInstalled",
      "inputs": [
        {
          "name": "keycode",
          "type": "bytes5",
          "indexed": true,
          "internalType": "Keycode"
        },
        {
          "name": "version",
          "type": "uint8",
          "indexed": true,
          "internalType": "uint8"
        },
        {
          "name": "location",
          "type": "address",
          "indexed": true,
          "internalType": "address"
        }
      ],
      "anonymous": false
    },
    {
      "type": "event",
      "name": "ModuleSunset",
      "inputs": [
        {
          "name": "keycode",
          "type": "bytes5",
          "indexed": true,
          "internalType": "Keycode"
        }
      ],
      "anonymous": false
    },
    {
      "type": "event",
      "name": "OwnershipTransferred",
      "inputs": [
        {
          "name": "user",
          "type": "address",
          "indexed": true,
          "internalType": "address"
        },
        {
          "name": "newOwner",
          "type": "address",
          "indexed": true,
          "internalType": "address"
        }
      ],
      "anonymous": false
    },
    {
      "type": "event",
      "name": "Purchase",
      "inputs": [
        {
          "name": "lotId",
          "type": "uint96",
          "indexed": true,
          "internalType": "uint96"
        },
        {
          "name": "buyer",
          "type": "address",
          "indexed": true,
          "internalType": "address"
        },
        {
          "name": "referrer",
          "type": "address",
          "indexed": false,
          "internalType": "address"
        },
        {
          "name": "amount",
          "type": "uint256",
          "indexed": false,
          "internalType": "uint256"
        },
        {
          "name": "payout",
          "type": "uint256",
          "indexed": false,
          "internalType": "uint256"
        }
      ],
      "anonymous": false
    },
    {
      "type": "event",
      "name": "RefundBid",
      "inputs": [
        {
          "name": "lotId",
          "type": "uint96",
          "indexed": true,
          "internalType": "uint96"
        },
        {
          "name": "bidId",
          "type": "uint96",
          "indexed": true,
          "internalType": "uint96"
        },
        {
          "name": "bidder",
          "type": "address",
          "indexed": true,
          "internalType": "address"
        }
      ],
      "anonymous": false
    },
    {
      "type": "event",
      "name": "Settle",
      "inputs": [
        {
          "name": "lotId",
          "type": "uint96",
          "indexed": true,
          "internalType": "uint96"
        }
      ],
      "anonymous": false
    },
    {
      "type": "error",
      "name": "AmountLessThanMinimum",
      "inputs": []
    },
    {
      "type": "error",
      "name": "Broken_Invariant",
      "inputs": []
    },
    {
      "type": "error",
      "name": "InvalidBidder",
      "inputs": [
        {
          "name": "bidder_",
          "type": "address",
          "internalType": "address"
        }
      ]
    },
    {
      "type": "error",
      "name": "InvalidFee",
      "inputs": []
    },
    {
      "type": "error",
      "name": "InvalidHook",
      "inputs": []
    },
    {
      "type": "error",
      "name": "InvalidLotId",
      "inputs": [
        {
          "name": "id_",
          "type": "uint96",
          "internalType": "uint96"
        }
      ]
    },
    {
      "type": "error",
      "name": "InvalidModuleInstall",
      "inputs": [
        {
          "name": "keycode_",
          "type": "bytes5",
          "internalType": "Keycode"
        },
        {
          "name": "version_",
          "type": "uint8",
          "internalType": "uint8"
        }
      ]
    },
    {
      "type": "error",
      "name": "InvalidParams",
      "inputs": []
    },
    {
      "type": "error",
      "name": "InvalidState",
      "inputs": []
    },
    {
      "type": "error",
      "name": "InvalidVeecode",
      "inputs": [
        {
          "name": "veecode_",
          "type": "bytes7",
          "internalType": "Veecode"
        }
      ]
    },
    {
      "type": "error",
      "name": "ModuleAlreadySunset",
      "inputs": [
        {
          "name": "keycode_",
          "type": "bytes5",
          "internalType": "Keycode"
        }
      ]
    },
    {
      "type": "error",
      "name": "ModuleExecutionReverted",
      "inputs": [
        {
          "name": "error_",
          "type": "bytes",
          "internalType": "bytes"
        }
      ]
    },
    {
      "type": "error",
      "name": "ModuleFunctionInvalid",
      "inputs": [
        {
          "name": "function_",
          "type": "bytes4",
          "internalType": "bytes4"
        }
      ]
    },
    {
      "type": "error",
      "name": "ModuleIsSunset",
      "inputs": [
        {
          "name": "keycode_",
          "type": "bytes5",
          "internalType": "Keycode"
        }
      ]
    },
    {
      "type": "error",
      "name": "ModuleNotInstalled",
      "inputs": [
        {
          "name": "keycode_",
          "type": "bytes5",
          "internalType": "Keycode"
        },
        {
          "name": "version_",
          "type": "uint8",
          "internalType": "uint8"
        }
      ]
    },
    {
      "type": "error",
      "name": "NotPermitted",
      "inputs": [
        {
          "name": "caller_",
          "type": "address",
          "internalType": "address"
        }
      ]
    },
    {
      "type": "error",
      "name": "TargetNotAContract",
      "inputs": [
        {
          "name": "target_",
          "type": "address",
          "internalType": "address"
        }
      ]
    }
  ],
  "bytecode": {
    "object": "0x60a060405260016006553480156200001657600080fd5b50604051620062c6380380620062c6833981016040819052620000399162000242565b600080546001600160a01b0319166001600160a01b03851690811782556040518592859285928492869283929091907f8be0079c531659141344cd1fd0a4f28419497f9722a3daafe3b4186f6b6457e0908290a35050600b80546001600160a01b0319166001600160a01b03928316179055166080525050604051631a33757d60e01b815273420000000000000000000000000000000000002390631a33757d90620000eb906002906004016200028c565b6020604051808303816000875af11580156200010b573d6000803e3d6000fd5b505050506040513d601f19601f82011682018060405250810190620001319190620002b5565b50604051631a33757d60e01b815273420000000000000000000000000000000000002290631a33757d906200016c906002906004016200028c565b6020604051808303816000875af11580156200018c573d6000803e3d6000fd5b505050506040513d601f19601f82011682018060405250810190620001b29190620002b5565b507343000000000000000000000000000000000000026001600160a01b0316634e606c476040518163ffffffff1660e01b8152600401600060405180830381600087803b1580156200020357600080fd5b505af115801562000218573d6000803e3d6000fd5b50505050505050620002cf565b80516001600160a01b03811681146200023d57600080fd5b919050565b6000806000606084860312156200025857600080fd5b620002638462000225565b9250620002736020850162000225565b9150620002836040850162000225565b90509250925092565b6020810160038310620002af57634e487b7160e01b600052602160045260246000fd5b91905290565b600060208284031215620002c857600080fd5b5051919050565b608051615fdb620002eb60003960006140770152615fdb6000f3fe608060405234801561001057600080fd5b50600436106101f05760003560e01c8063a249a5091161010f578063d8d95701116100a2578063f2fde38b11610071578063f2fde38b14610593578063f315aafe146105a6578063f4b26181146105af578063fb9d3cb6146105ea57600080fd5b8063d8d957011461052f578063e70b9e2714610542578063ef5cfb8c1461056d578063f08240691461058057600080fd5b8063c1cf8c7f116100de578063c1cf8c7f146104d5578063c4ce88fd146104f6578063c74c149b14610509578063c75519ba1461051c57600080fd5b8063a249a50914610448578063a50076f71461049c578063a782e524146104af578063bc17699c146104c257600080fd5b80635c774ed7116101875780638da5cb5b116101565780638da5cb5b146103b85780638eae8235146103e35780639e2e003a146103f65780639e55cba31461041f57600080fd5b80635c774ed7146103495780637249c0d5146103665780637eb1e7611461037957806381b2248a1461038c57600080fd5b80634bcbd88b116101c35780634bcbd88b1461029157806350ab0489146102b9578063528c410d146102d95780635bb27aab1461030457600080fd5b80630a9d793d146101f557806320b15fe41461020a57806331d72d6b1461021d57806338ec8b4214610289575b600080fd5b610208610203366004614cf8565b6105fd565b005b610208610218366004614d32565b610652565b61025b61022b366004614d95565b600c6020526000908152604090205465ffffffffffff80821691600160301b8104821691600160601b9091041683565b6040805165ffffffffffff948516815292841660208401529216918101919091526060015b60405180910390f35b61020861087d565b6102a461029f366004614dbe565b610ad5565b60408051928352602083019190915201610280565b6102cc6102c7366004614dfd565b610bab565b6040516102809190614ed1565b6102ec6102e7366004615034565b610c8a565b6040516001600160601b039091168152602001610280565b610330610312366004614d95565b60046020526000908152604090205460ff8082169161010090041682565b6040805160ff9093168352901515602083015201610280565b6005546103569060ff1681565b6040519015158152602001610280565b610208610374366004615139565b610fe5565b610208610387366004614cf8565b611078565b61039f61039a366004615170565b6112f5565b6040516001600160d81b03199091168152602001610280565b6000546103cb906001600160a01b031681565b6040516001600160a01b039091168152602001610280565b6102086103f1366004615189565b61132c565b610409610404366004615189565b61151a565b6040516102809a999897969594939291906151a6565b6103cb61042d36600461521f565b6003602052600090815260409020546001600160a01b031681565b61047d610456366004615189565b6009602052600090815260409020546001600160a01b03811690600160a01b900460ff1682565b604080516001600160a01b039093168352901515602083015201610280565b6103cb6104aa366004615189565b611615565b6102086104bd366004615189565b61164b565b6102086104d036600461521f565b61197e565b6104e86104e336600461523c565b611a0c565b604051908152602001610280565b6007546102ec906001600160601b031681565b610208610517366004615338565b6120c5565b61020861052a366004614d95565b61221b565b61020861053d36600461537a565b612317565b6104e86105503660046153a8565b600d60209081526000928352604080842090915290825290205481565b61020861057b366004614cf8565b6124ab565b6102ec61058e3660046153d6565b612574565b6102086105a1366004614cf8565b6131f1565b6104e860025481565b6105dd6105bd36600461543e565b600a60209081526000928352604080842090915290825290205460c81b81565b604051610280919061546c565b6102086105f8366004615189565b613266565b6000546001600160a01b031633146106305760405162461bcd60e51b815260040161062790615481565b60405180910390fd5b600b80546001600160a01b0319166001600160a01b0392909216919091179055565b6000546001600160a01b0316331461067c5760405162461bcd60e51b815260040161062790615481565b600061068784613e5a565b6001600160a01b031663bb24fe8a6040518163ffffffff1660e01b8152600401602060405180830381865afa1580156106c4573d6000803e3d6000fd5b505050506040513d601f19601f820116820180604052508101906106e891906154bd565b60038111156106f9576106f96154a7565b1415806107815750600161070c83613e5a565b6001600160a01b031663bb24fe8a6040518163ffffffff1660e01b8152600401602060405180830381865afa158015610749573d6000803e3d6000fd5b505050506040513d601f19601f8201168201806040525081019061076d91906154bd565b600381111561077e5761077e6154a7565b14155b8061081b57506001600160c81b031981161580159061081b575060026107a682613e5a565b6001600160a01b031663bb24fe8a6040518163ffffffff1660e01b8152600401602060405180830381865afa1580156107e3573d6000803e3d6000fd5b505050506040513d601f19601f8201168201806040525081019061080791906154bd565b6003811115610818576108186154a7565b14155b1561083957604051635435b28960e11b815260040160405180910390fd5b6001600160c81b03199283166000908152600a6020908152604080832094909516825292909252919020805466ffffffffffffff191660c89290921c919091179055565b600b5460405163e12f3a6160e01b81523060048201526023602160991b019163aad3ec96916001600160a01b0390911690839063e12f3a6190602401602060405180830381865afa1580156108d6573d6000803e3d6000fd5b505050506040513d601f19601f820116820180604052508101906108fa91906154de565b6040516001600160e01b031960e085901b1681526001600160a01b03909216600483015260248201526044016020604051808303816000875af1158015610945573d6000803e3d6000fd5b505050506040513d601f19601f8201168201806040525081019061096991906154de565b50600b5460405163e12f3a6160e01b81523060048201526022602160991b019163aad3ec96916001600160a01b0390911690839063e12f3a6190602401602060405180830381865afa1580156109c3573d6000803e3d6000fd5b505050506040513d601f19601f820116820180604052508101906109e791906154de565b6040516001600160e01b031960e085901b1681526001600160a01b03909216600483015260248201526044016020604051808303816000875af1158015610a32573d6000803e3d6000fd5b505050506040513d601f19601f82011682018060405250810190610a5691906154de565b50600b5460405163662aa11d60e01b81523060048201526001600160a01b0390911660248201526002604360981b019063662aa11d906044016020604051808303816000875af1158015610aae573d6000803e3d6000fd5b505050506040513d601f19601f82011682018060405250810190610ad291906154de565b50565b6001600160d81b031983166000908152600c6020526040812054819065ffffffffffff168415610b7f576001600160d81b031986166000908152600c6020526040902054600160301b900465ffffffffffff16620186a0610b36828761550d565b610b40919061553a565b935083620186a0610b51838561554e565b610b639065ffffffffffff168861550d565b610b6d919061553a565b610b779190615574565b925050610ba2565b620186a0610b9565ffffffffffff83168661550d565b610b9f919061553a565b91505b50935093915050565b6000546060906001600160a01b03163314610bd85760405162461bcd60e51b815260040161062790615481565b6005805460ff191660011790556000610bf085613e5a565b9050600080826001600160a01b03168686604051610c0f929190615587565b6000604051808303816000865af19150503d8060008114610c4c576040519150601f19603f3d011682016040523d82523d6000602084013e610c51565b606091505b509150915081610c765780604051635d94b9cd60e01b81526004016106279190614ed1565b6005805460ff191690559695505050505050565b6000600654600114610cae5760405162461bcd60e51b815260040161062790615597565b60026006558151610cbe90613eaf565b81516001600160601b0316600090815260086020908152604080832081516101408101835281546001600160c81b031960c882811b821684526001600160a01b03600160381b9093048316968401969096526001840154821694830194909452600283015481166060830152600383015481166080830152600483015490811660a0830152600160a01b900490931b90911660c083015260058101805460e084019190610d6a906155bb565b80601f0160208091040260200160405190810160405280929190818152602001828054610d96906155bb565b8015610de35780601f10610db857610100808354040283529160200191610de3565b820191906000526020600020905b815481529060010190602001808311610dc657829003601f168201915b5050509183525050600682015460ff161515602082015260079091015460409091015260a080820151855191860151929350610e23929091903390613f3a565b610e4257604051632aaf132360e11b8152336004820152602401610627565b6000610e518460000151611615565b6001600160a01b03166356ab110b8560000151338760200151886040015189606001518a608001516040518763ffffffff1660e01b8152600401610e9a969594939291906155f5565b6020604051808303816000875af1158015610eb9573d6000803e3d6000fd5b505050506040513d601f19601f82011682018060405250810190610edd919061564b565b845160608087015190850151608086015160c0890151604051635c2fc75360e01b8152959650610f7a9573__$edb40677ae687b89a8312a1af66086cd07$__91635c2fc75391610f309190600401614ed1565b600060405180830381865af4158015610f4d573d6000803e3d6000fd5b505050506040513d6000823e601f3d908101601f19168201604052610f7591908101906156ad565b613fce565b336001600160a01b0316816001600160601b031685600001516001600160601b03167fa2e7ed6065b3a19c5ea6dce1c2f7a8933195d54aa91cee19103be6655cc3bcf88760600151604051610fd191815260200190565b60405180910390a460016006559392505050565b6001600160d81b031982166000908152600c602052604090205465ffffffffffff600160601b90910481169082161115611032576040516358d620b360e01b815260040160405180910390fd5b6001600160d81b0319919091166000908152600c602090815260408083203384526001019091529020805465ffffffffffff191665ffffffffffff909216919091179055565b6000546001600160a01b031633146110a25760405162461bcd60e51b815260040161062790615481565b6110ab816140e1565b6000816001600160a01b031663d61735ca6040518163ffffffff1660e01b8152600401602060405180830381865afa1580156110eb573d6000803e3d6000fd5b505050506040513d601f19601f8201168201806040525081019061110f919061574c565b905061111a81614117565b6000806111268361427d565b6001600160d81b0319821660009081526004602052604090208054929450909250906111569060ff166001615769565b60ff168260ff161461117f578282604051635820a91160e01b8152600401610627929190615782565b805460ff191660ff83811691909117808355610100900416156111a657805461ff00191681555b6001600160c81b03198416600090815260036020526040902080546001600160a01b0319166001600160a01b03871617905560ff8216600019016112565760018054808201825560009182527fb10e2d527612073b26eecdfd717e6a320cf44b4afac2b0732d9fcbe2b7fa0cf6600680830491909101805464ffffffffff929093066005026101000a9182021990921660d887901c9190910217905560028054916112508361579f565b91905055505b846001600160a01b031663ea6439146040518163ffffffff1660e01b8152600401600060405180830381600087803b15801561129157600080fd5b505af11580156112a5573d6000803e3d6000fd5b50506040516001600160a01b038816925060ff851691506001600160d81b03198616907f9d59a7f92873a37532afecac87d9ae2e0571c04f7cfe13ace6f38209dd1acd1c90600090a45050505050565b6001818154811061130557600080fd5b9060005260206000209060069182820401919006600502915054906101000a900460d81b81565b60065460011461134e5760405162461bcd60e51b815260040161062790615597565b600260065561135c81613eaf565b6001600160601b03811660009081526008602052604090208054600160381b90046001600160a01b031633146113a7576040516319b1d90760e31b8152336004820152602401610627565b6113b082611615565b60405163b04046df60e01b81526001600160601b03841660048201526001600160a01b03919091169063b04046df90602401600060405180830381600087803b1580156113fc57600080fd5b505af1158015611410573d6000803e3d6000fd5b505050506007810154156114ca576007808201546001600160601b03841660009081526008602052604080822090930181905560018401548454935163636c380360e01b8152929373__$edb40677ae687b89a8312a1af66086cd07$__9363636c380393611498936001600160a01b0390811693600160381b900416918791906004016157b8565b60006040518083038186803b1580156114b057600080fd5b505af41580156114c4573d6000803e3d6000fd5b50505050505b805460405160c89190911b6001600160c81b031916906001600160601b038416907f2c784826e62ed5cac07a5ebe66734ece0cdc7ee0559b21b59d1434a64e07ec8290600090a350506001600655565b60086020526000908152604090208054600182015460028301546003840154600485015460058601805460c887811b986001600160a01b03600160381b909904891698978816979687169695861695851694600160a01b900490911b929091611582906155bb565b80601f01602080910402602001604051908101604052809291908181526020018280546115ae906155bb565b80156115fb5780601f106115d0576101008083540402835291602001916115fb565b820191906000526020600020905b8154815290600101906020018083116115de57829003601f168201915b505050506006830154600790930154919260ff169190508a565b600061162082613eaf565b6001600160601b0382166000908152600860205260409020546116459060c81b613e5a565b92915050565b60065460011461166d5760405162461bcd60e51b815260040161062790615597565b600260065561167b81613eaf565b6001600160601b0381166000908152600860209081526040808320600990925282208154919290916116af9060c81b614360565b82549091506001600160a01b031633146116de576040516319b1d90760e31b8152336004820152602401610627565b8154600160a01b900460ff16156117085760405163baf3f0f760e01b815260040160405180910390fd5b600061171385611615565b604051630385592160e01b81526001600160601b03871660048201529091506001600160a01b03821690630385592190602401602060405180830381865afa158015611763573d6000803e3d6000fd5b505050506040513d601f19601f8201168201806040525081019061178791906157e1565b15156001036117a95760405163baf3f0f760e01b815260040160405180910390fd5b6001600160d81b031982166000908152600c6020908152604080832033845260010190915281205465ffffffffffff1690036117f8576040516358d620b360e01b815260040160405180910390fd5b825460ff60a01b1916600160a01b17835560078401541561193c5760405163ace54da560e01b81526001600160601b038616600482015260009061189490849033906001600160a01b0386169063ace54da590602401602060405180830381865afa15801561186b573d6000803e3d6000fd5b505050506040513d601f19601f8201168201806040525081019061188f91906154de565b614374565b9050808560070160008282546118aa91906157fe565b90915550506001850154855460405163bc0dbc9960e01b815273__$edb40677ae687b89a8312a1af66086cd07$__9263bc0dbc999261190a926001600160a01b0392831692600160381b9092049091169030908790600090600401615811565b60006040518083038186803b15801561192257600080fd5b505af4158015611936573d6000803e3d6000fd5b50505050505b60405133906001600160601b038716907f0cbe7341c5c56a21e107668323c3c414bcd506f3615ea1115f86dd4df173691490600090a350506001600655505050565b6002604360981b0163662aa11d61199483613e5a565b600b5460405160e084901b6001600160e01b03191681526001600160a01b039283166004820152911660248201526044016020604051808303816000875af11580156119e4573d6000803e3d6000fd5b505050506040513d601f19601f82011682018060405250810190611a0891906154de565b5050565b6000600654600114611a305760405162461bcd60e51b815260040161062790615597565b60026006556040820151611a4390613eaf565b604080830180516001600160601b031660009081526008602052919091206004810154915160c08501519192611a87926001600160a01b0390911691903390613f3a565b611aa657604051632aaf132360e11b8152336004820152602401610627565b8054600090611ae890611abb9060c81b614360565b6020860151845460028601546060890151600160381b9092046001600160a01b03908116929116906143c6565b8460600151611af79190615574565b90506060611b088560400151611615565b6001600160a01b03166376103c8f8660400151848860a001516040518463ffffffff1660e01b8152600401611b3f93929190615845565b6000604051808303816000875af1158015611b5e573d6000803e3d6000fd5b505050506040513d6000823e601f3d908101601f19168201604052611b86919081019061586d565b60808701519195509150841015611bb05760405163758342a760e01b815260040160405180910390fd5b60408581015160608701516002860154600387015460e08a01519451635c2fc75360e01b8152611c12956001600160a01b03938416939092169173__$edb40677ae687b89a8312a1af66086cd07$__91635c2fc75391610f3091600401614ed1565b825460028401546003850154611c41926001600160a01b03600160381b909104811692869290821691166144a4565b6040858101516001600160601b0316600090815260096020529081208054909190600160a01b900460ff1615611c97578454611c9490611c839060c81b614360565b83546001600160a01b031688614374565b90505b6040870151611dde9085611cab848a6157fe565b60408051610140810182528a546001600160c81b031960c882811b821684526001600160a01b03600160381b9093048316602085015260018e015483169484019490945260028d01548216606084015260038d01548216608084015260048d015491821660a0840152600160a01b90910490921b90911660c082015260058a0180548b9160e0840191611d3d906155bb565b80601f0160208091040260200160405190810160405280929190818152602001828054611d69906155bb565b8015611db65780601f10611d8b57610100808354040283529160200191611db6565b820191906000526020600020905b815481529060010190602001808311611d9957829003601f168201915b5050509183525050600682015460ff161515602082015260079091015460409091015261452e565b600785015415611e19578585600701541015611e0d57604051633a196e0960e21b815260040160405180910390fd5b60078501805487900390555b604080880151885182516101408101845288546001600160c81b031960c882811b821684526001600160a01b03600160381b9093048316602085015260018c015483169684019690965260028b01548216606084015260038b01548216608084015260048b015491821660a0840152600160a01b90910490941b90931660c0840152600588018054611f5b948b9290918b9160e0840191611eb9906155bb565b80601f0160208091040260200160405190810160405280929190818152602001828054611ee5906155bb565b8015611f325780601f10611f0757610100808354040283529160200191611f32565b820191906000526020600020905b815481529060010190602001808311611f1557829003601f168201915b5050509183525050600682015460ff161515602082015260079091015460409091015287614719565b801561203e57600785015415611f9c578085600701541015611f9057604051633a196e0960e21b815260040160405180910390fd5b60078501805482900390555b604080880151835482516101408101845288546001600160c81b031960c882811b82168452600160381b9092046001600160a01b03908116602085015260018c015481169684019690965260028b01548616606084015260038b01548616608084015260048b015480871660a0850152600160a01b900490911b1660c082015260058901805461203e95909316928692918b9160e084019190611eb9906155bb565b336001600160a01b031687604001516001600160601b03167f5c53cd94df0c7e2bcd10a80f475d04aef0e489425aff9687e49f92454b40401489602001518a606001518a6040516120ad939291906001600160a01b039390931683526020830191909152604082015260600190565b60405180910390a35050600160065550919392505050565b6000546001600160a01b031633146120ef5760405162461bcd60e51b815260040161062790615481565b620186a065ffffffffffff8216111561211b576040516358d620b360e01b815260040160405180910390fd5b600082600281111561212f5761212f6154a7565b03612169576001600160d81b031983166000908152600c60205260409020805465ffffffffffff191665ffffffffffff8316179055505050565b600182600281111561217d5761217d6154a7565b036121c3576001600160d81b031983166000908152600c6020526040902080546bffffffffffff0000000000001916600160301b65ffffffffffff841602179055505050565b60028260028111156121d7576121d76154a7565b03612216576001600160d81b031983166000908152600c60205260409020805465ffffffffffff60601b1916600160601b65ffffffffffff8416021790555b505050565b6000546001600160a01b031633146122455760405162461bcd60e51b815260040161062790615481565b6001600160d81b0319811660009081526004602052604090205460ff166122845780600060405163def1560160e01b8152600401610627929190615782565b6001600160d81b0319811660009081526004602052604090208054610100900460ff16156122d15760405163271614df60e21b81526001600160d81b031983166004820152602401610627565b805461ff0019166101001781556040516001600160d81b03198316907fa967d5160f4efeca6ce587658357cfe54cbe547c6945ddf21a06ac712216942a90600090a25050565b6006546001146123395760405162461bcd60e51b815260040161062790615597565b600260065561234782613eaf565b600061235283611615565b60405163177ee7e360e11b81526001600160601b038086166004830152841660248201523360448201526001600160a01b039190911690632efdcfc6906064016020604051808303816000875af11580156123b1573d6000803e3d6000fd5b505050506040513d601f19601f820116820180604052508101906123d591906154de565b6001600160601b03841660009081526008602052604080822060020154905163636c380360e01b815292935073__$edb40677ae687b89a8312a1af66086cd07$__9263636c380392612437926001600160a01b031691339187916004016157b8565b60006040518083038186803b15801561244f57600080fd5b505af4158015612463573d6000803e3d6000fd5b50506040513392506001600160601b0380861692508616907fc5e25a727c1d2fa8b8cf2bd4f7a3ba0b6740aaee33d84a3132d47301844f361890600090a45050600160065550565b6006546001146124cd5760405162461bcd60e51b815260040161062790615597565b6002600655336000818152600d602090815260408083206001600160a01b0386168452909152808220805490839055905163636c380360e01b81528493919273__$edb40677ae687b89a8312a1af66086cd07$__9263636c38039261253a928792918791906004016157b8565b60006040518083038186803b15801561255257600080fd5b505af4158015612566573d6000803e3d6000fd5b505060016006555050505050565b60006006546001146125985760405162461bcd60e51b815260040161062790615597565b600260065560006125b46125af6020860186614d95565b6149fc565b90506000816001600160a01b031663d61735ca6040518163ffffffff1660e01b8152600401602060405180830381865afa1580156125f6573d6000803e3d6000fd5b505050506040513d601f19601f8201168201806040525081019061261a919061574c565b90506000826001600160a01b031663bb24fe8a6040518163ffffffff1660e01b8152600401602060405180830381865afa15801561265c573d6000803e3d6000fd5b505050506040513d601f19601f8201168201806040525081019061268091906154bd565b6003811115612691576126916154a7565b146126af57604051635435b28960e11b815260040160405180910390fd5b60006126c16040870160208801614cf8565b6001600160a01b031614806126ee575060006126e36060870160408801614cf8565b6001600160a01b0316145b1561270c57604051635435b28960e11b815260040160405180910390fd5b600061271e6040870160208801614cf8565b6001600160a01b031663313ce5676040518163ffffffff1660e01b8152600401602060405180830381865afa15801561275b573d6000803e3d6000fd5b505050506040513d601f19601f8201168201806040525081019061277f91906158b3565b905060006127936060880160408901614cf8565b6001600160a01b031663313ce5676040518163ffffffff1660e01b8152600401602060405180830381865afa1580156127d0573d6000803e3d6000fd5b505050506040513d601f19601f820116820180604052508101906127f491906158b3565b905060068260ff16108061280b575060128260ff16115b80612819575060068160ff16105b80612827575060128160ff16115b1561284557604051635435b28960e11b815260040160405180910390fd5b600780546001600160601b031690600061285e836158d6565b91906101000a8154816001600160601b0302191690836001600160601b031602179055509450600080856001600160a01b031663bae96bdd888a86886040518563ffffffff1660e01b81526004016128b99493929190615925565b60408051808303816000875af11580156128d7573d6000803e3d6000fd5b505050506040513d601f19601f820116820180604052508101906128fb9190615a03565b6001600160601b0389166000908152600860209081526040918290208054600160381b33026001600160d81b031990911660c88c901c1717815593955091935061294a91908c01908c01614cf8565b6001820180546001600160a01b0319166001600160a01b039290921691909117905561297c60608b0160408c01614cf8565b6002820180546001600160a01b0319166001600160a01b03929092169190911790556001600160601b03881660009081526009602052604090206129c660808c0160608d01614cf8565b81546001600160a81b0319166001600160a01b039190911617905560006129fa6129f76101008d0160e08e01614d95565b90565b6001600160d81b03191614612c11576000612a1f6125af6101008d0160e08e01614d95565b90506000816001600160a01b031663d61735ca6040518163ffffffff1660e01b8152600401602060405180830381865afa158015612a61573d6000803e3d6000fd5b505050506040513d601f19601f82011682018060405250810190612a85919061574c565b90506001826001600160a01b031663bb24fe8a6040518163ffffffff1660e01b8152600401602060405180830381865afa158015612ac7573d6000803e3d6000fd5b505050506040513d601f19601f82011682018060405250810190612aeb91906154bd565b6003811115612afc57612afc6154a7565b14612b1a57604051635435b28960e11b815260040160405180910390fd5b816001600160a01b031663caf927858460010160009054906101000a90046001600160a01b03168e806101000190612b529190615a31565b6040518463ffffffff1660e01b8152600401612b7093929190615a7e565b602060405180830381865afa158015612b8d573d6000803e3d6000fd5b505050506040513d601f19601f82011682018060405250810190612bb191906157e1565b612bce57604051635435b28960e11b815260040160405180910390fd5b60048301805466ffffffffffffff60a01b1916600160a01b60c884901c02179055612bfd6101008d018d615a31565b6005850191612c0d919083615af1565b5050505b6001600160c81b03198681166000908152600a602090815260408083206004860154600160a01b900460c890811b86168552925290912054901b90811615612d4e576002612c5e82613e5a565b6001600160a01b031663bb24fe8a6040518163ffffffff1660e01b8152600401602060405180830381865afa158015612c9b573d6000803e3d6000fd5b505050506040513d601f19601f82011682018060405250810190612cbf91906154bd565b6003811115612cd057612cd06154a7565b14612cee57604051635435b28960e11b815260040160405180910390fd5b6000612cf982614360565b6001600160d81b03198116600090815260046020526040902054909150610100900460ff161515600103612d4c5760405163ae05d58960e01b81526001600160d81b031982166004820152602401610627565b505b506000612d6160c08c0160a08d01614cf8565b6001600160a01b031614612e5957612d7f60c08b0160a08c01614cf8565b6001600160a01b03163b600003612da957604051635435b28960e11b815260040160405180910390fd5b612db960c08b0160a08c01614cf8565b6001600160a01b03166344d799f389612dd560c08e018e615a31565b6040518463ffffffff1660e01b8152600401612df393929190615bb0565b600060405180830381600087803b158015612e0d57600080fd5b505af1158015612e21573d6000803e3d6000fd5b50612e369250505060c08b0160a08c01614cf8565b6004820180546001600160a01b0319166001600160a01b03929092169190911790555b6000612e6b60a08c0160808d01614cf8565b6001600160a01b031614612ee657612e8960a08b0160808c01614cf8565b6001600160a01b03163b600003612eb357604051635435b28960e11b815260040160405180910390fd5b612ec360a08b0160808c01614cf8565b6003820180546001600160a01b0319166001600160a01b03929092169190911790555b82151560010361316257612f0060608a0160408b01615bd3565b15612f1e57604051635435b28960e11b815260040160405180910390fd5b600781018290556000612f3760a08c0160808d01614cf8565b6001600160a01b0316146130e2576000612f5760408c0160208d01614cf8565b6040516370a0823160e01b81523060048201526001600160a01b0391909116906370a0823190602401602060405180830381865afa158015612f9d573d6000803e3d6000fd5b505050506040513d601f19601f82011682018060405250810190612fc191906154de565b9050612fd360a08c0160808d01614cf8565b60405163e5e3f46560e01b81526001600160601b038b1660048201526001600160a01b03919091169063e5e3f46590602401600060405180830381600087803b15801561301f57600080fd5b505af1158015613033573d6000803e3d6000fd5b50505050828161304391906157fe565b61305360408d0160208e01614cf8565b6040516370a0823160e01b81523060048201526001600160a01b0391909116906370a0823190602401602060405180830381865afa158015613099573d6000803e3d6000fd5b505050506040513d601f19601f820116820180604052508101906130bd91906154de565b10156130dc57604051639c9d882360e01b815260040160405180910390fd5b50613162565b73__$edb40677ae687b89a8312a1af66086cd07$__63bc0dbc9961310c60408d0160208e01614cf8565b33308660016040518663ffffffff1660e01b8152600401613131959493929190615811565b60006040518083038186803b15801561314957600080fd5b505af415801561315d573d6000803e3d6000fd5b505050505b6001600160c81b031986166001600160601b0389167f84b880d9e409391876717d471eb2c3cc52c3b2272ce9171f3a1340f2eba7b9796131a860408e0160208f01614cf8565b8d60400160208101906131bb9190614cf8565b604080516001600160a01b0393841681529290911660208301520160405180910390a35050600160065550939695505050505050565b6000546001600160a01b0316331461321b5760405162461bcd60e51b815260040161062790615481565b600080546001600160a01b0319166001600160a01b0383169081178255604051909133917f8be0079c531659141344cd1fd0a4f28419497f9722a3daafe3b4186f6b6457e09190a350565b6006546001146132885760405162461bcd60e51b815260040161062790615597565b600260065561329681613eaf565b60006132a182611615565b60405163ace54da560e01b81526001600160601b03841660048201529091506000906001600160a01b0383169063ace54da590602401602060405180830381865afa1580156132f4573d6000803e3d6000fd5b505050506040513d601f19601f8201168201806040525081019061331891906154de565b604051637dce9e5b60e11b81526001600160601b038516600482015290915060009081906001600160a01b0385169063fb9d3cb6906024016000604051808303816000875af115801561336f573d6000803e3d6000fd5b505050506040513d6000823e601f3d908101601f191682016040526133979190810190615bf0565b6001600160601b0387166000908152600860205260408120835193955091935090918190869081835b8281101561356b5760008982815181106133dc576133dc615d55565b60200260200101516080015190506001846133f79190615574565b8214801561340457508281115b1561353457828a838151811061341c5761341c615d55565b60209081029190910101516080015260008161344085670de0b6b3a764000061550d565b61344a919061553a565b61345c90670de0b6b3a7640000615574565b90506000670de0b6b3a7640000828d868151811061347c5761347c615d55565b602002602001015160600151613492919061550d565b61349c919061553a565b90508098508b84815181106134b3576134b3615d55565b60200260200101516000015197508b84815181106134d3576134d3615d55565b6020026020010151606001518111156134ff57604051633a196e0960e21b815260040160405180910390fd5b808c858151811061351257613512615d55565b602002602001015160600181815103915081815250506000945050505061356b565b8281111561355557604051633a196e0960e21b815260040160405180910390fd5b90910390806135638161579f565b9150506133c0565b50801561357f5761357c8184615574565b92505b505083546000906135b8906135969060c81b614360565b865460028801548a916001600160a01b03600160381b90910481169116614ac5565b6001600160601b038d166000908152600960205260408120805492955093509150600160a01b900460ff161561360e57865461360b906135fa9060c81b614360565b83546001600160a01b031686614374565b90505b61377b8c8461361d84886157fe565b8a604051806101400160405290816000820160009054906101000a900460c81b6001600160c81b0319166001600160c81b03191681526020016000820160079054906101000a90046001600160a01b03166001600160a01b03166001600160a01b031681526020016001820160009054906101000a90046001600160a01b03166001600160a01b03166001600160a01b031681526020016002820160009054906101000a90046001600160a01b03166001600160a01b03166001600160a01b031681526020016003820160009054906101000a90046001600160a01b03166001600160a01b03166001600160a01b031681526020016004820160009054906101000a90046001600160a01b03166001600160a01b03166001600160a01b031681526020016004820160149054906101000a900460c81b6001600160c81b0319166001600160c81b0319168152602001600582018054611d3d906155bb565b80156139d9576007870154156137bc5780876007015410156137b057604051633a196e0960e21b815260040160405180910390fd5b60078701805482900390555b6139d98c8360000160009054906101000a90046001600160a01b0316838a604051806101400160405290816000820160009054906101000a900460c81b6001600160c81b0319166001600160c81b03191681526020016000820160079054906101000a90046001600160a01b03166001600160a01b03166001600160a01b031681526020016001820160009054906101000a90046001600160a01b03166001600160a01b03166001600160a01b031681526020016002820160009054906101000a90046001600160a01b03166001600160a01b03166001600160a01b031681526020016003820160009054906101000a90046001600160a01b03166001600160a01b03166001600160a01b031681526020016004820160009054906101000a90046001600160a01b03166001600160a01b03166001600160a01b031681526020016004820160149054906101000a900460c81b6001600160c81b0319166001600160c81b0319168152602001600582018054613937906155bb565b80601f0160208091040260200160405190810160405280929190818152602001828054613963906155bb565b80156139b05780601f10613985576101008083540402835291602001916139b0565b820191906000526020600020905b81548152906001019060200180831161399357829003601f168201915b5050509183525050600682015460ff16151560208201526007909101546040909101528c614719565b505060078501548751899060005b81811015613c9e5760008b8281518110613a0357613a03615d55565b6020026020010151608001519050613c348f8d8481518110613a2757613a27615d55565b602002602001015160200151838d604051806101400160405290816000820160009054906101000a900460c81b6001600160c81b0319166001600160c81b03191681526020016000820160079054906101000a90046001600160a01b03166001600160a01b03166001600160a01b031681526020016001820160009054906101000a90046001600160a01b03166001600160a01b03166001600160a01b031681526020016002820160009054906101000a90046001600160a01b03166001600160a01b03166001600160a01b031681526020016003820160009054906101000a90046001600160a01b03166001600160a01b03166001600160a01b031681526020016004820160009054906101000a90046001600160a01b03166001600160a01b03166001600160a01b031681526020016004820160149054906101000a900460c81b6001600160c81b0319166001600160c81b0319168152602001600582018054613b92906155bb565b80601f0160208091040260200160405190810160405280929190818152602001828054613bbe906155bb565b8015613c0b5780601f10613be057610100808354040283529160200191613c0b565b820191906000526020600020905b815481529060010190602001808311613bee57829003601f168201915b5050509183525050600682015460ff16151560208201526007909101546040909101528f614719565b80841015613c5557604051633a196e0960e21b815260040160405180910390fd5b60078a0154938190039315613c8b5780851015613c8557604051633a196e0960e21b815260040160405180910390fd5b80850394505b5080613c968161579f565b9150506139e7565b508215613d39576000600789018190556001890154895460405163636c380360e01b815273__$edb40677ae687b89a8312a1af66086cd07$__9363636c380393613d04936001600160a01b0391821693600160381b9091049091169189916004016157b8565b60006040518083038186803b158015613d1c57600080fd5b505af4158015613d30573d6000803e3d6000fd5b50505050613d4b565b600788015415613d4b57600060078901555b5050855460028701546003880154613d7c93506001600160a01b03600160381b9093048316928592811691166144a4565b600084118015613d9457506001600160a01b03831615155b15613e1557600285015460405163636c380360e01b815273__$edb40677ae687b89a8312a1af66086cd07$__9163636c380391613de4916001600160a01b031690879089906000906004016157b8565b60006040518083038186803b158015613dfc57600080fd5b505af4158015613e10573d6000803e3d6000fd5b505050505b6040516001600160601b038b16907f5d4a6ac2287eaf5f22deb24e842c4668fd11d8f478a18cf2a37faa0bcebd31c690600090a2505060016006555050505050505050565b6001600160c81b031981166000908152600360205260408120546001600160a01b03168061164557600080613e8e8561427d565b91509150818160405163def1560160e01b8152600401610627929190615782565b6007546001600160601b0390811690821610613ee957604051630d55bc2360e41b81526001600160601b0382166004820152602401610627565b6001600160601b038116600090815260086020526040902054600160381b90046001600160a01b0316610ad257604051630d55bc2360e41b81526001600160601b0382166004820152602401610627565b60006001600160a01b038516613f5257506001613fc6565b6040516324aad2b360e21b81526001600160a01b038616906392ab4acc90613f8290879087908790600401615d6b565b602060405180830381865afa158015613f9f573d6000803e3d6000fd5b505050506040513d601f19601f82011682018060405250810190613fc391906157e1565b90505b949350505050565b6001600160a01b03821615614047576040516315750d0560e31b81526001600160601b0386166004820152602481018590526001600160a01b0383169063aba8682890604401600060405180830381600087803b15801561402e57600080fd5b505af1158015614042573d6000803e3d6000fd5b505050505b604051628f1c9d60e61b815273__$edb40677ae687b89a8312a1af66086cd07$__906323c72740906140aa9086907f000000000000000000000000000000000000000000000000000000000000000090339030908b908990600190600401615d9e565b60006040518083038186803b1580156140c257600080fd5b505af41580156140d6573d6000803e3d6000fd5b505050505050505050565b806001600160a01b03163b600003610ad257604051631bd1ba9d60e21b81526001600160a01b0382166004820152602401610627565b8060005b600781101561424957600082826007811061413857614138615d55565b1a60f81b9050600282101561419457600360fc1b6001600160f81b0319821610806141705750603960f81b6001600160f81b03198216115b1561418f5783604051628b684360e31b8152600401610627919061546c565b614240565b60058210156141e457604160f81b6001600160f81b0319821610806141705750602d60f91b6001600160f81b03198216111561418f5783604051628b684360e31b8152600401610627919061546c565b6001600160f81b03198116158015906142215750604160f81b6001600160f81b0319821610806142215750602d60f91b6001600160f81b03198216115b156142405783604051628b684360e31b8152600401610627919061546c565b5060010161411b565b5060006142558361427d565b9150508060ff166000036122165782604051628b684360e31b8152600401610627919061546c565b60008082600360fc1b6001600160f81b031982841a60f81b1610806142b55750603960f81b8160001a60f81b6001600160f81b031916115b806142d35750600360fc1b8160011a60f81b6001600160f81b031916105b806142f15750603960f81b8160011a60f81b6001600160f81b031916115b156143105783604051628b684360e31b8152600401610627919061546c565b600061431f603083831a615e1e565b61432a90600a615e37565b905061433b6030600184901a615e1e565b6143459082615769565b60109290921b6001600160d81b031916959194509092505050565b60008061436c8361427d565b509392505050565b6001600160d81b031983166000908152600c602090815260408083206001600160a01b0386168452600101909152812054620186a0906143bc9065ffffffffffff168461550d565b613fc6919061553a565b600080806143fe886001600160a01b038916158015906143f85750876001600160a01b0316896001600160a01b031614155b86610ad5565b90925090508115614446576001600160a01b038088166000908152600d60209081526040808320938916835292905290812080548492906144409084906157fe565b90915550505b801561448c57600b546001600160a01b039081166000908152600d60209081526040808320938916835292905290812080548392906144869084906157fe565b90915550505b61449681836157fe565b925050505b95945050505050565b73__$edb40677ae687b89a8312a1af66086cd07$__63636c3803836001600160a01b038416156144d457836144d6565b865b8660006040518563ffffffff1660e01b81526004016144f894939291906157b8565b60006040518083038186803b15801561451057600080fd5b505af4158015614524573d6000803e3d6000fd5b5050505050505050565b60008161012001511161471357604081015160808201516001600160a01b0316156146ce576040516370a0823160e01b81523060048201526000906001600160a01b038316906370a0823190602401602060405180830381865afa15801561459a573d6000803e3d6000fd5b505050506040513d601f19601f820116820180604052508101906145be91906154de565b6080840151604051637c41fdaf60e11b81526001600160601b038916600482015260248101889052604481018790529192506001600160a01b03169063f883fb5e90606401600060405180830381600087803b15801561461d57600080fd5b505af1158015614631573d6000803e3d6000fd5b50505050838161464191906157fe565b6040516370a0823160e01b81523060048201526001600160a01b038416906370a0823190602401602060405180830381865afa158015614685573d6000803e3d6000fd5b505050506040513d601f19601f820116820180604052508101906146a991906154de565b10156146c857604051639c9d882360e01b815260040160405180910390fd5b50614711565b602082015160405163bc0dbc9960e01b815273__$edb40677ae687b89a8312a1af66086cd07$__9163bc0dbc99916140aa91859130908990600190600401615811565b505b50505050565b60c082015160408301516001600160c81b031982166147a55760405163636c380360e01b815273__$edb40677ae687b89a8312a1af66086cd07$__9063636c3803906147709084908a908a906001906004016157b8565b60006040518083038186803b15801561478857600080fd5b505af415801561479c573d6000803e3d6000fd5b50505050614970565b60006147b083613e5a565b60e086015186516001600160c81b03199081166000908152600a602090815260408083208985168452909152902054929350909160c81b908116156148745760006147fa82613e5a565b6040516333f1a81560e11b81529091506001600160a01b038216906367e3502a9061482b908a908790600401615e53565b600060405180830381865afa158015614848573d6000803e3d6000fd5b505050506040513d6000823e601f3d908101601f191682016040526148709190810190615e78565b9250505b60405163bd35547360e01b81526001600160a01b038086166004830152841660248201526044810189905273__$edb40677ae687b89a8312a1af66086cd07$__9063bd3554739060640160006040518083038186803b1580156148d657600080fd5b505af41580156148ea573d6000803e3d6000fd5b505050610100880151604051631c81b11f60e31b81526001600160a01b038616925063e40d88f891614926918d91899188918f91600401615eac565b6060604051808303816000875af1158015614945573d6000803e3d6000fd5b505050506040513d601f19601f820116820180604052508101906149699190615ef1565b5050505050505b60808401516001600160a01b0316156149f3576080840151604051634d420d8560e01b81526001600160601b0389166004820152602481018790526001600160a01b0390911690634d420d8590604401600060405180830381600087803b1580156149da57600080fd5b505af11580156149ee573d6000803e3d6000fd5b505050505b50505050505050565b6001600160d81b03198116600090815260046020908152604080832081518083019092525460ff8082168084526101009092041615159282019290925290614a5c5782600060405163def1560160e01b8152600401610627929190615782565b806020015115614a8b5760405163ae05d58960e01b81526001600160d81b031984166004820152602401610627565b6000614a9b848360000151614c4d565b6001600160c81b0319166000908152600360205260409020546001600160a01b0316949350505050565b600080600080865190506000805b82811015614bee576000898281518110614aef57614aef615d55565b602002602001015160400151905060008a8381518110614b1157614b11615d55565b6020026020010151606001519050600080614b618e60006001600160a01b0316866001600160a01b031614158015614b5b57508d6001600160a01b0316866001600160a01b031614155b85610ad5565b90925090508115614ba9576001600160a01b038085166000908152600d60209081526040808320938f1683529290529081208054849290614ba39084906157fe565b90915550505b614bb381876157fe565b9550614bbf81836157fe565b614bc9908a6157fe565b9850614bd5838b6157fe565b9950505050508080614be69061579f565b915050614ad3565b508015614c3557600b546001600160a01b039081166000908152600d60209081526040808320938a1683529290529081208054839290614c2f9084906157fe565b90915550505b614c3f8486615574565b925050509450945094915050565b600080614c5b600a84615f2a565b614c66906030615769565b60f81b90506000614c78600a85615f4c565b614c83906030615769565b6040516001600160f81b0319808516602083015260f89290921b91821660218201526001600160d81b03198716602282015290915060270160405160208183030381529060405261449b90615f6e565b6001600160a01b0381168114610ad257600080fd5b8035614cf381614cd3565b919050565b600060208284031215614d0a57600080fd5b8135614d1581614cd3565b9392505050565b6001600160c81b031981168114610ad257600080fd5b600080600060608486031215614d4757600080fd5b8335614d5281614d1c565b92506020840135614d6281614d1c565b91506040840135614d7281614d1c565b809150509250925092565b80356001600160d81b031981168114614cf357600080fd5b600060208284031215614da757600080fd5b614d1582614d7d565b8015158114610ad257600080fd5b600080600060608486031215614dd357600080fd5b614ddc84614d7d565b92506020840135614dec81614db0565b929592945050506040919091013590565b600080600060408486031215614e1257600080fd5b8335614e1d81614d1c565b925060208401356001600160401b0380821115614e3957600080fd5b818601915086601f830112614e4d57600080fd5b813581811115614e5c57600080fd5b876020828501011115614e6e57600080fd5b6020830194508093505050509250925092565b60005b83811015614e9c578181015183820152602001614e84565b50506000910152565b60008151808452614ebd816020860160208601614e81565b601f01601f19169290920160200192915050565b602081526000614d156020830184614ea5565b634e487b7160e01b600052604160045260246000fd5b60405160e081016001600160401b0381118282101715614f1c57614f1c614ee4565b60405290565b60405161010081016001600160401b0381118282101715614f1c57614f1c614ee4565b60405160c081016001600160401b0381118282101715614f1c57614f1c614ee4565b604051601f8201601f191681016001600160401b0381118282101715614f8f57614f8f614ee4565b604052919050565b6001600160601b0381168114610ad257600080fd5b8035614cf381614f97565b60006001600160401b03821115614fd057614fd0614ee4565b50601f01601f191660200190565b600082601f830112614fef57600080fd5b8135615002614ffd82614fb7565b614f67565b81815284602083860101111561501757600080fd5b816020850160208301376000918101602001919091529392505050565b60006020828403121561504657600080fd5b81356001600160401b038082111561505d57600080fd5b9083019060e0828603121561507157600080fd5b615079614efa565b61508283614fac565b815261509060208401614ce8565b60208201526150a160408401614ce8565b6040820152606083013560608201526080830135828111156150c257600080fd5b6150ce87828601614fde565b60808301525060a0830135828111156150e657600080fd5b6150f287828601614fde565b60a08301525060c08301358281111561510a57600080fd5b61511687828601614fde565b60c08301525095945050505050565b65ffffffffffff81168114610ad257600080fd5b6000806040838503121561514c57600080fd5b61515583614d7d565b9150602083013561516581615125565b809150509250929050565b60006020828403121561518257600080fd5b5035919050565b60006020828403121561519b57600080fd5b8135614d1581614f97565b6001600160c81b03198b811682526001600160a01b038b811660208401528a8116604084015289811660608401528881166080840152871660a0830152851660c082015261014060e0820181905260009061520383820187614ea5565b9415156101008401525050610120015298975050505050505050565b60006020828403121561523157600080fd5b8135614d1581614d1c565b60006020828403121561524e57600080fd5b81356001600160401b038082111561526557600080fd5b90830190610100828603121561527a57600080fd5b615282614f22565b61528b83614ce8565b815261529960208401614ce8565b60208201526152aa60408401614fac565b6040820152606083013560608201526080830135608082015260a0830135828111156152d557600080fd5b6152e187828601614fde565b60a08301525060c0830135828111156152f957600080fd5b61530587828601614fde565b60c08301525060e08301358281111561531d57600080fd5b61532987828601614fde565b60e08301525095945050505050565b60008060006060848603121561534d57600080fd5b61535684614d7d565b925060208401356003811061536a57600080fd5b91506040840135614d7281615125565b6000806040838503121561538d57600080fd5b823561539881614f97565b9150602083013561516581614f97565b600080604083850312156153bb57600080fd5b82356153c681614cd3565b9150602083013561516581614cd3565b600080604083850312156153e957600080fd5b82356001600160401b038082111561540057600080fd5b90840190610120828703121561541557600080fd5b9092506020840135908082111561542b57600080fd5b50830160a0818603121561516557600080fd5b6000806040838503121561545157600080fd5b823561545c81614d1c565b9150602083013561516581614d1c565b6001600160c81b031991909116815260200190565b6020808252600c908201526b15539055551213d49256915160a21b604082015260600190565b634e487b7160e01b600052602160045260246000fd5b6000602082840312156154cf57600080fd5b815160048110614d1557600080fd5b6000602082840312156154f057600080fd5b5051919050565b634e487b7160e01b600052601160045260246000fd5b8082028115828204841417611645576116456154f7565b634e487b7160e01b600052601260045260246000fd5b60008261554957615549615524565b500490565b65ffffffffffff81811683821601908082111561556d5761556d6154f7565b5092915050565b81810381811115611645576116456154f7565b8183823760009101908152919050565b6020808252600a90820152695245454e5452414e435960b01b604082015260600190565b600181811c908216806155cf57607f821691505b6020821081036155ef57634e487b7160e01b600052602260045260246000fd5b50919050565b6001600160601b03871681526001600160a01b0386811660208301528581166040830152841660608201526080810183905260c060a0820181905260009061563f90830184614ea5565b98975050505050505050565b60006020828403121561565d57600080fd5b8151614d1581614f97565b600082601f83011261567957600080fd5b8151615687614ffd82614fb7565b81815284602083860101111561569c57600080fd5b613fc6826020830160208701614e81565b6000602082840312156156bf57600080fd5b81516001600160401b03808211156156d657600080fd5b90830190606082860312156156ea57600080fd5b60405160608101818110838211171561570557615705614ee4565b604052825161571381615125565b81526020838101519082015260408301518281111561573157600080fd5b61573d87828601615668565b60408301525095945050505050565b60006020828403121561575e57600080fd5b8151614d1581614d1c565b60ff8181168382160190811115611645576116456154f7565b6001600160d81b031992909216825260ff16602082015260400190565b6000600182016157b1576157b16154f7565b5060010190565b6001600160a01b0394851681529290931660208301526040820152901515606082015260800190565b6000602082840312156157f357600080fd5b8151614d1581614db0565b80820180821115611645576116456154f7565b6001600160a01b03958616815293851660208501529190931660408301526060820192909252901515608082015260a00190565b6001600160601b038416815282602082015260606040820152600061449b6060830184614ea5565b6000806040838503121561588057600080fd5b8251915060208301516001600160401b0381111561589d57600080fd5b6158a985828601615668565b9150509250929050565b6000602082840312156158c557600080fd5b815160ff81168114614d1557600080fd5b60006001600160601b038083168181036158f2576158f26154f7565b6001019392505050565b81835281816020850137506000828201602090810191909152601f909101601f19169091010190565b6001600160601b0385168152608060208201526000843561594581615125565b65ffffffffffff908116608084015260208601359061596382615125565b1660a0830152604085013561597781614db0565b151560c0830152606085013560e0830152608085013536869003601e190181126159a057600080fd5b85016020810190356001600160401b038111156159bc57600080fd5b8036038213156159cb57600080fd5b60a06101008501526159e2610120850182846158fc565b925050506159f5604083018560ff169052565b60ff8316606083015261449b565b60008060408385031215615a1657600080fd5b8251615a2181614db0565b6020939093015192949293505050565b6000808335601e19843603018112615a4857600080fd5b8301803591506001600160401b03821115615a6257600080fd5b602001915036819003821315615a7757600080fd5b9250929050565b6001600160a01b038416815260406020820181905260009061449b90830184866158fc565b601f82111561221657600081815260208120601f850160051c81016020861015615aca5750805b601f850160051c820191505b81811015615ae957828155600101615ad6565b505050505050565b6001600160401b03831115615b0857615b08614ee4565b615b1c83615b1683546155bb565b83615aa3565b6000601f841160018114615b505760008515615b385750838201355b600019600387901b1c1916600186901b178355614711565b600083815260209020601f19861690835b82811015615b815786850135825560209485019460019092019101615b61565b5086821015615b9e5760001960f88860031b161c19848701351681555b505060018560011b0183555050505050565b6001600160601b038416815260406020820152600061449b6040830184866158fc565b600060208284031215615be557600080fd5b8135614d1581614db0565b60008060408385031215615c0357600080fd5b82516001600160401b0380821115615c1a57600080fd5b818501915085601f830112615c2e57600080fd5b8151602082821115615c4257615c42614ee4565b8160051b615c51828201614f67565b928352848101820192828101908a851115615c6b57600080fd5b83870192505b84831015615d2e57825186811115615c895760008081fd5b870160c0818d03601f1901811315615ca15760008081fd5b615ca9614f45565b86830151615cb681614cd3565b81526040830151615cc681614cd3565b81880152606083810151615cd981614cd3565b806040840152506080808501518284015260a0915081850151818401525082840151925089831115615d0b5760008081fd5b615d198f8985870101615668565b90820152845250509183019190830190615c71565b9289015192975091945050505080821115615d4857600080fd5b506158a985828601615668565b634e487b7160e01b600052603260045260246000fd5b6001600160601b03841681526001600160a01b038316602082015260606040820181905260009061449b90830184614ea5565b600060018060a01b03808a1683528089166020840152808816604084015280871660608401525084608083015260e060a083015265ffffffffffff84511660e0830152602084015161010083015260408401516060610120840152615e07610140840182614ea5565b91505082151560c083015298975050505050505050565b60ff8281168282160390811115611645576116456154f7565b60ff818116838216029081169081811461556d5761556d6154f7565b604081526000615e666040830185614ea5565b828103602084015261449b8185614ea5565b600060208284031215615e8a57600080fd5b81516001600160401b03811115615ea057600080fd5b613fc684828501615668565b6001600160a01b0386811682528516602082015260a060408201819052600090615ed890830186614ea5565b6060830194909452509015156080909101529392505050565b600080600060608486031215615f0657600080fd5b835192506020840151615f1881614cd3565b80925050604084015190509250925092565b600060ff831680615f3d57615f3d615524565b8060ff84160491505092915050565b600060ff831680615f5f57615f5f615524565b8060ff84160691505092915050565b805160208201516001600160c81b03198082169291906007831015615f9d5780818460070360031b1b83161693505b50505091905056fea2646970667358221220ed0a81dc73aec5fbb94f05ec749b441dd59378ddc34045ca2de52d834ad06ec364736f6c63430008130033",
    "linkReferences": {
      "src/lib/Transfer.sol": {
        "Transfer": [
          {
            "start": 4596,
            "length": 20
          },
          {
            "start": 5957,
            "length": 20
          },
          {
            "start": 7088,
            "length": 20
          },
          {
            "start": 7895,
            "length": 20
          },
          {
            "start": 9966,
            "length": 20
          },
          {
            "start": 10233,
            "length": 20
          },
          {
            "start": 13263,
            "length": 20
          },
          {
            "start": 16303,
            "length": 20
          },
          {
            "start": 16536,
            "length": 20
          },
          {
            "start": 17216,
            "length": 20
          },
          {
            "start": 18321,
            "length": 20
          },
          {
            "start": 18893,
            "length": 20
          },
          {
            "start": 18988,
            "length": 20
          },
          {
            "start": 19340,
            "length": 20
          }
        ]
      }
    }
  },
  "methodIdentifiers": {
    "auction((bytes5,address,address,address,address,address,bytes,bytes5,bytes),(uint48,uint48,bool,uint256,bytes))": "f0824069",
    "bid((uint96,address,address,uint256,bytes,bytes,bytes))": "528c410d",
    "calculateQuoteFees(bytes5,bool,uint256)": "4bcbd88b",
    "cancel(uint96)": "8eae8235",
    "claimModuleGas(bytes7)": "bc17699c",
    "claimRewards(address)": "ef5cfb8c",
    "claimYieldAndGas()": "38ec8b42",
    "condensers(bytes7,bytes7)": "f4b26181",
    "curate(uint96)": "a782e524",
    "execOnModule(bytes7,bytes)": "50ab0489",
    "fees(bytes5)": "31d72d6b",
    "getModuleForId(uint96)": "a50076f7",
    "getModuleForVeecode(bytes7)": "9e55cba3",
    "getModuleStatus(bytes5)": "5bb27aab",
    "installModule(address)": "7eb1e761",
    "isExecOnModule()": "5c774ed7",
    "lotCounter()": "c4ce88fd",
    "lotCuration(uint96)": "a249a509",
    "lotRouting(uint96)": "9e2e003a",
    "modules(uint256)": "81b2248a",
    "modulesCount()": "f315aafe",
    "owner()": "8da5cb5b",
    "purchase((address,address,uint96,uint256,uint256,bytes,bytes,bytes))": "c1cf8c7f",
    "refundBid(uint96,uint96)": "d8d95701",
    "rewards(address,address)": "e70b9e27",
    "setCondenser(bytes7,bytes7,bytes7)": "20b15fe4",
    "setCuratorFee(bytes5,uint48)": "7249c0d5",
    "setFee(bytes5,uint8,uint48)": "c74c149b",
    "setProtocol(address)": "0a9d793d",
    "settle(uint96)": "fb9d3cb6",
    "sunsetModule(bytes5)": "c75519ba",
    "transferOwnership(address)": "f2fde38b"
  },
  "id": 34
}