{
  "abi": [
    {
      "type": "constructor",
      "inputs": [
        {
          "name": "auctionHouse_",
          "type": "address",
          "internalType": "address"
        }
      ],
      "stateMutability": "nonpayable"
    },
    {
      "type": "function",
      "name": "auctionHouse",
      "inputs": [],
      "outputs": [
        {
          "name": "",
          "type": "address",
          "internalType": "address"
        }
      ],
      "stateMutability": "view"
    },
    {
      "type": "function",
      "name": "getRouting",
      "inputs": [
        {
          "name": "lotId_",
          "type": "uint96",
          "internalType": "uint96"
        }
      ],
      "outputs": [
        {
          "name": "",
          "type": "tuple",
          "internalType": "struct Auctioneer.Routing",
          "components": [
            {
              "name": "auctionReference",
              "type": "bytes7",
              "internalType": "Veecode"
            },
            {
              "name": "owner",
              "type": "address",
              "internalType": "address"
            },
            {
              "name": "baseToken",
              "type": "address",
              "internalType": "contract ERC20"
            },
            {
              "name": "quoteToken",
              "type": "address",
              "internalType": "contract ERC20"
            },
            {
              "name": "hooks",
              "type": "address",
              "internalType": "contract IHooks"
            },
            {
              "name": "allowlist",
              "type": "address",
              "internalType": "contract IAllowlist"
            },
            {
              "name": "derivativeReference",
              "type": "bytes7",
              "internalType": "Veecode"
            },
            {
              "name": "derivativeParams",
              "type": "bytes",
              "internalType": "bytes"
            },
            {
              "name": "wrapDerivative",
              "type": "bool",
              "internalType": "bool"
            },
            {
              "name": "prefunding",
              "type": "uint256",
              "internalType": "uint256"
            }
          ]
        }
      ],
      "stateMutability": "view"
    },
    {
      "type": "function",
      "name": "hasEnded",
      "inputs": [
        {
          "name": "lotId_",
          "type": "uint96",
          "internalType": "uint96"
        }
      ],
      "outputs": [
        {
          "name": "",
          "type": "bool",
          "internalType": "bool"
        }
      ],
      "stateMutability": "view"
    },
    {
      "type": "function",
      "name": "isLive",
      "inputs": [
        {
          "name": "lotId_",
          "type": "uint96",
          "internalType": "uint96"
        }
      ],
      "outputs": [
        {
          "name": "",
          "type": "bool",
          "internalType": "bool"
        }
      ],
      "stateMutability": "view"
    },
    {
      "type": "function",
      "name": "maxAmountAccepted",
      "inputs": [
        {
          "name": "lotId_",
          "type": "uint96",
          "internalType": "uint96"
        }
      ],
      "outputs": [
        {
          "name": "",
          "type": "uint256",
          "internalType": "uint256"
        }
      ],
      "stateMutability": "view"
    },
    {
      "type": "function",
      "name": "maxPayout",
      "inputs": [
        {
          "name": "lotId_",
          "type": "uint96",
          "internalType": "uint96"
        }
      ],
      "outputs": [
        {
          "name": "",
          "type": "uint256",
          "internalType": "uint256"
        }
      ],
      "stateMutability": "view"
    },
    {
      "type": "function",
      "name": "payoutFor",
      "inputs": [
        {
          "name": "lotId_",
          "type": "uint96",
          "internalType": "uint96"
        },
        {
          "name": "amount_",
          "type": "uint256",
          "internalType": "uint256"
        }
      ],
      "outputs": [
        {
          "name": "",
          "type": "uint256",
          "internalType": "uint256"
        }
      ],
      "stateMutability": "view"
    },
    {
      "type": "function",
      "name": "priceFor",
      "inputs": [
        {
          "name": "lotId_",
          "type": "uint96",
          "internalType": "uint96"
        },
        {
          "name": "payout_",
          "type": "uint256",
          "internalType": "uint256"
        }
      ],
      "outputs": [
        {
          "name": "",
          "type": "uint256",
          "internalType": "uint256"
        }
      ],
      "stateMutability": "view"
    },
    {
      "type": "function",
      "name": "remainingCapacity",
      "inputs": [
        {
          "name": "lotId_",
          "type": "uint96",
          "internalType": "uint96"
        }
      ],
      "outputs": [
        {
          "name": "",
          "type": "uint256",
          "internalType": "uint256"
        }
      ],
      "stateMutability": "view"
    },
    {
      "type": "error",
      "name": "InvalidVeecode",
      "inputs": [
        {
          "name": "veecode_",
          "type": "bytes7",
          "internalType": "Veecode"
        }
      ]
    }
  ],
  "bytecode": {
    "object": "0x608060405234801561001057600080fd5b5060405161123438038061123483398101604081905261002f91610054565b600080546001600160a01b0319166001600160a01b0392909216919091179055610084565b60006020828403121561006657600080fd5b81516001600160a01b038116811461007d57600080fd5b9392505050565b6111a1806100936000396000f3fe608060405234801561001057600080fd5b50600436106100935760003560e01c8063ace54da511610066578063ace54da514610107578063bd8dd0fd1461011a578063d3ad2fed1461012d578063ed9152c814610140578063f39866b01461016b57600080fd5b806303855921146100985780631a85c634146100c05780634dc1a12f146100e1578063732efc03146100f4575b600080fd5b6100ab6100a6366004610c42565b61018b565b60405190151581526020015b60405180910390f35b6100d36100ce366004610c42565b61027d565b6040519081526020016100b7565b6100d36100ef366004610c5d565b6103a4565b6100ab610102366004610c42565b6104cd565b6100d3610115366004610c42565b61057b565b6100d3610128366004610c5d565b610666565b6100d361013b366004610c42565b610827565b600054610153906001600160a01b031681565b6040516001600160a01b0390911681526020016100b7565b61017e610179366004610c42565b6108d5565b6040516100b79190610cd7565b6000805460405163a50076f760e01b81526001600160601b038416600482015282916001600160a01b03169063a50076f790602401602060405180830381865afa1580156101dd573d6000803e3d6000fd5b505050506040513d601f19601f820116820180604052508101906102019190610dd7565b604051630385592160e01b81526001600160601b03851660048201529091506001600160a01b038216906303855921906024015b602060405180830381865afa158015610252573d6000803e3d6000fd5b505050506040513d601f19601f820116820180604052508101906102769190610e04565b9392505050565b6000805460405163a50076f760e01b81526001600160601b038416600482015282916001600160a01b03169063a50076f790602401602060405180830381865afa1580156102cf573d6000803e3d6000fd5b505050506040513d601f19601f820116820180604052508101906102f39190610dd7565b90506000610300846108d5565b6040516306a1718d60e21b81526001600160601b03861660048201529091506000906001600160a01b03841690631a85c63490602401602060405180830381865afa158015610353573d6000803e3d6000fd5b505050506040513d601f19601f820116820180604052508101906103779190610e1f565b90506103916103898360000151610a28565b600183610a3c565b61039b9082610e4e565b95945050505050565b6000805460405163a50076f760e01b81526001600160601b038516600482015282916001600160a01b03169063a50076f790602401602060405180830381865afa1580156103f6573d6000803e3d6000fd5b505050506040513d601f19601f8201168201806040525081019061041a9190610dd7565b90506000610427856108d5565b604051634dc1a12f60e01b81526001600160601b0387166004820152602481018690529091506000906001600160a01b03841690634dc1a12f90604401602060405180830381865afa158015610481573d6000803e3d6000fd5b505050506040513d601f19601f820116820180604052508101906104a59190610e1f565b90506104b76103898360000151610a28565b6104c19082610e4e565b93505050505b92915050565b6000805460405163a50076f760e01b81526001600160601b038416600482015282916001600160a01b03169063a50076f790602401602060405180830381865afa15801561051f573d6000803e3d6000fd5b505050506040513d601f19601f820116820180604052508101906105439190610dd7565b60405163732efc0360e01b81526001600160601b03851660048201529091506001600160a01b0382169063732efc0390602401610235565b6000805460405163a50076f760e01b81526001600160601b038416600482015282916001600160a01b03169063a50076f790602401602060405180830381865afa1580156105cd573d6000803e3d6000fd5b505050506040513d601f19601f820116820180604052508101906105f19190610dd7565b60405163ace54da560e01b81526001600160601b03851660048201529091506001600160a01b0382169063ace54da5906024015b602060405180830381865afa158015610642573d6000803e3d6000fd5b505050506040513d601f19601f820116820180604052508101906102769190610e1f565b6000805460405163a50076f760e01b81526001600160601b038516600482015282916001600160a01b03169063a50076f790602401602060405180830381865afa1580156106b8573d6000803e3d6000fd5b505050506040513d601f19601f820116820180604052508101906106dc9190610dd7565b905060006106e9856108d5565b600080548251929350909182916001600160a01b031690634bcbd88b9061070f90610a28565b6040516001600160e01b031960e084901b1681526001600160d81b0319909116600482015260016024820152604481018990526064016040805180830381865afa158015610761573d6000803e3d6000fd5b505050506040513d601f19601f820116820180604052508101906107859190610e61565b90925090506001600160a01b03841663bd8dd0fd88836107a5868b610e85565b6107af9190610e85565b6040516001600160e01b031960e085901b1681526001600160601b0390921660048301526024820152604401602060405180830381865afa1580156107f8573d6000803e3d6000fd5b505050506040513d601f19601f8201168201806040525081019061081c9190610e1f565b979650505050505050565b6000805460405163a50076f760e01b81526001600160601b038416600482015282916001600160a01b03169063a50076f790602401602060405180830381865afa158015610879573d6000803e3d6000fd5b505050506040513d601f19601f8201168201806040525081019061089d9190610dd7565b60405163d3ad2fed60e01b81526001600160601b03851660048201529091506001600160a01b0382169063d3ad2fed90602401610625565b604080516101408101825260008082526020820181905291810182905260608082018390526080820183905260a0820183905260c0820183905260e0820152610100810182905261012081019190915260008054604051634f17001d60e11b81526001600160601b03851660048201528291829182918291829182918291829182916001600160a01b031690639e2e003a90602401600060405180830381865afa158015610987573d6000803e3d6000fd5b505050506040513d6000823e601f3d908101601f191682016040526109af9190810190610f4e565b60408051610140810182526001600160c81b03199b8c1681526001600160a01b039a8b166020820152988a1690890152958816606088015293871660808701529590911660a08501529490941660c083015260e08201929092529115156101008301526101208201529c9b505050505050505050505050565b600080610a3483610b35565b509392505050565b600080546040516331d72d6b60e01b81526001600160d81b031986166004820152829182916001600160a01b03909116906331d72d6b90602401606060405180830381865afa158015610a93573d6000803e3d6000fd5b505050506040513d601f19601f82011682018060405250810190610ab79190611040565b50915091508415610acf57610acc8183611083565b91505b6000610ade620186a0866110a9565b90506000610aef84620186a06110c0565b65ffffffffffff169050610b0381836110f5565b15610b0f576001610b12565b60005b60ff16610b1f8284611109565b610b299190610e4e565b98975050505050505050565b60008082600360fc1b6001600160f81b031982841a60f81b161080610b6d5750603960f81b8160001a60f81b6001600160f81b031916115b80610b8b5750600360fc1b8160011a60f81b6001600160f81b031916105b80610ba95750603960f81b8160011a60f81b6001600160f81b031916115b15610bd657604051628b684360e31b81526001600160c81b03198516600482015260240160405180910390fd5b6000610be5603083831a61111d565b610bf090600a611136565b9050610c016030600184901a61111d565b610c0b9082611152565b60109290921b6001600160d81b031916959194509092505050565b80356001600160601b0381168114610c3d57600080fd5b919050565b600060208284031215610c5457600080fd5b61027682610c26565b60008060408385031215610c7057600080fd5b610c7983610c26565b946020939093013593505050565b60005b83811015610ca2578181015183820152602001610c8a565b50506000910152565b60008151808452610cc3816020860160208601610c87565b601f01601f19169290920160200192915050565b60208152610cf26020820183516001600160c81b0319169052565b60006020830151610d0e60408401826001600160a01b03169052565b5060408301516001600160a01b03811660608401525060608301516001600160a01b03811660808401525060808301516001600160a01b03811660a08401525060a08301516001600160a01b03811660c08401525060c08301516001600160c81b0319811660e08401525060e08301516101406101008181860152610d97610160860184610cab565b90860151909250610120610dae8682018315159052565b959095015193019290925250919050565b6001600160a01b0381168114610dd457600080fd5b50565b600060208284031215610de957600080fd5b815161027681610dbf565b80518015158114610c3d57600080fd5b600060208284031215610e1657600080fd5b61027682610df4565b600060208284031215610e3157600080fd5b5051919050565b634e487b7160e01b600052601160045260246000fd5b808201808211156104c7576104c7610e38565b60008060408385031215610e7457600080fd5b505080516020909101519092909150565b818103818111156104c7576104c7610e38565b80516001600160c81b031981168114610c3d57600080fd5b634e487b7160e01b600052604160045260246000fd5b600082601f830112610ed757600080fd5b815167ffffffffffffffff80821115610ef257610ef2610eb0565b604051601f8301601f19908116603f01168101908282118183101715610f1a57610f1a610eb0565b81604052838152866020858801011115610f3357600080fd5b610f44846020830160208901610c87565b9695505050505050565b6000806000806000806000806000806101408b8d031215610f6e57600080fd5b610f778b610e98565b995060208b0151610f8781610dbf565b60408c0151909950610f9881610dbf565b60608c0151909850610fa981610dbf565b60808c0151909750610fba81610dbf565b60a08c0151909650610fcb81610dbf565b9450610fd960c08c01610e98565b935060e08b015167ffffffffffffffff811115610ff557600080fd5b6110018d828e01610ec6565b9350506110116101008c01610df4565b91506101208b015190509295989b9194979a5092959850565b805165ffffffffffff81168114610c3d57600080fd5b60008060006060848603121561105557600080fd5b61105e8461102a565b925061106c6020850161102a565b915061107a6040850161102a565b90509250925092565b65ffffffffffff8181168382160190808211156110a2576110a2610e38565b5092915050565b80820281158282048414176104c7576104c7610e38565b65ffffffffffff8281168282160390808211156110a2576110a2610e38565b634e487b7160e01b600052601260045260246000fd5b600082611104576111046110df565b500690565b600082611118576111186110df565b500490565b60ff82811682821603908111156104c7576104c7610e38565b60ff81811683821602908116908181146110a2576110a2610e38565b60ff81811683821601908111156104c7576104c7610e3856fea2646970667358221220db9a7f553c89b2143ca15b0990f607a92690704fbfda21b544ef6dfae2d7800464736f6c63430008130033",
    "linkReferences": {}
  },
  "methodIdentifiers": {
    "auctionHouse()": "ed9152c8",
    "getRouting(uint96)": "f39866b0",
    "hasEnded(uint96)": "03855921",
    "isLive(uint96)": "732efc03",
    "maxAmountAccepted(uint96)": "1a85c634",
    "maxPayout(uint96)": "d3ad2fed",
    "payoutFor(uint96,uint256)": "bd8dd0fd",
    "priceFor(uint96,uint256)": "4dc1a12f",
    "remainingCapacity(uint96)": "ace54da5"
  },
  "id": 31
}