{
  "abi": [
    {
      "type": "constructor",
      "inputs": [
        {
          "name": "parent_",
          "type": "address",
          "internalType": "address"
        }
      ],
      "stateMutability": "nonpayable"
    },
    {
      "type": "function",
      "name": "INIT",
      "inputs": [],
      "outputs": [],
      "stateMutability": "nonpayable"
    },
    {
      "type": "function",
      "name": "PARENT",
      "inputs": [],
      "outputs": [
        {
          "name": "",
          "type": "address",
          "internalType": "address"
        }
      ],
      "stateMutability": "view"
    },
    {
      "type": "function",
      "name": "TYPE",
      "inputs": [],
      "outputs": [
        {
          "name": "",
          "type": "uint8",
          "internalType": "enum Module.Type"
        }
      ],
      "stateMutability": "pure"
    },
    {
      "type": "function",
      "name": "VEECODE",
      "inputs": [],
      "outputs": [
        {
          "name": "",
          "type": "bytes7",
          "internalType": "Veecode"
        }
      ],
      "stateMutability": "pure"
    },
    {
      "type": "function",
      "name": "allowance",
      "inputs": [
        {
          "name": "",
          "type": "address",
          "internalType": "address"
        },
        {
          "name": "",
          "type": "address",
          "internalType": "address"
        },
        {
          "name": "",
          "type": "uint256",
          "internalType": "uint256"
        }
      ],
      "outputs": [
        {
          "name": "",
          "type": "uint256",
          "internalType": "uint256"
        }
      ],
      "stateMutability": "view"
    },
    {
      "type": "function",
      "name": "approve",
      "inputs": [
        {
          "name": "",
          "type": "address",
          "internalType": "address"
        },
        {
          "name": "",
          "type": "uint256",
          "internalType": "uint256"
        },
        {
          "name": "",
          "type": "uint256",
          "internalType": "uint256"
        }
      ],
      "outputs": [
        {
          "name": "",
          "type": "bool",
          "internalType": "bool"
        }
      ],
      "stateMutability": "nonpayable"
    },
    {
      "type": "function",
      "name": "balanceOf",
      "inputs": [
        {
          "name": "",
          "type": "address",
          "internalType": "address"
        },
        {
          "name": "",
          "type": "uint256",
          "internalType": "uint256"
        }
      ],
      "outputs": [
        {
          "name": "",
          "type": "uint256",
          "internalType": "uint256"
        }
      ],
      "stateMutability": "view"
    },
    {
      "type": "function",
      "name": "computeId",
      "inputs": [
        {
          "name": "underlyingToken_",
          "type": "address",
          "internalType": "address"
        },
        {
          "name": "params_",
          "type": "bytes",
          "internalType": "bytes"
        }
      ],
      "outputs": [
        {
          "name": "",
          "type": "uint256",
          "internalType": "uint256"
        }
      ],
      "stateMutability": "pure"
    },
    {
      "type": "function",
      "name": "convertsTo",
      "inputs": [
        {
          "name": "",
          "type": "bytes",
          "internalType": "bytes"
        },
        {
          "name": "",
          "type": "uint256",
          "internalType": "uint256"
        }
      ],
      "outputs": [
        {
          "name": "",
          "type": "uint256",
          "internalType": "uint256"
        }
      ],
      "stateMutability": "view"
    },
    {
      "type": "function",
      "name": "decimals",
      "inputs": [
        {
          "name": "tokenId_",
          "type": "uint256",
          "internalType": "uint256"
        }
      ],
      "outputs": [
        {
          "name": "",
          "type": "uint8",
          "internalType": "uint8"
        }
      ],
      "stateMutability": "view"
    },
    {
      "type": "function",
      "name": "deploy",
      "inputs": [
        {
          "name": "underlyingToken_",
          "type": "address",
          "internalType": "address"
        },
        {
          "name": "params_",
          "type": "bytes",
          "internalType": "bytes"
        },
        {
          "name": "wrapped_",
          "type": "bool",
          "internalType": "bool"
        }
      ],
      "outputs": [
        {
          "name": "tokenId_",
          "type": "uint256",
          "internalType": "uint256"
        },
        {
          "name": "wrappedAddress_",
          "type": "address",
          "internalType": "address"
        }
      ],
      "stateMutability": "nonpayable"
    },
    {
      "type": "function",
      "name": "exercise",
      "inputs": [
        {
          "name": "",
          "type": "uint256",
          "internalType": "uint256"
        },
        {
          "name": "",
          "type": "uint256",
          "internalType": "uint256"
        }
      ],
      "outputs": [],
      "stateMutability": "nonpayable"
    },
    {
      "type": "function",
      "name": "exerciseCost",
      "inputs": [
        {
          "name": "",
          "type": "bytes",
          "internalType": "bytes"
        },
        {
          "name": "",
          "type": "uint256",
          "internalType": "uint256"
        }
      ],
      "outputs": [
        {
          "name": "",
          "type": "uint256",
          "internalType": "uint256"
        }
      ],
      "stateMutability": "view"
    },
    {
      "type": "function",
      "name": "getTokenMetadata",
      "inputs": [
        {
          "name": "tokenId",
          "type": "uint256",
          "internalType": "uint256"
        }
      ],
      "outputs": [
        {
          "name": "",
          "type": "tuple",
          "internalType": "struct Derivative.Token",
          "components": [
            {
              "name": "exists",
              "type": "bool",
              "internalType": "bool"
            },
            {
              "name": "wrapped",
              "type": "address",
              "internalType": "address"
            },
            {
              "name": "underlyingToken",
              "type": "address",
              "internalType": "address"
            },
            {
              "name": "data",
              "type": "bytes",
              "internalType": "bytes"
            }
          ]
        }
      ],
      "stateMutability": "view"
    },
    {
      "type": "function",
      "name": "isOperator",
      "inputs": [
        {
          "name": "",
          "type": "address",
          "internalType": "address"
        },
        {
          "name": "",
          "type": "address",
          "internalType": "address"
        }
      ],
      "outputs": [
        {
          "name": "",
          "type": "bool",
          "internalType": "bool"
        }
      ],
      "stateMutability": "view"
    },
    {
      "type": "function",
      "name": "mint",
      "inputs": [
        {
          "name": "to_",
          "type": "address",
          "internalType": "address"
        },
        {
          "name": "tokenId_",
          "type": "uint256",
          "internalType": "uint256"
        },
        {
          "name": "amount_",
          "type": "uint256",
          "internalType": "uint256"
        },
        {
          "name": "wrapped_",
          "type": "bool",
          "internalType": "bool"
        }
      ],
      "outputs": [
        {
          "name": "",
          "type": "uint256",
          "internalType": "uint256"
        },
        {
          "name": "",
          "type": "address",
          "internalType": "address"
        },
        {
          "name": "",
          "type": "uint256",
          "internalType": "uint256"
        }
      ],
      "stateMutability": "nonpayable"
    },
    {
      "type": "function",
      "name": "mint",
      "inputs": [
        {
          "name": "to_",
          "type": "address",
          "internalType": "address"
        },
        {
          "name": "underlyingToken_",
          "type": "address",
          "internalType": "address"
        },
        {
          "name": "params_",
          "type": "bytes",
          "internalType": "bytes"
        },
        {
          "name": "amount_",
          "type": "uint256",
          "internalType": "uint256"
        },
        {
          "name": "wrapped_",
          "type": "bool",
          "internalType": "bool"
        }
      ],
      "outputs": [
        {
          "name": "tokenId_",
          "type": "uint256",
          "internalType": "uint256"
        },
        {
          "name": "wrappedAddress_",
          "type": "address",
          "internalType": "address"
        },
        {
          "name": "amountCreated_",
          "type": "uint256",
          "internalType": "uint256"
        }
      ],
      "stateMutability": "nonpayable"
    },
    {
      "type": "function",
      "name": "name",
      "inputs": [
        {
          "name": "tokenId_",
          "type": "uint256",
          "internalType": "uint256"
        }
      ],
      "outputs": [
        {
          "name": "",
          "type": "string",
          "internalType": "string"
        }
      ],
      "stateMutability": "view"
    },
    {
      "type": "function",
      "name": "reclaim",
      "inputs": [
        {
          "name": "",
          "type": "uint256",
          "internalType": "uint256"
        }
      ],
      "outputs": [],
      "stateMutability": "nonpayable"
    },
    {
      "type": "function",
      "name": "redeem",
      "inputs": [
        {
          "name": "tokenId_",
          "type": "uint256",
          "internalType": "uint256"
        },
        {
          "name": "amount_",
          "type": "uint256",
          "internalType": "uint256"
        }
      ],
      "outputs": [],
      "stateMutability": "nonpayable"
    },
    {
      "type": "function",
      "name": "redeemMax",
      "inputs": [
        {
          "name": "tokenId_",
          "type": "uint256",
          "internalType": "uint256"
        }
      ],
      "outputs": [],
      "stateMutability": "nonpayable"
    },
    {
      "type": "function",
      "name": "redeemable",
      "inputs": [
        {
          "name": "owner_",
          "type": "address",
          "internalType": "address"
        },
        {
          "name": "tokenId_",
          "type": "uint256",
          "internalType": "uint256"
        }
      ],
      "outputs": [
        {
          "name": "",
          "type": "uint256",
          "internalType": "uint256"
        }
      ],
      "stateMutability": "view"
    },
    {
      "type": "function",
      "name": "setOperator",
      "inputs": [
        {
          "name": "operator",
          "type": "address",
          "internalType": "address"
        },
        {
          "name": "approved",
          "type": "bool",
          "internalType": "bool"
        }
      ],
      "outputs": [
        {
          "name": "",
          "type": "bool",
          "internalType": "bool"
        }
      ],
      "stateMutability": "nonpayable"
    },
    {
      "type": "function",
      "name": "supportsInterface",
      "inputs": [
        {
          "name": "interfaceId",
          "type": "bytes4",
          "internalType": "bytes4"
        }
      ],
      "outputs": [
        {
          "name": "",
          "type": "bool",
          "internalType": "bool"
        }
      ],
      "stateMutability": "view"
    },
    {
      "type": "function",
      "name": "symbol",
      "inputs": [
        {
          "name": "tokenId_",
          "type": "uint256",
          "internalType": "uint256"
        }
      ],
      "outputs": [
        {
          "name": "",
          "type": "string",
          "internalType": "string"
        }
      ],
      "stateMutability": "view"
    },
    {
      "type": "function",
      "name": "tokenMetadata",
      "inputs": [
        {
          "name": "tokenId",
          "type": "uint256",
          "internalType": "uint256"
        }
      ],
      "outputs": [
        {
          "name": "exists",
          "type": "bool",
          "internalType": "bool"
        },
        {
          "name": "wrapped",
          "type": "address",
          "internalType": "address"
        },
        {
          "name": "underlyingToken",
          "type": "address",
          "internalType": "address"
        },
        {
          "name": "data",
          "type": "bytes",
          "internalType": "bytes"
        }
      ],
      "stateMutability": "view"
    },
    {
      "type": "function",
      "name": "totalSupply",
      "inputs": [
        {
          "name": "",
          "type": "uint256",
          "internalType": "uint256"
        }
      ],
      "outputs": [
        {
          "name": "",
          "type": "uint256",
          "internalType": "uint256"
        }
      ],
      "stateMutability": "view"
    },
    {
      "type": "function",
      "name": "transfer",
      "inputs": [
        {
          "name": "",
          "type": "address",
          "internalType": "address"
        },
        {
          "name": "",
          "type": "uint256",
          "internalType": "uint256"
        },
        {
          "name": "",
          "type": "uint256",
          "internalType": "uint256"
        }
      ],
      "outputs": [
        {
          "name": "",
          "type": "bool",
          "internalType": "bool"
        }
      ],
      "stateMutability": "nonpayable"
    },
    {
      "type": "function",
      "name": "transferFrom",
      "inputs": [
        {
          "name": "",
          "type": "address",
          "internalType": "address"
        },
        {
          "name": "",
          "type": "address",
          "internalType": "address"
        },
        {
          "name": "",
          "type": "uint256",
          "internalType": "uint256"
        },
        {
          "name": "",
          "type": "uint256",
          "internalType": "uint256"
        }
      ],
      "outputs": [
        {
          "name": "",
          "type": "bool",
          "internalType": "bool"
        }
      ],
      "stateMutability": "nonpayable"
    },
    {
      "type": "function",
      "name": "transform",
      "inputs": [
        {
          "name": "",
          "type": "uint256",
          "internalType": "uint256"
        },
        {
          "name": "",
          "type": "address",
          "internalType": "address"
        },
        {
          "name": "",
          "type": "uint256",
          "internalType": "uint256"
        }
      ],
      "outputs": [],
      "stateMutability": "nonpayable"
    },
    {
      "type": "function",
      "name": "unwrap",
      "inputs": [
        {
          "name": "tokenId_",
          "type": "uint256",
          "internalType": "uint256"
        },
        {
          "name": "amount_",
          "type": "uint256",
          "internalType": "uint256"
        }
      ],
      "outputs": [],
      "stateMutability": "nonpayable"
    },
    {
      "type": "function",
      "name": "userVesting",
      "inputs": [
        {
          "name": "owner_",
          "type": "address",
          "internalType": "address"
        },
        {
          "name": "tokenId_",
          "type": "uint256",
          "internalType": "uint256"
        }
      ],
      "outputs": [
        {
          "name": "receivedAt",
          "type": "uint48",
          "internalType": "uint48"
        },
        {
          "name": "claimed",
          "type": "uint256",
          "internalType": "uint256"
        }
      ],
      "stateMutability": "view"
    },
    {
      "type": "function",
      "name": "validate",
      "inputs": [
        {
          "name": "underlyingToken_",
          "type": "address",
          "internalType": "address"
        },
        {
          "name": "params_",
          "type": "bytes",
          "internalType": "bytes"
        }
      ],
      "outputs": [
        {
          "name": "",
          "type": "bool",
          "internalType": "bool"
        }
      ],
      "stateMutability": "view"
    },
    {
      "type": "function",
      "name": "wrap",
      "inputs": [
        {
          "name": "tokenId_",
          "type": "uint256",
          "internalType": "uint256"
        },
        {
          "name": "amount_",
          "type": "uint256",
          "internalType": "uint256"
        }
      ],
      "outputs": [],
      "stateMutability": "nonpayable"
    },
    {
      "type": "event",
      "name": "Approval",
      "inputs": [
        {
          "name": "owner",
          "type": "address",
          "indexed": true,
          "internalType": "address"
        },
        {
          "name": "spender",
          "type": "address",
          "indexed": true,
          "internalType": "address"
        },
        {
          "name": "id",
          "type": "uint256",
          "indexed": true,
          "internalType": "uint256"
        },
        {
          "name": "amount",
          "type": "uint256",
          "indexed": false,
          "internalType": "uint256"
        }
      ],
      "anonymous": false
    },
    {
      "type": "event",
      "name": "DerivativeCreated",
      "inputs": [
        {
          "name": "tokenId",
          "type": "uint256",
          "indexed": true,
          "internalType": "uint256"
        },
        {
          "name": "expiry",
          "type": "uint48",
          "indexed": false,
          "internalType": "uint48"
        },
        {
          "name": "baseToken",
          "type": "address",
          "indexed": false,
          "internalType": "address"
        }
      ],
      "anonymous": false
    },
    {
      "type": "event",
      "name": "OperatorSet",
      "inputs": [
        {
          "name": "owner",
          "type": "address",
          "indexed": true,
          "internalType": "address"
        },
        {
          "name": "operator",
          "type": "address",
          "indexed": true,
          "internalType": "address"
        },
        {
          "name": "approved",
          "type": "bool",
          "indexed": false,
          "internalType": "bool"
        }
      ],
      "anonymous": false
    },
    {
      "type": "event",
      "name": "Redeemed",
      "inputs": [
        {
          "name": "tokenId",
          "type": "uint256",
          "indexed": true,
          "internalType": "uint256"
        },
        {
          "name": "owner",
          "type": "address",
          "indexed": true,
          "internalType": "address"
        },
        {
          "name": "amount",
          "type": "uint256",
          "indexed": false,
          "internalType": "uint256"
        }
      ],
      "anonymous": false
    },
    {
      "type": "event",
      "name": "Transfer",
      "inputs": [
        {
          "name": "caller",
          "type": "address",
          "indexed": false,
          "internalType": "address"
        },
        {
          "name": "from",
          "type": "address",
          "indexed": true,
          "internalType": "address"
        },
        {
          "name": "to",
          "type": "address",
          "indexed": true,
          "internalType": "address"
        },
        {
          "name": "id",
          "type": "uint256",
          "indexed": true,
          "internalType": "uint256"
        },
        {
          "name": "amount",
          "type": "uint256",
          "indexed": false,
          "internalType": "uint256"
        }
      ],
      "anonymous": false
    },
    {
      "type": "event",
      "name": "Unwrapped",
      "inputs": [
        {
          "name": "tokenId",
          "type": "uint256",
          "indexed": true,
          "internalType": "uint256"
        },
        {
          "name": "owner",
          "type": "address",
          "indexed": true,
          "internalType": "address"
        },
        {
          "name": "amount",
          "type": "uint256",
          "indexed": false,
          "internalType": "uint256"
        },
        {
          "name": "wrappedToken",
          "type": "address",
          "indexed": false,
          "internalType": "address"
        }
      ],
      "anonymous": false
    },
    {
      "type": "event",
      "name": "Wrapped",
      "inputs": [
        {
          "name": "tokenId",
          "type": "uint256",
          "indexed": true,
          "internalType": "uint256"
        },
        {
          "name": "owner",
          "type": "address",
          "indexed": true,
          "internalType": "address"
        },
        {
          "name": "amount",
          "type": "uint256",
          "indexed": false,
          "internalType": "uint256"
        },
        {
          "name": "wrappedToken",
          "type": "address",
          "indexed": false,
          "internalType": "address"
        }
      ],
      "anonymous": false
    },
    {
      "type": "event",
      "name": "WrappedDerivativeCreated",
      "inputs": [
        {
          "name": "tokenId",
          "type": "uint256",
          "indexed": true,
          "internalType": "uint256"
        },
        {
          "name": "wrappedToken",
          "type": "address",
          "indexed": false,
          "internalType": "address"
        }
      ],
      "anonymous": false
    },
    {
      "type": "error",
      "name": "BrokenInvariant",
      "inputs": []
    },
    {
      "type": "error",
      "name": "Derivative_NotImplemented",
      "inputs": []
    },
    {
      "type": "error",
      "name": "InsufficientBalance",
      "inputs": []
    },
    {
      "type": "error",
      "name": "InvalidParams",
      "inputs": []
    },
    {
      "type": "error",
      "name": "Module_InvalidParent",
      "inputs": [
        {
          "name": "parent_",
          "type": "address",
          "internalType": "address"
        }
      ]
    },
    {
      "type": "error",
      "name": "Module_OnlyInternal",
      "inputs": []
    },
    {
      "type": "error",
      "name": "Module_OnlyParent",
      "inputs": [
        {
          "name": "caller_",
          "type": "address",
          "internalType": "address"
        }
      ]
    },
    {
      "type": "error",
      "name": "NotPermitted",
      "inputs": []
    },
    {
      "type": "error",
      "name": "UnsupportedToken",
      "inputs": [
        {
          "name": "token_",
          "type": "address",
          "internalType": "address"
        }
      ]
    }
  ],
  "bytecode": {
    "object": "0x60e0604052602060a0523480156200001657600080fd5b5060405162003c1238038062003c128339810160408190526200003991620000ca565b806001600160a01b0381166200007157604051631462ddc360e21b81526001600160a01b038216600482015260240160405180910390fd5b6001600160a01b03166080526040516200008b90620000bc565b604051809103906000f080158015620000a8573d6000803e3d6000fd5b506001600160a01b031660c05250620000fc565b61075d80620034b583390190565b600060208284031215620000dd57600080fd5b81516001600160a01b0381168114620000f557600080fd5b9392505050565b60805160a05160c05161337b6200013a60003960008181611b4b0152611d62015260006118490152600081816102a601526115c6015261337b6000f3fe608060405234801561001057600080fd5b50600436106102045760003560e01c80636e2866711161011a578063d61735ca116100ad578063e40d88f81161007c578063e40d88f814610586578063ea64391414610599578063f6e9936a146105a1578063f904eed8146105af578063fe99049a146105c257600080fd5b8063d61735ca146104c1578063dbad2d9a146104e2578063dbf110a7146104f5578063e292b5021461052b57600080fd5b8063b6363cf2116100e9578063b6363cf214610451578063bb24fe8a1461047f578063bd85b0391461048e578063caf92785146104ae57600080fd5b80636e2866711461041d5780637cbc2373146104305780639ad790c51461040a578063a86265bb1461044357600080fd5b80633f47e6621161019d578063598af9e71161016c578063598af9e71461038357806360316801146103b457806367627b62146103d45780636914db60146103e75780636a9311b71461040a57600080fd5b80633f47e66214610338578063426a84931461028e5780634e41a1fb1461035d578063558a72971461037057600080fd5b8063122b83f9116101d9578063122b83f9146102a15780631f54245b146102e057806325ded586146103105780632dabbeed1461032557600080fd5b8062ad800c14610209578062fdd58e1461023257806301ffc9a71461026b578063095bcdb61461028e575b600080fd5b61021c6102173660046127f0565b6105d0565b6040516102299190612859565b60405180910390f35b61025d61024036600461288b565b600360209081526000928352604080842090915290825290205481565b604051908152602001610229565b61027e6102793660046128b7565b6106dc565b6040519015158152602001610229565b61027e61029c3660046128e1565b610713565b6102c87f000000000000000000000000000000000000000000000000000000000000000081565b6040516001600160a01b039091168152602001610229565b6102f36102ee3660046129f0565b61072e565b604080519283526001600160a01b03909116602083015201610229565b61032361031e366004612a50565b610787565b005b6103236103333660046127f0565b6108f7565b61034b6103463660046127f0565b610910565b60405160ff9091168152602001610229565b61021c61036b3660046127f0565b610a67565b61027e61037e366004612a72565b610b71565b61025d610391366004612aa7565b600460209081526000938452604080852082529284528284209052825290205481565b6103c76103c23660046127f0565b610be1565b6040516102299190612ae8565b61025d6103e236600461288b565b610ced565b6103fa6103f53660046127f0565b610f97565b6040516102299493929190612b31565b61025d610418366004612b6f565b61105a565b61032361042b366004612a50565b611075565b61032361043e366004612a50565b61126a565b610323610333366004612a50565b61027e61045f366004612bb4565b600260209081526000928352604080842090915290825290205460ff1681565b60016040516102299190612bed565b61025d61049c3660046127f0565b60016020526000908152604090205481565b61027e6104bc366004612c15565b611302565b6104c9611322565b6040516001600160c81b03199091168152602001610229565b61025d6104f0366004612c15565b61133a565b610508610503366004612c65565b611358565b604080519384526001600160a01b03909216602084015290820152606001610229565b61056861053936600461288b565b60056020908152600092835260408084209091529082529020805460019091015465ffffffffffff9091169082565b6040805165ffffffffffff9093168352602083019190915201610229565b610508610594366004612cad565b6114be565b6103236115bb565b610323610333366004612d2a565b6103236105bd3660046127f0565b61160d565b61027e61029c366004612d51565b600081815260208190526040812054606091839160ff161515900361060857604051635435b28960e11b815260040160405180910390fd5b600083815260208190526040812060028101805491929161062890612d97565b80601f016020809104026020016040519081016040528092919081815260200182805461065490612d97565b80156106a15780601f10610676576101008083540402835291602001916106a1565b820191906000526020600020905b81548152906001019060200180831161068457829003601f168201915b50505050508060200190518101906106b99190612de1565b905060006106cf82602001518360000151611683565b5094505050505b50919050565b60006301ffc9a760e01b6001600160e01b03198316148061070d57506359734fc560e11b6001600160e01b03198316145b92915050565b60006040516339218f3b60e01b815260040160405180910390fd5b600080600061073c85611838565b9050610748868261189c565b151560000361076a57604051635435b28960e11b815260040160405180910390fd5b6000806107788884886118d9565b90999098509650505050505050565b600082815260208190526040812054839160ff909116151590036107be57604051635435b28960e11b815260040160405180910390fd5b816000036107df57604051635435b28960e11b815260040160405180910390fd5b33600090815260036020908152604080832086845290915290205482111561081a57604051631e9acf1760e31b815260040160405180910390fd5b610825338484611a98565b600083815260208190526040902061083d8482611b32565b5080546040516340c10f1960e01b8152336004820152602481018590526101009091046001600160a01b0316906340c10f1990604401600060405180830381600087803b15801561088d57600080fd5b505af11580156108a1573d6000803e3d6000fd5b50508254604080518781526101009092046001600160a01b031660208301523393508792507fed8f3f6d485df7980ffa03dd0323e0e62decf810572edd79af06baf0f74efe06910160405180910390a350505050565b60405163cb93550d60e01b815260040160405180910390fd5b600081815260208190526040812054829060ff161515820361094557604051635435b28960e11b815260040160405180910390fd5b600083815260208190526040812060028101805491929161096590612d97565b80601f016020809104026020016040519081016040528092919081815260200182805461099190612d97565b80156109de5780601f106109b3576101008083540402835291602001916109de565b820191906000526020600020905b8154815290600101906020018083116109c157829003601f168201915b50505050508060200190518101906109f69190612de1565b905080602001516001600160a01b031663313ce5676040518163ffffffff1660e01b8152600401602060405180830381865afa158015610a3a573d6000803e3d6000fd5b505050506040513d601f19601f82011682018060405250810190610a5e9190612e3e565b95945050505050565b600081815260208190526040812054606091839160ff1615159003610a9f57604051635435b28960e11b815260040160405180910390fd5b6000838152602081905260408120600281018054919291610abf90612d97565b80601f0160208091040260200160405190810160405280929190818152602001828054610aeb90612d97565b8015610b385780601f10610b0d57610100808354040283529160200191610b38565b820191906000526020600020905b815481529060010190602001808311610b1b57829003601f168201915b5050505050806020019051810190610b509190612de1565b90506000610b6682602001518360000151611683565b979650505050505050565b3360008181526002602090815260408083206001600160a01b038716808552908352818420805460ff191687151590811790915591519182529293917fceb576d9f15e4e200fdb5096d64d5dfd667e16def20c1eefd14256d8e3faa267910160405180910390a350600192915050565b6040805160808101825260008082526020820181905291810191909152606080820152600082815260208181526040918290208251608081018452815460ff8116151582526001600160a01b03610100909104811693820193909352600182015490921692820192909252600282018054919291606084019190610c6490612d97565b80601f0160208091040260200160405190810160405280929190818152602001828054610c9090612d97565b8015610cdd5780601f10610cb257610100808354040283529160200191610cdd565b820191906000526020600020905b815481529060010190602001808311610cc057829003601f168201915b5050505050815250509050919050565b600081815260208190526040812054829060ff1615158203610d2257604051635435b28960e11b815260040160405180910390fd5b6000838152602081905260408120600281018054919291610d4290612d97565b80601f0160208091040260200160405190810160405280929190818152602001828054610d6e90612d97565b8015610dbb5780601f10610d9057610100808354040283529160200191610dbb565b820191906000526020600020905b815481529060010190602001808311610d9e57829003601f168201915b5050505050806020019051810190610dd39190612de1565b6001600160a01b038716600090815260056020908152604080832089845290915281205491925065ffffffffffff90911690819003610e185760009450505050610f90565b6001600160a01b0380881660009081526003602090815260408083208a8452909152812054855490926101009091041615610ec55784546040516370a0823160e01b81526001600160a01b038b81166004830152610100909204909116906370a0823190602401602060405180830381865afa158015610e9c573d6000803e3d6000fd5b505050506040513d601f19601f82011682018060405250810190610ec09190612e61565b610ec8565b60005b6001600160a01b038a1660009081526005602090815260408083208c845290915281206001015491925081610efd8486612e90565b610f079190612e90565b90506000866000015165ffffffffffff164210610f25575080610f5a565b610f57610f3a65ffffffffffff881642612ea3565b8851610f47908990612eb6565b84919065ffffffffffff16611e01565b90505b82811015610f7b5760405163efbc9a9760e01b815260040160405180910390fd5b610f858382612ea3565b995050505050505050505b5092915050565b60006020819052908152604090208054600182015460028301805460ff8416946101009094046001600160a01b03908116949316929190610fd790612d97565b80601f016020809104026020016040519081016040528092919081815260200182805461100390612d97565b80156110505780601f1061102557610100808354040283529160200191611050565b820191906000526020600020905b81548152906001019060200180831161103357829003601f168201915b5050505050905084565b600060405163cb93550d60e01b815260040160405180910390fd5b600082815260208190526040812054839160ff909116151590036110ac57604051635435b28960e11b815260040160405180910390fd5b600083815260208190526040902054839061010090046001600160a01b03166110e857604051635435b28960e11b815260040160405180910390fd5b8260000361110957604051635435b28960e11b815260040160405180910390fd5b60008481526020819052604090819020805491516370a0823160e01b8152336004820152909161010090046001600160a01b031690859082906370a0823190602401602060405180830381865afa158015611168573d6000803e3d6000fd5b505050506040513d601f19601f8201168201806040525081019061118c9190612e61565b10156111ab57604051631e9acf1760e31b815260040160405180910390fd5b604051632770a7eb60e21b8152336004820152602481018690526001600160a01b03821690639dc29fac90604401600060405180830381600087803b1580156111f357600080fd5b505af1158015611207573d6000803e3d6000fd5b50505050611216338787611e1f565b8154604080518781526101009092046001600160a01b03166020830152339188917f171711504f91229e77cb6057e65ba3567d9072edd7152eb5f11cc13152407da3910160405180910390a3505050505050565b600082815260208190526040812054839160ff909116151590036112a157604051635435b28960e11b815260040160405180910390fd5b816000036112c257604051635435b28960e11b815260040160405180910390fd5b60006112ce3385610ced565b9050828110156112f157604051631e9acf1760e31b815260040160405180910390fd5b6112fc843385611ea2565b50505050565b60008061130e83611838565b905061131a848261189c565b949350505050565b6000611335622624ab60e91b600161216c565b905090565b60008061134683611838565b80519091508490610a5e9082906121f2565b60008381526020819052604081205481908190869060ff161515820361139157604051635435b28960e11b815260040160405180910390fd5b856000036113b257604051635435b28960e11b815260040160405180910390fd5b60008781526020819052604081206002810180549192916113d290612d97565b80601f01602080910402602001604051908101604052809291908181526020018280546113fe90612d97565b801561144b5780601f106114205761010080835404028352916020019161144b565b820191906000526020600020905b81548152906001019060200180831161142e57829003601f168201915b50505050508060200190518101906114639190612de1565b905042816000015165ffffffffffff16101561149257604051635435b28960e11b815260040160405180910390fd5b61149f8a8a8a858b612275565b505496986101009097046001600160a01b031697509495945050505050565b6000806000846000036114e457604051635435b28960e11b815260040160405180910390fd5b60006114ef87611838565b90506114fb888261189c565b151560000361151d57604051635435b28960e11b815260040160405180910390fd5b6001600160a01b03881661154457604051635435b28960e11b815260040160405180910390fd5b42816000015165ffffffffffff16101561157157604051635435b28960e11b815260040160405180910390fd5b61157c8882876118d9565b50600081815260208190526040902090945061159b8a8689848a612275565b5493996101009094046001600160a01b0316985094965091945050505050565b336001600160a01b037f0000000000000000000000000000000000000000000000000000000000000000161461160b576040516366e069e160e01b81523360048201526024015b60405180910390fd5b565b600081815260208190526040812054829160ff9091161515900361164457604051635435b28960e11b815260040160405180910390fd5b60006116503384610ced565b90508060000361167357604051631e9acf1760e31b815260040160405180910390fd5b61167e833383611ea2565b505050565b604051630455de8d60e11b815265ffffffffffff8216600482015260609081906000908190819073__$dad9d702ebcf30e136ab952dddd2dac006$__906308abbd1a90602401600060405180830381865af41580156116e6573d6000803e3d6000fd5b505050506040513d6000823e601f3d908101601f1916820160405261170e9190810190612f1a565b925092509250866001600160a01b03166306fdde036040518163ffffffff1660e01b8152600401600060405180830381865afa158015611752573d6000803e3d6000fd5b505050506040513d6000823e601f3d908101601f1916820160405261177a9190810190612fa2565b8383836040516020016117909493929190612fd7565b604051602081830303815290604052876001600160a01b03166395d89b416040518163ffffffff1660e01b8152600401600060405180830381865afa1580156117dd573d6000803e3d6000fd5b505050506040513d6000823e601f3d908101601f191682016040526118059190810190612fa2565b84848460405160200161181b9493929190612fd7565b604051602081830303815290604052945094505050509250929050565b6040805160208101909152600081527f000000000000000000000000000000000000000000000000000000000000000082511461188857604051635435b28960e11b815260040160405180910390fd5b8180602001905181019061070d9190613054565b600042826000015165ffffffffffff1610156118ba5750600061070d565b6001600160a01b0383166118d05750600061070d565b50600192915050565b60008060008590506118ef8186600001516121f2565b600081815260208190526040812080549295509160ff1615159003611a6b578054600160ff1990911681178255810180546001600160a01b0319166001600160a01b0389811691909117909155604080518082018252885165ffffffffffff168082528584166020928301908152835192830191909152519092169082015260600160405160208183030381529060405281600201908161199091906130e4565b5060008481526020819052604090208154815460ff909116151560ff1982168117835583546001600160a01b03610100918290048116909102610100600160a81b03199092166001600160a81b03199093169290921717825560018084015490830180546001600160a01b031916919092161790558190600280820190611a19908401826131a4565b505086516040805165ffffffffffff90921682526001600160a01b038a1660208301528692507f5c8b89b4d3e10448492c3f06749b0176edbec042119922627950587c544c156c910160405180910390a25b8415611a7d57611a7b8482611b32565b505b546001600160a01b0361010090910416915050935093915050565b6001600160a01b038316600090815260036020908152604080832085845290915281208054839290611acb908490612ea3565b909155505060008281526001602090815260408083208054859003905580513381529182018490528492916001600160a01b038716917f1b3d7edb2e9c0b0e7c525b20aaaef0f5940d2ed71663c7d39266ecafac72885991015b60405180910390a4505050565b805460009061010090046001600160a01b0316611dec577f00000000000000000000000000000000000000000000000000000000000000006001600160a01b0316611b9057604051635435b28960e11b815260040160405180910390fd5b6000826002018054611ba190612d97565b80601f0160208091040260200160405190810160405280929190818152602001828054611bcd90612d97565b8015611c1a5780601f10611bef57610100808354040283529160200191611c1a565b820191906000526020600020905b815481529060010190602001808311611bfd57829003601f168201915b5050505050806020019051810190611c329190612de1565b9050600080611c4983602001518460000151611683565b91509150600082611c5990613277565b611c6283613277565b85602001516001600160a01b031663313ce5676040518163ffffffff1660e01b8152600401602060405180830381865afa158015611ca4573d6000803e3d6000fd5b505050506040513d601f19601f82011682018060405250810190611cc89190612e3e565b8651602080890151604051611d439695949365ffffffffffff169230929101958652602086019490945260f89290921b6001600160f81b031916604085015260c01b6001600160c01b0319166041840152606090811b6bffffffffffffffffffffffff19908116604985015291901b16605d82015260710190565b60408051601f198184030181529190529050611d896001600160a01b037f000000000000000000000000000000000000000000000000000000000000000016828961257a565b8654610100600160a81b0319166101006001600160a01b03928316810291909117808955604051919004909116815287907fc687cf6c60d91b1f6be3b5e820ae9a808dc51f7b3bf4aab1967232b2f71c97d49060200160405180910390a2505050505b505461010090046001600160a01b0316919050565b6000826000190484118302158202611e1857600080fd5b5091020490565b60008281526001602052604081208054839290611e3d908490612e90565b90915550506001600160a01b038316600081815260036020908152604080832086845282528083208054860190558051338152918201859052859392917f1b3d7edb2e9c0b0e7c525b20aaaef0f5940d2ed71663c7d39266ecafac7288599101611b25565b6000838152602081815260408083206001600160a01b0380871685526003845282852088865290935290832054815491939092909161010090041615611f5a5782546040516370a0823160e01b81526001600160a01b038781166004830152610100909204909116906370a0823190602401602060405180830381865afa158015611f31573d6000803e3d6000fd5b505050506040513d601f19601f82011682018060405250810190611f559190612e61565b611f5d565b60005b90506000828511611f6e5784611f70565b825b90506000611f7e8287612ea3565b905082811115611fa157604051631e9acf1760e31b815260040160405180910390fd5b6001600160a01b03871660009081526005602090815260408083208b845290915281206001018054889290611fd7908490612e90565b90915550508115611fed57611fed878984611a98565b801561205f578454604051632770a7eb60e21b81526001600160a01b0389811660048301526024820184905261010090920490911690639dc29fac90604401600060405180830381600087803b15801561204657600080fd5b505af115801561205a573d6000803e3d6000fd5b505050505b600085600201805461207090612d97565b80601f016020809104026020016040519081016040528092919081815260200182805461209c90612d97565b80156120e95780601f106120be576101008083540402835291602001916120e9565b820191906000526020600020905b8154815290600101906020018083116120cc57829003601f168201915b50505050508060200190518101906121019190612de1565b602081015190915061211d906001600160a01b031689896126d3565b876001600160a01b0316897fa18626381edd3d7a115c4a09f678bb79665034a541affcdba9fe65a1d3d107ee8960405161215991815260200190565b60405180910390a3505050505050505050565b60008061217a600a846132b1565b6121859060306132d3565b60f81b90506000612197600a856132ec565b6121a29060306132d3565b6040516001600160f81b0319808516602083015260f89290921b91821660218201526001600160d81b031987166022820152909150602701604051602081830303815290604052610a5e9061330e565b60006121fc611322565b604080516001600160a01b038616602082015265ffffffffffff85169181019190915260600160408051601f198184030181529082905280516020918201206001600160c81b031990931690820152602781019190915260470160408051601f1981840301815291905280516020909101209392505050565b8015612287576122858483611b32565b505b60006122938686610ced565b905080156122a6576122a6858783611ea2565b6001600160a01b03861660009081526005602090815260408083208884529091528120805465ffffffffffff19164265ffffffffffff161781556001018190556002840180546122f590612d97565b80601f016020809104026020016040519081016040528092919081815260200182805461232190612d97565b801561236e5780601f106123435761010080835404028352916020019161236e565b820191906000526020600020905b81548152906001019060200180831161235157829003601f168201915b50505050508060200190518101906123869190612de1565b60208101516040516370a0823160e01b81523060048201529192506000916001600160a01b03909116906370a0823190602401602060405180830381865afa1580156123d6573d6000803e3d6000fd5b505050506040513d601f19601f820116820180604052508101906123fa9190612e61565b6020830151909150612417906001600160a01b0316333089612754565b6124218682612e90565b60208301516040516370a0823160e01b81523060048201526001600160a01b03909116906370a0823190602401602060405180830381865afa15801561246b573d6000803e3d6000fd5b505050506040513d601f19601f8201168201806040525081019061248f9190612e61565b10156124bf576020820151604051635f8b555b60e11b81526001600160a01b039091166004820152602401611602565b5050811561256757825461010090046001600160a01b03166124f457604051635435b28960e11b815260040160405180910390fd5b82546040516340c10f1960e01b81526001600160a01b038881166004830152602482018790526101009092049091169081906340c10f1990604401600060405180830381600087803b15801561254957600080fd5b505af115801561255d573d6000803e3d6000fd5b5050505050612572565b612572868686611e1f565b505050505050565b8151604051613d6160f01b8152603a820160f090811b6002838101919091526680600b3d3981f360c81b600484015264363d3d376160d81b600b8401528301901b6010820181905268603836393d3d3d366160b81b6012830152601b82015262013d7360e81b601d820152606085901b6020808301919091526e5af43d82803e903d91603657fd5bf360881b60348301526000929160458301918390604383019088015b6020831061263d5780518252601f19909201916020918201910161261e565b60006001846020036101000a0319905080825116835283830192508660f01b83526f67363d3d37363d34f03d5260086018f3600052886010806000f58061268c5763ebfef1886000526004601cfd5b8060145261d69460005260016034536017601e20985060008088886000855af115893b1517156126c457638f86d2f16000526004601cfd5b50505050505050509392505050565b600060405163a9059cbb60e01b81526001600160a01b0384166004820152826024820152602060006044836000895af13d15601f3d11600160005114161716915050806112fc5760405162461bcd60e51b815260206004820152600f60248201526e1514905394d1915497d19052531151608a1b6044820152606401611602565b60006040516323b872dd60e01b81526001600160a01b03851660048201526001600160a01b03841660248201528260448201526020600060648360008a5af13d15601f3d11600160005114161716915050806127e95760405162461bcd60e51b81526020600482015260146024820152731514905394d1915497d19493d357d1905253115160621b6044820152606401611602565b5050505050565b60006020828403121561280257600080fd5b5035919050565b60005b8381101561282457818101518382015260200161280c565b50506000910152565b60008151808452612845816020860160208601612809565b601f01601f19169290920160200192915050565b60208152600061286c602083018461282d565b9392505050565b6001600160a01b038116811461288857600080fd5b50565b6000806040838503121561289e57600080fd5b82356128a981612873565b946020939093013593505050565b6000602082840312156128c957600080fd5b81356001600160e01b03198116811461286c57600080fd5b6000806000606084860312156128f657600080fd5b833561290181612873565b95602085013595506040909401359392505050565b634e487b7160e01b600052604160045260246000fd5b604051601f8201601f1916810167ffffffffffffffff8111828210171561295557612955612916565b604052919050565b600067ffffffffffffffff82111561297757612977612916565b50601f01601f191660200190565b600082601f83011261299657600080fd5b81356129a96129a48261295d565b61292c565b8181528460208386010111156129be57600080fd5b816020850160208301376000918101602001919091529392505050565b803580151581146129eb57600080fd5b919050565b600080600060608486031215612a0557600080fd5b8335612a1081612873565b9250602084013567ffffffffffffffff811115612a2c57600080fd5b612a3886828701612985565b925050612a47604085016129db565b90509250925092565b60008060408385031215612a6357600080fd5b50508035926020909101359150565b60008060408385031215612a8557600080fd5b8235612a9081612873565b9150612a9e602084016129db565b90509250929050565b600080600060608486031215612abc57600080fd5b8335612ac781612873565b92506020840135612ad781612873565b929592945050506040919091013590565b602081528151151560208201526000602083015160018060a01b0380821660408501528060408601511660608501525050606083015160808084015261131a60a084018261282d565b84151581526001600160a01b03848116602083015283166040820152608060608201819052600090612b659083018461282d565b9695505050505050565b60008060408385031215612b8257600080fd5b823567ffffffffffffffff811115612b9957600080fd5b612ba585828601612985565b95602094909401359450505050565b60008060408385031215612bc757600080fd5b8235612bd281612873565b91506020830135612be281612873565b809150509250929050565b6020810160048310612c0f57634e487b7160e01b600052602160045260246000fd5b91905290565b60008060408385031215612c2857600080fd5b8235612c3381612873565b9150602083013567ffffffffffffffff811115612c4f57600080fd5b612c5b85828601612985565b9150509250929050565b60008060008060808587031215612c7b57600080fd5b8435612c8681612873565b93506020850135925060408501359150612ca2606086016129db565b905092959194509250565b600080600080600060a08688031215612cc557600080fd5b8535612cd081612873565b94506020860135612ce081612873565b9350604086013567ffffffffffffffff811115612cfc57600080fd5b612d0888828901612985565b93505060608601359150612d1e608087016129db565b90509295509295909350565b600080600060608486031215612d3f57600080fd5b833592506020840135612ad781612873565b60008060008060808587031215612d6757600080fd5b8435612d7281612873565b93506020850135612d8281612873565b93969395505050506040820135916060013590565b600181811c90821680612dab57607f821691505b6020821081036106d657634e487b7160e01b600052602260045260246000fd5b805165ffffffffffff811681146129eb57600080fd5b600060408284031215612df357600080fd5b6040516040810181811067ffffffffffffffff82111715612e1657612e16612916565b604052612e2283612dcb565b81526020830151612e3281612873565b60208201529392505050565b600060208284031215612e5057600080fd5b815160ff8116811461286c57600080fd5b600060208284031215612e7357600080fd5b5051919050565b634e487b7160e01b600052601160045260246000fd5b8082018082111561070d5761070d612e7a565b8181038181111561070d5761070d612e7a565b65ffffffffffff828116828216039080821115610f9057610f90612e7a565b600082601f830112612ee657600080fd5b8151612ef46129a48261295d565b818152846020838601011115612f0957600080fd5b61131a826020830160208701612809565b600080600060608486031215612f2f57600080fd5b835167ffffffffffffffff80821115612f4757600080fd5b612f5387838801612ed5565b94506020860151915080821115612f6957600080fd5b612f7587838801612ed5565b93506040860151915080821115612f8b57600080fd5b50612f9886828701612ed5565b9150509250925092565b600060208284031215612fb457600080fd5b815167ffffffffffffffff811115612fcb57600080fd5b61131a84828501612ed5565b60008551612fe9818460208a01612809565b600160fd1b9083019081528551613007816001840160208a01612809565b808201915050602d60f81b806001830152855161302b816002850160208a01612809565b60029201918201528351613046816003840160208801612809565b016003019695505050505050565b60006020828403121561306657600080fd5b6040516020810181811067ffffffffffffffff8211171561308957613089612916565b60405261309583612dcb565b81529392505050565b601f82111561167e57600081815260208120601f850160051c810160208610156130c55750805b601f850160051c820191505b81811015612572578281556001016130d1565b815167ffffffffffffffff8111156130fe576130fe612916565b6131128161310c8454612d97565b8461309e565b602080601f831160018114613147576000841561312f5750858301515b600019600386901b1c1916600185901b178555612572565b600085815260208120601f198616915b8281101561317657888601518255948401946001909101908401613157565b50858210156131945787850151600019600388901b60f8161c191681555b5050505050600190811b01905550565b8181036131af575050565b6131b98254612d97565b67ffffffffffffffff8111156131d1576131d1612916565b6131df8161310c8454612d97565b6000601f82116001811461321357600083156131fb5750848201545b600019600385901b1c1916600184901b1784556127e9565b600085815260209020601f19841690600086815260209020845b8381101561324d578286015482556001958601959091019060200161322d565b50858310156131945793015460001960f8600387901b161c19169092555050600190811b01905550565b805160208083015191908110156106d65760001960209190910360031b1b16919050565b634e487b7160e01b600052601260045260246000fd5b600060ff8316806132c4576132c461329b565b8060ff84160491505092915050565b60ff818116838216019081111561070d5761070d612e7a565b600060ff8316806132ff576132ff61329b565b8060ff84160691505092915050565b805160208201516001600160c81b0319808216929190600783101561333d5780818460070360031b1b83161693505b50505091905056fea26469706673582212205a7e9b6c38259403d59540db4ce204719d0651a21f88f7bae0511605db8e736364736f6c63430008130033608060405234801561001057600080fd5b5061073d806100206000396000f3fe608060405234801561001057600080fd5b50600436106101005760003560e01c806370a0823111610097578063a457c2d711610066578063a457c2d714610210578063a9059cbb14610123578063dd62ed3e14610223578063e184c9be1461024e57600080fd5b806370a08231146101cd5780638da5cb5b146101ed57806395d89b41146101f55780639dc29fac146101fd57600080fd5b8063313ce567116100d3578063313ce5671461016b578063395093511461018557806340c10f19146101985780636f307dc3146101ad57600080fd5b806306fdde0314610105578063095ea7b31461012357806318160ddd1461014657806323b872dd1461015d575b600080fd5b61010d61026d565b60405161011a91906105a6565b60405180910390f35b610136610131366004610610565b61029f565b604051901515815260200161011a565b61014f60005481565b60405190815260200161011a565b61013661013136600461063a565b6101736102ba565b60405160ff909116815260200161011a565b610136610193366004610610565b6102cb565b6101ab6101a6366004610610565b610369565b005b6101b56103b0565b6040516001600160a01b03909116815260200161011a565b61014f6101db366004610676565b60016020526000908152604090205481565b6101b56103bc565b61010d6103c8565b6101ab61020b366004610610565b6103d4565b61013661021e366004610610565b610417565b61014f610231366004610698565b600260209081526000928352604080842090915290825290205481565b61025661044c565b60405165ffffffffffff909116815260200161011a565b60606102796000610458565b60405160200161028b91815260200190565b604051602081830303815290604052905090565b60006040516339218f3b60e01b815260040160405180910390fd5b60006102c6604061046e565b905090565b3360009081526002602090815260408083206001600160a01b03861684529091528120805483919083906103009084906106e1565b90915550503360008181526002602090815260408083206001600160a01b038816808552908352928190205490519081529192917f8c5be1e5ebec7d5bd14f71427d1e84f3dd0314c0f7b2291e5b200ac8c7c3b925910160405180910390a35060015b92915050565b6103716103bc565b6001600160a01b0316336001600160a01b0316146103a2576040516339218f3b60e01b815260040160405180910390fd5b6103ac8282610487565b5050565b60006102c6605d6104f2565b60006102c660496104f2565b60606102796020610458565b6103dc6103bc565b6001600160a01b0316336001600160a01b03161461040d576040516339218f3b60e01b815260040160405180910390fd5b6103ac828261050b565b3360009081526002602090815260408083206001600160a01b03861684529091528120805483919083906103009084906106f4565b60006102c6604161057c565b600080610463610595565b929092013592915050565b600080610479610595565b929092013560f81c92915050565b8060008082825461049891906106e1565b90915550506001600160a01b0382166000818152600160209081526040808320805486019055518481527fddf252ad1be2c89b69c2b068fc378daa952ba7f163c4a11628f55a4df523b3ef91015b60405180910390a35050565b6000806104fd610595565b929092013560601c92915050565b6001600160a01b038216600090815260016020526040812080548392906105339084906106f4565b90915550506000805482900381556040518281526001600160a01b038416907fddf252ad1be2c89b69c2b068fc378daa952ba7f163c4a11628f55a4df523b3ef906020016104e6565b600080610587610595565b929092013560c01c92915050565b600119368181013560f01c90030190565b600060208083528351808285015260005b818110156105d3578581018301518582016040015282016105b7565b506000604082860101526040601f19601f8301168501019250505092915050565b80356001600160a01b038116811461060b57600080fd5b919050565b6000806040838503121561062357600080fd5b61062c836105f4565b946020939093013593505050565b60008060006060848603121561064f57600080fd5b610658846105f4565b9250610666602085016105f4565b9150604084013590509250925092565b60006020828403121561068857600080fd5b610691826105f4565b9392505050565b600080604083850312156106ab57600080fd5b6106b4836105f4565b91506106c2602084016105f4565b90509250929050565b634e487b7160e01b600052601160045260246000fd5b80820180821115610363576103636106cb565b81810381811115610363576103636106cb56fea26469706673582212206bfc52534c42300ff00ccd2cfad7d15fab0604412f54e4b028099976653518a364736f6c63430008130033",
    "linkReferences": {
      "src/lib/Timestamp.sol": {
        "Timestamp": [
          {
            "start": 6118,
            "length": 20
          }
        ]
      }
    }
  },
  "methodIdentifiers": {
    "INIT()": "ea643914",
    "PARENT()": "122b83f9",
    "TYPE()": "bb24fe8a",
    "VEECODE()": "d61735ca",
    "allowance(address,address,uint256)": "598af9e7",
    "approve(address,uint256,uint256)": "426a8493",
    "balanceOf(address,uint256)": "00fdd58e",
    "computeId(address,bytes)": "dbad2d9a",
    "convertsTo(bytes,uint256)": "9ad790c5",
    "decimals(uint256)": "3f47e662",
    "deploy(address,bytes,bool)": "1f54245b",
    "exercise(uint256,uint256)": "a86265bb",
    "exerciseCost(bytes,uint256)": "6a9311b7",
    "getTokenMetadata(uint256)": "60316801",
    "isOperator(address,address)": "b6363cf2",
    "mint(address,address,bytes,uint256,bool)": "e40d88f8",
    "mint(address,uint256,uint256,bool)": "dbf110a7",
    "name(uint256)": "00ad800c",
    "reclaim(uint256)": "2dabbeed",
    "redeem(uint256,uint256)": "7cbc2373",
    "redeemMax(uint256)": "f904eed8",
    "redeemable(address,uint256)": "67627b62",
    "setOperator(address,bool)": "558a7297",
    "supportsInterface(bytes4)": "01ffc9a7",
    "symbol(uint256)": "4e41a1fb",
    "tokenMetadata(uint256)": "6914db60",
    "totalSupply(uint256)": "bd85b039",
    "transfer(address,uint256,uint256)": "095bcdb6",
    "transferFrom(address,address,uint256,uint256)": "fe99049a",
    "transform(uint256,address,uint256)": "f6e9936a",
    "unwrap(uint256,uint256)": "6e286671",
    "userVesting(address,uint256)": "e292b502",
    "validate(address,bytes)": "caf92785",
    "wrap(uint256,uint256)": "25ded586"
  },
  "id": 56
}